:100000000C944C010C9474010C9474010C947401C4
:100010000C9474010C9474010C9474010C9474018C
:100020000C9474010C9474010C9474010C9474017C
:100030000C9474010C9474010C9474010C9474016C
:100040000C941E0F0C9474010C941D120C944F12FE
:100050000C9474010C9474010C9474010C9474014C
:100060000C9474010C947401D003A8046405260652
:10007000E2069E075A08504120506F7765720920AA
:100080003D2025530D0A00435243204C656E677492
:100090006809203D2025530D0A004D6F64656C09E9
:1000A00009203D2025530D0A0044617461205261EE
:1000B000746509203D2025530D0A0044594E5044D3
:1000C0002F4645415455524500434F4E464947003F
:1000D00052465F53455455500052465F43480045D1
:1000E0004E5F52584144445200454E5F41410052D8
:1000F000585F50575F50302D360054585F4144448C
:10010000520052585F414444525F50322D350052E4
:10011000585F414444525F50302D31000D0A002594
:1001200030327800203078002553092563203D00C7
:100130000D0A0020307825303278002553092563D8
:10014000203D004F4253455256455F54583D25309F
:1001500032783A20504F4C535F434E543D2578201F
:100160004152435F434E543D25780D0A005354419C
:100170005455530909203D203078253032782052DB
:10018000585F44523D25782054585F44533D2578AC
:10019000204D41585F52543D25782052585F505FA2
:1001A0004E4F3D25782054585F46554C4C3D2578A0
:1001B0000D0A000001020304051112131415160A9A
:1001C0000B0C0D0E0FE301DC01D501CD0150415F99
:1001D00048494748004C415F4D45440050415F4C01
:1001E0004F570050415F4D494E00FF01F801F001AB
:1001F0003136206269747300382062697473004478
:10020000697361626C65640016020C026E524632BC
:10021000344C30312B006E524632344C3031003386
:10022000022D0225023235304B42505300324D42EE
:10023000505300314D4250530000000008000201AD
:100240000000030407000000000000000001020499
:100250000810204080010204081020010204081048
:10026000200404040404040404020202020202033F
:1002700003030303030000000023002600290000FD
:10028000000000250028002B0000000000240027AB
:10029000002A0000720A7F1211241FBECFEFD8E09F
:1002A000DEBFCDBF13E0A0E0B1E0E6E5FEE202C0B4
:1002B00005900D92AE31B107D9F723E0AEE1B3E07E
:1002C00001C01D92A93EB207E1F712E0C8E9D2E0F1
:1002D00004C02297FE010E941917C439D107C9F73B
:1002E0000E94C3120C9429170C9400008091030102
:1002F00090910401893223E2920719F48AE293E291
:1003000006C08A3223E2920779F489E293E290935D
:100310002903809328038BE293E290932B0380932D
:100320002A038CE293E21FC08B3223E2920749F446
:1003300089E293E290932903809328038AE293E26F
:10034000ECCF8C3223E29207D9F489E293E29093C6
:100350002903809328038AE293E290932B038093EE
:100360002A038BE293E290932D0380932C038DE27A
:1003700093E290932F0380932E038EE293E274C056
:100380008D3223E29207A9F48CE293E29093290341
:10039000809328038BE293E290932B0380932A03AC
:1003A0008AE293E290932D0380932C038EE293E2F2
:1003B00018C08E3223E29207D9F48DE293E2909333
:1003C0002903809328038CE293E290932B0380937C
:1003D0002A038BE293E290932D0380932C038AE20D
:1003E00093E290932F0380932E038FE293E23CC01D
:1003F0008F3223E29207D9F48EE293E2909329039D
:10040000809328038DE293E290932B0380932A0339
:100410008CE293E290932D0380932C038BE293E282
:1004200090932F0380932E038AE293E21DC08033C2
:100430009342F1F48FE293E290932903809328038F
:100440008EE293E290932B0380932A038DE293E252
:1004500090932D0380932C038CE293E290932F03CF
:1004600080932E038BE293E29093310380933003C9
:1004700008951F93CF93DF9360ED77E080E090E0E5
:100480000E94970F82E00E94AF10EC0183E00E946F
:10049000AF1011E0892B09F410E084E00E94AF1046
:1004A00021E0892B09F420E0CD2B39F411110CC087
:1004B000211114C089E293E21CC011110AC021115C
:1004C00010C08AE293E215C021110EC08BE293E2C4
:1004D00010C021110CC08CE293E20BC08DE293E2BC
:1004E00008C08EE293E205C08FE293E202C080E38F
:1004F00093E29093040180930301DF91CF911F91C8
:100500000895CF93DF93EB018130910539F561E1D7
:1005100073E08CE493E00E941D1365E071E08CE4CD
:1005200093E00E941D136AE271E08CE493E00E9464
:100530001D1361E087E00E9479106CE271E080E0B9
:1005400090E00E94970F60E087E00E9479106CE2D3
:1005500071E080E090E00E94970FEBCF8230910530
:1005600039F561E173E08CE493E00E941D136AE3C6
:1005700071E08CE493E00E941D136CE571E08CE463
:1005800093E00E941D1361E087E00E94791064EF00
:1005900071E080E090E00E94970F60E087E00E94A9
:1005A000791064EF71E080E090E00E94970FEBCF4C
:1005B00083309105A1F56CEE72E08CE493E00E942B
:1005C0001D1361E871E08CE493E00E9410134AE08F
:1005D00050E0BE018CE493E00E94C81362EA71E02F
:1005E0008CE493E00E941D136AE271E08CE493E0D6
:1005F0000E941D1361E087E00E9479106CEB72E0AD
:1006000080E090E00E94970F60E087E00E94791000
:100610006CEB72E080E090E00E94970FEBCF0497C4
:10062000E9F46CEE72E08CE493E00E941D1365EA3D
:1006300071E08CE493E00E94101362EA71E08CE4B4
:1006400093E00E941D136AE271E08CE493E00E9443
:100650001D1361E087E00E947910FBCFDF91CF91FD
:100660000895AF92BF92CF92DF92EF92FF920F93D5
:100670001F93CF93DF9300D000D0CDB7DEB769834F
:100680007A838B839C835A011091040100910301AA
:10069000712F770F770B272F372F472F572F672F64
:1006A00082E393E00E94AB0D82E393E00E94950CFD
:1006B0000E94680F6B017C0188E8C80E83E1D81E98
:1006C000E11CF11C44E0BE016F5F7F4F82E393E0C9
:1006D0000E945A0D81110DC00E94680FC616D706E0
:1006E000E806F90678F7B50183E090E00E94810200
:1006F000E9CF6CEE72E08CE493E00E941D1361EC94
:1007000071E08CE493E00E9410134AE050E0B501E0
:100710008CE493E00E94C8130F900F900F900F90FD
:10072000DF91CF911F910F91FF90EF90DF90CF90CD
:10073000BF90AF900895AF92BF92CF92DF92EF92A9
:10074000FF920F931F93CF93DF93CDB7DEB72A9716
:100750000FB6F894DEBF0FBECDBF85E0ECEDF2E042
:10076000DE01169601900D928A95E1F7CE01019671
:100770005C0185E0F50111928A95E9F7E0910301AA
:10078000F0910401E952F342E730F10508F051C558
:10079000EC5CFF4F6CEE72E08CE493E00C94171766
:1007A0000E941D1362ED71E08CE493E00E941D1322
:1007B0001091040100910301712F770F770B272F00
:1007C000372F472F572F672F82E393E00E94AB0DFF
:1007D00082E393E00E94950C6CEE72E08CE493E06F
:1007E0000E941D1362EE71E08CE493E00E941013EE
:1007F00060912803709129034AE050E08CE493E073
:100800000E94C8136EEE71E08CE493E00E94101316
:100810000E94680F6B01F8E1CF1AFCEFDF0AEE24AB
:10082000D7FCE094FE2C45E0BE016A5F7F4F82E377
:1008300093E00E945A0D811110C00E94680FC616E5
:10084000D706E806F90678F7609128037091290326
:1008500083E090E00E948102E6CF6CEE72E08CE4CF
:1008600093E00E941D1361EC71E08CE493E00E9420
:10087000101360912803709129034AE050E08CE442
:1008800093E00E94C8131AE2E12E03E2F02E00E08A
:1008900010E020E030E040E050E060E082E393E0F0
:1008A0000E94E70D82E393E00E945F0C6CEE72E021
:1008B0008CE493E00E941D1363EF71E08CE493E0FD
:1008C0000E94101360912803709129034AE050E0C0
:1008D0008CE493E00E94C8136EEE71E08CE493E028
:1008E0000E94101382E393E00E94270D8823D1F326
:1008F00045E0B50182E393E00E942B0D6CEE72E0BF
:100900008CE493E00E941D13B5018CE493E00E94F7
:1009100010136CEE72E08CE493E00E941D1363E010
:1009200072E08CE493E00E941013609128037091B0
:1009300029034AE050E08CE493E00E94C8136CEE77
:1009400072E08CE493E00E941D136AE172E06DC4D2
:100950000E941D1368E272E08CE493E00E941D1374
:10096000A9E2EA2EB3E2FB2E00E010E020E030E046
:1009700040E050E060E082E393E00E94E70D82E314
:1009800093E00E945F0C6CEE72E08CE493E00E94B6
:100990001D1363EF71E08CE493E00E9410134AE0B2
:1009A00050E069E273E28CE493E00E94C8136EEEBB
:1009B00071E08CE493E00E94101382E393E00E94C4
:1009C000270D8823D1F345E0B50182E393E00E942F
:1009D0002B0D6CEE72E08CE493E00E941D13B501C8
:1009E0008CE493E00E941013109104010091030124
:1009F000712F770F770B272F372F472F572F672F01
:100A000082E393E00E94AB0D82E393E00E94950C99
:100A10006CEE72E08CE493E00E941D1362EE71E0D4
:100A20008CE493E00E9410134AE050E069E273E224
:100A30008CE493E00E94C8136EEE71E08CE493E0C6
:100A40000E9410130E94680F6B0120EDC21A2AE861
:100A5000D20AEE24D7FCE094FE2C45E0BE016A5F8A
:100A60007F4F82E393E00E945A0D811110C00E94D3
:100A7000680FC616D706E806F90678F760912803CE
:100A80007091290383E090E00E948102E6CF61E14A
:100A900073E08CE493E00E941D1361EC71E08CE440
:100AA00093E00E9410134AE050E069E273E28CE4A4
:100AB00093E00E94C81361E173E08CE493E00E942C
:100AC0001D1368E372E0B1C30E941D1366E472E077
:100AD0008CE493E00E941D13E9E2EE2EF3E2FF2E78
:100AE00000E010E020E030E040E050E060E082E331
:100AF00093E00E94E70D82E393E00E945F0C6CEEAE
:100B000072E08CE493E00E941D1363EF71E08CE4CB
:100B100093E00E94101360912803709129034AE02A
:100B200050E08CE493E00E94C8136EEE71E08CE418
:100B300093E00E94101382E393E00E94270D882324
:100B4000D1F345E0B50182E393E00E942B0D6CEEFA
:100B500072E08CE493E00E941D13B5018CE493E0F5
:100B60000E9410131091040100910301712F770F5F
:100B7000770B272F372F472F572F672F82E393E0CD
:100B80000E94AB0D82E393E00E94950C6CEE72E044
:100B90008CE493E00E941D1362EE71E08CE493E01C
:100BA0000E94101360912803709129034AE050E0DD
:100BB0008CE493E00E94C8136EEE71E08CE493E045
:100BC0000E9410130E94680F6B01E0EDCE1AEAE854
:100BD000DE0AEE24D7FCE094FE2C45E0BE016A5FFD
:100BE0007F4F82E393E00E945A0D811110C00E9452
:100BF000680FC616D706E806F90678F7609128034D
:100C00007091290383E090E00E948102E6CF61E1C8
:100C100073E08CE493E00E941D1361EC71E08CE4BE
:100C200093E00E94101360912803709129034AE019
:100C300050E08CE493E00E94C81361E173E08CE41F
:100C400093E00E941D1366E572E0EFC20E941D133F
:100C500064E672E08CE493E00E941D1369E2E62EE4
:100C600073E2F72E00E010E020E030E040E050E0DA
:100C700060E082E393E00E94E70D82E393E00E944C
:100C80005F0C6CEE72E08CE493E00E941D1363EF46
:100C900071E08CE493E00E9410134AE050E069E2B6
:100CA00073E28CE493E00E94C8136EEE71E08CE472
:100CB00093E00E94101382E393E00E94270D8823A3
:100CC000D1F345E0B50182E393E00E942B0D6CEE79
:100CD00072E08CE493E00E941D13B5018CE493E074
:100CE0000E9410131091040100910301712F770FDE
:100CF000770B272F372F472F572F672F82E393E04C
:100D00000E94AB0D82E393E00E94950C6CEE72E0C2
:100D10008CE493E00E941D1362EE71E08CE493E09A
:100D20000E9410134AE050E069E273E28CE493E021
:100D30000E94C8136EEE71E08CE493E00E941013E1
:100D40000E94680F6B01F0EDCF1AFAE8DF0AEE247B
:100D5000D7FCE094FE2C45E0BE016A5F7F4F82E342
:100D600093E00E945A0D811110C00E94680FC616B0
:100D7000D706E806F90678F76091280370912903F1
:100D800083E090E00E948102E6CF61E173E08CE4B1
:100D900093E00E941D1361EC71E08CE493E00E94EB
:100DA00010134AE050E069E273E28CE493E00E94A1
:100DB000C81361E173E08CE493E00E941D1364E7C3
:100DC00072E033C20E941D1362E872E08CE493E08B
:100DD0000E941D1349E2E42E53E2F52E00E010E0DC
:100DE00020E030E040E050E060E082E393E00E94E9
:100DF000E70D82E393E00E945F0C6CEE72E08CE4FE
:100E000093E00E941D1363EF71E08CE493E00E9475
:100E100010134AE050E069E273E28CE493E00E9430
:100E2000C8136EEE71E08CE493E00E94101382E32D
:100E300093E00E94270D8823D1F345E0B50182E3BA
:100E400093E00E942B0D6CEE72E08CE493E00E9424
:100E50001D13B5018CE493E00E941013109104015E
:100E600000910301712F770F770B272F372F472F13
:100E7000572F672F82E393E00E94AB0D82E393E04C
:100E80000E94950C6CEE72E08CE493E00E941D13BE
:100E900062EE71E08CE493E00E9410134AE050E0AF
:100EA00069E273E28CE493E00E94C8136EEE71E095
:100EB0008CE493E00E9410130E94680F6B0120EDF8
:100EC000C21A2AE8D20AEE24D7FCE094FE2C45E0B0
:100ED000BE016A5F7F4F82E393E00E945A0D811149
:100EE00010C00E94680FC616D706E806F90678F704
:100EF000609128037091290383E090E00E948102B1
:100F0000E6CF61E173E08CE493E00E941D1361EC95
:100F100071E08CE493E00E9410134AE050E069E233
:100F200073E28CE493E00E94C81361E173E08CE407
:100F300093E00E941D1362E972E077C10E941D13C5
:100F400060EA72E08CE493E00E941D1329E2E22E35
:100F500033E2F32E00E010E020E030E040E050E02B
:100F600060E082E393E00E94E70D82E393E00E9459
:100F70005F0C6CEE72E08CE493E00E941D1363EF53
:100F800071E08CE493E00E9410134AE050E069E2C3
:100F900073E28CE493E00E94C8136EEE71E08CE47F
:100FA00093E00E94101382E393E00E94270D8823B0
:100FB000D1F345E0B50182E393E00E942B0D6CEE86
:100FC00072E08CE493E00E941D13B5018CE493E081
:100FD0000E9410131091040100910301712F770FEB
:100FE000770B272F372F472F572F672F82E393E059
:100FF0000E94AB0D82E393E00E94950C6CEE72E0D0
:101000008CE493E00E941D1362EE71E08CE493E0A7
:101010000E9410134AE050E069E273E28CE493E02E
:101020000E94C8136EEE71E08CE493E00E941013EE
:101030000E94680F6B01E0EDCE1AEAE8DE0AEE24AA
:10104000D7FCE094FE2C45E0BE016A5F7F4F82E34F
:1010500093E00E945A0D811110C00E94680FC616BD
:10106000D706E806F90678F76091280370912903FE
:1010700083E090E00E948102E6CF61E173E08CE4BE
:1010800093E00E941D1361EC71E08CE493E00E94F8
:1010900010134AE050E069E273E28CE493E00E94AE
:1010A000C81361E173E08CE493E00E941D1360EBD0
:1010B00072E0BBC00E941D136EEB72E08CE493E003
:1010C0000E941D1389E2E82E93E2F92E00E010E061
:1010D00020E030E040E050E060E082E393E00E94F6
:1010E000E70D82E393E00E945F0C6CEE72E08CE40B
:1010F00093E00E941D1363EF71E08CE493E00E9483
:1011000010134AE050E069E273E28CE493E00E943D
:10111000C8136EEE71E08CE493E00E94101382E33A
:1011200093E00E94270D8823D1F345E0B50182E3C7
:1011300093E00E942B0D6CEE72E08CE493E00E9431
:101140001D13B5018CE493E00E941013109104016B
:1011500000910301712F770F770B272F372F472F20
:10116000572F672F82E393E00E94AB0D82E393E059
:101170000E94950C6CEE72E08CE493E00E941D13CB
:1011800062EE71E08CE493E00E9410134AE050E0BC
:1011900069E273E28CE493E00E94C8136EEE71E0A2
:1011A0008CE493E00E9410130E94680F6B01F0ED35
:1011B000CF1AFAE8DF0AEE24D7FCE094FE2C45E0D3
:1011C000BE016A5F7F4F82E393E00E945A0D811156
:1011D00010C00E94680FC616D706E806F90678F711
:1011E000609128037091290383E090E00E948102BE
:1011F000E6CF61E173E08CE493E00E941D1361ECA3
:1012000071E08CE493E00E9410134AE050E069E240
:1012100073E28CE493E00E94C81361E173E08CE414
:1012200093E00E941D136EEC72E08CE493E00E9448
:101230001D132A960FB6F894DEBF0FBECDBFDF9107
:10124000CF911F910F91FF90EF90DF90CF90BF90C3
:10125000AF900895EF92FF920F931F9326E040E81E
:1012600055E260E070E08CE493E00E94BB1182E301
:1012700093E00E94CE0E60E082E00E94401060E0A9
:1012800083E00E94401060E084E00E94401060E033
:1012900085E00E94401061E087E00E9440100E94BB
:1012A000390280910301909104018F3027E2920767
:1012B00019F0873293423CF460E070E081E090E006
:1012C0000E94810210C061EE72E08CE493E00E9403
:1012D0001D1360910301709104014AE050E08CE419
:1012E00093E00E94D0130E94760168EE73E080E0E4
:1012F00090E00E94970F0E949B03F0902903E090DA
:1013000028035F2D550F550B052F152F252F352F32
:10131000452F60E082E393E00E94E70DF0902B03FD
:10132000E0902A035F2D550F550B052F152F252F04
:10133000352F452F61E082E393E00E94E70DF090A6
:101340002D03E0902C035F2D550F550B052F152F06
:10135000252F352F452F62E082E393E00E94E70DB1
:10136000F0902F03E0902E035F2D550F550B052FA6
:10137000152F252F352F452F63E082E393E00E9440
:10138000E70DF0903103E09030035F2D550F550BC2
:10139000052F152F252F352F452F64E082E393E08D
:1013A0000E94E70D82E393E01F910F91FF90EF9071
:1013B0000C945F0C0E94680F0091010110910201D2
:1013C000222717FD2095322F600F711F821F931F58
:1013D0006093220370932303809324039093250347
:1013E0000E94680F0091220310912303209124038F
:1013F000309125030617170728073907B0F5109213
:1014000000016EEE72E08CE493E00E941D13809167
:101410000301909104018A32934289F400912803D8
:10142000109129036091260370912703882777FD87
:101430008095982F0E94DA15A8010E9431030E941E
:10144000680F0091010110910201222717FD2095DC
:10145000322F600F711F821F931F609322037093BE
:101460002303809324039093250385E00E94AF100B
:101470000197A9F464EC79E080E090E00E94970F76
:1014800068EF72E08CE493E00E941D1380912603C4
:10149000909127030196909327038093260382E37C
:1014A00093E00E94270D882309F49ACF44E06EE16F
:1014B00073E082E393E00E942B0D6CEE72E08CE40B
:1014C00093E00E941D1340911E0350911F036091F1
:1014D00020037091210322E030E08CE493E00E942D
:1014E000D3147ECF4AE069E082E393E00C94450C8C
:1014F000CF93CFB7F89480914203811127C0EBE6D8
:10150000F2E08491E7E5F2E09491E82FF0E0EE0F4D
:10151000FF1FE757FD4FA591B4918C91892321F4CA
:1015200061E08AE00E94791061E08AE00E94401048
:101530008CB580618CBD8CB580648CBD61E08DE024
:101540000E94401061E08BE00E94401080914203B5
:101550008F5F80934203CFBFCF9108958EBD00006F
:101560000DB407FEFDCF8EB508952CB52F7D2CBD93
:101570002CB5237F2CBD2CB52C7F2CBD2DB52E7FFB
:101580002DBDFC0181810C947910FC0180810C94AB
:101590007910CF92DF92EF92FF920F931F93CF9328
:1015A000DF9300D0CDB7DEB78C01E62EF22E60E0DF
:1015B00070E049835A830E94B50A8E2D8F710E9474
:1015C000AE0AE82E4981C42E5A81D52EF40EFC14A1
:1015D00039F08FEF0E94AE0AF60181936F01F7CFC9
:1015E00061E070E0C8010E94B50A8E2D0F900F9047
:1015F000DF91CF911F910F91FF90EF90DF90CF90EF
:1016000008951F93CF93DF93EC01162F60E070E0F5
:101610000E94B50A812F8F710E94AE0A8FEF0E943F
:10162000AE0A182F61E070E0CE010E94B50A812F4A
:10163000DF91CF911F910895CF92DF92EF92FF92A9
:101640000F931F93CF93DF9300D0CDB7DEB78C01FC
:10165000E62EF22E60E070E049835A830E94B50ABC
:101660008E2D8F7180620E94AE0AE82E4981C42EB1
:101670005A81D52EF40EFC1431F0F60181916F01E0
:101680000E94AE0AF8CF61E070E0C8010E94B50A7E
:101690008E2D0F900F90DF91CF911F910F91FF90A2
:1016A000EF90DF90CF900895EF92FF921F93CF932A
:1016B000DF931F92CDB7DEB77C01162F60E070E09C
:1016C00049830E94B50A812F8F7180620E94AE0A01
:1016D000182F4981842F0E94AE0A61E070E0C70193
:1016E0000E94B50A812F0F90DF91CF911F91FF903B
:1016F000EF900895BF92CF92DF92EF92FF920F93F7
:101700001F93CF93DF938C01D62EB72EFC01C4819B
:10171000F42EC41708F4FC2EF8018681811103C051
:10172000EC2EEF1801C0E12C60E070E0C8010E94CF
:10173000B50A80EA0E94AE0AC82ECD2DDB2DFD0C25
:10174000FC1621F089910E94AE0AFACFCE2DCC234F
:1017500029F080E00E94AE0AC150F9CF61E070E04C
:10176000C8010E94B50A8C2DDF91CF911F910F9176
:10177000FF90EF90DF90CF90BF900895BF92CF92EF
:10178000DF92EF92FF920F931F93CF93DF938C0121
:10179000D62EB72EFC01C481F42EC41708F4FC2EFB
:1017A000F8018681811103C0EC2EEF1801C0E12CF5
:1017B00060E070E0C8010E94B50A81E60E94AE0AAE
:1017C000C82ECD2DDB2DFD0CFC1629F08FEF0E94CD
:1017D000AE0A8993F9CFCE2DCC2329F08FEF0E944A
:1017E000AE0AC150F9CF61E070E0C8010E94B50AAD
:1017F0008C2DDF91CF911F910F91FF90EF90DF9093
:10180000CF90BF9008951F93CF93DF93EC0160E0DA
:1018100070E00E94B50A82EE0E94AE0A182F61E0C5
:1018200070E0CE010E94B50A812FDF91CF911F9108
:1018300008951F93CF93DF93EC0160E070E00E9466
:10184000B50A81EE0E94AE0A182F61E070E0CE0169
:101850000E94B50A812FDF91CF911F9108951F93A8
:10186000CF93DF93EC0160E070E00E94B50A8FEF48
:101870000E94AE0A182F61E070E0CE010E94B50A06
:10188000812FDF91CF911F910895FC0160834183E7
:1018900081E08283138280E284831582168210861F
:1018A0001186128613861486158616861786089565
:1018B000462F603808F04FE765E00C94540BCF9347
:1018C000DF93EC0160E00E94010B482F436060E071
:1018D000CE010E94540B40E767E0CE010E94540BFA
:1018E000288539854A855B856C857D858E859F85B4
:1018F000A0E00E941D1741F025E0AE01485F5F4F58
:101900006AE0CE010E941C0BCE010E94030CCE01A6
:101910000E94190C61E070E0CE010E94C50A82E8C5
:1019200090E0DF91CF910C94D10FCF93DF93EC0136
:1019300060E070E00E94C50ACE010E94190CCE0141
:10194000DF91CF910C94030CCF93DF93EC0160E017
:101950000E94010B482F4D7F60E0CE01DF91CF91B7
:101960000C94540BFF920F931F93CF93DF93EC01D2
:101970008B01F42E60E00E94010B482F4C7F4260E7
:1019800060E0CE010E94540B86E990E00E94D10FE6
:101990004F2DB801CE010E947A0B61E070E0CE01BC
:1019A0000E94C50A8FE090E00E94D10F60E070E0D5
:1019B000CE01DF91CF911F910F91FF900C94C50A3A
:1019C0001F93CF93DF93EC0160E070E00E94B50AB3
:1019D00080E60E94AE0A8FEF0E94AE0A182F61E0E7
:1019E00070E0CE010E94B50A812FDF91CF911F9147
:1019F0000895EF92FF920F931F93CF93DF93EC0123
:101A00008B010E942F0CF82E86FBEE24E0F886FF57
:101A100016C00115110539F0282F30E035952795AE
:101A20002770F801208340E467E0CE010E94540B48
:101A3000F5FE05C040E267E0CE010E94540B8E2DFA
:101A4000DF91CF911F910F91FF90EF90089560E08B
:101A500070E00C94F90CCF93DF93EC010E94BE0B65
:101A600067E1CE010E94010B8170DF91CF91089553
:101A7000EF92FF920F931F93CF93DF93EB018A01B5
:101A8000790140E767E00E94540B85FB992790F9A4
:101A9000988384FB992790F9F801908386FB882727
:101AA00080F9F7018083DF91CF911F910F91FF9013
:101AB000EF900895CF92DF92EF92FF920F931F93D2
:101AC000CF93DF9300D01F92CDB7DEB78C010E9479
:101AD000B20C0E94680F6B017C0121E0AE014D5FEA
:101AE0005F4F68E0C8010E94C90A807359F40E94E0
:101AF000680F6C197D098E099F09643F714081054B
:101B0000910558F398012B5F3F4FAE014F5F5F4F38
:101B1000BE016E5F7F4FC8010E94380DFA80F80148
:101B20008581882329F0C8010E94E00CF801878391
:101B3000C8010E94A40CC8010E94190C8F2D0F909F
:101B40000F900F90DF91CF911F910F91FF90EF9029
:101B5000DF90CF900895EF92FF920F931F93CF9352
:101B6000DF93CDB7DEB728970FB6F894DEBF0FBE70
:101B7000CDBF7C0109831A832B833C834D835E8315
:101B80006F83788725E0AE014F5F5F4F6AE00E9468
:101B90001C0B25E0AE014F5F5F4F60E1C7010E9463
:101BA0001C0BF7014481413208F040E261E1C701BA
:101BB0000E94540B28960FB6F894DEBF0FBECDBF1F
:101BC000DF91CF911F910F91FF90EF900895BF92F9
:101BD000CF92DF92EF92FF920F931F93CF93DF93F9
:101BE000CDB7DEB728970FB6F894DEBF0FBECDBFD6
:101BF0006C01B62EE982FA820B831C832D833E830F
:101C00004F83588761110AC0F601E086F18602878A
:101C10001387248735874687578707C0F6E0F6176E
:101C200008F435C081E0681307C0EB2DF0E0E15403
:101C3000FE4F649125E006C0E62FF0E0E154FE4F30
:101C4000649121E0AE014F5F5F4FC6010E941C0B03
:101C50000B2D10E0F801E754FE4F6491F60144812A
:101C6000C6010E94540B62E0C6010E94010BF801FC
:101C7000ED54FE4F049121E030E001C0220F0A959F
:101C8000EAF7822B482F62E0C6010E94540B289687
:101C90000FB6F894DEBF0FBECDBFDF91CF911F917D
:101CA0000F91FF90EF90DF90CF90BF9008950F932A
:101CB0001F93CF93DF938C01EB0166E00E94010B31
:101CC000482F497FC330D10561F0C230D10511F4EE
:101CD000446008C0C130D10511F4426003C02497AC
:101CE00009F4466066E0C801DF91CF911F910F9122
:101CF0000C94540BEF92FF920F931F93CF93DF93AB
:101D00001F92CDB7DEB77C018B0166E00E94010B0C
:101D1000F7011282282F277D0230110511F420626D
:101D200007C00130110521F481E0F70182832860AA
:101D3000422F66E0C70129830E94540B66E0C70169
:101D40000E94010B2981821721F0F701128280E0A5
:101D500001C081E00F90DF91CF911F910F91FF9013
:101D6000EF9008950F931F93CF93DF93EC018B01B6
:101D700060E00E94010B482F437F0115110531F0EF
:101D80000130110511F4486001C04C6060E0CE01E3
:101D9000DF91CF911F910F910C94540BCF93DF9350
:101DA000EC0161E088810E94401061E089810E941D
:101DB00040100E94780A60E070E0CE010E94C50ADF
:101DC00061E070E0CE010E94B50A65E070E080E05D
:101DD00090E00E94970F4FE464E0CE010E94540B04
:101DE00063E070E0CE010E94570E62E070E0CE0129
:101DF0000E947A0E882311F081E08B8360E070E00E
:101E0000CE010E947A0E62E070E0CE010E94B20E16
:101E100040E06CE1CE010E94540B40E767E0CE0148
:101E20000E94540B6CE4CE010E94580CCE010E941B
:101E3000030CCE01DF91CF910C94190C1F920F92DD
:101E40000FB60F9211242F933F938F939F93AF93CD
:101E5000BF938091440390914503A0914603B091B4
:101E600047033091430323E0230F2D3720F40196DD
:101E7000A11DB11D05C026E8230F0296A11DB11DAD
:101E8000209343038093440390934503A093460318
:101E9000B09347038091480390914903A0914A036E
:101EA000B0914B030196A11DB11D809348039093FF
:101EB0004903A0934A03B0934B03BF91AF919F9105
:101EC0008F913F912F910F900FBE0F901F901895FB
:101ED0002FB7F894609144037091450380914603B5
:101EE000909147032FBF08953FB7F894809148031E
:101EF00090914903A0914A03B0914B0326B5A89B4A
:101F000005C02F3F19F00196A11DB11D3FBF6627E7
:101F1000782F892F9A2F620F711D811D911D42E02C
:101F2000660F771F881F991F4A95D1F708958F92E2
:101F30009F92AF92BF92CF92DF92EF92FF926B018E
:101F40007C010E94740F4B015C01C114D104E104B7
:101F5000F104F1F00E94D5140E94740F68197909F8
:101F60008A099B09683E73408105910570F321E061
:101F7000C21AD108E108F10888EE880E83E0981EA5
:101F8000A11CB11CC114D104E104F10429F7DDCF77
:101F9000FF90EF90DF90CF90BF90AF909F908F9089
:101FA00008958230910538F0880F991F880F991F86
:101FB00005970197F1F70895789484B5826084BD00
:101FC00084B5816084BD85B5826085BD85B581603D
:101FD00085BDEEE6F0E0808181608083E1E8F0E09D
:101FE0001082808182608083808181608083E0E8CC
:101FF000F0E0808181608083E1EBF0E080818460AB
:102000008083E0EBF0E0808181608083EAE7F0E0AC
:102010008081846080838081826080838081816010
:1020200080838081806880831092C100089583300E
:1020300081F028F4813099F08230A1F00895873042
:10204000A9F08830B9F08430D1F4809180008F7D80
:1020500003C0809180008F7780938000089584B5BD
:102060008F7702C084B58F7D84BD08958091B000C4
:102070008F7703C08091B0008F7D8093B00008956A
:10208000CF93DF9390E0FC01E35BFD4F2491FC01D3
:10209000EF59FD4F8491882349F190E0880F991FF3
:1020A000FC01E757FD4FA591B49181589D4FFC016C
:1020B000C591D4919FB7611108C0F8948C91209577
:1020C00082238C93888182230AC0623051F4F89471
:1020D0008C91322F309583238C938881822B888337
:1020E00004C0F8948C91822B8C939FBFDF91CF9189
:1020F00008950F931F93CF93DF931F92CDB7DEB751
:10210000282F30E0F901E75CFD4F8491F901E35B92
:10211000FD4F1491F901EF59FD4F04910023C9F0CF
:10212000882321F069830E9417106981E02FF0E075
:10213000EE0FFF1FE158FD4FA591B4919FB7F894A2
:102140008C91611103C01095812301C0812B8C9368
:102150009FBF0F90DF91CF911F910F910895CF9363
:10216000DF93282F30E0F901E75CFD4F8491F901FE
:10217000E35BFD4FD491F901EF59FD4FC491CC239E
:1021800091F081110E941710EC2FF0E0EE0FFF1F6D
:10219000EB58FD4FA591B4912C912D2381E090E057
:1021A00021F480E002C080E090E0DF91CF910895BB
:1021B000FC01818D228D90E0805C9F4F821B9109F4
:1021C0008F7399270895FC01918D828D981731F0B6
:1021D000828DE80FF11D858D90E008958FEF9FEFC0
:1021E0000895FC01918D828D981761F0828DDF0139
:1021F000A80FB11D5D968C91928D9F5F9F73928FFA
:1022000090E008958FEF9FEF089585E792E1892B85
:1022100049F080E090E0892B29F00E94751281112D
:102220000C9400000895FC01848DDF01A80FB11DFE
:10223000A35ABF4F2C91848D90E001968F739927FC
:10224000848FA689B7892C93A089B1898C918064E9
:102250008C93938D848D981306C00288F389E02DAA
:1022600080818F7D80830895CF93DF93EC01888DEB
:102270008823C9F0EA89FB89808185FD05C0A8898A
:10228000B9898C9186FD0FC00FB607FCF5CF808110
:1022900085FFF2CFA889B9898C9185FFEDCFCE015A
:1022A0000E941311E7CFDF91CF910895CF92DF9273
:1022B000FF920F931F93CF93DF931F92CDB7DEB79B
:1022C0006C0181E0D60158968C9358975B969C914F
:1022D0005B975C968C915C97981307C05096ED9134
:1022E000FC915197808185FD2EC0F601038D10E091
:1022F0000F5F1F4F0F731127F02EF601848DF81218
:1023000011C00FB607FCF9CFD6015096ED91FC91A4
:102310005197808185FFF1CFC60169830E94131117
:102320006981EBCF838DE80FF11DE35AFF4F608386
:10233000D6015B960C935B975296ED91FC91539767
:10234000808180620CC0D6015696ED91FC91579722
:1023500060835096ED91FC915197808180648083D9
:1023600081E090E00F90DF91CF911F910F91FF904E
:10237000DF90CF900895BF92CF92DF92EF92FF92BD
:10238000CF93DF93EC016A017B01B22EE889F989D2
:1023900082E08083411581EE580761057105A1F047
:1023A00060E079E08DE390E0A70196010E94F516C8
:1023B000215031094109510956954795379527957F
:1023C000211580E1380798F0E889F989108260E8E2
:1023D00074E88EE190E0A70196010E94F516215065
:1023E0003109410951095695479537952795EC854F
:1023F000FD853083EE85FF852083188EEC89FD896D
:10240000B082EA89FB89808180618083EA89FB89C7
:10241000808188608083EA89FB89808180688083ED
:10242000EA89FB8980818F7D8083DF91CF91FF9046
:10243000EF90DF90CF90BF9008951F920F920FB64C
:102440000F9211242F938F939F93EF93FF93E0911B
:102450005C03F0915D038081E0916203F09163037E
:1024600082FD12C09081809165038F5F8F732091F0
:102470006603821751F0E0916503F0E0E45BFC4FE6
:10248000958F8093650301C08081FF91EF919F91AB
:102490008F912F910F900FBE0F901F9018951F9244
:1024A0000F920FB60F9211242F933F934F935F9388
:1024B0006F937F938F939F93AF93BF93EF93FF930C
:1024C0008CE493E00E941311FF91EF91BF91AF91C3
:1024D0009F918F917F916F915F914F913F912F913C
:1024E0000F900FBE0F901F9018958CE493E00E9400
:1024F000D81021E0892B09F420E0822F0895109252
:102500004F0310924E0388EE93E0A0E0B0E080937A
:10251000500390935103A0935203B093530383E06D
:1025200093E090934D0380934C0385EC90E090935F
:1025300059038093580384EC90E090935B0380935D
:102540005A0380EC90E090935D0380935C0381ECF0
:1025500090E090935F0380935E0382EC90E0909311
:1025600061038093600386EC90E090936303809313
:102570006203109265031092660310926703109233
:102580006803089508950E94DC0F0E94C2120E9401
:102590002A09C5E0D1E10E94DA092097E1F30E94FF
:1025A0000511F9CFCF92DF92EF92FF920F931F9315
:1025B000CF93DF937C016A01EB0100E010E00C1582
:1025C0001D0571F06991D701ED91FC910190F081A9
:1025D000E02DC7010995892B19F00F5F1F4FEFCF31
:1025E000C801DF91CF911F910F91FF90EF90DF9085
:1025F000CF9008956115710581F0DB010D900020E9
:10260000E9F7AD0141505109461B570BDC01ED9133
:10261000FC910280F381E02D099480E090E0089520
:102620000C94FA12DC01ED91FC910190F081E02D07
:1026300009946FE073E00C94FA120F931F93CF93F9
:10264000DF93EC010E94FA128C01CE010E94191353
:10265000800F911FDF91CF911F910F9108958F925D
:102660009F92AF92BF92DF92EF92FF920F931F93D0
:10267000CF93DF93CDB7DEB7A1970FB6F894DEBF47
:102680000FBECDBF7C01F42FD52ECB0119A2223075
:1026900008F42AE08E010F5D1F4F822E912CA12C91
:1026A000B12C6F2F7D2DA50194010E94F516F22FFC
:1026B000D32ECA01015011096A3014F4E0E301C0BD
:1026C000E7E3E60FD801EC93232B242B252B49F7C6
:1026D000B801C7010E94FA12A1960FB6F894DEBFA6
:1026E0000FBECDBFDF91CF911F910F91FF90EF9063
:1026F000DF90BF90AF909F908F900895CF92DF9220
:10270000EF92FF920F931F93CF93DF93EC016A0137
:102710007B012115310579F4E881F9810190F0817F
:10272000E02D642FDF91CF911F910F91FF90EF90DB
:10273000DF90CF9009942A303105E9F477FF1AC071
:102740006DE20E9412138C0144275527BA014C19DF
:102750005D096E097F092AE0CE010E942F13800FC8
:10276000911FDF91CF911F910F91FF90EF90DF901C
:10277000CF9008952AE0B701A601CE01DF91CF9155
:102780001F910F91FF90EF90DF90CF900C942F133B
:102790009A01AB01662757FD6095762F0C947E1346
:1027A0000F931F93CF93DF93EC019A01AB01662740
:1027B00057FD6095762F0E947E138C01CE010E94FA
:1027C0001913800F911FDF91CF911F910F910895E1
:1027D0004F925F926F927F928F929F92AF92BF9231
:1027E000CF92DF92EF92FF920F931F93CF93DF93DD
:1027F000EC016A017B01B22E9A01AB01C701B6015F
:102800000E94F116882319F062E173E027C02601C7
:102810003701E89477F82FEF3FEF4FE75FE7C30109
:10282000B2010E94F11681110DC02FEF3FEF4FE76B
:102830005FE7C301B2010E943B1518161CF466E164
:1028400073E00CC02FEF3FEF4FE75FE4C701B60125
:102850000E948A161816ACF46AE173E0CE01DF918B
:10286000CF911F910F91FF90EF90DF90CF90BF908D
:10287000AF909F908F907F906F905F904F900C944F
:10288000FA122FEF3FEF4FE75FECC701B6010E944E
:102890003B1587FDE1CF20E030E0A901C701B6017B
:1028A0000E943B1587FF0AC06DE2CE010E94121301
:1028B0008C01F7FAF094F7F8F09402C000E010E011
:1028C000A12C60E070E080E09FE3AB1441F020E0D9
:1028D00030E040E251E40E943F15A394F6CF9B0103
:1028E000AC01C701B6010E94D7146B017C010E94A4
:1028F000AC152B013C010E94D8159B01AC01C7010E
:10290000B6010E94D6146B017C012AE0B301A2013A
:10291000CE010E942F13080F191FBB2039F061EF61
:1029200071E0CE010E94FA12080F191F7B2C77204C
:1029300041F120E030E040E251E4C701B6010E94DD
:102940008E166B017C010E94A7154B01AA2497FCEF
:10295000A094BA2C2AE030E0B501A401CE010E9477
:102960007E13080F191FC501B4010E94DA159B01DF
:10297000AC01C701B6010E94D6146B017C017A94A8
:10298000D6CFC801DF91CF911F910F91FF90EF90AB
:10299000DF90CF90BF90AF909F908F907F906F907F
:1029A0005F904F9008950C94E81308955058BB27FA
:1029B000AA270ED075C166D130F06BD120F031F46A
:1029C0009F3F11F41EF45BC10EF4E095E7FB51C18B
:1029D000E92F77D180F3BA17620773078407950749
:1029E00018F071F49EF58FC10EF4E0950B2EBA2FFE
:1029F000A02D0B01B90190010C01CA01A001112405
:102A0000FF27591B99F0593F50F4503E68F11A16B0
:102A1000F040A22F232F342F4427585FF3CF469541
:102A200037952795A795F0405395C9F77EF41F1663
:102A3000BA0B620B730B840BBAF09150A1F0FF0F2D
:102A4000BB1F661F771F881FC2F70EC0BA0F621F19
:102A5000731F841F48F4879577956795B795F79509
:102A60009E3F08F0B3CF9395880F08F09927EE0F9B
:102A7000979587950895D9D008F481E008950CD0F2
:102A80000FC107D140F0FED030F021F45F3F19F0C4
:102A9000F0C0511139C1F3C014D198F39923C9F38F
:102AA0005523B1F3951B550BBB27AA276217730754
:102AB000840738F09F5F5F4F220F331F441FAA1F08
:102AC000A9F333D00E2E3AF0E0E830D091505040C8
:102AD000E695001CCAF729D0FE2F27D0660F771F76
:102AE000881FBB1F261737074807AB07B0E809F058
:102AF000BB0B802DBF01FF2793585F4F2AF09E3FED
:102B0000510568F0B6C000C15F3FECF3983EDCF3BE
:102B1000869577956795B795F7959F5FC9F7880F65
:102B2000911D9695879597F90895E1E0660F771FB7
:102B3000881FBB1F621773078407BA0720F0621B48
:102B4000730B840BBA0BEE1F88F7E095089504D041
:102B50006894B111D9C00895BCD088F09F5790F007
:102B6000B92F9927B751A0F0D1F0660F771F881FB2
:102B7000991F1AF0BA95C9F712C0B13081F0C3D0CD
:102B8000B1E00895C0C0672F782F8827B85F39F06B
:102B9000B93FCCF3869577956795B395D9F73EF411
:102BA00090958095709561957F4F8F4F9F4F0895B9
:102BB000E89409C097FB3EF49095809570956195D7
:102BC0007F4F8F4F9F4F9923A9F0F92F96E9BB278D
:102BD0009395F695879577956795B795F111F8CF09
:102BE000FAF4BB0F11F460FF1BC06F5F7F4F8F4F74
:102BF0009F4F16C0882311F096E911C0772321F06A
:102C00009EE8872F762F05C0662371F096E8862F01
:102C100070E060E02AF09A95660F771F881FDAF758
:102C2000880F9695879597F90895990F0008550F85
:102C3000AA0BE0E8FEEF16161706E807F907C0F042
:102C400012161306E407F50798F0621B730B840B4A
:102C5000950B39F40A2661F0232B242B252B21F424
:102C600008950A2609F4A140A6958FEF811D811DC4
:102C7000089597F99F6780E870E060E008959FEFFE
:102C800080EC089500240A94161617061806090603
:102C9000089500240A9412161306140605060895D2
:102CA000092E0394000C11F4882352F0BB0F40F45A
:102CB000BF2B11F460FF04C06F5F7F4F8F4F9F4F9A
:102CC000089557FD9058440F551F59F05F3F71F01C
:102CD0004795880F97FB991F61F09F3F79F0879583
:102CE0000895121613061406551FF2CF4695F1DF0C
:102CF00008C0161617061806991FF1CF869571059C
:102D0000610508940895E894BB2766277727CB01CF
:102D100097F908958ADF08F48FEF08950BD0C0CF9C
:102D2000B1DF28F0B6DF18F0952309F0A2CFA7CFC6
:102D30001124EACFC6DFA0F3959FD1F3950F50E0A1
:102D4000551F629FF001729FBB27F00DB11D639F5D
:102D5000AA27F00DB11DAA1F649F6627B00DA11D03
:102D6000661F829F2227B00DA11D621F739FB00DA9
:102D7000A11D621F839FA00D611D221F749F332719
:102D8000A00D611D231F849F600D211D822F762FB2
:102D90006A2F11249F5750408AF0E1F088234AF0AF
:102DA000EE0FFF1FBB1F661F771F881F91505040FB
:102DB000A9F79E3F510570F05CCFA6CF5F3FECF3C3
:102DC000983EDCF3869577956795B795F795E795E7
:102DD0009F5FC1F7FE2B880F911D9695879597F9F8
:102DE000089523DF880B990B0895A1E21A2EAA1BE0
:102DF000BB1BFD010DC0AA1FBB1FEE1FFF1FA217AB
:102E0000B307E407F50720F0A21BB30BE40BF50BA7
:102E1000661F771F881F991F1A9469F76095709530
:102E2000809590959B01AC01BD01CF010895EE0FF7
:102E3000FF1F0590F491E02D09940024A7FD009454
:102E40002A1730054005500560057005800590057E
:062E50000895F894FFCF85
:102E56000170170F274552524F5220303031212131
:102E66002053746174696F6E206164647265737354
:102E7600206E6F74207365742100506C65617365F4
:102E8600207265737461727421004552524F52204C
:102E96003030322121205049522073656E736F7293
:102EA600206E6F7420666F756E642100506C6561CC
:102EB600736520636865636B20636F6E6E6563740C
:102EC600696F6E20616E642072657374617274211D
:102ED600004552524F52203030332121204D657328
:102EE60073616765206E6F742073656E7420746FEE
:102EF60020002121004552524F52203030342121EA
:102F0600204973737565207769746820636F6465FB
:102F1600004D6573736167652073656E7420746F09
:102F2600200063617365203930303120737461721B
:102F3600740053656E64696E6720746F2000202EDE
:102F46002E2E00526563656976696E672066726F1C
:102F56006D20004D65737361676520526563656911
:102F66007665642066726F6D200063617365203933
:102F760030303120454E440063617365203930306E
:102F86003220737461727400636173652039303066
:102F96003220454E4400636173652039303033205A
:102FA6007374617274006361736520393030332045
:102FB600454E4400636173652039303034207374A4
:102FC6006172740063617365203930303420454E78
:102FD6004400636173652039303035207374617243
:102FE600740063617365203930303520454E4400E6
:102FF60063617365203930303620737461727400F2
:1030060063617365203930303620454E4400636174
:1030160073652039303037207374617274006361D0
:103026007365203930303720454E440070696E672D
:1030360000416464726573732069733A20004641E7
:103046004B452053454E44004D4F54494F4E0000CA
:103056000000005611D212D810F110E31034110DF1
:0E3066000A006E616E00696E66006F7666008D
:00000001FF
