:100000000C9463000C948B000C948B000C948B006C
:100010000C948B000C948B000C948B000C948B0034
:100020000C948B000C948B000C948B000C948B0024
:100030000C948B000C948B000C948B000C948B0014
:100040000C94D0030C948B000C94C4060C94F6060C
:100050000C948B000C948B000C948B000C948B00F4
:100060000C948B000C948B0000000008000201002F
:100070000003040700000000000000000102040863
:100080001020408001020408102001020408102002
:10009000040404040404040402020202020203032E
:1000A00003030303000000002300260029000000D2
:1000B0000000250028002B0000000000240027007D
:1000C0002A006701260711241FBECFEFD8E0DEBF4C
:1000D000CDBF12E0A0E0B1E0ECE8F1E102C0059094
:1000E0000D92A431B107D9F723E0A4E1B2E001C039
:1000F0001D92A230B207E1F710E0C6ECD0E004C0D8
:100100002297FE010E94C008C23CD107C9F70E9495
:100110006A070C94C4080C94000062E071E085E664
:1001200092E00E94B70767E271E085E692E00E94E4
:10013000C40761E087E00E9420056CE271E080E086
:1001400090E00E94490460E087E00E9420056CE294
:1001500071E080E090E00E944904EBCF1F93CF93C1
:10016000DF9360ED77E080E090E00E94490482E058
:100170000E945605EC0183E00E94560511E0892B90
:1001800009F410E084E00E94560521E0892B09F46F
:1001900020E0CD2B39F411110CC0211114C089E2DB
:1001A00093E21CC011110AC0211110C08AE293E22F
:1001B00015C021110EC08BE293E210C021110CC0BA
:1001C0008CE293E20BC08DE293E208C08EE293E2F0
:1001D00005C08FE293E202C080E393E290930101B5
:1001E00080930001DF91CF911F91089540ED57E07A
:1001F00060E070E085E292E00E94370320E835E29B
:1002000040E050E065E672E085E292E00E944A0339
:1002100085E292E00E9434036EE771E0809156021D
:10022000909157020E94B7076AE070E080E090E08A
:100230000E94490441E060E085E292E00E94B5033B
:1002400026E040E855E260E070E085E692E00E943A
:10025000620684E192E00E94BC0260E082E00E94BB
:10026000E70460E083E00E94E70460E084E00E942D
:10027000E70460E085E00E94E70461E087E00E9417
:10028000E7040E94AE0080910001909101018F303F
:1002900027E29207C9F087329342B4F060E971E037
:1002A00085E692E00E94C40760910001709101010F
:1002B0004AE050E085E692E00E946F0864EF71E04A
:1002C00080E090E00E9449040E948D00089548E07B
:1002D00067E084E192E00C942B02CF93CFB7F894BF
:1002E00080912402811127C0EAE9F0E08491E6E8D8
:1002F000F0E09491E82FF0E0EE0FFF1FE854FF4F7D
:10030000A591B4918C91892321F461E08AE00E9447
:10031000200561E08AE00E94E7048CB580618CBD15
:100320008CB580648CBD61E08DE00E94E70461E0E3
:100330008BE00E94E704809124028F5F8093240267
:10034000CFBFCF9108958EBD00000DB407FEFDCF45
:100350008EB508952CB52F7D2CBD2CB5237F2CBDDB
:100360002CB52C7F2CBD2DB52E7F2DBDFC018181A0
:100370000C942005FC0180810C9420051F93CF93E1
:10038000DF93EC01162F60E070E00E94AA01812F3C
:100390008F710E94A3018FEF0E94A301182F61E0CB
:1003A00070E0CE010E94AA01812FDF91CF911F91B1
:1003B0000895EF92FF921F93CF93DF931F92CDB7D3
:1003C000DEB77C01162F60E070E049830E94AA012D
:1003D000812F8F7180620E94A301182F4981842F81
:1003E0000E94A30161E070E0C7010E94AA01812F71
:1003F0000F90DF91CF911F91FF90EF9008951F9381
:10040000CF93DF93EC0160E070E00E94AA0182EEDE
:100410000E94A301182F61E070E0CE010E94AA01A2
:10042000812FDF91CF911F9108951F93CF93DF9379
:10043000EC0160E070E00E94AA0181EE0E94A3013D
:10044000182F61E070E0CE010E94AA01812FDF9198
:10045000CF911F910895FC016083418381E08283E5
:10046000138280E28483158216821086118612869A
:10047000138614861586168617860895462F6038CB
:1004800008F04FE765E00C94D9010F931F93CF93C9
:10049000DF938C01EB0166E00E94BE01482F497F8B
:1004A000C330D10561F0C230D10511F4446008C0F9
:1004B000C130D10511F4426003C0249709F44660AD
:1004C00066E0C801DF91CF911F910F910C94D90183
:1004D000EF92FF920F931F93CF93DF931F92CDB7AD
:1004E000DEB77C018B0166E00E94BE01F70112823B
:1004F000282F277D0230110511F4206207C001303A
:10050000110521F481E0F70182832860422F66E023
:10051000C70129830E94D90166E0C7010E94BE017C
:100520002981821721F0F701128280E001C081E069
:100530000F90DF91CF911F910F91FF90EF90089551
:100540000F931F93CF93DF93EC018B0160E00E9428
:10055000BE01482F437F0115110531F0013011050F
:1005600011F4486001C04C6060E0CE01DF91CF9192
:100570001F910F910C94D901CF93DF93EC0161E0AF
:1005800088810E94E70461E089810E94E7040E945B
:100590006D0160E070E0CE010E94BA0161E070E0A0
:1005A000CE010E94AA0165E070E080E090E00E9428
:1005B00049044FE464E0CE010E94D90163E070E099
:1005C000CE010E94450262E070E0CE010E94680206
:1005D000882311F081E08B8360E070E0CE010E94FF
:1005E000680262E070E0CE010E94A00240E06CE18F
:1005F000CE010E94D90140E767E0CE010E94D901F7
:100600006CE4CE010E943E02CE010E94FF01CE01A9
:10061000DF91CF910C9415020F931F93CF93DF932B
:10062000EC01662359F00E941A0469837A838B8354
:100630009C83DF91CF911F910F9108950E941A041E
:1006400009811A812B813C81601B710B820B930BFA
:10065000643671058105910530F763E070E080E054
:1006600090E00E944904EACF60E00C940C03FC0186
:1006700013AA14AA15AA16AA11821282138214822E
:10068000411551056105710521F0CB01BA010C94AA
:1006900049040895FB01BA01A901DC01D296FC933B
:1006A000EE93D19726E0CF010C9462061F93CF936F
:1006B000DF93EC01162F6DE971E089A99AA90E94D8
:1006C000B7074AE050E0612F89A99AA90E949408CF
:1006D00064EA71E089A99AA90E94B70762E370E011
:1006E00080E090E0DF91CF911F910C9449041F931B
:1006F000CF93DF93EC01162F8D81882389F189A98F
:100700009AA9DC01ED91FC910480F581E02D099519
:10071000892BA9F307C02637310519F12835310592
:1007200009F41D8289A99AA9DC01ED91FC9104804C
:10073000F581E02D09951816190694F489A99AA94E
:10074000DC01ED91FC910680F781E02D09959C017B
:10075000332723363105F9F6612FCE010E94560367
:1007600083E6DF91CF911F9108950F931F93CF934D
:10077000DF931F92CDB7DEB78C01662349F081E08D
:10078000F801858360E0C80149830E9477034981AD
:10079000F80145830F90DF91CF911F910F9108953C
:1007A0001F920F920FB60F9211242F933F938F93A6
:1007B0009F93AF93BF9380915D0290915E02A09151
:1007C0005F02B091600230915C0223E0230F2D376D
:1007D00020F40196A11DB11D05C026E8230F029645
:1007E000A11DB11D20935C0280935D0290935E0277
:1007F000A0935F02B09360028091610290916202C7
:10080000A0916302B09164020196A11DB11D809375
:10081000610290936202A0936302B0936402BF915D
:10082000AF919F918F913F912F910F900FBE0F909D
:100830001F9018952FB7F89460915D0270915E0239
:1008400080915F02909160022FBF08953FB7F894A6
:100850008091610290916202A0916302B091640262
:1008600026B5A89B05C02F3F19F00196A11DB11D0B
:100870003FBF6627782F892F9A2F620F711D811D28
:10088000911D42E0660F771F881F991F4A95D1F787
:1008900008958F929F92AF92BF92CF92DF92EF9284
:1008A000FF926B017C010E9426044B015C01C11484
:1008B000D104E104F104F1F00E949B080E94260497
:1008C000681979098A099B09683E73408105910579
:1008D00070F321E0C21AD108E108F10888EE880E11
:1008E00083E0981EA11CB11CC114D104E104F104E1
:1008F00029F7DDCFFF90EF90DF90CF90BF90AF90C2
:100900009F908F900895789484B5826084BD84B55B
:10091000816084BD85B5826085BD85B5816085BDFA
:10092000EEE6F0E0808181608083E1E8F0E0108213
:10093000808182608083808181608083E0E8F0E054
:10094000808181608083E1EBF0E08081846080833E
:10095000E0EBF0E0808181608083EAE7F0E0808175
:1009600084608083808182608083808181608083D5
:100970008081806880831092C1000895833081F067
:1009800028F4813099F08230A1F008958730A9F0E1
:100990008830B9F08430D1F4809180008F7D03C01D
:1009A000809180008F7780938000089584B58F7741
:1009B00002C084B58F7D84BD08958091B0008F778B
:1009C00003C08091B0008F7D8093B0000895CF93D5
:1009D000DF9390E0FC01E458FF4F2491FC01E057C5
:1009E000FF4F8491882349F190E0880F991FFC0103
:1009F000E854FF4FA591B49182559F4FFC01C591DA
:100A0000D4919FB7611108C0F8948C9120958223EE
:100A10008C93888182230AC0623051F4F8948C91BF
:100A2000322F309583238C938881822B888304C056
:100A3000F8948C91822B8C939FBFDF91CF91089576
:100A40000F931F93CF93DF931F92CDB7DEB7282F5D
:100A500030E0F901E859FF4F8491F901E458FF4F64
:100A60001491F901E057FF4F04910023C9F0882346
:100A700021F069830E94BE046981E02FF0E0EE0F4F
:100A8000FF1FE255FF4FA591B4919FB7F8948C9149
:100A9000611103C01095812301C0812B8C939FBFEE
:100AA0000F90DF91CF911F910F910895CF93DF9316
:100AB000282F30E0F901E859FF4F8491F901E458FB
:100AC000FF4FD491F901E057FF4FC491CC2391F02F
:100AD00081110E94BE04EC2FF0E0EE0FFF1FEC55D9
:100AE000FF4FA591B4912C912D2381E090E021F44A
:100AF00080E002C080E090E0DF91CF910895FC019A
:100B0000818D228D90E0805C9F4F821B91098F73B5
:100B100099270895FC01918D828D981731F0828D6F
:100B2000E80FF11D858D90E008958FEF9FEF0895F8
:100B3000FC01918D828D981761F0828DDF01A80FE5
:100B4000B11D5D968C91928D9F5F9F73928F90E007
:100B500008958FEF9FEF08958CE197E0892B49F07E
:100B600080E090E0892B29F00E941C0781110C94F1
:100B700000000895FC01848DDF01A80FB11DA35A68
:100B8000BF4F2C91848D90E001968F739927848FAD
:100B9000A689B7892C93A089B1898C9180648C93A4
:100BA000938D848D981306C00288F389E02D80818F
:100BB0008F7D80830895CF93DF93EC01888D882308
:100BC000C9F0EA89FB89808185FD05C0A889B989BA
:100BD0008C9186FD0FC00FB607FCF5CF808185FF95
:100BE000F2CFA889B9898C9185FFEDCFCE010E9403
:100BF000BA05E7CFDF91CF910895CF92DF92FF92B0
:100C00000F931F93CF93DF931F92CDB7DEB76C0185
:100C100081E0D60158968C9358975B969C915B9790
:100C20005C968C915C97981307C05096ED91FC915F
:100C30005197808185FD2EC0F601038D10E00F5F76
:100C40001F4F0F731127F02EF601848DF81211C07B
:100C50000FB607FCF9CFD6015096ED91FC91519754
:100C6000808185FFF1CFC60169830E94BA05698141
:100C7000EBCF838DE80FF11DE35AFF4F6083D60160
:100C80005B960C935B975296ED91FC915397808104
:100C900080620CC0D6015696ED91FC915797608307
:100CA0005096ED91FC91519780818064808381E022
:100CB00090E00F90DF91CF911F910F91FF90DF9007
:100CC000CF900895BF92CF92DF92EF92FF92CF9391
:100CD000DF93EC016A017B01B22EE889F98982E099
:100CE0008083411581EE580761057105A1F060E030
:100CF00079E08DE390E0A70196010E949C082150C5
:100D00003109410951095695479537952795211580
:100D100080E1380798F0E889F989108260E874E882
:100D20008EE190E0A70196010E949C0821503109B4
:100D3000410951095695479537952795EC85FD85CD
:100D40003083EE85FF852083188EEC89FD89B08283
:100D5000EA89FB89808180618083EA89FB898081BF
:100D600088608083EA89FB89808180688083EA8942
:100D7000FB8980818F7D8083DF91CF91FF90EF9001
:100D8000DF90CF90BF9008951F920F920FB60F92F1
:100D900011242F938F939F93EF93FF93E09175020C
:100DA000F09176028081E0917B02F0917C0282FDDD
:100DB00012C0908180917E028F5F8F7320917F029D
:100DC000821751F0E0917E02F0E0EB59FD4F958FD4
:100DD00080937E0201C08081FF91EF919F918F915E
:100DE0002F910F900FBE0F901F9018951F920F928A
:100DF0000FB60F9211242F933F934F935F936F93EE
:100E00007F938F939F93AF93BF93EF93FF9385E669
:100E100092E00E94BA05FF91EF91BF91AF919F912F
:100E20008F917F916F915F914F913F912F910F9093
:100E30000FBE0F901F90189585E692E00E947F05E7
:100E400021E0892B09F420E0822F08951092680296
:100E50001092670288EE93E0A0E0B0E08093690210
:100E600090936A02A0936B02B0936C0289EF91E0B9
:100E7000909366028093650285EC90E090937202F5
:100E80008093710284EC90E09093740280937302DB
:100E900080EC90E0909376028093750281EC90E074
:100EA000909378028093770282EC90E090937A029C
:100EB0008093790286EC90E090937C0280937B0291
:100EC00010927E0210927F02109280021092810294
:100ED000089508950E9483040E9469070E94F60005
:100EE000CCEAD5E00E9466012097E1F30E94AC05B0
:100EF000F9CFCF92DF92EF92FF920F931F93CF9390
:100F0000DF937C016A01EB0100E010E00C151D0588
:100F100071F06991D701ED91FC910190F081E02D84
:100F2000C7010995892B19F00F5F1F4FEFCFC8013B
:100F3000DF91CF911F910F91FF90EF90DF90CF90B5
:100F400008956115710581F0DB010D900020E9F72E
:100F5000AD0141505109461B570BDC01ED91FC914D
:100F60000280F381E02D099480E090E008950C94D4
:100F7000A107DC01ED91FC910190F081E02D099435
:100F80006AEA71E00C94A1070F931F93CF93DF934C
:100F9000EC010E94A1078C01CE010E94C007800FC6
:100FA000911FDF91CF911F910F9108958F929F9282
:100FB000AF92BF92DF92EF92FF920F931F93CF9366
:100FC000DF93CDB7DEB7A1970FB6F894DEBF0FBEA3
:100FD000CDBF7C01F42FD52ECB0119A2223008F40D
:100FE0002AE08E010F5D1F4F822E912CA12CB12C77
:100FF0006F2F7D2DA50194010E949C08F22FD32E06
:10100000CA01015011096A3014F4E0E301C0E7E3BA
:10101000E60FD801EC93232B242B252B49F7B8019D
:10102000C7010E94A107A1960FB6F894DEBF0FBEBC
:10103000CDBFDF91CF911F910F91FF90EF90DF9087
:10104000BF90AF909F908F900895CF92DF92EF92D4
:10105000FF920F931F93CF93DF93EC016A017B0103
:101060002115310579F4E881F9810190F081E02DB5
:10107000642FDF91CF911F910F91FF90EF90DF9040
:10108000CF9009942A303105E9F477FF1AC06DE258
:101090000E94B9078C0144275527BA014C195D09F4
:1010A0006E097F092AE0CE010E94D607800F911FAA
:1010B000DF91CF911F910F91FF90EF90DF90CF9034
:1010C00008952AE0B701A601CE01DF91CF911F91CB
:1010D0000F91FF90EF90DF90CF900C94D6070F9375
:1010E0001F93CF93DF93EC019A01AB01662757FD65
:1010F0006095762F0E9425088C01CE010E94C007C2
:10110000800F911FDF91CF911F910F9108952115AD
:10111000310541F4DC01ED91FC910190F081E02D6D
:10112000642F09940C94D6079A01462F50E060E092
:1011300070E00C9487080895A1E21A2EAA1BBB1B2D
:10114000FD010DC0AA1FBB1FEE1FFF1FA217B30793
:10115000E407F50720F0A21BB30BE40BF50B661FA9
:10116000771F881F991F1A9469F76095709580956D
:1011700090959B01AC01BD01CF010895EE0FFF1FBB
:0C1180000590F491E02D0994F894FFCF45
:10118C000F274552524F52203030312121205374B9
:10119C006174696F6E2061646472657373206E6F25
:1011AC0074207365742100506C65617365207265E1
:1011BC00737461727421004552524F522030303298
:1011CC002121205049522073656E736F72206E6F0F
:1011DC007420666F756E642100506C6561736520B8
:1011EC00636865636B20636F6E6E656374696F6EA5
:1011FC0020616E6420726573746172742100564DA7
:10120C004450565F317C315F564D4450560D0A00A8
:10121C00416464726573732069733A2000564D44BF
:10122C0050435F005F564D4450430D0A00457272A7
:10123C006F723A20417474656D707420746F2073F2
:10124C006574206120726561642D6F6E6C792076F7
:10125C0061726961626C65206F72206461746120D7
:10126C0074797065206E6F7420737570706F727402
:10127C0065640D0A0000000000FD0579077F0598E4
:10128C00058A05DB056E616E00696E66006F766619
:04129C00002E000020
:00000001FF
