:100000000C9406010C942E010C942E010C942E01DC
:100010000C942E010C942E010C942E010C942E01A4
:100020000C942E010C942E010C942E010C942E0194
:100030000C942E010C942E010C942E010C942E0184
:100040000C943D0C0C942E010C94590B0C94330B16
:100050000C942E010C942E010C942E010C942E0164
:100060000C942E010C942E014E414E494E49545988
:10007000494E46CDCCCC3D0AD7233C17B7D1387773
:10008000CC2B329595E6241FB14F0A000020410089
:1000900000C84200401C4620BCBE4CCA1B0E5AAED3
:1000A000C59D7400407A10F35A00A0724E180900E2
:1000B00010A5D4E80000E87648170000E40B5402CD
:1000C0000000CA9A3B000000E1F505000080969808
:1000D00000000040420F000000A086010000001058
:1000E0002700000000E8030000000064000000009A
:1000F000000A00000000000100000000002C76D87B
:1001000088DC674F0823DFC1DFAE59E1B1B796E560
:10011000E3E453C63AE651997696E8E6C28426EBC4
:10012000898C9B62ED407C6FFCEFBC9C9F40F2BAD7
:10013000A56FA5F490055A2AF75C936B6CF9676D6F
:10014000C11BFCE0E40D47FEF520E6B500D0ED90C4
:100150002E0300943577050080841E080000204E91
:100160000A000000C80C333333330F986E1283112A
:1001700041EF8D2114893BE65516CFFEE6DB18D101
:10018000844B381BF77C1D901DA4BBE424203284D3
:10019000725E228100C9F124ECA1E53D2700000038
:1001A00000240027002A0000000000230026002968
:1001B000000001020304050404040404040404020E
:1001C00002020202020303030303030102040810F4
:1001D00020408001020408102001020408102011B0
:1001E00012131415160A0B0C0D0E0F00000000253B
:1001F0000028002B0000000008000201000003049A
:1002000007000000000000000000931411241FBE2E
:10021000CFEFD8E0DEBFCDBF24E0A2E9B3E001C05C
:100220001D92A33AB207E1F713E0A0E0B1E0E4E5E4
:10023000FFE302C005900D92A239B107D9F711E092
:10024000C6E0D1E004C02197FE010E948D1DC5309B
:10025000D107C9F70E94200F0C94A81F0C9400002E
:100260000F931F930E94310C60939D0370939E0324
:1002700080939F039093A003E0919503F0919603E0
:100280000284F385E02D85E993E0099597FF1FC06F
:100290000E94310C00919D0310919E0320919F03B9
:1002A0003091A003DC01CB01801B910BA20BB30B9F
:1002B0000091990310919A0320919B0330919C0324
:1002C00080179107A207B307B8F28FEF9FEF1F9136
:1002D0000F910895E5E9F3E0A089B18982E08C935C
:1002E000A485B5851C92A685B7858FEC8C93108E5E
:1002F000A489B58986E08C93A289B3898C918061A9
:100300008C93A289B3898C9188608C93A289B389DC
:100310008C9180688C930288F389E02D80818F7D99
:1003200080830895009769F0FC0101900020E9F7AF
:100330003197AF01481B590BBC0185E993E00C9440
:10034000F50E80E090E00895CF93DF930E94920134
:10035000EC0183E293E00E9492018C0F9D1FDF91DC
:10036000CF9108958F929F92AF92BF920F931F9358
:10037000CF93DF93CDB7DEB7A1970FB6F894DEBF6A
:100380000FBECDBF19A2423008F44AE08E010F5DC6
:100390001F4F842E912CA12CB12CA50194010E94F9
:1003A0006B1DE62FB901CA0101501109EA3014F49E
:1003B000E05D01C0E95CD801EC93232B242B252BB5
:1003C00061F7C8010E949201A1960FB6F894DEBFB2
:1003D0000FBECDBFDF91CF911F910F91BF90AF9016
:1003E0009F908F900895E0919503F091960301906E
:1003F000F081E02D682F85E993E00994CF92DF9298
:10040000EF92FF92CF93DF936C01990FEE08FF08F4
:10041000F7FE12C08DE20E94F301EC0166277727F8
:10042000CB016C197D098E099F094AE00E94B20137
:100430007C01EC0EFD1E06C04AE0C701B6010E9419
:10044000B2017C0183E293E00E9492018E0D9F1D18
:10045000DF91CF91FF90EF90DF90CF9008950C94B3
:100460009201CF92DF92EF92FF92CF93DF936C01D4
:10047000990FEE08FF08F7FE17C08DE20E94F30106
:10048000EC0166277727CB016C197D098E099F093E
:100490004AE00E94B2018C0F9D1FDF91CF91FF9027
:1004A000EF90DF90CF9008954AE0C701B601DF9149
:1004B000CF91FF90EF90DF90CF900C94B201CF924C
:1004C000DF92EF92FF920F931F93CF93DF9300D0B1
:1004D000CDB7DEB78C01FC019781D42E941708F4B8
:1004E000D92EF8018085811103C0C92ECD1801C015
:1004F000C12CC80169837A830E94AE0C80EA0E94F5
:10050000B10C6981E62E7A81F72ED60EDE1431F019
:10051000F70181917F010E94B10CF8CFCC2029F026
:1005200080E00E94B10CCA94F9CFC8010E94AB0CC4
:1005300061E0C8010E94870C6FEFC8010E94B80CEF
:100540008073D1F360E0C8010E94870C40E767E048
:10055000C8010E94D70C84FF05C0C8010E94D40CBA
:1005600080E001C081E00F900F90DF91CF911F914B
:100570000F91FF90EF90DF90CF900895CF92DF9290
:10058000EF92FF926C0197FD18C00E94310C6C0D28
:100590007D1D6B01770FEE08FF0880914804909154
:1005A00049040E94460E811112C00E94310C6C1544
:1005B0007D058E059F0588F30AC0809148049091BF
:1005C00049040E94460E8823C1F381E020C00E94A6
:1005D000310CC616D706E806F906B8F70E946A017C
:1005E0008EE892E00E94A40186E293E00E94A401BA
:1005F00061E087E00E948B0B68EE73E080E090E0A2
:100600000E94F70B60E087E00E948B0B80E0FF9078
:10061000EF90DF90CF900895CF93DF93EC0162E0ED
:100620000E94B60DE1EBF1E0E49121E030E001C081
:10063000220FEA95EAF72095422F482362E0CE0187
:10064000DF91CF910C94D70CCF93DF93EC0165E24F
:1006500073E00E9465090E94300197FD05C0682F74
:10066000CE010E94AA08F7CFCE01DF91CF91089565
:100670000F931F93CF938C0166E088E794E00E946C
:10068000B60DC82FC77D0230110531F4C0628BE969
:1006900090E0A0E0B0E00DC00130110529F085E543
:1006A00090E0A0E0B0E005C0C86081E490E0A0E088
:1006B000B0E08093880490938904A0938A04B09357
:1006C0008B044C2F66E088E794E00E94D70C66E02C
:1006D00088E794E00E94B60D91E08C1390E0892F9A
:1006E000CF911F910F9108958F929F92AF92BF92D9
:1006F000CF92DF92EF92FF920F931F93CF93DF93EE
:10070000CDB7DEB7E3970FB6F894DEBF0FBECDBF0F
:100710007C014A015B018901C90189529342873EEC
:10072000934098F420E030E0A901C501B4010E9493
:100730004D1B87FD0AC020E03CE34CE156E4C501B7
:10074000B4010E94611D181634F46FE473E0C70110
:100750000E946509E4C065E273E0CE018E960E94B6
:10076000650965E273E0CE0188960E9465094AE05A
:10077000B801CE0101960E943909BE016F5F7F4F1B
:10078000CE018E960E94FB08CE0101960E9434098C
:1007900082E3C82E84E0D82E00E010E0B801CE013C
:1007A0008E960E949808FC018081F60181936F016A
:1007B0000F5F1F4F0430110589F78DE280933604D7
:1007C0001BA21AA21DA21CA21FA21EA28E010F5FB5
:1007D0001F4F22E044E0C501B4010E94DF16BC01B6
:1007E000CE0182960E94DA08BE016E5D7F4FCE0177
:1007F0008E960E94FB08CE0182960E94340900E08A
:1008000010E0B801CE018E960E949808FC0180810C
:10081000F801EE5CFB4F85830F5F1F4F053011051C
:1008200081F78DE280933C044AE064E070E0CE0101
:1008300001960E943909BE016F5F7F4FCE018E96EF
:100840000E94FB08CE0101960E94340900E010E0EE
:10085000CAA8DBA80C151D0570F4B801CE018E9650
:100860000E949808FC018081F801EE5CFB4F8387B1
:100870000F5F1F4FEDCFC6018E5C9B4F5C018DE279
:10088000F50183874AE069E273E2CE0101960E9496
:100890003909BE016F5F7F4FCE018E960E94FB0823
:1008A000CE0101960E94340900E010E08AA99BA9BC
:1008B0000817190780F4B801CE018E960E94980897
:1008C000FC018081F801EC0DFD1DEE5CFB4F84877F
:1008D0000F5F1F4FEBCFF501E80FF91F28E72487C3
:1008E00062E374E0CE0188960E94DA0882E394E025
:1008F0000E94A401F70111821082138212821582D4
:100900001482BE01685D7F4FC7010E94FB08CE01C3
:1009100088960E943409CE018E960E943409C70140
:10092000E3960FB6F894DEBF0FBECDBFDF91CF9137
:100930001F910F91FF90EF90DF90CF90BF90AF90FD
:100940009F908F9008958F929F92AF92BF92EF9257
:10095000FF920F931F93CF93DF93CDB7DEB72C9702
:100960000FB6F894DEBF0FBECDBF4B015C017A011C
:1009700065E273E0CE0107960E9465099701B50113
:10098000A401CE0101960E947403BE016F5F7F4FE8
:10099000CE0107960E94FB08CE0101960E94340901
:1009A00061E088E00E948B0B80914804909149049B
:1009B0000E948A0E09E213E220E030E040E050E0BD
:1009C00060E070E080914804909149040E947B0DA2
:1009D00080914804909149040E94D40C6F817885DD
:1009E00044E180914804909149040E945F02182FCD
:1009F000882379F08CE391E00E94A40160E088E014
:100A00000E948B0B80914804909149040E944C0EE7
:100A100047C080915804909159040497E8F485E503
:100A200093E00E94A401809158049091590401968A
:100A3000909359048093580464EF71E080E090E053
:100A40000E94F70BA701C501B4010E94A304CE01C7
:100A500007960E9434092DC00E946A018EE892E038
:100A60000E94A4018CE392E00E942F0289E293E2AB
:100A70000E94310289E391E00E94A40161E087E0D5
:100A80000E948B0B68EE73E080E090E00E94F70B11
:100A900060E087E00E948B0B60E088E00E948B0B97
:100AA0001092590410925804CE0107960E943409FE
:100AB000812F2C960FB6F894DEBF0FBECDBFDF910D
:100AC000CF911F910F91FF90EF90BF90AF909F90AB
:100AD0008F9008958F929F92AF92BF92CF92DF92A4
:100AE000EF92FF92CF93DF93A0916D04882311F0D2
:100AF0003A2F01C030E080916E0490E0880F991F7A
:100B000089559E4FC0907304D0907404E090750492
:100B1000F090760440E050E0BA01FC01C591D49118
:100B200028812A2323130FC04A015B012FEF821A69
:100B3000920AA20AB20A4C155D056E057F0538F4CB
:100B4000B501A401EACF342F252FCB0104C030E03A
:100B500020E080E090E0632F722FDF91CF91FF9033
:100B6000EF90DF90CF90BF90AF909F908F900895BF
:100B7000CF92DF92EF92FF920F931F93CF93DF9369
:100B8000CDB7DEB7C054D1400FB6F894DEBF0FBE6C
:100B9000CDBF0E94310C00916F0410917004209120
:100BA0007104309172046B017C01C01AD10AE20A0F
:100BB000F30A40EDC41647E0D406E104F10418F44A
:100BC00080917704BCC060936F047093700480932D
:100BD00071049093720410926A0410926904109246
:100BE0006804109267041092660461E080916B04BF
:100BF0000E948B0B6AEF70E080E090E00E94F70BA0
:100C000061E080916B040E94BB0B60E080916B04FB
:100C10000E948B0B64E170E080E090E00E94F70B93
:100C2000F89461E080916B040E948B0B8BE990E05B
:100C30000197F1F762E080916B040E94BB0B83E2A5
:100C400090E00197F1F780E00E946A05672B682B1E
:100C5000692B21F41092770478943EC081E00E94C1
:100C60006A05672B682B692BA9F38E010F5F1F4F55
:100C70006E018FEBC81A8EEFD80A780180E00E94CF
:100C80006A05F701608371838283938381E00E9408
:100C90006A05F7016483758386839783F8E0EF0E16
:100CA000F11CEC14FD0451F7789420E030E0F801D9
:100CB0004081518162817381C480D580E680F78054
:100CC000411551056105710529F0C114D104E104F4
:100CD000F10421F41092770480E031C0F90183E03F
:100CE000F595E7958A95E1F7EA59FB4F8081880FE2
:100CF0004C155D056E057F0508F4816080832F5FCC
:100D00003F4F085F1F4F2832310589F620916A0452
:100D100030E0409166048091670490E0840F911D5B
:100D200040916804840F911D40916904840F911DC6
:100D300099272817390771F681E080937704C05C02
:100D4000DE4F0FB6F894DEBF0FBECDBFDF91CF915F
:100D50001F910F91FF90EF90DF90CF9008950F9328
:100D60001F93CF93DF93EC0188819981009729F03D
:100D70002A813B812617370788F48B016F5F7F4FED
:100D80000E94C01E009761F0998388831B830A83A9
:100D90002C813D81232B11F4FC01108281E001C0E4
:100DA00080E0DF91CF911F910F910895EF92FF9214
:100DB0000F931F93CF93DF93EC017B018A01BA015C
:100DC0000E94AF062881398181110DC0211531059E
:100DD00019F0C9010E94281E198218821D821C82E6
:100DE0001B821A8206C01D830C83B701C9010E94B1
:100DF000A11FCE01DF91CF911F910F91FF90EF9036
:100E00000895CF92DF92EF92FF92CF930E94B805A0
:100E10008823D1F180916C048B3029F0A8F18551A1
:100E2000823048F031C06091680470E080E090E06A
:100E30000E94521B2DC0C09168046C2F6F7770E028
:100E400080E090E00E94541B20E030E040E853E452
:100E50000E94B31B6B017C0180916904682F70E0D4
:100E600080E090E00E94541B9B01AC01C701B601D9
:100E70000E94C61C2DEC3CEC4CEC5DE30E94B31BC5
:100E8000C7FF06C0905804C060E070E080EC9FE7A8
:100E9000CF91FF90EF90DF90CF9008954F925F92A7
:100EA0006F927F928F929F92AF92BF92CF92DF927A
:100EB000EF92FF926B017C019B01AC010E94661DC9
:100EC000882319F085E693E01AC046015701E8949B
:100ED000B7F82FEF3FEF4FE75FE7C501B4010E947E
:100EE000661D811110C02FEF3FEF4FE75FE7C5018F
:100EF000B4010E944D1B181634F489E693E00E9459
:100F000092017C017FC02FEF3FEF4FE75FE4C70105
:100F1000B6010E94611D18161CF48DE693E0EFCF18
:100F20002FEF3FEF4FE75FECC701B6010E944D1B6B
:100F300087FDF3CF20E030E0A901C701B6010E9490
:100F40004D1B87FF09C08DE20E94F3015C01F7FA97
:100F5000F094F7F8F09402C0A12CB12C2AE037ED00
:100F600043EA5BE3C701B6010E94C61C2B013C01AA
:100F70000E94321D6B017C010E94521B9B01AC013F
:100F8000C301B2010E94C51C2B013C014AE0C7010C
:100F9000B6010E94B2017C01EA0CFB1C8EE20E94A9
:100FA000F301E80EF91E20E030E040E251E4C30115
:100FB000B2010E94B31B2B013C010E94321D4B0168
:100FC000A12CB12C4AE0C501B4010E94B201E80E87
:100FD000F91EC501B4010E94521B9B01AC01C30163
:100FE000B2010E94C51C20E030E040E251E40E94C2
:100FF000B31B0E94321D80E090E04AE00E94B201E3
:10100000E80EF91E83E293E00E9492018E0D9F1D6F
:10101000FF90EF90DF90CF90BF90AF909F908F9018
:101020007F906F905F904F900895FF920F931F9362
:10103000CF93DF93F82ED92FC92FCC0FCC0B8091F3
:101040004804909149040E948A0E0F2D1D2F2C2FC9
:101050003C2F4C2F5C2F6C2F7C2F8091480490915B
:1010600049040E947B0D61E088E00E948B0B42E006
:1010700061E773E080914804909149040E945F0207
:10108000182F882359F060E088E00E948B0B809134
:101090004804909149040E944C0E3FC0809158042E
:1010A000909159040497A8F483E793E00E94A40167
:1010B00020915804309159042F5F3F4F30935904C9
:1010C0002093580464EF71E080E090E00E94F70BF9
:1010D000B6CF0E946A018EE892E00E94A4018CE3E0
:1010E00092E00E942F028F2D9D2F0E94310289E3F2
:1010F00091E00E94A40161E087E00E948B0B68EE02
:1011000073E080E090E00E94F70B60E087E00E94CF
:101110008B0B60E088E00E948B0B109259041092B8
:101120005804812FDF91CF911F910F91FF90089567
:10113000FC01248135816217730720F4808191813D
:10114000009729F41092940384E993E00895860FA0
:10115000971F0895EF92FF920F931F93CF93DF9302
:1011600000D0CDB7DEB78C0169831A82FC01E48020
:10117000F580FFEFEF1AFF0AB7010E94AF06882340
:1011800081F0F8012081318184819581BE016F5FFA
:101190007F4F820F931F0E94A11FF801F582E48206
:1011A00081E00F900F90DF91CF911F910F91FF90F1
:1011B000EF900895CF93DF93EC016115710559F01D
:1011C000FB0101900020E9F73197AF01461B570B57
:1011D0000E94D6060CC088819981009711F00E9468
:1011E000281E198218821D821C821B821A82CE013F
:1011F000DF91CF9108950F931F93CF93DF938C01CD
:10120000EB01FC01808191810097B1F068817981C7
:101210006115710579F0428153812C813D8142171E
:10122000530740F00E94A11F8C819D81F801958396
:10123000848313C00E94281E88819981F8019183BC
:1012400080838A819B81938382838C819D81958316
:101250008483198218821B821A821D821C82DF916C
:10126000CF911F910F910895FC01808191810C9481
:10127000281E0F931F93CF93DF93CDB7DEB76297EE
:101280000FB6F894DEBF0FBECDBF8C01CB01F801C5
:1012900011821082138212821582148250E0BE01E4
:1012A0006F5F7F4F0E942117BE016F5F7F4FC801A4
:1012B0000E94DA0862960FB6F894DEBF0FBECDBF6B
:1012C000DF91CF911F910F910895FC01118210823F
:1012D00013821282158214826115710551F0FB018F
:1012E00001900020E9F73197AF01461B570B0C9492
:1012F000D6060895AF92BF92CF92DF92EF92FF92FF
:101300000F931F93CF93DF93CDB7DEB76A970FB6D6
:10131000F894DEBF0FBECDBFCE0101965C0184E123
:10132000F50111928A95E9F765E273E0CE014596E1
:101330000E94650982E3C82E84E0D82EF601F5A04C
:10134000E4A05F2D550F550B052F152F252F352F99
:10135000452F60E0868997890E94D60DF60186891F
:1013600097890E94BF0E8FEF9FEF0E94BE0244E15B
:10137000B501F601868997890E94FB0CB501CE0163
:1013800045960E94DA0862EEF601868997890E94E6
:10139000B80CF601868997890E940C03498D5A8DF5
:1013A0006D897E8985E993E00E94F50E60E070E02A
:1013B000CB010E944E0780E090E00E94FE0180E099
:1013C00090E00E94FE01CE0145960E94340981E022
:1013D0006A960FB6F894DEBF0FBECDBFDF91CF91F6
:1013E0001F910F91FF90EF90DF90CF90BF90AF9043
:1013F0000895089580E090E00895FC01538D448D98
:10140000252F30E0842F90E0821B930B541710F0AF
:10141000CF96089501970895FC01918D828D9817BC
:1014200061F0828DDF01A80FB11D5D968C91928DC8
:101430009F5F9F73928F90E008958FEF9FEF0895C5
:10144000FC01918D828D981731F0828DE80FF11D8E
:10145000858D90E008958FEF9FEF0895FC01918DA9
:10146000228D892F90E0805C9F4F821B91098F73A2
:101470009927089585E993E00E942E0A21E0892B9F
:1014800009F420E0822F0895FC01848DDF01A80F6C
:10149000B11DA35ABF4F2C91848D90E001968F739C
:1014A0009927848FA689B7892C93A089B1898C91BB
:1014B00080648C93938D848D981306C00288F38981
:1014C000E02D80818F7D80830895EF92FF920F93AE
:1014D0001F93CF93DF93EC0181E0888F9B8D8C8DE0
:1014E000981305C0E889F989808185FD24C0F62E0E
:1014F0000B8D10E00F5F1F4F0F731127E02E8C8DA7
:10150000E8120CC00FB607FCFACFE889F989808190
:1015100085FFF5CFCE010E94440AF1CF8B8DFE01ED
:10152000E80FF11DE35AFF4FF0820B8FEA89FB8928
:101530008081806207C0EE89FF896083E889F9892C
:1015400080818064808381E090E0DF91CF911F9162
:101550000F91FF90EF900895CF93DF93EC01888D6A
:101560008823C9F0EA89FB89808185FD05C0A889A7
:10157000B9898C9186FD0FC00FB607FCF5CF80812D
:1015800085FFF2CFA889B9898C9185FFEDCFCE0177
:101590000E94440AE7CFDF91CF91089580E090E068
:1015A000892B29F00E943A0A81110C9400000895B9
:1015B000833081F028F4813099F08230A1F00895D1
:1015C0008730A9F08830B9F08430D1F48091800060
:1015D0008F7D03C0809180008F7780938000089575
:1015E00084B58F7702C084B58F7D84BD08958091C6
:1015F000B0008F7703C08091B0008F7D8093B000E2
:1016000008958230910538F0880F991F880F991F2F
:1016100005970197F1F708953FB7F89480919904E1
:1016200090919A04A0919B04B0919C0426B5A89B2C
:1016300005C02F3F19F00196A11DB11D3FBFBA2F64
:10164000A92F982F8827820F911DA11DB11DBC01C4
:10165000CD0142E0660F771F881F991F4A95D1F789
:1016600008950E948A1F1F920F920FB60F921124A5
:101670002F933F934F935F936F937F938F939F939A
:10168000AF93BF93EF93FF9385E993E00E94440AE1
:10169000FF91EF91BF91AF919F918F917F916F914A
:1016A0005F914F913F912F910F900FBE0F901F9020
:1016B00018951F920F920FB60F9211242F938F93AC
:1016C0009F93EF93FF93E091A503F091A603808190
:1016D000E091AB03F091AC0382FD12C09081809148
:1016E000AE038F5F8F732091AF03821751F0E091AB
:1016F000AE03F0E0EB56FC4F958F8093AE0301C034
:101700008081FF91EF919F918F912F910F900FBE4C
:101710000F901F9018951F93CF93DF93282F30E0E1
:10172000F901EB50FE4F8491F901E553FE4FD4913E
:10173000F901E954FE4FC491CC23C9F0162F811151
:101740000E94D80AEC2FF0E0EE0FFF1FE551FE4F8C
:10175000A591B4918FB7F894111105C09C91ED2F0C
:10176000E095E92302C0EC91ED2BEC938FBFDF9164
:10177000CF911F910895CF93DF9390E0FC01E55343
:10178000FE4F2491FC01E954FE4F8491882361F1BE
:1017900090E0880F991FFC01E356FE4FC591D4914C
:1017A000FC01E551FE4FA591B491611109C09FB7AD
:1017B000F8948881209582238883EC912E230BC096
:1017C000623061F49FB7F8943881822F809583232B
:1017D0008883EC912E2B2C939FBF06C08FB7F89473
:1017E000E8812E2B28838FBFDF91CF9108958F92B0
:1017F0009F92AF92BF92CF92DF92EF92FF926B01D6
:101800007C010E940C0B4B015C01C114D104E1046A
:10181000F104F1F00E940C0BDC01CB01881999094D
:10182000AA09BB09883E9340A105B10570F321E0E8
:10183000C21AD108E108F10888EE880E83E0981EEC
:10184000A11CB11CC114D104E104F10419F7DDCFCE
:10185000FF90EF90DF90CF90BF90AF909F908F90D0
:1018600008952FB7F8946091950470919604809133
:101870009704909198042FBF08951F920F920FB66E
:101880000F9211242F933F938F939F93AF93BF9306
:101890008091950490919604A0919704B09198043A
:1018A0003091940423E0230F2D3720F40196A11DDD
:1018B000B11D05C026E8230F0296A11DB11D20937E
:1018C00094048093950490939604A0939704B09306
:1018D00098048091990490919A04A0919B04B091EE
:1018E0009C040196A11DB11D8093990490939A04C4
:1018F000A0939B04B0939C04BF91AF919F918F9153
:101900003F912F910F900FBE0F901F901895FC01E3
:1019100020813181828193812817390719F0822F24
:101920000C948B0B0895CF93DF93EC019CB59F7DB6
:101930009CBD9CB5937F9CBD9CB59C7F9CBD9DB57B
:1019400091609DBD8A810E948B0B8C899D89DF915E
:10195000CF910C94010B61E00C94930C60E00C941B
:10196000930C8EBD00000DB407FEFDCF8EB508951B
:10197000EF92FF921F93CF93DF931F92CDB7DEB705
:101980007C0169830E94AE0C6981862F0E94B10C94
:10199000182FC7010E94AB0C812F0F90DF91CF91C0
:1019A0001F91FF90EF90089561EE0C94B80CEF92A8
:1019B000FF921F93CF93DF9300D0CDB7DEB77C01AA
:1019C0004A8369830E94AE0C6981862F8F71806281
:1019D0000E94B10C182F4A81842F0E94B10CC701BC
:1019E0000E94AB0C812F0F900F90DF91CF911F9130
:1019F000FF90EF900895CF92DF92EF92FF920F93B6
:101A00001F93CF93DF9300D0CDB7DEB78C01FC01DD
:101A10009781C42E941708F4C92EF801808581118E
:101A200003C0D92EDC1801C0D12CC80169837A8388
:101A30000E94AE0C81E60E94B10C6981E62E7A818B
:101A4000F72EC60ECE1439F08FEF0E94B10CF701BD
:101A500081937F01F7CFDD2029F08FEF0E94B10C39
:101A6000DA94F9CFC8010E94AB0C40E767E0C801E7
:101A70000F900F90DF91CF911F910F91FF90EF90FA
:101A8000DF90CF900C94D70CCF92DF92EF92FF9221
:101A90000F931F93CF93DF9300D01F92CDB7DEB784
:101AA0007C01142F2A835B8369830E94AE0C6981B9
:101AB000862F8F7180620E94B10C082FC12E5B812E
:101AC000D52E2A81120F1C1531F0F60181916F017C
:101AD0000E94B10CF8CFC7010E94AB0C802F0F9071
:101AE0000F900F90DF91CF911F910F91FF90EF908A
:101AF000DF90CF900895EF92FF920F931F93CF93B3
:101B0000DF93CDB7DEB728970FB6F894DEBF0FBED0
:101B1000CDBF7C0109831A832B833C834D835E8375
:101B20006F837887FC012685AE014F5F5F4F6AE0C7
:101B30000E94440DF7012685AE014F5F5F4F60E1C3
:101B4000C7010E94440DF701478161E1C7010E946E
:101B5000D70C28960FB6F894DEBF0FBECDBFDF912D
:101B6000CF911F910F91FF90EF900895EF92FF9208
:101B70001F93CF93DF931F92CDB7DEB77C016983AC
:101B80000E94AE0C6981862F8F710E94B10C8FEF7D
:101B90000E94B10C182FC7010E94AB0C812F0F902F
:101BA000DF91CF911F91FF90EF900895AF92BF9278
:101BB000DF92EF92FF920F931F93CF93DF93CDB7F6
:101BC000DEB728970FB6F894DEBF0FBECDBF5C011D
:101BD000D62EE982FA820B831C832D833E834F83AA
:101BE000588761110AC0FC01468550E0BE016F5F55
:101BF0007F4F09960E948F1F07C0F6E0F61708F482
:101C000035C081E0681308C0ED2DF0E0EB51FE4FC8
:101C10006491F501268506C0E62FF0E0EB51FE4FFA
:101C2000649121E0AE014F5F5F4FC5010E94440DFA
:101C30000D2D10E0F801E152FE4F6491F50147814E
:101C4000C5010E94D70C62E0C5010E94B60DF801E3
:101C5000EF54FE4FE49141E050E001C0440FEA959B
:101C6000EAF7482B62E0C5010E94D70C28960FB610
:101C7000F894DEBF0FBECDBFDF91CF911F910F91C2
:101C8000FF90EF90DF90BF90AF90089567E10E94C2
:101C9000B60D809581700895CF93DF93EC0167E1D5
:101CA000CE010E94B60D84FD14C06FEFCE010E94DC
:101CB000B80C84FFF4CF40E167E0CE010E94D70C5E
:101CC00060E0CE010E94870CCE010E94D40C80E01F
:101CD00005C060E0CE010E94870C81E0DF91CF91CA
:101CE0000895CF93DF93EC0160E00E94B60D81FD73
:101CF0000EC0482F426060E0CE010E94D70C65E024
:101D000070E080E090E0DF91CF910C94F70BDF91D1
:101D1000CF910895CF93DF93EC0160E00E94870C90
:101D2000888999890E94010B6DE1CE010E94B60D50
:101D300081FF07C0888999890E94010BCE010E940A
:101D4000D40C60E0CE010E94B60D482F4E7F60E0BB
:101D5000CE010E94D70C62E0CE010E94B60DE1EBED
:101D6000F1E0E49141E050E001C0440FEA95EAF768
:101D7000482B62E0CE01DF91CF910C94D70CCF932A
:101D8000DF93EC010E94710E60E0CE010E94B60D5F
:101D9000482F416060E0CE010E94D70C40E767E029
:101DA000CE010E94D70C61E0CE010E94870C89858C
:101DB000882349F02E85AE01475F5F4F6AE0CE0170
:101DC0000E94440D03C0CE010E940C036DE1CE01C0
:101DD0000E94B60D81FF05C0CE01DF91CF910C941A
:101DE000D40CDF91CF9108950895CF92DF92EF92B6
:101DF000FF920F931F93CF93DF936C017A018B01B6
:101E0000C0E0D0E0CE15DF0589F0D8016D918D01DD
:101E1000D601ED91FC910190F081E02DC60109956C
:101E2000892B11F47E0102C02196ECCFC701DF910E
:101E3000CF911F910F91FF90EF90DF90CF90089579
:101E4000CF93DF93CDB7DEB762970FB6F894DEBFBE
:101E50000FBECDBF789484B5826084BD84B58160A7
:101E600084BD85B5826085BD85B5816085BD809165
:101E70006E00816080936E001092810080918100DD
:101E800082608093810080918100816080938100D5
:101E9000809180008160809380008091B100846097
:101EA0008093B1008091B00081608093B0008091F8
:101EB0007A00846080937A0080917A0082608093B7
:101EC0007A0080917A00816080937A0080917A0014
:101ED000806880937A001092C1000E946A0188E1B4
:101EE00091E00E94A401809178049091790420915E
:101EF0007A0430917B048217930719F061E00E9405
:101F0000BB0B80917A0490917B04209178043091EE
:101F100079042817390719F061E00E94BB0B1FB73D
:101F2000F89480919203811127C0E1ECF1E0849153
:101F3000E5EDF1E09491E82FF0E0EE0FFF1FE3569E
:101F4000FE4FA591B491EC91E92321F461E08AE080
:101F50000E948B0B61E08AE00E94BB0B8CB5806114
:101F60008CBD8CB580648CBD61E08DE00E94BB0BA4
:101F700061E08BE00E94BB0B809192038F5F8093A6
:101F800092031FBF60E088E794E00E94870C61E045
:101F900088E794E00E94930C65E070E080E090E0B8
:101FA0000E94F70B4CE060E088E794E00E94D70CB9
:101FB0004FE564E088E794E00E94D70C82E090E06F
:101FC0000E943803882319F081E080937E0466E044
:101FD00088E794E00E94B60D80E090E00E9438030C
:101FE00088E794E00E94AE0C80E50E94B10C83E784
:101FF0000E94B10C88E794E00E94AB0C40E06DE1D8
:1020000088E794E00E94D70C40E06CE188E794E018
:102010000E94D70C1092800440E767E088E794E0C4
:102020000E94D70C4CE465E088E794E00E94D70C4E
:1020300062EE88E794E00E94B80C88E794E00E9482
:10204000D40C88E794E00E94710E60E088E794E089
:102050000E94B60D482F4E7F60E088E794E00E9412
:10206000D70C68EC70E080E090E00E94F70B62E033
:1020700080916B040E94BB0B80E398EFAFEFBFEF42
:1020800080936F0490937004A0937104B0937204D2
:1020900060E082E00E94BB0B60E083E00E94BB0B2B
:1020A00060E084E00E94BB0B60E085E00E94BB0B17
:1020B00061E087E00E94BB0B61E088E00E94BB0BFF
:1020C00061E088E00E948B0B66E088E794E00E9464
:1020D000B60D482F476066E088E794E00E94D70C71
:1020E00082E090E00E943803811104C081E291E017
:1020F0000E94A4014CE765E088E794E00E94D70CB9
:102100000E94310C6B0120E3C21A28EFD20A65E26B
:1021100073E0CE0107960E94650985E993E00E946D
:10212000AC0A0D2C000CEE08FF080E94310C6C1557
:102130007D058E059F0568F08091560490915704A7
:102140008932934209F043C192E3C92E94E0D92E1B
:1021500024C085E993E00E942E0A181619062CF770
:10216000CE0101960E942403BE016F5F7F4FCE0116
:1021700007960E94FB08CE0101960E9434098B85C8
:102180009C85892BC9F20F8118856CE371E0C80129
:102190000E94981F892B81F2DDC1F601A28CB38CBD
:1021A0001A82198210925904109258048EE892E013
:1021B0000E94A40181E491E00E94A401809148045E
:1021C000909149040E948A0EF601138D028D712FA1
:1021D000770F770B272F372F472F572F672F809198
:1021E0004804909149040E947B0DF601828D938DE5
:1021F0009A83898342E0BE016F5F7F4F80914804DC
:10220000909149040E945F02811128C08091580476
:1022100090915904049708F03EC342E0BE016F5FFD
:102220007F4F80914804909149040E945F02882367
:1022300029F0109259041092580410C06CE271E019
:1022400080E090E00E94F70B80915804909159042F
:1022500001969093590480935804D8CF68EC70E0AD
:1022600080E090E00E94F70B42E066E574E0809128
:102270004804909149040E945F02811127C0809117
:10228000580490915904049708F005C342E066E5AC
:1022900074E080914804909149040E945F02882371
:1022A00029F0109259041092580410C06CE271E0A9
:1022B00080E090E00E94F70B8091580490915904BF
:1022C00001969093590480935804D9CF882309F438
:1022D00073C01A821982F601828C938CF090570495
:1022E000E09056045F2D550F550B052F152F252F08
:1022F000352F452F61E080914804909149040E9458
:10230000D60D80914804909149040E94BF0E88EE3A
:1023100093E00E94BE0280914804909149040E947B
:10232000460E882321F142E0BE016F5F7F4F80910E
:102330004804909149040E94FB0C89819A81881578
:10234000990561F482E591E00E94A4018EED92E08E
:102350000E94A401C5010E94FE012EC00E946A01D4
:102360008EE892E00E94A4018AE691E00EC00E94ED
:10237000310C672B682B692BF9F00E946A018EE8FB
:1023800092E00E94A40184EA91E00E942F02C4011D
:102390000E94310289E391E00E94A40161E087E09C
:1023A0000E948B0B68EE73E080E090E00E94F70BD8
:1023B00060E087E00E948B0BF2E0CF0ED11C2CE393
:1023C000C21624E0D20609F0E8CEF12CC0C087ED99
:1023D00091E00E94A4011E861D861A821982F09047
:1023E0005704E09056045F2D550F550B052F152F00
:1023F000252F352F452F61E08091480490914904A5
:102400000E94D60D80914804909149040E94BF0E0D
:10241000F12C8FEF9FEF0E94BE02882371F08CEEAB
:1024200091E00E94A40142E0BE01635F7F4F809172
:102430004804909149040E94FB0C80E395E70E94B8
:10244000BE02882359F042E0BE016F5F7F4F80914A
:102450004804909149040E94FB0C18C00E946A0134
:102460008EE892E00E94A4018EEF91E00E94A40108
:1024700061E087E00E948B0B68EE73E080E090E003
:102480000E94F70B60E087E00E948B0B2D853E8554
:1024900080915604909157042817390709F04DC0D0
:1024A00080914804909149040E948A0E10914D0435
:1024B00000914C04712F770F770B272F372F472F61
:1024C000572F672F80914804909149040E947B0DFB
:1024D00087E292E00E94A40142E066E574E0809108
:1024E0004804909149040E945F02811124C0009128
:1024F0004C0410914D040E946A018EE892E00E9403
:10250000A4018CE392E00E942F02C8010E943102D4
:1025100089E391E00E94A40161E087E00E948B0BB7
:1025200068EE73E080E090E00E94F70B60E087E0E7
:102530000E948B0B02C0FF24F3942D853E85809171
:102540005604909157042817390709F062CFF0928A
:1025500093030AC06DE173E0C8010E94981F892BA4
:1025600009F0EACD1092930360E088E00E948B0BA3
:102570008FE592E00E942F028091930390E00E94E9
:10258000FE018DE692E00E94A40183E892E00E94A1
:102590002F0280916404909165040E94FE0180E9FD
:1025A00092E00E94A4010AE514E0F8018191919162
:1025B0008F010E94FE01F4E004361F07B1F7CE013F
:1025C00007960E94340965E273E0CE010D960E94E1
:1025D00065098CE992E00E94A40181EA92E00E94E0
:1025E000A40180916404909165048932934209F0BA
:1025F00000C185E993E00E942E0A181619067CF4A2
:10260000CE0101960E942403BE016F5F7F4FCE0171
:102610000D960E94FB08CE0101960E9434098D851B
:102620009E850E9403178A32E3E29E0709F4C1C027
:102630008B32F3E29F0709F4C6C08932934209F056
:102640001CC100916404109165040E94010726E6F4
:1026500036E646EE5FE30E94B31B20E030E040E048
:1026600052E40E94C61CAB01BC019801CE01079642
:102670000E94740365E273E0CE0101960E94650931
:102680000F811885B80182E394E00E94A11F6B8539
:102690007C8580E090E020E030E08617970779F0B5
:1026A0000115110551F0F801E80FF91F40814D3275
:1026B00011F0483711F42F5F3F4F0196EECF2430D1
:1026C000310509F00EC182E3E82E84E0F82E87017F
:1026D00002531440F70161917F016D3229F0CE0160
:1026E00001960E94AA08F3CF89819A810E9403175C
:1026F0007C010F5F1F4F65E273E0CE0101960E94DF
:10270000DA08F801EE5CFB4F60810F5F1F4F6D32FE
:1027100029F0CE0101960E94AA08F3CF89819A81FF
:102720000E94FF164B015C0165E273E0CE01019649
:102730000E94DA08F801EE5CFB4F60810F5F1F4FCB
:102740006D3229F0CE0101960E94AA08F3CF89814B
:102750009A810E9403176C0165E273E0CE01019635
:102760000E94DA080E5C1B4FF80161918F016837F7
:1027700029F0CE0101960E94AA08F6CF89819A819C
:102780000E9403178C01CE0101960E943409CE01EC
:1027900007960E943409C7010E94FE01C8010E94E9
:1027A000FE01C501B4010E944E07C6010E94FE0150
:1027B0006BC08AE293E20E941508882309F464C082
:1027C00085EB92E009C08BE293E20E941508882312
:1027D00009F45AC08BEB92E00E94A4010E947A098E
:1027E00081EA92E00E94A4018EE892E00E94A40196
:1027F0004BC0F0905704E09056045F2D550F550BD9
:10280000052F152F252F352F452F60E08091480487
:10281000909149040E94D60D8091480490914904FA
:102820000E94BF0E81EC92E00E94A4018FEF9FEF07
:102830000E94BE0287ED92E00E94A40141E0BE0129
:102840006F5F7F4F80914804909149040E94FB0C78
:1028500000916404109165040E94010726E636E6A3
:1028600046EE5FE30E94B31B20E030E040E052E41C
:102870000E94C61CA8010E94A30465E273E0CE0179
:102880000D960E94DA08ADCECE010D960E94340955
:102890000E94CE0A98CE09811A810E946A018EE8B0
:1028A00092E00E94A4018CE392E00E942F02C801F2
:1028B0000E94310289E391E00E94A40161E087E077
:1028C0000E948B0B68EE73E080E090E00E94F70BB3
:1028D00060E087E00E948B0B10925904109258041C
:1028E0006BCD0E946A018EE892E00E94A4018BEFFA
:1028F00092E00E94A40161E087E00E948B0B60EDF2
:1029000077E080E090E00E94F70B60E087E00E94B3
:102910008B0B00E010E0E12CF12CC12CD12C812C90
:10292000912C540130CF8F929F92AF92BF92CF9251
:10293000DF92EF92FF920F931F93CF93DF9310924A
:1029400098031092970388EE93E0A0E0B0E08093A4
:10295000990390939A03A0939B03B0939C038AE0FE
:1029600091E0909396038093950385EC90E090938B
:10297000A2038093A10384EC90E09093A40380933E
:10298000A30380EC90E09093A6038093A50381ECD1
:1029900090E09093A8038093A70382EC90E090933B
:1029A000AA038093A90386EC90E09093AC038093F4
:1029B000AB031092AE031092AF031092B0031092CB
:1029C000B10389E090E090937904809378048AE0E1
:1029D00090E090937B0480937A0410927E0480E2CE
:1029E00080937F041092800485E08093860485E0C4
:1029F00090E0A0E0B0E080938C0490938D04A093CD
:102A00008E04B0938F041092810486E080936B044F
:102A10008BE080936C04E1EDF1E0E491E0936D04D0
:102A2000EDEBF1E0E491E0936E0480E89EE3A0E03A
:102A3000B0E08093730490937404A0937504B093F2
:102A400076040E946A0182E00E94B6164C0183E07F
:102A50000E94B616D1E0892B09F4D0E084E00E94F0
:102A6000B616C1E0892B09F4C0E08BE893E00E9420
:102A7000A401892839F4D1110CC0CC23A1F0CDE2F6
:102A8000D3E21CC0D1110AC0CC2381F0CEE2D3E244
:102A900015C0CC2371F0CFE2D3E210C0CC2361F09B
:102AA000C0E3D3E20BC0C9E2D3E208C0CAE2D3E27A
:102AB00005C0CBE2D3E202C0CCE2D3E2D0936504FE
:102AC000C09364048EE893E00E94A401C93283E2BB
:102AD000D80799F0CE018A529342039788F0CD32FD
:102AE00083E2D80781F0CE3283E2D80779F0CF3283
:102AF000D34279F08FE293E20EC08AE293E20BC0F8
:102B000089E293E208C08CE293E205C08DE293E291
:102B100002C08EE293E290935B0480935A04C091CA
:102B20006404D09165048EE893E00E94A401CE0174
:102B30008952934282309105E0F002970297A0F00B
:102B4000CD3283E2D807A9F0CE3283E2D807B1F0C4
:102B5000CF3283E2D807B9F0C033D342C1F4DEE20A
:102B6000ED2ED3E2FD2E13C0CAE2EC2EC3E2FC2E02
:102B70000EC0BBE2EB2EB3E2FB2E09C0ACE2EA2EA4
:102B8000A3E2FA2E04C0FDE2EF2EF3E2FF2EF09254
:102B90005D04E0925C04C0916404D09165048EE809
:102BA00093E00E94A401CE01895293420397E0F082
:102BB000CC3283E2D807A9F0CD3283E2D80771F096
:102BC000CE3283E2D80769F0CF3283E2D80761F0D2
:102BD000C033D34259F40DE213E208C00AE213E213
:102BE00005C00BE213E202C00CE213E210935F0493
:102BF00000935E04C0916404D09165048EE893E074
:102C00000E94A401CE01895293420497A0F0CD32D4
:102C100083E2D807A9F0CE3283E2D807B1F0CF32F1
:102C200083E2D807B9F0C033D342C1F4ECE2AE2E50
:102C3000E3E2BE2E13C07DE2A72E73E2B72E0EC0D4
:102C40006EE2A62E63E2B62E09C05AE2A52E53E22A
:102C5000B52E04C04BE2A42E43E2B42EB092610420
:102C6000A0926004C0916404D09165048EE893E062
:102C70000E94A401CE01895293428430910578F0DC
:102C80000497029788F0CF3283E2D80791F0C033DF
:102C9000D34299F43BE2C32E33E2D32E0EC02EE290
:102CA000C22E23E2D22E09C09FE2C92E93E2D92E72
:102CB00004C08AE2C82E83E2D82ED0926304C09268
:102CC0006204109291041092900410929304109256
:102CD0009204809164049091650428E734E0309375
:102CE00049042093480420E934E030934B042093B6
:102CF0004A0490935704809356049093470480931A
:102D00004604109259041092580480915A049091EC
:102D10005B0490934D0480934C0480915C049091EB
:102D20005D0490934F0480934E0480915E049091D3
:102D30005F049093510480935004809160049091BB
:102D400061049093530480935204D0925504C0922E
:102D50005404DF91CF911F910F91FF90EF90DF907E
:102D6000CF90BF90AF909F908F900895CF93DF93B7
:102D7000282F30E0F901EB50FE4F8491F901E55323
:102D8000FE4FD491F901E954FE4FC491CC2391F048
:102D900081110E94D80AEC2FF0E0EE0FFF1FE955D9
:102DA000FE4FA591B491EC91ED2381E090E021F4E8
:102DB00080E002C080E090E0DF91CF910895EF9233
:102DC0000F931F93CF93DF93E80147FD02C034E0D8
:102DD00001C034E1E42F440FFF0BF7FF03C0F1956E
:102DE000E195F109E32E022F2E2FAE010E94591713
:102DF000CE01DF91CF911F910F91EF90089566273B
:102E000077270C94E718FC0188279927E8942191EB
:102E10002032E9F3293010F02E30C8F32B3241F084
:102E20002D3239F4689404C00E943717820F911D27
:102E3000219120532A30C0F31EF4909581959F4F25
:102E400008954532510520F4423010F00C942C17AF
:102E5000FB011082CB010895BB274A3031F499233E
:102E600022F4BDE2909581959F4F0C9440177AE033
:102E7000979F902D879F802D910D11240895BB273A
:102E8000FB015527AA27880F991FAA1FA41710F026
:102E9000A41B83955051B9F7A05DAA3308F0A95D32
:102EA000A193009779F7B111B1931192CB010C94D2
:102EB0003D1B4F925F926F927F929F92AF92BF9213
:102EC000CF92DF92EF92FF920F931F93CF93DF93F6
:102ED000CDB7DEB729970FB6F894DEBF0FBECDBFD2
:102EE0006A01122FB02E2BE3201720F0FF24F39459
:102EF000F00E02C0BCE3FB2E0F2D27E0AE014F5FAA
:102F00005F4F0E94441AAC018981982F99709130CB
:102F100031F0E1FC06C0E0FE06C090E205C09DE293
:102F200003C09BE201C090E0EE2DE07183FF3CC046
:102F3000911102C083E001C084E0811718F4212FB1
:102F4000281B01C020E0E1110BC0F601822F30E206
:102F5000882319F031938150FBCFC20ED11C20E0A1
:102F6000992329F0D6019C93F60131966F01C60191
:102F70000396E2FE0AC03EE4D6013C9341E411967A
:102F80004C93119712963C9306C03EE6F6013083AF
:102F900041E641833283FC01322F40E2332309F4BE
:102FA00042C041933150FACF82FF44C0911102C018
:102FB00083E001C084E0811718F4212F281B01C091
:102FC00020E0E1110BC0F601822F30E2882319F0D6
:102FD00031938150FBCFC20ED11C20E0992329F000
:102FE000D6019C93F60131966F01C6010396E2FE6D
:102FF0000BC039E4D6013C933EE411963C93119703
:1030000036E412963C9307C039E6F60130833EE67B
:10301000318336E63283FC01322F40E2332319F04C
:1030200041933150FBCFFC01E20FF11D10828EEF76
:103030009FEFB7C0F1E0911101C0F0E06F2F70E099
:103040001416150624F49A012F5F3F4F02C021E0A9
:1030500030E0260F371FBB2029F06B2D70E06F5F2B
:103060007F4F02C060E070E0260F371F612F70E0D5
:10307000261737071CF4121B212F01C020E03E2D1C
:10308000387159F4D601322F60E2332319F06D9371
:103090003150FBCFC20ED11C20E0FF2331F0D6010E
:1030A0009C93B6016F5F7F4F6B01E1110BC0F6017E
:1030B000922F30E3992319F031939150FBCFC20E38
:1030C000D11C20E09F2D940F3A81782F7071A72E8C
:1030D00084FF03C0313309F49150191624F4993058
:1030E00018F098E001C091E0E42F852F57FF02C04F
:1030F000E0E080E06E2F782FE0E0F0E0AEE29A2E84
:103100003A01691A71082A01461A570A0B2D10E074
:103110001195019511096F3F8FEF780729F4D601BA
:103120009C92C60101966C014617570784F06616FB
:1031300077066CF47F01E40CF51CA1E0B0E0AC0F65
:10314000BD1FEA0EFB1ED7011196BC9002C090E392
:10315000B92E615071093196C60101967C01601744
:10316000710724F0D601BC926C01D5CF64177507A6
:1031700041F4363320F4353321F4A11002C081E349
:10318000B82EF601B082F701822F90E2882319F061
:1031900091938150FBCFF701E20FF11D108280E087
:1031A00090E029960FB6F894DEBF0FBECDBFDF9139
:1031B000CF911F910F91FF90EF90DF90CF90BF9034
:1031C000AF909F907F906F905F904F900895A0E098
:1031D000B0E0EDEEF8E10C94831CEC017B0161158D
:1031E000710519F0DB018D939C938E010F5F1F4FCA
:1031F0007880872D90E00E941C1B892B11F0E8013C
:10320000F4CFBDE27B1205C00F5F1F4F7980C1E094
:1032100008C0EBE27E1204C08E010E5F1F4F798062
:10322000C0E06801F1E0CF1AD10843E050E060E768
:1032300070E0C6010E94251B892BF1F4680122E091
:10324000C20ED11C45E050E06BE670E0C6010E9462
:10325000251B892B21F4680187E0C80ED11CE114DD
:10326000F10419F0D701CD92DC92C111FFC060E0EA
:1032700070E080E89FE703C143E050E068E670E05B
:10328000C6010E94251B892B51F4E114F10409F4B5
:10329000F2C00E5F1F4FF70111830083ECC068017D
:1032A00060E070E0CB0100E010E0F601D0EDD70D5A
:1032B000DA3058F52C2F2260622E2C2F2870C2FF96
:1032C00005C0211128C00F5F1F4F25C0222311F018
:1032D00001501109A5E0B0E09B01AC010E94741CF3
:1032E0004B015C01880C991CAA1CBB1CC501B401D4
:1032F0006D0F711D811D911D6839A9E97A078A0733
:10330000A9E19A0740F0C66005C0DE3F51F4C3FD55
:1033100044C0C8606C2EBFEFCB1ADB0A7080C62D8C
:10332000C4CF2D2F2F7D2531C1F540814D3211F4B1
:10333000C06106C04B3221F0319621E030E006C07A
:103340003296D60111964C9122E030E0A0EDA40F08
:10335000AA3018F0E21BF30B20C040E050E04038E8
:10336000BCE05B075CF49A01220F331F220F331F6E
:10337000420F531F440F551F4A0F511D3196DF0155
:1033800011972C91A0EDA20FAA3048F3C4FF03C0FF
:10339000519541955109040F151FC1FF07C0E11454
:1033A000F10421F03197D701ED93FC930E94521B59
:1033B000C370C33019F06B017C0106C06B017C0146
:1033C000F7FAF094F7F8F09420E030E0A901C70193
:1033D000B6010E944D1B882309F445C017FF06C0A3
:1033E000119501951109C7E8D0E002C0CFE9D0E0FE
:1033F0005E01B8E1AB1AB1084601BE2DAF2D90E2D7
:10340000E92EF12C0E151F0584F0FE012591359152
:1034100045915491B4018B2F9A2F0E94B31B4B01FD
:10342000B82FA92F0E191F09EDCF2497F594E79413
:10343000CA15DB0539F76401EB2EFA2E8E2D880FA5
:103440008F2D881F8F3F49F020E030E0A901C70190
:10345000B6010E944D1B811106C082E290E090935C
:103460009E0480939D04C701B60109C060E070E02E
:1034700080E89FEF04C060E070E080EC9FE7CDB78C
:10348000DEB7EEE00C949F1C283008F027E03327CD
:10349000DA01990F311D87FD916000966105710574
:1034A00039F432602E5F3D9330E32A95E1F70895B9
:1034B0009F3F30F080387105610509F03C5F3C5F4B
:1034C0003D93913008F08068911DDF93CF931F9357
:1034D0000F93FF92EF92192F987F9695E92F96956B
:1034E0009695E90FFF27E350FF4F99273327EE24E6
:1034F000FF24A701E70105900894079428F4360FEC
:10350000E71EF81E491F511D660F771F881F991F60
:103510000694A1F70590079428F4E70EF81E491FBA
:10352000561FC11D770F881F991F661F0694A1F7AC
:103530000590079428F4F80E491F561FC71FD11D88
:10354000880F991F661F771F0694A1F705900794AF
:1035500020F4490F561FC71FD81F990F661F771FEA
:10356000881F0694A9F784911095177041F0D6959D
:10357000C79557954795F794E7941A95C1F7E3EAED
:10358000F0E06894159015913591659195910590AD
:103590007FE27395E118F10A430B560BC90BD00972
:1035A000C0F7E10CF11E431F561FC91FD01D7EF44A
:1035B000703311F48A95E6CFE894015030F0080F8B
:1035C0000AF40027021708F4202F2395022F7A33DC
:1035D00028F079E37D932A95E9F710C07D932A9529
:1035E00089F6069497956795379517951794E1187E
:1035F000F10A430B560BC90BD00998F023957E9125
:1036000073957A3308F070E37C932013B8F77E91BA
:1036100070617D9330F0839571E37D9370E32A951B
:10362000E1F71124EF90FF900F911F91CF91DF915F
:10363000992787FD9095089591110C94201C803254
:1036400019F089508550C8F70895FB01DC014150FD
:10365000504088F08D9181341CF08B350CF4805EE5
:10366000659161341CF06B350CF4605E861B611152
:1036700071F3990B0895881BFCCFDC01FC01672FC7
:1036800071917723E1F7329704C07C916D93708339
:103690006291AE17BF07C8F308950E948F1B08F40C
:1036A00081E00895E89409C097FB3EF490958095D9
:1036B000709561957F4F8F4F9F4F9923A9F0F92FF8
:1036C00096E9BB279395F695879577956795B79576
:1036D000F111F8CFFAF4BB0F11F460FF1BC06F5F5C
:1036E0007F4F8F4F9F4F16C0882311F096E911C06E
:1036F000772321F09EE8872F762F05C0662371F08F
:1037000096E8862F70E060E02AF09A95660F771FA2
:10371000881FDAF7880F9695879597F90895990F7E
:103720000008550FAA0BE0E8FEEF16161706E8078B
:10373000F907C0F012161306E407F50798F0621BAC
:10374000730B840B950B39F40A2661F0232B242B81
:10375000252B21F408950A2609F4A140A6958FEFA0
:10376000811D811D08950E94C61B0C943A1C0E9465
:103770002C1C38F00E94331C20F0952311F00C947F
:10378000231C0C94291C11240C946E1C0E944B1CAD
:1037900070F3959FC1F3950F50E0551F629FF001A4
:1037A000729FBB27F00DB11D639FAA27F00DB11DBD
:1037B000AA1F649F6627B00DA11D661F829F222746
:1037C000B00DA11D621F739FB00DA11D621F839FCD
:1037D000A00D611D221F749F3327A00D611D231FA3
:1037E000849F600D211D822F762F6A2F11249F57F1
:1037F00050409AF0F1F088234AF0EE0FFF1FBB1FF4
:10380000661F771F881F91505040A9F79E3F5105B2
:1038100080F00C94231C0C946E1C5F3FE4F3983EE4
:10382000D4F3869577956795B795F795E7959F5F5C
:10383000C1F7FE2B880F911D9695879597F90895EE
:1038400099278827089597F99F6780E870E060E0DE
:1038500008959FEF80EC089500240A941616170629
:1038600018060906089500240A9412161306140671
:1038700005060895092E0394000C11F4882352F0D4
:10388000BB0F40F4BF2B11F460FF04C06F5F7F4F8C
:103890008F4F9F4F089557FD9058440F551F59F073
:1038A0005F3F71F04795880F97FB991F61F09F3F2D
:1038B00079F087950895121613061406551FF2CF56
:1038C0004695F1DF08C0161617061806991FF1CFA6
:1038D00086957105610508940895E894BB276627CD
:1038E0007727CB0197F908950E94B61CA59F900DEC
:1038F000B49F900DA49F800D911D112408952F92C7
:103900003F924F925F926F927F928F929F92AF926F
:10391000BF92CF92DF92EF92FF920F931F93CF93BC
:10392000DF93CDB7DEB7CA1BDB0B0FB6F894DEBF53
:103930000FBECDBF09942A88398848885F846E8479
:103940007D848C849B84AA84B984C884DF80EE80C3
:10395000FD800C811B81AA81B981CE0FD11D0FB6CC
:10396000F894DEBF0FBECDBFED010895A29FB00158
:10397000B39FC001A39F700D811D1124911DB29FA3
:10398000700D811D1124911D08955058BB27AA2741
:103990000E94DD1C0C943A1C0E942C1C38F00E94E2
:1039A000331C20F039F49F3F19F426F40C94291CA1
:1039B0000EF4E095E7FB0C94231CE92F0E944B1CAE
:1039C00058F3BA17620773078407950720F079F454
:1039D000A6F50C946D1C0EF4E0950B2EBA2FA02DBD
:1039E0000B01B90190010C01CA01A0011124FF27AC
:1039F000591B99F0593F50F4503E68F11A16F040A7
:103A0000A22F232F342F4427585FF3CF46953795A5
:103A10002795A795F0405395C9F77EF41F16BA0B6A
:103A2000620B730B840BBAF09150A1F0FF0FBB1F18
:103A3000661F771F881FC2F70EC0BA0F621F731F61
:103A4000841F48F4879577956795B795F7959E3FBE
:103A500008F0B0CF9395880F08F09927EE0F97954F
:103A6000879508950E94531C88F09F5798F0B92FAE
:103A70009927B751B0F0E1F0660F771F881F991FA3
:103A80001AF0BA95C9F714C0B13091F00E946D1CBC
:103A9000B1E008950C946D1C672F782F8827B85FCC
:103AA00039F0B93FCCF3869577956795B395D9F7FB
:103AB0003EF490958095709561957F4F8F4F9F4F05
:103AC00008950E948F1B08F48FEF08950E948F1BAA
:103AD000880B990B0895A1E21A2EAA1BBB1BFD01AE
:103AE0000DC0AA1FBB1FEE1FFF1FA217B307E407DD
:103AF000F50720F0A21BB30BE40BF50B661F771F35
:103B0000881F991F1A9469F7609570958095909514
:103B10009B01AC01BD01CF010895EE0FFF1F059081
:103B2000F491E02D0994CF93DF938230910510F446
:103B300082E090E0E091A104F091A20420E030E066
:103B4000C0E0D0E0309711F140815181481759070A
:103B5000C0F04817590761F482819381209719F0CA
:103B60009B838A832BC09093A2048093A10426C0D8
:103B70002115310519F04217530718F49A01BE01B7
:103B8000DF01EF010280F381E02DDCCF211531054B
:103B900009F1281B390B2430310590F412968D91D0
:103BA0009C9113976115710521F0FB01938382832A
:103BB00004C09093A2048093A104FD01329644C0F6
:103BC000FD01E20FF31F81939193225031092D9350
:103BD0003C933AC020919F043091A004232B41F4E0
:103BE00020910201309103013093A00420939F049F
:103BF00020910001309101012115310541F42DB7CB
:103C00003EB74091040150910501241B350BE09112
:103C10009F04F091A004E217F307A0F42E1B3F0BC2
:103C20002817390778F0AC014E5F5F4F241735072E
:103C300048F04E0F5F1F5093A00440939F04819360
:103C4000919302C0E0E0F0E0CF01DF91CF910895C1
:103C50000F931F93CF93DF93009709F48CC0FC015F
:103C60003297138212820091A1041091A2040115CF
:103C7000110581F420813181820F931F20919F04CF
:103C80003091A0042817390779F5F093A004E09348
:103C90009F0471C0D80140E050E0AE17BF0750F458
:103CA00012962D913C911397AD012115310509F123
:103CB000D901F3CF9D01DA013383228360817181C1
:103CC000860F971F8217930769F4EC0128813981C9
:103CD000260F371F2E5F3F4F318320838A819B81C0
:103CE00093838283452B29F4F093A204E093A104EB
:103CF00042C01396FC93EE931297ED0149915991AE
:103D00009E01240F351FE217F30771F48081918122
:103D1000840F951F029611969C938E9382819381B6
:103D200013969C938E931297E0E0F0E0D8011296E0
:103D30008D919C911397009719F0F8018C01F6CFA3
:103D40008D919C9198012E5F3F4F820F931F209180
:103D50009F043091A0042817390769F4309729F49B
:103D60001092A2041092A10402C013821282109336
:103D7000A00400939F04DF91CF911F910F910895AC
:103D8000A0E0B0E0E6ECFEE10C94831CEC010097AF
:103D900021F4CB010E94931DB8C0FC01E60FF71F70
:103DA0009C0122503109E217F30708F4ACC0D90195
:103DB0000D911C91119706171707B0F005301105EA
:103DC00008F49FC0C80104978617970708F499C0A4
:103DD00002501109061B170B019311936D937C93ED
:103DE000CF010E94281E8DC05B01A01AB10A4C01B0
:103DF000800E911EA091A104B091A20440E050E079
:103E0000E12CF12C109709F44AC0A815B905D1F599
:103E10006D907C901197630182E0C80ED11CCA148A
:103E2000DB0480F1A3014A195B096A0182E0C80E34
:103E3000D11C1296BC9012971396AC91B5E0CB169C
:103E4000D10440F0B282A38351834083D9016D93A2
:103E50007C930AC00E5F1F4FC301800F911FF901B1
:103E600091838083EB2DFA2FE114F10431F0D70117
:103E70001396FC93EE93129744C0F093A204E09340
:103E8000A1043FC08D919C9111974817590708F4E0
:103E9000AC017D0112960D90BC91A02DB3CF809105
:103EA0009F049091A00488159905E1F446175707DF
:103EB000C8F48091000190910101009741F48DB701
:103EC0009EB74091040150910501841B950BE817A2
:103ED000F907C8F4F093A004E0939F04F9017183FB
:103EE00060830FC0CB010E94931D7C01009759F0A5
:103EF000A801BE010E948F1FCE010E94281EC7018B
:103F000004C0CE0102C080E090E0CDB7DEB7EEE0A5
:103F10000C949F1C81E090E0F8940C94A81FFB0186
:103F2000DC0102C001900D9241505040D8F7089535
:103F3000FB01DC018D91019080190110D9F3990BDF
:103F40000895FB01DC0101900D920020E1F7089536
:043F5000F894FFCF13
:103F54000000A304800000000000650AF50EFD09BE
:103F6400AC0A2E0A0C0A200A696E207365747570F7
:103F7400004641494C454420544F20534554204465
:103F840041544120524154452121210074727565E8
:103F94000053656E64696E672070696E67732E2EB8
:103FA4002E0052656365697665642061636B6E6F8C
:103FB400776C656467652E2E2E004552524F522051
:103FC400303038212120496E636F7272656374202A
:103FD40061636B6E6F776C656467656D656E742085
:103FE40070696E67207265636965766564206672C0
:103FF4006F6D20004552524F52203030372121201E
:104004004E6F2061636B6E6F776C656467656D6579
:104014006E742070696E6720726563696576656485
:104024002066726F6D200057616974696E6720663F
:104034006F722070696E67732E2E2E005265636551
:104044006976696E6720446174612E2E2E00455294
:10405400524F522030303921212054696D65206F30
:10406400757421204E6F2070696E672072656365D8
:104074006976656421210053656E64696E6720501A
:10408400696E67206261636B2E2E2E004552524F7B
:104094005220303033212120556E61626C652074CA
:1040A4006F20636F6E7461637420687562200050C2
:1040B400696E67207374617475733A20002F2F2F13
:1040C4002F2F2F2F2F2F2F2F2F2F2F2F2F2F2F2FFC
:1040D4002F2F004D7920416464726573733A200078
:1040E400526561642052616E67653A0056565656B1
:1040F400005F5F5F5F5F5F5F5F5F5F5F5F5F5F5F2B
:104104005F5F5F5F00393030323A00393030333A24
:1041140000576169746E6720666F722072657175ED
:104124006573742E2E2E00476F742E2E2E00537539
:10413400636365737366756C20636F6E7461637417
:1041440020776974682068756220004552524F5286
:10415400203031312121204D6573616765206E6FF8
:104164007420666F726D6174656421210066616CF0
:104174007365000D0A004552524F522030313021F0
:10418400212054696D65206F757421204E6F206461
:1041940061746120726563656976656421210045F7
:1041A40052524F5200547279696E67206167616997
:1041B4006E2E2E2E006E616E00696E66006F76663E
:1041C400005300547279696E672072657175657366
:1041D4007420616761696E2E2E2E003031003032FA
:0241E4000000D9
:00000001FF
