:100000000C946B000C9493000C9493000C9493004C
:100010000C9493000C9493000C9493000C94930014
:100020000C9493000C9493000C9493000C94930004
:100030000C9493000C9493000C9493000C949300F4
:100040000C9440060C9493000C940E060C94E80556
:100050000C9493000C9493000C9493000C949300D4
:100060000C9493000C9493000000000025002800DD
:100070002B000000000023002600290000000008DB
:10008000000201000003040700000000000000005F
:1000900000000000240027002A00000102030405DC
:1000A0001112131415160A0B0C0D0E0F0404040480
:1000B0000404040402020202020203030303030312
:1000C00001020408102040800102040810200102EF
:1000D00004081020060A11241FBECFEFD8E0DEBFAF
:1000E000CDBF12E0A0E0B1E0E0E9F8E102C0059088
:1000F0000D92AE35B107D9F723E0AEE5B2E001C00D
:100100001D92AF35B207E1F710E0CBE6D0E004C0B6
:100110002197FE010E943B0CCA36D107C9F70E9405
:100120008A060C94460C0C940000CF92DF92EF925A
:10013000FF920F931F93CF93DF936C017A018B0192
:10014000C0E0D0E0CE15DF0589F0D8016D918D01BA
:10015000D601ED91FC910190F081E02DC601099549
:10016000892B11F47E0102C02196ECCFC701DF91EB
:10017000CF911F910F91FF90EF90DF90CF90089556
:10018000FC01918D828D981761F0828DDF01A80F9F
:10019000B11D5D968C91928D9F5F9F73928F90E0C1
:1001A00008958FEF9FEF0895FC01918D828D981730
:1001B00031F0828DE80FF11D858D90E008958FEF6D
:1001C0009FEF0895FC01918D228D892F90E0805C36
:1001D0009F4F821B91098F739927089589E692E0BA
:1001E0000E94E20021E0892B09F420E0822F08958B
:1001F000FC01848DDF01A80FB11DA35ABF4F2C91C4
:10020000848D90E001968F739927848FA689B78992
:100210002C93A089B1898C9180648C93938D848D6B
:10022000981306C00288F389E02D80818F7D80833A
:100230000895EF92FF920F931F93CF93DF93EC01FA
:1002400081E0888F9B8D8C8D981305C0E889F98992
:10025000808185FD24C0F62E0B8D10E00F5F1F4FAF
:100260000F731127E02E8C8DE8120CC00FB607FC1F
:10027000FACFE889F989808185FFF5CFCE010E9408
:10028000F800F1CF8B8DFE01E80FF11DE35AFF4F0F
:10029000F0820B8FEA89FB898081806207C0EE893A
:1002A000FF896083E889F98980818064808381E0A7
:1002B00090E0DF91CF911F910F91FF90EF90089503
:1002C000CF93DF93EC01888D8823C9F0EA89FB89FD
:1002D000808185FD05C0A889B9898C9186FD0FC0F4
:1002E0000FB607FCF5CF808185FFF2CFA889B989C9
:1002F0008C9185FFEDCFCE010E94F800E7CFDF9112
:10030000CF91089580E090E0892B29F00E94EE00C3
:1003100081110C9400000895833081F028F481301D
:1003200099F08230A1F008958730A9F08830B9F0B3
:100330008430D1F4809180008F7D03C08091800053
:100340008F7780938000089584B58F7702C084B53D
:100350008F7D84BD08958091B0008F7703C0809118
:10036000B0008F7D8093B00008951F93CF93DF93EB
:10037000282F30E0F901E458FF4F8491F901E0544F
:10038000FF4FD491F901E455FF4FC491CC23C9F03C
:10039000162F81110E948C01EC2FF0E0EE0FFF1F51
:1003A000E859FF4FA591B4918FB7F894111105C08A
:1003B0009C91ED2FE095E92302C0EC91ED2BEC939D
:1003C0008FBFDF91CF911F910895CF93DF9390E07E
:1003D000FC01E054FF4F2491FC01E455FF4F849150
:1003E000882361F190E0880F991FFC01E057FF4FCF
:1003F000C591D491FC01E859FF4FA591B4916111C9
:1004000009C09FB7F8948881209582238883EC9156
:100410002E230BC0623061F49FB7F8943881822F8D
:10042000809583238883EC912E2B2C939FBF06C04D
:100430008FB7F894E8812E2B28838FBFDF91CF915F
:1004400008958230910538F0880F991F880F991F01
:1004500005970197F1F708953FB7F89480916302EB
:1004600090916402A0916502B091660226B5A89BA6
:1004700005C02F3F19F00196A11DB11D3FBFBA2F36
:10048000A92F982F8827820F911DA11DB11DBC0196
:10049000CD0142E0660F771F881F991F4A95D1F75B
:1004A00008958F929F92AF92BF92CF92DF92EF9278
:1004B000FF926B017C010E942C024B015C01C11474
:1004C000D104E104F104F1F00E942C02DC01CB0123
:1004D00088199909AA09BB09883E9340A105B1056D
:1004E00070F321E0C21AD108E108F10888EE880E05
:1004F00083E0981EA11CB11CC114D104E104F104D5
:1005000019F7DDCFFF90EF90DF90CF90BF90AF90C5
:100510009F908F9008952FB7F89460915F0270912B
:10052000600280916102909162022FBF0895FC01E8
:100530008081918189130C94B50108958EBD0000CE
:100540000DB407FEFDCF8EB50895009769F0FC014C
:1005500001900020E9F73197AF01481B590BBC010E
:1005600089E692E00C94950080E090E008958F92E7
:100570009F92AF92BF92CF92DF92EF92FF920F9332
:100580001F93CF93DF93CDB7DEB7A1970FB6F89443
:10059000DEBF0FBECDBF6C01990FEE08FF08F7FE5E
:1005A00031C0E0916902F0916A020190F081E02D82
:1005B0006DE289E692E009958C0122273327A90193
:1005C0002C193D094E095F0919A2CE0181967C01C3
:1005D0009AE0892E912CA12CB12CCA01B901A50158
:1005E00094010E94190C605DF70162937F0121154F
:1005F00031054105510589F7CF010E94A502080F79
:10060000191F1EC0A701960119A28E010F5D1F4F71
:100610008AE0C82ED12CE12CF12CCA01B901A70126
:1006200096010E94190C605DF80162938F012115FB
:1006300031054105510589F7CF010E94A5028C01C2
:1006400080E191E00E94A502800F911FA1960FB654
:10065000F894DEBF0FBECDBFDF91CF911F910F91F8
:10066000FF90EF90DF90CF90BF90AF909F908F90D2
:100670000895CF93DF93EC019CB59F7D9CBD9CB505
:10068000937F9CBD9CB59C7F9CBD9DB591609DBD9D
:1006900089810E94B5018A899B89DF91CF910C9451
:1006A000210261E00C94390360E00C9439031F933C
:1006B000CF93DF93EC010E94540381EE0E949E02CF
:1006C000182FCE010E945103812FDF91CF911F91EE
:1006D0000895EF92FF921F93CF93DF9300D0CDB791
:1006E000DEB77C014A8369830E9454036981862FA7
:1006F0008F7180620E949E02182F4A81842F0E946F
:100700009E02C7010E945103812F0F900F90DF912D
:10071000CF911F91FF90EF900895CF92DF92EF92CB
:10072000FF920F931F93CF93DF9300D0CDB7DEB727
:100730006C01FC011581012F133008F002E0F60175
:100740008681811102C0101B01C010E0C6016983BF
:100750007A830E94540380EA0E949E026981E62EF9
:100760007A81F72E015030F0F70181917F010E94CC
:100770009E02F8CF112329F080E00E949E021150C2
:10078000F9CFC6010E94510361E0C6010E949702A1
:10079000C6010E9454038FEF0E949E02182FC601CB
:1007A0000E9451031073A1F360E0C6010E949702FA
:1007B00040E767E0C6010E94690384FF05C0C601E7
:1007C0000E94570380E001C081E00F900F90DF91FD
:1007D000CF911F910F91FF90EF90DF90CF900895F0
:1007E000CF92DF92EF92FF920F931F93CF93DF93FD
:1007F00000D0CDB7DEB78C01FC019581923010F4AA
:10080000D92E02C082E0D82EF8018681811103C062
:10081000C92ECD1801C0C12CC80169837A830E94FA
:10082000540381E60E949E026981E62E7A81F72EAA
:10083000DA94FFEFDF1639F08FEF0E949E02F70186
:1008400081937F01F5CFCC2029F08FEF0E949E028B
:10085000CA94F9CFC8010E94510340E767E0C8017C
:100860000F900F90DF91CF911F910F91FF90EF901C
:10087000DF90CF900C946903CF92DF92EF92FF92BA
:100880000F931F93CF93DF9300D01F92CDB7DEB7A6
:100890007C01142F2A835B8369830E94540369813E
:1008A000862F8F7180620E949E02082FC12E5B816D
:1008B000D52E2A81120F1C1531F0F60181916F019E
:1008C0000E949E02F8CFC7010E945103802F0F9013
:1008D0000F900F90DF91CF911F910F91FF90EF90AC
:1008E000DF90CF900895EF92FF920F931F93CF93D5
:1008F000DF93CDB7DEB728970FB6F894DEBF0FBEF3
:10090000CDBF7C0109831A832B833C834D835E8397
:100910006F837887FC012485AE014F5F5F4F6AE0EB
:100920000E943C04F7012485AE014F5F5F4F60E1F8
:10093000C7010E943C04F701458161E1C7010E94A3
:10094000690328960FB6F894DEBF0FBECDBFDF91C6
:10095000CF911F910F91FF90EF900895EF92FF922A
:100960001F93CF93DF931F92CDB7DEB77C016983CE
:100970000E9454036981862F8F710E949E028FEF1F
:100980000E949E02182FC7010E945103812F0F90D1
:10099000DF91CF911F91FF90EF900895EF92FF921A
:1009A0000F931F93CF93DF93CDB7DEB728970FB682
:1009B000F894DEBF0FBECDBF7C0109831A832B8361
:1009C0003C834D835E836F837887E7EAF0E0649130
:1009D000FC012485AE014F5F5F4F0E943C04E1EAB9
:1009E000F0E06491F7014581C7010E94690362E06C
:1009F000C7010E94AE04EBE9F0E0E49141E050E071
:100A000001C0440FEA95EAF7482B62E0C7010E9453
:100A1000690328960FB6F894DEBF0FBECDBFDF91F5
:100A2000CF911F910F91FF90EF90089567E10E9481
:100A3000AE04809581700895CF93DF93EC0160E060
:100A40000E94AE0481FD0EC0482F426060E0CE01DE
:100A50000E94690365E070E080E090E0DF91CF9153
:100A60000C945102DF91CF910895CF93DF93EC0165
:100A700060E00E9497028E859F850E9421026DE1B1
:100A8000CE010E94AE0481FF07C08E859F850E9423
:100A90002102CE010E94570360E0CE010E94AE0405
:100AA000482F4E7F60E0CE010E94690362E0CE01D4
:100AB0000E94AE04EAE9F0E0E49141E050E001C0B8
:100AC000440FEA95EAF7482B62E0CE01DF91CF911F
:100AD0000C946903CF93DF93EC010E941C0560E046
:100AE000CE010E94AE04482F416060E0CE010E941A
:100AF000690340E767E0CE010E94690361E0CE012F
:100B00000E9497028F81882349F02C85AE01495FAE
:100B10005F4F6AE0CE010E943C0414C062E0CE0147
:100B20000E94AE04EAE9F0E0E49121E030E001C087
:100B3000220FEA95EAF72095422F482362E0CE0182
:100B40000E9469036DE1CE010E94AE0481FF05C0E1
:100B5000CE01DF91CF910C945703DF91CF9108958F
:100B60000E94410CE9E6F2E0A089B18982E08C9311
:100B7000A485B5851C92A685B7858FEC8C93108EC5
:100B8000A489B58986E08C93A289B3898C91806110
:100B90008C93A289B3898C9188608C93A289B38944
:100BA0008C9180688C930288F389E02D80818F7D01
:100BB00080830895CF93DF930E94A502EC0180E12A
:100BC00091E00E94A5028C0F9D1FDF91CF910895A7
:100BD0001F920F920FB60F9211242F933F934F93B2
:100BE0005F936F937F938F939F93AF93BF93EF9395
:100BF000FF9389E692E00E94F800FF91EF91BF9188
:100C0000AF919F918F917F916F915F914F913F91A4
:100C10002F910F900FBE0F901F9018951F920F925B
:100C20000FB60F9211242F938F939F93EF93FF93FF
:100C3000E0917902F0917A028081E0917F02F09157
:100C4000800282FD12C09081809182028F5F8F733B
:100C500020918302821751F0E0918202F0E0E7597F
:100C6000FD4F958F8093820201C08081FF91EF91AB
:100C70009F918F912F910F900FBE0F901F901895FD
:100C80001F920F920FB60F9211242F933F938F93C1
:100C90009F93AF93BF9380915F0290916002A09168
:100CA0006102B091620230915E0223E0230F2D3782
:100CB00020F40196A11DB11D05C026E8230F029660
:100CC000A11DB11D20935E0280935F02909360028C
:100CD000A0936102B09362028091630290916402DA
:100CE000A0916502B09166020196A11DB11D80938D
:100CF000630290936402A0936502B0936602BF9171
:100D0000AF919F918F913F912F910F900FBE0F90B8
:100D10001F901895CF93DF9300D000D0CDB7DEB7EA
:100D2000789484B5826084BD84B5816084BD85B5C6
:100D3000826085BD85B5816085BD80916E008160D2
:100D400080936E0010928100809181008260809378
:100D5000810080918100816080938100809180007A
:100D60008160809380008091B10084608093B100A5
:100D70008091B00081608093B00080917A0084609F
:100D800080937A0080917A00826080937A008091CB
:100D90007A00816080937A0080917A0080688093E5
:100DA0007A001092C1000E94B20583E191E00E9496
:100DB000DA058091450390914603891719F061E0A7
:100DC0000E94E5018091460390914503981719F020
:100DD00061E00E94E5011FB7F894809167028111DC
:100DE00027C0E6EBF0E08491EAECF0E09491E82F84
:100DF000F0E0EE0FFF1FE057FF4FA591B491EC918B
:100E0000E92321F461E08AE00E94B50161E08AE013
:100E10000E94E5018CB580618CBD8CB580648CBD71
:100E200061E08DE00E94E50161E08BE00E94E50158
:100E3000809167028F5F809367021FBF60E085E447
:100E400093E00E94970261E085E493E00E943903F9
:100E500065E070E080E090E00E9451024CE060E0CC
:100E600085E493E00E9469034FE564E085E493E044
:100E70000E94690366E085E493E00E94AE04877DEA
:100E8000182F10628BE990E0A0E0B0E0809353034C
:100E900090935403A0935503B0935603412F66E0FB
:100EA00085E493E00E94690366E085E493E00E9494
:100EB000AE04811709F41BC266E085E493E00E944A
:100EC000AE0466E085E493E00E94AE0445E550E0A0
:100ED00060E070E0409353035093540360935503D4
:100EE00070935603482F477D66E085E493E00E94A7
:100EF000690366E085E493E00E94AE0485E493E034
:100F00000E94540380E50E949E0283E70E949E0295
:100F100085E493E00E94510340E06DE185E493E0B5
:100F20000E94690340E06CE185E493E00E9469035C
:100F300040E767E085E493E00E9469034CE465E0E4
:100F400085E493E00E94690385E493E00E945403E2
:100F500082EE0E949E0285E493E00E94510385E4A4
:100F600093E00E94570385E493E00E941C0560E033
:100F700085E493E00E94AE04482F4E7F60E085E454
:100F800093E00E94690368EC70E080E090E00E94CA
:100F9000510262E0809138030E94E50180E398EFFE
:100FA000AFEFBFEF80933C0390933D03A0933E03CC
:100FB000B0933F0360E082E00E94E50160E083E0DF
:100FC0000E94E50160E084E00E94E50160E085E0C8
:100FD0000E94E50161E087E00E94E50161E088E0B0
:100FE0000E94E50161E088E00E94B501809125033F
:100FF000909126038932934209F0BAC086E0E82E28
:1010000083E0F82EF701C588D6881A82198284E118
:1010100092E00E94DA058CE191E00E94DA0580916D
:10102000190390911A030E943505F7011689058965
:10103000712F770F770B272F372F472F572F672FBA
:101040008091190390911A030E947304F701858916
:1010500096899A838983BE016F5F7F4F80911903C0
:1010600090911A030E948D03811103C08DE291E0DB
:1010700072C068EC70E080E090E00E94510265E28E
:1010800073E08091190390911A030E948D038823C5
:1010900069F31A821982F701A588B6881091260390
:1010A00000912503712F770F770B272F372F472FAD
:1010B000572F672F8091190390911A030E94CE0435
:1010C0008091190390911A030E946A050E948B0275
:1010D0008B0108511C4F2801012E000C660877086F
:1010E00067E18091190390911A030E94AE0480FD7C
:1010F00002C18091190390911A030E94160588235A
:10110000E9F0BE016F5F7F4F8091190390911A0340
:101110000E94F00389819A818A159B0561F486E318
:1011200091E00E94DA058BE392E00E94DA05C601A5
:101130000E94B70212C08EE491E00DC00E948B02A3
:10114000012E000C220B330B06171707280739074F
:1011500020F48FE791E00E94DA05F2E0EF0EF11C37
:1011600020E1E21623E0F20609F04CCFF12C89C011
:1011700089EA91E00E94DA051C821B821A82198298
:101180001091260300912503712F770F770B272FDE
:10119000372F472F572F672F8091190390911A03EC
:1011A0000E94CE048091190390911A030E946A054F
:1011B000F12C0E948B028B01005D1A482801012E40
:1011C000000C660877088091190390911A030E9419
:1011D0001605811107C00E948B02641575058605EE
:1011E000970588F38091190390911A030E941605C0
:1011F000882309F489C08EEB91E00E94DA05BE01D4
:101200006D5F7F4F8091190390911A030E94F00344
:101210000E948B028B01005D1A482801012E000CF0
:10122000660877088091190390911A030E941605A9
:10123000882309F47AC08091190390911A030E94BF
:101240001605882309F47AC0BE016F5F7F4F809135
:10125000190390911A030E94F0032B813C81809125
:101260002503909126032817390709F478C02B81AC
:101270003C8180912503909126032817390709F0B6
:1012800098CFF092680260E088E00E94B50185EE98
:1012900091E00E94A5028091680290E00E94B7024E
:1012A00083EF91E00E94DA0589E092E00E94A502B6
:1012B00080913103909132030E94B70286E192E05F
:1012C0000E94DA0507E213E0F801819191918F0104
:1012D0000E94B702F3E001331F07B1F782E292E008
:1012E0000E94DA0587E292E00E94DA05FFCF81E0F2
:1012F00080934903E1CD0E948B0264157505860534
:10130000970508F4EDCEF5CE0E948B02012E000C5D
:10131000220B330B061717072807390708F078CF79
:101320008DE291E00E94DA0573CF0E948B02641572
:1013300075058605970508F475CF7DCF0E948B0251
:10134000012E000C220B330B06171707280739074D
:1013500008F083CF8DE291E00E94DA057ECF809184
:10136000190390911A030E94350510911C030091F6
:101370001B03712F770F770B272F372F472F572FEF
:10138000672F8091190390911A030E94730480EDD6
:1013900091E00E94DA0565E273E080911903909173
:1013A0001A030E948D03811105C08DE291E00E9415
:1013B000DA055DCFFF24F3945ACFCF93DF93282F24
:1013C00030E0F901E458FF4F8491F901E054FF4FF8
:1013D000D491F901E455FF4FC491CC2391F08111D0
:1013E0000E948C01EC2FF0E0EE0FFF1FEE58FF4F34
:1013F000A591B491EC91ED2381E090E021F480E09F
:1014000002C080E090E0DF91CF9108958F929F928B
:10141000AF92BF92CF92DF92EF92FF920F931F9302
:10142000CF93DF9310926C0210926B0288EE93E0E0
:10143000A0E0B0E080936D0290936E02A0936F02E3
:10144000B093700284E091E090936A028093690205
:1014500085EC90E0909376028093750284EC90E0A6
:10146000909378028093770280EC90E090937A02D8
:101470008093790281EC90E090937C0280937B02D0
:1014800082EC90E090937E0280937D0286EC90E067
:101490009093800280937F021092820210928302C6
:1014A000109284021092850289E0809345038AE0BD
:1014B000809346031092490380E280934A0310927E
:1014C0004B0385E08093510385E090E0A0E0B0E01D
:1014D0008093570390935803A0935903B0935A03F2
:1014E00010924C0386E0809338038BE0809339039D
:1014F000E6ECF0E0E491E0933A03E2EBF0E0E49113
:10150000E0933B0380E89EE3A0E0B0E080934003DB
:1015100090934103A0934203B09343030E94B2050A
:1015200082E00E94DD094C0183E00E94DD09D1E0E8
:10153000892B09F4D0E084E00E94DD09C1E0892B09
:1015400009F4C0E088E592E00E94DA05892839F4C0
:10155000D1110CC0CC23A1F0CDE2D3E21CC0D1113B
:101560000AC0CC2381F0CEE2D3E215C0CC2371F0C7
:10157000CFE2D3E210C0CC2361F0C0E3D3E20BC0D2
:10158000C9E2D3E208C0CAE2D3E205C0CBE2D3E2AB
:1015900002C0CCE2D3E2D0933203C09331038BE597
:1015A00092E00E94DA05C93283E2D80799F0CE01B1
:1015B0008A529342039788F0CD3283E2D80781F0B4
:1015C000CE3283E2D80779F0CF32D34279F08FE27E
:1015D00093E20EC08AE293E20BC089E293E208C074
:1015E0008CE293E205C08DE293E202C08EE293E2C8
:1015F0009093280380932703C0913103D091320345
:101600008BE592E00E94DA05CE0189529342823046
:101610009105E0F002970297A0F0CD3283E2D8075F
:10162000A9F0CE3283E2D807B1F0CF3283E2D807F7
:10163000B9F0C033D342C1F4DEE2ED2ED3E2FD2E89
:1016400013C0CAE2EC2EC3E2FC2E0EC0BBE2EB2EAE
:10165000B3E2FB2E09C0ACE2EA2EA3E2FA2E04C0EC
:10166000FDE2EF2EF3E2FF2EF0922A03E09229032F
:10167000C0913103D09132038BE592E00E94DA05EC
:10168000CE01895293420397E0F0CC3283E2D8072F
:10169000A9F0CD3283E2D80771F0CE3283E2D807C9
:1016A00069F0CF3283E2D80761F0C033D34259F4F6
:1016B0000DE213E208C00AE213E205C00BE213E2F6
:1016C00002C00CE213E210932C0300932B03C09191
:1016D0003103D09132038BE592E00E94DA05CE010E
:1016E000895293420497A0F0CD3283E2D807A9F043
:1016F000CE3283E2D807B1F0CF3283E2D807B9F017
:10170000C033D342C1F4ECE2AE2EE3E2BE2E13C0EE
:101710007DE2A72E73E2B72E0EC06EE2A62E63E224
:10172000B62E09C05AE2A52E53E2B52E04C04BE2F4
:10173000A42E43E2B42EB0922E03A0922D03C091AA
:101740003103D09132038BE592E00E94DA05CE019D
:10175000895293428430910578F00497029788F07B
:10176000CF3283E2D80791F0C033D34299F43BE201
:10177000C32E33E2D32E0EC02EE2C22E23E2D22E8F
:1017800009C09FE2C92E93E2D92E04C08AE2C82E76
:1017900083E2D82ED0923003C0922F038091310380
:1017A0009091320325E433E030931A032093190318
:1017B0009093260380932503909318038093170337
:1017C000809127039091280390931C0380931B031F
:1017D0008091290390912A0390931E0380931D0307
:1017E00080912B0390912C039093200380931F03EF
:1017F00080912D0390912E039093220380932103D7
:10180000D0922403C092230310925C0310925B03D6
:1018100010925E0310925D03DF91CF911F910F91A3
:10182000FF90EF90DF90CF90BF90AF909F908F9000
:101830000895A1E21A2EAA1BBB1BFD010DC0AA1F11
:10184000BB1FEE1FFF1FA217B307E407F50720F029
:10185000A21BB30BE40BF50B661F771F881F991FA4
:101860001A9469F760957095809590959B01AC01ED
:10187000BD01CF010895EE0FFF1F0590F491E02DFB
:10188000099481E090E0F8940C94460CF894FFCF12
:101890000000000019019500E200C000D4006001C2
:1018A0000D0A00696E2073657475700053656E646F
:1018B000696E672070696E67732E2E2E0045525236
:1018C0004F5221212100526563656976656420616C
:1018D000636B6E6F776C656467652E2E2E004552C4
:1018E000524F5221212120496E636F7272656374D9
:1018F0002061636B6E6F776C656467656D656E7490
:101900002070696E6720726563696576656400455D
:1019100052524F52212121204E6F2061636B6E6F16
:10192000776C656467656D656E742070696E67209D
:1019300072656369657665640057616974696E678D
:1019400020666F722070696E67732E2E2E005265AE
:1019500063656976696E6720446174612E2E2E007E
:1019600053656E64696E672050696E6720626163BB
:101970006B2E2E2E0050696E672073746174757320
:101980003A20002F2F2F2F2F2F2F2F2F2F2F2F2F9A
:101990002F2F2F2F2F2F2F2F004D7920416464726E
:1019A0006573733A2000526561642052616E676509
:1019B0003A0056565656005F5F5F5F5F5F5F5F5F3E
:1019C0005F5F5F5F5F5F5F5F5F5F0053756363656E
:1019D000737366756C20636F6E74616374207769CE
:0E19E0007468206875622000303100303200DB
:00000001FF
