:100000000C9406010C942E010C942E010C942E01DC
:100010000C942E010C942E010C942E010C942E01A4
:100020000C942E010C942E010C942E010C942E0194
:100030000C942E010C942E010C942E010C942E0184
:100040000C945F030C942E010C947B020C945502CB
:100050000C942E010C942E010C942E010C942E0164
:100060000C942E010C942E010000000024002700A7
:100070002A0004040404040404040202020202022A
:10008000030303030303010204081020408001025C
:100090000408102001020408102011121314151670
:1000A0000A0B0C0D0E0F00000000250028002B008D
:1000B00000000000230026002900000000080002C4
:1000C0000100000304070000000000000000000120
:1000D000020304054E414E494E495459494E46CDFE
:1000E000CCCC3D0AD7233C17B7D13877CC2B3295EF
:1000F00095E6241FB14F0A000020410000C84200CD
:10010000401C4620BCBE4CCA1B0E5AAEC59D740096
:10011000407A10F35A00A0724E18090010A5D4E8D6
:100120000000E87648170000E40B54020000CA9A69
:100130003B000000E1F505000080969800000040BB
:10014000420F000000A08601000000102700000000
:1001500000E803000000006400000000000A000046
:100160000000000100000000002C76D888DC674FFA
:100170000823DFC1DFAE59E1B1B796E5E3E453C62A
:100180003AE651997696E8E6C28426EB898C9B6222
:10019000ED407C6FFCEFBC9C9F40F2BAA56FA5F4CC
:1001A00090055A2AF75C936B6CF9676DC11BFCE0F4
:1001B000E40D47FEF520E6B500D0ED902E03009447
:1001C0003577050080841E080000204E0A000000DC
:1001D000C80C333333330F986E12831141EF8D21E6
:1001E00014893BE65516CFFEE6DB18D1844B381B4D
:1001F000F77C1D901DA4BBE424203284725E228112
:1002000000C9F124ECA1E53D2700CD0F11241FBE4C
:10021000CFEFD8E0DEBFCDBF13E0A0E0B1E0ECE867
:10022000F5E302C005900D92AA31B107D9F724E099
:10023000AAE1B3E001C01D92A432B207E1F711E0D8
:10024000C6E0D1E004C02197FE010E943112C53002
:10025000D107C9F70E9480080C94C41A0C940000BE
:10026000FC01918D828D981761F0828DDF01A80FBE
:10027000B11D5D968C91928D9F5F9F73928F90E0E0
:1002800008958FEF9FEF0895FC01918D828D98174F
:1002900031F0828DE80FF11D858D90E008958FEF8C
:1002A0009FEF0895FC01918D228D892F90E0805C55
:1002B0009F4F821B91098F73992708958DE193E0D9
:1002C0000E94520121E0892B09F420E0822F089539
:1002D000FC01848DDF01A80FB11DA35ABF4F2C91E3
:1002E000848D90E001968F739927848FA689B789B2
:1002F0002C93A089B1898C9180648C93938D848D8B
:10030000981306C00288F389E02D80818F7D808359
:100310000895EF92FF920F931F93CF93DF93EC0119
:1003200081E0888F9B8D8C8D981305C0E889F989B1
:10033000808185FD24C0F62E0B8D10E00F5F1F4FCE
:100340000F731127E02E8C8DE8120CC00FB607FC3E
:10035000FACFE889F989808185FFF5CFCE010E9427
:100360006801F1CF8B8DFE01E80FF11DE35AFF4FBD
:10037000F0820B8FEA89FB898081806207C0EE8959
:10038000FF896083E889F98980818064808381E0C6
:1003900090E0DF91CF911F910F91FF90EF90089522
:1003A000CF93DF93EC01888D8823C9F0EA89FB891C
:1003B000808185FD05C0A889B9898C9186FD0FC013
:1003C0000FB607FCF5CF808185FFF2CFA889B989E8
:1003D0008C9185FFEDCFCE010E946801E7CFDF91C0
:1003E000CF91089580E090E0892B29F00E945E0172
:1003F00081110C9400000895833081F028F481303D
:1004000099F08230A1F008958730A9F08830B9F0D2
:100410008430D1F4809180008F7D03C08091800072
:100420008F7780938000089584B58F7702C084B55C
:100430008F7D84BD08958091B0008F7703C0809137
:10044000B0008F7D8093B00008958230910538F020
:10045000880F991F880F991F05970197F1F7089545
:100460003FB7F89480911A0490911B04A0911C044A
:10047000B0911D0426B5A89B05C02F3F19F0019629
:10048000A11DB11D3FBFBA2FA92F982F8827820F1A
:10049000911DA11DB11DBC01CD0142E0660F771F6A
:1004A000881F991F4A95D1F708951F920F920FB692
:1004B0000F9211242F933F934F935F936F937F93EA
:1004C0008F939F93AF93BF93EF93FF938DE193E04F
:1004D0000E946801FF91EF91BF91AF919F918F9121
:1004E0007F916F915F914F913F912F910F900FBE30
:1004F0000F901F9018951F920F920FB60F92112414
:100500002F938F939F93EF93FF93E0912D03F0919F
:100510002E038081E0913303F091340382FD12C0F9
:100520009081809136038F5F8F73209137038217FC
:1005300051F0E0913603F0E0E35EFC4F958F80933D
:10054000360301C08081FF91EF919F918F912F9190
:100550000F900FBE0F901F9018951F93CF93DF93AE
:10056000282F30E0F901E654FF4F8491F901EA5752
:10057000FF4FD491F901EE58FF4FC491CC23C9F03D
:10058000162F81110E94FC01EC2FF0E0EE0FFF1FEF
:10059000EA55FF4FA591B4918FB7F894111105C09A
:1005A0009C91ED2FE095E92302C0EC91ED2BEC93AB
:1005B0008FBFDF91CF911F910895CF93DF9390E08C
:1005C000FC01EA57FF4F2491FC01EE58FF4F849144
:1005D000882361F190E0880F991FFC01E859FF4FD3
:1005E000C591D491FC01EA55FF4FA591B4916111D9
:1005F00009C09FB7F8948881209582238883EC9165
:100600002E230BC0623061F49FB7F8943881822F9B
:10061000809583238883EC912E2B2C939FBF06C05B
:100620008FB7F894E8812E2B28838FBFDF91CF916D
:1006300008958F929F92AF92BF92CF92DF92EF92E6
:10064000FF926B017C010E9430024B015C01C114DE
:10065000D104E104F104F1F00E943002DC01CB018D
:1006600088199909AA09BB09883E9340A105B105DB
:1006700070F321E0C21AD108E108F10888EE880E73
:1006800083E0981EA11CB11CC114D104E104F10443
:1006900019F7DDCFFF90EF90DF90CF90BF90AF9034
:1006A0009F908F9008952FB7F894609116047091E1
:1006B000170480911804909119042FBF08951F9278
:1006C0000F920FB60F9211242F933F938F939F9306
:1006D000AF93BF938091160490911704A0911804D2
:1006E000B09119043091150423E0230F2D3720F425
:1006F0000196A11DB11D05C026E8230F0296A11D7C
:10070000B11D209315048093160490931704A093B1
:100710001804B093190480911A0490911B04A091BD
:100720001C04B0911D040196A11DB11D80931A04F3
:1007300090931B04A0931C04B0931D04BF91AF9130
:100740009F918F913F912F910F900FBE0F901F900F
:100750001895FC018081918189130C94AD02089554
:10076000CF93DF93EC019CB59F7D9CBD9CB5937F9F
:100770009CBD9CB59C7F9CBD9DB591609DBD8981B4
:100780000E94AD028A899B89DF91CF910C9425024A
:1007900061E00C94B00360E00C94B0038EBD0000E7
:1007A0000DB407FEFDCF8EB50895EF92FF921F9313
:1007B000CF93DF931F92CDB7DEB77C0169830E9490
:1007C000CB036981862F0E94CE03182FC7010E9498
:1007D000C803812F0F90DF91CF911F91FF90EF9071
:1007E000089561EE0C94D503EF92FF921F93CF937F
:1007F000DF9300D0CDB7DEB77C014A8369830E94C6
:10080000CB036981862F8F7180620E94CE03182FDF
:100810004A81842F0E94CE03C7010E94C803812F02
:100820000F900F90DF91CF911F91FF90EF9008955F
:10083000CF92DF92EF92FF920F931F93CF93DF93AC
:1008400000D0CDB7DEB78C01FC019581C42E941782
:1008500008F4C92EF8018681811103C0D92EDC1855
:1008600001C0D12CC80169837A830E94CB0381E641
:100870000E94CE036981E62E7A81F72EC60ECE1431
:1008800039F08FEF0E94CE03F70181937F01F7CFFC
:10089000DD2029F08FEF0E94CE03DA94F9CFC80152
:1008A0000E94C80340E767E0C8010F900F90DF91F6
:1008B000CF911F910F91FF90EF90DF90CF900C940C
:1008C000F403CF92DF92EF92FF920F931F93CF9397
:1008D000DF9300D01F92CDB7DEB77C01142F2A839F
:1008E0005B8369830E94CB036981862F8F7180624D
:1008F0000E94CE03082FC12E5B81D52E2A81120FB4
:100900001C1531F0F60181916F010E94CE03F8CFE2
:10091000C7010E94C803802F0F900F900F90DF91A6
:10092000CF911F910F91FF90EF90DF90CF9008959E
:10093000EF92FF920F931F93CF93DF93CDB7DEB764
:1009400028970FB6F894DEBF0FBECDBF7C01098398
:100950001A832B833C834D835E836F837887FC01EE
:100960002485AE014F5F5F4F6AE00E946104F7018A
:100970002485AE014F5F5F4F60E1C7010E946104B3
:10098000F701458161E1C7010E94F40328960FB683
:10099000F894DEBF0FBECDBFDF91CF911F910F91B5
:1009A000FF90EF900895EF92FF921F93CF93DF9304
:1009B0001F92CDB7DEB77C0169830E94CB036981AA
:1009C000862F8F710E94CE038FEF0E94CE03182FC7
:1009D000C7010E94C803812F0F90DF91CF911F9113
:1009E000FF90EF900895AF92BF92DF92EF92FF9247
:1009F0000F931F93CF93DF93CDB7DEB728970FB632
:100A0000F894DEBF0FBECDBF5C01D62EE982FA821C
:100A10000B831C832D833E834F83588761110AC04B
:100A2000FC01448550E0BE016F5F7F4F07960E9436
:100A3000D91407C0F6E0F61708F435C081E0681352
:100A400008C0ED2DF0E0E056FF4F6491F5012485DC
:100A500006C0E62FF0E0E056FF4F649121E0AE01C2
:100A60004F5F5F4FC5010E9461040D2D10E0F8013A
:100A7000E656FF4F6491F5014581C5010E94F403DC
:100A800062E0C5010E94D304F801E253FF4FE491F4
:100A900041E050E001C0440FEA95EAF7482B62E0DC
:100AA000C5010E94F40328960FB6F894DEBF0FBE6E
:100AB000CDBFDF91CF911F910F91FF90EF90DF900D
:100AC000BF90AF90089567E10E94D3048095817034
:100AD0000895CF93DF93EC0167E1CE010E94D30428
:100AE00084FD14C06FEFCE010E94D50384FFF4CFC4
:100AF00040E167E0CE010E94F40360E0CE010E9475
:100B0000A903CE010E94F10380E005C060E0CE01A0
:100B10000E94A90381E0DF91CF910895CF93DF93E5
:100B2000EC0160E00E94D30481FD0EC0482F4260BA
:100B300060E0CE010E94F40365E070E080E090E0A8
:100B4000DF91CF910C941903DF91CF910895CF934A
:100B5000DF93EC0160E00E94A9038E859F850E94CF
:100B600025026DE1CE010E94D30481FF07C08E856E
:100B70009F850E942502CE010E94F10360E0CE0114
:100B80000E94D304482F4E7F60E0CE010E94F40300
:100B900062E0CE010E94D304EEECF0E0E49141E08B
:100BA00050E001C0440FEA95EAF7482B62E0CE011D
:100BB000DF91CF910C94F403CF93DF93EC010E946B
:100BC0008E0560E0CE010E94D304482F416060E0B2
:100BD000CE010E94F40340E767E0CE010E94F403D7
:100BE00061E0CE010E94A9038F81882349F02C8502
:100BF000AE01495F5F4F6AE0CE010E94610403C00D
:100C0000CE010E94C4076DE1CE010E94D30481FF92
:100C100005C0CE01DF91CF910C94F103DF91CF910C
:100C200008950895CF92DF92EF92FF920F931F9352
:100C3000CF93DF936C017A018B01C0E0D0E0CE1539
:100C4000DF0589F0D8016D918D01D601ED91FC9100
:100C50000190F081E02DC6010995892B11F47E01E8
:100C600002C02196ECCFC701DF91CF911F910F9168
:100C7000FF90EF90DF90CF9008950E94D4140F93CF
:100C80001F93CF93DF93EC0188819981009729F01E
:100C90002A813B812617370788F48B016F5F7F4FCE
:100CA0000E940A14009761F0998388831B830A834A
:100CB0002C813D81232B11F4FC01108281E001C0C5
:100CC00080E0DF91CF911F910F910895EF92FF92F5
:100CD0000F931F93CF93DF93EC017B018A01BA013D
:100CE0000E943F062881398181110DC021153105EF
:100CF00019F0C9010E947213198218821D821C8288
:100D00001B821A8206C01D830C83B701C9010E9491
:100D1000E214CE01DF91CF911F910F91FF90EF90E0
:100D20000895EDE1F3E0A089B18982E08C93A48578
:100D3000B5851C92A685B7858FEC8C93108EA489FF
:100D4000B58986E08C93A289B3898C9180618C935C
:100D5000A289B3898C9188608C93A289B3898C9184
:100D600080688C930288F389E02D80818F7D808359
:100D70000895009769F0FC0101900020E9F7319790
:100D8000AF01481B590BBC018DE193E00C94120696
:100D900080E090E00895CF93DF930E94B906EC01C4
:100DA0008EE992E00E94B9068C0F9D1FDF91CF91D2
:100DB00008958F929F92AF92BF920F931F93CF93FC
:100DC000DF93CDB7DEB7A1970FB6F894DEBF0FBEA5
:100DD000CDBF19A2423008F44AE08E010F5D1F4FCB
:100DE000842E912CA12CB12CA50194010E940F12EC
:100DF000E62FB901CA0101501109EA3014F4E05D8F
:100E000001C0E95CD801EC93232B242B252B61F73F
:100E1000C8010E94B906A1960FB6F894DEBF0FBEB6
:100E2000CDBFDF91CF911F910F91BF90AF909F9059
:100E30008F900895CF92DF92EF92FF92CF93DF933E
:100E40006B017C01E0911D03F0911E030190F08184
:100E5000E02D6DE28DE193E00995EC01662777279F
:100E6000CB016C197D098E099F094AE00E94D906C1
:100E70008C0F9D1FDF91CF91FF90EF90DF90CF906F
:100E80000895CF93DF93BC01990F880B990B97FFBF
:100E900003C00E941A0703C04AE00E94D906EC0171
:100EA0008EE992E00E94B9068C0F9D1FDF91CF91D1
:100EB00008950C94B906BC01990F880B990B97FD06
:100EC0000C941A074AE00C94D906CF92DF92EF9265
:100ED000FF920F931F93CF93DF9300D0CDB7DEB770
:100EE0008C01FC019581D42E941708F4D92EF801B9
:100EF0008681811103C0C92ECD1801C0C12CC80143
:100F000069837A830E94CB0380EA0E94CE036981C1
:100F1000E62E7A81F72ED60EDE1431F0F70181919C
:100F20007F010E94CE03F8CFCC2029F080E00E9400
:100F3000CE03CA94F9CFC8010E94C80361E0C8017A
:100F40000E94A9036FEFC8010E94D5038073D1F3FB
:100F500060E0C8010E94A90340E767E0C8010E9461
:100F6000F40384FF05C0C8010E94F10380E001C0C2
:100F700081E00F900F90DF91CF911F910F91FF9023
:100F8000EF90DF90CF900895CF93DF93EC0162E074
:100F90000E94D304EEECF0E0E49121E030E001C0E7
:100FA000220FEA95EAF72095422F482362E0CE010E
:100FB000DF91CF910C94F403EF92FF920F931F9364
:100FC000CF93DF9300D0CDB7DEB78C0169831A824F
:100FD000FC01E480F580FFEFEF1AFF0AB7010E94E1
:100FE0003F06882381F0F801208131818481958139
:100FF000BE016F5F7F4F820F931F0E94E214F801C2
:10100000F582E48281E00F900F90DF91CF911F91E4
:101010000F91FF90EF900895CF93DF93EC0161154E
:10102000710559F0FB0101900020E9F73197AF01FC
:10103000461B570B0E9466060CC088819981009759
:1010400011F00E947213198218821D821C821B8269
:101050001A82CE01DF91CF9108950F931F93CF9302
:10106000DF938C01EB01FC01808191810097B1F04D
:10107000688179816115710579F0428153812C81F4
:101080003D814217530740F00E94E2148C819D81FC
:10109000F8019583848313C00E947213888199811B
:1010A000F801918380838A819B81938382838C81E1
:1010B0009D8195838483198218821B821A821D82E6
:1010C0001C82DF91CF911F910F910895FC018081C7
:1010D00091810C947213FC0111821082138212828E
:1010E000158214826115710551F0FB0101900020F9
:1010F000E9F73197AF01461B570B0C94660608952C
:10110000CF93DF93CDB7DEB7E9970FB6F894DEBF84
:101110000FBECDBF789484B5826084BD84B58160F4
:1011200084BD85B5826085BD85B5816085BD8091B2
:101130006E00816080936E0010928100809181002A
:101140008260809381008091810081608093810022
:10115000809180008160809380008091B1008460E4
:101160008093B1008091B00081608093B000809145
:101170007A00846080937A0080917A008260809304
:101180007A0080917A00816080937A0080917A0061
:10119000806880937A001092C1000E94910686E1D7
:1011A00091E00E94CB068091FB039091FC0389178C
:1011B00019F061E00E94DD028091FC039091FB0335
:1011C000981719F061E00E94DD021FB7F894809132
:1011D0001A03811127C0ECE7F0E08491E0E9F0E028
:1011E0009491E82FF0E0EE0FFF1FE859FF4FA59113
:1011F000B491EC91E92321F461E08AE00E94AD0210
:1012000061E08AE00E94DD028CB580618CBD8CB506
:1012100080648CBD61E08DE00E94DD0261E08BE0C6
:101220000E94DD0280911A038F5F80931A031FBF13
:1012300060E08BEF93E00E94A90361E08BEF93E005
:101240000E94B00365E070E080E090E00E94190326
:101250004CE060E08BEF93E00E94F4034FE564E024
:101260008BEF93E00E94F40366E08BEF93E00E9423
:10127000D304877D182F10628BE990E0A0E0B0E0E6
:101280008093090490930A04A0930B04B0930C0478
:10129000412F66E08BEF93E00E94F40366E08BEF52
:1012A00093E00E94D304811709F475C566E08BEFC3
:1012B00093E00E94D30466E08BEF93E00E94D30496
:1012C00045E550E060E070E04093090450930A0463
:1012D00060930B0470930C04482F477D66E08BEFFE
:1012E00093E00E94F40366E08BEF93E00E94D30446
:1012F0008BEF93E00E94CB0380E50E94CE0383E74F
:101300000E94CE038BEF93E00E94C80340E06DE1A2
:101310008BEF93E00E94F40340E06CE18BEF93E0ED
:101320000E94F40340E767E08BEF93E00E94F40330
:101330004CE465E08BEF93E00E94F40362EE8BEFE8
:1013400093E00E94D5038BEF93E00E94F1038BEFB3
:1013500093E00E948E0560E08BEF93E00E94D3043F
:10136000482F4E7F60E08BEF93E00E94F40368EC1F
:1013700070E080E090E00E94190362E08091EE034B
:101380000E94DD0280E398EFAFEFBFEF8093F2039E
:101390009093F303A093F403B093F50360E082E02D
:1013A0000E94DD0260E083E00E94DD0260E084E0F4
:1013B0000E94DD0260E085E00E94DD0261E087E0DE
:1013C0000E94DD0261E088E00E94DD0261E088E0C9
:1013D0000E94AD028091DB039091DC03893293423D
:1013E00009F0BAC03AEBC32E33E0D32EF60167887A
:1013F000708C1A82198285E792E00E94CB068FE1F9
:1014000091E00E94CB068091CD039091CE030E9483
:10141000A705F601108D0789712F770F770B272FFE
:10142000372F472F572F672F8091CD039091CE03F1
:101430000E949804F6018789908D9A83898342E0FF
:10144000BE016F5F7F4F8091CD039091CE030E94CC
:101450006507882389F068EC70E080E090E00E94E6
:10146000190342E06BED73E08091CD039091CE03C0
:101470000E94650781110EC009811A810E949106A0
:1014800085E792E00E94CB0680E391E00E94590735
:10149000C80143C01A821982F601A788B08CF09067
:1014A000DC03E090DB035F2D550F550B052F152F47
:1014B000252F352F452F61E08091CD039091CE03EC
:1014C0000E94F3048091CD039091CE030E94DC052D
:1014D0000E9453038B0108511C4F1801012E000C70
:1014E000440855088091CD039091CE030E94630576
:1014F000811155C40E945303621573058405950537
:1015000088F34DC40E94910685E792E00E94CB06C5
:101510008BE691E00E945907C5010E945B0783E4B6
:1015200092E00E94CB0661E087E00E94AD0268EE87
:1015300073E080E090E00E94190360E087E00E9481
:10154000AD02F2E0CF0ED11C24ECC21623E0D2068D
:1015500009F04CCFF12C8CC088ED91E00E94CB06B5
:101560001BA21AA21A821982F090DC03E090DB031E
:101570005F2D550F550B052F152F252F352F452F77
:1015800061E08091CD039091CE030E94F30480919D
:10159000CD039091CE030E94DC05F12C0E945303F1
:1015A0008B01005D1A482801012E000C660877089F
:1015B0008091CD039091CE030E946305811107C0F5
:1015C0000E945303641575058605970588F380917D
:1015D000CD039091CE030E946305882309F418C4BB
:1015E0008DEE91E00E94CB0642E0BE016E5D7F4F22
:1015F0008091CD039091CE030E9418040E94530362
:101600008B01005D1A482801012E000C660877083E
:101610008091CD039091CE030E946305882309F445
:101620001CC48091CD039091CE030E946305882352
:1016300009F41CC442E0BE016F5F7F4F8091CD036F
:101640009091CE030E9418042AA13BA18091DB0354
:101650009091DC032817390709F42DC42AA13BA176
:101660008091DB039091DC032817390709F096CFAE
:10167000F0921B0360E088E00E94AD0286E492E0F5
:101680000E94590780911B0390E00E94410784E566
:1016900092E00E94CB068AE692E00E945907809170
:1016A000E7039091E8030E94410787E792E00E94D8
:1016B000CB060DED13E0F801819191918F010E940D
:1016C0004107F3E0073E1F07B1F783E892E00E946D
:1016D000CB0688E892E00E94CB06CE0101966C0111
:1016E0009DE2292E28E7322E8091E7039091E803AE
:1016F0008932E3E29E0709F0C8C160ED77E080E03F
:1017000090E00E9419038091CD039091CE030E9436
:10171000A7050AE213E220E030E040E050E060E09C
:1017200070E08091CD039091CE030E94980461E017
:1017300088E00E94AD0242E06CE972E08091CD0346
:101740009091CE030E946507882379F160E088E0DC
:101750000E94AD028091CD039091CE030E94690555
:1017600081E1F60111928A95E9F760EA72E0CE0113
:1017700088960E946B08F090DC03E090DB035F2DFD
:10178000550F550B052F152F252F352F452F60E0B1
:101790008091CD039091CE030E94F3048091CD03FC
:1017A0009091CE030E94DC0525C00E94910685E73A
:1017B00092E00E94CB0680E391E00E9459078AE202
:1017C00093E20E945B0783E492E00E94CB0661E013
:1017D00087E00E94AD0268EE73E080E090E00E9436
:1017E000190360E087E00E94AD0260E088E00E949B
:1017F000AD027ACF8091CD039091CE030E94630514
:101800008823C1F34AE061E170E080E090E00E944B
:10181000D9068EE992E00E94B90641E1B6018091B5
:10182000CD039091CE030E941804B601CE01889694
:101830000E940C0860EA72E0CE0182960E946B085A
:1018400008A519A5B8018AEB93E00E94E2146CA5E3
:101850007DA580E090E020E030E08617970779F0E2
:101860000115110551F0F801E80FF91F40814D32C3
:1018700011F0483711F42F5F3F4F0196EECF233020
:10188000310509F06AC38AEBE82E83E0F82E870160
:101890000A5B1340F70161917F016D3229F0CE019F
:1018A00082960E94DC07F3CF8AA19BA10E940D15AE
:1018B0007C010F5F1F4F60EA72E0CE0182960E94AA
:1018C0000C08F801E654FC4F60810F5F1F4F6D322A
:1018D00029F0CE0182960E94DC07F3CF8AA19BA15A
:1018E0000E9409152B013C0160EA72E0CE0182964C
:1018F0000E940C0806541C4FF80161918F01683753
:1019000029F0CE0182960E94DC07F6CF8AA19BA126
:101910000E940D158C01CE0182960E94660880916E
:10192000CD039091CE030E94C407A3019201C3018D
:10193000B2010E94D812882319F081EA92E01AC0FD
:1019400053014201E894B7F82FEF3FEF4FE75FE70D
:10195000C501B4010E94D81281110FC02FEF3FEFD3
:101960004FE75FE7C501B4010E944C1918162CF42B
:1019700085EA92E00E94B9067BC02FEF3FEF4FE768
:101980005FE4C301B2010E94D31218161CF489EA65
:1019900092E0F0CF2FEF3FEF4FE75FECC301B201D2
:1019A0000E944C1987FDF3CF20E030E0A901C3016C
:1019B000B2010E944C1987FF0FC0E0911D03F09106
:1019C0001E030190F081E02D6DE28DE193E0099519
:1019D00077FA709477F870942AE037ED43EA5BE386
:1019E000C301B2010E9438124B015C010E94A41293
:1019F0002B013C010E9451199B01AC01C501B401AE
:101A00000E9437124B015C014AE0C301B2010E94FF
:101A1000D9068DEF91E00E94B90620E030E040E267
:101A200051E4C501B4010E94B2192B013C010E948E
:101A3000A4124B01A12CB12C4AE0C501B4010E94B3
:101A4000D906C501B4010E9451199B01AC01C30123
:101A5000B2010E94371220E030E040E251E40E94DF
:101A6000B2190E94A41280E090E04AE00E94D906D8
:101A70008EE992E00E94B906C8010E944107C701A1
:101A80000E944107CE01889683C18A32934209F0B1
:101A90002BCEF090DC03E090DB035F2D550F550B50
:101AA000052F152F252F352F452F60E08091CD0371
:101AB0009091CE030E94F3048091CD039091CE03C8
:101AC0000E94DC058DEA92E00E94CB068091CD0356
:101AD0009091CE030E9463058823C1F383EC92E0CA
:101AE0000E94CB0641E0B6018091CD039091CE03D8
:101AF0000E9418040091E7031091E80360EA72E085
:101B0000CE01C4960E946B08C80189529342873E59
:101B1000934030F06AEC72E0C6010E946B08D8C0B6
:101B200060EA72E0CE018E960E946B0860EA72E075
:101B3000CE0188960E946B081BA21AA21DA21CA2AD
:101B40001FA21EA24AE0B601C8010E942B15B601D1
:101B5000CE0182960E940C08BE016E5D7F4FCE01C1
:101B60008E960E942D08CE0182960E9466086AA970
:101B70007BA92EA53FA5EAEBF3E080E090E0861775
:101B8000970718F42115310529F410921C03ACE1D4
:101B9000B3E003C0D901A80FB91F4C91419301963E
:101BA0008430910561F72092BE031BA21AA21DA2E8
:101BB0001CA21FA21EA2860122E044E06AE979E984
:101BC00082E892E40E94E914BC01CE0182960E9450
:101BD0000C08BE016E5D7F4FCE018E960E942D08CF
:101BE000CE0182960E9466086AA97BA92EA53FA510
:101BF00080E090E08617970718F42115310529F445
:101C000010921C03ECE1F3E003C0F901E80FF91FA7
:101C10004081FC01E654FC4F4583019685309105D7
:101C200049F72092C4031BA21AA21DA21CA21FA244
:101C30001EA24AE0B60185E090E00E942B15B60195
:101C4000CE0182960E940C08BE016E5D7F4FCE01D0
:101C50008E960E942D08CE0182960E9466084AA99F
:101C60005BA92EA53FA580E090E08417950791F031
:101C70002115310529F410921C03ECE1F3E003C0B7
:101C8000F901E80FF91F6081FC01E654FC4F6387FE
:101C90000196EBCFFC01E654FC4F33866AEB73E010
:101CA000CE0188960E940C081A8219821C821B821F
:101CB0001E821D82BE01685D7F4FC6010E942D08F5
:101CC000CE0188960E946608CE018E960E94660814
:101CD000B601CE01C4960E942D08C6010E94660876
:101CE00061E088E00E94AD028091CD039091CE0327
:101CF0000E94A70509E213E220E030E040E050E056
:101D000060E070E08091CD039091CE030E94980432
:101D10006CA97DA941E18091CD039091CE030E94F1
:101D20006507882379F080ED92E00E94CB0660E0A1
:101D300088E00E94AD028091CD039091CE030E9475
:101D4000690524C00E94910685E792E00E94CB06B7
:101D500080E391E00E94590789E293E20E945B07C9
:101D600083E492E00E94CB0661E087E00E94AD022E
:101D700068EE73E080E090E00E94190360E087E085
:101D80000E94AD0260E088E00E94AD02CE01C496E0
:101D90000E946608A9CC81E08093FF0387CA8091E6
:101DA000CD039091CE030E9463058823E1F042E0C9
:101DB000BE016F5F7F4F8091CD039091CE030E9453
:101DC000180489819A818A159B0509F09BCB83E5CC
:101DD00091E00E94CB0685ED92E00E94CB06C30104
:101DE0000E944107AECB0E945303012E000C220B30
:101DF000330B061717072807390708F0A2CB0E94F4
:101E0000910685E792E00E94CB0685EA91E082CBBD
:101E10000E945303012E000C220B330B06171707E9
:101E20002807390708F0EACB0E94910685E792E07F
:101E30000E94CB068FEF91E00E94CB0661E087E025
:101E40000E94AD0268EE73E080E090E00E9419030A
:101E500060E087E00E94AD02D1CB0E94530364157D
:101E600075058605970508F4D3CBDBCB0E94530399
:101E7000012E000C220B330B061717072807390712
:101E800008F0E2CB0E94910685E792E00E94CB0623
:101E90008FEF91E00E94CB0661E087E00E94AD02E7
:101EA00068EE73E080E090E00E94190360E087E054
:101EB0000E94AD02C9CB8091CD039091CE030E94C8
:101EC000A7051091D2030091D103712F770F770BE3
:101ED000272F372F472F572F672F8091CD039091B2
:101EE000CE030E94980488E292E00E94CB0642E072
:101EF0006BED73E08091CD039091CE030E94650756
:101F0000811128C08DE392E00E94CB060091D1039D
:101F10001091D2030E94910685E792E00E94CB06C1
:101F200080E391E00E945907C8010E945B0783E4A7
:101F300092E00E94CB0661E087E00E94AD0268EE6D
:101F400073E080E090E00E94190360E087E00E9467
:101F5000AD0284CBFF24F39481CB0E94910685E7E8
:101F600092E00E94CB0682EF92E00E94CB0661E0F5
:101F700087E00E94AD0260ED77E080E090E00E9493
:101F8000190360E087E00E94AD02E12CF12C00E033
:101F900010E0412C512C3201BECC8F929F92AF9217
:101FA000BF92CF92DF92EF92FF920F931F93CF9346
:101FB000DF931092200310921F0388EE93E0A0E0BD
:101FC000B0E08093210390932203A0932303B09366
:101FD00024038AE091E090931E0380931D0385EC17
:101FE00090E090932A038093290384EC90E09093EF
:101FF0002C0380932B0380EC90E090932E0380932E
:102000002D0381EC90E09093300380932F0382ECBA
:1020100090E0909332038093310386EC90E09093AC
:1020200034038093330310923603109237031092D7
:1020300038031092390389E08093FB038AE0809390
:10204000FC031092FF0380E28093000410920104CD
:1020500085E08093070485E090E0A0E0B0E0809305
:102060000D0490930E04A0930F04B09310041092EB
:10207000020486E08093EE038BE08093EF03ECE8AC
:10208000F0E0E491E093F003E8E7F0E0E491E0931E
:10209000F10380E89EE3A0E0B0E08093F603909324
:1020A000F703A093F803B093F9030E94910682E02E
:1020B0000E94E6114C0183E00E94E611D1E0892BD9
:1020C00009F4D0E084E00E94E611C1E0892B09F414
:1020D000C0E084E193E00E94CB06892839F4D11155
:1020E0000CC0CC23A1F0CDE2D3E21CC0D1110AC0B8
:1020F000CC2381F0CEE2D3E215C0CC2371F0CFE245
:10210000D3E210C0CC2361F0C0E3D3E20BC0C9E23C
:10211000D3E208C0CAE2D3E205C0CBE2D3E202C0F8
:10212000CCE2D3E2D093E803C093E70387E193E0E6
:102130000E94CB06C93283E2D80799F0CE018A52B9
:102140009342039788F0CD3283E2D80781F0CE32F4
:1021500083E2D80779F0CF32D34279F08FE293E26D
:102160000EC08AE293E20BC089E293E208C08CE2DF
:1021700093E205C08DE293E202C08EE293E2909377
:10218000DE038093DD03C091E703D091E80387E18C
:1021900093E00E94CB06CE01895293428230910592
:1021A000E0F002970297A0F0CD3283E2D807A9F0C1
:1021B000CE3283E2D807B1F0CF3283E2D807B9F04C
:1021C000C033D342C1F4DEE2ED2ED3E2FD2E13C0C4
:1021D000CAE2EC2EC3E2FC2E0EC0BBE2EB2EB3E251
:1021E000FB2E09C0ACE2EA2EA3E2FA2E04C0FDE207
:1021F000EF2EF3E2FF2EF092E003E092DF03C091B6
:10220000E703D091E80387E193E00E94CB06CE017B
:10221000895293420397E0F0CC3283E2D807A9F0C9
:10222000CD3283E2D80771F0CE3283E2D80769F06D
:10223000CF3283E2D80761F0C033D34259F40DE2C4
:1022400013E208C00AE213E205C00BE213E202C087
:102250000CE213E21093E2030093E103C091E70361
:10226000D091E80387E193E00E94CB06CE0189522A
:1022700093420497A0F0CD3283E2D807A9F0CE3282
:1022800083E2D807B1F0CF3283E2D807B9F0C03388
:10229000D342C1F4ECE2AE2EE3E2BE2E13C07DE2E7
:1022A000A72E73E2B72E0EC06EE2A62E63E2B62E04
:1022B00009C05AE2A52E53E2B52E04C04BE2A42E6B
:1022C00043E2B42EB092E403A092E303C091E7038B
:1022D000D091E80387E193E00E94CB06CE018952BA
:1022E00093428430910578F00497029788F0CF32BA
:1022F00083E2D80791F0C033D34299F43BE2C32E76
:1023000033E2D32E0EC02EE2C22E23E2D22E09C01B
:102310009FE2C92E93E2D92E04C08AE2C82E83E23E
:10232000D82ED092E603C092E503109212041092C8
:10233000110410921404109213048091E7039091F9
:10234000E8032BEF33E03093CE032093CD0321E15C
:1023500034E03093D0032093CF039093DC03809339
:10236000DB039093CC038093CB038091DD039091AA
:10237000DE039093D2038093D1038091DF03909189
:10238000E0039093D4038093D3038091E103909171
:10239000E2039093D6038093D5038091E303909159
:1023A000E4039093D8038093D703D092DA03C092CA
:1023B000D903DF91CF911F910F91FF90EF90DF90A4
:1023C000CF90BF90AF909F908F900895CF93DF9361
:1023D000282F30E0F901E654FF4F8491F901EA57C4
:1023E000FF4FD491F901EE58FF4FC491CC2391F0E7
:1023F00081110E94FC01EC2FF0E0EE0FFF1FE05571
:10240000FF4FA591B491EC91ED2381E090E021F490
:1024100080E002C080E090E0DF91CF910895A1E2DA
:102420001A2EAA1BBB1BFD010DC0AA1FBB1FEE1F4E
:10243000FF1FA217B307E407F50720F0A21BB30B99
:10244000E40BF50B661F771F881F991F1A9469F715
:1024500060957095809590959B01AC01BD01CF0171
:102460000895EE0FFF1F0590F491E02D0994505848
:10247000BB27AA270E944F120C94391A0E942B1ACC
:1024800038F00E94321A20F039F49F3F19F426F4F4
:102490000C94281A0EF4E095E7FB0C94221AE92F0D
:1024A0000E944A1A58F3BA17620773078407950700
:1024B00020F079F4A6F50C946C1A0EF4E0950B2E2E
:1024C000BA2FA02D0B01B90190010C01CA01A00186
:1024D0001124FF27591B99F0593F50F4503E68F1E1
:1024E0001A16F040A22F232F342F4427585FF3CF22
:1024F000469537952795A795F0405395C9F77EF4F3
:102500001F16BA0B620B730B840BBAF09150A1F03B
:10251000FF0FBB1F661F771F881FC2F70EC0BA0FC1
:10252000621F731F841F48F4879577956795B79549
:10253000F7959E3F08F0B0CF9395880F08F0992744
:10254000EE0F9795879508950E94521A88F09F572D
:1025500098F0B92F9927B751B0F0E1F0660F771FC7
:10256000881F991F1AF0BA95C9F714C0B13091F0BD
:102570000E946C1AB1E008950C946C1A672F782FA2
:102580008827B85F39F0B93FCCF386957795679582
:10259000B395D9F73EF490958095709561957F4FEE
:1025A0008F4F9F4F08950E948E1908F48FEF089562
:1025B0000E948E19880B990B0895CF93DF93823078
:1025C000910510F482E090E0E0912004F091210464
:1025D00020E030E0C0E0D0E0309711F1408151813F
:1025E00048175907C0F04817590761F48281938151
:1025F000209719F09B838A832BC0909321048093AA
:10260000200426C02115310519F04217530718F48C
:102610009A01BE01DF01EF010280F381E02DDCCFE2
:102620002115310509F1281B390B2430310590F4AF
:1026300012968D919C9113976115710521F0FB0104
:102640009383828304C09093210480932004FD012E
:10265000329644C0FD01E20FF31F81939193225003
:1026600031092D933C933AC020911E0430911F04F0
:10267000232B41F4209102013091030130931F0478
:1026800020931E0420910001309101012115310594
:1026900041F42DB73EB74091040150910501241B30
:1026A000350BE0911E04F0911F04E217F307A0F42C
:1026B0002E1B3F0B2817390778F0AC014E5F5F4F98
:1026C0002417350748F04E0F5F1F50931F044093A7
:1026D0001E048193919302C0E0E0F0E0CF01DF910E
:1026E000CF9108950F931F93CF93DF93009709F431
:1026F0008CC0FC0132971382128200912004109149
:1027000021040115110581F420813181820F931F6D
:1027100020911E0430911F042817390779F5F09392
:102720001F04E0931E0471C0D80140E050E0AE17D2
:10273000BF0750F412962D913C911397AD012115CE
:10274000310509F1D901F3CF9D01DA0133832283E9
:1027500060817181860F971F8217930769F4EC01DE
:1027600028813981260F371F2E5F3F4F3183208309
:102770008A819B8193838283452B29F4F0932104E2
:10278000E093200442C01396FC93EE931297ED0160
:10279000499159919E01240F351FE217F30771F4F7
:1027A00080819181840F951F029611969C938E9340
:1027B0008281938113969C938E931297E0E0F0E0D0
:1027C000D80112968D919C911397009719F0F801FA
:1027D0008C01F6CF8D919C9198012E5F3F4F820F17
:1027E000931F20911E0430911F042817390769F4A4
:1027F000309729F4109221041092200402C0138211
:10280000128210931F0400931E04DF91CF911F9139
:102810000F910895A0E0B0E0E0E1F4E10C94821A99
:10282000EC01009721F4CB010E94DD12B8C0FC013D
:10283000E60FF71F9C0122503109E217F30708F455
:10284000ACC0D9010D911C91119706171707B0F074
:102850000530110508F49FC0C80104978617970733
:1028600008F499C002501109061B170B019311932C
:102870006D937C93CF010E9472138DC05B01A01AEF
:10288000B10A4C01800E911EA0912004B091210448
:1028900040E050E0E12CF12C109709F44AC0A81553
:1028A000B905D1F56D907C901197630182E0C80E57
:1028B000D11CCA14DB0480F1A3014A195B096A0127
:1028C00082E0C80ED11C1296BC9012971396AC9160
:1028D000B5E0CB16D10440F0B282A383518340838C
:1028E000D9016D937C930AC00E5F1F4FC301800F07
:1028F000911FF90191838083EB2DFA2FE114F104EC
:1029000031F0D7011396FC93EE93129744C0F093E5
:102910002104E09320043FC08D919C9111974817AA
:10292000590708F4AC017D0112960D90BC91A02DC1
:10293000B3CF80911E0490911F0488159905E1F48E
:1029400046175707C8F48091000190910101009744
:1029500041F48DB79EB74091040150910501841B4D
:10296000950BE817F907C8F4F0931F04E0931E04D1
:10297000F901718360830FC0CB010E94DD127C01DD
:10298000009759F0A801BE010E94D914CE010E94FF
:102990007213C70104C0CE0102C080E090E0CDB741
:1029A000DEB7EEE00C949E1A81E090E0F8940C946F
:1029B000C41AFB01DC0102C001900D92415050404D
:1029C000D8F70895FB01DC0101900D920020E1F79A
:1029D0000895EF920F931F93CF93DF93E80147FD84
:1029E00002C034E001C034E1E42F440FFF0BF7FFD5
:1029F00003C0F195E195F109E32E022F2E2FAE01D0
:102A00000E945815CE01DF91CF911F910F91EF9049
:102A10000895662777270C94E616FC0188279927E6
:102A2000E89421912032E9F3293010F02E30C8F3D8
:102A30002B3241F02D3239F4689404C00E943615CF
:102A4000820F911D219120532A30C0F31EF49095DE
:102A500081959F4F0895BB274A3031F4992322F482
:102A6000BDE2909581959F4F0C943F157AE0979F1A
:102A7000902D879F802D910D11240895BB27FB0178
:102A80005527AA27880F991FAA1FA41710F0A41B67
:102A900083955051B9F7A05DAA3308F0A95DA193C1
:102AA000009779F7B111B1931192CB010C943C19B5
:102AB0004F925F926F927F929F92AF92BF92CF920E
:102AC000DF92EF92FF920F931F93CF93DF93CDB7D7
:102AD000DEB729970FB6F894DEBF0FBECDBF6A01EF
:102AE000122FB02E2BE3201720F0FF24F394F00ECA
:102AF00002C0BCE3FB2E0F2D27E0AE014F5F5F4FFE
:102B00000E944318AC018981982F9970913031F05F
:102B1000E1FC06C0E0FE06C090E205C09DE203C0F5
:102B20009BE201C090E0EE2DE07183FF3CC091116B
:102B300002C083E001C084E0811718F4212F281B14
:102B400001C020E0E1110BC0F601822F30E28823A2
:102B500019F031938150FBCFC20ED11C20E0992394
:102B600029F0D6019C93F60131966F01C6010396B8
:102B7000E2FE0AC03EE4D6013C9341E411964C9338
:102B8000119712963C9306C03EE6F601308341E66B
:102B900041833283FC01322F40E2332309F442C0E7
:102BA00041933150FACF82FF44C0911102C083E0BB
:102BB00001C084E0811718F4212F281B01C020E0F8
:102BC000E1110BC0F601822F30E2882319F0319316
:102BD0008150FBCFC20ED11C20E0992329F0D601F1
:102BE0009C93F60131966F01C6010396E2FE0BC07D
:102BF00039E4D6013C933EE411963C93119736E4B8
:102C000012963C9307C039E6F60130833EE63183E5
:102C100036E63283FC01322F40E2332319F0419330
:102C20003150FBCFFC01E20FF11D10828EEF9FEFC0
:102C3000B7C0F1E0911101C0F0E06F2F70E0141601
:102C4000150624F49A012F5F3F4F02C021E030E0C7
:102C5000260F371FBB2029F06B2D70E06F5F7F4F71
:102C600002C060E070E0260F371F612F70E026176A
:102C700037071CF4121B212F01C020E03E2D3871B4
:102C800059F4D601322F60E2332319F06D9331509D
:102C9000FBCFC20ED11C20E0FF2331F0D6019C9364
:102CA000B6016F5F7F4F6B01E1110BC0F601922FF0
:102CB00030E3992319F031939150FBCFC20ED11C10
:102CC00020E09F2D940F3A81782F7071A72E84FFFA
:102CD00003C0313309F49150191624F4993018F0D7
:102CE00098E001C091E0E42F852F57FF02C0E0E09B
:102CF00080E06E2F782FE0E0F0E0AEE29A2E3A010D
:102D0000691A71082A01461A570A0B2D10E011950D
:102D1000019511096F3F8FEF780729F4D6019C9236
:102D2000C60101966C014617570784F066167706B0
:102D30006CF47F01E40CF51CA1E0B0E0AC0FBD1F0A
:102D4000EA0EFB1ED7011196BC9002C090E3B92E8B
:102D5000615071093196C60101967C0160177107B7
:102D600024F0D601BC926C01D5CF6417750741F4ED
:102D7000363320F4353321F4A11002C081E3B82E9C
:102D8000F601B082F701822F90E2882319F0919327
:102D90008150FBCFF701E20FF11D108280E090E03F
:102DA00029960FB6F894DEBF0FBECDBFDF91CF914D
:102DB0001F910F91FF90EF90DF90CF90BF90AF9059
:102DC0009F907F906F905F904F900895A0E0B0E04B
:102DD000ECEEF6E10C94821AEC017B0161157105B1
:102DE00019F0DB018D939C938E010F5F1F4F78804C
:102DF000872D90E00E941B19892B11F0E801F4CF78
:102E0000BDE27B1205C00F5F1F4F7980C1E008C093
:102E1000EBE27E1204C08E010E5F1F4F7980C0E08E
:102E20006801F1E0CF1AD10843E050E06CED70E0AA
:102E3000C6010E942419892BF1F4680122E0C20E18
:102E4000D11C45E050E067ED70E0C6010E942419F6
:102E5000892B21F4680187E0C80ED11CE114F1042C
:102E600019F0D701CD92DC92C111FFC060E070E093
:102E700080E89FE703C143E050E064ED70E0C601E5
:102E80000E942419892B51F4E114F10409F4F2C0D1
:102E90000E5F1F4FF70111830083ECC0680160E0F3
:102EA00070E0CB0100E010E0F601D0EDD70DDA3094
:102EB00058F52C2F2260622E2C2F2870C2FF05C0DF
:102EC000211128C00F5F1F4F25C0222311F0015090
:102ED0001109A5E0B0E09B01AC010E94731A4B01FF
:102EE0005C01880C991CAA1CBB1CC501B4016D0FA8
:102EF000711D811D911D6839A9E97A078A07A9E129
:102F00009A0740F0C66005C0DE3F51F4C3FD44C0DF
:102F1000C8606C2EBFEFCB1ADB0A7080C62DC4CF01
:102F20002D2F2F7D2531C1F540814D3211F4C06127
:102F300006C04B3221F0319621E030E006C03296D7
:102F4000D60111964C9122E030E0A0EDA40FAA30FA
:102F500018F0E21BF30B20C040E050E04038BCE02A
:102F60005B075CF49A01220F331F220F331F420FBD
:102F7000531F440F551F4A0F511D3196DF01119702
:102F80002C91A0EDA20FAA3048F3C4FF03C05195C5
:102F900041955109040F151FC1FF07C0E114F10449
:102FA00021F03197D701ED93FC930E945119C37022
:102FB000C33019F06B017C0106C06B017C01F7FA8C
:102FC000F094F7F8F09420E030E0A901C701B601D1
:102FD0000E944C19882309F445C017FF06C01195BB
:102FE00001951109C3EFD0E002C0CBE0D1E05E0152
:102FF000B8E1AB1AB1084601BE2DAF2D90E2E92E23
:10300000F12C0E151F0584F0FE0125913591459197
:103010005491B4018B2F9A2F0E94B2194B01B82FF3
:10302000A92F0E191F09EDCF2497F594E794CA151F
:10303000DB0539F76401EB2EFA2E8E2D880F8F2DCC
:10304000881F8F3F49F020E030E0A901C701B60199
:103050000E944C19811106C082E290E090932304F3
:1030600080932204C701B60109C060E070E080E8E7
:103070009FEF04C060E070E080EC9FE7CDB7DEB763
:10308000EEE00C949E1A283008F027E03327DA018E
:10309000990F311D87FD916000966105710539F426
:1030A00032602E5F3D9330E32A95E1F708959F3F0C
:1030B00030F080387105610509F03C5F3C5F3D935D
:1030C000913008F08068911DDF93CF931F930F9389
:1030D000FF92EF92192F987F9695E92F96959695E6
:1030E000E90FFF27E759FE4F99273327EE24FF24E6
:1030F000A701E70105900894079428F4360FE71E0E
:10310000F81E491F511D660F771F881F991F0694CF
:10311000A1F70590079428F4E70EF81E491F561FE3
:10312000C11D770F881F991F661F0694A1F7059090
:10313000079428F4F80E491F561FC71FD11D880F8A
:10314000991F661F771F0694A1F70590079420F436
:10315000490F561FC71FD81F990F661F771F881F5B
:103160000694A9F784911095177041F0D695C795EC
:1031700057954795F794E7941A95C1F7EFE0F1E07A
:1031800068941590159135916591959105907FE220
:103190007395E118F10A430B560BC90BD009C0F720
:1031A000E10CF11E431F561FC91FD01D7EF4703362
:1031B00011F48A95E6CFE894015030F0080F0AF434
:1031C0000027021708F4202F2395022F7A3328F0C6
:1031D00079E37D932A95E9F710C07D932A9589F6C6
:1031E000069497956795379517951794E118F10A06
:1031F000430B560BC90BD00998F023957E9173951C
:103200007A3308F070E37C932013B8F77E917061F5
:103210007D9330F0839571E37D9370E32A95E1F718
:103220001124EF90FF900F911F91CF91DF9199277B
:1032300087FD9095089591110C941F1A803219F012
:1032400089508550C8F70895FB01DC01415050407A
:1032500088F08D9181341CF08B350CF4805E659183
:1032600061341CF06B350CF4605E861B611171F3E8
:10327000990B0895881BFCCFDC01FC01672F71912D
:103280007723E1F7329704C07C916D93708362914C
:10329000AE17BF07C8F308950E948E1908F481E0A5
:1032A0000895E89409C097FB3EF490958095709539
:1032B00061957F4F8F4F9F4F9923A9F0F92F96E982
:1032C000BB279395F695879577956795B795F111F7
:1032D000F8CFFAF4BB0F11F460FF1BC06F5F7F4F94
:1032E0008F4F9F4F16C0882311F096E911C07723A6
:1032F00021F09EE8872F762F05C0662371F096E8AF
:10330000862F70E060E02AF09A95660F771F881F7D
:10331000DAF7880F9695879597F90895990F000821
:10332000550FAA0BE0E8FEEF16161706E807F90797
:10333000C0F012161306E407F50798F0621B730B32
:10334000840B950B39F40A2661F0232B242B252BB3
:1033500021F408950A2609F4A140A6958FEF811D56
:10336000811D08950E94C5190C94391A0E942B1AC8
:1033700038F00E94321A20F0952311F00C94221A92
:103380000C94281A11240C946D1A0E944A1A70F396
:10339000959FC1F3950F50E0551F629FF001729FFA
:1033A000BB27F00DB11D639FAA27F00DB11DAA1F09
:1033B000649F6627B00DA11D661F829F2227B00D56
:1033C000A11D621F739FB00DA11D621F839FA00DE1
:1033D000611D221F749F3327A00D611D231F849F31
:1033E000600D211D822F762F6A2F11249F57504088
:1033F0009AF0F1F088234AF0EE0FFF1FBB1F661F03
:10340000771F881F91505040A9F79E3F510580F0CB
:103410000C94221A0C946D1A5F3FE4F3983ED4F397
:10342000869577956795B795F795E7959F5FC1F76F
:10343000FE2B880F911D9695879597F908959927EA
:103440008827089597F99F6780E870E060E0089505
:103450009FEF80EC089500240A94161617061806AC
:103460000906089500240A94121613061406050688
:103470000895092E0394000C11F4882352F0BB0F19
:1034800040F4BF2B11F460FF04C06F5F7F4F8F4F7C
:103490009F4F089557FD9058440F551F59F05F3FB7
:1034A00071F04795880F97FB991F61F09F3F79F066
:1034B00087950895121613061406551FF2CF4695E8
:1034C000F1DF08C0161617061806991FF1CF86956A
:1034D0007105610508940895E894BB27662777274E
:1034E000CB0197F908950E94B51AA59F900DB49F3E
:1034F000900DA49F800D911D112408952F923F924D
:103500004F925F926F927F928F929F92AF92BF92F3
:10351000CF92DF92EF92FF920F931F93CF93DF939F
:10352000CDB7DEB7CA1BDB0B0FB6F894DEBF0FBEFC
:10353000CDBF09942A88398848885F846E847D8449
:103540008C849B84AA84B984C884DF80EE80FD804B
:103550000C811B81AA81B981CE0FD11D0FB6F894C1
:10356000DEBF0FBECDBFED010895A29FB001B39F96
:10357000C001A39F700D811D1124911DB29F700D7C
:0C358000811D1124911D0895F894FFCFC7
:10358C000000240480000000000089011206520192
:10359C0030014401D001696E20736574757000535D
:1035AC00656E64696E672070696E67732E2E2E00CF
:1035BC004552524F5220303033212120556E6162DA
:1035CC006C6520746F20636F6E7461637420687512
:1035DC0062200052656365697665642061636B6E79
:1035EC006F776C656467652E2E2E004552524F52D4
:1035FC0020303038212120496E636F7272656374FC
:10360C002061636B6E6F776C656467656D656E7456
:10361C002070696E672072656369657665642066E3
:10362C00726F6D20004552524F522030303721219D
:10363C00204E6F2061636B6E6F776C656467656D90
:10364C00656E742070696E67207265636965766556
:10365C00642066726F6D200057616974696E672013
:10366C00666F722070696E67732E2E2E0052656322
:10367C00656976696E6720446174612E2E2E004553
:10368C0052524F522030303921212054696D65201F
:10369C006F757421204E6F2070696E6720726563A0
:1036AC00656976656421210053656E64696E6720D7
:1036BC0050696E67206261636B2E2E2E004552524C
:1036CC004F522121210050696E672073746174750B
:1036DC00733A20002F2F2F2F2F2F2F2F2F2F2F2FDD
:1036EC002F2F2F2F2F2F2F2F2F004D792041646438
:1036FC00726573733A2000526561642052616E6783
:10370C00653A0056565656005F5F5F5F5F5F5F5FBE
:10371C005F5F5F5F5F5F5F5F5F5F5F0053000D0A1E
:10372C00006E616E00696E66006F766600576169A7
:10373C00746E6720666F7220726571756573742E76
:10374C002E2E00476F742E2E2E004552524F5200D3
:10375C0074727565005375636365737366756C205D
:10376C00636F6E7461637420776974682068756226
:10377C0020004552524F52203031312121204D65CD
:10378C0073616765206E6F7420666F726D6174650E
:0A379C0064212100303100303200BA
:00000001FF
