:100000000C94E8000C9410010C9410010C94100155
:100010000C9410010C9410010C9410010C9410011C
:100020000C9410010C9410010C9410010C9410010C
:100030000C9410010C9410010C9410010C941001FC
:100040000C9456030C9410010C9472020C944C0204
:100050000C9410010C9410010C9410010C941001DC
:100060000C9410010C94100100407A10F35A00A077
:10007000724E18090010A5D4E80000E87648170071
:1000800000E40B54020000CA9A3B000000E1F505B1
:10009000000080969800000040420F000000A086FB
:1000A00001000000102700000000E803000000002D
:1000B0006400000000000A000000000001000000D1
:1000C00000002C76D888DC674F0823DFC1DFAE59EB
:1000D000E1B1B796E5E3E453C63AE651997696E87E
:1000E000E6C28426EB898C9B62ED407C6FFCEFBC02
:1000F0009C9F40F2BAA56FA5F490055A2AF75C932D
:100100006B6CF9676DC11BFCE0E40D47FEF520E662
:10011000B500D0ED902E0300943577050080841E45
:10012000080000204E0A000000C80C333333330FA0
:10013000986E12831141EF8D2114893BE65516CF3D
:10014000FEE6DB18D1844B381BF77C1D901DA4BB49
:10015000E424203284725E228100C9F124ECA1E5FE
:100160003D2700000000240027002A00111213146C
:1001700015160A0B0C0D0E0F0000000025002800BC
:100180002B0000000008000201000003040700002B
:10019000000000000000040404040404040402023B
:1001A00002020202030303030303010204081020F6
:1001B0004080010204081020010204081020000001
:1001C0000000230026002900000102030405A113FA
:1001D00011241FBECFEFD8E0DEBFCDBF24E0A2E8E0
:1001E000B3E001C01D92A139B207E1F713E0A0E02E
:1001F000B1E0E8E7F9E302C005900D92A238B1073B
:10020000D9F710E0C8EED0E004C02197FE010E94AB
:100210009F1AC73ED107C9F70E94B10E0C94BA1CB1
:100220000C940000089580E090E00895FC01538D47
:10023000448D252F30E0842F90E0821B930B5417C0
:1002400010F0CF96089501970895FC01918D828D4D
:10025000981761F0828DDF01A80FB11D5D968C911A
:10026000928D9F5F9F73928F90E008958FEF9FEF25
:100270000895FC01918D828D981731F0828DE80FE1
:10028000F11D858D90E008958FEF9FEF0895FC019B
:10029000918D228D892F90E0805C9F4F821B910968
:1002A0008F73992708958DE893E00E94470121E01C
:1002B000892B09F420E0822F0895FC01848DDF0151
:1002C000A80FB11DA35ABF4F2C91848D90E00196C9
:1002D0008F739927848FA689B7892C93A089B189B8
:1002E0008C9180648C93938D848D981306C00288C2
:1002F000F389E02D80818F7D80830895EF92FF92B6
:100300000F931F93CF93DF93EC0181E0888F9B8D38
:100310008C8D981305C0E889F989808185FD24C0FA
:10032000F62E0B8D10E00F5F1F4F0F731127E02E7D
:100330008C8DE8120CC00FB607FCFACFE889F9895A
:10034000808185FFF5CFCE010E945D01F1CF8B8DBD
:10035000FE01E80FF11DE35AFF4FF0820B8FEA898F
:10036000FB898081806207C0EE89FF896083E8890C
:10037000F98980818064808381E090E0DF91CF9172
:100380001F910F91FF90EF900895CF93DF93EC01B1
:10039000888D8823C9F0EA89FB89808185FD05C0A5
:1003A000A889B9898C9186FD0FC00FB607FCF5CFDF
:1003B000808185FFF2CFA889B9898C9185FFEDCF27
:1003C000CE010E945D01E7CFDF91CF91089580E0DB
:1003D00090E0892B29F00E94530181110C940000B8
:1003E0000895833081F028F4813099F08230A1F0B3
:1003F00008958730A9F08830B9F08430D1F4809125
:1004000080008F7D03C0809180008F778093800073
:10041000089584B58F7702C084B58F7D84BD08951B
:100420008091B0008F7703C08091B0008F7D809362
:10043000B00008958230910538F0880F991F880F19
:10044000991F05970197F1F708953FB7F8948091A8
:10045000890390918A03A0918B03B0918C0326B5F8
:10046000A89B05C02F3F19F00196A11DB11D3FBFEC
:10047000BA2FA92F982F8827820F911DA11DB11D7A
:10048000BC01CD0142E0660F771F881F991F4A9576
:10049000D1F708950E949C1C1F920F920FB60F92E5
:1004A00011242F933F934F935F936F937F938F9379
:1004B0009F93AF93BF93EF93FF938DE893E00E94D8
:1004C0005D01FF91EF91BF91AF919F918F917F91CE
:1004D0006F915F914F913F912F910F900FBE0F90B1
:1004E0001F9018951F920F920FB60F9211242F9301
:1004F0008F939F93EF93FF93E0919D03F0919E0361
:100500008081E091A303F091A40382FD12C0908149
:100510008091A6038F5F8F732091A703821751F0FC
:10052000E091A603F0E0E357FC4F958F8093A6037C
:1005300001C08081FF91EF919F918F912F910F903A
:100540000FBE0F901F9018951F93CF93DF93282F06
:1005500030E0F901EE57FE4F8491F901E655FE4F68
:10056000D491F901EA56FE4FC491CC23C9F0162F5D
:1005700081110E94F101EC2FF0E0EE0FFF1FE8580F
:10058000FE4FA591B4918FB7F894111105C09C91BD
:10059000ED2FE095E92302C0EC91ED2BEC938FBF9A
:1005A000DF91CF911F910895CF93DF9390E0FC01ED
:1005B000E655FE4F2491FC01EA56FE4F84918823B4
:1005C00061F190E0880F991FFC01EE59FE4FC59133
:1005D000D491FC01E858FE4FA591B491611109C076
:1005E0009FB7F8948881209582238883EC912E23ED
:1005F0000BC0623061F49FB7F8943881822F8095E8
:1006000083238883EC912E2B2C939FBF06C08FB73A
:10061000F894E8812E2B28838FBFDF91CF91089526
:100620008F929F92AF92BF92CF92DF92EF92FF9202
:100630006B017C010E9425024B015C01C114D104B5
:10064000E104F104F1F00E942502DC01CB018819DC
:100650009909AA09BB09883E9340A105B10570F329
:1006600021E0C21AD108E108F10888EE880E83E083
:10067000981EA11CB11CC114D104E104F10419F7A6
:10068000DDCFFF90EF90DF90CF90BF90AF909F9025
:100690008F9008952FB7F894609185037091860329
:1006A00080918703909188032FBF08951F920F9226
:1006B0000FB60F9211242F933F938F939F93AF9375
:1006C000BF938091850390918603A0918703B09199
:1006D00088033091840323E0230F2D3720F4019603
:1006E000A11DB11D05C026E8230F0296A11DB11D55
:1006F000209384038093850390938603A0938703BC
:10070000B09388038091890390918A03A0918B0311
:10071000B0918C030196A11DB11D80938903909324
:100720008A03A0938B03B0938C03BF91AF919F91E9
:100730008F913F912F910F900FBE0F901F901895A2
:10074000FC0120813181828193812817390719F0BA
:10075000822F0C94A4020895CF93DF93EC019CB5F3
:100760009F7D9CBD9CB5937F9CBD9CB59C7F9CBD93
:100770009DB591609DBD8A810E94A4028C899D894E
:10078000DF91CF910C941A0261E00C94AC0360E00D
:100790000C94AC038EBD00000DB407FEFDCF8EB5EA
:1007A0000895EF92FF921F93CF93DF931F92CDB7DF
:1007B000DEB77C0169830E94C7036981862F0E948E
:1007C000CA03182FC7010E94C403812F0F90DF9125
:1007D000CF911F91FF90EF90089561EE0C94D1039B
:1007E000EF92FF921F93CF93DF9300D0CDB7DEB788
:1007F0007C014A8369830E94C7036981862F8F71B8
:1008000080620E94CA03182F4A81842F0E94CA0363
:10081000C7010E94C403812F0F900F90DF91CF91E9
:100820001F91FF90EF900895CF92DF92EF92FF9289
:100830000F931F93CF93DF9300D0CDB7DEB78C011A
:10084000FC019781C42E941708F4C92EF801808505
:10085000811103C0D92EDC1801C0D12CC8016983D5
:100860007A830E94C70381E60E94CA036981E62E4B
:100870007A81F72EC60ECE1439F08FEF0E94CA038C
:10088000F70181937F01F7CFDD2029F08FEF0E94E0
:10089000CA03DA94F9CFC8010E94C40340E767E0B5
:1008A000C8010F900F90DF91CF911F910F91FF9092
:1008B000EF90DF90CF900C94F003CF92DF92EF9205
:1008C000FF920F931F93CF93DF9300D01F92CDB76A
:1008D000DEB77C01142F2A835B8369830E94C703E0
:1008E0006981862F8F7180620E94CA03082FC12EF2
:1008F0005B81D52E2A81120F1C1531F0F6018191F2
:100900006F010E94CA03F8CFC7010E94C403802F61
:100910000F900F900F90DF91CF911F910F91FF904B
:10092000EF90DF90CF900895EF92FF920F931F9377
:10093000CF93DF93CDB7DEB728970FB6F894DEBF1D
:100940000FBECDBF7C0109831A832B833C834D836B
:100950005E836F837887FC012685AE014F5F5F4F12
:100960006AE00E945D04F7012685AE014F5F5F4F8C
:1009700060E1C7010E945D04F701478161E1C701A1
:100980000E94F00328960FB6F894DEBF0FBECDBFCD
:10099000DF91CF911F910F91FF90EF900895EF920B
:1009A000FF921F93CF93DF931F92CDB7DEB77C01E9
:1009B00069830E94C7036981862F8F710E94CA03D1
:1009C0008FEF0E94CA03182FC7010E94C403812F12
:1009D0000F90DF91CF911F91FF90EF900895AF920C
:1009E000BF92DF92EF92FF920F931F93CF93DF930B
:1009F000CDB7DEB728970FB6F894DEBF0FBECDBFD8
:100A00005C01D62EE982FA820B831C832D833E8300
:100A10004F83588761110AC0FC01468550E0BE0132
:100A20006F5F7F4F09960E94A11C07C0F6E0F61782
:100A300008F435C081E0681308C0ED2DF0E0EE58F1
:100A4000FE4F6491F501268506C0E62FF0E0EE58D2
:100A5000FE4F649121E0AE014F5F5F4FC5010E94E0
:100A60005D040D2D10E0F801E459FE4F6491F5018D
:100A70004781C5010E94F00362E0C5010E94CF04D6
:100A8000F801E853FE4FE49141E050E001C0440F0B
:100A9000EA95EAF7482B62E0C5010E94F003289628
:100AA0000FB6F894DEBF0FBECDBFDF91CF911F917F
:100AB0000F91FF90EF90DF90BF90AF90089567E1A6
:100AC0000E94CF04809581700895CF93DF93EC014D
:100AD00067E1CE010E94CF0484FD14C06FEFCE0108
:100AE0000E94D10384FFF4CF40E167E0CE010E9471
:100AF000F00360E0CE010E94A003CE010E94ED034E
:100B000080E005C060E0CE010E94A00381E0DF919B
:100B1000CF910895CF93DF93EC0160E00E94CF0462
:100B200081FD0EC0482F426060E0CE010E94F003BC
:100B300065E070E080E090E0DF91CF910C941003CD
:100B4000DF91CF910895CF93DF93EC0160E00E9495
:100B5000A003888999890E941A026DE1CE010E9442
:100B6000CF0481FF07C0888999890E941A02CE01AB
:100B70000E94ED0360E0CE010E94CF04482F4E7F1B
:100B800060E0CE010E94F00362E0CE010E94CF043B
:100B9000E8ECF1E0E49141E050E001C0440FEA9557
:100BA000EAF7482B62E0CE01DF91CF910C94F0037D
:100BB000CF92DF92EF92FF920F931F93CF93DF9329
:100BC000EC016B017A01E114F10409F476018E89DC
:100BD0009F890E94A30587017F2D770F770B272F11
:100BE000372F472F572F672F8E899F890E94940494
:100BF00061E088E00E94A40281E093E00E94520B31
:100C0000C6010E943A0B8EE093E00E94520BC7018E
:100C10000E943A0B42E06FE173E08E899F890E9447
:100C20005E0B182F882359F060E088E00E94A40230
:100C30008E899F890E9465051FA21EA263C08EA196
:100C40009FA1049780F481E293E00E94C40A8EA1E0
:100C50009FA101969FA38EA364EF71E080E090E0D6
:100C60000E941003B0CF1FA21EA28CA19DA1A701BC
:100C7000C816D90664F5E816F90649F14F5F5F4FCB
:100C8000481759074CF10E948A0A8CE093E00E94B1
:100C9000C40A8CE392E00E94520BC6010E94540BDE
:100CA00089E391E00E94C40A61E087E00E94A40207
:100CB00068EE73E080E090E00E94100360E087E05F
:100CC0000E94A40260E088E00E94A4021BC0415080
:100CD000510984179507B4F4B601CE010E94D805D6
:100CE000F82E882379F08CE391E00E94C40A60E03A
:100CF00088E00E94A4028E899F890E9465051FA238
:100D00001EA21F2D812FDF91CF911F910F91FF9078
:100D1000EF90DF90CF900895CF93DF93EC010E9486
:100D20008A0560E0CE010E94CF04482F416060E058
:100D3000CE010E94F00340E767E0CE010E94F0037D
:100D400061E0CE010E94A0038985882349F02E85A9
:100D5000AE01475F5F4F6AE0CE010E945D0403C0B1
:100D6000CE010E940B0C6DE1CE010E94CF0481FFE9
:100D700005C0CE01DF91CF910C94ED03DF91CF91AF
:100D800008958F929F92AF92BF92CF92DF92EF928F
:100D9000FF92CF93DF93A0916504882311F03A2F3F
:100DA00001C030E08091660490E0880F991F825462
:100DB0009E4FC0906B04D0906C04E0906D04F09056
:100DC0006E0440E050E0BA01FC01C591D491288145
:100DD0002A2323130FC04A015B012FEF821A920AC4
:100DE000A20AB20A4C155D056E057F0538F4B501FF
:100DF000A401EACF342F252FCB0104C030E020E03E
:100E000080E090E0632F722FDF91CF91FF90EF9001
:100E1000DF90CF90BF90AF909F908F9008958F926A
:100E20009F92AF92BF92CF92DF92EF92FF920F9379
:100E30001F93CF93DF93CDB7DEB7E3970FB6F89448
:100E4000DEBF0FBECDBF7C014A015B018901C90134
:100E500089529342873E934098F420E030E0A90104
:100E6000C501B4010E94B01887FD0AC020E03CE330
:100E70004CE156E4C501B4010E94781A181634F406
:100E80006FE373E0C7010E94010EE4C067E573E001
:100E9000CE018E960E94010E67E573E0CE01889622
:100EA0000E94010E4AE0B801CE0101960E94D50DC4
:100EB000BE016F5F7F4FCE018E960E94240DCE0142
:100EC00001960E94D00D8AE2C82E84E0D82E00E060
:100ED00010E0B801CE018E960E94120DFC018081B7
:100EE000F60181936F010F5F1F4F0430110589F7E1
:100EF0008DE280932E041BA21AA21DA21CA21FA287
:100F00001EA28E010F5F1F4F22E044E0C501B40115
:100F10000E94C415BC01CE0182960E94AF0DBE0195
:100F20006E5D7F4FCE018E960E94240DCE0182967B
:100F30000E94D00D00E010E0B801CE018E960E9414
:100F4000120DFC018081F801E65DFB4F85830F5F88
:100F50001F4F0530110581F78DE2809334044AE07C
:100F600064E070E0CE0101960E94D50DBE016F5F76
:100F70007F4FCE018E960E94240DCE0101960E94D5
:100F8000D00D00E010E0CAA8DBA80C151D0570F418
:100F9000B801CE018E960E94120DFC018081F801ED
:100FA000E65DFB4F83870F5F1F4FEDCFC601865D68
:100FB0009B4F5C018DE2F50183874AE069E273E2B1
:100FC000CE0101960E94D50DBE016F5F7F4FCE010D
:100FD0008E960E94240DCE0101960E94D00D00E055
:100FE00010E08AA99BA90817190780F4B801CE015F
:100FF0008E960E94120DFC018081F801EC0DFD1D02
:10100000E65DFB4F84870F5F1F4FEBCFF501E80FC5
:10101000F91F28E724876AE274E0CE0188960E94CF
:10102000AF0D8AE294E00E94C40AF7011182108297
:101030001382128215821482BE01685D7F4FC70140
:101040000E94240DCE0188960E94D00DCE018E966E
:101050000E94D00DC701E3960FB6F894DEBF0FBE15
:10106000CDBFDF91CF911F910F91FF90EF90DF9057
:10107000CF90BF90AF909F908F9008958F929F9246
:10108000AF92BF92CF92DF92EF92FF920F931F9396
:10109000CF93DF93CDB7DEB72C970FB6F894DEBFB2
:1010A0000FBECDBF4B015C016A01790167E573E0BA
:1010B000CE0107960E94010EE114F10421F489E2A9
:1010C000E82E83E2F82E9601B501A401CE01019627
:1010D0000E940F07BE016F5F7F4FCE0107960E94EF
:1010E000240DCE0101960E94D00D61E088E00E949F
:1010F000A40280914004909141040E94A3058701BD
:101100007F2D770F770B272F372F472F572F672FDD
:1011100080914004909141040E9494048091400485
:10112000909141040E94ED0381E093E00E94520BF4
:1011300089E293E20E943A0B8EE093E00E94520B08
:10114000C7010E943A0B6F81788544E18091400489
:10115000909141040E945E0B182F882399F08CE334
:1011600091E00E94C40A60E088E00E94A40280919D
:101170004004909141040E94650510925104109220
:1011800050047FC080915004909151040497F0F472
:1011900085E493E00E94C40A809150049091510428
:1011A0000196909351048093500464EF71E080E0C5
:1011B00090E00E9410039701A601C501B4010E94AE
:1011C0003E08CE0107960E94D00D60C010925104D7
:1011D0001092500480914E0490914F048A3223E281
:1011E000920774F1E816F90659F197012F5F3F4F06
:1011F000281739075CF10E948A0A8CE093E00E946C
:10120000C40A8CE392E00E94520B89E293E20E94AE
:10121000540B89E391E00E94C40A61E087E00E94D8
:10122000A40268EE73E080E090E00E94100360E0AA
:1012300087E00E94A40260E088E00E94A40221C02E
:1012400097012150310982179307DCF4A601C501EB
:10125000B4010E943E08F82E882399F08CE391E0B7
:101260000E94C40A60E088E00E94A40280914004C9
:10127000909141040E94650510925104109250040F
:101280001F2DCE0107960E94D00D812F2C960FB6F0
:10129000F894DEBF0FBECDBFDF91CF911F910F91AC
:1012A000FF90EF90DF90CF90BF90AF909F908F9086
:1012B0000895CF92DF92EF92FF920F931F93CF93F7
:1012C000DF93CDB7DEB7C054D1400FB6F894DEBF80
:1012D0000FBECDBF0E944A030091670410916804BD
:1012E0002091690430916A046B017C01C01AD10A13
:1012F000E20AF30A40EDC41647E0D406E104F10423
:1013000018F480916F04BCC0609367047093680404
:101310008093690490936A041092620410926104AD
:101320001092600410925F0410925E0461E080915C
:1013300063040E94A4026AEF70E080E090E00E94E3
:10134000100361E0809163040E94D40260E0809108
:1013500063040E94A40264E170E080E090E00E94D7
:101360001003F89461E0809163040E94A4028BE969
:1013700090E00197F1F762E0809163040E94D4024B
:1013800083E290E00197F1F780E00E94C106672BAD
:10139000682B692B21F410926F0478943EC081E091
:1013A0000E94C106672B682B692BA9F38E010F5F82
:1013B0001F4F6E018FEBC81A8EEFD80A780180E0BC
:1013C0000E94C106F701608371838283938381E069
:1013D0000E94C106F7016483758386839783F8E0D2
:1013E000EF0EF11CEC14FD0451F7789420E030E08E
:1013F000F8014081518162817381C480D580E6808B
:10140000F780411551056105710529F0C114D1041A
:10141000E104F10421F410926F0480E031C0F9017D
:1014200083E0F595E7958A95E1F7E25AFB4F8081D5
:10143000880F4C155D056E057F0508F4816080837B
:101440002F5F3F4F085F1F4F2832310589F62091EB
:10145000620430E040915E0480915F0490E0840F6C
:10146000911D40916004840F911D40916104840F8F
:10147000911D99272817390771F681E080936F0431
:10148000C05CDE4F0FB6F894DEBF0FBECDBFDF915C
:10149000CF911F910F91FF90EF90DF90CF90089523
:1014A0000F931F930E944A036093950370939603D2
:1014B0008093970390939803E0918D03F0918E03AE
:1014C0000284F385E02D8DE893E0099597FF1FC016
:1014D0000E944A030091950310919603209197036F
:1014E00030919803DC01CB01801B910BA20BB30B55
:1014F00000919103109192032091930330919403F2
:1015000080179107A207B307B8F28FEF9FEF1F91E3
:101510000F910895EDE8F3E0A089B18982E08C9302
:10152000A485B5851C92A685B7858FEC8C93108E0B
:10153000A489B58986E08C93A289B3898C91806156
:101540008C93A289B3898C9188608C93A289B3898A
:101550008C9180688C930288F389E02D80818F7D47
:1015600080830895009769F0FC0101900020E9F75D
:101570003197AF01481B590BBC018DE893E00C94E7
:101580009A0C80E090E00895CF93DF930E94B20A16
:10159000EC0185E593E00E94B20A8C0F9D1FDF915C
:1015A000CF9108958F929F92AF92BF920F931F9306
:1015B000CF93DF93CDB7DEB7A1970FB6F894DEBF18
:1015C0000FBECDBF19A2423008F44AE08E010F5D74
:1015D0001F4F842E912CA12CB12CA50194010E94A7
:1015E0007D1AE62FB901CA0101501109EA3014F43D
:1015F000E05D01C0E95CD801EC93232B242B252B63
:1016000061F7C8010E94B20AA1960FB6F894DEBF36
:101610000FBECDBFDF91CF911F910F91BF90AF90C3
:101620009F908F900895CF92DF92EF92FF92CF9389
:10163000DF936B017C01E0918D03F0918E030190AB
:10164000F081E02D6DE28DE893E00995EC016627CD
:101650007727CB016C197D098E099F094AE00E940A
:10166000D20A8C0F9D1FDF91CF91FF90EF90DF90FA
:10167000CF900895CF93DF93BC01990F880B990BFE
:1016800097FF03C00E94130B03C04AE00E94D20AD6
:10169000EC0185E593E00E94B20A8C0F9D1FDF915B
:1016A000CF9108950C94B20ABC01990F880B990B45
:1016B00097FD0C94130B4AE00C94D20ACF92DF9260
:1016C000EF92FF920F931F93CF93DF9300D0CDB78C
:1016D000DEB78C01FC019781D42E941708F4D92E23
:1016E000F8018085811103C0C92ECD1801C0C12C1D
:1016F000C80169837A830E94C70380EA0E94CA03F3
:101700006981E62E7A81F72ED60EDE1431F0F701CC
:1017100081917F010E94CA03F8CFCC2029F080E09C
:101720000E94CA03CA94F9CFC8010E94C40361E0B1
:10173000C8010E94A0036FEFC8010E94D10380730B
:10174000D1F360E0C8010E94A00340E767E0C80150
:101750000E94F00384FF05C0C8010E94ED0380E0F1
:1017600001C081E00F900F90DF91CF911F910F91F9
:10177000FF90EF90DF90CF900895CF92DF92EF929D
:10178000FF926C0197FD18C00E944A036C0D7D1DED
:101790006B01770FEE08FF0880914004909141049F
:1017A0000E945F05811112C00E944A036C157D05DD
:1017B0008E059F0588F30AC08091400490914104F2
:1017C0000E945F058823C1F381E020C00E944A0384
:1017D000C616D706E806F906B8F70E948A0A8CE012
:1017E00093E00E94C40A88E593E00E94C40A61E085
:1017F00087E00E94A40268EE73E080E090E00E941F
:10180000100360E087E00E94A40280E0FF90EF9068
:10181000DF90CF900895CF93DF93EC0162E00E94B8
:10182000CF04E8ECF1E0E49121E030E001C0220FC8
:10183000EA95EAF72095422F482362E0CE01DF9136
:10184000CF910C94F003EF92FF920F931F93CF93DD
:10185000DF9300D0CDB7DEB78C0167E573E00E945F
:10186000010E0E94500A97FD1EC089831A82F8015A
:10187000E480F580FFEFEF1AFF0AB701C8010E946C
:101880005D0D882371F3F801208131818481958178
:10189000BE016F5F7F4F820F931F0E94B31CF80140
:1018A000F582E482DECFC8010F900F90DF91CF91D7
:1018B0001F910F91FF90EF9008950F931F93CF9377
:1018C0008C0166E080E794E00E94CF04C82FC77DBA
:1018D0000230110531F4C0628BE990E0A0E0B0E085
:1018E0000DC00130110529F085E590E0A0E0B0E0E1
:1018F00005C0C86081E490E0A0E0B0E0809380047F
:1019000090938104A0938204B09383044C2F66E0EB
:1019100080E794E00E94F00366E080E794E00E9494
:10192000CF0491E08C1390E0892FCF911F910F91FC
:1019300008950895CF92DF92EF92FF920F931F9335
:10194000CF93DF936C017A018B01C0E0D0E0CE151C
:10195000DF0589F0D8016D918D01D601ED91FC91E3
:101960000190F081E02DC6010995892B11F47E01CB
:1019700002C02196ECCFC701DF91CF911F910F914B
:10198000FF90EF90DF90CF900895CF92DF92EF928B
:10199000FF92CF930E9459098823D1F1809164046A
:1019A0008B3029F0A8F18551823048F031C0609128
:1019B000600470E080E090E00E94B5182DC0C091F6
:1019C00060046C2F6F7770E080E090E00E94B718A1
:1019D00020E030E040E853E40E9416196B017C01DE
:1019E00080916104682F70E080E090E00E94B71859
:1019F0009B01AC01C701B6010E940C1A2DEC3CEC16
:101A00004CEC5DE30E941619C7FF06C0905804C055
:101A100060E070E080EC9FE7CF91FF90EF90DF9067
:101A2000CF900895FC01248135816217730720F45B
:101A300080819181009729F410928C048CE894E0C5
:101A40000895860F971F08950F931F93CF93DF93E9
:101A50008C01EB01FC01808191810097B1F06881DC
:101A600079816115710579F0428153812C813D8125
:101A70004217530740F00E94B31C8C819D81F801EE
:101A80009583848313C00E943A1B88819981F80151
:101A9000918380838A819B81938382838C819D81C2
:101AA00095838483198218821B821A821D821C826C
:101AB000DF91CF911F910F9108950F931F93CF93B3
:101AC000DF93EC0188819981009729F02A813B817D
:101AD0002617370788F48B016F5F7F4F0E94D21B58
:101AE000009761F0998388831B830A832C813D8151
:101AF000232B11F4FC01108281E001C080E0DF9112
:101B0000CF911F910F910895EF92FF920F931F9322
:101B1000CF93DF93EC017B018A01BA010E945D0D36
:101B20002881398181110DC02115310519F0C901B4
:101B30000E943A1B198218821D821C821B821A8203
:101B400006C01D830C83B701C9010E94B31CCE01DE
:101B5000DF91CF911F910F91FF90EF900895CF9358
:101B6000DF93EC016115710559F0FB010190002034
:101B7000E9F73197AF01461B570B0E94840D0CC04B
:101B800088819981009711F00E943A1B198218826E
:101B90001D821C821B821A82CE01DF91CF91089593
:101BA000FC01808191810C943A1B0F931F93CF937A
:101BB000DF93CDB7DEB762970FB6F894DEBF0FBEE6
:101BC000CDBF8C01CB01F8011182108213821282E9
:101BD0001582148250E0BE016F5F7F4F0E94021693
:101BE000BE016F5F7F4FC8010E94AF0D62960FB6B6
:101BF000F894DEBF0FBECDBFDF91CF911F910F9143
:101C00000895FC01118210821382128215821482BF
:101C10006115710551F0FB0101900020E9F7319742
:101C2000AF01461B570B0C94840D0895AF92BF92E1
:101C3000CF92DF92EF92FF920F931F93CF93DF9398
:101C4000CDB7DEB76A970FB6F894DEBF0FBECDBF33
:101C5000CE0101965C0184E1F50111928A95E9F7C4
:101C600067E573E0CE0145960E94010E8AE2C82E18
:101C700084E0D82EF601F5A0E4A05F2D550F550B9A
:101C8000052F152F252F352F452F60E08689978941
:101C90000E94EF04F601868997890E948C068FEFD7
:101CA0009FEF0E94BD0B44E1B501F601868997893B
:101CB0000E941404B501CE0145960E94AF0D62EE5C
:101CC000F601868997890E94D103F6018689978952
:101CD0000E940B0C498D5A8D6D897E898DE893E0A9
:101CE0000E949A0C4AE060E070E0CB010E94D20AA8
:101CF000E0918D03F0918E030190F081E02D6EE272
:101D00008DE893E009954AE060E070E0CB010E9425
:101D1000D20A4AE060E070E0CB010E94D20A85E579
:101D200093E00E94B20A80E090E00E943A0B80E0CB
:101D300090E00E943A0BCE0145960E94D00D81E0C2
:101D40006A960FB6F894DEBF0FBECDBFDF91CF917C
:101D50001F910F91FF90EF90DF90CF90BF90AF90C9
:101D60000895CF93DF93CDB7DEB72E970FB6F894D3
:101D7000DEBF0FBECDBF789484B5826084BD84B5CC
:101D8000816084BD85B5826085BD85B5816085BD76
:101D900080916E00816080936E001092810080912E
:101DA00081008260809381008091810081608093B6
:101DB0008100809180008160809380008091B100DB
:101DC00084608093B1008091B00081608093B00006
:101DD00080917A00846080937A0080917A0082609A
:101DE00080937A0080917A00816080937A0080915C
:101DF0007A00806880937A001092C1000E948A0A5B
:101E000088E191E00E94C40A80917004909171046D
:101E100020917204309173048217930719F061E0E6
:101E20000E94D402809172049091730420917004F6
:101E3000309171042817390719F061E00E94D4022B
:101E40001FB7F89480918203811127C0E0EAF1E086
:101E50008491E4EBF1E09491E82FF0E0EE0FFF1FA6
:101E6000EE59FE4FA591B491EC91E92321F461E084
:101E70008AE00E94A40261E08AE00E94D4028CB54C
:101E800080618CBD8CB580648CBD61E08DE00E946A
:101E9000D40261E08BE00E94D402809182038F5FC4
:101EA000809382031FBF60E080E794E00E94A0035C
:101EB00061E080E794E00E94AC0365E070E080E0C0
:101EC00090E00E9410034CE060E080E794E00E9404
:101ED000F0034FE564E080E794E00E94F00382E0C5
:101EE00090E00E945D0C882319F081E080937604D5
:101EF00066E080E794E00E94CF0480E090E00E94DA
:101F00005D0C80E794E00E94C70380E50E94CA034D
:101F100083E70E94CA0380E794E00E94C40340E084
:101F20006DE180E794E00E94F00340E06CE180E71F
:101F300094E00E94F0031092780440E767E080E7A5
:101F400094E00E94F0034CE465E080E794E00E9496
:101F5000F00362EE80E794E00E94D10380E794E012
:101F60000E94ED0380E794E00E948A0560E080E72C
:101F700094E00E94CF04482F4E7F60E080E794E019
:101F80000E94F00368EC70E080E090E00E94100393
:101F900062E0809163040E94D40280E398EFAFEF87
:101FA000BFEF8093670490936804A0936904B09393
:101FB0006A0460E082E00E94D40260E083E00E9454
:101FC000D40260E084E00E94D40260E085E00E94D8
:101FD000D40261E087E00E94D40261E088E00E94C0
:101FE000D40261E088E00E94A40266E080E794E009
:101FF0000E94CF04482F476066E080E794E00E948B
:10200000F00382E090E00E945D0C811104C081E247
:1020100091E00E94C40A4CE765E080E794E00E94EA
:10202000F0030E944A036B0120E3C21A28EFD20A90
:1020300067E573E0CE0107960E94010E8DE893E0FC
:102040000E94C5010D2C000CEE08FF080E944A03F7
:102050006C157D058E059F0568F080914E0490916A
:102060004F048932934209F043C18AE2C82E84E0CA
:10207000D82E24C08DE893E00E9447011816190657
:102080002CF7CE0101960E94230CBE016F5F7F4F9B
:10209000CE0107960E94240DCE0101960E94D00D1C
:1020A0008B859C85892BC9F20F8118856CE371E0C3
:1020B000C8010E94AA1C892B81F2DDC1F601A28C05
:1020C000B38C1A82198210925104109250048CE041
:1020D00093E00E94C40A81E491E00E94C40A8091C6
:1020E0004004909141040E94A305F601138D028DD6
:1020F000712F770F770B272F372F472F572F672FEA
:1021000080914004909141040E949404F601828DD4
:10211000938D9A83898342E0BE016F5F7F4F8091E8
:102120004004909141040E945E0B811128C080916F
:10213000500490915104049708F0B4C242E0BE01EB
:102140006F5F7F4F80914004909141040E945E0B2D
:10215000882329F0109251041092500410C06CE2B0
:1021600071E080E090E00E94100380915004909113
:10217000510401969093510480935004D8CF68EC99
:1021800070E080E090E00E94100342E06EE474E0B2
:1021900080914004909141040E945E0B811127C000
:1021A0008091500490915104049708F07BC242E062
:1021B0006EE474E080914004909141040E945E0BB3
:1021C000882329F0109251041092500410C06CE240
:1021D00071E080E090E00E941003809150049091A3
:1021E000510401969093510480935004D9CF8823D1
:1021F00009F473C01A821982F601828C938CF090D4
:102200004F04E0904E045F2D550F550B052F152FF1
:10221000252F352F452F61E0809140049091410496
:102220000E94EF0480914004909141040E948C062A
:1022300088EE93E00E94BD0B809140049091410490
:102240000E945F05882321F142E0BE016F5F7F4F4E
:1022500080914004909141040E94140489819A81E4
:102260008815990561F482E591E00E94C40A8EED1B
:1022700092E00E94C40AC5010E943A0B2EC00E943F
:102280008A0A8CE093E00E94C40A8AE691E00EC0BC
:102290000E944A03672B682B692BF9F00E948A0A77
:1022A0008CE093E00E94C40A84EA91E00E94520B01
:1022B000C4010E94540B89E391E00E94C40A61E0CA
:1022C00087E00E94A40268EE73E080E090E00E9444
:1022D000100360E087E00E94A402F2E0CF0ED11C60
:1022E00024E3C21624E0D20609F0E8CEF12CC0C0E7
:1022F00087ED91E00E94C40A1E861D861A8219820B
:10230000F0904F04E0904E045F2D550F550B052FB4
:10231000152F252F352F452F61E080914004909196
:1023200041040E94EF0480914004909141040E9476
:102330008C06F12C8FEF9FEF0E94BD0B882371F06C
:102340008CEE91E00E94C40A42E0BE01635F7F4FC1
:1023500080914004909141040E94140480E395E729
:102360000E94BD0B882359F042E0BE016F5F7F4F92
:1023700080914004909141040E94140418C00E946E
:102380008A0A8CE093E00E94C40A8EEF91E00E94DA
:10239000C40A61E087E00E94A40268EE73E080E076
:1023A00090E00E94100360E087E00E94A4022D8567
:1023B0003E8580914E0490914F042817390709F00B
:1023C0004DC080914004909141040E94A30510915A
:1023D000450400914404712F770F770B272F372F77
:1023E000472F572F672F80914004909141040E94FE
:1023F000940487E292E00E94C40A42E06EE474E032
:1024000080914004909141040E945E0B811124C090
:1024100000914404109145040E948A0A8CE093E0E4
:102420000E94C40A8CE392E00E94520BC8010E94F1
:10243000540B89E391E00E94C40A61E087E00E94A6
:10244000A40268EE73E080E090E00E94100360E078
:1024500087E00E94A40202C0FF24F3942D853E85EC
:1024600080914E0490914F042817390709F062CFEC
:10247000F09283030AC06BEF72E0C8010E94AA1CAD
:10248000892B09F0EACD1092830360E088E00E9476
:10249000A4028FE592E00E94520B8091830390E0AA
:1024A0000E943A0B8DE692E00E94C40A83E892E013
:1024B0000E94520B80915C0490915D040E943A0B43
:1024C00080E992E00E94C40A02E514E0F8018191DB
:1024D00091918F010E943A0BF4E00C351F07B1F780
:1024E000CE0107960E94D00D67E573E0CE010796F6
:1024F0000E94010E8CE992E00E94C40A81EA92E0F7
:102500000E94C40A80915C0490915D0489329342D8
:1025100009F074C08DE893E00E944701181619066F
:102520007CF4CE0101960E94230CBE016F5F7F4FA9
:10253000CE0107960E94240DCE0101960E94D00D77
:102540008F8198850E94E4158A32E3E29E0771F13B
:102550008B32F3E29F07C1F18932934209F094C0B4
:1025600000915C0410915D040E94C50C26E636E6DD
:1025700046EE5FE30E94161920E030E040E052E4AE
:102580000E940C1AAB01BC019801CE0101960E9479
:102590000F074D815E8169817A818DE893E00E9409
:1025A0009A0CCE0101960E94D00D75C040E050E01B
:1025B0006AE273E28AE294E00E94D805882309F473
:1025C0006AC085EB92E00DC040E050E06BE273E240
:1025D0008AE294E00E94D805882309F45CC08BEB62
:1025E00092E00E94C40A0E94160E81EA92E00E94C4
:1025F000C40A8CE093E00E94C40A4DC0F0904F04DE
:10260000E0904E045F2D550F550B052F152F252FEC
:10261000352F452F60E080914004909141040E9445
:10262000EF0480914004909141040E948C0681EC5B
:1026300092E00E94C40A8FEF9FEF0E94BD0B87EDCE
:1026400092E00E94C40A41E0BE016F5F7F4F80911B
:102650004004909141040E94140400915C04109184
:102660005D040E94C50C26E636E646EE5FE30E9456
:10267000161920E030E040E052E40E940C1A20E0FD
:1026800030E0A8010E943E0867E573E0CE0107969E
:102690000E94AF0D37CFCE0107960E94D00D0E9449
:1026A000E70122CF09811A810E948A0A8CE093E017
:1026B0000E94C40A8CE392E00E94520BC8010E945F
:1026C000540B89E391E00E94C40A61E087E00E9414
:1026D000A40268EE73E080E090E00E94100360E0E6
:1026E00087E00E94A4021092510410925004F5CD8C
:1026F000CF93DF93282F30E0F901EE57FE4F8491FE
:10270000F901E655FE4FD491F901EA56FE4FC49106
:10271000CC2391F081110E94F101EC2FF0E0EE0F3B
:10272000FF1FE254FE4FA591B491EC91ED2381E09F
:1027300090E021F480E002C080E090E0DF91CF9152
:1027400008958F929F92AF92BF92CF92DF92EF92B5
:10275000FF920F931F93CF93DF93109290031092E9
:102760008F0388EE93E0A0E0B0E080939103909314
:102770009203A0939303B09394038AE091E0909323
:102780008E0380938D0385EC90E090939A03809361
:10279000990384EC90E090939C0380939B0380ECDE
:1027A00090E090939E0380939D0381EC90E0909342
:1027B000A00380939F0382EC90E09093A203809308
:1027C000A10386EC90E09093A4038093A30310925E
:1027D000A6031092A7031092A8031092A90389E000
:1027E00090E090937104809370048AE090E090935D
:1027F0007304809372041092760480E280937704CD
:102800001092780485E080937E0485E090E0A0E05B
:10281000B0E08093840490938504A0938604B093E1
:1028200087041092790486E0809363048BE08093A0
:102830006404E0EBF1E0E491E0936504ECE9F1E09D
:10284000E491E093660480E89EE3A0E0B0E080932A
:102850006B0490936C04A0936D04B0936E040E947B
:102860008A0A82E00E9478134C0183E00E94781368
:10287000D1E0892B09F4D0E084E00E947813C1E014
:10288000892B09F4C0E089E393E00E94C40A8928F7
:1028900039F4D1110CC0CC23A1F0CDE2D3E21CC09D
:1028A000D1110AC0CC2381F0CEE2D3E215C0CC23F3
:1028B00071F0CFE2D3E210C0CC2361F0C0E3D3E2E9
:1028C0000BC0C9E2D3E208C0CAE2D3E205C0CBE242
:1028D000D3E202C0CCE2D3E2D0935D04C0935C04A7
:1028E0008CE393E00E94C40AC93283E2D80799F0CE
:1028F000CE018A529342039788F0CD3283E2D80703
:1029000081F0CE3283E2D80779F0CF32D34279F02A
:102910008FE293E20EC08AE293E20BC089E293E277
:1029200008C08CE293E205C08DE293E202C08EE221
:1029300093E29093530480935204C0915C04D0912D
:102940005D048CE393E00E94C40ACE018952934255
:1029500082309105E0F002970297A0F0CD3283E239
:10296000D807A9F0CE3283E2D807B1F0CF3283E2A4
:10297000D807B9F0C033D342C1F4DEE2ED2ED3E282
:10298000FD2E13C0CAE2EC2EC3E2FC2E0EC0BBE249
:10299000EB2EB3E2FB2E09C0ACE2EA2EA3E2FA2E44
:1029A00004C0FDE2EF2EF3E2FF2EF0925504E09218
:1029B0005404C0915C04D0915D048CE393E00E94C8
:1029C000C40ACE01895293420397E0F0CC3283E2ED
:1029D000D807A9F0CD3283E2D80771F0CE3283E276
:1029E000D80769F0CF3283E2D80761F0C033D34211
:1029F00059F40DE213E208C00AE213E205C00BE24B
:102A000013E202C00CE213E2109357040093560441
:102A1000C0915C04D0915D048CE393E00E94C40AF1
:102A2000CE01895293420497A0F0CD3283E2D807B9
:102A3000A9F0CE3283E2D807B1F0CF3283E2D807D3
:102A4000B9F0C033D342C1F4ECE2AE2EE3E2BE2EC5
:102A500013C07DE2A72E73E2B72E0EC06EE2A62E43
:102A600063E2B62E09C05AE2A52E53E2B52E04C089
:102A70004BE2A42E43E2B42EB0925904A092580423
:102A8000C0915C04D0915D048CE393E00E94C40A81
:102A9000CE01895293428430910578F004970297D1
:102AA00088F0CF3283E2D80791F0C033D34299F453
:102AB0003BE2C32E33E2D32E0EC02EE2C22E23E21F
:102AC000D22E09C09FE2C92E93E2D92E04C08AE219
:102AD000C82E83E2D82ED0925B04C0925A04109282
:102AE00089041092880410928B0410928A048091B9
:102AF0005C0490915D0420E734E03093410420931E
:102B0000400428E834E03093430420934204909337
:102B10004F0480934E0490933F0480933E041092A0
:102B20005104109250048091520490915304909358
:102B300045048093440480915404909155049093EB
:102B400047048093460480915604909157049093D3
:102B500049048093480480915804909159049093BB
:102B60004B0480934A04D0924D04C0924C04DF91F0
:102B7000CF911F910F91FF90EF90DF90CF90BF907A
:102B8000AF909F908F900895EF920F931F93CF93E4
:102B9000DF93E80147FD02C034E001C034E1E42FD7
:102BA000440FFF0BF7FF03C0F195E195F109E32E08
:102BB000022F2E2FAE010E943A16CE01DF91CF9147
:102BC0001F910F91EF900895FC0188279927E894B1
:102BD00021912032E9F3293010F02E30C8F32B3246
:102BE00041F02D3239F4689404C00E941816820F07
:102BF000911D219120532A30C0F31EF490958195A8
:102C00009F4F08954532510520F4423010F00C9446
:102C10000D16FB011082CB010895BB274A3031F419
:102C2000992322F4BDE2909581959F4F0C94211633
:102C30007AE0979F902D879F802D910D1124089504
:102C4000BB27FB015527AA27880F991FAA1FA41786
:102C500010F0A41B83955051B9F7A05DAA3308F07A
:102C6000A95DA193009779F7B111B1931192CB01AE
:102C70000C94A0184F925F926F927F929F92AF92A6
:102C8000BF92CF92DF92EF92FF920F931F93CF9359
:102C9000DF93CDB7DEB729970FB6F894DEBF0FBE2E
:102CA000CDBF6A01122FB02E2BE3201720F0FF2496
:102CB000F394F00E02C0BCE3FB2E0F2D27E0AE0113
:102CC0004F5F5F4F0E94C817AC018981982F9970A0
:102CD000913031F0E1FC06C0E0FE06C090E205C094
:102CE0009DE203C09BE201C090E0EE2DE07183FF06
:102CF0003CC0911102C083E001C084E0811718F448
:102D0000212F281B01C020E0E1110BC0F601822F0A
:102D100030E2882319F031938150FBCFC20ED11CD1
:102D200020E0992329F0D6019C93F60131966F019A
:102D3000C6010396E2FE0AC03EE4D6013C9341E49C
:102D400011964C93119712963C9306C03EE6F601FD
:102D5000308341E641833283FC01322F40E233234A
:102D600009F442C041933150FACF82FF44C091111F
:102D700002C083E001C084E0811718F4212F281BD2
:102D800001C020E0E1110BC0F601822F30E2882360
:102D900019F031938150FBCFC20ED11C20E0992352
:102DA00029F0D6019C93F60131966F01C601039676
:102DB000E2FE0BC039E4D6013C933EE411963C930D
:102DC000119736E412963C9307C039E6F60130833A
:102DD0003EE6318336E63283FC01322F40E2332374
:102DE00019F041933150FBCFFC01E20FF11D10822D
:102DF0008EEF9FEFB7C0F1E0911101C0F0E06F2FAF
:102E000070E01416150624F49A012F5F3F4F02C09C
:102E100021E030E0260F371FBB2029F06B2D70E03A
:102E20006F5F7F4F02C060E070E0260F371F612F99
:102E300070E0261737071CF4121B212F01C020E079
:102E40003E2D387159F4D601322F60E2332319F048
:102E50006D933150FBCFC20ED11C20E0FF2331F027
:102E6000D6019C93B6016F5F7F4F6B01E1110BC0E0
:102E7000F601922F30E3992319F031939150FBCF53
:102E8000C20ED11C20E09F2D940F3A81782F7071D3
:102E9000A72E84FF03C0313309F49150191624F48E
:102EA000993018F098E001C091E0E42F852F57FF8A
:102EB00002C0E0E080E06E2F782FE0E0F0E0AEE2CC
:102EC0009A2E3A01691A71082A01461A570A0B2DDF
:102ED00010E01195019511096F3F8FEF780729F4E4
:102EE000D6019C92C60101966C014617570784F0E3
:102EF000661677066CF47F01E40CF51CA1E0B0E0E7
:102F0000AC0FBD1FEA0EFB1ED7011196BC9002C08C
:102F100090E3B92E615071093196C60101967C018A
:102F20006017710724F0D601BC926C01D5CF6417ED
:102F3000750741F4363320F4353321F4A11002C073
:102F400081E3B82EF601B082F701822F90E2882348
:102F500019F091938150FBCFF701E20FF11D108220
:102F600080E090E029960FB6F894DEBF0FBECDBF8B
:102F7000DF91CF911F910F91FF90EF90DF90CF9055
:102F8000BF90AF909F907F906F905F904F9008950B
:102F9000283008F027E03327DA01990F311D87FD2B
:102FA000916000966105710539F432602E5F3D93A2
:102FB00030E32A95E1F708959F3F30F0803871059E
:102FC000610509F03C5F3C5F3D93913008F08068FB
:102FD000911DDF93CF931F930F93FF92EF92192FC1
:102FE000987F9695E92F96959695E90FFF27EE53D2
:102FF000FF4F99273327EE24FF24A701E70105900F
:103000000894079428F4360FE71EF81E491F511D37
:10301000660F771F881F991F0694A1F705900794E4
:1030200028F4E70EF81E491F561FC11D770F881F91
:10303000991F661F0694A1F70590079428F4F80ECF
:10304000491F561FC71FD11D880F991F661F771F65
:103050000694A1F70590079420F4490F561FC71F47
:10306000D81F990F661F771F881F0694A9F78491B0
:103070001095177041F0D695C79557954795F794D9
:10308000E7941A95C1F7E8E6F0E068941590159179
:1030900035916591959105907FE27395E118F10A5C
:1030A000430B560BC90BD009C0F7E10CF11E431FAF
:1030B000561FC91FD01D7EF4703311F48A95E6CFD8
:1030C000E894015030F0080F0AF40027021708F4C2
:1030D000202F2395022F7A3328F079E37D932A95C8
:1030E000E9F710C07D932A9589F606949795679520
:1030F000379517951794E118F10A430B560BC90B36
:10310000D00998F023957E9173957A3308F070E397
:103110007C932013B8F77E9170617D9330F0839596
:1031200071E37D9370E32A95E1F71124EF90FF900E
:103130000F911F91CF91DF91992787FD9095089569
:10314000DC01FC01672F71917723E1F7329704C00E
:103150007C916D9370836291AE17BF07C8F3089599
:103160000E94F21808F481E00895E89409C097FBE2
:103170003EF490958095709561957F4F8F4F9F4F4E
:103180009923A9F0F92F96E9BB279395F695879592
:1031900077956795B795F111F8CFFAF4BB0F11F455
:1031A00060FF1BC06F5F7F4F8F4F9F4F16C08823FC
:1031B00011F096E911C0772321F09EE8872F762F32
:1031C00005C0662371F096E8862F70E060E02AF073
:1031D0009A95660F771F881FDAF7880F969587955F
:1031E00097F90895990F0008550FAA0BE0E8FEEF34
:1031F00016161706E807F907C0F012161306E407BB
:10320000F50798F0621B730B840B950B39F40A26B3
:1032100061F0232B242B252B21F408950A2609F491
:10322000A140A6958FEF811D811D08950E94291947
:103230000C949A190E948C1938F00E94931920F06E
:10324000952311F00C9483190C94891911240C9472
:10325000CE190E94AB1970F3959FC1F3950F50E002
:10326000551F629FF001729FBB27F00DB11D639F38
:10327000AA27F00DB11DAA1F649F6627B00DA11DDE
:10328000661F829F2227B00DA11D621F739FB00D84
:10329000A11D621F839FA00D611D221F749F3327F4
:1032A000A00D611D231F849F600D211D822F762F8D
:1032B0006A2F11249F5750409AF0F1F088234AF06A
:1032C000EE0FFF1FBB1F661F771F881F91505040D6
:1032D000A9F79E3F510580F00C9483190C94CE19E8
:1032E0005F3FE4F3983ED4F3869577956795B7955D
:1032F000F795E7959F5FC1F7FE2B880F911D969577
:10330000879597F9089597F99F6780E870E060E0E6
:1033100008959FEF80EC089500240A94161617066E
:1033200018060906089500240A94121613061406B6
:1033300005060895092E0394000C11F4882352F019
:10334000BB0F40F4BF2B11F460FF04C06F5F7F4FD1
:103350008F4F9F4F089557FD9058440F551F59F0B8
:103360005F3F71F04795880F97FB991F61F09F3F72
:1033700079F087950895121613061406551FF2CF9B
:103380004695F1DF08C0161617061806991FF1CFEB
:1033900086957105610508940895E894BB27662712
:1033A0007727CB0197F908952F923F924F925F9222
:1033B0006F927F928F929F92AF92BF92CF92DF9245
:1033C000EF92FF920F931F93CF93DF93CDB7DEB7AA
:1033D000CA1BDB0B0FB6F894DEBF0FBECDBF09943E
:1033E0002A88398848885F846E847D848C849B8495
:1033F000AA84B984C884DF80EE80FD800C811B81A3
:10340000AA81B981CE0FD11D0FB6F894DEBF0FBED1
:10341000CDBFED0108955058BB27AA270E94231A5B
:103420000C949A190E948C1938F00E94931920F07C
:1034300039F49F3F19F426F40C9489190EF4E095A1
:10344000E7FB0C948319E92F0E94AB1958F3BA17C4
:10345000620773078407950720F079F4A6F50C94AA
:10346000CD190EF4E0950B2EBA2FA02D0B01B9014A
:1034700090010C01CA01A0011124FF27591B99F0EA
:10348000593F50F4503E68F11A16F040A22F232FF6
:10349000342F4427585FF3CF469537952795A79546
:1034A000F0405395C9F77EF41F16BA0B620B730BED
:1034B000840BBAF09150A1F0FF0FBB1F661F771F5E
:1034C000881FC2F70EC0BA0F621F731F841F48F413
:1034D000879577956795B795F7959E3F08F0B0CF9C
:1034E0009395880F08F09927EE0F97958795089583
:1034F0000E94F21808F48FEF0895A1E21A2EAA1B79
:10350000BB1BFD010DC0AA1FBB1FEE1FFF1FA21793
:10351000B307E407F50720F0A21BB30BE40BF50B90
:10352000661F771F881F991F1A9469F76095709519
:10353000809590959B01AC01BD01CF010895EE0FE0
:10354000FF1F0590F491E02D0994CF93DF93823013
:10355000910510F482E090E0E0918F04F0919004E6
:1035600020E030E0C0E0D0E0309711F1408151819F
:1035700048175907C0F04817590761F482819381B1
:10358000209719F09B838A832BC09093900480939B
:103590008F0426C02115310519F04217530718F47E
:1035A0009A01BE01DF01EF010280F381E02DDCCF43
:1035B0002115310509F1281B390B2430310590F410
:1035C00012968D919C9113976115710521F0FB0165
:1035D0009383828304C09093900480938F04FD01B1
:1035E000329644C0FD01E20FF31F81939193225064
:1035F00031092D933C933AC020918D0430918E0473
:10360000232B41F4209102013091030130938E0469
:1036100020938D0420910001309101012115310585
:1036200041F42DB73EB74091040150910501241B90
:10363000350BE0918D04F0918E04E217F307A0F4AE
:103640002E1B3F0B2817390778F0AC014E5F5F4FF8
:103650002417350748F04E0F5F1F50938E04409398
:103660008D048193919302C0E0E0F0E0CF01DF91FF
:10367000CF9108950F931F93CF93DF93009709F491
:103680008CC0FC0132971382128200918F0410913A
:1036900090040115110581F420813181820F931F5F
:1036A00020918D0430918E042817390779F5F09315
:1036B0008E04E0938D0471C0D80140E050E0AE1755
:1036C000BF0750F412962D913C911397AD0121152F
:1036D000310509F1D901F3CF9D01DA01338322834A
:1036E00060817181860F971F8217930769F4EC013F
:1036F00028813981260F371F2E5F3F4F318320836A
:103700008A819B8193838283452B29F4F0939004D3
:10371000E0938F0442C01396FC93EE931297ED0151
:10372000499159919E01240F351FE217F30771F457
:1037300080819181840F951F029611969C938E93A0
:103740008281938113969C938E931297E0E0F0E030
:10375000D80112968D919C911397009719F0F8015A
:103760008C01F6CF8D919C9198012E5F3F4F820F77
:10377000931F20918D0430918E042817390769F426
:10378000309729F41092900410928F0402C0138293
:10379000128210938E0400938D04DF91CF911F91BC
:1037A0000F910895A0E0B0E0E8EDFBE10C94D8198A
:1037B000EC01009721F4CB010E94A51AB8C0FC01CE
:1037C000E60FF71F9C0122503109E217F30708F4B6
:1037D000ACC0D9010D911C91119706171707B0F0D5
:1037E0000530110508F49FC0C80104978617970794
:1037F00008F499C002501109061B170B019311938D
:103800006D937C93CF010E943A1B8DC05B01A01A7F
:10381000B10A4C01800E911EA0918F04B0919004CA
:1038200040E050E0E12CF12C109709F44AC0A815B3
:10383000B905D1F56D907C901197630182E0C80EB7
:10384000D11CCA14DB0480F1A3014A195B096A0187
:1038500082E0C80ED11C1296BC9012971396AC91C0
:10386000B5E0CB16D10440F0B282A38351834083EC
:10387000D9016D937C930AC00E5F1F4FC301800F67
:10388000911FF90191838083EB2DFA2FE114F1044C
:1038900031F0D7011396FC93EE93129744C0F09346
:1038A0009004E0938F043FC08D919C91119748172D
:1038B000590708F4AC017D0112960D90BC91A02D22
:1038C000B3CF80918D0490918E0488159905E1F411
:1038D00046175707C8F480910001909101010097A5
:1038E00041F48DB79EB74091040150910501841BAE
:1038F000950BE817F907C8F4F0938E04E0938D0454
:10390000F901718360830FC0CB010E94A51A7C016D
:10391000009759F0A801BE010E94A11CCE010E948F
:103920003A1BC70104C0CE0102C080E090E0CDB7D1
:10393000DEB7EEE00C94F41981E090E0F8940C947A
:10394000BA1CFB01DC0102C001900D9241505040B5
:10395000D8F70895FB01DC018D91019080190110C9
:10396000D9F3990B0895FB01DC0101900D92002021
:08397000E1F70895F894FFCF80
:10397800000091048000000000007E019A0C1601EE
:10398800C501470125013901696E20736574757099
:10399800004641494C454420544F20534554204447
:1039A80041544120524154452121210074727565CA
:1039B8000053656E64696E672070696E67732E2E9A
:1039C8002E0052656365697665642061636B6E6F6E
:1039D800776C656467652E2E2E004552524F522033
:1039E800303038212120496E636F7272656374200C
:1039F80061636B6E6F776C656467656D656E742067
:103A080070696E67207265636965766564206672A1
:103A18006F6D20004552524F5220303037212120FF
:103A28004E6F2061636B6E6F776C656467656D655B
:103A38006E742070696E6720726563696576656467
:103A48002066726F6D200057616974696E67206621
:103A58006F722070696E67732E2E2E005265636533
:103A68006976696E6720446174612E2E2E00455276
:103A7800524F522030303921212054696D65206F12
:103A8800757421204E6F2070696E672072656365BA
:103A98006976656421210053656E64696E672050FC
:103AA800696E67206261636B2E2E2E004552524F5D
:103AB8005220303033212120556E61626C652074AC
:103AC8006F20636F6E7461637420687562200050A4
:103AD800696E67207374617475733A20002F2F2FF5
:103AE8002F2F2F2F2F2F2F2F2F2F2F2F2F2F2F2FDE
:103AF8002F2F004D7920416464726573733A20005A
:103B0800526561642052616E67653A005656565692
:103B1800005F5F5F5F5F5F5F5F5F5F5F5F5F5F5F0C
:103B28005F5F5F5F00393030323A00393030333A06
:103B380000576169746E6720666F722072657175CF
:103B48006573742E2E2E00476F742E2E2E0053751B
:103B5800636365737366756C20636F6E74616374F9
:103B6800207769746820687562200066616C7365E7
:103B78000053656E64696E6720746F3A2000666F43
:103B88007277617264416464726573733A2000539A
:103B980000547279696E6720726571756573742057
:103BA800616761696E2E2E2E00303100303200457B
:103BB80052524F5200547279696E67206167616989
:103BC8006E2E2E2E000D0A004552524F52203031D3
:103BD8003021212054696D65206F757421204E6F46
:103BE800206461746120726563656976656421216A
:023BF8000000CB
:00000001FF
