:100000000C94E8000C9410010C9410010C94100155
:100010000C9410010C9410010C9410010C9410011C
:100020000C9410010C9410010C9410010C9410010C
:100030000C9410010C9410010C9410010C941001FC
:100040000C94A7080C9410010C94C3070C949D0702
:100050000C9410010C9410010C9410010C941001DC
:100060000C9410010C9410010000000024002700E3
:100070002A000000000023002600290000010203DE
:10008000040504040404040404040202020202023B
:10009000030303030303010204081020408001024C
:1000A0000408102001020408102011121314151660
:1000B0000A0B0C0D0E0F00000000250028002B007D
:1000C0000000000800020100000304070000000017
:1000D0000000000000407A10F35A00A0724E180988
:1000E0000010A5D4E80000E87648170000E40B549F
:1000F000020000CA9A3B000000E1F505000080966E
:100100009800000040420F000000A086010000009F
:10011000102700000000E803000000006400000059
:1001200000000A00000000000100000000002C7622
:10013000D888DC674F0823DFC1DFAE59E1B1B7963D
:10014000E5E3E453C63AE651997696E8E6C284269A
:10015000EB898C9B62ED407C6FFCEFBC9C9F40F276
:10016000BAA56FA5F490055A2AF75C936B6CF967F2
:100170006DC11BFCE0E40D47FEF520E6B500D0EDB7
:10018000902E0300943577050080841E080000201F
:100190004E0A000000C80C333333330F986E1283BD
:1001A0001141EF8D2114893BE65516CFFEE6DB1891
:1001B000D1844B381BF77C1D901DA4BBE424203256
:1001C00084725E228100C9F124ECA1E53D272C1048
:1001D00011241FBECFEFD8E0DEBFCDBF11E0A0E0FD
:1001E000B1E0E4E9F1E302C005900D92AA32B10753
:1001F000D9F722E0AAE2B1E001C01D92A433B20710
:10020000E1F710E0C8EED0E004C02197FE010E94A3
:10021000FF11C73ED107C9F70E948A0B0C94C8187A
:100220000C9400008F929F92AF92BF92CF92DF9278
:10023000EF92FF92CF93DF93A091F601882311F004
:100240003A2F01C030E08091F70190E0880F991FAC
:100250008E589F4FC090FC01D090FD01E090FE01B0
:10026000F090FF0140E050E0BA01FC01C591D4914B
:1002700028812A2323130FC04A015B012FEF821A22
:10028000920AA20AB20A4C155D056E057F0538F484
:10029000B501A401EACF342F252FCB0104C030E0F3
:1002A00020E080E090E0632F722FDF91CF91FF90EC
:1002B000EF90DF90CF90BF90AF909F908F90089578
:1002C0000F931F930E949B08609335017093360132
:1002D0008093370190933801E0912D01F0912E0128
:1002E0000680F781E02D8DE291E0099597FF1FC010
:1002F0000E949B0800913501109136012091370131
:1003000030913801DC01CB01801B910BA20BB30BA8
:10031000009131011091320120913301309134016B
:1003200080179107A207B307B8F28FEF9FEF1F91D5
:100330000F910895CF92DF92EF92FF920F931F9348
:10034000CF93DF93CDB7DEB7C054D1400FB6F8944A
:10035000DEBF0FBECDBF0E949B080091F801109137
:10036000F9012091FA013091FB016B017C01C01A67
:10037000D10AE20AF30A40EDC41647E0D406E104CC
:10038000F10418F480910002BCC06093F8017093EE
:10039000F9018093FA019093FB011092F3011092FE
:1003A000F2011092F1011092F0011092EF0161E060
:1003B0008091F4010E94F5076AEF70E080E090E020
:1003C0000E94610861E08091F4010E94250860E0CC
:1003D0008091F4010E94F50764E170E080E090E014
:1003E0000E946108F89461E08091F4010E94F50791
:1003F0008BE990E00197F1F762E08091F4010E94AF
:10040000250883E290E00197F1F780E00E94120155
:10041000672B682B692B21F41092000278943EC060
:1004200081E00E941201672B682B692BA9F38E01D2
:100430000F5F1F4F6E018FEBC81A8EEFD80A78013D
:1004400080E00E941201F7016083718382839383AD
:1004500081E00E941201F70164837583868397838C
:10046000F8E0EF0EF11CEC14FD0451F7789420E055
:1004700030E0F8014081518162817381C480D58070
:10048000E680F780411551056105710529F0C11419
:10049000D104E104F10421F41092000280E031C0A3
:1004A000F90183E0F595E7958A95E1F7E151FE4F73
:1004B0008081880F4C155D056E057F0508F481600D
:1004C00080832F5F3F4F085F1F4F2832310589F629
:1004D0002091F30130E04091EF018091F00190E034
:1004E000840F911D4091F101840F911D4091F20103
:1004F000840F911D99272817390771F681E08093A1
:100500000002C05CDE4F0FB6F894DEBF0FBECDBF59
:10051000DF91CF911F910F91FF90EF90DF90CF90DF
:1005200008950F931F93CF93DF93EC0188819981F6
:10053000009729F02A813B812617370788F48B0121
:100540006F5F7F4F0E94A413009761F099838883A7
:100550001B830A832C813D81232B11F4FC01108223
:1005600081E001C080E0DF91CF911F910F9108954C
:10057000EF92FF920F931F93CF93DF93EC017B01D8
:100580008A01BA010E9491022881398181110DC02E
:100590002115310519F0C9010E940C131982188226
:1005A0001D821C821B821A8206C01D830C83B70128
:1005B000C9010E948514CE01DF91CF911F910F9147
:1005C000FF90EF900895EDE2F1E0A089B18982E01B
:1005D0008C93A485B5851C92A685B7858FEC8C93EA
:1005E000108EA489B58986E08C93A289B3898C91F9
:1005F00080618C93A289B3898C9188608C93A28945
:10060000B3898C9180688C930288F389E02D808176
:100610008F7D80830895CF92DF92EF92FF920F93A8
:100620001F93CF93DF9300D0CDB7DEB78C01FC01D1
:100630009781D42E941708F4D92EF8018085811162
:1006400003C0C92ECD1801C0C12CC80169837A83AB
:100650000E94180980EA0E941B096981E62E7A81AE
:10066000F72ED60EDE1431F0F70181917F010E9442
:100670001B09F8CFCC2029F080E00E941B09CA9406
:10068000F9CFC8010E94150961E0C8010E94F10874
:100690006FEFC8010E9422098073D1F360E0C801A6
:1006A0000E94F10840E767E0C8010E94410984FF09
:1006B00005C0C8010E943E0980E001C081E00F90A2
:1006C0000F90DF91CF911F910F91FF90EF90DF90EE
:1006D000CF900895CF93DF93EC0162E00E94200A4F
:1006E000ECE7F0E0E49121E030E001C0220FEA9570
:1006F000EAF72095422F482362E0CE01DF91CF91A7
:100700000C944109CF92DF92EF92FF92CF930E9417
:100710009A018823D1F18091F5018B3029F0A8F15D
:100720008551823048F031C06091F10170E080E085
:1007300090E00E9472172DC0C091F1016C2F6F776D
:1007400070E080E090E00E94741720E030E040E824
:1007500053E40E94D3176B017C018091F201682F52
:1007600070E080E090E00E9474179B01AC01C7012B
:10077000B6010E9406122DEC3CEC4CEC5DE30E94AD
:10078000D317C7FF06C0905804C060E070E080EC4B
:100790009FE7CF91FF90EF90DF90CF9008950F9358
:1007A0001F93CF93C82F192F8091DD019091DE0107
:1007B0000E94F40A0C2F712F770F770B272F372FFA
:1007C000472F572F672F8091DD019091DE010E9406
:1007D000E50961E088E00E94F50742E061E271E02E
:1007E0008091DD019091DE010E940B03C82F8823C8
:1007F00059F060E088E00E94F5078091DD0190915A
:10080000DE010E94B60A14C00E94E30261E087E0A4
:100810000E94F50768EE73E080E090E00E946108B6
:1008200060E087E00E94F50760E088E00E94F5073D
:100830008C2FCF911F910F910895CF93DF93EC01EF
:100840006115710559F0FB0101900020E9F731971E
:10085000AF01461B570B0E94B8020CC088819981DA
:10086000009711F00E940C13198218821D821C82BD
:100870001B821A82CE01DF91CF9108950F931F93AF
:10088000CF93DF938C01EB01FC0180819181009774
:10089000B1F0688179816115710579F042815381E8
:1008A0002C813D814217530740F00E9485148C81B2
:1008B0009D81F8019583848313C00E940C13888165
:1008C0009981F801918380838A819B8193838283BC
:1008D0008C819D8195838483198218821B821A8260
:1008E0001D821C82DF91CF911F910F910895FC0111
:1008F000808191810C940C13FC011182108213826F
:100900001282158214826115710551F0FB0101906C
:100910000020E9F73197AF01461B570B0C94B80242
:100920000895EF92FF920F931F93CF93DF9300D020
:10093000CDB7DEB78C0168E271E00E947C040E94B2
:10094000600197FD1EC089831A82F801E480F5805A
:10095000FFEFEF1AFF0AB701C8010E949102882336
:1009600071F3F8012081318184819581BE016F5F2F
:100970007F4F820F931F0E948514F801F582E48255
:10098000DECFC8010F900F90DF91CF911F910F9193
:10099000FF90EF9008958F929F92AF92BF92CF9267
:1009A000DF92EF92FF920F931F93CF93DF93CDB718
:1009B000DEB7E3970FB6F894DEBF0FBECDBF7C0164
:1009C0004A015B016901C80189529342873E934005
:1009D000C0F480E1C81687E2D80698F420E030E041
:1009E000A901C501B4010E946D1787FD0AC020E06E
:1009F0003CE34CE156E4C501B4010E9472121816A2
:100A000034F463E271E0C7010E947C04E6C068E24E
:100A100071E0CE018E960E947C0468E271E0CE0106
:100A200088960E947C041BA21AA21DA21CA21FA2CF
:100A30001EA24AE0BE016F5F7F4FC8010E94CA1428
:100A4000BE016F5F7F4FCE0182960E941D04BE01E2
:100A50006E5D7F4FCE018E960E943E04CE0182963F
:100A60000E9477044AA95BA92EA53FA56AEC71E014
:100A7000E0E0F0E0E417F50718F42115310529F45A
:100A800010922C018CE291E003C0C9018E0F9F1FD0
:100A9000DC018C91DB018D93BD013196E430F105D1
:100AA00049F78DE28093CE011BA21AA21DA21CA2BF
:100AB0001FA21EA28E010F5F1F4F22E044E0C5015E
:100AC000B4010E948C14BC01CE0182960E941D04C8
:100AD000BE016E5D7F4FCE018E960E943E04CE0118
:100AE00082960E9477046AA97BA98EA59FA540E003
:100AF00050E04617570710F4009729F410922C0184
:100B0000ECE2F1E003C0FC01E40FF51F2081FA01E3
:100B1000E653FE4F25834F5F5F4F4530510549F740
:100B20008DE28093D4011BA21AA21DA21CA21FA2B7
:100B30001EA24AE0BE016F5F7F4FC6010E94CA1429
:100B4000BE016F5F7F4FCE0182960E941D04BE01E1
:100B50006E5D7F4FCE018E960E943E04CE0182963E
:100B60000E9477044AA95BA98EA59FA520E030E0EA
:100B70002417350791F0009729F410922C01ECE22C
:100B8000F1E003C0FC01E20FF31F6081F901E653BD
:100B9000FE4F63872F5F3F4FEBCFF901E653FE4FC8
:100BA00088E783876AEC71E0CE0188960E941D0475
:100BB000F701118210821382128215821482BE0103
:100BC000685D7F4FC7010E943E04CE0188960E9457
:100BD0007704CE018E960E947704C701E3960FB684
:100BE000F894DEBF0FBECDBFDF91CF911F910F9163
:100BF000FF90EF90DF90CF90BF90AF909F908F903D
:100C00000895CF92DF92EF92FF920F931F93CF93AD
:100C1000DF93CDB7DEB767970FB6F894DEBF0FBE90
:100C2000CDBFCE0101966C0181E1F60111928A954A
:100C3000E9F768E271E0CE0142960E947C04F090F0
:100C4000EC01E090EB015F2D550F550B052F152F93
:100C5000252F352F452F60E08091DD019091DE0139
:100C60000E94400A8091DD019091DE010E94290BD3
:100C70008091DD019091DE010E94B00A8823C1F3CA
:100C800041E1B6018091DD019091DE010E9465098C
:100C9000B601CE0142960E941D0462EE8091DD01F4
:100CA0009091DE010E9422098091DD019091DE0188
:100CB0000E946A034E895F896A897B898DE291E08F
:100CC0000E945F0BCE0142960E94770481E06796F6
:100CD0000FB6F894DEBF0FBECDBFDF91CF911F914D
:100CE0000F91FF90EF90DF90CF900895FC01918DD0
:100CF000828D981761F0828DDF01A80FB11D5D967E
:100D00008C91928D9F5F9F73928F90E008958FEFEB
:100D10009FEF0895FC01918D828D981731F0828D9F
:100D2000E80FF11D858D90E008958FEF9FEF0895F6
:100D3000FC01918D228D892F90E0805C9F4F821B5A
:100D400091098F73992708958DE291E00E9498068A
:100D500021E0892B09F420E0822F0895FC01848D85
:100D6000DF01A80FB11DA35ABF4F2C91848D90E0D5
:100D700001968F739927848FA689B7892C93A089B0
:100D8000B1898C9180648C93938D848D981306C067
:100D90000288F389E02D80818F7D80830895EF9212
:100DA000FF920F931F93CF93DF93EC0181E0888F25
:100DB0009B8D8C8D981305C0E889F989808185FD0C
:100DC00024C0F62E0B8D10E00F5F1F4F0F731127FD
:100DD000E02E8C8DE8120CC00FB607FCFACFE88924
:100DE000F989808185FFF5CFCE010E94AE06F1CF53
:100DF0008B8DFE01E80FF11DE35AFF4FF0820B8F40
:100E0000EA89FB898081806207C0EE89FF8960835F
:100E1000E889F98980818064808381E090E0DF91B6
:100E2000CF911F910F91FF90EF900895CF93DF9393
:100E3000EC01888D8823C9F0EA89FB89808185FDD2
:100E400005C0A889B9898C9186FD0FC00FB607FC33
:100E5000F5CF808185FFF2CFA889B9898C9185FF74
:100E6000EDCFCE010E94AE06E7CFDF91CF9108957E
:100E700080E090E0892B29F00E94A40681110C9457
:100E800000000895833081F028F4813099F0823099
:100E9000A1F008958730A9F08830B9F08430D1F4FA
:100EA000809180008F7D03C0809180008F77809338
:100EB0008000089584B58F7702C084B58F7D84BD8E
:100EC00008958091B0008F7703C08091B0008F7D2E
:100ED0008093B00008958230910538F0880F991FF3
:100EE000880F991F05970197F1F708953FB7F89478
:100EF00080912C0290912D02A0912E02B0912F0290
:100F000026B5A89B05C02F3F19F00196A11DB11D64
:100F10003FBFBA2FA92F982F8827820F911DA11D9F
:100F2000B11DBC01CD0142E0660F771F881F991FDC
:100F30004A95D1F708950E946E141F920F920FB632
:100F40000F9211242F933F934F935F936F937F934F
:100F50008F939F93AF93BF93EF93FF938DE291E0B5
:100F60000E94AE06FF91EF91BF91AF919F918F913B
:100F70007F916F915F914F913F912F910F900FBE95
:100F80000F901F9018951F920F920FB60F92112479
:100F90002F938F939F93EF93FF93E0913D01F091F7
:100FA0003E018081E0914301F091440182FD12C035
:100FB0009081809146018F5F8F7320914701821746
:100FC00051F0E0914601F0E0E35DFE4F958F809394
:100FD000460101C08081FF91EF919F918F912F91E8
:100FE0000F900FBE0F901F9018951F93CF93DF9314
:100FF000282F30E0F901E054FF4F8491F901EA56BF
:10100000FF4FD491F901EE57FF4FC491CC23C9F0A3
:10101000162F81110E944207EC2FF0E0EE0FFF1F08
:10102000EA54FF4FA591B4918FB7F894111105C000
:101030009C91ED2FE095E92302C0EC91ED2BEC9310
:101040008FBFDF91CF911F910895CF93DF9390E0F1
:10105000FC01EA56FF4F2491FC01EE57FF4F8491AB
:10106000882361F190E0880F991FFC01E859FF4F38
:10107000C591D491FC01EA54FF4FA591B49161113F
:1010800009C09FB7F8948881209582238883EC91CA
:101090002E230BC0623061F49FB7F8943881822F01
:1010A000809583238883EC912E2B2C939FBF06C0C1
:1010B0008FB7F894E8812E2B28838FBFDF91CF91D3
:1010C00008958F929F92AF92BF92CF92DF92EF924C
:1010D000FF926B017C010E9476074B015C01C114F9
:1010E000D104E104F104F1F00E947607DC01CB01A8
:1010F00088199909AA09BB09883E9340A105B10541
:1011000070F321E0C21AD108E108F10888EE880ED8
:1011100083E0981EA11CB11CC114D104E104F104A8
:1011200019F7DDCFFF90EF90DF90CF90BF90AF9099
:101130009F908F9008952FB7F89460912802709136
:10114000290280912A0290912B022FBF08951F92AD
:101150000F920FB60F9211242F933F938F939F936B
:10116000AF93BF938091280290912902A0912A0207
:10117000B0912B023091270223E0230F2D3720F46A
:101180000196A11DB11D05C026E8230F0296A11DE1
:10119000B11D209327028093280290932902A093E7
:1011A0002A02B0932B0280912C0290912D02A091E3
:1011B0002E02B0912F020196A11DB11D80932C0229
:1011C00090932D02A0932E02B0932F02BF91AF9166
:1011D0009F918F913F912F910F900FBE0F901F9075
:1011E0001895FC012081318182819381281739076C
:1011F00019F0822F0C94F5070895CF93DF93EC013B
:101200009CB59F7D9CBD9CB5937F9CBD9CB59C7FF0
:101210009CBD9DB591609DBD8A810E94F5078C891A
:101220009D89DF91CF910C946B0761E00C94FD08D0
:1012300060E00C94FD088EBD00000DB407FEFDCFEC
:101240008EB50895EF92FF921F93CF93DF931F9275
:10125000CDB7DEB77C0169830E9418096981862FAA
:101260000E941B09182FC7010E941509812F0F909A
:10127000DF91CF911F91FF90EF90089561EE0C9454
:101280002209EF92FF921F93CF93DF9300D0CDB747
:10129000DEB77C014A8369830E9418096981862F21
:1012A0008F7180620E941B09182F4A81842F0E942F
:1012B0001B09C7010E941509812F0F900F90DF9124
:1012C000CF911F91FF90EF900895CF92DF92EF9210
:1012D000FF920F931F93CF93DF9300D0CDB7DEB76C
:1012E0008C01FC019781C42E941708F4C92EF801D3
:1012F0008085811103C0D92EDC1801C0D12CC80112
:1013000069837A830E94180981E60E941B0969811A
:10131000E62E7A81F72EC60ECE1439F08FEF0E949A
:101320001B09F70181937F01F7CFDD2029F08FEFB3
:101330000E941B09DA94F9CFC8010E94150940E701
:1013400067E0C8010F900F90DF91CF911F910F912F
:10135000FF90EF90DF90CF900C944109CF92DF92F5
:10136000EF92FF920F931F93CF93DF9300D01F92C2
:10137000CDB7DEB77C01142F2A835B8369830E947B
:1013800018096981862F8F7180620E941B09082FBE
:10139000C12E5B81D52E2A81120F1C1531F0F6016A
:1013A00081916F010E941B09F8CFC7010E941509A6
:1013B000802F0F900F900F90DF91CF911F910F9181
:1013C000FF90EF90DF90CF900895EF92FF920F93F0
:1013D0001F93CF93DF93CDB7DEB728970FB6F8945E
:1013E000DEBF0FBECDBF7C0109831A832B833C83F4
:1013F0004D835E836F837887FC012685AE014F5F46
:101400005F4F6AE00E94AE09F7012685AE014F5F8B
:101410005F4F60E1C7010E94AE09F701478161E1BA
:10142000C7010E94410928960FB6F894DEBF0FBE8F
:10143000CDBFDF91CF911F910F91FF90EF90089555
:10144000EF92FF921F93CF93DF931F92CDB7DEB73A
:101450007C0169830E9418096981862F8F710E941F
:101460001B098FEF0E941B09182FC7010E94150945
:10147000812F0F90DF91CF911F91FF90EF900895F2
:10148000AF92BF92DF92EF92FF920F931F93CF9391
:10149000DF93CDB7DEB728970FB6F894DEBF0FBE47
:1014A000CDBF5C01D62EE982FA820B831C832D838B
:1014B0003E834F83588761110AC0FC01468550E086
:1014C000BE016F5F7F4F09960E94731407C0F6E05C
:1014D000F61708F435C081E0681308C0ED2DF0E080
:1014E000E055FF4F6491F501268506C0E62FF0E038
:1014F000E055FF4F649121E0AE014F5F5F4FC501A2
:101500000E94AE090D2D10E0F801E655FF4F6491E1
:10151000F5014781C5010E94410962E0C5010E94B1
:10152000200AF801E458FF4FE49141E050E001C087
:10153000440FEA95EAF7482B62E0C5010E94410991
:1015400028960FB6F894DEBF0FBECDBFDF91CF91C6
:101550001F910F91FF90EF90DF90BF90AF90089593
:1015600067E10E94200A809581700895CF93DF93F0
:10157000EC0167E1CE010E94200A84FD14C06FEFE8
:10158000CE010E94220984FFF4CF40E167E0CE0142
:101590000E94410960E0CE010E94F108CE010E9444
:1015A0003E0980E005C060E0CE010E94F10881E0C4
:1015B000DF91CF910895CF93DF93EC0160E00E941B
:1015C000200A81FD0EC0482F426060E0CE010E94DB
:1015D000410965E070E080E090E0DF91CF910C94EC
:1015E0006108DF91CF910895CF93DF93EC0160E024
:1015F0000E94F108888999890E946B076DE1CE01EC
:101600000E94200A81FF07C0888999890E946B0780
:10161000CE010E943E0960E0CE010E94200A482FC0
:101620004E7F60E0CE010E94410962E0CE010E943F
:10163000200AECE7F0E0E49141E050E001C0440F03
:10164000EA95EAF7482B62E0CE01DF91CF910C9446
:101650004109CF93DF93EC010E94DB0A60E0CE01E9
:101660000E94200A482F416060E0CE010E9441099B
:1016700040E767E0CE010E94410961E0CE010E948F
:10168000F1088985882349F02E85AE01475F5F4FB9
:101690006AE0CE010E94AE0903C0CE010E946A0337
:1016A0006DE1CE010E94200A81FF05C0CE01DF91CD
:1016B000CF910C943E09DF91CF9108950895CF9278
:1016C000DF92EF92FF920F931F93CF93DF936C0102
:1016D0007A018B01C0E0D0E0CE15DF0589F0D8019A
:1016E0006D918D01D601ED91FC910190F081E02D7D
:1016F000C6010995892B11F47E0102C02196ECCF19
:10170000C701DF91CF911F910F91FF90EF90DF9074
:10171000CF900895CF93DF93CDB7DEB762970FB622
:10172000F894DEBF0FBECDBF789484B5826084BDCF
:1017300084B5816084BD85B5826085BD85B58160D5
:1017400085BD80916E00816080936E001092810053
:10175000809181008260809381008091810081600E
:1017600080938100809180008160809380008091CF
:10177000B10084608093B1008091B000816080935B
:10178000B00080917A00846080937A0080917A0022
:10179000826080937A0080917A00816080937A00E1
:1017A00080917A00806880937A001092C1000E9434
:1017B000E302809101029091020220910302309194
:1017C00004028217930719F061E00E9425088091B6
:1017D0000302909104022091010230910202281725
:1017E000390719F061E00E9425081FB7F89480912D
:1017F0002A01811127C0ECE8F0E08491E0EAF0E0F2
:101800009491E82FF0E0EE0FFF1FE859FF4FA591EC
:10181000B491EC91E92321F461E08AE00E94F5079C
:1018200061E08AE00E9425088CB580618CBD8CB592
:1018300080648CBD61E08DE00E94250861E08BE052
:101840000E94250880912A018F5F80932A011FBF83
:1018500060E081E092E00E94F10861E081E092E0C6
:101860000E94FD0865E070E080E090E00E94610861
:101870004CE060E081E092E00E9441094FE564E0C5
:1018800081E092E00E94410966E081E092E00E94DE
:10189000200A877D182F10628BE990E0A0E0B0E06D
:1018A0008093110290931202A0931302B09314023A
:1018B000412F66E081E092E00E94410966E081E00C
:1018C00092E00E94200A811709F448C366E081E093
:1018D00092E00E94200A66E081E092E00E94200AE5
:1018E00045E550E060E070E0409311025093120231
:1018F0006093130270931402482F477D66E081E0E5
:1019000092E00E94410966E081E092E00E94200A94
:1019100081E092E00E94180980E50E941B0983E79C
:101920000E941B0981E092E00E94150940E06DE1F0
:1019300081E092E00E94410940E06CE181E092E0A8
:101940000E9441091092090240E767E081E092E0BD
:101950000E9441094CE465E081E092E00E94410967
:1019600062EE81E092E00E94220981E092E00E9412
:101970003E0981E092E00E94DB0A60E081E092E0B3
:101980000E94200A482F4E7F60E081E092E00E9492
:10199000410968EC70E080E090E00E94610862E03C
:1019A0008091F4010E94250880E398EFAFEFBFEF2C
:1019B0008093F8019093F901A093FA01B093FB0191
:1019C00060E082E00E94250860E083E00E94250834
:1019D00060E084E00E94250860E085E00E94250820
:1019E00061E087E00E94250861E088E00E94250808
:1019F00061E088E00E94F5070E949B086B0120E3EC
:101A0000C21A28EFD20A68E271E0CE0107960E945E
:101A10007C048DE291E00E9416070D2C000CEE086C
:101A2000FF080E949B086C157D058E059F0570F0D0
:101A30008091EB019091EC018932E3E29E0709F07D
:101A4000DBC08AECC82E81E0D82E24C08DE291E064
:101A50000E9498061816190624F7CE0101960E94D6
:101A60009104BE016F5F7F4FCE0107960E943E0436
:101A7000CE0101960E9477048B859C85892BC1F24B
:101A8000EF80F88466E171E0C7010E947C14892B25
:101A900079F236C11A8219828091DD019091DE01BE
:101AA0000E94F40AF601108D0789712F770F770BCA
:101AB000272F372F472F572F672F8091DD019091C8
:101AC000DE010E94E509F6018789908D9A8389835A
:101AD00042E0BE016F5F7F4F8091DD019091DE019A
:101AE0000E940B03882309F460C068EC70E080E07A
:101AF00090E00E94610842E06BEE71E08091DD01B0
:101B00009091DE010E940B03882309F44EC01A82D3
:101B10001982F601A788B08CF090EC01E090EB01FF
:101B20005F2D550F550B052F152F252F352F452FC1
:101B300061E08091DD019091DE010E94400A809178
:101B4000DD019091DE010E94290B0E949B088B0110
:101B500008511C4F2801012E000C6608770880915F
:101B6000DD019091DE010E94B00A811107C00E9440
:101B70009B08641575058605970588F38091DD013E
:101B80009091DE010E94B00A882301F142E0BE017B
:101B90006F5F7F4F8091DD019091DE010E946509AA
:101BA00089819A818A159B05E1F00E94E30261E038
:101BB00087E00E94F50768EE73E080E090E00E9405
:101BC000610860E087E00E94F5070BC00E949B0857
:101BD000012E000C220B330B0617170728073907B5
:101BE00020F3F2E0CF0ED11C24EDC21621E0D20684
:101BF00009F050CFF12C81C01E861D861A821982F1
:101C0000592F550F550B7C01052F152F252F352FDB
:101C1000452F61E08091DD019091DE010E94400A34
:101C20008091DD019091DE010E94290BF12C0E9430
:101C30009B088B01005D1A484801012E000CAA0880
:101C4000BB088091DD019091DE010E94B00A8111F4
:101C500007C00E949B08681579058A059B0588F3D3
:101C60008091DD019091DE010E94B00A882309F481
:101C700079C142E0BE01635F7F4F8091DD019091A9
:101C8000DE010E9465090E949B088B01005D1A48D5
:101C90004801012E000CAA08BB088091DD0190913B
:101CA000DE010E94B00A882309F479C18091DD0128
:101CB0009091DE010E94B00A882309F479C142E0C4
:101CC000BE016F5F7F4F8091DD019091DE010E9428
:101CD00065092D853E858091EB019091EC012817D7
:101CE000390709F482C12D853E858091EB019091E1
:101CF000EC012817390709F09ACFF0922B010AC09E
:101D00006BE171E0C7010E947C14892B09F090CE31
:101D100010922B0160E088E00E94F507CE01079643
:101D20000E94770468E271E0CE010D960E947C0467
:101D30008091ED019091EE018932934209F05AC0F1
:101D40008DE291E00E949806181619067CF4CE01E7
:101D500001960E949104BE016F5F7F4FCE010D96E8
:101D60000E943E04CE0101960E9477048D859E85D7
:101D70000E94AC148A32F3E29F0779F18B3223E29E
:101D80009207A9F18932934209F0DAC00091ED017E
:101D90001091EE010E94820326E636E646EE5FE3EE
:101DA0000E94D31720E030E040E052E40E94061287
:101DB000AB01BC0124E030E0CE0101960E94CB04CF
:101DC0004D815E8169817A818DE291E00E945F0B95
:101DD000CE0101960E947704BAC08AE293E20E9483
:101DE000CF03882309F4B3C00E940106B0C08BE280
:101DF00093E2F5CFF090EC01E090EB015F2D550FF1
:101E0000550B052F152F252F352F452F60E080917D
:101E1000DD019091DE010E94400A8091DD019091E8
:101E2000DE010E94290B8091DD019091DE010E946C
:101E3000B00A8823C1F341E0BE016F5F7F4F8091FC
:101E4000DD019091DE010E9465090091ED01109184
:101E5000EE010E9482036B017C0168E271E0CE0119
:101E600007960E947C0426E636E646EE5FE3C7014D
:101E7000B6010E94D31720E030E040E052E40E9417
:101E80000612AB01BC0125E030E0CE0101960E94B4
:101E9000CB04BE016F5F7F4FCE0107960E943E04C8
:101EA000CE0101960E94770461E088E00E94F50768
:101EB0008091DD019091DE010E94F40A09E213E2B3
:101EC00020E030E040E050E060E070E08091DD0133
:101ED0009091DE010E94E5098091DD019091DE0183
:101EE0000E943E096F81788541E18091DD019091EA
:101EF000DE010E940B03882359F060E088E00E9415
:101F0000F5078091DD019091DE010E94B60A14C0B0
:101F10000E94E30261E087E00E94F50768EE73E04B
:101F200080E090E00E94610860E087E00E94F50791
:101F300060E088E00E94F507CE0107960E947704D2
:101F400068E271E0CE010D960E941D04F1CECE0133
:101F50000D960E9477040E943807E4CE81E08093BA
:101F60000702B4CC0E949B08012E000C220B330BFD
:101F7000061717072807390708F085CE0E94E302E5
:101F800061E087E00E94F50768EE73E080E090E092
:101F90000E94610860E087E00E94F50774CE0E940D
:101FA0009B08681579058A059B0508F476CE7ECED8
:101FB0000E949B08012E000C220B330B06171707FB
:101FC0002807390708F085CE0E94E30261E087E028
:101FD0000E94F50768EE73E080E090E00E946108DF
:101FE00060E087E00E94F50774CE8091DD0190915A
:101FF000DE010E94F40A1091E2010091E101712FCB
:10200000770F770B272F372F472F572F672F809169
:10201000DD019091DE010E94E50942E06BEE71E086
:102020008091DD019091DE010E940B03811111C0AE
:102030000E94E30261E087E00E94F50768EE73E02A
:1020400080E090E00E94610860E087E00E94F50770
:102050004ACEFF24F39447CE0F931F93CF93DF9381
:102060001092300110922F0188EE93E0A0E0B0E0D2
:102070008093310190933201A0933301B0933401E6
:102080008AE091E090932E0180932D0185EC90E001
:1020900090933A018093390184EC90E090933C0155
:1020A00080933B0180EC90E090933E0180933D0152
:1020B00081EC90E09093400180933F0182EC90E0AE
:1020C000909342018093410186EC90E0909344010B
:1020D00080934301109246011092470110924801EB
:1020E0001092490189E090E09093020280930102EE
:1020F0008AE090E09093040280930302109207021A
:1021000080E2809308021092090285E080930F021A
:1021100085E090E0A0E0B0E0809315029093160275
:10212000A0931702B093180210920A0286E08093DF
:10213000F4018BE08093F501ECE9F0E0E491E093A9
:10214000F601E8E8F0E0E491E093F70180E89EE32F
:10215000A0E0B0E08093FC019093FD01A093FE010C
:10216000B093FF010E94E30282E00E94D6118C012D
:1021700083E00E94D611C1E0892B09F4C0E084E01D
:102180000E94D61121E0892B09F420E0012B39F4BB
:10219000C1110CC02223A1F08DE293E21CC0C11139
:1021A0000AC0222381F08EE293E215C0222371F04F
:1021B0008FE293E210C0222361F080E393E20BC030
:1021C00089E293E208C08AE293E205C08BE293E2DF
:1021D00002C08CE293E29093EE018093ED0189328C
:1021E00023E29207A9F09C012A52334223303105A1
:1021F00090F08D32A3E29A0789F08E32E3E29E07D7
:1022000081F08F3223E2920779F46EE273E20EC01E
:102210006AE273E20BC069E273E208C06CE273E247
:1022200005C06DE273E202C06FE273E270931E02BA
:1022300060931D02DC01A952B342A230B105C0F087
:102240009C012B5233422230310578F08D32E3E28B
:102250009E0771F08E3223E2920769F08F32E3E23B
:102260009E0761F44DE253E20BC04AE253E208C01C
:102270004BE253E205C04CE253E202C04EE253E2AD
:102280005093200240931F02A330B10580F08C329E
:1022900023E2920791F08D32E3E29E0759F08E32ED
:1022A00023E2920751F08F32E3E29E0749F42CE2D9
:1022B00033E208C02AE233E205C02BE233E202C077
:1022C0002DE233E23093220220932102A430B105A3
:1022D00078F08D32E3E29E0771F08E32E3E29E07E2
:1022E00069F08F32E3E29E0761F4EBE2F3E20BC0A8
:1022F000EDE2F3E208C0EEE2F3E205C0EAE2F3E267
:1023000002C0ECE2F3E2F0932402E093230214977C
:1023100060F0DC01AD52B342129750F08F32A3E26D
:102320009A0749F4AAE2B3E208C0AEE2B3E205C0FC
:10233000AFE2B3E202C0ABE2B3E2B0932602A093F5
:10234000250210921A021092190210921C02109289
:102350001B02C1E0D2E0D093DE01C093DD01C9E1F0
:10236000D2E0D093E001C093DF019093EC01809321
:10237000EB019093DC018093DB017093E2016093A9
:10238000E1015093E4014093E3013093E60120938F
:10239000E501F093E801E093E701B093EA01A0932F
:1023A000E901DF91CF911F910F910895CF93DF93B2
:1023B000282F30E0F901E054FF4F8491F901EA56EB
:1023C000FF4FD491F901EE57FF4FC491CC2391F008
:1023D00081110E944207EC2FF0E0EE0FFF1FEE5834
:1023E000FF4FA591B491EC91ED2381E090E021F4B1
:1023F00080E002C080E090E0DF91CF910895EE0F81
:10240000FF1F0590F491E02D09945058BB27AA278F
:102410000E941D120C9457180E94491838F00E940F
:10242000501820F039F49F3F19F426F40C94461804
:102430000EF4E095E7FB0C944018E92F0E94681811
:1024400058F3BA17620773078407950720F079F4E9
:10245000A6F50C948A180EF4E0950B2EBA2FA02D39
:102460000B01B90190010C01CA01A0011124FF2741
:10247000591B99F0593F50F4503E68F11A16F0403C
:10248000A22F232F342F4427585FF3CF469537953B
:102490002795A795F0405395C9F77EF41F16BA0B00
:1024A000620B730B840BBAF09150A1F0FF0FBB1FAE
:1024B000661F771F881FC2F70EC0BA0F621F731FF7
:1024C000841F48F4879577956795B795F7959E3F54
:1024D00008F0B0CF9395880F08F09927EE0F9795E5
:1024E000879508950E94AF1708F48FEF0895CF9352
:1024F000DF938230910510F482E090E0E0913202A7
:10250000F091330220E030E0C0E0D0E0309711F1EC
:102510004081518148175907C0F04817590761F4A5
:1025200082819381209719F09B838A832BC090939B
:1025300033028093320226C02115310519F042176B
:10254000530718F49A01BE01DF01EF010280F38105
:10255000E02DDCCF2115310509F1281B390B243082
:10256000310590F412968D919C9113976115710528
:1025700021F0FB019383828304C090933302809304
:102580003202FD01329644C0FD01E20FF31F819338
:102590009193225031092D933C933AC020913002FF
:1025A00030913102232B41F420910201309103013B
:1025B00030933102209330022091000130910101CB
:1025C0002115310541F42DB73EB7409104015091DA
:1025D0000501241B350BE0913002F0913102E21726
:1025E000F307A0F42E1B3F0B2817390778F0AC0136
:1025F0004E5F5F4F2417350748F04E0F5F1F509313
:102600003102409330028193919302C0E0E0F0E008
:10261000CF01DF91CF9108950F931F93CF93DF9355
:10262000009709F48CC0FC0132971382128200914A
:102630003202109133020115110581F4208131819C
:10264000820F931F209130023091310228173907F1
:1026500079F5F0933102E093300271C0D80140E087
:1026600050E0AE17BF0750F412962D913C9113978E
:10267000AD012115310509F1D901F3CF9D01DA0131
:102680003383228360817181860F971F821793079E
:1026900069F4EC0128813981260F371F2E5F3F4FE7
:1026A000318320838A819B8193838283452B29F404
:1026B000F0933302E093320242C01396FC93EE9300
:1026C0001297ED01499159919E01240F351FE21790
:1026D000F30771F480819181840F951F0296119602
:1026E0009C938E938281938113969C938E931297E1
:1026F000E0E0F0E0D80112968D919C91139700973D
:1027000019F0F8018C01F6CF8D919C9198012E5F04
:102710003F4F820F931F20913002309131022817D2
:10272000390769F4309729F410923302109232027B
:1027300002C0138212821093310200933002DF91A3
:10274000CF911F910F910895A0E0B0E0EAEAF3E184
:102750000C949518EC01009721F4CB010E9477129C
:10276000B8C0FC01E60FF71F9C0122503109E217A7
:10277000F30708F4ACC0D9010D911C91119706170D
:102780001707B0F00530110508F49FC0C801049781
:102790008617970708F499C002501109061B170BFA
:1027A000019311936D937C93CF010E940C138DC004
:1027B0005B01A01AB10A4C01800E911EA091320259
:1027C000B091330240E050E0E12CF12C109709F475
:1027D0004AC0A815B905D1F56D907C901197630199
:1027E00082E0C80ED11CCA14DB0480F1A3014A198F
:1027F0005B096A0182E0C80ED11C1296BC90129748
:102800001396AC91B5E0CB16D10440F0B282A3830D
:1028100051834083D9016D937C930AC00E5F1F4F93
:10282000C301800F911FF90191838083EB2DFA2F53
:10283000E114F10431F0D7011396FC93EE93129753
:1028400044C0F0933302E09332023FC08D919C91DB
:1028500011974817590708F4AC017D0112960D90A5
:10286000BC91A02DB3CF8091300290913102881598
:102870009905E1F446175707C8F48091000190913B
:102880000101009741F48DB79EB74091040150912A
:102890000501841B950BE817F907C8F4F093310282
:1028A000E0933002F901718360830FC0CB010E9475
:1028B00077127C01009759F0A801BE010E947314A1
:1028C000CE010E940C13C70104C0CE0102C080E0FB
:1028D00090E0CDB7DEB7EEE00C94B11881E090E067
:1028E000F8940C94C818FB01DC0102C001900D9211
:1028F00041505040D8F70895FB01DC018D910190C3
:1029000080190110D9F3990B0895FB01DC010190A6
:102910000D920020E1F70895EF920F931F93CF934C
:10292000DF93E80147FD02C034E001C034E1E42F49
:10293000440FFF0BF7FF03C0F195E195F109E32E7A
:10294000022F2E2FAE010E94F714CE01DF91CF91FE
:102950001F910F91EF900895FC0188279927E89423
:1029600021912032E9F3293010F02E30C8F32B32B8
:1029700041F02D3239F4689404C00E94D514820FBE
:10298000911D219120532A30C0F31EF4909581951A
:102990009F4F0895BB274A3031F4992322F4BDE2BA
:1029A000909581959F4F0C94DE147AE0979F902D1F
:1029B000879F802D910D11240895BB27FB0155277A
:1029C000AA27880F991FAA1FA41710F0A41B83958C
:1029D0005051B9F7A05DAA3308F0A95DA193009703
:1029E00079F7B111B1931192CB010C945D174F920D
:1029F0005F926F927F929F92AF92BF92CF92DF923F
:102A0000EF92FF920F931F93CF93DF93CDB7DEB773
:102A100029970FB6F894DEBF0FBECDBF6A01122F03
:102A2000B02E2BE3201720F0FF24F394F00E02C009
:102A3000BCE3FB2E0F2D27E0AE014F5F5F4F0E94DE
:102A40008516AC018981982F9970913031F0E1FCA5
:102A500006C0E0FE06C090E205C09DE203C09BE216
:102A600001C090E0EE2DE07183FF3CC0911102C0E7
:102A700083E001C084E0811718F4212F281B01C0D6
:102A800020E0E1110BC0F601822F30E2882319F01B
:102A900031938150FBCFC20ED11C20E0992329F045
:102AA000D6019C93F60131966F01C6010396E2FEB2
:102AB0000AC03EE4D6013C9341E411964C93119731
:102AC00012963C9306C03EE6F601308341E6418310
:102AD0003283FC01322F40E2332309F442C0419398
:102AE0003150FACF82FF44C0911102C083E001C08F
:102AF00084E0811718F4212F281B01C020E0E11188
:102B00000BC0F601822F30E2882319F031938150F7
:102B1000FBCFC20ED11C20E0992329F0D6019C9353
:102B2000F60131966F01C6010396E2FE0BC039E44F
:102B3000D6013C933EE411963C93119736E41296ED
:102B40003C9307C039E6F60130833EE6318336E632
:102B50003283FC01322F40E2332319F0419331508C
:102B6000FBCFFC01E20FF11D10828EEF9FEFB7C08B
:102B7000F1E0911101C0F0E06F2F70E0141615061E
:102B800024F49A012F5F3F4F02C021E030E0260F6E
:102B9000371FBB2029F06B2D70E06F5F7F4F02C0A5
:102BA00060E070E0260F371F612F70E026173707AF
:102BB0001CF4121B212F01C020E03E2D387159F466
:102BC000D601322F60E2332319F06D933150FBCFE1
:102BD000C20ED11C20E0FF2331F0D6019C93B60138
:102BE0006F5F7F4F6B01E1110BC0F601922F30E355
:102BF000992319F031939150FBCFC20ED11C20E0E4
:102C00009F2D940F3A81782F7071A72E84FF03C0F7
:102C1000313309F49150191624F4993018F098E0E2
:102C200001C091E0E42F852F57FF02C0E0E080E073
:102C30006E2F782FE0E0F0E0AEE29A2E3A01691AAA
:102C400071082A01461A570A0B2D10E011950195BB
:102C500011096F3F8FEF780729F4D6019C92C601C6
:102C600001966C014617570784F0661677066CF4D8
:102C70007F01E40CF51CA1E0B0E0AC0FBD1FEA0E33
:102C8000FB1ED7011196BC9002C090E3B92E615093
:102C900071093196C60101967C016017710724F015
:102CA000D601BC926C01D5CF6417750741F4363359
:102CB00020F4353321F4A11002C081E3B82EF601CF
:102CC000B082F701822F90E2882319F0919381500E
:102CD000FBCFF701E20FF11D108280E090E0299612
:102CE0000FB6F894DEBF0FBECDBFDF91CF911F911D
:102CF0000F91FF90EF90DF90CF90BF90AF909F909B
:102D00007F906F905F904F900895283008F027E0F3
:102D10003327DA01990F311D87FD91600096610517
:102D2000710539F432602E5F3D9330E32A95E1F767
:102D300008959F3F30F080387105610509F03C5FD0
:102D40003C5F3D93913008F08068911DDF93CF93F5
:102D50001F930F93FF92EF92192F987F9695E92F6B
:102D600096959695E90FFF27E25DFE4F9927332749
:102D7000EE24FF24A701E70105900894079428F4A6
:102D8000360FE71EF81E491F511D660F771F881F5B
:102D9000991F0694A1F70590079428F4E70EF81EF2
:102DA000491F561FC11D770F881F991F661F069464
:102DB000A1F70590079428F4F80E491F561FC71F66
:102DC000D11D880F991F661F771F0694A1F70590E4
:102DD000079420F4490F561FC71FD81F990F661F6D
:102DE000771F881F0694A9F784911095177041F0FA
:102DF000D695C79557954795F794E7941A95C1F7D7
:102E0000E4EDF0E0689415901591359165919591F8
:102E100005907FE27395E118F10A430B560BC90B3D
:102E2000D009C0F7E10CF11E431F561FC91FD01D6A
:102E30007EF4703311F48A95E6CFE894015030F0B7
:102E4000080F0AF40027021708F4202F2395022FF9
:102E50007A3328F079E37D932A95E9F710C07D93C2
:102E60002A9589F60694979567953795179517943F
:102E7000E118F10A430B560BC90BD00998F02395C2
:102E80007E9173957A3308F070E37C932013B8F742
:102E90007E9170617D9330F0839571E37D9370E353
:102EA0002A95E1F71124EF90FF900F911F91CF9198
:102EB000DF91992787FD90950895DC01FC01672F2C
:102EC00071917723E1F7329704C07C916D93708301
:102ED0006291AE17BF07C8F308950E94AF1708F4B8
:102EE00081E00895E89409C097FB3EF490958095A1
:102EF000709561957F4F8F4F9F4F9923A9F0F92FC0
:102F000096E9BB279395F695879577956795B7953D
:102F1000F111F8CFFAF4BB0F11F460FF1BC06F5F23
:102F20007F4F8F4F9F4F16C0882311F096E911C035
:102F3000772321F09EE8872F762F05C0662371F056
:102F400096E8862F70E060E02AF09A95660F771F6A
:102F5000881FDAF7880F9695879597F90895990F46
:102F60000008550FAA0BE0E8FEEF16161706E80753
:102F7000F907C0F012161306E407F50798F0621B74
:102F8000730B840B950B39F40A2661F0232B242B49
:102F9000252B21F408950A2609F4A140A6958FEF68
:102FA000811D811D08950E94E6170C9457180E94F8
:102FB000491838F00E94501820F0952311F00C9415
:102FC00040180C94461811240C948B180E94681811
:102FD00070F3959FC1F3950F50E0551F629FF0016C
:102FE000729FBB27F00DB11D639FAA27F00DB11D85
:102FF000AA1F649F6627B00DA11D661F829F22270E
:10300000B00DA11D621F739FB00DA11D621F839F94
:10301000A00D611D221F749F3327A00D611D231F6A
:10302000849F600D211D822F762F6A2F11249F57B8
:1030300050409AF0F1F088234AF0EE0FFF1FBB1FBB
:10304000661F771F881F91505040A9F79E3F51057A
:1030500080F00C9440180C948B185F3FE4F3983E7A
:10306000D4F3869577956795B795F795E7959F5F24
:10307000C1F7FE2B880F911D9695879597F90895B6
:1030800097F99F6780E870E060E008959FEF80EC1B
:10309000089500240A9416161706180609060895BE
:1030A00000240A9412161306140605060895092E24
:1030B0000394000C11F4882352F0BB0F40F4BF2B93
:1030C00011F460FF04C06F5F7F4F8F4F9F4F0895D3
:1030D00057FD9058440F551F59F05F3F71F04795C9
:1030E000880F97FB991F61F09F3F79F087950895AE
:1030F000121613061406551FF2CF4695F1DF08C0CD
:10310000161617061806991FF1CF869571056105E9
:1031100008940895E894BB2766277727CB0197F991
:1031200008952F923F924F925F926F927F928F926B
:103130009F92AF92BF92CF92DF92EF92FF920F9346
:103140001F93CF93DF93CDB7DEB7CA1BDB0B0FB650
:10315000F894DEBF0FBECDBF09942A88398848880D
:103160005F846E847D848C849B84AA84B984C884A3
:10317000DF80EE80FD800C811B81AA81B981CE0F9A
:10318000D11D0FB6F894DEBF0FBECDBFED0108957F
:04319000F894FFCFE1
:1031940000003402800000000000CF065F0B980698
:1031A40076068A061607747275650066616C736527
:0A31B4000053004552524F52000034
:00000001FF
