:100000000C9407010C942F010C942F010C942F01D8
:100010000C942F010C942F010C942F010C942F01A0
:100020000C942F010C942F010C942F010C942F0190
:100030000C942F010C942F010C942F010C942F0180
:100040000C9488070C942F010C9470060C944A06AB
:100050000C942F010C942F010C942F010C942F0160
:100060000C942F010C942F010000000024002700A5
:100070002A0004040404040404040202020202022A
:10008000030303030303010204081020408001025C
:100090000408102001020408102011121314151670
:1000A0000A0B0C0D0E0F00010203040500000000F6
:1000B000250028002B000000000023002600290056
:1000C0000000000800020100000304070000000017
:1000D000000000004E414E494E495459494E46CD0C
:1000E000CCCC3D0AD7233C17B7D13877CC2B3295EF
:1000F00095E6241FB14F0A000020410000C84200CD
:10010000401C4620BCBE4CCA1B0E5AAEC59D740096
:10011000407A10F35A00A0724E18090010A5D4E8D6
:100120000000E87648170000E40B54020000CA9A69
:100130003B000000E1F505000080969800000040BB
:10014000420F000000A08601000000102700000000
:1001500000E803000000006400000000000A000046
:100160000000000100000000002C76D888DC674FFA
:100170000823DFC1DFAE59E1B1B796E5E3E453C62A
:100180003AE651997696E8E6C28426EB898C9B6222
:10019000ED407C6FFCEFBC9C9F40F2BAA56FA5F4CC
:1001A00090055A2AF75C936B6CF9676DC11BFCE0F4
:1001B000E40D47FEF520E6B500D0ED902E03009447
:1001C0003577050080841E080000204E0A000000DC
:1001D000C80C333333330F986E12831141EF8D21E6
:1001E00014893BE65516CFFEE6DB18D1844B381B4D
:1001F000F77C1D901DA4BBE424203284725E228112
:1002000000C9F124ECA1E53D2700A00D2A0F11241F
:100210001FBECFEFD8E0DEBFCDBF12E0A0E0B1E05F
:10022000E0EEFFE202C005900D92A83DB107D9F7BC
:1002300023E0A8EDB2E001C01D92A23EB207E1F7B3
:1002400011E0C6E0D1E004C02197FE010E94500FEA
:10025000C530D107C9F70E94D9070C94E3170C9455
:1002600000000895CF92DF92EF92FF920F931F93B9
:10027000CF93DF936C017A018B01C0E0D0E0CE1503
:10028000DF0589F0D8016D918D01D601ED91FC91CA
:100290000190F081E02DC6010995892B11F47E01B2
:1002A00002C02196ECCFC701DF91CF911F910F9132
:1002B000FF90EF90DF90CF9008950E94F3110F937D
:1002C0001F93CF93DF93EC0188819981009729F0E8
:1002D0002A813B812617370788F48B016F5F7F4F98
:1002E0000E942911009761F0998388831B830A83F8
:1002F0002C813D81232B11F4FC01108281E001C08F
:1003000080E0DF91CF911F910F910895EF92FF92BE
:100310000F931F93CF93DF93EC017B018A01BA0106
:100320000E945F012881398181110DC0211531059D
:1003300019F0C9010E949110198218821D821C8235
:100340001B821A8206C01D830C83B701C9010E945B
:100350000112CE01DF91CF911F910F91FF90EF908D
:100360000895009769F0FC0101900020E9F73197AA
:10037000AF01481B590BBC0183EE92E00C94320193
:1003800080E090E00895CF93DF930E94B101EC01EB
:1003900086E792E00E94B1018C0F9D1FDF91CF9103
:1003A00008958F929F92AF92BF920F931F93CF9316
:1003B000DF93CDB7DEB7A1970FB6F894DEBF0FBEBF
:1003C000CDBF19A2423008F44AE08E010F5D1F4FE5
:1003D000842E912CA12CB12CA50194010E942E0FEA
:1003E000E62FB901CA0101501109EA3014F4E05DA9
:1003F00001C0E95CD801EC93232B242B252B61F75A
:10040000C8010E94B101A1960FB6F894DEBF0FBEDD
:10041000CDBFDF91CF911F910F91BF90AF909F9073
:100420008F900895CF92DF92EF92FF92CF93DF9358
:100430006B017C01E091E302F091E4020190F08114
:10044000E02D6DE283EE92E00995EC0166277727B7
:10045000CB016C197D098E099F094AE00E94D101E8
:100460008C0F9D1FDF91CF91FF90EF90DF90CF9089
:100470000895BC01990F880B990B97FD0C941202FB
:100480004AE00C94D101CF93DF939CB59F7D9CBD36
:100490009CB5937F9CBD9CB59C7F9CBD9DB5916098
:1004A0009DBDCDEBD3E0682F89810E94CB068A8960
:1004B0009B89DF91CF910C94370781E00C94430224
:1004C00080E00C944302EF92FF920F931F93CF931F
:1004D000DF9300D01F92CDB7DEB7162F4A837B8300
:1004E00089830E94600289818F7180620E94D20795
:1004F000082FE12E7B81F72E4A81140F1E1531F053
:10050000F70181917F010E94D207F8CF0E945D021E
:10051000802F0F900F900F90DF91CF911F910F912F
:10052000FF90EF9008951F93CF93DF9300D0CDB746
:10053000DEB76A8389830E94600289818F7180623D
:100540000E94D207182F6A81862F0E94D2070E942C
:100550005D02812F0F900F90DF91CF911F91089531
:10056000DF92EF92FF920F931F93CF93DF931F922F
:10057000CDB7DEB7F82E2091C203223010F4E22E60
:1005800002C082E0E82E8091C303811103C0D22E05
:10059000DE1801C0D12C99830E94600281E60E947E
:1005A000D2070F2D9981192FEA94FFEFEF1639F03A
:1005B0008FEF0E94D207F80181938F01F5CFDD20E4
:1005C00029F08FEF0E94D207DA94F9CF0E945D02E2
:1005D00060E787E00F90DF91CF911F910F91FF901F
:1005E000EF90DF900C949302CF93DF931F92CDB7DF
:1005F000DEB789830E94600289818F710E94D207D1
:100600008FEF0E94D20789830E945D0289810F903B
:10061000DF91CF91089587E10E94F4028095817067
:100620000895CF93DF931F92CDB7DEB70E9460028B
:1006300081EE0E94D20789830E945D0289810F901A
:10064000DF91CF910895682F8091BD039091BE03F3
:1006500089130C94CB06089580E00E94F40281FD7A
:100660000BC0682F626080E00E94930265E070E03A
:1006700080E090E00C94420708950E942C0380E0F3
:100680000E94F402682F616080E00E94930260E79C
:1006900087E00E94930281E00E9423038091C403BB
:1006A000882341F04091C90364EC73E08AE00E9422
:1006B000630212C082E00E94F402E6EAF0E0E491F4
:1006C00021E030E001C0220FEA95EAF72095622F81
:1006D000682382E00E9493028DE10E94F40281FD72
:1006E0000C94110308950F931F93CF93DF93CDB70D
:1006F000DEB728970FB6F894DEBF0FBECDBF2983B3
:100700003A834B835C836D837E838F839887E1EA92
:10071000F0E084910DEB13E0F8014485BE016F5FBA
:100720007F4F0E946302EBE9F0E08491F80165815C
:100730000E94930282E00E94F402E7EAF0E0E49172
:1007400061E070E001C0660FEA95EAF7682B82E08D
:100750000E94930228960FB6F894DEBF0FBECDBF5D
:10076000DF91CF911F910F910895DF92EF92FF9249
:100770000F931F93CF93DF931F92CDB7DEB7F82E61
:100780002091C203D22E233010F082E0D82E809127
:10079000C303811103C0E22EED1801C0E12C99833F
:1007A0000E94600280EA0E94D2070F2D9981192FC2
:1007B000DA94FFEFDF1631F0F80181918F010E948A
:1007C000D207F6CFEE2029F080E00E94D207EA940B
:1007D000F9CF0E945D0281E00E9423030E94600223
:1007E0008FEF0E94D20789830E945D028981807306
:1007F000A9F380E00E94230360E787E00E94930250
:1008000084FF04C00E94110380E001C081E00F90CA
:10081000DF91CF911F910F91FF90EF90DF9008959E
:100820000F931F93CF93DF93CDB7DEB728970FB603
:10083000F894DEBF0FBECDBF29833A834B835C8320
:100840006D837E838F8398870DEB13E0F8014485D9
:10085000BE016F5F7F4F8AE00E946302F80144850A
:10086000BE016F5F7F4F80E10E946302F8016581E6
:1008700081E10E94930228960FB6F894DEBF0FBE66
:10088000CDBFDF91CF911F910F91089580E00E941D
:1008900023038091CB039091CC030E9437078DE115
:1008A0000E94F40281FF08C08091CB039091CC0399
:1008B0000E9437070E94110380E00E94F402682F13
:1008C0006E7F80E00E94930282E00E94F402E6EADA
:1008D000F0E0E49161E070E001C0660FEA95EAF7AC
:1008E000682B82E00C949302CF93DF93BC01990FA5
:1008F000880B990B97FF03C00E94120203C04AE0C5
:100900000E94D101EC0186E792E00E94B1018C0FB8
:100910009D1FDF91CF910895EF92FF920F931F9348
:10092000CF93DF9300D0CDB7DEB78C0169831A82F5
:10093000FC01E480F580FFEFEF1AFF0AB7010E9487
:100940005F01882381F0F8012081318184819581C4
:10095000BE016F5F7F4F820F931F0E940112F8014B
:10096000F582E48281E00F900F90DF91CF911F918B
:100970000F91FF90EF900895CF93DF93EC016115F5
:10098000710559F0FB0101900020E9F73197AF01A3
:10099000461B570B0E9486010CC0888199810097E5
:1009A00011F00E949110198218821D821C821B82F4
:1009B0001A82CE01DF91CF9108950F931F93CF93A9
:1009C000DF938C01EB01FC01808191810097B1F0F4
:1009D000688179816115710579F0428153812C819B
:1009E0003D814217530740F00E9401128C819D8186
:1009F000F8019583848313C00E94911088819981A6
:100A0000F801918380838A819B81938382838C8187
:100A10009D8195838483198218821B821A821D828C
:100A20001C82DF91CF911F910F910895FC0180816D
:100A300091810C949110FC01118210821382128218
:100A4000158214826115710551F0FB01019000209F
:100A5000E9F73197AF01461B570B0C9486010895B7
:100A6000FC01918D828D981761F0828DDF01A80FB6
:100A7000B11D5D968C91928D9F5F9F73928F90E0D8
:100A800008958FEF9FEF0895FC01918D828D981747
:100A900031F0828DE80FF11D858D90E008958FEF84
:100AA0009FEF0895FC01918D228D892F90E0805C4D
:100AB0009F4F821B91098F739927089583EE92E0CF
:100AC0000E94520521E0892B09F420E0822F08952D
:100AD000FC01848DDF01A80FB11DA35ABF4F2C91DB
:100AE000848D90E001968F739927848FA689B789AA
:100AF0002C93A089B1898C9180648C93938D848D83
:100B0000981306C00288F389E02D80818F7D808351
:100B10000895EF92FF920F931F93CF93DF93EC0111
:100B200081E0888F9B8D8C8D981305C0E889F989A9
:100B3000808185FD24C0F62E0B8D10E00F5F1F4FC6
:100B40000F731127E02E8C8DE8120CC00FB607FC36
:100B5000FACFE889F989808185FFF5CFCE010E941F
:100B60006805F1CF8B8DFE01E80FF11DE35AFF4FB1
:100B7000F0820B8FEA89FB898081806207C0EE8951
:100B8000FF896083E889F98980818064808381E0BE
:100B900090E0DF91CF911F910F91FF90EF9008951A
:100BA000CF93DF93EC01888D8823C9F0EA89FB8914
:100BB000808185FD05C0A889B9898C9186FD0FC00B
:100BC0000FB607FCF5CF808185FFF2CFA889B989E0
:100BD0008C9185FFEDCFCE010E946805E7CFDF91B4
:100BE000CF91089580E090E0892B29F00E945E0566
:100BF00081110C9400000895833081F028F4813035
:100C000099F08230A1F008958730A9F08830B9F0CA
:100C10008430D1F4809180008F7D03C0809180006A
:100C20008F7780938000089584B58F7702C084B554
:100C30008F7D84BD08958091B0008F7703C080912F
:100C4000B0008F7D8093B00008953FB7F8948091F5
:100C5000D8039091D903A091DA03B091DB0326B5B4
:100C6000A89B05C02F3F19F00196A11DB11D3FBFE4
:100C7000BA2FA92F982F8827820F911DA11DB11D72
:100C8000BC01CD0142E0660F771F881F991F4A956E
:100C9000D1F708951F920F920FB60F9211242F9340
:100CA0003F934F935F936F937F938F939F93AF93F4
:100CB000BF93EF93FF9383EE92E00E946805FF914C
:100CC000EF91BF91AF919F918F917F916F915F91C4
:100CD0004F913F912F910F900FBE0F901F9018953D
:100CE0001F920F920FB60F9211242F938F939F9301
:100CF000EF93FF93E091F302F091F4028081E09191
:100D0000F902F091FA0282FD12C090818091FC02FA
:100D10008F5F8F732091FD02821751F0E091FC02EA
:100D2000F0E0ED51FD4F958F8093FC0201C0808172
:100D3000FF91EF919F918F912F910F900FBE0F9088
:100D40001F901895CF93DF93282F30E0F901E054DE
:100D5000FF4F8491F901EA57FF4FD491F901EE5802
:100D6000FF4FC491CC2391F081110E94FC05EC2F20
:100D7000F0E0EE0FFF1FEA54FF4FA591B491EC9104
:100D8000ED2381E090E021F480E002C080E090E07B
:100D9000DF91CF9108951F93CF93DF93282F30E0F9
:100DA000F901E054FF4F8491F901EA57FF4FD491C4
:100DB000F901EE58FF4FC491CC23C9F0162F8111D1
:100DC0000E94FC05EC2FF0E0EE0FFF1FE455FF4FF3
:100DD000A591B4918FB7F894111105C09C91ED2F96
:100DE000E095E92302C0EC91ED2BEC938FBFDF91EE
:100DF000CF911F910895CF93DF9390E0FC01EA57C4
:100E0000FF4F2491FC01EE58FF4F8491882361F13C
:100E100090E0880F991FFC01E859FF4FC591D491CC
:100E2000FC01E455FF4FA591B491611109C09FB732
:100E3000F8948881209582238883EC912E230BC01F
:100E4000623061F49FB7F8943881822F80958323B4
:100E50008883EC912E2B2C939FBF06C08FB7F894FC
:100E6000E8812E2B28838FBFDF91CF9108958230A8
:100E7000910538F0880F991F880F991F05970197E2
:100E8000F1F708958F929F92AF92BF92CF92DF9227
:100E9000EF92FF926B017C010E9425064B015C01E1
:100EA000C114D104E104F104F1F00E942506DC0133
:100EB000CB0188199909AA09BB09883E9340A1056D
:100EC000B10570F321E0C21AD108E108F10888EEFB
:100ED000880E83E0981EA11CB11CC114D104E1044A
:100EE000F10419F7DDCFFF90EF90DF90CF90BF9026
:100EF000AF909F908F9008952FB7F8946091D4038E
:100F00007091D5038091D6039091D7032FBF089598
:100F10001F920F920FB60F9211242F933F938F932E
:100F20009F93AF93BF938091D4039091D503A091E9
:100F3000D603B091D7033091D30323E0230F2D378D
:100F400020F40196A11DB11D05C026E8230F0296CD
:100F5000A11DB11D2093D3038093D4039093D50397
:100F6000A093D603B093D7038091D8039091D9036F
:100F7000A091DA03B091DB030196A11DB11D80930E
:100F8000D8039093D903A093DA03B093DB03BF9106
:100F9000AF919F918F913F912F910F900FBE0F9026
:100FA0001F9018958EBD00000DB407FEFDCF8EB5C5
:100FB0000895CF93DF93CDB7DEB7E3970FB6F894DC
:100FC000DEBF0FBECDBF789484B5826084BD84B58A
:100FD000816084BD85B5826085BD85B5816085BD34
:100FE00080916E00816080936E00109281008091EC
:100FF0008100826080938100809181008160809374
:101000008100809180008160809380008091B10098
:1010100084608093B1008091B00081608093B000C3
:1010200080917A00846080937A0080917A00826057
:1010300080937A0080917A00816080937A00809119
:101040007A00806880937A001092C100E091F302E8
:10105000F091F40282E08083E091EF02F091F002DF
:101060001082E091F102F091F2028FEC80831092F5
:10107000FB02E091F702F091F80286E08083E091B4
:10108000F502F091F602808180618083E091F502A3
:10109000F091F602808188608083E091F502F09102
:1010A000F602808180688083E091F502F091F6027B
:1010B00080818F7D80838091BD039091BE038917CD
:1010C00019F061E00E94FB068091BE039091BD0380
:1010D000981719F061E00E94FB061FB7F894809101
:1010E000D802811127C0ECE7F0E08491E0E9F0E05C
:1010F0009491E82FF0E0EE0FFF1FE859FF4FA59104
:10110000B491EC91E92321F461E08AE00E94CB06DE
:1011100061E08AE00E94FB068CB580618CBD8CB5D5
:1011200080648CBD61E08DE00E94FB0661E08BE095
:101130000E94FB068091D8028F5F8093D8021FBF68
:1011400080E00E94230381E00E94430265E070E09A
:1011500080E090E00E9442076CE080E00E949302F1
:101160006FE584E00E94930286E00E94F402877D8E
:10117000182F10628BE990E0A0E0B0E08093CB03E1
:101180009093CC03A093CD03B093CE03612F86E060
:101190000E94930286E00E94F402811709F41DC4A4
:1011A00086E00E94F40286E00E94F40245E550E0E9
:1011B00060E070E04093CB035093CC036093CD0389
:1011C0007093CE03682F677D86E00E94930286E0CD
:1011D0000E94F4020E94600280E50E94D20783E729
:1011E0000E94D2070E945D0260E08DE10E9493029E
:1011F00060E08CE10E94930260E787E00E94930226
:101200006CE485E00E9493020E94600282EE0E94DC
:10121000D2070E945D020E9411030E942C0380E00D
:101220000E94F402682F6E7F80E00E94930268ECB7
:1012300070E080E090E00E94420762E08091B0039D
:101240000E94FB0680E398EFAFEFBFEF8093B403FB
:101250009093B503A093B603B093B70360E082E028
:101260000E94FB0660E083E00E94FB0660E084E0F1
:101270000E94FB0660E085E00E94FB0661E087E0DB
:101280000E94FB0661E088E00E94FB0661E088E0C6
:101290000E94CB068091A9039091AA0389329342C0
:1012A00009F0B8C00FE913E0F801A080B1801A82FC
:1012B000198283E692E00E94C30186E191E00E94D8
:1012C000C3010E944604F80131812081932F990FB8
:1012D000990B492F592F692F792F892F0E941004BC
:1012E000F801808191819A838983CE0101960E94C1
:1012F000B503882361F068EC70E080E090E00E9424
:10130000420789EA93E00E94B50381110CC0E9808D
:10131000FA8083E692E00E94C30187E291E00E9496
:10132000B101C7015AC01A821982F801C080D18068
:101330003091AA032091A903932F990F990B492F5C
:10134000592F692F792F892F0E9473030E943D0323
:101350000E947C077B01F8E1EF1AFCEFFF0A2701EE
:101360000F2C000C6608770887E10E94F40280FDCC
:1013700038C30E940B038823E1F0CE0101960E943E
:10138000B00289819A818C159D0561F48AE491E00F
:101390000E94C30189E992E00E94C301C5010E9435
:1013A00074042FC083E692E00E94C30182E691E0BC
:1013B00011C00E947C074701FF0CAA08BB088616D3
:1013C0009706A806B906E8F483E692E00E94C301F6
:1013D0008CE991E00E94B101C6010E94390285EDBD
:1013E00092E00E94C30161E087E00E94CB0668EEB4
:1013F00073E080E090E00E94420760E087E00E9496
:10140000CB060E5F1F4F23E0093A120709F04CCFBD
:1014100010E06BC08FEC91E00E94C3011BA21AA2E6
:101420001A8219823091AA032091A903932F990F50
:10143000990B492F592F692F792F892F0E947303F8
:101440000E943D0310E00E947C077B01E0EDEE1A54
:10145000EAE8FE0A47010F2C000CAA08BB080E940C
:101460000B03811107C00E947C07681579058A0566
:101470009B05A8F30E940B03882309F4BBC284EEEA
:1014800091E00E94C301CE0182960E94B0020E94A8
:101490007C077B01F0EDEF1AFAE8FF0A47010F2CF9
:1014A000000CAA08BB080E940B03882309F4C5C2DC
:1014B0000E940B03882309F4C9C2CE0101960E9441
:1014C000B0022AA13BA18091A9039091AA032817F9
:1014D000390709F4DEC22AA13BA18091A9039091AA
:1014E000AA032817390709F0AECF1093D90260E09C
:1014F00088E00E94CB0684E392E00E94B1018091D3
:10150000D90290E00E94740482E492E00E94C30138
:1015100088E592E00E94B1018091A9039091AA030D
:101520000E94740485E692E00E94C3010FE913E073
:10153000F801819191918F010E947404F3E0093ABE
:101540001F07B1F768E772E0CE018E960E941B0577
:1015500068E772E0CE0188960E941B051BA21AA2C2
:101560001DA21CA21FA21EA24AE0BE016F5F7F4FF8
:1015700089E293E20E944A12BE016F5F7F4FCE0163
:1015800082960E94BC04BE016E5D7F4FCE018E9696
:101590000E94DD04CE0182960E9416056AA97BA9ED
:1015A0002EA53FA5EAE8F3E080E090E086179707D4
:1015B00018F42115310529F41092DA02AAEDB2E0EF
:1015C00003C0D901A80FB91F4C91419301968430F3
:1015D000910561F78DE280938E031BA21AA21DA2D2
:1015E0001CA21FA21EA28E010F5F1F4F22E044E02B
:1015F00063E373E383E892E40E940812BC01CE0126
:1016000082960E94BC04BE016E5D7F4FCE018E9615
:101610000E94DD04CE0182960E9416056AA97BA96C
:101620002EA53FA580E090E08617970718F42115B6
:10163000310529F41092DA02EAEDF2E003C0F90173
:10164000E80FF91F4081FC01E657FC4F45830196E6
:101650008530910549F78DE2809394031BA21AA26D
:101660001DA21CA21FA21EA24AE0BE016F5F7F4FF7
:101670008EE690E00E944A12BE016F5F7F4FCE015E
:1016800082960E94BC04BE016E5D7F4FCE018E9695
:101690000E94DD04CE0182960E9416054AA95BA92C
:1016A0002EA53FA580E090E08417950791F02115C5
:1016B000310529F41092DA02EAEDF2E003C0F901F3
:1016C000E80FF91F6081FC01E657FC4F6387019624
:1016D000EBCFFC01E657FC4F28E723876AE873E06D
:1016E000CE0188960E94BC041A8219821C821B8239
:1016F0001E821D82BE01685D7F4FCE0101960E9451
:10170000DD04CE0188960E941605CE018E960E94B9
:101710001605BE016F5F7F4F84E893E00E94DD04F1
:10172000CE0101960E94160581E792E00E94C30156
:1017300040918803509189036091840370918503DF
:1017400083EE92E00E94320186E792E00E94B101AE
:1017500089E792E00E94C30168E772E0CE0101963A
:101760000E941B050091840310918503B8018AE84B
:1017700093E00E940112609188037091890380E0D8
:1017800090E020E030E08617970779F00115110509
:1017900051F0F801E80FF91F40814D3211F0483740
:1017A00011F42F5F3F4F0196EECF2330310509F042
:1017B000AEC18AE8E82E83E0F82E87010A5813406C
:1017C000F70161917F016D3229F0CE0101960E94EF
:1017D0008C04F3CF89819A810E942C129093DC02B1
:1017E0008093DB020F5F1F4F68E772E0CE01019626
:1017F0000E94BC04F801E657FC4F60810F5F1F4F49
:101800006D3229F0CE0101960E948C04F3CF8981BC
:101810009A810E9428126093DF027093E002809305
:10182000E1029093E20268E772E0CE0101960E9425
:10183000BC0406571C4FF80161918F01683729F0ED
:10184000CE0101960E948C04F6CF89819A810E9474
:101850002C129093DE028093DD02CE0101960E944D
:101860001605C090DF02D090E002E090E102F09017
:10187000E202A7019601C701B6010E94F70F882373
:1018800019F08DE892E01AC046015701E894B7F8C4
:101890002FEF3FEF4FE75FE7C501B4010E94F70F5D
:1018A00081110FC02FEF3FEF4FE75FE7C501B40194
:1018B0000E946B1618162CF481E992E00E94B10187
:1018C0007BC02FEF3FEF4FE75FE4C701B6010E94F7
:1018D000F20F18161CF485E992E0F0CF2FEF3FEFDE
:1018E0004FE75FECC701B6010E946B1687FDF3CF8F
:1018F00020E030E0A901C701B6010E946B1687FF06
:101900000FC0E091E302F091E4020190F081E02D3C
:101910006DE283EE92E00995F7FAF094F7F8F0940F
:101920002AE037ED43EA5BE3C701B6010E94570F97
:101930004B015C010E94C30F6B017C010E94701679
:101940009B01AC01C501B4010E94560F4B015C0123
:101950004AE0C701B6010E94D10184EF91E00E94E4
:10196000B10120E030E040E251E4C501B4010E9441
:10197000D1164B015C010E94C30F6B01E12CF12CCD
:101980004AE0C701B6010E94D101C701B6010E9419
:1019900070169B01AC01C501B4010E94560F20E0F6
:1019A00030E040E251E40E94D1160E94C30F80E073
:1019B00090E04AE00E94D10186E792E00E94B101E6
:1019C0008091DD029091DE020E9474048091DB021E
:1019D0009091DC020E947404FFCF81E08093C103E8
:1019E000DFCB0E947C07641575058605970508F412
:1019F000BBCCBFCC0E947C076701FF0CEE08FF0840
:101A0000C616D706E806F90608F041CD83E692E04F
:101A10000E94C30186EF91E00E94C30161E087E06C
:101A20000E94CB0668EE73E080E090E00E944207DF
:101A300060E087E00E94CB062ACD0E947C076815F3
:101A400079058A059B0508F42ECD32CD0E947C07CE
:101A50006701FF0CEE08FF08C616D706E806F90670
:101A600008F02FCD83E692E00E94C30186EF91E05B
:101A70000E94C30161E087E00E94CB0668EE73E03C
:101A800080E090E00E94420760E087E00E94CB0681
:101A900018CD0E9446043091A00320919F03932FFC
:101AA000990F990B492F592F692F792F892F0E9450
:101AB00010048FE192E00E94C30189EA93E00E9442
:101AC000B503811122C0E0909F03F090A00383E64C
:101AD00092E00E94C30187E291E00E94B101C70138
:101AE0000E94390285ED92E00E94C30161E087E027
:101AF0000E94CB0668EE73E080E090E00E9442070F
:101B000060E087E00E94CB06E6CC11E0E4CC83E6FF
:101B100092E00E94C30186EB92E00E94C30161E063
:101B200080919D030E94CB0660ED77E080E090E01D
:101B30000E94420760E080919D030E94CB068DCEFB
:101B40000F931F93CF931092E6021092E50288EE56
:101B500093E0A0E0B0E08093E7029093E802A093C6
:101B6000E902B093EA028AE091E09093E402809364
:101B7000E30285EC90E09093F0028093EF0284EC16
:101B800090E09093F2028093F10280EC90E09093C9
:101B9000F4028093F30281EC90E09093F60280933C
:101BA000F50282EC90E09093F8028093F70286ECC5
:101BB00090E09093FA028093F9021092FC02109246
:101BC000FD021092FE021092FF0289E08093BD0395
:101BD0008AE08093BE031092C10380E28093C20327
:101BE0001092C30385E08093C90385E090E0A0E0F4
:101BF000B0E08093CF039093D003A093D103B09330
:101C0000D2031092C40386E08093B0038BE08093EC
:101C1000B103ECE8F0E0E491E093B203E8E7F0E030
:101C2000E491E093B30380E89EE3A0E0B0E080930A
:101C3000B8039093B903A093BA03B093BB0382E0B7
:101C40000E94A2068C0183E00E94A206C1E0892BBB
:101C500009F4C0E084E00E94A20621E0892B09F487
:101C600020E0012B39F4C1110CC02223A1F08DE238
:101C700093E21CC0C1110AC0222381F08EE293E2DC
:101C800015C0222371F08FE293E210C0222361F08D
:101C900080E393E20BC089E293E208C08AE293E218
:101CA00005C08BE293E202C08CE293E29093AA0318
:101CB0008093A903893223E29207A9F09C012A525A
:101CC00033422330310590F08D3223E2920789F0C0
:101CD0008E3223E2920781F08F3223E2920779F469
:101CE0002EE233E20EC02AE233E20BC029E233E2F5
:101CF00008C02CE233E205C02DE233E202C02FE23D
:101D000033E23093A00320939F03AC014952534226
:101D100042305105C0F09C012B5233422230310534
:101D200078F08D3223E2920771F08E3223E292072F
:101D300069F08F3223E2920761F42DE233E20BC0A7
:101D40002AE233E208C02BE233E205C02CE233E2A0
:101D500002C02EE233E23093A2032093A10343306A
:101D6000510580F08C3223E2920791F08D3223E20C
:101D7000920759F08E3223E2920751F08F3223E21C
:101D8000920749F42CE233E208C02AE233E205C0AC
:101D90002BE233E202C02DE233E23093A40320931E
:101DA000A3034430510578F08D3223E2920771F09D
:101DB0008E3223E2920769F08F3223E2920761F4B8
:101DC0002BE233E20BC02DE233E208C02EE233E215
:101DD00005C02AE233E202C02CE233E23093A603CC
:101DE0002093A5034430510568F09C012D523342E5
:101DF0002230310550F08F3223E2920749F42AE273
:101E000033E208C02EE233E205C02FE233E202C023
:101E10002BE233E23093A8032093A70390939C0313
:101E200080939B0387E090E090939E0380939D03B3
:101E300068E772E084E893E00E941B05109281033A
:101E4000109280031092830310928203CF911F910E
:101E50000F91089584E893E00C941605A1E21A2EE0
:101E6000AA1BBB1BFD010DC0AA1FBB1FEE1FFF1F3E
:101E7000A217B307E407F50720F0A21BB30BE40B8E
:101E8000F50B661F771F881F991F1A9469F76095D5
:101E90007095809590959B01AC01BD01CF0108958F
:101EA000EE0FFF1F0590F491E02D09945058BB27C9
:101EB000AA270E946E0F0C9458170E944A1738F0F8
:101EC0000E94511720F039F49F3F19F426F40C9426
:101ED00047170EF4E095E7FB0C944117E92F0E9499
:101EE000691758F3BA17620773078407950720F03C
:101EF00079F4A6F50C948B170EF4E0950B2EBA2FFF
:101F0000A02D0B01B90190010C01CA01A0011124FF
:101F1000FF27591B99F0593F50F4503E68F11A16AB
:101F2000F040A22F232F342F4427585FF3CF46953C
:101F300037952795A795F0405395C9F77EF41F165E
:101F4000BA0B620B730B840BBAF09150A1F0FF0F28
:101F5000BB1F661F771F881FC2F70EC0BA0F621F14
:101F6000731F841F48F4879577956795B795F79504
:101F70009E3F08F0B0CF9395880F08F09927EE0F99
:101F80009795879508950E94711788F09F5798F04C
:101F9000B92F9927B751B0F0E1F0660F771F881F6E
:101FA000991F1AF0BA95C9F714C0B13091F00E9488
:101FB0008B17B1E008950C948B17672F782F882723
:101FC000B85F39F0B93FCCF3869577956795B395AF
:101FD000D9F73EF490958095709561957F4F8F4F1E
:101FE0009F4F08950E94AD1608F48FEF08950E9448
:101FF000AD16880B990B0895CF93DF93823091052E
:1020000010F482E090E0E091DE03F091DF0320E045
:1020100030E0C0E0D0E0309711F1408151814817A5
:102020005907C0F04817590761F4828193812097BE
:1020300019F09B838A832BC09093DF038093DE0388
:1020400026C02115310519F04217530718F49A01DB
:10205000BE01DF01EF010280F381E02DDCCF21150D
:10206000310509F1281B390B2430310590F4129603
:102070008D919C9113976115710521F0FB0193835C
:10208000828304C09093DF038093DE03FD013296C8
:1020900044C0FD01E20FF31F819391932250310957
:1020A0002D933C933AC02091DC033091DD03232B28
:1020B00041F420910201309103013093DD0320931C
:1020C000DC0320910001309101012115310541F41B
:1020D0002DB73EB74091040150910501241B350BEB
:1020E000E091DC03F091DD03E217F307A0F42E1B6F
:1020F0003F0B2817390778F0AC014E5F5F4F24176C
:10210000350748F04E0F5F1F5093DD034093DC030B
:102110008193919302C0E0E0F0E0CF01DF91CF9195
:1021200008950F931F93CF93DF93009709F48CC00A
:10213000FC013297138212820091DE031091DF03BB
:102140000115110581F420813181820F931F2091A7
:10215000DC033091DD032817390779F5F093DD03AF
:10216000E093DC0371C0D80140E050E0AE17BF0738
:1021700050F412962D913C911397AD012115310524
:1021800009F1D901F3CF9D01DA0133832283608104
:102190007181860F971F8217930769F4EC012881DC
:1021A0003981260F371F2E5F3F4F318320838A816D
:1021B0009B8193838283452B29F4F093DF03E09383
:1021C000DE0342C01396FC93EE931297ED01499102
:1021D00059919E01240F351FE217F30771F4808196
:1021E0009181840F951F029611969C938E93828104
:1021F000938113969C938E931297E0E0F0E0D801C0
:1022000012968D919C911397009719F0F8018C010B
:10221000F6CF8D919C9198012E5F3F4F820F931FB7
:102220002091DC033091DD032817390769F43097DA
:1022300029F41092DF031092DE0302C0138212828F
:102240001093DD030093DC03DF91CF911F910F9179
:102250000895A0E0B0E0EFE2F1E10C94A117EC01E9
:10226000009721F4CB010E94FC0FB8C0FC01E60FDF
:10227000F71F9C0122503109E217F30708F4ACC0A4
:10228000D9010D911C91119706171707B0F0053071
:10229000110508F49FC0C80104978617970708F432
:1022A00099C002501109061B170B019311936D93EE
:1022B0007C93CF010E9491108DC05B01A01AB10ADE
:1022C0004C01800E911EA091DE03B091DF0340E02F
:1022D00050E0E12CF12C109709F44AC0A815B9057B
:1022E000D1F56D907C901197630182E0C80ED11CEE
:1022F000CA14DB0480F1A3014A195B096A0182E078
:10230000C80ED11C1296BC9012971396AC91B5E0F2
:10231000CB16D10440F0B282A38351834083D9010C
:102320006D937C930AC00E5F1F4FC301800F911FF6
:10233000F90191838083EB2DFA2FE114F10431F040
:10234000D7011396FC93EE93129744C0F093DF03EA
:10235000E093DE033FC08D919C9111974817590778
:1023600008F4AC017D0112960D90BC91A02DB3CF65
:102370008091DC039091DD0388159905E1F44617FF
:102380005707C8F48091000190910101009741F432
:102390008DB79EB74091040150910501841B950BA8
:1023A000E817F907C8F4F093DD03E093DC03F901C3
:1023B000718360830FC0CB010E94FC0F7C010097EA
:1023C00059F0A801BE010E94F811CE010E9491109F
:1023D000C70104C0CE0102C080E090E0CDB7DEB7F7
:1023E000EEE00C94BD1781E090E0F8940C94E317B4
:1023F000FB01DC0102C001900D9241505040D8F722
:102400000895FB01DC0101900D920020E1F7089591
:10241000EF920F931F93CF93DF93E80147FD02C024
:1024200034E001C034E1E42F440FFF0BF7FF03C099
:10243000F195E195F109E32E022F2E2FAE010E94B6
:102440007712CE01DF91CF911F910F91EF900895F8
:10245000662777270C940514FC0188279927E894B0
:1024600021912032E9F3293010F02E30C8F32B32BD
:1024700041F02D3239F4689404C00E945512820F45
:10248000911D219120532A30C0F31EF4909581951F
:102490009F4F0895BB274A3031F4992322F4BDE2BF
:1024A000909581959F4F0C945E127AE0979F902DA6
:1024B000879F802D910D11240895BB27FB0155277F
:1024C000AA27880F991FAA1FA41710F0A41B839591
:1024D0005051B9F7A05DAA3308F0A95DA193009708
:1024E00079F7B111B1931192CB010C945B164F9215
:1024F0005F926F927F929F92AF92BF92CF92DF9244
:10250000EF92FF920F931F93CF93DF93CDB7DEB778
:1025100029970FB6F894DEBF0FBECDBF6A01122F08
:10252000B02E2BE3201720F0FF24F394F00E02C00E
:10253000BCE3FB2E0F2D27E0AE014F5F5F4F0E94E3
:102540006215AC018981982F9970913031F0E1FCCE
:1025500006C0E0FE06C090E205C09DE203C09BE21B
:1025600001C090E0EE2DE07183FF3CC0911102C0EC
:1025700083E001C084E0811718F4212F281B01C0DB
:1025800020E0E1110BC0F601822F30E2882319F020
:1025900031938150FBCFC20ED11C20E0992329F04A
:1025A000D6019C93F60131966F01C6010396E2FEB7
:1025B0000AC03EE4D6013C9341E411964C93119736
:1025C00012963C9306C03EE6F601308341E6418315
:1025D0003283FC01322F40E2332309F442C041939D
:1025E0003150FACF82FF44C0911102C083E001C094
:1025F00084E0811718F4212F281B01C020E0E1118D
:102600000BC0F601822F30E2882319F031938150FC
:10261000FBCFC20ED11C20E0992329F0D6019C9358
:10262000F60131966F01C6010396E2FE0BC039E454
:10263000D6013C933EE411963C93119736E41296F2
:102640003C9307C039E6F60130833EE6318336E637
:102650003283FC01322F40E2332319F04193315091
:10266000FBCFFC01E20FF11D10828EEF9FEFB7C090
:10267000F1E0911101C0F0E06F2F70E01416150623
:1026800024F49A012F5F3F4F02C021E030E0260F73
:10269000371FBB2029F06B2D70E06F5F7F4F02C0AA
:1026A00060E070E0260F371F612F70E026173707B4
:1026B0001CF4121B212F01C020E03E2D387159F46B
:1026C000D601322F60E2332319F06D933150FBCFE6
:1026D000C20ED11C20E0FF2331F0D6019C93B6013D
:1026E0006F5F7F4F6B01E1110BC0F601922F30E35A
:1026F000992319F031939150FBCFC20ED11C20E0E9
:102700009F2D940F3A81782F7071A72E84FF03C0FC
:10271000313309F49150191624F4993018F098E0E7
:1027200001C091E0E42F852F57FF02C0E0E080E078
:102730006E2F782FE0E0F0E0AEE29A2E3A01691AAF
:1027400071082A01461A570A0B2D10E011950195C0
:1027500011096F3F8FEF780729F4D6019C92C601CB
:1027600001966C014617570784F0661677066CF4DD
:102770007F01E40CF51CA1E0B0E0AC0FBD1FEA0E38
:10278000FB1ED7011196BC9002C090E3B92E615098
:1027900071093196C60101967C016017710724F01A
:1027A000D601BC926C01D5CF6417750741F436335E
:1027B00020F4353321F4A11002C081E3B82EF601D4
:1027C000B082F701822F90E2882319F09193815013
:1027D000FBCFF701E20FF11D108280E090E0299617
:1027E0000FB6F894DEBF0FBECDBFDF91CF911F9122
:1027F0000F91FF90EF90DF90CF90BF90AF909F90A0
:102800007F906F905F904F900895A0E0B0E0EBE074
:10281000F4E10C94A117EC017B016115710519F02D
:10282000DB018D939C938E010F5F1F4F7880872D66
:1028300090E00E943A16892B11F0E801F4CFBDE236
:102840007B1205C00F5F1F4F7980C1E008C0EBE22B
:102850007E1204C08E010E5F1F4F7980C0E06801B8
:10286000F1E0CF1AD10843E050E06CED70E0C60112
:102870000E944316892BF1F4680122E0C20ED11C9C
:1028800045E050E067ED70E0C6010E944316892BD9
:1028900021F4680187E0C80ED11CE114F10419F09D
:1028A000D701CD92DC92C111FFC060E070E080E8FA
:1028B0009FE703C143E050E064ED70E0C6010E9471
:1028C0004316892B51F4E114F10409F4F2C00E5FB0
:1028D0001F4FF70111830083ECC0680160E070E0D6
:1028E000CB0100E010E0F601D0EDD70DDA3058F55D
:1028F0002C2F2260622E2C2F2870C2FF05C02111C0
:1029000028C00F5F1F4F25C0222311F0015011096D
:10291000A5E0B0E09B01AC010E9492174B015C0165
:10292000880C991CAA1CBB1CC501B4016D0F711D3C
:10293000811D911D6839A9E97A078A07A9E19A07DB
:1029400040F0C66005C0DE3F51F4C3FD44C0C8601E
:102950006C2EBFEFCB1ADB0A7080C62DC4CF2D2F93
:102960002F7D2531C1F540814D3211F4C06106C083
:102970004B3221F0319621E030E006C03296D6018C
:1029800011964C9122E030E0A0EDA40FAA3018F08F
:10299000E21BF30B20C040E050E04038BCE05B0796
:1029A0005CF49A01220F331F220F331F420F531F73
:1029B000440F551F4A0F511D3196DF0111972C917D
:1029C000A0EDA20FAA3048F3C4FF03C05195419572
:1029D0005109040F151FC1FF07C0E114F10421F0D4
:1029E0003197D701ED93FC930E947016C370C330EA
:1029F00019F06B017C0106C06B017C01F7FAF094C1
:102A0000F7F8F09420E030E0A901C701B6010E9478
:102A10006B16882309F445C017FF06C01195019570
:102A20001109C3EFD0E002C0CBE0D1E05E01B8E114
:102A3000AB1AB1084601BE2DAF2D90E2E92EF12C64
:102A40000E151F0584F0FE01259135914591549195
:102A5000B4018B2F9A2F0E94D1164B01B82FA92FAA
:102A60000E191F09EDCF2497F594E794CA15DB05DD
:102A700039F76401EB2EFA2E8E2D880F8F2D881FCB
:102A80008F3F49F020E030E0A901C701B6010E9464
:102A90006B16811106C082E290E09093E10380936F
:102AA000E003C701B60109C060E070E080E89FEF75
:102AB00004C060E070E080EC9FE7CDB7DEB7EEE0E9
:102AC0000C94BD17283008F027E03327DA01990F5E
:102AD000311D87FD916000966105710539F4326002
:102AE0002E5F3D9330E32A95E1F708959F3F30F044
:102AF00080387105610509F03C5F3C5F3D93913082
:102B000008F08068911DDF93CF931F930F93FF927E
:102B1000EF92192F987F9695E92F96959695E90F44
:102B2000FF27E759FE4F99273327EE24FF24A701FB
:102B3000E70105900894079428F4360FE71EF81E65
:102B4000491F511D660F771F881F991F0694A1F713
:102B50000590079428F4E70EF81E491F561FC11D63
:102B6000770F881F991F661F0694A1F70590079499
:102B700028F4F80E491F561FC71FD11D880F991F33
:102B8000661F771F0694A1F70590079420F4490F5C
:102B9000561FC71FD81F990F661F771F881F0694DF
:102BA000A9F784911095177041F0D695C795579560
:102BB0004795F794E7941A95C1F7EFE0F1E0689430
:102BC0001590159135916591959105907FE27395DA
:102BD000E118F10A430B560BC90BD009C0F7E10C01
:102BE000F11E431F561FC91FD01D7EF4703311F410
:102BF0008A95E6CFE894015030F0080F0AF40027D8
:102C0000021708F4202F2395022F7A3328F079E356
:102C10007D932A95E9F710C07D932A9589F606944D
:102C200097956795379517951794E118F10A430B17
:102C3000560BC90BD00998F023957E9173957A3382
:102C400008F070E37C932013B8F77E9170617D9358
:102C500030F0839571E37D9370E32A95E1F71124B9
:102C6000EF90FF900F911F91CF91DF91992787FDF2
:102C70009095089591110C943E17803219F0895067
:102C80008550C8F70895FB01DC014150504088F0A1
:102C90008D9181341CF08B350CF4805E659161342C
:102CA0001CF06B350CF4605E861B611171F3990B9F
:102CB0000895881BFCCFDC01FC01672F71917723FD
:102CC000E1F7329704C07C916D9370836291AE17E7
:102CD000BF07C8F308950E94AD1608F481E0089577
:102CE000E89409C097FB3EF49095809570956195A6
:102CF0007F4F8F4F9F4F9923A9F0F92F96E9BB275C
:102D00009395F695879577956795B795F111F8CFD7
:102D1000FAF4BB0F11F460FF1BC06F5F7F4F8F4F42
:102D20009F4F16C0882311F096E911C0772321F038
:102D30009EE8872F762F05C0662371F096E8862FD0
:102D400070E060E02AF09A95660F771F881FDAF727
:102D5000880F9695879597F90895990F0008550F54
:102D6000AA0BE0E8FEEF16161706E807F907C0F011
:102D700012161306E407F50798F0621B730B840B19
:102D8000950B39F40A2661F0232B242B252B21F4F3
:102D900008950A2609F4A140A6958FEF811D811D93
:102DA00008950E94E4160C9458170E944A1738F0B0
:102DB0000E94511720F0952311F00C9441170C94A8
:102DC000471711240C948C170E94691770F3959F74
:102DD000C1F3950F50E0551F629FF001729FBB2712
:102DE000F00DB11D639FAA27F00DB11DAA1F649FAE
:102DF0006627B00DA11D661F829F2227B00DA11D61
:102E0000621F739FB00DA11D621F839FA00D611DE6
:102E1000221F749F3327A00D611D231F849F600D07
:102E2000211D822F762F6A2F11249F5750409AF030
:102E3000F1F088234AF0EE0FFF1FBB1F661F771FBC
:102E4000881F91505040A9F79E3F510580F00C9487
:102E500041170C948C175F3FE4F3983ED4F38695AA
:102E600077956795B795F795E7959F5FC1F7FE2B27
:102E7000880F911D9695879597F90895992788272A
:102E8000089597F99F6780E870E060E008959FEFEC
:102E900080EC089500240A941616170618060906F1
:102EA000089500240A9412161306140605060895C0
:102EB000092E0394000C11F4882352F0BB0F40F448
:102EC000BF2B11F460FF04C06F5F7F4F8F4F9F4F88
:102ED000089557FD9058440F551F59F05F3F71F00A
:102EE0004795880F97FB991F61F09F3F79F0879571
:102EF0000895121613061406551FF2CF4695F1DFFA
:102F000008C0161617061806991FF1CF8695710589
:102F1000610508940895E894BB2766277727CB01BD
:102F200097F908950E94D417A59F900DB49F900D16
:102F3000A49F800D911D112408952F923F924F92CE
:102F40005F926F927F928F929F92AF92BF92CF9239
:102F5000DF92EF92FF920F931F93CF93DF93CDB742
:102F6000DEB7CA1BDB0B0FB6F894DEBF0FBECDBFBA
:102F700009942A88398848885F846E847D848C848B
:102F80009B84AA84B984C884DF80EE80FD800C8194
:102F90001B81AA81B981CE0FD11D0FB6F894DEBF77
:102FA0000FBECDBFED010895A29FB001B39FC00138
:102FB000A39F700D811D1124911DB29F700D811D65
:102FC0001124911D089511E0C6E0D1E004C0FE0176
:102FD0000E94500F2196C730D107C9F7F894FFCF50
:102FE0000000E20380000000000089053201520564
:102FF00030054405D00553656E64696E67207069BD
:103000006E67732E2E2E004552524F5220303033B1
:10301000212120556E61626C6520746F20636F6E94
:103020007461637420687562200052656365697617
:1030300065642061636B6E6F776C656467652E2EC7
:103040002E004552524F5220303038212120496EF7
:10305000636F72726563742061636B6E6F776C650A
:103060006467656D656E742070696E672072656354
:1030700069657665642066726F6D20004552524F17
:1030800052203030372121204E6F2061636B6E6FEC
:10309000776C656467656D656E742070696E672016
:1030A00072656369657665642066726F6D2000578E
:1030B000616974696E6720666F722070696E6773EC
:1030C0002E2E2E00526563656976696E6720446115
:1030D00074612E2E2E004552524F5220303039212D
:1030E000212054696D65206F757421204E6F20700A
:1030F000696E672072656365697665642121005396
:10310000656E64696E672050696E67206261636BEB
:103110002E2E2E0050696E67207374617475733A99
:1031200020002F2F2F2F2F2F2F2F2F2F2F2F2F2FED
:103130002F2F2F2F2F2F2F004D7920416464726580
:1031400073733A2000526561642052616E67653A7C
:103150000056565656000D0A005F5F5F5F5F5F5F67
:103160005F5F5F5F5F5F5F5F5F5F5F5F006E616EAE
:1031700000696E66006F76660053756363657373EE
:1031800066756C20636F6E74616374207769746810
:103190002068756220004552524F52203031312153
:1031A00021204D6573616765206E6F7420666F72B4
:0831B0006D61746564212100CA
:00000001FF
