:100000000C94E8000C9410010C9410010C94100155
:100010000C9410010C9410010C9410010C9410011C
:100020000C9410010C9410010C9410010C9410010C
:100030000C9410010C9410010C9410010C941001FC
:100040000C94AC080C9410010C94C8070C94A207F3
:100050000C9410010C9410010C9410010C941001DC
:100060000C9410010C94100100407A10F35A00A077
:10007000724E18090010A5D4E80000E87648170071
:1000800000E40B54020000CA9A3B000000E1F505B1
:10009000000080969800000040420F000000A086FB
:1000A00001000000102700000000E803000000002D
:1000B0006400000000000A000000000001000000D1
:1000C00000002C76D888DC674F0823DFC1DFAE59EB
:1000D000E1B1B796E5E3E453C63AE651997696E87E
:1000E000E6C28426EB898C9B62ED407C6FFCEFBC02
:1000F0009C9F40F2BAA56FA5F490055A2AF75C932D
:100100006B6CF9676DC11BFCE0E40D47FEF520E662
:10011000B500D0ED902E0300943577050080841E45
:10012000080000204E0A000000C80C333333330FA0
:10013000986E12831141EF8D2114893BE65516CF3D
:10014000FEE6DB18D1844B381BF77C1D901DA4BB49
:10015000E424203284725E228100C9F124ECA1E5FE
:100160003D2700000000240027002A0000000000B6
:1001700023002600290000010203040504040404EE
:100180000404040402020202020203030303030341
:10019000010204081020408001020408102001021E
:1001A000040810201112131415160A0B0C0D0E0F53
:1001B00000000000250028002B00000000080002BD
:1001C00001000003040700000000000000001212FC
:1001D00011241FBECFEFD8E0DEBFCDBF24E0ACE1DD
:1001E000B3E001C01D92A632B207E1F713E0A0E030
:1001F000B1E0EEE8F6E302C005900D92AC31B10734
:10020000D9F710E0C8EED0E004C02197FE010E94AB
:100210002A19C73ED107C9F70E94B80C0C94451B98
:100220000C9400008F929F92AF92BF92CF92DF9278
:10023000EF92FF92CF93DF93A091F203882311F006
:100240003A2F01C030E08091F30390E0880F991FAE
:1002500084599E4FC090F803D090F903E090FA03C0
:10026000F090FB0340E050E0BA01FC01C591D4914D
:1002700028812A2323130FC04A015B012FEF821A22
:10028000920AA20AB20A4C155D056E057F0538F484
:10029000B501A401EACF342F252FCB0104C030E0F3
:1002A00020E080E090E0632F722FDF91CF91FF90EC
:1002B000EF90DF90CF90BF90AF909F908F90089578
:1002C000009769F0FC0101900020E9F73197AF0138
:1002D000481B590BBC018FE193E00C94640B80E048
:1002E00090E008958F929F92AF92BF920F931F93C9
:1002F000CF93DF93CDB7DEB7A1970FB6F894DEBFEB
:100300000FBECDBF19A2423008F44AE08E010F5D46
:100310001F4F842E912CA12CB12CA50194010E9479
:100320000819E62FB901CA0101501109EA3014F485
:10033000E05D01C0E95CD801EC93232B242B252B35
:1003400061F7C8010E946001A1960FB6F894DEBF64
:100350000FBECDBFDF91CF911F910F91BF90AF9096
:100360009F908F900895CF92DF92EF92FF92CF935C
:10037000DF936B017C01E0911F03F091200301905A
:10038000F081E02D6DE28FE193E00995EC016627A5
:100390007727CB016C197D098E099F094AE00E94DD
:1003A00072018C0F9D1FDF91CF91FF90EF90DF9036
:1003B000CF9008950F931F930E94A0086093270386
:1003C000709328038093290390932A03E0911F03DD
:1003D000F09120030284F385E02D8FE193E00995ED
:1003E00097FF1FC00E94A0080091270310912803C7
:1003F0002091290330912A03DC01CB01801B910B52
:10040000A20BB30B00912303109124032091250329
:100410003091260380179107A207B307B8F28FEF38
:100420009FEF1F910F910895CF92DF92EF92FF926D
:100430000F931F93CF93DF93CDB7DEB7C054D14056
:100440000FB6F894DEBF0FBECDBF0E94A00800918A
:10045000F4031091F5032091F6033091F7036B013B
:100460007C01C01AD10AE20AF30A40EDC41647E043
:10047000D406E104F10418F48091FC03BCC060933D
:10048000F4037093F5038093F6039093F7031092AF
:10049000EF031092EE031092ED031092EC03109212
:1004A000EB0361E08091F0030E94FA076AEF70E0CD
:1004B00080E090E00E94660861E08091F0030E9475
:1004C0002A0860E08091F0030E94FA0764E170E07E
:1004D00080E090E00E946608F89461E08091F0036B
:1004E0000E94FA078BE990E00197F1F762E08091B2
:1004F000F0030E942A0883E290E00197F1F780E080
:100500000E941201672B682B692B21F41092FC03C7
:1005100078943EC081E00E941201672B682B692B02
:10052000A9F38E010F5F1F4F6E018FEBC81A8EEF7C
:10053000D80A780180E00E941201F701608371837C
:100540008283938381E00E941201F70164837583A3
:1005500086839783F8E0EF0EF11CEC14FD0451F74D
:10056000789420E030E0F80140815181628173810C
:10057000C480D580E680F78041155105610571057D
:1005800029F0C114D104E104F10421F41092FC0318
:1005900080E031C0F90183E0F595E7958A95E1F7B0
:1005A000E551FC4F8081880F4C155D056E057F0578
:1005B00008F4816080832F5F3F4F085F1F4F283210
:1005C000310589F62091EF0330E04091EB038091F3
:1005D000EC0390E0840F911D4091ED03840F911D79
:1005E0004091EE03840F911D99272817390771F662
:1005F00081E08093FC03C05CDE4F0FB6F894DEBF51
:100600000FBECDBFDF91CF911F910F91FF90EF9063
:10061000DF90CF900895EFE1F3E0A089B18982E007
:100620008C93A485B5851C92A685B7858FEC8C9399
:10063000108EA489B58986E08C93A289B3898C91A8
:1006400080618C93A289B3898C9188608C93A289F4
:10065000B3898C9180688C930288F389E02D808126
:100660008F7D80830895CF93DF930E946001EC011A
:100670008AE093E00E9460018C0F9D1FDF91CF9173
:100680000895CF93DF93BC01990F880B990B97FFC7
:1006900003C00E94B30103C04AE00E947201EC0152
:1006A0008AE093E00E9460018C0F9D1FDF91CF9143
:1006B00008950C946001BC01990F880B990B97FD6C
:1006C0000C94B3014AE00C947201CF92DF92EF9246
:1006D000FF920F931F93CF93DF9300D0CDB7DEB778
:1006E0008C01FC019781D42E941708F4D92EF801BF
:1006F0008085811103C0C92ECD1801C0C12CC8014D
:1007000069837A830E941D0980EA0E942009698119
:10071000E62E7A81F72ED60EDE1431F0F7018191A4
:100720007F010E942009F8CFCC2029F080E00E94B0
:100730002009CA94F9CFC8010E941A0961E0C801D2
:100740000E94F6086FEFC8010E9427098073D1F359
:1007500060E0C8010E94F60840E767E0C8010E9417
:10076000460984FF05C0C8010E94430980E001C01A
:1007700081E00F900F90DF91CF911F910F91FF902B
:10078000EF90DF90CF900895CF93DF93EC0162E07C
:100790000E94250AE6E7F1E0E49121E030E001C0A3
:1007A000220FEA95EAF72095422F482362E0CE0116
:1007B000DF91CF910C944609EF92FF920F931F9314
:1007C000CF93DF9300D0CDB7DEB78C016CE073E040
:1007D0000E94A30C0E94DA0197FD1EC089831A8231
:1007E000F801E480F580FFEFEF1AFF0AB701C801B6
:1007F0000E942B0C882371F3F801208131818481C0
:100800009581BE016F5F7F4F820F931F0E943E1B39
:10081000F801F582E482DECFC8010F900F90DF91DE
:10082000CF911F910F91FF90EF9008950F931F9319
:10083000CF938C0166E08DEF93E00E94250AC82FCC
:10084000C77D0230110531F4C0628BE990E0A0E071
:10085000B0E00DC00130110529F085E590E0A0E081
:10086000B0E005C0C86081E490E0A0E0B0E0809313
:100870000D0490930E04A0930F04B09310044C2F1A
:1008800066E08DEF93E00E94460966E08DEF93E00D
:100890000E94250A91E08C1390E0892FCF911F913F
:1008A0000F9108958F929F92AF92BF92EF92FF9215
:1008B0000F931F93CF93DF93CDB7DEB7E3970FB6B8
:1008C000F894DEBF0FBECDBF7C014A015B018901F8
:1008D000C90189529342873E934098F420E030E06A
:1008E000A901C501B4010E943B1787FD0AC020E0A1
:1008F0003CE34CE156E4C501B4010E94031918160B
:1009000034F46DE073E0C7010E94A30CE4C06CE016
:1009100073E0CE018E960E94A30C6CE073E0CE01D2
:1009200088960E94A30C1BA21AA21DA21CA21FA2A1
:100930001EA24AE0BE016F5F7F4FC8010E9498145B
:10094000BE016F5F7F4FCE0182960E947D0CBE017B
:100950006E5D7F4FCE018E960E94F20BCE01829685
:100960000E949E0C6AA97BA92EA53FA5ECEBF3E0A3
:1009700080E090E08617970718F42115310529F4D7
:1009800010921E03AEE1B3E003C0D901A80FB91F56
:100990004C91419301968430910561F78DE28093EB
:1009A000C0031BA21AA21DA21CA21FA21EA28E017E
:1009B0000F5F1F4F22E044E0C501B4010E945A14AA
:1009C000BC01CE0182960E947D0CBE016E5D7F4F00
:1009D000CE018E960E94F20BCE0182960E949E0C52
:1009E0006AA97BA92EA53FA580E090E0861797070E
:1009F00018F42115310529F410921E03EEE1F3E0FD
:100A000003C0F901E80FF91F4081FC01E454FC4FD9
:100A1000458301968530910549F78DE28093C603A1
:100A20001BA21AA21DA21CA21FA21EA24AE0BE0166
:100A30006F5F7F4F84E090E00E949814BE016F5F6B
:100A40007F4FCE0182960E947D0CBE016E5D7F4F6E
:100A5000CE018E960E94F20BCE0182960E949E0CD1
:100A60004AA95BA98EA59FA520E030E02417350791
:100A700091F0009729F410921E03EEE1F3E003C019
:100A8000FC01E20FF31F6081F901E454FC4F63871E
:100A90002F5F3F4FEBCFF901E454FC4F88E783878A
:100AA0006CEB73E0CE0188960E947D0CF7011182F9
:100AB00010821382128215821482BE01685D7F4FFC
:100AC000C7010E94F20BCE0188960E949E0CCE01B7
:100AD0008E960E949E0CC701E3960FB6F894DEBF77
:100AE0000FBECDBFDF91CF911F910F91FF90EF907F
:100AF000BF90AF909F908F900895CF92DF92EF922A
:100B0000FF92CF930E9414028823D1F18091F103C8
:100B10008B3029F0A8F18551823048F031C06091C6
:100B2000ED0370E080E090E00E9440172DC0C0917E
:100B3000ED036C2F6F7770E080E090E00E94421729
:100B400020E030E040E853E40E94A1176B017C01F3
:100B50008091EE03682F70E080E090E00E944217E1
:100B60009B01AC01C701B6010E9497182DEC3CEC2B
:100B70004CEC5DE30E94A117C7FF06C0905804C06B
:100B800060E070E080EC9FE7CF91FF90EF90DF9006
:100B9000CF900895CF92DF92EF92FF920F931F9321
:100BA000CF93DF93CDB7DEB767970FB6F894DEBF6C
:100BB0000FBECDBFCE0101966C0181E1F60111920D
:100BC0008A95E9F76CE073E0CE0142960E94A30C8F
:100BD000F090DE03E090DD035F2D550F550B052FE0
:100BE000152F252F352F452F60E08091CF03909151
:100BF000D0030E94450A8091CF039091D0030E94B8
:100C00002E0B8091CF039091D0030E94B50A8823C8
:100C1000C1F341E1B6018091CF039091D0030E94CE
:100C20006A09B601CE0142960E947D0C62EE809167
:100C3000CF039091D0030E9427098091CF03909118
:100C4000D0030E94C4034E895F896A897B898FE142
:100C500093E00E94640B4AE060E070E0CB010E94E8
:100C60007201E0911F03F09120030190F081E02DCB
:100C70006EE28FE193E009954AE060E070E0CB011D
:100C80000E9472014AE060E070E0CB010E947201B4
:100C90008AE093E00E94600180E090E00E944103BE
:100CA00080E090E00E944103CE0142960E949E0C9B
:100CB00081E067960FB6F894DEBF0FBECDBFDF911F
:100CC000CF911F910F91FF90EF90DF90CF900895FB
:100CD000089580E090E00895FC01538D448D252F08
:100CE00030E0842F90E0821B930B541710F0CF96C6
:100CF000089501970895FC01918D828D981761F0F8
:100D0000828DDF01A80FB11D5D968C91928D9F5F42
:100D10009F73928F90E008958FEF9FEF0895FC01ED
:100D2000918D828D981731F0828DE80FF11D858DA0
:100D300090E008958FEF9FEF0895FC01918D228D33
:100D4000892F90E0805C9F4F821B91098F739927B8
:100D500008958FE193E00E949D0621E0892B09F41C
:100D600020E0822F0895FC01848DDF01A80FB11DC2
:100D7000A35ABF4F2C91848D90E001968F739927D1
:100D8000848FA689B7892C93A089B1898C918064BE
:100D90008C93938D848D981306C00288F389E02D7F
:100DA00080818F7D80830895EF92FF920F931F9330
:100DB000CF93DF93EC0181E0888F9B8D8C8D98130E
:100DC00005C0E889F989808185FD24C0F62E0B8D48
:100DD00010E00F5F1F4F0F731127E02E8C8DE8126C
:100DE0000CC00FB607FCFACFE889F989808185FF2E
:100DF000F5CFCE010E94B306F1CF8B8DFE01E80F37
:100E0000F11DE35AFF4FF0820B8FEA89FB89808145
:100E1000806207C0EE89FF896083E889F989808153
:100E20008064808381E090E0DF91CF911F910F91EA
:100E3000FF90EF900895CF93DF93EC01888D882386
:100E4000C9F0EA89FB89808185FD05C0A889B98937
:100E50008C9186FD0FC00FB607FCF5CF808185FF12
:100E6000F2CFA889B9898C9185FFEDCFCE010E9480
:100E7000B306E7CFDF91CF91089580E090E0892B12
:100E800029F00E94A90681110C9400000895833076
:100E900081F028F4813099F08230A1F008958730F4
:100EA000A9F08830B9F08430D1F4809180008F7D32
:100EB00003C0809180008F7780938000089584B56F
:100EC0008F7702C084B58F7D84BD08958091B00076
:100ED0008F7703C08091B0008F7D8093B00008951C
:100EE0008230910538F0880F991F880F991F059758
:100EF0000197F1F708953FB7F89480911E049091FF
:100F00001F04A0912004B091210426B5A89B05C020
:100F10002F3F19F00196A11DB11D3FBFBA2FA92F78
:100F2000982F8827820F911DA11DB11DBC01CD01F5
:100F300042E0660F771F881F991F4A95D1F70895E1
:100F40000E94271B1F920F920FB60F9211242F930E
:100F50003F934F935F936F937F938F939F93AF9341
:100F6000BF93EF93FF938FE193E00E94B306FF914D
:100F7000EF91BF91AF919F918F917F916F915F9111
:100F80004F913F912F910F900FBE0F901F9018958A
:100F90001F920F920FB60F9211242F938F939F934E
:100FA000EF93FF93E0912F03F09130038081E09164
:100FB0003503F091360382FD12C090818091380391
:100FC0008F5F8F7320913903821751F0E0913803BE
:100FD000F0E0E15EFC4F958F8093380301C0808183
:100FE000FF91EF919F918F912F910F900FBE0F90D6
:100FF0001F9018951F93CF93DF93282F30E0F901AE
:10100000E654FE4F8491F901E057FE4FD491F90167
:10101000E458FE4FC491CC23C9F0162F81110E94D1
:101020004707EC2FF0E0EE0FFF1FE055FE4FA591B4
:10103000B4918FB7F894111105C09C91ED2FE095F4
:10104000E92302C0EC91ED2BEC938FBFDF91CF91A0
:101050001F910895CF93DF9390E0FC01E057FE4F7E
:101060002491FC01E458FE4F8491882361F190E0C3
:10107000880F991FFC01EE59FE4FC591D491FC01D8
:10108000E055FE4FA591B491611109C09FB7F89446
:101090008881209582238883EC912E230BC06230B7
:1010A00061F49FB7F8943881822F809583238883D9
:1010B000EC912E2B2C939FBF06C08FB7F894E8813C
:1010C0002E2B28838FBFDF91CF9108958F929F920F
:1010D000AF92BF92CF92DF92EF92FF926B017C01B1
:1010E0000E947B074B015C01C114D104E104F104AF
:1010F000F1F00E947B07DC01CB0188199909AA094C
:10110000BB09883E9340A105B10570F321E0C21AE6
:10111000D108E108F10888EE880E83E0981EA11C32
:10112000B11CC114D104E104F10419F7DDCFFF9023
:10113000EF90DF90CF90BF90AF909F908F900895E9
:101140002FB7F89460911A0470911B0480911C04CD
:1011500090911D042FBF08951F920F920FB60F920A
:1011600011242F933F938F939F93AF93BF938091BD
:101170001A0490911B04A0911C04B0911D0430919D
:10118000190423E0230F2D3720F40196A11DB11D72
:1011900005C026E8230F0296A11DB11D2093190456
:1011A00080931A0490931B04A0931C04B0931D0415
:1011B00080911E0490911F04A0912004B0912104FD
:1011C0000196A11DB11D80931E0490931F04A0934E
:1011D0002004B0932104BF91AF919F918F913F91D3
:1011E0002F910F900FBE0F901F901895FC0120813A
:1011F0003181828193812817390719F0822F0C944D
:10120000FA070895CF93DF93EC019CB59F7D9CBDB9
:101210009CB5937F9CBD9CB59C7F9CBD9DB591600A
:101220009DBD8A810E94FA078C899D89DF91CF91AB
:101230000C94700761E00C94020960E00C940209C0
:101240008EBD00000DB407FEFDCF8EB50895EF9260
:10125000FF921F93CF93DF931F92CDB7DEB77C0130
:1012600069830E941D096981862F0E942009182F19
:10127000C7010E941A09812F0F90DF91CF911F9112
:10128000FF90EF90089561EE0C942709EF92FF9282
:101290001F93CF93DF9300D0CDB7DEB77C014A8395
:1012A00069830E941D096981862F8F7180620E9467
:1012B0002009182F4A81842F0E942009C7010E940B
:1012C0001A09812F0F900F90DF91CF911F91FF90FE
:1012D000EF900895CF92DF92EF92FF920F931F93BA
:1012E000CF93DF9300D0CDB7DEB78C01FC0197819F
:1012F000C42E941708F4C92EF8018085811103C00B
:10130000D92EDC1801C0D12CC80169837A830E94D0
:101310001D0981E60E9420096981E62E7A81F72E57
:10132000C60ECE1439F08FEF0E942009F701819389
:101330007F01F7CFDD2029F08FEF0E942009DA949A
:10134000F9CFC8010E941A0940E767E0C8010F9071
:101350000F90DF91CF911F910F91FF90EF90DF9051
:10136000CF900C944609CF92DF92EF92FF920F93A9
:101370001F93CF93DF9300D01F92CDB7DEB77C01D0
:10138000142F2A835B8369830E941D096981862F3C
:101390008F7180620E942009082FC12E5B81D52E9B
:1013A0002A81120F1C1531F0F60181916F010E9404
:1013B0002009F8CFC7010E941A09802F0F900F90C3
:1013C0000F90DF91CF911F910F91FF90EF90DF90E1
:1013D000CF900895EF92FF920F931F93CF93DF93D7
:1013E000CDB7DEB728970FB6F894DEBF0FBECDBFDE
:1013F0007C0109831A832B833C834D835E836F8337
:101400007887FC012685AE014F5F5F4F6AE00E943E
:10141000B309F7012685AE014F5F5F4F60E1C70159
:101420000E94B309F701478161E1C7010E944609A3
:1014300028960FB6F894DEBF0FBECDBFDF91CF91D7
:101440001F910F91FF90EF900895EF92FF921F93DD
:10145000CF93DF931F92CDB7DEB77C0169830E94E3
:101460001D096981862F8F710E9420098FEF0E94CC
:101470002009182FC7010E941A09812F0F90DF91B0
:10148000CF911F91FF90EF900895AF92BF92DF929E
:10149000EF92FF920F931F93CF93DF93CDB7DEB7F9
:1014A00028970FB6F894DEBF0FBECDBF5C01D62ED5
:1014B000E982FA820B831C832D833E834F835887F6
:1014C00061110AC0FC01468550E0BE016F5F7F4F8D
:1014D00009960E942C1B07C0F6E0F61708F435C0E9
:1014E00081E0681308C0ED2DF0E0E655FE4F6491F1
:1014F000F501268506C0E62FF0E0E655FE4F649123
:1015000021E0AE014F5F5F4FC5010E94B3090D2D71
:1015100010E0F801EC55FE4F6491F5014781C501DB
:101520000E94460962E0C5010E94250AF801EA58B6
:10153000FE4FE49141E050E001C0440FEA95EAF724
:10154000482B62E0C5010E94460928960FB6F89420
:10155000DEBF0FBECDBFDF91CF911F910F91FF90E6
:10156000EF90DF90BF90AF90089567E10E94250A49
:10157000809581700895CF93DF93EC0167E1CE01F0
:101580000E94250A84FD14C06FEFCE010E94270936
:1015900084FFF4CF40E167E0CE010E94460960E09D
:1015A000CE010E94F608CE010E94430980E005C0EA
:1015B00060E0CE010E94F60881E0DF91CF910895AE
:1015C000CF93DF93EC0160E00E94250A81FD0EC0FD
:1015D000482F426060E0CE010E94460965E070E05D
:1015E00080E090E0DF91CF910C946608DF91CF917D
:1015F0000895CF93DF93EC0160E00E94F60888899C
:1016000099890E9470076DE1CE010E94250A81FF31
:1016100007C0888999890E947007CE010E944309FA
:1016200060E0CE010E94250A482F4E7F60E0CE0187
:101630000E94460962E0CE010E94250AE6E7F1E039
:10164000E49141E050E001C0440FEA95EAF7482BED
:1016500062E0CE01DF91CF910C944609CF93DF93E6
:10166000EC010E94E00A60E0CE010E94250A482FAA
:10167000416060E0CE010E94460940E767E0CE018C
:101680000E94460961E0CE010E94F6088985882300
:1016900049F02E85AE01475F5F4F6AE0CE010E94A0
:1016A000B30903C0CE010E94C4036DE1CE010E94C4
:1016B000250A81FF05C0CE01DF91CF910C9443092B
:1016C000DF91CF9108950895CF92DF92EF92FF922C
:1016D0000F931F93CF93DF936C017A018B01C0E0CE
:1016E000D0E0CE15DF0589F0D8016D918D01D601CE
:1016F000ED91FC910190F081E02DC6010995892BB7
:1017000011F47E0102C02196ECCFC701DF91CF9189
:101710001F910F91FF90EF90DF90CF900895FF926F
:101720000F931F93CF93DF93F82EC92F8091CF0390
:101730009091D0030E94F90A0F2D7C2F770F770B21
:101740001C2F272F372F472F572F672F8091CF031D
:101750009091D0030E94EA0961E088E00E94FA07B4
:1017600042E069E173E08091CF039091D0030E9441
:101770006503D82F882359F060E088E00E94FA07BB
:101780008091CF039091D0030E94BB0A24C00E9495
:101790000B0387E992E00E94330382E591E00E9407
:1017A00059038F2D9C2F0E945B0389E391E00E94D7
:1017B000330361E087E00E94FA0768EE73E080E09F
:1017C00090E00E94660860E087E00E94FA0760E00F
:1017D00088E00E94FA078D2FDF91CF911F910F9122
:1017E000FF9008950F931F93CF93DF938C01EB012C
:1017F000FC01808191810097B1F068817981611548
:10180000710579F0428153812C813D814217530744
:1018100040F00E943E1B8C819D81F801958384835A
:1018200013C00E94C51988819981F8019183808332
:101830008A819B81938382838C819D81958384831C
:10184000198218821B821A821D821C82DF91CF911D
:101850001F910F9108950F931F93CF93DF93EC0186
:1018600088819981009729F02A813B8126173707C3
:1018700088F48B016F5F7F4F0E945D1A009761F0C3
:10188000998388831B830A832C813D81232B11F448
:10189000FC01108281E001C080E0DF91CF911F91B7
:1018A0000F910895EF92FF920F931F93CF93DF93C1
:1018B000EC017B018A01BA010E942B0C288139813D
:1018C00081110DC02115310519F0C9010E94C519FA
:1018D000198218821D821C821B821A8206C01D83F7
:1018E0000C83B701C9010E943E1BCE01DF91CF914D
:1018F0001F910F91FF90EF900895CF93DF93EC012C
:101900006115710559F0FB0101900020E9F731974D
:10191000AF01461B570B0E94520C0CC08881998165
:10192000009711F00E94C519198218821D821C822D
:101930001B821A82CE01DF91CF910895FC01808134
:1019400091810C94C519FC011182108213821282BC
:10195000158214826115710551F0FB010190002080
:10196000E9F73197AF01461B570B0C94520C0895C1
:10197000CF93DF93CDB7DEB762970FB6F894DEBF93
:101980000FBECDBF789484B5826084BD84B581607C
:1019900084BD85B5826085BD85B5816085BD80913A
:1019A0006E00816080936E001092810080918100B2
:1019B00082608093810080918100816080938100AA
:1019C000809180008160809380008091B10084606C
:1019D0008093B1008091B00081608093B0008091CD
:1019E0007A00846080937A0080917A00826080938C
:1019F0007A0080917A00816080937A0080917A00E9
:101A0000806880937A001092C1000E940B0388E1E5
:101A100091E00E9433038091FD039091FE03209199
:101A2000FF03309100048217930719F061E00E94D0
:101A30002A088091FF03909100042091FD033091CA
:101A4000FE032817390719F061E00E942A081FB722
:101A5000F89480911C03811127C0E6E8F1E084919D
:101A6000EAE9F1E09491E82FF0E0EE0FFF1FEE5964
:101A7000FE4FA591B491EC91E92321F461E08AE055
:101A80000E94FA0761E08AE00E942A088CB5806112
:101A90008CBD8CB580648CBD61E08DE00E942A080D
:101AA00061E08BE00E942A0880911C038F5F809385
:101AB0001C031FBF60E08DEF93E00E94F60861E019
:101AC0008DEF93E00E94020965E070E080E090E015
:101AD0000E9466084CE060E08DEF93E00E944609AA
:101AE0004FE564E08DEF93E00E94460982E090E0CC
:101AF0000E941604882319F081E08093030466E0B5
:101B00008DEF93E00E94250A80E090E00E94160489
:101B10008DEF93E00E941D0980E50E94200983E774
:101B20000E9420098DEF93E00E941A0940E06DE1C8
:101B30008DEF93E00E94460940E06CE18DEF93E069
:101B40000E9446091092050440E767E08DEF93E09C
:101B50000E9446094CE465E08DEF93E00E9446093F
:101B600062EE8DEF93E00E9427098DEF93E00E94D3
:101B700043098DEF93E00E94E00A60E08DEF93E06F
:101B80000E94250A482F4E7F60E08DEF93E00E946F
:101B9000460968EC70E080E090E00E94660862E030
:101BA0008091F0030E942A0880E398EFAFEFBFEF27
:101BB0008093F4039093F503A093F603B093F70397
:101BC00060E082E00E942A0860E083E00E942A0828
:101BD00060E084E00E942A0860E085E00E942A0814
:101BE00061E087E00E942A0861E088E00E942A08FC
:101BF00061E088E00E94FA0766E08DEF93E00E94C2
:101C0000250A482F476066E08DEF93E00E94460961
:101C100082E090E00E941604811104C081E291E00C
:101C20000E9433034CE765E08DEF93E00E94460984
:101C30000E94A0086B0120E3C21A28EFD20A6CE0D0
:101C400073E0CE0107960E94A30C8FE193E00E94FF
:101C50001B070D2C000CEE08FF080E94A0086C1555
:101C60007D058E059F0568F08091DD039091DE0370
:101C70008932934209F0DFC08CEBC82E83E0D82E66
:101C800024C08FE193E00E949D06181619062CF7D8
:101C9000CE0101960E94DC03BE016F5F7F4FCE0133
:101CA00007960E94F20BCE0101960E949E0C8B8536
:101CB0009C85892BC9F20F8118856CE371E0C801FE
:101CC0000E94351B892B81F245C1F6018788908CD3
:101CD0001A82198287E992E00E94330381E491E03D
:101CE0000E9433038091CF039091D0030E94F90AA0
:101CF000F601108D0789712F770F770B272F372F5C
:101D0000472F572F672F8091CF039091D0030E94C8
:101D1000EA09F6018789908D9A83898342E0BE01A2
:101D20006F5F7F4F8091CF039091D0030E94650336
:101D3000882389F068EC70E080E090E00E946608FB
:101D400042E06DED73E08091CF039091D0030E944B
:101D5000650381110EC009811A810E940B0387E976
:101D600092E00E94330382E591E00E945903C8018A
:101D700043C01A821982F601A788B08CF090DE0366
:101D8000E090DD035F2D550F550B052F152F252FE7
:101D9000352F452F61E08091CF039091D0030E94B1
:101DA000450A8091CF039091D0030E942E0B0E9490
:101DB000A0088B0108511C4F2801012E000C660859
:101DC00077088091CF039091D0030E94B50A8111CA
:101DD0004BC20E94A008641575058605970588F317
:101DE00043C20E940B0387E992E00E9433038DE80F
:101DF00091E00E945903C5010E945B0389E391E0D1
:101E00000E94330361E087E00E94FA0768EE73E006
:101E100080E090E00E94660860E087E00E94FA0798
:101E2000F2E0CF0ED11C26ECC21623E0D20609F058
:101E30004CCFF12C8CC08AEF91E00E9433031E86B8
:101E40001D861A821982F090DE03E090DD035F2D7B
:101E5000550F550B052F152F252F352F452F61E0D9
:101E60008091CF039091D0030E94450A8091CF03C7
:101E70009091D0030E942E0BF12C0E94A0088B01A0
:101E8000005D1A484801012E000CAA08BB08809189
:101E9000CF039091D0030E94B50A811107C00E9420
:101EA000A008681579058A059B0588F38091CF0302
:101EB0009091D0030E94B50A882309F40EC28FE0E6
:101EC00092E00E94330342E0BE01635F7F4F809146
:101ED000CF039091D0030E946A090E94A0088B0151
:101EE000005D1A484801012E000CAA08BB08809129
:101EF000CF039091D0030E94B50A882309F412C23F
:101F00008091CF039091D0030E94B50A882309F4F1
:101F100012C242E0BE016F5F7F4F8091CF0390916C
:101F2000D0030E946A092D853E858091DD03909142
:101F3000DE032817390709F423C22D853E858091D9
:101F4000DD039091DE032817390709F096CFF09250
:101F50001D030AC064E073E0C8010E94351B892B91
:101F600009F082CE10921D0360E088E00E94FA071B
:101F700088E692E00E94590380911D0390E00E9440
:101F8000410386E792E00E9433038CE892E00E94CE
:101F900059038091E9039091EA030E94410389E982
:101FA00092E00E9433030FED13E0F80181919191CB
:101FB0008F010E944103F3E0093E1F07B1F7CE01F4
:101FC00007960E949E0C6CE073E0CE010D960E9475
:101FD000A30C85EA92E00E9433038AEA92E00E9411
:101FE00033038091E9039091EA038932934209F027
:101FF0006CC08FE193E00E949D06181619067CF4D0
:10200000CE0101960E94DC03BE016F5F7F4FCE01BF
:102010000D960E94F20BCE0101960E949E0C8D85BA
:102020009E850E947A148A32E3E29E0771F18B3218
:10203000F3E29F07A1F18932934209F007C10091B1
:10204000E9031091EA030E947D0526E636E646EE96
:102050005FE30E94A11720E030E040E052E40E94DC
:102060009718AB01BC019801CE0101960E94520461
:102070004D815E8169817A818FE193E00E94640BDA
:10208000CE0101960E949E0CE8C08AE293E20E9473
:102090008F0B882309F4E1C08EEB92E009C08BE23C
:1020A00093E20E948F0B882309F4D7C084EC92E05E
:1020B0000E9433030E94CA058AEA92E00E94330319
:1020C00087E992E00E943303C8C0F090DE03E090FD
:1020D000DD035F2D550F550B052F152F252F352FA0
:1020E000452F60E08091CF039091D0030E94450A74
:1020F0008091CF039091D0030E942E0B8AEC92E046
:102100000E9433038091CF039091D0030E94B50ABF
:102110008823C1F380EE92E00E94330341E0BE01C8
:102120006F5F7F4F8091CF039091D0030E946A0927
:102130000091E9031091EA030E947D056B017C0187
:102140006CE073E0CE0107960E94A30C26E636E60B
:1021500046EE5FE3C701B6010E94A11720E030E020
:1021600040E052E40E949718AB01BC019801CE01F7
:1021700001960E945204BE016F5F7F4FCE01079609
:102180000E94F20BCE0101960E949E0C61E088E055
:102190000E94FA078091CF039091D0030E94F90A20
:1021A00009E213E220E030E040E050E060E070E05F
:1021B0008091CF039091D0030E94EA098091CF03D0
:1021C0009091D0030E9443096F81788541E180910D
:1021D000CF039091D0030E946503882379F08CE3AC
:1021E00091E00E94330360E088E00E94FA0780914A
:1021F000CF039091D0030E94BB0A24C00E940B031E
:1022000087E992E00E94330382E591E00E9459033E
:1022100089E293E20E945B0389E391E00E94330329
:1022200061E087E00E94FA0768EE73E080E090E0EA
:102230000E94660860E087E00E94FA0760E088E09C
:102240000E94FA07CE0107960E949E0C6CE073E094
:10225000CE010D960E947D0CC4CECE010D960E943B
:102260009E0C0E943D07AFCE8091CF039091D0038A
:102270000E94B50A8823E1F042E0BE016F5F7F4F04
:102280008091CF039091D0030E946A0989819A813D
:102290008A159B0509F0A5CD85E791E00E943303DF
:1022A00087EE92E00E943303C4010E944103B8CD3F
:1022B0000E94A008012E000C220B330B06171707F3
:1022C0002807390708F0ACCD0E940B0387E992E09C
:1022D0000E94330387EC91E08CCD0E94A008012E70
:1022E000000C220B330B061717072807390708F0D5
:1022F000F4CD0E940B0387E992E00E94330381E250
:1023000092E00E94330361E087E00E94FA0768EEE2
:1023100073E080E090E00E94660860E087E00E9441
:10232000FA07DBCD0E94A008681579058A059B0590
:1023300008F4DDCDE5CD0E94A008012E000C220B93
:10234000330B061717072807390708F0ECCD0E9452
:102350000B0387E992E00E94330381E292E00E943E
:10236000330361E087E00E94FA0768EE73E080E0E3
:1023700090E00E94660860E087E00E94FA07D3CDF3
:102380008091CF039091D0030E94F90A1091D40359
:102390000091D303712F770F770B272F372F472FFC
:1023A000572F672F8091CF039091D0030E94EA09A5
:1023B0008AE492E00E94330342E06DED73E0809185
:1023C000CF039091D0030E946503811128C08FE54F
:1023D00092E00E9433030091D3031091D4030E9432
:1023E0000B0387E992E00E94330382E591E00E94AB
:1023F0005903C8010E945B0389E391E00E94330303
:1024000061E087E00E94FA0768EE73E080E090E008
:102410000E94660860E087E00E94FA078ECDFF24E4
:10242000F3948BCD8F929F92AF92BF92CF92DF9217
:10243000EF92FF920F931F93CF93DF93109222039B
:102440001092210388EE93E0A0E0B0E08093230394
:1024500090932403A0932503B09326038AE091E090
:102460009093200380931F0385EC90E090932C03BE
:1024700080932B0384EC90E090932E0380932D03A4
:1024800080EC90E09093300380932F0381EC90E0F8
:10249000909332038093310382EC90E09093340365
:1024A0008093330386EC90E090933603809335035A
:1024B000109238031092390310923A0310923B03A2
:1024C00089E090E09093FE038093FD038AE090E022
:1024D000909300048093FF031092030480E28093A2
:1024E00004041092050485E080930B0485E090E0DD
:1024F000A0E0B0E08093110490931204A093130421
:10250000B09314041092060486E08093F0038BE0ED
:102510008093F103E6E9F1E0E491E093F203E2E86D
:10252000F1E0E491E093F30380E89EE3A0E0B0E003
:102530008093F8039093F903A093FA03B093FB03FD
:102540000E940B0382E00E9431144C0183E00E9440
:102550003114D1E0892B09F4D0E084E00E943114D9
:10256000C1E0892B09F4C0E083E193E00E943303CA
:10257000892839F4D1110CC0CC23A1F0CDE2D3E2EB
:102580001CC0D1110AC0CC2381F0CEE2D3E215C029
:10259000CC2371F0CFE2D3E210C0CC2361F0C0E3D2
:1025A000D3E20BC0C9E2D3E208C0CAE2D3E205C05D
:1025B000CBE2D3E202C0CCE2D3E2D093EA03C093F1
:1025C000E90386E193E00E943303C93283E2D8072E
:1025D00099F0CE018A529342039788F0CD3283E27C
:1025E000D80781F0CE3283E2D80779F0CF32D342D8
:1025F00079F08FE293E20EC08AE293E20BC089E2A7
:1026000093E208C08CE293E205C08DE293E202C03F
:102610008EE293E29093E0038093DF03C091E9039D
:10262000D091EA0386E193E00E943303CE01895200
:10263000934282309105E0F002970297A0F0CD32EC
:1026400083E2D807A9F0CE3283E2D807B1F0CF32C7
:1026500083E2D807B9F0C033D342C1F4DEE2ED2EF5
:10266000D3E2FD2E13C0CAE2EC2EC3E2FC2E0EC054
:10267000BBE2EB2EB3E2FB2E09C0ACE2EA2EA3E2F2
:10268000FA2E04C0FDE2EF2EF3E2FF2EF092E203F9
:10269000E092E103C091E903D091EA0386E193E07F
:1026A0000E943303CE01895293420397E0F0CC326B
:1026B00083E2D807A9F0CD3283E2D80771F0CE3299
:1026C00083E2D80769F0CF3283E2D80761F0C033E4
:1026D000D34259F40DE213E208C00AE213E205C046
:1026E0000BE213E202C00CE213E21093E403009346
:1026F000E303C091E903D091EA0386E193E00E94ED
:102700003303CE01895293420497A0F0CD3283E285
:10271000D807A9F0CE3283E2D807B1F0CF3283E2F6
:10272000D807B9F0C033D342C1F4ECE2AE2EE3E2F5
:10273000BE2E13C07DE2A72E73E2B72E0EC06EE24E
:10274000A62E63E2B62E09C05AE2A52E53E2B52E9C
:1027500004C04BE2A42E43E2B42EB092E603A09252
:10276000E503C091E903D091EA0386E193E00E947A
:102770003303CE01895293428430910578F0049757
:10278000029788F0CF3283E2D80791F0C033D3426A
:1027900099F43BE2C32E33E2D32E0EC02EE2C22EBA
:1027A00023E2D22E09C09FE2C92E93E2D92E04C0A3
:1027B0008AE2C82E83E2D82ED092E803C092E703C3
:1027C0001092160410921504109218041092170417
:1027D0008091E9039091EA032DEF33E03093D00329
:1027E0002093CF0325E134E03093D2032093D1032B
:1027F0009093DE038093DD039093CE038093CD030B
:102800008091DF039091E0039093D4038093D303EE
:102810008091E1039091E2039093D6038093D503D6
:102820008091E3039091E4039093D8038093D703BE
:102830008091E5039091E6039093DA038093D903A6
:10284000D092DC03C092DB03DF91CF911F910F91F7
:10285000FF90EF90DF90CF90BF90AF909F908F90C0
:102860000895CF93DF93282F30E0F901E654FE4F0F
:102870008491F901E057FE4FD491F901E458FE4FDD
:10288000C491CC2391F081110E944707EC2FF0E016
:10289000EE0FFF1FE459FE4FA591B491EC91ED238B
:1028A00081E090E021F480E002C080E090E0DF91E0
:1028B000CF910895EF920F931F93CF93DF93E80189
:1028C00047FD02C034E001C034E1E42F440FFF0BA8
:1028D000F7FF03C0F195E195F109E32E022F2E2FAA
:1028E000AE010E94C514CE01DF91CF911F910F91CF
:1028F000EF900895FC0188279927E89421912032D0
:10290000E9F3293010F02E30C8F32B3241F02D328C
:1029100039F4689404C00E94A314820F911D219180
:1029200020532A30C0F31EF4909581959F4F08954F
:10293000BB274A3031F4992322F4BDE2909581956A
:102940009F4F0C94AC147AE0979F902D879F802D19
:10295000910D11240895BB27FB015527AA27880F45
:10296000991FAA1FA41710F0A41B83955051B9F703
:10297000A05DAA3308F0A95DA193009779F7B11182
:10298000B1931192CB010C942B174F925F926F92DF
:102990007F929F92AF92BF92CF92DF92EF92FF927F
:1029A0000F931F93CF93DF93CDB7DEB729970FB661
:1029B000F894DEBF0FBECDBF6A01122FB02E2BE3FD
:1029C000201720F0FF24F394F00E02C0BCE3FB2E8E
:1029D0000F2D27E0AE014F5F5F4F0E945316AC01F1
:1029E0008981982F9970913031F0E1FC06C0E0FEAA
:1029F00006C090E205C09DE203C09BE201C090E0EA
:102A0000EE2DE07183FF3CC0911102C083E001C054
:102A100084E0811718F4212F281B01C020E0E11168
:102A20000BC0F601822F30E2882319F031938150D8
:102A3000FBCFC20ED11C20E0992329F0D6019C9334
:102A4000F60131966F01C6010396E2FE0AC03EE42C
:102A5000D6013C9341E411964C93119712963C9306
:102A600006C03EE6F601308341E641833283FC0135
:102A7000322F40E2332309F442C041933150FACF60
:102A800082FF44C0911102C083E001C084E081173D
:102A900018F4212F281B01C020E0E1110BC0F60122
:102AA000822F30E2882319F031938150FBCFC20E80
:102AB000D11C20E0992329F0D6019C93F601319690
:102AC0006F01C6010396E2FE0BC039E4D6013C93C8
:102AD0003EE411963C93119736E412963C9307C05E
:102AE00039E6F60130833EE6318336E63283FC0177
:102AF000322F40E2332319F041933150FBCFFC01D8
:102B0000E20FF11D10828EEF9FEFB7C0F1E091113F
:102B100001C0F0E06F2F70E01416150624F49A013E
:102B20002F5F3F4F02C021E030E0260F371FBB2050
:102B300029F06B2D70E06F5F7F4F02C060E070E0A6
:102B4000260F371F612F70E0261737071CF4121B62
:102B5000212F01C020E03E2D387159F4D601322FCB
:102B600060E2332319F06D933150FBCFC20ED11CBC
:102B700020E0FF2331F0D6019C93B6016F5F7F4FB9
:102B80006B01E1110BC0F601922F30E3992319F08C
:102B900031939150FBCFC20ED11C20E09F2D940F9A
:102BA0003A81782F7071A72E84FF03C0313309F466
:102BB0009150191624F4993018F098E001C091E072
:102BC000E42F852F57FF02C0E0E080E06E2F782FC2
:102BD000E0E0F0E0AEE29A2E3A01691A71082A01AB
:102BE000461A570A0B2D10E01195019511096F3FF8
:102BF0008FEF780729F4D6019C92C60101966C01EB
:102C00004617570784F0661677066CF47F01E40CCC
:102C1000F51CA1E0B0E0AC0FBD1FEA0EFB1ED70112
:102C20001196BC9002C090E3B92E615071093196A3
:102C3000C60101967C016017710724F0D601BC9291
:102C40006C01D5CF6417750741F4363320F4353362
:102C500021F4A11002C081E3B82EF601B082F70181
:102C6000822F90E2882319F091938150FBCFF701D6
:102C7000E20FF11D108280E090E029960FB6F894E3
:102C8000DEBF0FBECDBFDF91CF911F910F91FF909F
:102C9000EF90DF90CF90BF90AF909F907F906F901C
:102CA0005F904F900895283008F027E03327DA012D
:102CB000990F311D87FD916000966105710539F40A
:102CC00032602E5F3D9330E32A95E1F708959F3FF0
:102CD00030F080387105610509F03C5F3C5F3D9341
:102CE000913008F08068911DDF93CF931F930F936D
:102CF000FF92EF92192F987F9695E92F96959695CA
:102D0000E90FFF27EE53FF4F99273327EE24FF24C7
:102D1000A701E70105900894079428F4360FE71EF1
:102D2000F81E491F511D660F771F881F991F0694B3
:102D3000A1F70590079428F4E70EF81E491F561FC7
:102D4000C11D770F881F991F661F0694A1F7059074
:102D5000079428F4F80E491F561FC71FD11D880F6E
:102D6000991F661F771F0694A1F70590079420F41A
:102D7000490F561FC71FD81F990F661F771F881F3F
:102D80000694A9F784911095177041F0D695C795D0
:102D900057954795F794E7941A95C1F7E8E6F0E060
:102DA00068941590159135916591959105907FE204
:102DB0007395E118F10A430B560BC90BD009C0F704
:102DC000E10CF11E431F561FC91FD01D7EF4703346
:102DD00011F48A95E6CFE894015030F0080F0AF418
:102DE0000027021708F4202F2395022F7A3328F0AA
:102DF00079E37D932A95E9F710C07D932A9589F6AA
:102E0000069497956795379517951794E118F10AE9
:102E1000430B560BC90BD00998F023957E917395FF
:102E20007A3308F070E37C932013B8F77E917061D9
:102E30007D9330F0839571E37D9370E32A95E1F7FC
:102E40001124EF90FF900F911F91CF91DF9199275F
:102E500087FD90950895DC01FC01672F7191772320
:102E6000E1F7329704C07C916D9370836291AE1745
:102E7000BF07C8F308950E947D1708F481E0089504
:102E8000E89409C097FB3EF4909580957095619504
:102E90007F4F8F4F9F4F9923A9F0F92F96E9BB27BA
:102EA0009395F695879577956795B795F111F8CF36
:102EB000FAF4BB0F11F460FF1BC06F5F7F4F8F4FA1
:102EC0009F4F16C0882311F096E911C0772321F097
:102ED0009EE8872F762F05C0662371F096E8862F2F
:102EE00070E060E02AF09A95660F771F881FDAF786
:102EF000880F9695879597F90895990F0008550FB3
:102F0000AA0BE0E8FEEF16161706E807F907C0F06F
:102F100012161306E407F50798F0621B730B840B77
:102F2000950B39F40A2661F0232B242B252B21F451
:102F300008950A2609F4A140A6958FEF811D811DF1
:102F400008950E94B4170C9425180E94171838F0A1
:102F50000E941E1820F0952311F00C940E180C946A
:102F6000141811240C9459180E94361870F3959F68
:102F7000C1F3950F50E0551F629FF001729FBB2770
:102F8000F00DB11D639FAA27F00DB11DAA1F649F0C
:102F90006627B00DA11D661F829F2227B00DA11DBF
:102FA000621F739FB00DA11D621F839FA00D611D45
:102FB000221F749F3327A00D611D231F849F600D66
:102FC000211D822F762F6A2F11249F5750409AF08F
:102FD000F1F088234AF0EE0FFF1FBB1F661F771F1B
:102FE000881F91505040A9F79E3F510580F00C94E6
:102FF0000E180C9459185F3FE4F3983ED4F386956D
:1030000077956795B795F795E7959F5FC1F7FE2B85
:10301000880F911D9695879597F9089597F99F6761
:1030200080E870E060E008959FEF80EC0895002450
:103030000A941616170618060906089500240A941D
:1030400012161306140605060895092E0394000CA3
:1030500011F4882352F0BB0F40F4BF2B11F460FF32
:1030600004C06F5F7F4F8F4F9F4F089557FD90585B
:10307000440F551F59F05F3F71F04795880F97FB3C
:10308000991F61F09F3F79F08795089512161306F6
:103090001406551FF2CF4695F1DF08C01616170625
:1030A0001806991FF1CF869571056105089408955A
:1030B000E894BB2766277727CB0197F908952F92CD
:1030C0003F924F925F926F927F928F929F92AF92B8
:1030D000BF92CF92DF92EF92FF920F931F93CF9305
:1030E000DF93CDB7DEB7CA1BDB0B0FB6F894DEBF9C
:1030F0000FBECDBF09942A88398848885F846E84C2
:103100007D848C849B84AA84B984C884DF80EE800B
:10311000FD800C811B81AA81B981CE0FD11D0FB614
:10312000F894DEBF0FBECDBFED0108955058BB2708
:10313000AA270E94AE180C9425180E94171838F080
:103140000E941E1820F039F49F3F19F426F40C94C5
:1031500014180EF4E095E7FB0C940E18E92F0E946A
:10316000361858F3BA17620773078407950720F0DB
:1031700079F4A6F50C9458180EF4E0950B2EBA2F9E
:10318000A02D0B01B90190010C01CA01A00111246D
:10319000FF27591B99F0593F50F4503E68F11A1619
:1031A000F040A22F232F342F4427585FF3CF4695AA
:1031B00037952795A795F0405395C9F77EF41F16CC
:1031C000BA0B620B730B840BBAF09150A1F0FF0F96
:1031D000BB1F661F771F881FC2F70EC0BA0F621F82
:1031E000731F841F48F4879577956795B795F79572
:1031F0009E3F08F0B0CF9395880F08F09927EE0F07
:103200009795879508950E947D1708F48FEF08958C
:10321000A1E21A2EAA1BBB1BFD010DC0AA1FBB1FDA
:10322000EE1FFF1FA217B307E407F50720F0A21B4C
:10323000B30BE40BF50B661F771F881F991F1A94B9
:1032400069F760957095809590959B01AC01BD01E3
:10325000CF010895EE0FFF1F0590F491E02D099422
:10326000CF93DF938230910510F482E090E0E091FB
:103270002404F091250420E030E0C0E0D0E0309755
:1032800011F14081518148175907C0F0481759077B
:1032900061F482819381209719F09B838A832BC0EC
:1032A000909325048093240426C02115310519F03C
:1032B0004217530718F49A01BE01DF01EF010280A3
:1032C000F381E02DDCCF2115310509F1281B390BE5
:1032D0002430310590F412968D919C9113976115CD
:1032E000710521F0FB019383828304C09093250430
:1032F00080932404FD01329644C0FD01E20FF31FC8
:1033000081939193225031092D933C933AC020919F
:10331000220430912304232B41F4209102013091A7
:103320000301309323042093220420910001309163
:1033300001012115310541F42DB73EB7409104013B
:1033400050910501241B350BE0912204F0912304D8
:10335000E217F307A0F42E1B3F0B2817390778F06C
:10336000AC014E5F5F4F2417350748F04E0F5F1FCB
:1033700050932304409322048193919302C0E0E090
:10338000F0E0CF01DF91CF9108950F931F93CF937A
:10339000DF93009709F48CC0FC01329713821282EC
:1033A00000912404109125040115110581F4208158
:1033B0003181820F931F209122043091230428171A
:1033C000390779F5F0932304E093220471C0D80102
:1033D00040E050E0AE17BF0750F412962D913C919B
:1033E0001397AD012115310509F1D901F3CF9D01E5
:1033F000DA013383228360817181860F971F8217E0
:10340000930769F4EC0128813981260F371F2E5F5D
:103410003F4F318320838A819B8193838283452B15
:1034200029F4F0932504E093240442C01396FC93FE
:10343000EE931297ED01499159919E01240F351F8A
:10344000E217F30771F480819181840F951F029632
:1034500011969C938E938281938113969C938E9365
:103460001297E0E0F0E0D80112968D919C911397AD
:10347000009719F0F8018C01F6CF8D919C9198017D
:103480002E5F3F4F820F931F20912204309123041F
:103490002817390769F4309729F4109225041092FF
:1034A000240402C013821282109323040093220486
:1034B000DF91CF911F910F910895A0E0B0E0E3E676
:1034C000FAE10C946318EC01009721F4CB010E94FF
:1034D0003019B8C0FC01E60FF71F9C0122503109DA
:1034E000E217F30708F4ACC0D9010D911C911197B4
:1034F00006171707B0F00530110508F49FC0C80182
:1035000004978617970708F499C002501109061B03
:10351000170B019311936D937C93CF010E94C519F2
:103520008DC05B01A01AB10A4C01800E911EA091C2
:103530002404B091250440E050E0E12CF12C1097D8
:1035400009F44AC0A815B905D1F56D907C90119782
:10355000630182E0C80ED11CCA14DB0480F1A30110
:103560004A195B096A0182E0C80ED11C1296BC9010
:1035700012971396AC91B5E0CB16D10440F0B2820D
:10358000A38351834083D9016D937C930AC00E5F5E
:103590001F4FC301800F911FF90191838083EB2D91
:1035A000FA2FE114F10431F0D7011396FC93EE9356
:1035B000129744C0F0932504E09324043FC08D91FA
:1035C0009C9111974817590708F4AC017D01129698
:1035D0000D90BC91A02DB3CF809122049091230433
:1035E00088159905E1F446175707C8F48091000142
:1035F00090910101009741F48DB79EB7409104016D
:1036000050910501841B950BE817F907C8F4F09356
:103610002304E0932204F901718360830FC0CB017E
:103620000E9430197C01009759F0A801BE010E9448
:103630002C1BCE010E94C519C70104C0CE0102C0D7
:1036400080E090E0CDB7DEB7EEE00C947F1881E02B
:1036500090E0F8940C94451BFB01DC0102C0019042
:103660000D9241505040D8F70895FB01DC018D9137
:10367000019080190110D9F3990B0895FB01DC0129
:0E36800001900D920020E1F70895F894FFCF1D
:10368E0000002604800000000000D406640B6C06C7
:10369E001B079D067B068F06696E20736574757019
:1036AE00004641494C454420544F20534554204434
:1036BE0041544120524154452121210074727565B7
:1036CE000053656E64696E672070696E67732E2E87
:1036DE002E004552524F5220303033212120556E4C
:1036EE0061626C6520746F20636F6E746163742009
:1036FE006875622000526563656976656420616352
:10370E006B6E6F776C656467652E2E2E0045525278
:10371E004F5220303038212120496E636F7272650E
:10372E0063742061636B6E6F776C656467656D653E
:10373E006E742070696E6720726563696576656464
:10374E002066726F6D20004552524F522030303736
:10375E002121204E6F2061636B6E6F776C656467FD
:10376E00656D656E742070696E672072656369653C
:10377E007665642066726F6D200057616974696E9C
:10378E006720666F722070696E67732E2E2E005240
:10379E006563656976696E6720446174612E2E2EAD
:1037AE00004552524F522030303921212054696D3C
:1037BE0065206F757421204E6F2070696E672072C0
:1037CE006563656976656421210053656E64696E73
:1037DE00672050696E67206261636B2E2E2E004546
:1037EE0052524F522121210050696E67207374612D
:1037FE007475733A20002F2F2F2F2F2F2F2F2F2F2F
:10380E002F2F2F2F2F2F2F2F2F2F2F004D7920417E
:10381E006464726573733A2000526561642052616C
:10382E006E67653A0056565656005F5F5F5F5F5F84
:10383E005F5F5F5F5F5F5F5F5F5F5F5F5F0039303E
:10384E0030323A00393030333A00576169746E675E
:10385E0020666F7220726571756573742E2E2E0040
:10386E00476F742E2E2E00537563636573736675E2
:10387E006C20636F6E74616374207769746820685E
:10388E007562200066616C7365000D0A0045525228
:0C389E004F520030310030320053000067
:00000001FF
