:100000000C9406010C942E010C942E010C942E01DC
:100010000C942E010C942E010C942E010C942E01A4
:100020000C942E010C942E010C942E010C942E0194
:100030000C942E010C942E010C942E010C942E0184
:100040000C9494060C942E010C94B0050C948A0523
:100050000C942E010C942E010C942E010C942E0164
:100060000C942E010C942E010000000024002700A7
:100070002A0004040404040404040202020202022A
:10008000030303030303010204081020408001025C
:100090000408102001020408102011121314151670
:1000A0000A0B0C0D0E0F00000000250028002B008D
:1000B0000000000800020100000304070000000027
:1000C00000000000000000002300260029000001BD
:1000D000020304054E414E494E495459494E46CDFE
:1000E000CCCC3D0AD7233C17B7D13877CC2B3295EF
:1000F00095E6241FB14F0A000020410000C84200CD
:10010000401C4620BCBE4CCA1B0E5AAEC59D740096
:10011000407A10F35A00A0724E18090010A5D4E8D6
:100120000000E87648170000E40B54020000CA9A69
:100130003B000000E1F505000080969800000040BB
:10014000420F000000A08601000000102700000000
:1001500000E803000000006400000000000A000046
:100160000000000100000000002C76D888DC674FFA
:100170000823DFC1DFAE59E1B1B796E5E3E453C62A
:100180003AE651997696E8E6C28426EB898C9B6222
:10019000ED407C6FFCEFBC9C9F40F2BAA56FA5F4CC
:1001A00090055A2AF75C936B6CF9676DC11BFCE0F4
:1001B000E40D47FEF520E6B500D0ED902E03009447
:1001C0003577050080841E080000204E0A000000DC
:1001D000C80C333333330F986E12831141EF8D21E6
:1001E00014893BE65516CFFEE6DB18D1844B381B4D
:1001F000F77C1D901DA4BBE424203284725E228112
:1002000000C9F124ECA1E53D2700661211241FBEB0
:10021000CFEFD8E0DEBFCDBF13E0A0E0B1E0ECED62
:10022000FAE302C005900D92AE32B107D9F724E08F
:10023000AEE2B3E001C01D92AA33B207E1F711E0CC
:10024000C6E0D1E004C02197FE010E94D014C53061
:10025000D107C9F70E941C0C0C946C1D0C94000073
:100260000F931F93CF93DF93EC01888199810097BF
:1002700029F02A813B812617370788F48B016F5FAD
:100280007F4F0E94A916009761F0998388831B8392
:100290000A832C813D81232B11F4FC01108281E023
:1002A00001C080E0DF91CF911F910F910895FF92DF
:1002B0000F931F93CF93DF93F82EC92F8091E10303
:1002C0009091E2030E94E1080F2D7C2F770F770BAE
:1002D0001C2F272F372F472F572F672F8091E10390
:1002E0009091E2030E94D20761E088E00E94E2055B
:1002F00042E067EF72E08091E1039091E2030E9497
:100300006D0AD82F882359F060E088E00E94E2054A
:100310008091E1039091E2030E94A30824C00E940F
:10032000990985E792E00E94D30980E391E00E9459
:10033000610A8F2D9C2F0E94630A83E492E00E9441
:10034000D30961E087E00E94E20568EE73E080E097
:1003500090E00E944E0660E087E00E94E20560E0C7
:1003600088E00E94E2058D2FDF91CF911F910F91C0
:10037000FF9008950F931F930E948806609339039E
:1003800070933A0380933B0390933C03E0913103D5
:10039000F09132030680F781E02D81E393E0099527
:1003A00097FF1FC00E9488060091390310913A03FD
:1003B00020913B0330913C03DC01CB01801B910B6E
:1003C000A20BB30B00913503109136032091370334
:1003D0003091380380179107A207B307B8F28FEF67
:1003E0009FEF1F910F910895EF92FF920F931F932C
:1003F000CF93DF9300D0CDB7DEB78C0169831A822B
:10040000FC01E480F580FFEFEF1AFF0AB7010E94BC
:100410003001882381F0F801208131818481958128
:10042000BE016F5F7F4F820F931F0E948A17F801F2
:10043000F582E48281E00F900F90DF91CF911F91C0
:100440000F91FF90EF9008950F931F93CF93DF9339
:100450008C01EB01FC01808191810097B1F06881F2
:1004600079816115710579F0428153812C813D813B
:100470004217530740F00E948A178C819D81F80132
:100480009583848313C00E94111688819981F80195
:10049000918380838A819B81938382838C819D81D8
:1004A00095838483198218821B821A821D821C8282
:1004B000DF91CF911F910F910895EF92FF920F93CB
:1004C0001F93CF93DF93EC017B018A01BA010E9455
:1004D00030012881398181110DC02115310519F0B4
:1004E000C9010E941116198218821D821C821B826A
:1004F0001A8206C01D830C83B701C9010E948A17A6
:10050000CE01DF91CF911F910F91FF90EF90089551
:10051000CF93DF93EC016115710559F0FB01019058
:100520000020E9F73197AF01461B570B0E945D028F
:100530000CC088819981009711F00E9411161982D0
:1005400018821D821C821B821A82CE01DF91CF91FC
:100550000895FC01808191810C9411164F925F9255
:100560006F927F928F929F92AF92BF92EF92FF9283
:100570000F931F93CF93DF93CDB7DEB76D970FB671
:10058000F894DEBF0FBECDBFCE0101965C0181E1C4
:10059000F50111928A95E9F767E073E0CE0148967C
:1005A0000E94070CF090F003E090EF035F2D550FD1
:1005B000550B052F152F252F352F452F60E08091E6
:1005C000E1039091E2030E942D088091E103909154
:1005D000E2030E9416098091E1039091E2030E94D8
:1005E0009D088823C1F341E1B5018091E103909119
:1005F000E2030E945207B501CE0148960E9488028C
:1006000067E073E0CE0142960E94070C088D198DB9
:10061000B8018EEC93E00E948A176C8D7D8D80E08E
:1006200090E020E030E08617970779F0011511057A
:1006300051F0F801E80FF91F40814D3211F04837B1
:1006400011F42F5F3F4F0196EECF2330310509F0B3
:10065000F6C08EECE82E83E0F82E87010E5C134086
:10066000F70161917F016D3229F0CE0142960E941F
:10067000F401F3CF8A899B890E94B5177C010F5F33
:100680001F4F67E073E0CE0142960E948802F80196
:10069000E253FC4F60810F5F1F4F6D3229F0CE0196
:1006A00042960E94F401F3CF8A899B890E94B11778
:1006B0004B015C0167E073E0CE0142960E94880224
:1006C00002531C4FF80161918F01683729F0CE0168
:1006D00042960E94F401F6CF8A899B890E94B51741
:1006E0008C01CE0142960E94A9028091E103909173
:1006F000E2030E94CC0AA5019401C501B4010E9445
:100700007715882319F089EF92E027C0240135017D
:10071000E89477F82FEF3FEF4FE75FE7C301B201AF
:100720000E94771581110DC02FEF3FEF4FE75FE774
:10073000C301B2010E94F41B18161CF48DEF92E065
:100740000CC02FEF3FEF4FE75FE4C501B4010E94FB
:10075000721518162CF481E093E00E94C1098FC035
:100760002FEF3FEF4FE75FECC501B4010E94F41B90
:1007700087FDF1CF20E030E0A901C501B4010E945E
:10078000F41B87FF0FC0E0913103F0913203019019
:10079000F081E02D6DE281E393E00995B7FAB09422
:1007A000B7F8B0942AE037ED43EA5BE3C501B40142
:1007B0000E94D7142B013C010E9443154B015C01A0
:1007C0000E94F91B9B01AC01C301B2010E94D61427
:1007D0002B013C014AE0C501B4010E94E1098DEF03
:1007E00091E00E94C10920E030E040E251E4C30101
:1007F000B2010E945A1C2B013C010E9443154B017F
:10080000A12CB12C4AE0C501B4010E94E109C50147
:10081000B4010E94F91B9B01AC01C301B2010E940B
:10082000D61420E030E040E251E40E945A1C0E94BD
:10083000431580E090E04AE00E94E10920C00E9458
:10084000990985E792E00E94D30988E093E00E942D
:10085000D30961E087E00E94E20560ED77E080E087
:1008600090E00E944E0660E087E00E94E205E12CE5
:10087000F12C00E010E0812C912C540132CF85E066
:1008800093E00E94C109C8010E94490AC7010E9461
:10089000490ACE0148960E94A90281E06D960FB6E2
:1008A000F894DEBF0FBECDBFDF91CF911F910F91A6
:1008B000FF90EF90BF90AF909F908F907F906F9040
:1008C0005F904F900895FC01918D828D981761F093
:1008D000828DDF01A80FB11D5D968C91928D9F5F77
:1008E0009F73928F90E008958FEF9FEF0895FC0122
:1008F000918D828D981731F0828DE80FF11D858DD5
:1009000090E008958FEF9FEF0895FC01918D228D67
:10091000892F90E0805C9F4F821B91098F739927EC
:10092000089581E393E00E94850421E0892B09F476
:1009300020E0822F0895FC01848DDF01A80FB11DF6
:10094000A35ABF4F2C91848D90E001968F73992705
:10095000848FA689B7892C93A089B1898C918064F2
:100960008C93938D848D981306C00288F389E02DB3
:1009700080818F7D80830895EF92FF920F931F9364
:10098000CF93DF93EC0181E0888F9B8D8C8D981342
:1009900005C0E889F989808185FD24C0F62E0B8D7C
:1009A00010E00F5F1F4F0F731127E02E8C8DE812A0
:1009B0000CC00FB607FCFACFE889F989808185FF62
:1009C000F5CFCE010E949B04F1CF8B8DFE01E80F85
:1009D000F11DE35AFF4FF0820B8FEA89FB8980817A
:1009E000806207C0EE89FF896083E889F989808188
:1009F0008064808381E090E0DF91CF911F910F911F
:100A0000FF90EF900895CF93DF93EC01888D8823BA
:100A1000C9F0EA89FB89808185FD05C0A889B9896B
:100A20008C9186FD0FC00FB607FCF5CF808185FF46
:100A3000F2CFA889B9898C9185FFEDCFCE010E94B4
:100A40009B04E7CFDF91CF91089580E090E0892B60
:100A500029F00E94910481110C94000008958330C4
:100A600081F028F4813099F08230A1F00895873028
:100A7000A9F08830B9F08430D1F4809180008F7D66
:100A800003C0809180008F7780938000089584B5A3
:100A90008F7702C084B58F7D84BD08958091B000AA
:100AA0008F7703C08091B0008F7D8093B000089550
:100AB0008230910538F0880F991F880F991F05978C
:100AC0000197F1F708953FB7F89480913004909121
:100AD0003104A0913204B091330426B5A89B05C01F
:100AE0002F3F19F00196A11DB11D3FBFBA2FA92FAD
:100AF000982F8827820F911DA11DB11DBC01CD012A
:100B000042E0660F771F881F991F4A95D1F7089515
:100B10000E9473171F920F920FB60F9211242F93FA
:100B20003F934F935F936F937F938F939F93AF9375
:100B3000BF93EF93FF9381E393E00E949B04FF91A7
:100B4000EF91BF91AF919F918F917F916F915F9145
:100B50004F913F912F910F900FBE0F901F901895BE
:100B60001F920F920FB60F9211242F938F939F9382
:100B7000EF93FF93E0914103F09142038081E09174
:100B80004703F091480382FD12C0908180914A038F
:100B90008F5F8F7320914B03821751F0E0914A03CE
:100BA000F0E0EF5CFC4F958F80934A0301C0808199
:100BB000FF91EF919F918F912F910F900FBE0F900A
:100BC0001F9018951F93CF93DF93282F30E0F901E2
:100BD000E055FF4F8491F901EA57FF4FD491F90195
:100BE000EE58FF4FC491CC23C9F0162F81110E94FB
:100BF0002F05EC2FF0E0EE0FFF1FEA55FF4FA591F8
:100C0000B4918FB7F894111105C09C91ED2FE09528
:100C1000E92302C0EC91ED2BEC938FBFDF91CF91D4
:100C20001F910895CF93DF9390E0FC01EA57FF4FA7
:100C30002491FC01EE58FF4F8491882361F190E0EC
:100C4000880F991FFC01E859FF4FC591D491FC0111
:100C5000EA55FF4FA591B491611109C09FB7F8946F
:100C60008881209582238883EC912E230BC06230EB
:100C700061F49FB7F8943881822F8095832388830D
:100C8000EC912E2B2C939FBF06C08FB7F894E88170
:100C90002E2B28838FBFDF91CF9108958F929F9243
:100CA000AF92BF92CF92DF92EF92FF926B017C01E5
:100CB0000E9463054B015C01C114D104E104F104FD
:100CC000F1F00E946305DC01CB0188199909AA099A
:100CD000BB09883E9340A105B10570F321E0C21A1B
:100CE000D108E108F10888EE880E83E0981EA11C67
:100CF000B11CC114D104E104F10419F7DDCFFF9058
:100D0000EF90DF90CF90BF90AF909F908F9008951D
:100D10002FB7F89460912C0470912D0480912E04CB
:100D200090912F042FBF08951F920F920FB60F922C
:100D300011242F933F938F939F93AF93BF938091F1
:100D40002C0490912D04A0912E04B0912F04309189
:100D50002B0423E0230F2D3720F40196A11DB11D94
:100D600005C026E8230F0296A11DB11D20932B0478
:100D700080932C0490932D04A0932E04B0932F0401
:100D80008091300490913104A0913204B0913304E9
:100D90000196A11DB11D8093300490933104A0935E
:100DA0003204B0933304BF91AF919F918F913F91E3
:100DB0002F910F900FBE0F901F901895FC0120816E
:100DC0003181828193812817390719F0822F0C9481
:100DD000E2050895CF93DF93EC019CB59F7D9CBD08
:100DE0009CB5937F9CBD9CB59C7F9CBD9DB591603F
:100DF0009DBD8A810E94E2058C899D89DF91CF91FA
:100E00000C94580561E00C94EA0660E00C94EA0644
:100E10008EBD00000DB407FEFDCF8EB50895EF9294
:100E2000FF921F93CF93DF931F92CDB7DEB77C0164
:100E300069830E9405076981862F0E940807182F81
:100E4000C7010E940207812F0F90DF91CF911F9160
:100E5000FF90EF90089561EE0C940F07EF92FF92D0
:100E60001F93CF93DF9300D0CDB7DEB77C014A83C9
:100E700069830E9405076981862F8F7180620E94B5
:100E80000807182F4A81842F0E940807C7010E9473
:100E90000207812F0F900F90DF91CF911F91FF904C
:100EA000EF900895CF92DF92EF92FF920F931F93EE
:100EB000CF93DF9300D0CDB7DEB78C01FC019781D3
:100EC000C42E941708F4C92EF8018085811103C03F
:100ED000D92EDC1801C0D12CC80169837A830E9405
:100EE000050781E60E9408076981E62E7A81F72EC0
:100EF000C60ECE1439F08FEF0E940807F7018193D8
:100F00007F01F7CFDD2029F08FEF0E940807DA94E8
:100F1000F9CFC8010E94020740E767E0C8010F90BF
:100F20000F90DF91CF911F910F91FF90EF90DF9085
:100F3000CF900C942E07CF92DF92EF92FF920F93F7
:100F40001F93CF93DF9300D01F92CDB7DEB77C0104
:100F5000142F2A835B8369830E9405076981862F8A
:100F60008F7180620E940807082FC12E5B81D52EE9
:100F70002A81120F1C1531F0F60181916F010E9438
:100F80000807F8CFC7010E940207802F0F900F902B
:100F90000F90DF91CF911F910F91FF90EF90DF9015
:100FA000CF900895EF92FF920F931F93CF93DF930B
:100FB000CDB7DEB728970FB6F894DEBF0FBECDBF12
:100FC0007C0109831A832B833C834D835E836F836B
:100FD0007887FC012685AE014F5F5F4F6AE00E9473
:100FE0009B07F7012685AE014F5F5F4F60E1C701A8
:100FF0000E949B07F701478161E1C7010E942E070C
:1010000028960FB6F894DEBF0FBECDBFDF91CF910B
:101010001F910F91FF90EF900895EF92FF921F9311
:10102000CF93DF931F92CDB7DEB77C0169830E9417
:1010300005076981862F8F710E9408078FEF0E9434
:101040000807182FC7010E940207812F0F90DF9118
:10105000CF911F91FF90EF900895AF92BF92DF92D2
:10106000EF92FF920F931F93CF93DF93CDB7DEB72D
:1010700028970FB6F894DEBF0FBECDBF5C01D62E09
:10108000E982FA820B831C832D833E834F8358872A
:1010900061110AC0FC01468550E0BE016F5F7F4FC1
:1010A00009960E94781707C0F6E0F61708F435C0D5
:1010B00081E0681308C0ED2DF0E0E056FF4F649129
:1010C000F501268506C0E62FF0E0E056FF4F64915B
:1010D00021E0AE014F5F5F4FC5010E949B070D2DC0
:1010E00010E0F801E656FF4F6491F5014781C50114
:1010F0000E942E0762E0C5010E940D08F801E2532C
:10110000FF4FE49141E050E001C0440FEA95EAF757
:10111000482B62E0C5010E942E0728960FB6F8946E
:10112000DEBF0FBECDBFDF91CF911F910F91FF901A
:10113000EF90DF90BF90AF90089567E10E940D0897
:10114000809581700895CF93DF93EC0167E1CE0124
:101150000E940D0884FD14C06FEFCE010E940F079E
:1011600084FFF4CF40E167E0CE010E942E0760E0EB
:10117000CE010E94DE06CE010E942B0780E005C052
:1011800060E0CE010E94DE0681E0DF91CF910895FC
:10119000CF93DF93EC0160E00E940D0881FD0EC04B
:1011A000482F426060E0CE010E942E0765E070E0AB
:1011B00080E090E0DF91CF910C944E06DF91CF91CB
:1011C0000895CF93DF93EC0160E00E94DE068889EA
:1011D00099890E9458056DE1CE010E940D0881FF9A
:1011E00007C0888999890E945805CE010E942B0763
:1011F00060E0CE010E940D08482F4E7F60E0CE01D6
:101200000E942E0762E0CE010E940D08EEECF0E095
:10121000E49141E050E001C0440FEA95EAF7482B21
:1012200062E0CE01DF91CF910C942E07CF93DF9334
:10123000EC010E94C80860E0CE010E940D08482F12
:10124000416060E0CE010E942E0740E767E0CE01DA
:101250000E942E0761E0CE010E94DE068985882368
:1012600049F02E85AE01475F5F4F6AE0CE010E94D4
:101270009B0703C0CE010E94CC0A6DE1CE010E9403
:101280000D0881FF05C0CE01DF91CF910C942B0793
:10129000DF91CF9108958F929F92AF92BF92CF929C
:1012A000DF92EF92FF92CF93DF93A0910404882303
:1012B00011F03A2F01C030E08091050490E0880FD2
:1012C000991F8C539F4FC0900A04D0900B04E0905C
:1012D0000C04F0900D0440E050E0BA01FC01C5910F
:1012E000D49128812A2323130FC04A015B012FEFD9
:1012F000821A920AA20AB20A4C155D056E057F0594
:1013000038F4B501A401EACF342F252FCB0104C056
:1013100030E020E080E090E0632F722FDF91CF91EA
:10132000FF90EF90DF90CF90BF90AF909F908F9005
:101330000895E1E3F3E0A089B18982E08C93A4856C
:10134000B5851C92A685B7858FEC8C93108EA489E9
:10135000B58986E08C93A289B3898C9180618C9346
:10136000A289B3898C9188608C93A289B3898C916E
:1013700080688C930288F389E02D80818F7D808343
:101380000895009769F0FC0101900020E9F731977A
:10139000AF01481B590BBC0181E393E00C94DC0BBB
:1013A00080E090E00895CF93DF930E94C109EC01A3
:1013B00085E093E00E94C1098C0F9D1FDF91CF91C2
:1013C00008958F929F92AF92BF920F931F93CF93E6
:1013D000DF93CDB7DEB7A1970FB6F894DEBF0FBE8F
:1013E000CDBF19A2423008F44AE08E010F5D1F4FB5
:1013F000842E912CA12CB12CA50194010E94AE1435
:10140000E62FB901CA0101501109EA3014F4E05D78
:1014100001C0E95CD801EC93232B242B252B61F729
:10142000C8010E94C109A1960FB6F894DEBF0FBE95
:10143000CDBFDF91CF911F910F91BF90AF909F9043
:101440008F900895CF92DF92EF92FF92CF93DF9328
:101450006B017C01E0913103F09132030190F08146
:10146000E02D6DE281E393E00995EC016627772793
:10147000CB016C197D098E099F094AE00E94E109A0
:101480008C0F9D1FDF91CF91FF90EF90DF90CF9059
:101490000895CF93DF93BC01990F880B990B97FFA9
:1014A00003C00E94220A03C04AE00E94E109EC0145
:1014B00085E093E00E94C1098C0F9D1FDF91CF91C1
:1014C00008950C94C109BC01990F880B990B97FDE5
:1014D0000C94220A4AE00C94E109CF92DF92EF9239
:1014E000FF920F931F93CF93DF9300D0CDB7DEB75A
:1014F0008C01FC019781D42E941708F4D92EF801A1
:101500008085811103C0C92ECD1801C0C12CC8012E
:1015100069837A830E94050780EA0E94080769812F
:10152000E62E7A81F72ED60EDE1431F0F701819186
:101530007F010E940807F8CFCC2029F080E00E94AC
:101540000807CA94F9CFC8010E94020761E0C801E8
:101550000E94DE066FEFC8010E940F078073D1F36F
:1015600060E0C8010E94DE0640E767E0C8010E9413
:101570002E0784FF05C0C8010E942B0780E001C030
:1015800081E00F900F90DF91CF911F910F91FF900D
:10159000EF90DF90CF900895CF93DF93EC0162E05E
:1015A0000E940D08EEECF0E0E49121E030E001C093
:1015B000220FEA95EAF72095422F482362E0CE01F8
:1015C000DF91CF910C942E07CF92DF92EF92FF9292
:1015D0000F931F93CF93DF93CDB7DEB7C054D140A5
:1015E0000FB6F894DEBF0FBECDBF0E9488060091F3
:1015F00006041091070420910804309109046B013E
:101600007C01C01AD10AE20AF30A40EDC41647E091
:10161000D406E104F10418F480910E04BCC0609378
:1016200006047093070480930804909309041092B1
:101630000104109200041092FF031092FE03109216
:10164000FD0361E0809102040E94E2056AEF70E010
:1016500080E090E00E944E0661E0809102040E94CA
:10166000120660E0809102040E94E20564E170E0ED
:1016700080E090E00E944E06F89461E080910204C0
:101680000E94E2058BE990E00197F1F762E080911A
:1016900002040E94120683E290E00197F1F780E0D5
:1016A0000E944B09672B682B692B21F410920E04C2
:1016B00078943EC081E00E944B09672B682B692B10
:1016C000A9F38E010F5F1F4F6E018FEBC81A8EEFCB
:1016D000D80A780180E00E944B09F701608371838A
:1016E0008283938381E00E944B09F70164837583B1
:1016F00086839783F8E0EF0EF11CEC14FD0451F79C
:10170000789420E030E0F80140815181628173815A
:10171000C480D580E680F7804115510561057105CB
:1017200029F0C114D104E104F10421F410920E0453
:1017300080E031C0F90183E0F595E7958A95E1F7FE
:10174000E350FC4F8081880F4C155D056E057F05C9
:1017500008F4816080832F5F3F4F085F1F4F28325E
:10176000310589F62091010430E04091FD0380911C
:10177000FE0390E0840F911D4091FF03840F911DA3
:1017800040910004840F911D99272817390771F69D
:1017900081E080930E04C05CDE4F0FB6F894DEBF8C
:1017A0000FBECDBFDF91CF911F910F91FF90EF90B2
:1017B000DF90CF9008950895CF92DF92EF92FF923D
:1017C0000F931F93CF93DF936C017A018B01C0E0DD
:1017D000D0E0CE15DF0589F0D8016D918D01D601DD
:1017E000ED91FC910190F081E02DC6010995892BC6
:1017F00011F47E0102C02196ECCFC701DF91CF9199
:101800001F910F91FF90EF90DF90CF900895FC0112
:101810001182108213821282158214826115710561
:1018200051F0FB0101900020E9F73197AF01461B11
:10183000570B0C945D020895CF93DF93CDB7DEB7BD
:10184000EF970FB6F894DEBF0FBECDBF789484B586
:10185000826084BD84B5816084BD85B5826085BDAC
:1018600085B5816085BD80916E00816080936E003A
:10187000109281008091810082608093810080912C
:1018800081008160809381008091800081608093DD
:1018900080008091B10084608093B1008091B0009D
:1018A00081608093B00080917A00846080937A0098
:1018B00080917A00826080937A0080917A008160C2
:1018C00080937A0080917A00806880937A001092E9
:1018D000C1000E94990986E191E00E94D30980919C
:1018E0000F0490911004209111043091120482177A
:1018F000930719F061E00E94120680911104909103
:10190000120420910F04309110042817390719F0A0
:1019100061E00E9412061FB7F89480912E03811196
:1019200027C0ECE7F0E08491E0E9F0E09491E82F43
:10193000F0E0EE0FFF1FE859FF4FA591B491EC9135
:10194000E92321F461E08AE00E94E20561E08AE097
:101950000E9412068CB580618CBD8CB580648CBDF4
:1019600061E08DE00E94120661E08BE00E941206A9
:1019700080912E038F5F80932E031FBF60E08FE066
:1019800094E00E94DE0661E08FE094E00E94EA06A7
:1019900065E070E080E090E00E944E064CE060E080
:1019A0008FE094E00E942E074FE564E08FE094E022
:1019B0000E942E0766E08FE094E00E940D08877D6C
:1019C000182F10628BE990E0A0E0B0E080931F0434
:1019D00090932004A0932104B0932204412F66E049
:1019E0008FE094E00E942E0766E08FE094E00E9472
:1019F0000D08811709F488C466E08FE094E00E9426
:101A00000D0866E08FE094E00E940D0845E550E087
:101A100060E070E040931F04509320046093210421
:101A200070932204482F477D66E08FE094E00E9487
:101A30002E0766E08FE094E00E940D088FE094E0AE
:101A40000E94050780E50E94080783E70E940807B7
:101A50008FE094E00E94020740E06DE18FE094E0A7
:101A60000E942E0740E06CE18FE094E00E942E0778
:101A70001092170440E767E08FE094E00E942E0781
:101A80004CE465E08FE094E00E942E0762EE8FE068
:101A900094E00E940F078FE094E00E942B078FE0F4
:101AA00094E00E94C80860E08FE094E00E940D0876
:101AB000482F4E7F60E08FE094E00E942E0768EC94
:101AC00070E080E090E00E944E0662E080910204A7
:101AD0000E94120680E398EFAFEFBFEF80930604F9
:101AE00090930704A0930804B093090460E082E097
:101AF0000E94120660E083E00E94120660E084E02B
:101B00000E94120660E085E00E94120661E087E014
:101B10000E94120661E088E00E94120661E088E0FF
:101B20000E94E2058091EF039091F0038932934285
:101B300009F0BAC03EECC32E33E0D32EF6018788FD
:101B4000908C1A82198285E792E00E94D3098FE176
:101B500091E00E94D3098091E1039091E2030E94F9
:101B6000E108F601108D0789712F770F770B272F6A
:101B7000372F472F572F672F8091E1039091E20372
:101B80000E94D207F6018789908D9A83898342E06B
:101B9000BE016F5F7F4F8091E1039091E2030E944D
:101BA0006D0A882389F068EC70E080E090E00E9484
:101BB0004E0642E06FEE73E08091E1039091E20304
:101BC0000E946D0A81110EC009811A810E94990933
:101BD00085E792E00E94D30980E391E00E94610AC8
:101BE000C80143C01A821982F601A788B08CF09010
:101BF000F003E090EF035F2D550F550B052F152FC8
:101C0000252F352F452F61E08091E1039091E2036C
:101C10000E942D088091E1039091E2030E94160931
:101C20000E9488068B0108511C4F2801012E000CD0
:101C3000660877088091E1039091E2030E949D0875
:101C4000811166C30E94880664157505860597058F
:101C500088F35EC30E94990985E792E00E94D30948
:101C60008BE691E00E94610AC5010E94630A83E449
:101C700092E00E94D30961E087E00E94E20568EEED
:101C800073E080E090E00E944E0660E087E00E94F2
:101C9000E205F2E0CF0ED11C28EDC21623E0D206F9
:101CA00009F04CCFF12C8CC088ED91E00E94D30953
:101CB0001BA21AA21A821982F090F003E090EF039F
:101CC0005F2D550F550B052F152F252F352F452F20
:101CD00061E08091E1039091E2030E942D088091E0
:101CE000E1039091E2030E941609F12C0E948806FC
:101CF0008B01005D1A484801012E000CAA08BB08A0
:101D00008091E1039091E2030E949D08811107C038
:101D10000E948806681579058A059B0588F38091DD
:101D2000E1039091E2030E949D08882309F429C3EE
:101D30008DEE91E00E94D30942E0BE016E5D7F4FBF
:101D40008091E1039091E2030E9452070E9488066D
:101D50008B01005D1A484801012E000CAA08BB083F
:101D60008091E1039091E2030E949D08882309F489
:101D70002DC38091E1039091E2030E949D08882386
:101D800009F42DC342E0BE016F5F7F4F8091E103F4
:101D90009091E2030E9452072AA13BA18091EF0398
:101DA0009091F0032817390709F43EC32AA13BA1FB
:101DB0008091EF039091F0032817390709F096CF2F
:101DC000F0922F0360E088E00E94E20586E492E052
:101DD0000E94610A80912F0390E00E94490A84E5E5
:101DE00092E00E94D3098AE692E00E94610A809103
:101DF000FB039091FC030E94490A87E792E00E944E
:101E0000D30901EF13E0F801819191918F010E94B4
:101E1000490AF3E00B3F1F07B1F767E073E0CE011B
:101E2000CA960E94070C83E892E00E94D30988E8D2
:101E300092E00E94D3099DE2B92E28E7A22E80915C
:101E4000FB039091FC038932934209F059C081E36E
:101E500093E00E94850418161906E4F467E073E025
:101E6000CE0101960E94070C0E94BA0197FD06C0A0
:101E7000682FCE0101960E94F401F6CFBE016F5F7C
:101E80007F4FCE01CA960E942402CE0101960E9485
:101E9000A902DDCF8EAD9FAD892B09F42EC20AAD0C
:101EA0001BAD6CE972E0C8010E948117892B51F4C7
:101EB0008AE293E20E945701882309F41EC281EA54
:101EC00092E011C067EA72E0C8010E948117892B75
:101ED00009F013C28BE293E20E945701882309F4B0
:101EE0000CC28CEA92E00E94D3090E94AE0288E8FC
:101EF00092E00E94D30985E792E00E94D309FDC1D8
:101F0000F090F003E090EF035F2D550F550B052F78
:101F1000152F252F352F452F60E08091E1039091FB
:101F2000E2030E942D088091E1039091E2030E9458
:101F3000160982EB92E00E94D3098091E10390910F
:101F4000E2030E949D088823C1F388EC92E00E947E
:101F5000D30941E0BE016F5F7F4F8091E103909113
:101F6000E2030E9452070091FB031091FC030E94C0
:101F7000E40A882309F441C0909103049B3029F0BE
:101F8000E0F19551923058F038C06091FF0370E055
:101F900080E090E00E94F91B6B017C0134C09090BE
:101FA000FF03692D6F7770E080E090E00E94FB1BDB
:101FB00020E030E040E853E40E945A1C6B017C01B1
:101FC00080910004682F70E080E090E00E94FB1B8D
:101FD0009B01AC01C701B6010E94D7142DEC3CEC6B
:101FE0004CEC5DE30E945A1C6B017C0197FE0BC018
:101FF000F7FAF094F7F8F09406C0C12CD12C80ECDD
:10200000E82E8FE7F82E67E073E0CE01C4960E94B9
:10201000070CC80189529342873E934008F526E693
:1020200036E646EE5FE3C701B6010E945A1C20E087
:1020300030E040E052E40E94D7146B017C0120E0C4
:1020400030E0A9010E94F41B87FD0AC020E03CE3B8
:102050004CE156E4C701B6010E94721518163CF413
:102060006FEC72E0CE0101960E94070CE1C067E0C0
:1020700073E0CE018E960E94070C67E073E0CE01FC
:1020800088960E94070C1BA21AA21DA21CA21FA2C6
:102090001EA24AE0BE016F5F7F4FC8010E94D317A6
:1020A000BE016F5F7F4FCE0182960E948802BE0103
:1020B0006E5D7F4FCE018E960E942402CE018296E5
:1020C0000E94A9026AA97BA92EA53FA5EEECF3E028
:1020D00080E090E08617970718F42115310529F460
:1020E00010923003A0E3B3E003C0D901A80FB91FD9
:1020F0004C91419301968430910561F7B092D203DF
:102100001BA21AA21DA21CA21FA21EA28E010F5F5B
:102110001F4F22E044E0C701B6010E949117BC01A5
:10212000CE0182960E948802BE016E5D7F4FCE0175
:102130008E960E942402CE0182960E94A9026AA96C
:102140007BA92EA53FA580E090E08617970718F49D
:102150002115310529F410923003E0E3F3E003C0C8
:10216000F901E80FF91F4081FC01E253FC4F458360
:1021700001968530910549F7B092D8031BA21AA2A7
:102180001DA21CA21FA21EA24AE0BE016F5F7F4FCC
:1021900085E090E00E94D317BE016F5F7F4FCE01B4
:1021A00082960E948802BE016E5D7F4FCE018E96A0
:1021B0000E942402CE0182960E94A9024AA95BA92C
:1021C0002EA53FA580E090E08417950791F021159A
:1021D000310529F410923003E0E3F3E003C0F90184
:1021E000E80FF91F6081FC01E253FC4F6387019601
:1021F000EBCFFC01E253FC4FA3866EEC73E0CE0103
:1022000088960E9488021A8219821C821B821E8272
:102210001D82BE01685D7F4FCE0101960E9424029F
:10222000CE0188960E94A902CE018E960E94A90234
:10223000BE016F5F7F4FCE01C4960E942402CE0183
:1022400001960E94A90261E088E00E94E205809167
:10225000E1039091E2030E94E10809E213E220E029
:1022600030E040E050E060E070E08091E103909168
:10227000E2030E94D2076CA97DA941E18091E103AC
:102280009091E2030E946D0A882379F085ED92E037
:102290000E94D30960E088E00E94E2058091E1039A
:1022A0009091E2030E94A30824C00E94990985E747
:1022B00092E00E94D30980E391E00E94610A89E2E2
:1022C00093E20E94630A83E492E00E94D30961E0F2
:1022D00087E00E94E20568EE73E080E090E00E94F3
:1022E0004E0660E087E00E94E20560E088E00E9420
:1022F000E205CE01C4960E94A90267E073E0CE0118
:10230000CA960E9488029BCD81E08093150474CB0D
:102310008091E1039091E2030E949D088823E1F0FF
:1023200042E0BE016F5F7F4F8091E1039091E20335
:102330000E94520789819A818A159B0509F08ACCEF
:1023400083E591E00E94D3098AED92E00E94D309CF
:10235000C4010E94490A9DCC0E948806012E000CEF
:10236000220B330B061717072807390708F091CC03
:102370000E94990985E792E00E94D30985EA91E0DD
:1023800071CC0E948806012E000C220B330B06171D
:1023900017072807390708F0D9CC0E94990985E763
:1023A00092E00E94D3098FEF91E00E94D30961E08F
:1023B00087E00E94E20568EE73E080E090E00E9412
:1023C0004E0660E087E00E94E205C0CC0E948806CD
:1023D000681579058A059B0508F4C2CCCACC0E9411
:1023E0008806012E000C220B330B0617170728074F
:1023F000390708F0D1CC0E94990985E792E00E9444
:10240000D3098FEF91E00E94D30961E087E00E9439
:10241000E20568EE73E080E090E00E944E0660E026
:1024200087E00E94E205B8CC8091E1039091E2033D
:102430000E94E1081091E6030091E503712F770FE8
:10244000770B272F372F472F572F672F8091E103C7
:102450009091E2030E94D20788E292E00E94D309A1
:1024600042E06FEE73E08091E1039091E2030E94FD
:102470006D0A811128C08DE392E00E94D30900917A
:10248000E5031091E6030E94990985E792E00E9416
:10249000D30980E391E00E94610AC8010E94630AA7
:1024A00083E492E00E94D30961E087E00E94E205A4
:1024B00068EE73E080E090E00E944E0660E087E006
:1024C0000E94E20573CCFF24F39470CC8F929F920C
:1024D000AF92BF92CF92DF92EF92FF920F931F9332
:1024E000CF93DF93109234031092330388EE93E07E
:1024F000A0E0B0E08093350390933603A0933703B8
:10250000B09338038AE091E09093320380933103D3
:1025100085EC90E090933E0380933D0384EC90E043
:102520009093400380933F0380EC90E090934203AC
:102530008093410381EC90E09093440380934303A4
:1025400082EC90E0909346038093450386EC90E004
:10255000909348038093470310924A0310924B03D1
:1025600010924C0310924D0389E090E09093100478
:1025700080930F048AE090E09093120480931104FA
:102580001092150480E2809316041092170485E0DF
:1025900080931D0485E090E0A0E0B0E080932304E8
:1025A00090932404A0932504B09326041092180459
:1025B00086E0809302048BE080930304ECE8F0E073
:1025C000E491E0930404E8E7F0E0E491E09305048B
:1025D00080E89EE3A0E0B0E080930A0490930B04AF
:1025E000A0930C04B0930D040E94990982E00E940C
:1025F00085144C0183E00E948514D1E0892B09F4F5
:10260000D0E084E00E948514C1E0892B09F4C0E089
:102610008AE293E00E94D309892839F4D1110CC0D1
:10262000CC23A1F0CDE2D3E21CC0D1110AC0CC234F
:1026300081F0CEE2D3E215C0CC2371F0CFE2D3E239
:1026400010C0CC2361F0C0E3D3E20BC0C9E2D3E2F7
:1026500008C0CAE2D3E205C0CBE2D3E202C0CCE2BA
:10266000D3E2D093FC03C093FB038EE992E00E9477
:10267000D309C93283E2D80799F0CE018A52934236
:10268000039788F0CD3283E2D80781F0CE3283E21F
:10269000D80779F0CF32D34279F08FE293E20EC0BF
:1026A0008AE293E20BC089E293E208C08CE293E2F3
:1026B00005C08DE293E202C08EE293E29093F203B2
:1026C0008093F103C091FB03D091FC038EE992E06B
:1026D0000E94D309CE018952934282309105E0F0E5
:1026E00002970297A0F0CD3283E2D807A9F0CE324C
:1026F00083E2D807B1F0CF3283E2D807B9F0C03314
:10270000D342C1F4DEE2ED2ED3E2FD2E13C0CAE2C5
:10271000EC2EC3E2FC2E0EC0BBE2EB2EB3E2FB2E8E
:1027200009C0ACE2EA2EA3E2FA2E04C0FDE2EF2ECD
:10273000F3E2FF2EF092F403E092F303C091FB0367
:10274000D091FC038EE992E00E94D309CE01895218
:1027500093420397E0F0CC3283E2D807A9F0CD3260
:1027600083E2D80771F0CE3283E2D80769F0CF3226
:1027700083E2D80761F0C033D34259F40DE213E28B
:1027800008C00AE213E205C00BE213E202C00CE249
:1027900013E21093F6030093F503C091FB03D0916D
:1027A000FC038EE992E00E94D309CE018952934244
:1027B0000497A0F0CD3283E2D807A9F0CE3283E2AD
:1027C000D807B1F0CF3283E2D807B9F0C033D34293
:1027D000C1F4ECE2AE2EE3E2BE2E13C07DE2A72EE2
:1027E00073E2B72E0EC06EE2A62E63E2B62E09C0CB
:1027F0005AE2A52E53E2B52E04C04BE2A42E43E2CA
:10280000B42EB092F803A092F703C091FB03D091CD
:10281000FC038EE992E00E94D309CE0189529342D3
:102820008430910578F00497029788F0CF3283E2E4
:10283000D80791F0C033D34299F43BE2C32E33E280
:10284000D32E0EC02EE2C22E23E2D22E09C09FE26A
:10285000C92E93E2D92E04C08AE2C82E83E2D82E74
:10286000D092FA03C092F903109228041092270420
:1028700010922A04109229048091FB039091FC038A
:102880002FE034E03093E2032093E10327E234E0C9
:102890003093E4032093E3039093F0038093EF03DA
:1028A0009093E0038093DF038091F1039091F20312
:1028B0009093E6038093E5038091F3039091F403F2
:1028C0009093E8038093E7038091F5039091F603DA
:1028D0009093EA038093E9038091F7039091F803C2
:1028E0009093EC038093EB03D092EE03C092ED0340
:1028F000DF91CF911F910F91FF90EF90DF90CF90DC
:10290000BF90AF909F908F900895CF93DF93282F23
:1029100030E0F901E055FF4F8491F901EA57FF4F8C
:10292000D491F901EE58FF4FC491CC2391F081115D
:102930000E942F05EC2FF0E0EE0FFF1FEC53FF4F2E
:10294000A591B491EC91ED2381E090E021F480E039
:1029500002C080E090E0DF91CF910895A1E21A2EAD
:10296000AA1BBB1BFD010DC0AA1FBB1FEE1FFF1F33
:10297000A217B307E407F50720F0A21BB30BE40B83
:10298000F50B661F771F881F991F1A9469F76095CA
:102990007095809590959B01AC01BD01CF01089584
:1029A000EE0FFF1F0590F491E02D09945058BB27BE
:1029B000AA270E94EE140C94E11C0E94D31C38F04C
:1029C0000E94DA1C20F039F49F3F19F426F40C948D
:1029D000D01C0EF4E095E7FB0C94CA1CE92F0E9472
:1029E000F21C58F3BA17620773078407950720F0A3
:1029F00079F4A6F50C94141D0EF4E0950B2EBA2F65
:102A0000A02D0B01B90190010C01CA01A0011124F4
:102A1000FF27591B99F0593F50F4503E68F11A16A0
:102A2000F040A22F232F342F4427585FF3CF469531
:102A300037952795A795F0405395C9F77EF41F1653
:102A4000BA0B620B730B840BBAF09150A1F0FF0F1D
:102A5000BB1F661F771F881FC2F70EC0BA0F621F09
:102A6000731F841F48F4879577956795B795F795F9
:102A70009E3F08F0B0CF9395880F08F09927EE0F8E
:102A80009795879508950E94FA1C88F09F5798F0B3
:102A9000B92F9927B751B0F0E1F0660F771F881F63
:102AA000991F1AF0BA95C9F714C0B13091F00E947D
:102AB000141DB1E008950C94141D672F782F8827FA
:102AC000B85F39F0B93FCCF3869577956795B395A4
:102AD000D9F73EF490958095709561957F4F8F4F13
:102AE0009F4F08950E94361C08F48FEF08950E94AE
:102AF000361C880B990B0895CF93DF938230910594
:102B000010F482E090E0E0913604F091370420E088
:102B100030E0C0E0D0E0309711F14081518148179A
:102B20005907C0F04817590761F4828193812097B3
:102B300019F09B838A832BC09093370480933604CB
:102B400026C02115310519F04217530718F49A01D0
:102B5000BE01DF01EF010280F381E02DDCCF211502
:102B6000310509F1281B390B2430310590F41296F8
:102B70008D919C9113976115710521F0FB01938351
:102B8000828304C09093370480933604FD0132960B
:102B900044C0FD01E20FF31F81939193225031094C
:102BA0002D933C933AC02091340430913504232B6B
:102BB00041F42091020130910301309335042093B8
:102BC000340420910001309101012115310541F4B7
:102BD0002DB73EB74091040150910501241B350BE0
:102BE000E0913404F0913504E217F307A0F42E1BB2
:102BF0003F0B2817390778F0AC014E5F5F4F241761
:102C0000350748F04E0F5F1F50933504409334044E
:102C10008193919302C0E0E0F0E0CF01DF91CF918A
:102C200008950F931F93CF93DF93009709F48CC0FF
:102C3000FC013297138212820091360410913704FE
:102C40000115110581F420813181820F931F20919C
:102C50003404309135042817390779F5F093350499
:102C6000E093340471C0D80140E050E0AE17BF07D4
:102C700050F412962D913C911397AD012115310519
:102C800009F1D901F3CF9D01DA01338322836081F9
:102C90007181860F971F8217930769F4EC012881D1
:102CA0003981260F371F2E5F3F4F318320838A8162
:102CB0009B8193838283452B29F4F0933704E0931F
:102CC000360442C01396FC93EE931297ED0149919E
:102CD00059919E01240F351FE217F30771F480818B
:102CE0009181840F951F029611969C938E938281F9
:102CF000938113969C938E931297E0E0F0E0D801B5
:102D000012968D919C911397009719F0F8018C0100
:102D1000F6CF8D919C9198012E5F3F4F820F931FAC
:102D200020913404309135042817390769F430971D
:102D300029F4109237041092360402C013821282D2
:102D40001093350400933404DF91CF911F910F91BC
:102D50000895A0E0B0E0EFEAF6E10C942A1DEC0142
:102D6000009721F4CB010E947C15B8C0FC01E60F4E
:102D7000F71F9C0122503109E217F30708F4ACC099
:102D8000D9010D911C91119706171707B0F0053066
:102D9000110508F49FC0C80104978617970708F427
:102DA00099C002501109061B170B019311936D93E3
:102DB0007C93CF010E9411168DC05B01A01AB10A4D
:102DC0004C01800E911EA0913604B091370440E072
:102DD00050E0E12CF12C109709F44AC0A815B90570
:102DE000D1F56D907C901197630182E0C80ED11CE3
:102DF000CA14DB0480F1A3014A195B096A0182E06D
:102E0000C80ED11C1296BC9012971396AC91B5E0E7
:102E1000CB16D10440F0B282A38351834083D90101
:102E20006D937C930AC00E5F1F4FC301800F911FEB
:102E3000F90191838083EB2DFA2FE114F10431F035
:102E4000D7011396FC93EE93129744C0F093370486
:102E5000E09336043FC08D919C9111974817590714
:102E600008F4AC017D0112960D90BC91A02DB3CF5A
:102E7000809134049091350488159905E1F4461742
:102E80005707C8F48091000190910101009741F427
:102E90008DB79EB74091040150910501841B950B9D
:102EA000E817F907C8F4F0933504E0933404F90106
:102EB000718360830FC0CB010E947C157C01009759
:102EC00059F0A801BE010E947817CE010E94111688
:102ED000C70104C0CE0102C080E090E0CDB7DEB7EC
:102EE000EEE00C94461D81E090E0F8940C946C1D8B
:102EF000FB01DC0102C001900D9241505040D8F717
:102F00000895FB01DC018D91019080190110D9F326
:102F1000990B0895FB01DC0101900D920020E1F76F
:102F20000895EF920F931F93CF93DF93E80147FD2E
:102F300002C034E001C034E1E42F440FFF0BF7FF7F
:102F400003C0F195E195F109E32E022F2E2FAE017A
:102F50000E940018CE01DF91CF911F910F91EF9049
:102F60000895662777270C948E19FC0188279927E6
:102F7000E89421912032E9F3293010F02E30C8F383
:102F80002B3241F02D3239F4689404C00E94DE17D0
:102F9000820F911D219120532A30C0F31EF4909589
:102FA00081959F4F0895BB274A3031F4992322F42D
:102FB000BDE2909581959F4F0C94E7177AE0979F1B
:102FC000902D879F802D910D11240895BB27FB0123
:102FD0005527AA27880F991FAA1FA41710F0A41B12
:102FE00083955051B9F7A05DAA3308F0A95DA1936C
:102FF000009779F7B111B1931192CB010C94E41BB6
:103000004F925F926F927F929F92AF92BF92CF92B8
:10301000DF92EF92FF920F931F93CF93DF93CDB781
:10302000DEB729970FB6F894DEBF0FBECDBF6A0199
:10303000122FB02E2BE3201720F0FF24F394F00E74
:1030400002C0BCE3FB2E0F2D27E0AE014F5F5F4FA8
:103050000E94EB1AAC018981982F9970913031F060
:10306000E1FC06C0E0FE06C090E205C09DE203C0A0
:103070009BE201C090E0EE2DE07183FF3CC0911116
:1030800002C083E001C084E0811718F4212F281BBF
:1030900001C020E0E1110BC0F601822F30E288234D
:1030A00019F031938150FBCFC20ED11C20E099233F
:1030B00029F0D6019C93F60131966F01C601039663
:1030C000E2FE0AC03EE4D6013C9341E411964C93E3
:1030D000119712963C9306C03EE6F601308341E616
:1030E00041833283FC01322F40E2332309F442C092
:1030F00041933150FACF82FF44C0911102C083E066
:1031000001C084E0811718F4212F281B01C020E0A2
:10311000E1110BC0F601822F30E2882319F03193C0
:103120008150FBCFC20ED11C20E0992329F0D6019B
:103130009C93F60131966F01C6010396E2FE0BC027
:1031400039E4D6013C933EE411963C93119736E462
:1031500012963C9307C039E6F60130833EE6318390
:1031600036E63283FC01322F40E2332319F04193DB
:103170003150FBCFFC01E20FF11D10828EEF9FEF6B
:10318000B7C0F1E0911101C0F0E06F2F70E01416AC
:10319000150624F49A012F5F3F4F02C021E030E072
:1031A000260F371FBB2029F06B2D70E06F5F7F4F1C
:1031B00002C060E070E0260F371F612F70E0261715
:1031C00037071CF4121B212F01C020E03E2D38715F
:1031D00059F4D601322F60E2332319F06D93315048
:1031E000FBCFC20ED11C20E0FF2331F0D6019C930F
:1031F000B6016F5F7F4F6B01E1110BC0F601922F9B
:1032000030E3992319F031939150FBCFC20ED11CBA
:1032100020E09F2D940F3A81782F7071A72E84FFA4
:1032200003C0313309F49150191624F4993018F081
:1032300098E001C091E0E42F852F57FF02C0E0E045
:1032400080E06E2F782FE0E0F0E0AEE29A2E3A01B7
:10325000691A71082A01461A570A0B2D10E01195B8
:10326000019511096F3F8FEF780729F4D6019C92E1
:10327000C60101966C014617570784F0661677065B
:103280006CF47F01E40CF51CA1E0B0E0AC0FBD1FB5
:10329000EA0EFB1ED7011196BC9002C090E3B92E36
:1032A000615071093196C60101967C016017710762
:1032B00024F0D601BC926C01D5CF6417750741F498
:1032C000363320F4353321F4A11002C081E3B82E47
:1032D000F601B082F701822F90E2882319F09193D2
:1032E0008150FBCFF701E20FF11D108280E090E0EA
:1032F00029960FB6F894DEBF0FBECDBFDF91CF91F8
:103300001F910F91FF90EF90DF90CF90BF90AF9003
:103310009F907F906F905F904F900895A0E0B0E0F5
:10332000E4E9F9E10C942A1DEC017B0161157105BA
:1033300019F0DB018D939C938E010F5F1F4F7880F6
:10334000872D90E00E94C31B892B11F0E801F4CF78
:10335000BDE27B1205C00F5F1F4F7980C1E008C03E
:10336000EBE27E1204C08E010E5F1F4F7980C0E039
:103370006801F1E0CF1AD10843E050E06CED70E055
:10338000C6010E94CC1B892BF1F4680122E0C20E19
:10339000D11C45E050E067ED70E0C6010E94CC1BF7
:1033A000892B21F4680187E0C80ED11CE114F104D7
:1033B00019F0D701CD92DC92C111FFC060E070E03E
:1033C00080E89FE703C143E050E064ED70E0C60190
:1033D0000E94CC1B892B51F4E114F10409F4F2C0D2
:1033E0000E5F1F4FF70111830083ECC0680160E09E
:1033F00070E0CB0100E010E0F601D0EDD70DDA303F
:1034000058F52C2F2260622E2C2F2870C2FF05C089
:10341000211128C00F5F1F4F25C0222311F001503A
:103420001109A5E0B0E09B01AC010E941B1D4B01FE
:103430005C01880C991CAA1CBB1CC501B4016D0F52
:10344000711D811D911D6839A9E97A078A07A9E1D3
:103450009A0740F0C66005C0DE3F51F4C3FD44C08A
:10346000C8606C2EBFEFCB1ADB0A7080C62DC4CFAC
:103470002D2F2F7D2531C1F540814D3211F4C061D2
:1034800006C04B3221F0319621E030E006C0329682
:10349000D60111964C9122E030E0A0EDA40FAA30A5
:1034A00018F0E21BF30B20C040E050E04038BCE0D5
:1034B0005B075CF49A01220F331F220F331F420F68
:1034C000531F440F551F4A0F511D3196DF011197AD
:1034D0002C91A0EDA20FAA3048F3C4FF03C0519570
:1034E00041955109040F151FC1FF07C0E114F104F4
:1034F00021F03197D701ED93FC930E94F91BC37023
:10350000C33019F06B017C0106C06B017C01F7FA36
:10351000F094F7F8F09420E030E0A901C701B6017B
:103520000E94F41B882309F445C017FF06C01195BB
:1035300001951109C3EFD0E002C0CBE0D1E05E01FC
:10354000B8E1AB1AB1084601BE2DAF2D90E2E92ECD
:10355000F12C0E151F0584F0FE0125913591459142
:103560005491B4018B2F9A2F0E945A1C4B01B82FF3
:10357000A92F0E191F09EDCF2497F594E794CA15CA
:10358000DB0539F76401EB2EFA2E8E2D880F8F2D77
:10359000881F8F3F49F020E030E0A901C701B60144
:1035A0000E94F41B811106C082E290E090933904DE
:1035B00080933804C701B60109C060E070E080E87C
:1035C0009FEF04C060E070E080EC9FE7CDB7DEB70E
:1035D000EEE00C94461D283008F027E03327DA018E
:1035E000990F311D87FD916000966105710539F4D1
:1035F00032602E5F3D9330E32A95E1F708959F3FB7
:1036000030F080387105610509F03C5F3C5F3D9307
:10361000913008F08068911DDF93CF931F930F9333
:10362000FF92EF92192F987F9695E92F9695969590
:10363000E90FFF27E759FE4F99273327EE24FF2490
:10364000A701E70105900894079428F4360FE71EB8
:10365000F81E491F511D660F771F881F991F06947A
:10366000A1F70590079428F4E70EF81E491F561F8E
:10367000C11D770F881F991F661F0694A1F705903B
:10368000079428F4F80E491F561FC71FD11D880F35
:10369000991F661F771F0694A1F70590079420F4E1
:1036A000490F561FC71FD81F990F661F771F881F06
:1036B0000694A9F784911095177041F0D695C79597
:1036C00057954795F794E7941A95C1F7EFE0F1E025
:1036D00068941590159135916591959105907FE2CB
:1036E0007395E118F10A430B560BC90BD009C0F7CB
:1036F000E10CF11E431F561FC91FD01D7EF470330D
:1037000011F48A95E6CFE894015030F0080F0AF4DE
:103710000027021708F4202F2395022F7A3328F070
:1037200079E37D932A95E9F710C07D932A9589F670
:10373000069497956795379517951794E118F10AB0
:10374000430B560BC90BD00998F023957E917395C6
:103750007A3308F070E37C932013B8F77E917061A0
:103760007D9330F0839571E37D9370E32A95E1F7C3
:103770001124EF90FF900F911F91CF91DF91992726
:1037800087FD9095089591110C94C71C803219F013
:1037900089508550C8F70895FB01DC014150504025
:1037A00088F08D9181341CF08B350CF4805E65912E
:1037B00061341CF06B350CF4605E861B611171F393
:1037C000990B0895881BFCCFDC01FC01672F7191D8
:1037D0007723E1F7329704C07C916D9370836291F7
:1037E000AE17BF07C8F308950E94361C08F481E0A5
:1037F0000895E89409C097FB3EF4909580957095E4
:1038000061957F4F8F4F9F4F9923A9F0F92F96E92C
:10381000BB279395F695879577956795B795F111A1
:10382000F8CFFAF4BB0F11F460FF1BC06F5F7F4F3E
:103830008F4F9F4F16C0882311F096E911C0772350
:1038400021F09EE8872F762F05C0662371F096E859
:10385000862F70E060E02AF09A95660F771F881F28
:10386000DAF7880F9695879597F90895990F0008CC
:10387000550FAA0BE0E8FEEF16161706E807F90742
:10388000C0F012161306E407F50798F0621B730BDD
:10389000840B950B39F40A2661F0232B242B252B5E
:1038A00021F408950A2609F4A140A6958FEF811D01
:1038B000811D08950E946D1C0C94E11C0E94D31C74
:1038C00038F00E94DA1C20F0952311F00C94CA1CE9
:1038D0000C94D01C11240C94151D0E94F21C70F342
:1038E000959FC1F3950F50E0551F629FF001729FA5
:1038F000BB27F00DB11D639FAA27F00DB11DAA1FB4
:10390000649F6627B00DA11D661F829F2227B00D00
:10391000A11D621F739FB00DA11D621F839FA00D8B
:10392000611D221F749F3327A00D611D231F849FDB
:10393000600D211D822F762F6A2F11249F57504032
:103940009AF0F1F088234AF0EE0FFF1FBB1F661FAD
:10395000771F881F91505040A9F79E3F510580F076
:103960000C94CA1C0C94151D5F3FE4F3983ED4F3ED
:10397000869577956795B795F795E7959F5FC1F71A
:10398000FE2B880F911D9695879597F90895992795
:103990008827089597F99F6780E870E060E00895B0
:1039A0009FEF80EC089500240A9416161706180657
:1039B0000906089500240A94121613061406050633
:1039C0000895092E0394000C11F4882352F0BB0FC4
:1039D00040F4BF2B11F460FF04C06F5F7F4F8F4F27
:1039E0009F4F089557FD9058440F551F59F05F3F62
:1039F00071F04795880F97FB991F61F09F3F79F011
:103A000087950895121613061406551FF2CF469592
:103A1000F1DF08C0161617061806991FF1CF869514
:103A20007105610508940895E894BB2766277727F8
:103A3000CB0197F908950E945D1DA59F900DB49F3D
:103A4000900DA49F800D911D112408952F923F92F7
:103A50004F925F926F927F928F929F92AF92BF929E
:103A6000CF92DF92EF92FF920F931F93CF93DF934A
:103A7000CDB7DEB7CA1BDB0B0FB6F894DEBF0FBEA7
:103A8000CDBF09942A88398848885F846E847D84F4
:103A90008C849B84AA84B984C884DF80EE80FD80F6
:103AA0000C811B81AA81B981CE0FD11D0FB6F8946C
:103AB000DEBF0FBECDBFED010895A29FB001B39F41
:103AC000C001A39F700D811D1124911DB29F700D27
:0C3AD000811D1124911D0895F894FFCF72
:103ADC0000003A04800000000000BC04DC0B8504EC
:103AEC00630477040305696E207365747570005365
:103AFC00656E64696E672070696E67732E2E2E007A
:103B0C004552524F5220303033212120556E616284
:103B1C006C6520746F20636F6E74616374206875BC
:103B2C0062200052656365697665642061636B6E23
:103B3C006F776C656467652E2E2E004552524F527E
:103B4C0020303038212120496E636F7272656374A6
:103B5C002061636B6E6F776C656467656D656E7401
:103B6C002070696E6720726563696576656420668E
:103B7C00726F6D20004552524F5220303037212148
:103B8C00204E6F2061636B6E6F776C656467656D3B
:103B9C00656E742070696E67207265636965766501
:103BAC00642066726F6D200057616974696E6720BE
:103BBC00666F722070696E67732E2E2E00526563CD
:103BCC00656976696E6720446174612E2E2E0045FE
:103BDC0052524F522030303921212054696D6520CA
:103BEC006F757421204E6F2070696E67207265634B
:103BFC00656976656421210053656E64696E672082
:103C0C0050696E67206261636B2E2E2E00455252F6
:103C1C004F522121210050696E67207374617475B5
:103C2C00733A20002F2F2F2F2F2F2F2F2F2F2F2F87
:103C3C002F2F2F2F2F2F2F2F2F004D7920416464E2
:103C4C00726573733A2000526561642052616E672D
:103C5C00653A0056565656005F5F5F5F5F5F5F5F69
:103C6C005F5F5F5F5F5F5F5F5F5F5F003930303268
:103C7C0000393030323A003930303300393030339B
:103C8C003A00576169746E6720666F7220726571B5
:103C9C00756573742E2E2E00476F742E2E2E0045D4
:103CAC0052524F520074727565005375636365739D
:103CBC007366756C20636F6E7461637420776974BE
:103CCC006820687562200053006E616E00696E6634
:103CDC00006F7666000D0A004552524F522030316B
:103CEC00312121204D6573616765206E6F742066EC
:0E3CFC006F726D61746564212100303100002B
:00000001FF
