:100000000C945A010C9482010C9482010C9482018C
:100010000C9482010C9482010C9482010C94820154
:100020000C9482010C9482010C9482010C94820144
:100030000C9482010C9482010C9482010C94820134
:100040000C94B3150C9482010C94B2180C94E4181F
:100050000C9482010C9482010C9482010C94820114
:100060000C9482010C948201EA05C30681074B08B7
:100070000909C709850A610B650B690B6D0B710BCB
:10008000710B710B800B840B880B8C0B900B940BFA
:10009000980B504120506F77657209203D20255301
:1000A0000D0A00435243204C656E67746809203D79
:1000B0002025530D0A004D6F64656C0909203D2011
:1000C00025530D0A00446174612052617465092052
:1000D0003D2025530D0A0044594E50442F464541BA
:1000E0005455524500434F4E4649470052465F53D0
:1000F000455455500052465F434800454E5F5258A4
:100100004144445200454E5F41410052585F5057B0
:100110005F50302D360054585F41444452005258CD
:100120005F414444525F50322D350052585F414484
:1001300044525F50302D31000D0A002530327800D6
:10014000203078002553092563203D000D0A00204A
:10015000307825303278002553092563203D004F43
:100160004253455256455F54583D253032783A2027
:10017000504F4C535F434E543D2578204152435FCE
:10018000434E543D25780D0A0053544154555309AC
:1001900009203D203078253032782052585F445273
:1001A0003D25782054585F44533D2578204D4158D3
:1001B0005F52543D25782052585F505F4E4F3D2589
:1001C000782054585F46554C4C3D25780D0A000068
:1001D00001020304051112131415160A0B0C0D0E5F
:1001E0000FFF01F801F101E90150415F484947481B
:1001F000004C415F4D45440050415F4C4F5700500B
:10020000415F4D494E001B0214020C023136206240
:1002100069747300382062697473004469736162A1
:100220006C656400320228026E524632344C303122
:100230002B006E524632344C3031004F024902419D
:10024000023235304B42505300324D425053003150
:100250004D4250530000000008000201000003045A
:100260000700000000000000000102040810204008
:100270008001020408102001020408102004040474
:10028000040404040402020202020203030303033F
:1002900003000000002300260029000000000025C4
:1002A0000028002B0000000000240027002A000086
:1002B000240F141911241FBECFEFD8E0DEBFCDBF2D
:1002C00014E0A0E0B1E0E2E1FFE302C005900D928E
:1002D000A233B107D9F725E0A2E3B4E001C01D9233
:1002E000A932B207E1F712E0C4EBD2E004C02297D2
:1002F000FE010E943F1DC03BD107C9F70E9458195B
:100300000C94871F0C9400008091070190910801C4
:10031000893223E29207D9F4E0915A04F0915B0408
:100320008AE293E291838083809107019091080192
:100330009C012E5F3F4F338322832F5F3F4F3583D6
:1003400024832F5F3F4F378326830596C0C08A32B0
:1003500023E29207D9F4E0915A04F0915B0489E218
:1003600093E29183808380910701909108019C0121
:100370002F5F3F4F338322832F5F3F4F358324838B
:100380002F5F3F4F378326830496A1C08B3223E231
:100390009207D9F4E0915A04F0915B0489E293E268
:1003A0009183808380910701909108019C012150E5
:1003B0003109338322832E5F3F4F358324832F5FA0
:1003C0003F4F37832683039682C08C3223E2920705
:1003D000C1F4E0915A04F0915B0489E293E29183C5
:1003E000808380910701909108019C01225031097E
:1003F000338322832F5F3F4F358324832E5F3F4F0C
:100400001BC08D3223E29207D9F4E0915A04F09197
:100410005B048CE293E29183808380910701909149
:1004200008019C0122503109338322832150310974
:10043000358324832C5F3F4F37832683029647C042
:100440008E3223E29207D9F4E0915A04F0915B04D2
:100450008DE293E29183808380910701909108015E
:100460009C01225031093383228321503109358385
:1004700024832150310937832683019628C08F3287
:1004800023E2920739F4E0915A04F0915B048EE282
:1004900093E209C080339342E1F4E0915A04F09171
:1004A0005B048FE293E291838083809107019091B6
:1004B00008019C01225031093383228321503109E4
:1004C000358324832150310937832683059791870B
:1004D000808708951F93CF93DF9360ED77E080E0EE
:1004E00090E00E942C1682E00E944417EC0183E009
:1004F0000E94441711E0892B09F410E084E00E9467
:10050000441721E0892B09F420E0CD2B69F4111167
:1005100018C021112CC089E293E2909308018093C6
:10052000070180E89EE346C0111116C0211128C0C2
:100530008AE293E2909308018093070180EF95E5AA
:1005400039C0211126C08BE293E290930801809379
:10055000070180E69DE62EC0211124C08CE293E2C3
:10056000909308018093070180ED94E823C08DE209
:1005700093E2909308018093070180E49CE91AC0FC
:100580008EE293E2909308018093070180EB93EB56
:1005900011C08FE293E2909308018093070180E2FB
:1005A0009BEC08C080E393E29093080180930701DD
:1005B00080E992EE90934B0480934A04DF91CF91AF
:1005C0001F910895CF93DF93EB018130910539F5A9
:1005D00065E274E088E894E00E94B41969E071E093
:1005E00088E894E00E94B4196EE271E088E894E033
:1005F0000E94B41961E087E00E940E176CE271E07E
:1006000080E090E00E942C1660E087E00E940E17C8
:100610006CE271E080E090E00E942C16EBCF82301B
:10062000910539F565E274E088E894E00E94B41918
:100630006EE371E088E894E00E94B41960E671E02E
:1006400088E894E00E94B41961E087E00E940E17E8
:1006500064EF71E080E090E00E942C1660E087E09B
:100660000E940E1764EF71E080E090E00E942C166B
:10067000EBCF83309105A1F560E272E088E894E069
:100680000E94B41965E871E088E894E00E94A71917
:100690004AE050E0BE0188E894E00E945F1A60EFF3
:1006A00071E088E894E00E94B4196EE271E088E895
:1006B00094E00E94B41961E087E00E940E176CEB91
:1006C00072E080E090E00E942C1660E087E00E94DB
:1006D0000E176CEB72E080E090E00E942C16EBCFDE
:1006E00084309105E9F460E272E088E894E00E94C9
:1006F000B41966EA71E088E894E00E94A71960EFF7
:1007000071E088E894E00E94B4196EE271E088E834
:1007100094E00E94B41961E087E00E940E17FBCFBD
:1007200085309105A9F560E272E088E894E00E94C6
:10073000B41962EC71E088E894E00E94A7194AE0DD
:1007400050E0BE0188E894E00E945F1A67ED71E016
:1007500088E894E00E94B4196EE271E088E894E0C1
:100760000E94B41961E087E00E940E1760E273E016
:1007700080E090E00E942C1660E087E00E940E1757
:1007800060E273E080E090E0DF91CF910C942C1652
:10079000069769F560E272E088E894E00E94B41977
:1007A00063EF71E088E894E00E94A71960EF71E0C0
:1007B00088E894E00E94B4196EE271E088E894E061
:1007C0000E94B41961E087E00E940E1768EC70E0A7
:1007D00080E090E00E942C1660E087E00E940E17F7
:1007E00068EC70E080E090E00E942C16EBCFDF9187
:1007F000CF910895AF92BF92CF92DF92EF92FF9286
:100800000F931F93CF93DF93CDB7DEB728970FB623
:10081000F894DEBF0FBECDBF9A8389837C836B8340
:100820005E834D83590118870F8310910801009151
:100830000701712F770F770B272F372F472F572F50
:10084000672F8EE694E00E9440148EE694E00E94AA
:100850002A1361E088E00E940E176FE172E088E8D9
:1008600094E00E94B41962E272E088E894E00E9489
:10087000B41969817A814AE050E088E894E00E94E6
:10088000671A6F8178854AE050E088E894E00E941A
:10089000671A0E94FD156B017C0188E8C80E83E190
:1008A000D81EE11CF11C42E0BE016F5F7F4F8EE657
:1008B00094E00E94EF1381110EC00E94FD15C61630
:1008C000D706E806F90678F769817A8183E090E037
:1008D0000E94E202E8CF68EE73E080E090E00E94C0
:1008E0002C160E94FD156B017C0188E8C80E83E17F
:1008F000D81EE11CF11C42E067E071E08EE694E056
:100900000E94EF1381110EC00E94FD15C616D70676
:10091000E806F90680F769817A8183E090E00E9419
:10092000E202E9CF68EE73E080E090E00E942C16CE
:100930000E94FD156B017C0188E8C80E83E1D81E7A
:10094000E11CF11C42E0BE01695F7F4F8EE694E03E
:100950000E94EF1381110EC00E94FD15C616D70626
:10096000E806F90678F769817A8183E090E00E94D1
:10097000E202E8CF68EE73E080E090E00E942C167F
:100980000E94FD156B017C0188E8C80E83E1D81E2A
:10099000E11CF11C8F8198858230910589F11CF44E
:1009A0000197B1F0CDC08330910509F441C004979F
:1009B00009F4A4C0C5C00E94FD15C616D706E806F6
:1009C000F90630F469817A8183E090E00E94E202C6
:1009D00042E0BE016B5F7F4F8EE694E00E94EF1312
:1009E000882349F393C00E94FD15C616D706E80672
:1009F000F90630F469817A8183E090E00E94E20296
:100A000042E0BE016D5F7F4F8EE694E00E94EF13DF
:100A1000882349F37BC00E94FD15C616D706E80659
:100A2000F90630F469817A8183E090E00E94E20265
:100A300042E0BE016B5F7F4F8EE694E00E94EF13B1
:100A4000882349F368EE73E080E090E00E942C1662
:100A500042E0BE016D5F7F4F8EE694E00E94EF138F
:100A600081110EC00E94FD15C616D706E806F906CC
:100A700078F769817A8183E090E00E94E202E8CF12
:100A800068EE73E080E090E00E942C1660E272E075
:100A900088E894E00E94B4196D817E814AE050E0BC
:100AA00088E894E00E945F1A64E472E088E894E0C9
:100AB0000E94A7196B817C814AE050E088E894E0AD
:100AC0000E945F1A6AE372E088E894E00E94A71926
:100AD00069817A814AE050E088E894E00E94671AD0
:100AE0002FC00E94FD15C616D706E806F90630F499
:100AF00069817A8183E090E00E94E20246E0B501DC
:100B00008EE694E00E94EF13882359F368EE73E0B9
:100B100080E090E00E942C1660E272E088E894E0A9
:100B20000E94B41960E372E088E894E00E94A7197B
:100B300069817A814AE050E088E894E00E945F1A77
:100B400060E088E00E940E1728960FB6F894DEBF8A
:100B50000FBECDBFDF91CF911F910F91FF90EF900E
:100B6000DF90CF90BF90AF900895AF92BF92CF9299
:100B7000DF92EF92FF920F931F93CF93DF93CDB746
:100B8000DEB72A970FB6F894DEBF0FBECDBF85E063
:100B9000E3E6F3E0DE01169601900D928A95E1F707
:100BA000CE0101966C0185E0F60111928A95E9F774
:100BB000E0910701F0910801E952F342E730F105B5
:100BC00008F064C5EC5CFF4F60E272E088E894E0F6
:100BD0000C943D1D0E94B41968E472E088E894E02A
:100BE0000E94B419A12CB12C1091080100910701A9
:100BF000712F770F770B272F372F472F572F672FFF
:100C00008EE694E00E9440148EE694E00E942A133F
:100C100060E272E088E894E00E94B41968E572E04E
:100C200088E894E00E94A719E0915A04F0915B04CF
:100C3000EA0DFB1D608171814AE050E088E894E094
:100C40000E945F1A64E672E088E894E00E94A719A7
:100C50000E94FD1545E0BE016A5F7F4F8EE694E07D
:100C60000E94EF138823A1F360E272E088E894E029
:100C70000E94B41969E672E088E894E00E94A7191E
:100C8000E0915A04F0915B04EA0DFB1D60817181D3
:100C90004AE050E088E894E00E945F1A1AE2E12EF0
:100CA00003E2F02E00E010E020E030E040E050E011
:100CB00060E08EE694E00E947C148EE694E00E9450
:100CC000F41260E272E088E894E00E94B4196AE7E6
:100CD00072E088E894E00E94A719E0915A04F0912C
:100CE0005B04EA0DFB1D608171814AE050E088E8F9
:100CF00094E00E945F1A64E672E088E894E00E9443
:100D0000A7198EE694E00E94BC138823D1F345E036
:100D1000B6018EE694E00E94C01360E272E088E8BB
:100D200094E00E94B419B60188E894E00E94A719E3
:100D300060E272E088E894E00E94B4196AE872E028
:100D400088E894E00E94A719E0915A04F0915B04AE
:100D5000EA0DFB1D608171814AE050E088E894E073
:100D60000E945F1AF2E0AF0EB11C24E0A216B1049B
:100D700009F03ACF60E272E088E894E00E94B4198A
:100D800061EA72E07FC40E94B4196FEA72E088E8F9
:100D900094E00E94B419A9E2EA2EB3E2FB2E00E02F
:100DA00010E020E030E040E050E060E08EE694E0CB
:100DB0000E947C148EE694E00E94F41260E272E0DD
:100DC00088E894E00E94B4196AE772E088E894E049
:100DD0000E94A7194AE050E069E273E288E894E0D3
:100DE0000E945F1A64E672E088E894E00E94A71906
:100DF0008EE694E00E94BC138823D1F345E0B6014F
:100E00008EE694E00E94C01360E272E088E894E00D
:100E10000E94B419B60188E894E00E94A7191091C5
:100E2000080100910701712F770F770B272F372FBC
:100E3000472F572F672F8EE694E00E9440148EE6CE
:100E400094E00E942A1360E272E088E894E00E9435
:100E5000B41968E572E088E894E00E94A7194AE0B6
:100E600050E069E273E288E894E00E945F1A64E669
:100E700072E088E894E00E94A7190E94FD156B01BA
:100E8000E0EDCE1AEAE8DE0AEE24D7FCE094FE2C70
:100E900045E0BE016A5F7F4F8EE694E00E94EF134B
:100EA000811112C00E94FD15C616D706E806F90684
:100EB00078F7E0915A04F0915B046081718183E0DE
:100EC00090E00E94E202E4CF65E274E088E894E0FA
:100ED0000E94B41969E672E088E894E00E94A719BC
:100EE0004AE050E069E273E288E894E00E945F1A09
:100EF00065E274E088E894E00E94B4196FEB72E058
:100F0000C1C30E94B4196DEC72E088E894E00E94BD
:100F1000B419E9E2EE2EF3E2FF2E00E010E020E04B
:100F200030E040E050E060E08EE694E00E947C1407
:100F30008EE694E00E94F41260E272E088E894E0A9
:100F40000E94B4196AE772E088E894E00E94A71949
:100F5000E0915A04F0915B04608171814AE050E0B5
:100F600088E894E00E945F1A64E672E088E894E002
:100F70000E94A7198EE694E00E94BC138823D1F347
:100F800045E0B6018EE694E00E94C01360E272E094
:100F900088E894E00E94B419B60188E894E00E94C1
:100FA000A7191091080100910701712F770F770B96
:100FB000272F372F472F572F672F8EE694E00E9459
:100FC00040148EE694E00E942A1360E272E088E802
:100FD00094E00E94B41968E572E088E894E00E9409
:100FE000A719E0915A04F0915B04608171814AE095
:100FF00050E088E894E00E945F1A64E672E088E8B6
:1010000094E00E94A7190E94FD156B01F0EDCF1A24
:10101000FAE8DF0AEE24D7FCE094FE2C45E0BE019E
:101020006A5F7F4F8EE694E00E94EF13811112C039
:101030000E94FD15C616D706E806F90678F7E09176
:101040005A04F0915B046081718183E090E00E941A
:10105000E202E4CF65E274E088E894E00E94B4190B
:1010600069E672E088E894E00E94A719E0915A04CA
:10107000F0915B04608171814AE050E088E894E07F
:101080000E945F1A65E274E088E894E00E94B41957
:101090006DED72E0F7C20E94B4196BEE72E088E861
:1010A00094E00E94B41969E2E62E73E2F72E00E0A4
:1010B00010E020E030E040E050E060E08EE694E0B8
:1010C0000E947C148EE694E00E94F41260E272E0CA
:1010D00088E894E00E94B4196AE772E088E894E036
:1010E0000E94A7194AE050E069E273E288E894E0C0
:1010F0000E945F1A64E672E088E894E00E94A719F3
:101100008EE694E00E94BC138823D1F345E0B6013B
:101110008EE694E00E94C01360E272E088E894E0FA
:101120000E94B419B60188E894E00E94A7191091B2
:10113000080100910701712F770F770B272F372FA9
:10114000472F572F672F8EE694E00E9440148EE6BB
:1011500094E00E942A1360E272E088E894E00E9422
:10116000B41968E572E088E894E00E94A7194AE0A3
:1011700050E069E273E288E894E00E945F1A64E656
:1011800072E088E894E00E94A7190E94FD156B01A7
:1011900020EDC21A2AE8D20AEE24D7FCE094FE2CF5
:1011A00045E0BE016A5F7F4F8EE694E00E94EF1338
:1011B000811112C00E94FD15C616D706E806F90671
:1011C00078F7E0915A04F0915B046081718183E0CB
:1011D00090E00E94E202E4CF65E274E088E894E0E7
:1011E0000E94B41969E672E088E894E00E94A719A9
:1011F0004AE050E069E273E288E894E00E945F1AF6
:1012000065E274E088E894E00E94B4196BEF72E044
:1012100039C20E94B41969E073E088E894E00E9442
:10122000B41949E2E42E53E2F52E00E010E020E08C
:1012300030E040E050E060E08EE694E00E947C14F4
:101240008EE694E00E94F41260E272E088E894E096
:101250000E94B4196AE772E088E894E00E94A71936
:101260004AE050E069E273E288E894E00E945F1A85
:1012700064E672E088E894E00E94A7198EE694E0A4
:101280000E94BC138823D1F345E0B6018EE694E0BA
:101290000E94C01360E272E088E894E00E94B419F2
:1012A000B60188E894E00E94A71910910801009106
:1012B0000701712F770F770B272F372F472F572FC6
:1012C000672F8EE694E00E9440148EE694E00E9420
:1012D0002A1360E272E088E894E00E94B41968E59D
:1012E00072E088E894E00E94A7194AE050E069E2C1
:1012F00073E288E894E00E945F1A64E672E088E88E
:1013000094E00E94A7190E94FD156B01E0EDCE1A32
:10131000EAE8DE0AEE24D7FCE094FE2C45E0BE01AC
:101320006A5F7F4F8EE694E00E94EF13811112C036
:101330000E94FD15C616D706E806F90678F7E09173
:101340005A04F0915B046081718183E090E00E9417
:10135000E202E4CF65E274E088E894E00E94B41908
:1013600069E672E088E894E00E94A7194AE050E03C
:1013700069E273E288E894E00E945F1A65E274E033
:1013800088E894E00E94B41969E173E07BC10E948F
:10139000B41967E273E088E894E00E94B41929E286
:1013A000E22E33E2F32E00E010E020E030E040E0F7
:1013B00050E060E08EE694E00E947C148EE694E0BB
:1013C0000E94F41260E272E088E894E00E94B4198E
:1013D0006AE772E088E894E00E94A7194AE050E0CA
:1013E00069E273E288E894E00E945F1A64E672E0C2
:1013F00088E894E00E94A7198EE694E00E94BC134E
:101400008823D1F345E0B6018EE694E00E94C01334
:1014100060E272E088E894E00E94B419B60188E8BE
:1014200094E00E94A7191091080100910701712F03
:10143000770F770B272F372F472F572F672F8EE6E2
:1014400094E00E9440148EE694E00E942A1360E229
:1014500072E088E894E00E94B41968E572E088E8D8
:1014600094E00E94A7194AE050E069E273E288E83C
:1014700094E00E945F1A64E672E088E894E00E94BB
:10148000A7190E94FD156B01F0EDCF1AFAE8DF0AEB
:10149000EE24D7FCE094FE2C45E0BE016A5F7F4F4E
:1014A0008EE694E00E94EF13811112C00E94FD1598
:1014B000C616D706E806F90678F7E0915A04F091C7
:1014C0005B046081718183E090E00E94E202E4CFDE
:1014D00065E274E088E894E00E94B41969E672E07D
:1014E00088E894E00E94A7194AE050E069E273E2BC
:1014F00088E894E00E945F1A65E274E088E894E06E
:101500000E94B41967E373E0BDC00E94B41965E49A
:1015100073E088E894E00E94B41989E2E82E93E22F
:10152000F92E00E010E020E030E040E050E060E024
:101530008EE694E00E947C148EE694E00E94F41201
:1015400060E272E088E894E00E94B4196AE772E011
:1015500088E894E00E94A7194AE050E069E273E24B
:1015600088E894E00E945F1A64E672E088E894E0FC
:101570000E94A7198EE694E00E94BC138823D1F341
:1015800045E0B6018EE694E00E94C01360E272E08E
:1015900088E894E00E94B419B60188E894E00E94BB
:1015A000A7191091080100910701712F770F770B90
:1015B000272F372F472F572F672F8EE694E00E9453
:1015C00040148EE694E00E942A1360E272E088E8FC
:1015D00094E00E94B41968E572E088E894E00E9403
:1015E000A7194AE050E069E273E288E894E00E94BB
:1015F0005F1A64E672E088E894E00E94A7190E94EE
:10160000FD156B0120EDC21A2AE8D20AEE24D7FCA0
:10161000E094FE2C45E0BE016A5F7F4F8EE694E0C9
:101620000E94EF13811112C00E94FD15C616D70645
:10163000E806F90678F7E0915A04F0915B046081BE
:10164000718183E090E00E94E202E4CF65E274E001
:1016500088E894E00E94B41969E672E088E894E0B2
:101660000E94A7194AE050E069E273E288E894E03A
:101670000E945F1A65E274E088E894E00E94B41961
:1016800065E573E088E894E00E94B4192A960FB6E5
:10169000F894DEBF0FBECDBFDF91CF911F910F91A8
:1016A000FF90EF90DF90CF90BF90AF900895FB0137
:1016B000E952F342E730F105C0F4E55CFF4F0C94CA
:1016C0003D1D909349048093480490934704809370
:1016D000460490934504809344049093430480937C
:1016E000420490934104809340040895FB01E95221
:1016F000F342E730F10500F5EE5BFF4F0C943D1D22
:1017000090933F0480933E0490933D0480933C0467
:1017100090933B0480933A04909339048093380467
:101720009093370480933604909335048093340467
:101730009093330480933204089560E272E088E865
:1017400094E00E94B41968E673E088E894E00C9491
:10175000A719EF92FF920F931F93CF93DF9300D0BF
:10176000CDB7DEB71A82198242E0BE016F5F7F4FAC
:101770008EE694E00E94C01329813A81809107018E
:10178000909108012817390709F0D3C08EE694E03C
:101790000E94BC138823D1F31A82198242E0BE0151
:1017A0006F5F7F4F8EE694E00E94C01309811A811B
:1017B0008EE694E00E94BC138823D1F31A8219822A
:1017C00042E0BE016F5F7F4F8EE694E00E94C0133F
:1017D000E980FA8082E0E816F104B1F48EE694E044
:1017E0000E94BC138823D1F31A82198242E0BE0101
:1017F0006F5F7F4F8EE694E00E94C013B80189812D
:101800009A810E94760B89C081E0E816F104B1F458
:101810008EE694E00E94BC138823D1F31A821982C9
:1018200042E0BE016F5F7F4F8EE694E00E94C013DE
:10183000B80189819A810E94570B6FC083E0E81636
:10184000F10409F03FC08EE694E00E94BC138823A7
:10185000D1F31A82198242E0BE016F5F7F4F8EE69C
:1018600094E00E94C013B80189819A810E94570BAD
:101870008EE694E00E94BC138823D1F31A82198269
:1018800042E0BE016F5F7F4F8EE694E00E94C0137E
:10189000B80189819A810E94760B60E272E088E843
:1018A00094E00E94B41966E773E088E894E00E942F
:1018B000B41969817A814AE050E088E894E00E9496
:1018C000671A2BC084E0E816F104A9F48EE694E0D0
:1018D0000E94BC138823D1F31A82198242E0BE0110
:1018E0006F5F7F4F8EE694E00E94C01389819A81DA
:1018F0000E949D0B12C063E873E088E894E00E94A8
:10190000A7194AE050E0B70188E894E00E94671AFE
:10191000B80185E090E00E94E20260E272E088E8AF
:1019200094E00E94B4196BEA72E088E894E00E94A7
:10193000B4190F900F90DF91CF911F910F91FF90ED
:10194000EF900895EF92FF920F931F9326E040E8E7
:1019500055E260E070E088E894E00E9450188EE65E
:1019600094E00E94631568EC70E080E090E00E94D3
:101970002C168CE594E00E94910F60E082E00E94BA
:10198000D51660E083E00E94D51660E084E00E94F6
:10199000D51660E085E00E94D51661E087E00E94E0
:1019A000D51661E088E00E94D51661E088E00E94CB
:1019B0000E170E946A0280910701909108018F30F2
:1019C00027E2920719F0873293423CF460E070E01E
:1019D00081E090E00E94E20210C06AE873E088E8CB
:1019E00094E00E94B41960910701709108014AE0E7
:1019F00050E088E894E00E94671A0E94840168EE33
:101A000073E080E090E00E942C160E94B505E09102
:101A10005A04F0915B04F180E0805F2D550F550B67
:101A2000052F152F252F352F452F60E08EE694E0EA
:101A30000E947C14E0915A04F0915B04F380E280F0
:101A40005F2D550F550B052F152F252F352F452FA2
:101A500061E08EE694E00E947C14E0915A04F091DB
:101A60005B04F580E4805F2D550F550B052F152F76
:101A7000252F352F452F62E08EE694E00E947C14DE
:101A8000E0915A04F0915B04F780E6805F2D550FDA
:101A9000550B052F152F252F352F452F63E08EE68B
:101AA00094E00E947C14E0915A04F0915B04F1846C
:101AB000E0845F2D550F550B052F152F252F352F42
:101AC000452F64E08EE694E00E947C148EE694E05C
:101AD0001F910F91FF90EF900C94F412CF93DF932E
:101AE00000D000D000D0CDB7DEB760E088E00E9423
:101AF0000E170E94FD15609350047093510480935B
:101B000052049093530460934C0470934D0480935B
:101B10004E0490934F0400E010E00E94FD152091C8
:101B20004A0430914B044901AA2497FCA094BA2C92
:101B3000C0905004D0905104E0905204F0905304AF
:101B40008C0C9D1CAE1CBF1C86169706A806B906F9
:101B500008F089C010920601209107013091080118
:101B6000B801882777FD8095982F2932334209F4F0
:101B700048C00E94041C9B01AC0160915404709108
:101B8000550480915604909157040E94691B6093FC
:101B9000540470935504809356049093570465E25F
:101BA00074E0CE0101960E94ED1A60915404709188
:101BB000550480915604909157040E94D11BE091E6
:101BC0005804F091590403E010E09E012F5F3F4F4D
:101BD000AB01BF0189E293E20E94FA03CE010196B4
:101BE0000E947F1A109254041092550410925604C9
:101BF00010925704109259041092580400E010E01B
:101C000028C00E94041C9B01AC0160915404709197
:101C1000550480915604909157040E94691B0E94BC
:101C2000D11B7093490460934804809158049091AB
:101C3000590490933F0480933E04109254041092F0
:101C400055041092560410925704109259041092A1
:101C500058040E94FD1560935004709351048093C2
:101C600052049093530485E00E9444170197A9F40D
:101C700064EC79E080E090E00E942C1667E973E064
:101C800088E894E00E94B419809158049091590416
:101C9000019690935904809358040E94FD15C090BA
:101CA0004C04D0904D04E0904E04F0904F042CEA88
:101CB000C20E2DE0D21EE11CF11CC616D706E806A6
:101CC000F906F0F540E061E08CE594E00E94E31055
:101CD0000E94D11B882777FD8095982F0E94041CB5
:101CE0006B017C019B01AC0160915404709155041F
:101CF00080915604909157040E94051B60935404F0
:101D0000709355048093560490935704A70196014D
:101D1000C701B6010E94171D882331F060E070E012
:101D200086E090E00E94E2020F5F1F4F0E94FD15C7
:101D300060934C0470934D0480934E0490934F0431
:101D40008EE694E00E94BC13882309F4E6CE0E943C
:101D5000A90B80910701909108018932934209F003
:101D6000DCCE6FE172E088E894E00E94B4196EE97D
:101D700073E088E894E00E94A71960913E04709196
:101D80003F044AE050E088E894E00E94671A6FEA56
:101D900073E088E894E00E94A7196091480470916C
:101DA00049044AE050E088E894E00E94671A6FE135
:101DB00072E088E894E00E94B41965EC73E088E86A
:101DC00094E00E94A71960913C0470913D044AE0A0
:101DD00050E088E894E00E94671A66ED73E088E8B6
:101DE00094E00E94A71960914604709147044AE06C
:101DF00050E088E894E00E94671A6FE172E088E89A
:101E000094E00E94B4196CEE73E088E894E00E94BC
:101E1000A71960913A0470913B044AE050E088E8C9
:101E200094E00E94671A6DEF73E088E894E00E94E6
:101E3000A71960914404709145044AE050E088E895
:101E400094E00E94671A69CE4AE069E08EE694E069
:101E50000E94DA1226E04BE066E08CE594E00E94F6
:101E6000700F8AE090E00E94671990935B04809362
:101E70005A040895CF93CFB7F89480917E048111CE
:101E800027C0E7E8F2E08491E3E7F2E09491E82FDD
:101E9000F0E0EE0FFF1FEB55FD4FA591B4918C9133
:101EA000892321F461E08AE00E940E1761E08AE054
:101EB0000E94D5168CB580618CBD8CB580648CBDBC
:101EC00061E08DE00E94D51661E08BE00E94D5169E
:101ED00080917E048F5F80937E04CFBFCF91089561
:101EE000DC0115966C93159716964C93169770E037
:101EF000FB01E759FD4FE4911796EC931797FB010F
:101F0000E358FD4F649118966C93189740E85EE390
:101F100060E070E01D964D935D936D937C935097B8
:101F20000895CF93DF93EC0162E08D810E94D51676
:101F300040E358EF6FEF7FEF49875A876B877C87C5
:101F4000DF91CF910895AF92BF92CF92DF92EF923F
:101F5000FF920F931F93CF93DF93EC01AF80662323
:101F600011F0BA2C01C0B12CA885B0E0AA0FBB1F9C
:101F7000AF56BD4F40E050E0BA01FD01859194910C
:101F8000FC0180818A218B1112C08A019B010F5FA5
:101F90001F4F2F4F3F4FCD84DE84EF84F8884C15C0
:101FA0005D056E057F0538F4B901A801E6CF342F31
:101FB000252FCB0104C030E020E080E090E0632FCB
:101FC000722FDF91CF911F910F91FF90EF90DF90D3
:101FD000CF90BF90AF900895CF92DF92EF92FF9293
:101FE0000F931F93CF93DF93CDB7DEB7C054D1408B
:101FF0000FB6F894DEBF0FBECDBF8C01F62E0E9447
:10200000FD15F11016C0F801C184D284E384F48474
:102010009B01AC012C193D094E095F0969017A0148
:1020200030EDC31637E0D306E104F10410F48189E2
:10203000BAC0F801618772878387948714821382FC
:1020400012821182108261E085810E940E176AEF70
:1020500070E080E090E00E942C1661E0F80185813C
:102060000E94D51660E0F80185810E940E1764E198
:1020700070E080E090E00E942C16F89461E0F80196
:1020800085810E940E1788E290E00E94661662E049
:10209000F80185810E94D5168AE090E00E946616BC
:1020A00060E0C8010E94A30F672B682B692B41F0E9
:1020B00061E0C8010E94A30F672B682B692B21F4F4
:1020C000F801118A78946EC06E01FFEBCF1AFEEF13
:1020D000DF0A9E012F5F3F4F790160E0C8010E9437
:1020E000A30FF701608371838283938361E0C8014A
:1020F0000E94A30FF7016483758386839783F8E0BA
:10210000EF0EF11CEC14FD0441F778949E012F5F53
:102110003F4F790120E030E0F70140815181628139
:10212000738184819581A681B7814115510561052F
:102130007105B1F10097A105B10591F1F901F5958E
:10214000E795F595E795F595E795E00FF11FD080B8
:10215000DD0C481759076A077B0710F0D08203C0CF
:102160008D2D816080832F5F3F4FF8E0EF0EF11CD3
:102170002832310589F6F801248130E040818181DF
:1021800090E0840F911D4281840F911D4381840F43
:10219000911D99272817390719F481E0818B03C015
:1021A000F801118A80E0C05CDE4F0FB6F894DEBF04
:1021B0000FBECDBFDF91CF911F910F91FF90EF9098
:1021C000DF90CF900895CF92DF92EF92FF920F931E
:1021D0001F93CF93DF93EC01162F642F0E94EC0F17
:1021E000882309F443C08E818B3031F008F43EC05F
:1021F0008551823040F03AC06A8170E080E090E022
:102200000E94021C24C00A81602F6F7770E080E07A
:1022100090E00E94041C20E030E040E853E40E947B
:10222000B41C6B017C016B8170E080E090E00E9447
:10223000041C9B01AC01C701B6010E94051B2DECDB
:102240003CEC4CEC5DE30E94B41C07FD905811235C
:1022500089F026E636E646EE5FE30E94B41C20E0F5
:1022600030E040E052E40E94051B04C060E070E0F2
:1022700080EC9FE7DF91CF911F910F91FF90EF903E
:10228000DF90CF9008958EBD00000DB407FEFDCF06
:102290008EB508952CB52F7D2CBD2CB5237F2CBD7C
:1022A0002CB52C7F2CBD2DB52E7F2DBDFC01818141
:1022B0000C940E17FC0180810C940E17CF92DF92C4
:1022C000EF92FF920F931F93CF93DF9300D0CDB780
:1022D000DEB78C01E62EF22E60E070E049835A836F
:1022E0000E944A118E2D8F710E944311E82E498160
:1022F000C42E5A81D52EF40EFC1439F08FEF0E94B3
:102300004311F60181936F01F7CF61E070E0C801DE
:102310000E944A118E2D0F900F90DF91CF911F9147
:102320000F91FF90EF90DF90CF9008951F93CF9380
:10233000DF93EC01162F60E070E00E944A11812FBC
:102340008F710E9443118FEF0E944311182F61E09B
:1023500070E0CE010E944A11812FDF91CF911F9131
:102360000895CF92DF92EF92FF920F931F93CF9336
:10237000DF9300D0CDB7DEB78C01E62EF22E60E001
:1023800070E049835A830E944A118E2D8F718062BA
:102390000E944311E82E4981C42E5A81D52EF40E95
:1023A000FC1431F0F60181916F010E944311F8CFC6
:1023B00061E070E0C8010E944A118E2D0F900F90CD
:1023C000DF91CF911F910F91FF90EF90DF90CF9011
:1023D0000895EF92FF921F93CF93DF931F92CDB793
:1023E000DEB77C01162F60E070E049830E944A113D
:1023F000812F8F7180620E944311182F4981842F91
:102400000E94431161E070E0C7010E944A11812FD0
:102410000F90DF91CF911F91FF90EF900895BF92A1
:10242000CF92DF92EF92FF920F931F93CF93DF93A0
:102430008C01D62EB72EFC01C481F42EC41708F4EB
:10244000FC2EF8018681811103C0EC2EEF1801C02B
:10245000E12C60E070E0C8010E944A1180EA0E940D
:102460004311C82ECD2DDB2DFD0CFC1621F08991DA
:102470000E944311FACFCE2DCC2329F080E00E9498
:102480004311C150F9CF61E070E0C8010E944A11C8
:102490008C2DDF91CF911F910F91FF90EF90DF90E6
:1024A000CF90BF900895BF92CF92DF92EF92FF92AC
:1024B0000F931F93CF93DF938C01D62EB72EFC0181
:1024C000C481F42EC41708F4FC2EF8018681811112
:1024D00003C0EC2EEF1801C0E12C60E070E0C801F1
:1024E0000E944A1181E60E944311C82ECD2DDB2D9A
:1024F000FD0CFC1629F08FEF0E9443118993F9CF50
:10250000CE2DCC2329F08FEF0E944311C150F9CF7B
:1025100061E070E0C8010E944A118C2DDF91CF91DB
:102520001F910F91FF90EF90DF90CF90BF90089593
:102530001F93CF93DF93EC0160E070E00E944A119B
:1025400082EE0E944311182F61E070E0CE010E94DC
:102550004A11812FDF91CF911F9108951F93CF933F
:10256000DF93EC0160E070E00E944A1181EE0E946E
:102570004311182F61E070E0CE010E944A11812FB3
:10258000DF91CF911F9108951F93CF93DF93EC01BB
:1025900060E070E00E944A118FEF0E944311182FF3
:1025A00061E070E0CE010E944A11812FDF91CF914E
:1025B0001F910895FC016083418381E0828313822F
:1025C00080E2848315821682108611861286138615
:1025D00014861586168617860895462F603808F0EB
:1025E0004FE765E00C94E911CF93DF93EC0160E0D5
:1025F0000E949611482F436060E0CE010E94E911CD
:1026000040E767E0CE010E94E911288539854A85B7
:102610005B856C857D858E859F85A0E00E94431D2E
:1026200041F025E0AE01485F5F4F6AE0CE010E94B5
:10263000B111CE010E949812CE010E94AE1261E04B
:1026400070E0CE010E945A1182E890E0DF91CF91B4
:102650000C946616CF93DF93EC0160E070E00E946B
:102660005A11CE010E94AE12CE01DF91CF910C948F
:102670009812CF93DF93EC0160E00E949611482FEF
:102680004D7F60E0CE01DF91CF910C94E911FF9274
:102690000F931F93CF93DF93EC018B01F42E60E037
:1026A0000E949611482F4C7F426060E0CE010E944C
:1026B000E91186E990E00E9466164F2DB801CE011F
:1026C0000E940F1261E070E0CE010E945A118FE06B
:1026D00090E00E94661660E070E0CE01DF91CF913D
:1026E0001F910F91FF900C945A111F93CF93DF937A
:1026F000EC0160E070E00E944A1180E60E94431104
:102700008FEF0E944311182F61E070E0CE010E940C
:102710004A11812FDF91CF911F910895EF92FF927F
:102720000F931F93CF93DF93EC018B010E94C41290
:10273000F82E86FBEE24E0F886FF16C00115110581
:1027400039F0282F30E0359527952770F801208340
:1027500040E467E0CE010E94E911F5FE05C040E2C9
:1027600067E0CE010E94E9118E2DDF91CF911F917C
:102770000F91FF90EF90089560E070E00C948E133D
:10278000CF93DF93EC010E94531267E1CE010E94C8
:1027900096118170DF91CF910895EF92FF920F9380
:1027A0001F93CF93DF93EB018A01790140E767E044
:1027B0000E94E91185FB992790F9988384FB99275A
:1027C00090F9F801908386FB882780F9F7018083D0
:1027D000DF91CF911F910F91FF90EF900895CF92CD
:1027E000DF92EF92FF920F931F93CF93DF9300D06E
:1027F0001F92CDB7DEB78C010E9447130E94FD15D2
:102800006B017C0121E0AE014D5F5F4F68E0C801C4
:102810000E945E11807359F40E94FD156C197D09A8
:102820008E099F09643F71408105910558F3980115
:102830002B5F3F4FAE014F5F5F4FBE016E5F7F4F1B
:10284000C8010E94CD13FA80F8018581882329F000
:10285000C8010E947513F8018783C8010E943913CB
:10286000C8010E94AE128F2D0F900F900F90DF9134
:10287000CF911F910F91FF90EF90DF90CF9008952F
:10288000EF92FF920F931F93CF93DF93CDB7DEB7F5
:1028900028970FB6F894DEBF0FBECDBF7C01098329
:1028A0001A832B833C834D835E836F83788725E077
:1028B000AE014F5F5F4F6AE00E94B11125E0AE01AB
:1028C0004F5F5F4F60E1C7010E94B111F701448182
:1028D000413208F040E261E1C7010E94E911289607
:1028E0000FB6F894DEBF0FBECDBFDF91CF911F9121
:1028F0000F91FF90EF900895BF92CF92DF92EF92E9
:10290000FF920F931F93CF93DF93CDB7DEB7289736
:102910000FB6F894DEBF0FBECDBF6C01B62EE982B4
:10292000FA820B831C832D833E834F83588761116A
:102930000AC0F601E086F18602871387248735876F
:102940004687578707C0F6E0F61708F435C081E0E0
:10295000681307C0EB2DF0E0E552FE4F649125E0CF
:1029600006C0E62FF0E0E552FE4F649121E0AE0193
:102970004F5F5F4FC6010E94B1110B2D10E0F801AF
:10298000EB52FE4F6491F6014481C6010E94E911A9
:1029900062E0C6010E949611F801E153FE4F0491D6
:1029A00021E030E001C0220F0A95EAF7822B482F80
:1029B00062E0C6010E94E91128960FB6F894DEBFC6
:1029C0000FBECDBFDF91CF911F910F91FF90EF9080
:1029D000DF90CF90BF9008950F931F93CF93DF9315
:1029E0008C01EB0166E00E949611482F497FC330AD
:1029F000D10561F0C230D10511F4446008C0C13086
:102A0000D10511F4426003C0249709F4466066E0E2
:102A1000C801DF91CF911F910F910C94E911EF92B2
:102A2000FF920F931F93CF93DF931F92CDB7DEB723
:102A30007C018B0166E00E949611F7011282282F1B
:102A4000277D0230110511F4206207C00130110505
:102A500021F481E0F70182832860422F66E0C701FC
:102A600029830E94E91166E0C7010E94961129811D
:102A7000821721F0F701128280E001C081E00F90FF
:102A8000DF91CF911F910F91FF90EF9008950F93D9
:102A90001F93CF93DF93EC018B0160E00E949611AE
:102AA000482F437F0115110531F00130110511F454
:102AB000486001C04C6060E0CE01DF91CF911F9172
:102AC0000F910C94E911CF93DF93EC0161E08881C1
:102AD0000E94D51661E089810E94D5160E943A0FA6
:102AE00060E070E0CE010E945A1161E070E0CE011A
:102AF0000E944A1165E070E080E090E00E942C1690
:102B00004FE464E0CE010E94E91163E070E0CE0181
:102B10000E94EC1462E070E0CE010E940F15882341
:102B200011F081E08B8360E070E0CE010E940F1510
:102B300062E070E0CE010E94471540E06CE1CE01FA
:102B40000E94E91140E767E0CE010E94E9116CE4C0
:102B5000CE010E94ED12CE010E949812CE01DF91AB
:102B6000CF910C94AE121F920F920FB60F921124B8
:102B70002F933F938F939F93AF93BF938091800444
:102B800090918104A0918204B091830430917F04DC
:102B900023E0230F2D3720F40196A11DB11D05C0A0
:102BA00026E8230F0296A11DB11D20937F04809378
:102BB000800490938104A0938204B0938304809155
:102BC000840490918504A0918604B09187040196B5
:102BD000A11DB11D8093840490938504A093860465
:102BE000B0938704BF91AF919F918F913F912F91A7
:102BF0000F900FBE0F901F9018952FB7F89460910B
:102C000080047091810480918204909183042FBF8D
:102C100008953FB7F8948091840490918504A09121
:102C20008604B091870426B5A89B05C02F3F19F0F4
:102C30000196A11DB11D3FBF6627782F892F9A2FBE
:102C4000620F711D811D911D42E0660F771F881F65
:102C5000991F4A95D1F708958F929F92AF92BF9294
:102C6000CF92DF92EF92FF926B017C010E940916D6
:102C70004B015C01C114D104E104F104F1F00E94A4
:102C8000031B0E940916681979098A099B09683E85
:102C900073408105910570F321E0C21AD108E10863
:102CA000F10888EE880E83E0981EA11CB11CC114A7
:102CB000D104E104F10429F7DDCFFF90EF90DF901C
:102CC000CF90BF90AF909F908F90089582309105E4
:102CD00038F0880F991F880F991F05970197F1F712
:102CE0000895789484B5826084BD84B5816084BD84
:102CF00085B5826085BD85B5816085BDEEE6F0E075
:102D0000808181608083E1E8F0E0108280818260D0
:102D10008083808181608083E0E8F0E08081816051
:102D20008083E1EBF0E0808184608083E0EBF0E081
:102D3000808181608083EAE7F0E080818460808325
:102D400080818260808380818160808380818068CF
:102D500080831092C1000895833081F028F481307F
:102D600099F08230A1F008958730A9F08830B9F049
:102D70008430D1F4809180008F7D03C080918000E9
:102D80008F7780938000089584B58F7702C084B5D3
:102D90008F7D84BD08958091B0008F7703C08091AE
:102DA000B0008F7D8093B0000895CF93DF9390E0C3
:102DB000FC01E759FD4F2491FC01E358FD4F84913C
:102DC000882349F190E0880F991FFC01EB55FD4FD6
:102DD000A591B49185569D4FFC01C591D4919FB7A3
:102DE000611108C0F8948C91209582238C9388817E
:102DF00082230AC0623051F4F8948C91322F3095BE
:102E000083238C938881822B888304C0F8948C91CF
:102E1000822B8C939FBFDF91CF9108950F931F93C7
:102E2000CF93DF931F92CDB7DEB7282F30E0F901A3
:102E3000EB5AFD4F8491F901E759FD4F1491F901C7
:102E4000E358FD4F04910023C9F0882321F06983E2
:102E50000E94AC166981E02FF0E0EE0FFF1FE556EF
:102E6000FD4FA591B4919FB7F8948C91611103C067
:102E70001095812301C0812B8C939FBF0F90DF9110
:102E8000CF911F910F910895CF93DF93282F30E0BA
:102E9000F901EB5AFD4F8491F901E759FD4FD491A7
:102EA000F901E358FD4FC491CC2391F081110E94A8
:102EB000AC16EC2FF0E0EE0FFF1FEF56FD4FA59183
:102EC000B4912C912D2381E090E021F480E002C0A8
:102ED00080E090E0DF91CF910895FC01818D228DFB
:102EE00090E0805C9F4F821B91098F739927089512
:102EF000FC01918D828D981731F0828DE80FF11DC4
:102F0000858D90E008958FEF9FEF0895FC01918DDE
:102F1000828D981761F0828DDF01A80FB11D5D963B
:102F20008C91928D9F5F9F73928F90E008958FEFA9
:102F30009FEF08958AE099E1892B49F080E090E0C5
:102F4000892B29F00E940A1981110C940000089520
:102F5000FC01848DDF01A80FB11DA35ABF4F2C9136
:102F6000848D90E001968F739927848FA689B78905
:102F70002C93A089B1898C9180648C93938D848DDE
:102F8000981306C00288F389E02D80818F7D8083AD
:102F90000895CF93DF93EC01888D8823C9F0EA89E7
:102FA000FB89808185FD05C0A889B9898C9186FD42
:102FB0000FC00FB607FCF5CF808185FFF2CFA8893F
:102FC000B9898C9185FFEDCFCE010E94A817E7CF7C
:102FD000DF91CF910895CF92DF92FF920F931F93CD
:102FE000CF93DF931F92CDB7DEB76C0181E0D6019E
:102FF00058968C9358975B969C915B975C968C91B6
:103000005C97981307C05096ED91FC915197808181
:1030100085FD2EC0F601038D10E00F5F1F4F0F736B
:103020001127F02EF601848DF81211C00FB607FC9F
:10303000F9CFD6015096ED91FC915197808185FF93
:10304000F1CFC60169830E94A8176981EBCF838DF8
:10305000E80FF11DE35AFF4F6083D6015B960C9396
:103060005B975296ED91FC915397808180620CC0E2
:10307000D6015696ED91FC91579760835096ED914D
:10308000FC91519780818064808381E090E00F9073
:10309000DF91CF911F910F91FF90DF90CF90089516
:1030A000BF92CF92DF92EF92FF92CF93DF93EC012A
:1030B0006A017B01B22EE889F98982E0808341159B
:1030C00081EE580761057105A1F060E079E08DE3BC
:1030D00090E0A70196010E941B1D21503109410972
:1030E00051095695479537952795211580E1380761
:1030F00098F0E889F989108260E874E88EE190E040
:10310000A70196010E941B1D215031094109510957
:103110005695479537952795EC85FD853083EE8547
:10312000FF852083188EEC89FD89B082EA89FB89AE
:10313000808180618083EA89FB89808188608083C7
:10314000EA89FB89808180688083EA89FB898081A4
:103150008F7D8083DF91CF91FF90EF90DF90CF90B4
:10316000BF9008951F920F920FB60F9211242F93C4
:103170008F939F93EF93FF93E0919804F0919904BC
:103180008081E0919E04F0919F0482FD12C09081A5
:103190008091A1048F5F8F732091A204821751F058
:1031A000E091A104F0E0E857FB4F958F8093A104D4
:1031B00001C08081FF91EF919F918F912F910F908E
:1031C0000FBE0F901F9018951F920F920FB60F927F
:1031D00011242F933F934F935F936F937F938F931C
:1031E0009F93AF93BF93EF93FF9388E894E00E947F
:1031F000A817FF91EF91BF91AF919F918F917F9110
:103200006F915F914F913F912F910F900FBE0F9053
:103210001F90189588E894E00E946D1721E0892B93
:1032200009F420E0822F089510928B0410928A04F2
:1032300088EE93E0A0E0B0E080938C0490938D043E
:10324000A0938E04B0938F0487E194E09093890457
:103250008093880485EC90E0909395048093940487
:1032600084EC90E0909397048093960480EC90E037
:10327000909399048093980481EC90E090939B0440
:1032800080939A0482EC90E090939D0480939C0438
:1032900086EC90E090939F0480939E041092A1048A
:1032A0001092A2041092A3041092A4040895089509
:1032B0000E9471160E9457190E94A20CCAE9D7E118
:1032C0000E946E0D2097E1F30E949A17F9CF0C949B
:1032D0004F1DCF92DF92EF92FF920F931F93CF93E8
:1032E000DF937C016A01EB0100E010E00C151D0585
:1032F00071F06991D701ED91FC910190F081E02D81
:10330000C7010995892B19F00F5F1F4FEFCFC80137
:10331000DF91CF911F910F91FF90EF90DF90CF90B1
:1033200008956115710581F0DB010D900020E9F72A
:10333000AD0141505109461B570BDC01ED91FC9149
:103340000280F381E02D099480E090E008950C94D0
:103350009119DC01ED91FC910190F081E02D09942F
:1033600063E274E00C9491190F931F93CF93DF9352
:10337000EC010E9491198C01CE010E94B019800FBE
:10338000911FDF91CF911F910F9108958F929F927E
:10339000AF92BF92DF92EF92FF920F931F93CF9362
:1033A000DF93CDB7DEB7A1970FB6F894DEBF0FBE9F
:1033B000CDBF7C01F42FD52ECB0119A2223008F409
:1033C0002AE08E010F5D1F4F822E912CA12CB12C73
:1033D0006F2F7D2DA50194010E941B1DF22FD32E6E
:1033E000CA01015011096A3014F4E0E301C0E7E3B7
:1033F000E60FD801EC93232B242B252B49F7B8019A
:10340000C7010E949119A1960FB6F894DEBF0FBEB6
:10341000CDBFDF91CF911F910F91FF90EF90DF9083
:10342000BF90AF909F908F900895CF92DF92EF92D0
:10343000FF920F931F93CF93DF93EC016A017B01FF
:103440002115310579F4E881F9810190F081E02DB1
:10345000642FDF91CF911F910F91FF90EF90DF903C
:10346000CF9009942A303105E9F477FF1AC06DE254
:103470000E94A9198C0144275527BA014C195D09EE
:103480006E097F092AE0CE010E94C619800F911FA4
:10349000DF91CF911F910F91FF90EF90DF90CF9030
:1034A00008952AE0B701A601CE01DF91CF911F91C7
:1034B0000F91FF90EF90DF90CF900C94C6199A0176
:1034C000AB01662757FD6095762F0C94151A0F9364
:1034D0001F93CF93DF93EC019A01AB01662757FD51
:1034E0006095762F0E94151A8C01CE010E94B019AA
:1034F000800F911FDF91CF911F910F910895FC01D3
:10350000808191810C94E71DCF93DF93EC0188813A
:103510009981009711F00E94E71D198218821D827F
:103520001C821B821A82DF91CF9108950F931F9303
:10353000CF93DF93EC018B016F5F7F4F888199817F
:103540000E94761E009731F0998388831B830A833B
:1035500081E001C080E0DF91CF911F910F9108952C
:10356000CF93DF93EC0188819981892B29F08A819F
:103570009B818617970760F4CE010E94961A8823D4
:1035800041F08C819D81892B19F4E881F9811082A9
:1035900081E0DF91CF910895EF92FF920F931F93F7
:1035A000CF93DF93EC017B018A01BA010E94B01A2C
:1035B000811104C0CE010E94841A07C01D830C83B0
:1035C000B701888199810E94491FCE01DF91CF9177
:1035D0001F910F91FF90EF900895FC0111821082CE
:1035E00013821282158214826115710559F0FB0154
:1035F00001900020E9F7AF0141505109461B570BDC
:103600000C94CC1A089508955058BB27AA270ED0C1
:1036100071C162D130F067D120F031F49F3F11F4D5
:103620001EF457C10EF4E095E7FB4DC1E92F73D1AD
:1036300080F3BA17620773078407950718F071F4CF
:103640009EF58BC10EF4E0950B2EBA2FA02D0B0129
:10365000B90190010C01CA01A0011124FF27591BD7
:1036600099F0593F50F4503E68F11A16F040A22FDD
:10367000232F342F4427585FF3CF4695379527954E
:10368000A795F0405395C9F77EF41F16BA0B620B4D
:10369000730B840BBAF09150A1F0FF0FBB1F661F94
:1036A000771F881FC2F70EC0BA0F621F731F841FD7
:1036B00048F4879577956795B795F7959E3F08F0FD
:1036C000B3CF9395880F08F09927EE0F97958795BC
:1036D00008950CD00FC107D140F0FED030F021F496
:1036E0005F3F19F0F0C0511139C1F3C014D198F304
:1036F0009923C9F35523B1F3951B550BBB27AA2773
:1037000062177307840738F09F5F5F4F220F331FE4
:10371000441FAA1FA9F333D00E2E3AF0E0E830D0B0
:1037200091505040E695001CCAF729D0FE2F27D0B3
:10373000660F771F881FBB1F261737074807AB0781
:10374000B0E809F0BB0B802DBF01FF2793585F4FF6
:103750002AF09E3F510568F0B6C000C15F3FECF310
:10376000983EDCF3869577956795B795F7959F5FBB
:10377000C9F7880F911D9695879597F90895E1E00F
:10378000660F771F881FBB1F621773078407BA076E
:1037900020F0621B730B840BBA0BEE1F88F7E095C9
:1037A000089504D06894B111D9C00895BCD088F0B0
:1037B0009F5790F0B92F9927B751A0F0D1F0660F1D
:1037C000771F881F991F1AF0BA95C9F712C0B13038
:1037D00081F0C3D0B1E00895C0C0672F782F88274B
:1037E000B85F39F0B93FCCF3869577956795B39577
:1037F000D9F73EF490958095709561957F4F8F4FE6
:103800009F4F0895E89409C097FB3EF490958095EA
:10381000709561957F4F8F4F9F4F9923A9F0F92F96
:1038200096E9BB279395F695879577956795B79514
:10383000F111F8CFFAF4BB0F11F460FF1BC06F5FFA
:103840007F4F8F4F9F4F16C0882311F096E911C00C
:10385000772321F09EE8872F762F05C0662371F02D
:1038600096E8862F70E060E02AF09A95660F771F41
:10387000881FDAF7880F9695879597F90895990F1D
:103880000008550FAA0BE0E8FEEF16161706E8072A
:10389000F907C0F012161306E407F50798F0621B4B
:1038A000730B840B950B39F40A2661F0232B242B20
:1038B000252B21F408950A2609F4A140A6958FEF3F
:1038C000811D811D089597F99F6780E870E060E091
:1038D00008959FEF80EC089500240A9416161706A9
:1038E00018060906089500240A94121613061406F1
:1038F00005060895092E0394000C11F4882352F054
:10390000BB0F40F4BF2B11F460FF04C06F5F7F4F0B
:103910008F4F9F4F089557FD9058440F551F59F0F2
:103920005F3F71F04795880F97FB991F61F09F3FAC
:1039300079F087950895121613061406551FF2CFD5
:103940004695F1DF08C0161617061806991FF1CF25
:1039500086957105610508940895E894BB2766274C
:103960007727CB0197F908950BD0C4CFB5DF28F0A6
:10397000BADF18F0952309F0A6CFABCF1124EECF14
:10398000CADFA0F3959FD1F3950F50E0551F629FBA
:10399000F001729FBB27F00DB11D639FAA27F00DA8
:1039A000B11DAA1F649F6627B00DA11D661F829FCF
:1039B0002227B00DA11D621F739FB00DA11D621FB4
:1039C000839FA00D611D221F749F3327A00D611DD1
:1039D000231F849F600D211D822F762F6A2F1124B3
:1039E0009F5750408AF0E1F088234AF0EE0FFF1F06
:1039F000BB1F661F771F881F91505040A9F79E3F3D
:103A0000510570F060CFAACF5F3FECF3983EDCF336
:103A1000869577956795B795F795E7959F5FC1F779
:103A2000FE2B880F911D9695879597F9089527DFAE
:103A3000880B990B0895A1E21A2EAA1BBB1BFD014E
:103A40000DC0AA1FBB1FEE1FFF1FA217B307E4077D
:103A5000F50720F0A21BB30BE40BF50B661F771FD5
:103A6000881F991F1A9469F76095709580959095B5
:103A70009B01AC01BD01CF010895EE0FFF1F059022
:103A8000F491E02D09940024A7FD00942A17300535
:103A90004005500560057005800590050895CF9399
:103AA000DF938230910510F482E090E0E0912705E9
:103AB000F091280520E030E0A0E0B0E0309739F147
:103AC0004081518148175907B8F04817590771F4D8
:103AD00082819381109729F013969C938E9312976D
:103AE0002CC0909328058093270527C02115310508
:103AF00031F04217530718F0A901DB0101C0EF01B3
:103B00009A01BD01DF010280F381E02DD7CF21159D
:103B10003105F9F0281B390B2430310580F48A81F6
:103B20009B816115710521F0FB019383828304C0A1
:103B30009093280580932705FE01329644C0FE012C
:103B4000E20FF31F81939193225031093983288327
:103B50003AC02091250530912605232B41F4209170
:103B60000201309103013093260520932505209111
:103B70000001309101012115310541F42DB73EB707
:103B80004091040150910501241B350BE09125055E
:103B9000F0912605E217F307A0F42E1B3F0B281720
:103BA000390778F0AC014E5F5F4F2417350748F0B6
:103BB0004E0F5F1F509326054093250581939193E7
:103BC00002C0E0E0F0E0CF01DF91CF910895CF9304
:103BD000DF93009709F487C0FC01329713821282A9
:103BE000C0912705D0912805209781F4208131814B
:103BF000280F391F8091250590912605821793077C
:103C000079F5F0932605E09325056DC0DE0120E0EF
:103C100030E0AE17BF0750F412964D915C911397A8
:103C20009D014115510509F1DA01F3CFB383A28358
:103C300040815181840F951F8A179B0771F48D91E4
:103C40009C911197840F951F029691838083129601
:103C50008D919C911397938382832115310529F4CB
:103C6000F0932805E09327053EC0D9011396FC93F5
:103C7000EE9312974D915D91A40FB51FEA17FB07C4
:103C800079F480819181840F951F0296D901119654
:103C90009C938E938281938113969C938E9312971B
:103CA000E0E0F0E08A819B81009719F0FE01EC01D1
:103CB000F9CFCE01029628813981820F931F20917E
:103CC0002505309126052817390769F4309729F41E
:103CD000109228051092270502C013821282D093F9
:103CE0002605C0932505DF91CF910895A0E0B0E0AF
:103CF000ECE7FEE10C94541FEC01CB01209719F482
:103D00000E944F1DB8C0FE01E60FF71F9E01225012
:103D10003109E217F30708F4ACC0D9010D911C91E9
:103D2000119706171707B8F00530110508F49FC062
:103D3000A801445051094617570708F498C002508B
:103D40001109061B170B019311936D937C93CF01FF
:103D50000E94E71D8CC05B01A01AB10A4E01800EC3
:103D6000911EA0912705B0912805612C712C60E06F
:103D700070E0109709F449C0A815B905C9F5ED9090
:103D8000FC901197670142E0C40ED11CCA14DB04F9
:103D900078F147018A189B08640142E0C40ED11CE7
:103DA0001296BC9012971396AC91B5E0CB16D10445
:103DB00040F0B282A38391828082D9018D939C933B
:103DC00009C00E5F1F4F0E0D1F1DF90111830083E7
:103DD000EB2DFA2F6115710531F0DB011396FC9381
:103DE000EE93129744C0F0932805E09327053FC057
:103DF0006D917C9111976616770608F43B01BD0121
:103E000012960D90BC91A02DB4CF609125057091B4
:103E1000260568157905E9F468167906D0F440910D
:103E20000001509101014115510541F44DB75EB7B4
:103E30006091040170910501461B570BE417F507CB
:103E4000C0F4F0932605E0932505F9019183808362
:103E50000EC00E944F1D7C01009759F0A801BE01C1
:103E60000E94401FCE010E94E71DC70104C0CE0181
:103E700002C080E090E0CDB7DEB7EEE00C94701F9A
:103E8000FB01DC0102C001900D9241505040D8F777
:103E90000895FB01DC0101900D920020E1F70895E7
:103EA0002F923F924F925F926F927F928F929F924A
:103EB000AF92BF92CF92DF92EF92FF920F931F9338
:103EC000CF93DF93CDB7DEB7CA1BDB0B0FB6F894E9
:103ED000DEBF0FBECDBF09942A88398848885F8429
:103EE0006E847D848C849B84AA84B984C884DF809A
:103EF000EE80FD800C811B81AA81B981CE0FD11D7E
:103F00000FB6F894DEBF0FBECDBFED010895F89453
:023F1000FFCFE1
:103F1200000029058000010F274552524F522030E0
:103F2200303121212053746174696F6E20616464A1
:103F320072657373206E6F74207365742100506C08
:103F420065617365207265737461727421004552F4
:103F5200524F522030303221212050495220736575
:103F62006E736F72206E6F7420666F756E642100BF
:103F7200506C6561736520636865636B20636F6E67
:103F82006E656374696F6E20616E6420726573740E
:103F920061727421004552524F5220303033212138
:103FA200204D657373616765206E6F742073656E53
:103FB2007420746F20004552524F52203030342109
:103FC20021204973737565207769746820636F6473
:103FD20065004552524F5220303035212120537412
:103FE2006174696F6E200020646964206E6F7420B2
:103FF200736574206D65737361676520747970658C
:104002002121004552524F52203030362121204684
:1040120061696C656420746F2072656164206672E8
:104022006F6D204448542073656E736F72210020B7
:1040320020002F2F2F2F2F2F2F2F2F2F2F2F2F00FB
:104042004D6573736167652873292073656E7420EB
:10405200746F2000202620006361736520393030A0
:10406200312073746172740053656E64696E6720E7
:10407200746F2000202E2E2E004D657373616765CC
:104082002073656E7420746F2000526563656976D3
:10409200696E672066726F6D20004D65737361678C
:1040A200652052656365697665642066726F6D206E
:1040B2000063617365203930303120454E4400631E
:1040C2006173652039303032207374617274006319
:1040D200617365203930303220454E44006361738C
:1040E20065203930303320737461727400636173F8
:1040F20065203930303320454E44006361736520BA
:1041020039303034207374617274006361736520D6
:104112003930303420454E440063617365203930B4
:1041220030352073746172740063617365203930B5
:10413200303520454E440063617365203930303696
:104142002073746172740063617365203930303694
:1041520020454E4400636173652039303037207347
:1041620074617274006361736520393030372045A1
:104172004E440070696E6700446F696E6720436F3A
:104182006D6D616E64002F2F2F2F2F2F2F2F2F2F4A
:104192002F2000545950453A2000416464726573DF
:1041A200732069733A20004D4F54494F4E00393005
:1041B2003031202D2D204D6F74696F6E3A200039F9
:1041C200303031202D2D2054656D7065726174750B
:1041D20072653A200039303032202D2D204D6F7417
:1041E200696F6E3A200039303032202D2D2054650F
:1041F2006D70657261747572653A200039303033C2
:10420200202D2D204D6F74696F6E3A2000393030A9
:1042120033202D2D2054656D706572617475726541
:104222003A200000000000EB1769196D1786177815
:1042320017C9170D0A006E616E00696E66006F760F
:02424200660014
:00000001FF
