:100000000C9406010C942E010C942E010C942E01DC
:100010000C942E010C942E010C942E010C942E01A4
:100020000C942E010C942E010C942E010C942E0194
:100030000C942E010C942E010C942E010C942E0184
:100040000C94E8060C942E010C94F9050C94D3053D
:100050000C942E010C942E010C942E010C942E0164
:100060000C942E010C942E010000000024002700A7
:100070002A0004040404040404040202020202022A
:10008000030303030303010204081020408001025C
:100090000408102001020408102011121314151670
:1000A0000A0B0C0D0E0F00010203040500000000F6
:1000B000250028002B000000000023002600290056
:1000C0000000000800020100000304070000000017
:1000D000000000004E414E494E495459494E46CD0C
:1000E000CCCC3D0AD7233C17B7D13877CC2B3295EF
:1000F00095E6241FB14F0A000020410000C84200CD
:10010000401C4620BCBE4CCA1B0E5AAEC59D740096
:10011000407A10F35A00A0724E18090010A5D4E8D6
:100120000000E87648170000E40B54020000CA9A69
:100130003B000000E1F505000080969800000040BB
:10014000420F000000A08601000000102700000000
:1001500000E803000000006400000000000A000046
:100160000000000100000000002C76D888DC674FFA
:100170000823DFC1DFAE59E1B1B796E5E3E453C62A
:100180003AE651997696E8E6C28426EB898C9B6222
:10019000ED407C6FFCEFBC9C9F40F2BAA56FA5F4CC
:1001A00090055A2AF75C936B6CF9676DC11BFCE0F4
:1001B000E40D47FEF520E6B500D0ED902E03009447
:1001C0003577050080841E080000204E0A000000DC
:1001D000C80C333333330F986E12831141EF8D21E6
:1001E00014893BE65516CFFEE6DB18D1844B381B4D
:1001F000F77C1D901DA4BBE424203284725E228112
:1002000000C9F124ECA1E53D2700C50C11241FBE57
:10021000CFEFD8E0DEBFCDBF12E0A0E0B1E0E6E571
:10022000FEE202C005900D92A63BB107D9F723E08C
:10023000A6EBB2E001C01D92AF3CB207E1F711E0BE
:10024000C6E0D1E004C02197FE010E94960EC530A1
:10025000D107C9F70E9465070C9429170C94000078
:100260000E943911009769F0FC0101900020E9F724
:100270003197AF01481B590BBC0181ED92E00C9402
:100280003A0780E090E00895CF93DF930E94320117
:10029000EC0186E992E00E9432018C0F9D1FDF91F4
:1002A000CF9108958F929F92AF92BF920F931F9319
:1002B000CF93DF93CDB7DEB7A1970FB6F894DEBF2B
:1002C0000FBECDBF19A2423008F44AE08E010F5D87
:1002D0001F4F842E912CA12CB12CA50194010E94BA
:1002E000740EE62FB901CA0101501109EA3014F465
:1002F000E05D01C0E95CD801EC93232B242B252B76
:1003000061F7C8010E943201A1960FB6F894DEBFD2
:100310000FBECDBFDF91CF911F910F91BF90AF90D6
:100320009F908F900895CF92DF92EF92FF92CF939C
:10033000DF936B017C01E091D102F091D202019038
:10034000F081E02D6DE281ED92E00995EC016627E8
:100350007727CB016C197D098E099F094AE00E941D
:1003600052018C0F9D1FDF91CF91FF90EF90DF9096
:10037000CF900895BC01990F880B990B97FD0C94B1
:1003800093014AE00C945201CF93DF939CB59F7D7B
:100390009CBD9CB5937F9CBD9CB59C7F9CBD9DB531
:1003A00091609DBDC5EAD3E0682F89810E942B062C
:1003B0008A899B89DF91CF910C94970681E00C94F8
:1003C000C40180E00C94C401EF92FF920F931F933D
:1003D000CF93DF9300D01F92CDB7DEB7162F4A839D
:1003E0007B8389830E94E10189818F7180620E94F1
:1003F0003207082FE12E7B81F72E4A81140F1E153C
:1004000031F0F70181917F010E943207F8CF0E94FD
:10041000DE01802F0F900F900F90DF91CF911F91F1
:100420000F91FF90EF9008951F93CF93DF9300D02B
:10043000CDB7DEB76A8389830E94E10189818F711C
:1004400080620E943207182F6A81862F0E9432072D
:100450000E94DE01812F0F900F90DF91CF911F91AD
:100460000895DF92EF92FF920F931F93CF93DF9344
:100470001F92CDB7DEB7F82E2091AA03223010F4D8
:10048000E22E02C082E0E82E8091AB03811103C00E
:10049000D22EDE1801C0D12C99830E94E10181E6A1
:1004A0000E9432070F2D9981192FEA94FFEFEF1662
:1004B00039F08FEF0E943207F80181938F01F5CF59
:1004C000DD2029F08FEF0E943207DA94F9CF0E94E5
:1004D000DE0160E787E00F90DF91CF911F910F91D0
:1004E000FF90EF90DF900C941402CF93DF931F9254
:1004F000CDB7DEB789830E94E10189818F710E94A7
:1005000032078FEF0E94320789830E94DE018981C2
:100510000F90DF91CF91089587E10E947502809539
:1005200081700895CF93DF931F92CDB7DEB70E94FD
:10053000E10181EE0E94320789830E94DE018981F8
:100540000F90DF91CF910895682F8091A50390912E
:10055000A60389130C942B06089580E00E9475026F
:1005600081FD0BC0682F626080E00E94140265E08C
:1005700070E080E090E00C94A20608950E94AD0225
:1005800080E00E947502682F616080E00E94140282
:1005900060E787E00E94140281E00E94A40280913B
:1005A000AC03882341F04091B1036CEA73E08AE028
:1005B0000E94E40112C082E00E947502E6EAF0E0C7
:1005C000E49121E030E001C0220FEA95EAF720959E
:1005D000622F682382E00E9414028DE10E9475025E
:1005E00081FD0C94920208950F931F93CF93DF9394
:1005F000CDB7DEB728970FB6F894DEBF0FBECDBFDC
:1006000029833A834B835C836D837E838F839887B2
:10061000E1EAF0E0849105EA13E0F8014485BE01C7
:100620006F5F7F4F0E94E401EBE9F0E08491F801F5
:1006300065810E94140282E00E947502E7EAF0E000
:10064000E49161E070E001C0660FEA95EAF7682B7B
:1006500082E00E94140228960FB6F894DEBF0FBE07
:10066000CDBFDF91CF911F910F910895DF92EF924F
:10067000FF920F931F93CF93DF931F92CDB7DEB7F7
:10068000F82E2091AA03D22E233010F082E0D82E2B
:100690008091AB03811103C0E22EED1801C0E12C63
:1006A00099830E94E10180EA0E9432070F2D99810F
:1006B000192FDA94FFEFDF1631F0F80181918F01E5
:1006C0000E943207F6CFEE2029F080E00E94320728
:1006D000EA94F9CF0E94DE0181E00E94A4020E9408
:1006E000E1018FEF0E94320789830E94DE01898138
:1006F0008073A9F380E00E94A40260E787E00E9473
:10070000140284FF04C00E94920280E001C081E0D4
:100710000F90DF91CF911F910F91FF90EF90DF909D
:1007200008950F931F93CF93DF93CDB7DEB728972C
:100730000FB6F894DEBF0FBECDBF29833A834B833B
:100740005C836D837E838F83988705EA13E0F801CD
:100750004485BE016F5F7F4F8AE00E94E401F8018B
:100760004485BE016F5F7F4F80E10E94E401F80184
:10077000658181E10E94140228960FB6F894DEBFCD
:100780000FBECDBFDF91CF911F910F91089580E0F3
:100790000E94A4028091B3039091B4030E94970633
:1007A0008DE10E94750281FF08C08091B303909192
:1007B000B4030E9497060E94920280E00E94750294
:1007C000682F6E7F80E00E94140282E00E94750212
:1007D000E6EAF0E0E49161E070E001C0660FEA95BE
:1007E000EAF7682B82E00C941402CF93DF93BC01EC
:1007F000990F880B990B97FF03C00E94930103C0C8
:100800004AE00E945201EC0186E992E00E94320126
:100810008C0F9D1FDF91CF910895FC0124813581BC
:100820006217730720F480819181009729F4109258
:10083000BF038FEB93E00895860F971F08950F93E2
:100840001F93CF93DF938C01EB01FC018081918199
:100850000097B1F0688179816115710579F0428165
:1008600053812C813D814217530740F00E9447116C
:100870008C819D81F8019583848313C00E94D70FDA
:1008800088819981F801918380838A819B819383F8
:1008900082838C819D8195838483198218821B8237
:1008A0001A821D821C82DF91CF911F910F910895B2
:1008B000EF92FF920F931F93CF93DF93EC017B0195
:1008C0008A0188819981009729F02A813B81241728
:1008D0003507F8F4B8016F5F7F4F0E946F100097E3
:1008E00059F0998388831B830A832C813D81232BB4
:1008F00081F4FC0110820DC088819981009711F06C
:100900000E94D70F198218821D821C821B821A82B4
:1009100007C01D830C83B701888199810E9447110C
:10092000CE01DF91CF911F910F91FF90EF9008952D
:10093000CF93DF93EC016115710559F0FB01019034
:100940000020E9F73197AF01461B570B0E9458046E
:100950000CC088819981009711F00E94D70F1982ED
:1009600018821D821C821B821A82CE01DF91CF91D8
:100970000895FC01918D828D981761F0828DDF01C1
:10098000A80FB11D5D968C91928D9F5F9F73928F82
:1009900090E008958FEF9FEF0895FC01918D828D77
:1009A000981731F0828DE80FF11D858D90E0089544
:1009B0008FEF9FEF0895FC01918D228D892F90E09C
:1009C000805C9F4F821B91098F739927089581ED59
:1009D00092E00E94DB0421E0892B09F420E0822FC1
:1009E0000895FC01848DDF01A80FB11DA35ABF4FEC
:1009F0002C91848D90E001968F739927848FA6891E
:100A0000B7892C93A089B1898C9180648C93938D44
:100A1000848D981306C00288F389E02D80818F7D34
:100A200080830895EF92FF920F931F93CF93DF93EC
:100A3000EC0181E0888F9B8D8C8D981305C0E8892F
:100A4000F989808185FD24C0F62E0B8D10E00F5FA3
:100A50001F4F0F731127E02E8C8DE8120CC00FB6BC
:100A600007FCFACFE889F989808185FFF5CFCE01AF
:100A70000E94F104F1CF8B8DFE01E80FF11DE35AC6
:100A8000FF4FF0820B8FEA89FB898081806207C06B
:100A9000EE89FF896083E889F98980818064808399
:100AA00081E090E0DF91CF911F910F91FF90EF9047
:100AB0000895CF93DF93EC01888D8823C9F0EA89EC
:100AC000FB89808185FD05C0A889B9898C9186FD47
:100AD0000FC00FB607FCF5CF808185FFF2CFA88944
:100AE000B9898C9185FFEDCFCE010E94F104E7CF4B
:100AF000DF91CF91089580E090E0892B29F00E944A
:100B0000E70481110C9400000895833081F028F4EB
:100B1000813099F08230A1F008958730A9F08830B3
:100B2000B9F08430D1F4809180008F7D03C0809132
:100B300080008F7780938000089584B58F7702C0FE
:100B400084B58F7D84BD08958091B0008F7703C0F8
:100B50008091B0008F7D8093B00008953FB7F894E6
:100B60008091C5039091C603A091C703B091C803BB
:100B700026B5A89B05C02F3F19F00196A11DB11DF8
:100B80003FBFBA2FA92F982F8827820F911DA11D33
:100B9000B11DBC01CD0142E0660F771F881F991F70
:100BA0004A95D1F708951F920F920FB60F92112414
:100BB0002F933F934F935F936F937F938F939F9365
:100BC000AF93BF93EF93FF9381ED92E00E94F10406
:100BD000FF91EF91BF91AF919F918F917F916F9115
:100BE0005F914F913F912F910F900FBE0F901F90EB
:100BF00018951F920F920FB60F9211242F938F9377
:100C00009F93EF93FF93E091E102F091E2028081E4
:100C1000E091E702F091E80282FD12C0908180919C
:100C2000EA028F5F8F732091EB02821751F0E091FF
:100C3000EA02F0E0EF52FD4F958F8093EA0201C087
:100C40008081FF91EF919F918F912F910F900FBE17
:100C50000F901F9018951F93CF93DF93282F30E0AC
:100C6000F901E054FF4F8491F901EA57FF4FD49105
:100C7000F901EE58FF4FC491CC23C9F0162F811112
:100C80000E948505EC2FF0E0EE0FFF1FE455FF4FAB
:100C9000A591B4918FB7F894111105C09C91ED2FD7
:100CA000E095E92302C0EC91ED2BEC938FBFDF912F
:100CB000CF911F910895CF93DF9390E0FC01EA5705
:100CC000FF4F2491FC01EE58FF4F8491882361F17E
:100CD00090E0880F991FFC01E859FF4FC591D4910E
:100CE000FC01E455FF4FA591B491611109C09FB774
:100CF000F8948881209582238883EC912E230BC061
:100D0000623061F49FB7F8943881822F80958323F5
:100D10008883EC912E2B2C939FBF06C08FB7F8943D
:100D2000E8812E2B28838FBFDF91CF9108958230E9
:100D3000910538F0880F991F880F991F0597019723
:100D4000F1F708958F929F92AF92BF92CF92DF9268
:100D5000EF92FF926B017C010E94AE054B015C019A
:100D6000C114D104E104F104F1F00E94AE05DC01EC
:100D7000CB0188199909AA09BB09883E9340A105AE
:100D8000B10570F321E0C21AD108E108F10888EE3C
:100D9000880E83E0981EA11CB11CC114D104E1048B
:100DA000F10419F7DDCFFF90EF90DF90CF90BF9067
:100DB000AF909F908F9008952FB7F8946091C103E2
:100DC0007091C2038091C3039091C4032FBF089513
:100DD0001F920F920FB60F9211242F933F938F9370
:100DE0009F93AF93BF938091C1039091C203A09151
:100DF000C303B091C4033091C00323E0230F2D3708
:100E000020F40196A11DB11D05C026E8230F02960E
:100E1000A11DB11D2093C0038093C1039093C20311
:100E2000A093C303B093C4038091C5039091C603FC
:100E3000A091C703B091C8030196A11DB11D809375
:100E4000C5039093C603A093C703B093C803BF9193
:100E5000AF919F918F913F912F910F900FBE0F9067
:100E60001F9018958EBD00000DB407FEFDCF8EB506
:100E700008950895CF92DF92EF92FF920F931F9300
:100E8000CF93DF936C017A018B01C0E0D0E0CE15E7
:100E9000DF0589F0D8016D918D01D601ED91FC91AE
:100EA0000190F081E02DC6010995892B11F47E0196
:100EB00002C02196ECCFC701DF91CF911F910F9116
:100EC000FF90EF90DF90CF900895CF93DF93CDB751
:100ED000DEB7AD970FB6F894DEBF0FBECDBF7894E6
:100EE00084B5826084BD84B5816084BD85B582602F
:100EF00085BD85B5816085BD80916E0081608093E0
:100F00006E00109281008091810082608093810048
:100F10008091810081608093810080918000816058
:100F2000809380008091B10084608093B1008091B3
:100F3000B00081608093B00080917A0084608093DB
:100F40007A0080917A00826080937A0080917A00A2
:100F5000816080937A0080917A00806880937A0023
:100F60001092C100E091E102F091E20282E0808300
:100F7000E091DD02F091DE021082E091DF02F0915B
:100F8000E0028FEC80831092E902E091E502F0919B
:100F9000E60286E08083E091E302F091E402808142
:100FA00080618083E091E302F091E40280818860B7
:100FB0008083E091E302F091E40280818068808385
:100FC000E091E302F091E40280818F7D8083809143
:100FD000A5039091A603891719F061E00E945B06B2
:100FE0008091A6039091A503981719F061E00E94E3
:100FF0005B061FB7F8948091B602811127C0ECE719
:10100000F0E08491E0E9F0E09491E82FF0E0EE0F59
:10101000FF1FE859FF4FA591B491EC91E92321F40A
:1010200061E08AE00E942B0661E08AE00E945B0694
:101030008CB580618CBD8CB580648CBD61E08DE029
:101040000E945B0661E08BE00E945B068091B60225
:101050008F5F8093B6021FBF80E00E94A40281E0F0
:101060000E94C40165E070E080E090E00E94A2066A
:101070006CE080E00E9414026FE584E00E9414029C
:1010800086E00E947502877D182F10628BE990E040
:10109000A0E0B0E08093B3039093B403A093B503B2
:1010A000B093B603612F86E00E94140286E00E948E
:1010B0007502811709F4CFC386E00E94750286E0AD
:1010C0000E94750245E550E060E070E04093B30394
:1010D0005093B4036093B5037093B603682F677D94
:1010E00086E00E94140286E00E9475020E94E101DF
:1010F00080E50E94320783E70E9432070E94DE01EA
:1011000060E08DE10E94140260E08CE10E94140214
:1011100060E787E00E9414026CE485E00E941402FC
:101120000E94E10182EE0E9432070E94DE010E94CD
:1011300092020E94AD0280E00E947502682F6E7FCD
:1011400080E00E94140268EC70E080E090E00E9471
:10115000A20662E0809198030E945B0680E398EF0C
:10116000AFEFBFEF80939C0390939D03A0939E03EA
:10117000B0939F0360E082E00E945B0660E083E042
:101180000E945B0660E084E00E945B0660E085E010
:101190000E945B0661E087E00E945B0661E088E0F8
:1011A0000E945B0661E088E00E942B06809191031B
:1011B000909192038932934209F0B8C007E813E096
:1011C000F801A080B1801A82198283E692E00E9421
:1011D000440186E191E00E9444010E94C703F801A6
:1011E00031812081932F990F990B492F592F692F06
:1011F000792F892F0E949103F801808191819A8330
:101200008983CE0101960E943603882361F068EC41
:1012100070E080E090E00E94A20681E993E00E94E5
:10122000360381110CC0E980FA8083E692E00E94C7
:10123000440187E291E00E943201C7015AC01A823C
:101240001982F801C080D1803091920320919103DE
:10125000932F990F990B492F592F692F792F892F88
:101260000E94F4020E94BE020E94DC067B01F8E1AB
:10127000EF1AFCEFFF0A27010F2C000C6608770815
:1012800087E10E94750280FDEAC20E948C028823D9
:10129000E1F0CE0101960E94310289819A818C157C
:1012A0009D0561F48AE491E00E94440189E992E09D
:1012B0000E944401C5010E94F5032FC083E692E01D
:1012C0000E94440182E691E011C00E94DC064701C1
:1012D000FF0CAA08BB0886169706A806B906E8F40C
:1012E00083E692E00E9444018CE991E00E94320181
:1012F000C6010E94BA018CE192E00E94440161E0C3
:1013000087E00E942B0668EE73E080E090E00E9488
:10131000A20660E087E00E942B060E5F1F4F23E0CD
:101320000139120709F04CCF10E06BC08FEC91E04F
:101330000E9444011BA21AA21A82198230919203C0
:1013400020919103932F990F990B492F592F692FB2
:10135000792F892F0E94F4020E94BE0210E00E94A1
:10136000DC067B01E0EDEE1AEAE8FE0A47010F2CED
:10137000000CAA08BB080E948C02811107C00E94C1
:10138000DC06681579058A059B05A8F30E948C0286
:10139000882309F46DC284EE91E00E944401CE01DD
:1013A00082960E9431020E94DC067B01F0EDEF1A6A
:1013B000FAE8FF0A47010F2C000CAA08BB080E949C
:1013C0008C02882309F477C20E948C02882309F4D6
:1013D0007BC2CE0101960E9431022AA13BA18091DD
:1013E0009103909192032817390709F490C22AA11A
:1013F0003BA180919103909192032817390709F03E
:10140000AECF1093B70260E088E00E942B0684E321
:1014100092E00E9432018091B70290E00E94F503B1
:1014200082E492E00E94440188E592E00E94320149
:1014300080919103909192030E94F50385E692E0DA
:101440000E94440107E813E0F801819191918F0116
:101450000E94F503F3E001391F07B1F719A618A69A
:101460001BA61AA61DA61CA640E050E068E972E083
:10147000CE0188960E9458041BA21AA21DA21CA28B
:101480001FA21EA24AE0BE016F5F7F4F89E293E276
:101490000E949011BE016F5F7F4FCE0182960E9425
:1014A0009804BE016E5D7F4FCE0188960E941F0496
:1014B0008AA19BA10E94D70F9EE6E92E93E0F92E08
:1014C00000E010E0B801CE0188960E940D04FC01F6
:1014D0008081F70181937F010F5F1F4F0430110559
:1014E00089F78DE2809372031BA21AA21DA21CA28F
:1014F0001FA21EA28E010F5F1F4F22E044E063E394
:1015000073E385E992E40E944E11BC01CE018296FC
:101510000E949804BE016E5D7F4FCE0188960E94A6
:101520001F048AA19BA10E94D70F00E010E0B80120
:10153000CE0188960E940D04FC018081F801E259D9
:10154000FC4F85830F5F1F4F0530110581F78DE23A
:10155000809378031BA21AA21DA21CA21FA21EA286
:101560004AE0BE016F5F7F4F84E392E00E949011DA
:10157000BE016F5F7F4FCE0182960E949804BE012C
:101580006E5D7F4FCE0188960E941F048AA19BA1A9
:101590000E94D70F00E010E08CA59DA50817190741
:1015A00070F4B801CE0188960E940D04FC01808180
:1015B000F801E259FC4F83870F5F1F4FEDCFFC010D
:1015C000E259FC4F28E723878EE693E00E9444010E
:1015D00088A599A50E94D70F81E792E00E94440157
:1015E00080EC92E00E94440186E792E00E94440170
:1015F0001A8219821C821B821E821D8240E050E0EA
:1016000068E972E0CE0101960E9458048EE6E82E49
:1016100083E0F82E60E070E0F70180818B010F5FBE
:101620001F4F8D3259F0CE0101960E940D04F70133
:1016300021917F01FC012083B801EECF89819A813D
:101640000E9472119093B9028093B80202591C4F04
:10165000C12CD12CC8018E5693407C01F8018081A9
:101660008D3271F0B601CE0101960E940D04F80191
:1016700021918F01FC012083FFEFCF1ADF0AEACF0F
:1016800089819A810E946E116093BC027093BD02A1
:101690008093BE029093BF02870101591C4FE12C39
:1016A000F12CF8018081883771F0B701CE010196E5
:1016B0000E940D04F80121918F01FC012083FFEFAE
:1016C000EF1AFF0AEECF09811A81C8010E94721138
:1016D0009093BB028093BA02C8010E94D70FC090BA
:1016E000BC02D090BD02E090BE02F090BF02A70104
:1016F0009601C701B6010E943D0F882319F08AE8C0
:1017000092E01AC046015701E894B7F82FEF3FEF77
:101710004FE75FE7C501B4010E943D0F81110FC083
:101720002FEF3FEF4FE75FE7C501B4010E94B1150E
:1017300018162CF48EE892E00E9432017BC02FEF45
:101740003FEF4FE75FE4C701B6010E94380F18165C
:101750001CF482E992E0F0CF2FEF3FEF4FE75FEC10
:10176000C701B6010E94B11587FDF3CF20E030E03C
:10177000A901C701B6010E94B11587FF0FC0E09112
:10178000D102F091D2020190F081E02D6DE281ED65
:1017900092E00995F7FAF094F7F8F0942AE037ED23
:1017A00043EA5BE3C701B6010E949D0E4B015C0159
:1017B0000E94090F6B017C010E94B6159B01AC01D0
:1017C000C501B4010E949C0E4B015C014AE0C701B7
:1017D000B6010E94520184EF91E00E94320120E0A4
:1017E00030E040E251E4C501B4010E9417164B01FC
:1017F0005C010E94090F6B01E12CF12C4AE0C7014A
:10180000B6010E945201C701B6010E94B6159B01A4
:10181000AC01C501B4010E949C0E20E030E040E222
:1018200051E40E9417160E94090F80E090E04AE000
:101830000E94520186E992E00E9432018091BA0230
:101840009091BB020E94F5038091B8029091B90279
:101850000E94F503FFCF81E08093A9032DCC0E9465
:10186000DC06641575058605970508F409CD0DCDD0
:101870000E94DC066701FF0CEE08FF08C616D706BB
:10188000E806F90608F08FCD83E692E00E94440155
:1018900086EF91E00E94440161E087E00E942B0600
:1018A00068EE73E080E090E00E94A20660E087E0CE
:1018B0000E942B0678CD0E94DC06681579058A0502
:1018C0009B0508F47CCD80CD0E94DC066701FF0CEF
:1018D000EE08FF08C616D706E806F90608F07DCD23
:1018E00083E692E00E94440186EF91E00E94440169
:1018F00061E087E00E942B0668EE73E080E090E0F4
:101900000E94A20660E087E00E942B0666CD0E943E
:10191000C7033091880320918703932F990F990B68
:10192000492F592F692F792F892F0E9491038FE119
:1019300092E00E94440181E993E00E943603811104
:1019400022C0E0908703F090880383E692E00E9433
:10195000440187E291E00E943201C7010E94BA016E
:101960008CE192E00E94440161E087E00E942B0636
:1019700068EE73E080E090E00E94A20660E087E0FD
:101980000E942B0634CD11E032CD0F931F93CF93DD
:101990001092D4021092D30288EE93E0A0E0B0E05F
:1019A0008093D5029093D602A093D702B093D80229
:1019B0008AE091E09093D2028093D10285EC90E08E
:1019C0009093DE028093DD0284EC90E09093E0023D
:1019D0008093DF0280EC90E09093E2028093E1023A
:1019E00081EC90E09093E4028093E30282EC90E03B
:1019F0009093E6028093E50286EC90E09093E802F3
:101A00008093E7021092EA021092EB021092EC022D
:101A10001092ED0289E08093A5038AE08093A603EB
:101A20001092A90380E28093AA031092AB0385E091
:101A30008093B10385E090E0A0E0B0E08093B7032D
:101A40009093B803A093B903B093BA031092AC0378
:101A500086E0809398038BE080939903ECE8F0E0B4
:101A6000E491E0939A03E8E7F0E0E491E0939B03CC
:101A700080E89EE3A0E0B0E08093A0039093A103F0
:101A8000A093A203B093A30382E00E944B0E8C01AB
:101A900083E00E944B0EC1E0892B09F4C0E084E092
:101AA0000E944B0E21E0892B09F420E0012B39F430
:101AB000C1110CC02223A1F08DE293E21CC0C11120
:101AC0000AC0222381F08EE293E215C0222371F036
:101AD0008FE293E210C0222361F080E393E20BC017
:101AE00089E293E208C08AE293E205C08BE293E2C6
:101AF00002C08CE293E29093920380939103893227
:101B000023E29207A9F09C012A5233422330310587
:101B100090F08D3223E2920789F08E3223E2920711
:101B200081F08F3223E2920779F42EE233E20EC085
:101B30002AE233E20BC029E233E208C02CE233E2AE
:101B400005C02DE233E202C02FE233E23093880376
:101B500020938703AC014952534242305105C0F0F3
:101B60009C012B5233422230310578F08D3223E232
:101B7000920771F08E3223E2920769F08F3223E2EE
:101B8000920761F42DE233E20BC02AE233E208C08F
:101B90002BE233E205C02CE233E202C02EE233E254
:101BA00030938A03209389034330510580F08C32AF
:101BB00023E2920791F08D3223E2920759F08E32A0
:101BC00023E2920751F08F3223E2920749F42CE28C
:101BD00033E208C02AE233E205C02BE233E202C05E
:101BE0002DE233E230938C0320938B034430510574
:101BF00078F08D3223E2920771F08E3223E2920761
:101C000069F08F3223E2920761F42BE233E20BC0DA
:101C10002DE233E208C02EE233E205C02AE233E2CD
:101C200002C02CE233E230938E0320938D034430C4
:101C3000510568F09C012D5233422230310550F09D
:101C40008F3223E2920749F42AE233E208C02EE2FF
:101C500033E205C02FE233E202C02BE233E23093DD
:101C6000900320938F031092800310927F031092B1
:101C700082031092810390938403809383031092D4
:101C8000BC031092BB031092BE031092BD03CF9110
:101C90001F910F910895CF93DF93282F30E0F90122
:101CA000E054FF4F8491F901EA57FF4FD491F901B5
:101CB000EE58FF4FC491CC2391F081110E9485050D
:101CC000EC2FF0E0EE0FFF1FEA54FF4FA591B49107
:101CD000EC91ED2381E090E021F480E002C080E00F
:101CE00090E0DF91CF910895A1E21A2EAA1BBB1BB1
:101CF000FD010DC0AA1FBB1FEE1FFF1FA217B307D8
:101D0000E407F50720F0A21BB30BE40BF50B661FED
:101D1000771F881F991F1A9469F7609570958095B1
:101D200090959B01AC01BD01CF010895EE0FFF1FFF
:101D30000590F491E02D09945058BB27AA270E94E2
:101D4000B40E0C949E160E94901638F00E949716BE
:101D500020F039F49F3F19F426F40C948D160EF4FC
:101D6000E095E7FB0C948716E92F0E94AF1658F315
:101D7000BA17620773078407950720F079F4A6F570
:101D80000C94D1160EF4E0950B2EBA2FA02D0B015A
:101D9000B90190010C01CA01A0011124FF27591BB0
:101DA00099F0593F50F4503E68F11A16F040A22FB6
:101DB000232F342F4427585FF3CF46953795279527
:101DC000A795F0405395C9F77EF41F16BA0B620B26
:101DD000730B840BBAF09150A1F0FF0FBB1F661F6D
:101DE000771F881FC2F70EC0BA0F621F731F841FB0
:101DF00048F4879577956795B795F7959E3F08F0D6
:101E0000B0CF9395880F08F09927EE0F9795879597
:101E100008950E94B71688F09F5798F0B92F992718
:101E2000B751B0F0E1F0660F771F881F991F1AF0C5
:101E3000BA95C9F714C0B13091F00E94D116B1E043
:101E400008950C94D116672F782F8827B85F39F042
:101E5000B93FCCF3869577956795B395D9F73EF45E
:101E600090958095709561957F4F8F4F9F4F089506
:101E70000E94F31508F48FEF08950E94F315880B64
:101E8000990B0895CF93DF938230910510F482E08F
:101E900090E0E091CB03F091CC0320E030E0C0E093
:101EA000D0E0309711F14081518148175907C0F0B7
:101EB0004817590761F482819381209719F09B8319
:101EC0008A832BC09093CC038093CB0326C021152B
:101ED000310519F04217530718F49A01BE01DF01CA
:101EE000EF010280F381E02DDCCF2115310509F1EE
:101EF000281B390B2430310590F412968D919C915A
:101F000013976115710521F0FB019383828304C04F
:101F10009093CC038093CB03FD01329644C0FD0126
:101F2000E20FF31F81939193225031092D933C933B
:101F30003AC02091C9033091CA03232B41F4209168
:101F40000201309103013093CA032093C903209109
:101F50000001309101012115310541F42DB73EB743
:101F60004091040150910501241B350BE091C903F8
:101F7000F091CA03E217F307A0F42E1B3F0B2817BA
:101F8000390778F0AC014E5F5F4F2417350748F0F2
:101F90004E0F5F1F5093CA034093C90381939193DF
:101FA00002C0E0E0F0E0CF01DF91CF9108950F9300
:101FB0001F93CF93DF93009709F48CC0FC013297F5
:101FC000138212820091CB031091CC0301151105ED
:101FD00081F420813181820F931F2091C9033091B8
:101FE000CA032817390779F5F093CA03E093C903A8
:101FF00071C0D80140E050E0AE17BF0750F4129610
:102000002D913C911397AD012115310509F1D901AD
:10201000F3CF9D01DA013383228360817181860FC2
:10202000971F8217930769F4EC0128813981260FE5
:10203000371F2E5F3F4F318320838A819B8193839B
:102040008283452B29F4F093CC03E093CB0342C069
:102050001396FC93EE931297ED01499159919E01CD
:10206000240F351FE217F30771F480819181840FEB
:10207000951F029611969C938E938281938113965D
:102080009C938E931297E0E0F0E0D80112968D9128
:102090009C911397009719F0F8018C01F6CF8D9160
:1020A0009C9198012E5F3F4F820F931F2091C9038F
:1020B0003091CA032817390769F4309729F4109230
:1020C000CC031092CB0302C0138212821093CA0376
:1020D0000093C903DF91CF911F910F910895A0E064
:1020E000B0E0E5E7F0E10C94E716EC01009721F48D
:1020F000CB010E94420FB8C0FC01E60FF71F9C0104
:1021000022503109E217F30708F4ACC0D9010D9150
:102110001C91119706171707B0F00530110508F448
:102120009FC0C80104978617970708F499C002500A
:102130001109061B170B019311936D937C93CF012B
:102140000E94D70F8DC05B01A01AB10A4C01800E0E
:10215000911EA091CB03B091CC0340E050E0E12C64
:10216000F12C109709F44AC0A815B905D1F56D9066
:102170007C901197630182E0C80ED11CCA14DB0465
:1021800080F1A3014A195B096A0182E0C80ED11CE3
:102190001296BC9012971396AC91B5E0CB16D10471
:1021A00040F0B282A38351834083D9016D937C9325
:1021B0000AC00E5F1F4FC301800F911FF901918369
:1021C0008083EB2DFA2FE114F10431F0D70113963F
:1021D000FC93EE93129744C0F093CC03E093CB03AF
:1021E0003FC08D919C9111974817590708F4AC0195
:1021F0007D0112960D90BC91A02DB3CF8091C903A3
:102200009091CA0388159905E1F446175707C8F459
:102210008091000190910101009741F48DB79EB724
:102220004091040150910501841B950BE817F907B3
:10223000C8F4F093CA03E093C903F9017183608382
:102240000FC0CB010E94420F7C01009759F0A801FA
:10225000BE010E943E11CE010E94D70FC70104C0EB
:10226000CE0102C080E090E0CDB7DEB7EEE00C9486
:10227000031781E090E0F8940C942917FB01DC012E
:1022800002C001900D9241505040D8F70895FB01D3
:10229000DC0101900D920020E1F70895EF920F9379
:1022A0001F93CF93DF93E80147FD02C034E001C0E4
:1022B00034E1E42F440FFF0BF7FF03C0F195E195E4
:1022C000F109E32E022F2E2FAE010E94BD11CE0187
:1022D000DF91CF911F910F91EF9008956627772797
:1022E0000C944B13FC0188279927E8942191203204
:1022F000E9F3293010F02E30C8F32B3241F02D32A3
:1023000039F4689404C00E949B11820F911D2191A1
:1023100020532A30C0F31EF4909581959F4F089565
:10232000BB274A3031F4992322F4BDE29095819580
:102330009F4F0C94A4117AE0979F902D879F802D3A
:10234000910D11240895BB27FB015527AA27880F5B
:10235000991FAA1FA41710F0A41B83955051B9F719
:10236000A05DAA3308F0A95DA193009779F7B11198
:10237000B1931192CB010C94A1154F925F926F9281
:102380007F929F92AF92BF92CF92DF92EF92FF9295
:102390000F931F93CF93DF93CDB7DEB729970FB677
:1023A000F894DEBF0FBECDBF6A01122FB02E2BE313
:1023B000201720F0FF24F394F00E02C0BCE3FB2EA4
:1023C0000F2D27E0AE014F5F5F4F0E94A814AC01B4
:1023D0008981982F9970913031F0E1FC06C0E0FEC0
:1023E00006C090E205C09DE203C09BE201C090E000
:1023F000EE2DE07183FF3CC0911102C083E001C06B
:1024000084E0811718F4212F281B01C020E0E1117E
:102410000BC0F601822F30E2882319F031938150EE
:10242000FBCFC20ED11C20E0992329F0D6019C934A
:10243000F60131966F01C6010396E2FE0AC03EE442
:10244000D6013C9341E411964C93119712963C931C
:1024500006C03EE6F601308341E641833283FC014B
:10246000322F40E2332309F442C041933150FACF76
:1024700082FF44C0911102C083E001C084E0811753
:1024800018F4212F281B01C020E0E1110BC0F60138
:10249000822F30E2882319F031938150FBCFC20E96
:1024A000D11C20E0992329F0D6019C93F6013196A6
:1024B0006F01C6010396E2FE0BC039E4D6013C93DE
:1024C0003EE411963C93119736E412963C9307C074
:1024D00039E6F60130833EE6318336E63283FC018D
:1024E000322F40E2332319F041933150FBCFFC01EE
:1024F000E20FF11D10828EEF9FEFB7C0F1E0911156
:1025000001C0F0E06F2F70E01416150624F49A0154
:102510002F5F3F4F02C021E030E0260F371FBB2066
:1025200029F06B2D70E06F5F7F4F02C060E070E0BC
:10253000260F371F612F70E0261737071CF4121B78
:10254000212F01C020E03E2D387159F4D601322FE1
:1025500060E2332319F06D933150FBCFC20ED11CD2
:1025600020E0FF2331F0D6019C93B6016F5F7F4FCF
:102570006B01E1110BC0F601922F30E3992319F0A2
:1025800031939150FBCFC20ED11C20E09F2D940FB0
:102590003A81782F7071A72E84FF03C0313309F47C
:1025A0009150191624F4993018F098E001C091E088
:1025B000E42F852F57FF02C0E0E080E06E2F782FD8
:1025C000E0E0F0E0AEE29A2E3A01691A71082A01C1
:1025D000461A570A0B2D10E01195019511096F3F0E
:1025E0008FEF780729F4D6019C92C60101966C0101
:1025F0004617570784F0661677066CF47F01E40CE3
:10260000F51CA1E0B0E0AC0FBD1FEA0EFB1ED70128
:102610001196BC9002C090E3B92E615071093196B9
:10262000C60101967C016017710724F0D601BC92A7
:102630006C01D5CF6417750741F4363320F4353378
:1026400021F4A11002C081E3B82EF601B082F70197
:10265000822F90E2882319F091938150FBCFF701EC
:10266000E20FF11D108280E090E029960FB6F894F9
:10267000DEBF0FBECDBFDF91CF911F910F91FF90B5
:10268000EF90DF90CF90BF90AF909F907F906F9032
:102690005F904F900895A0E0B0E0E1E5F3E10C9485
:1026A000E716EC017B016115710519F0DB018D93D3
:1026B0009C938E010F5F1F4F7880872D90E00E94C2
:1026C0008015892B11F0E801F4CFBDE27B1205C023
:1026D0000F5F1F4F7980C1E008C0EBE27E1204C09B
:1026E0008E010E5F1F4F7980C0E06801F1E0CF1AC4
:1026F000D10843E050E06CED70E0C6010E948915FE
:10270000892BF1F4680122E0C20ED11C45E050E0B3
:1027100067ED70E0C6010E948915892B21F46801DC
:1027200087E0C80ED11CE114F10419F0D701CD9255
:10273000DC92C111FFC060E070E080E89FE703C158
:1027400043E050E064ED70E0C6010E948915892BDA
:1027500051F4E114F10409F4F2C00E5F1F4FF701C8
:1027600011830083ECC0680160E070E0CB0100E001
:1027700010E0F601D0EDD70DDA3058F52C2F22609D
:10278000622E2C2F2870C2FF05C0211128C00F5FB8
:102790001F4F25C0222311F001501109A5E0B0E020
:1027A0009B01AC010E94D8164B015C01880C991C5E
:1027B000AA1CBB1CC501B4016D0F711D811D911DAB
:1027C0006839A9E97A078A07A9E19A0740F0C66043
:1027D00005C0DE3F51F4C3FD44C0C8606C2EBFEF9E
:1027E000CB1ADB0A7080C62DC4CF2D2F2F7D25314B
:1027F000C1F540814D3211F4C06106C04B3221F069
:10280000319621E030E006C03296D60111964C9107
:1028100022E030E0A0EDA40FAA3018F0E21BF30B89
:1028200020C040E050E04038BCE05B075CF49A0117
:10283000220F331F220F331F420F531F440F551F08
:102840004A0F511D3196DF0111972C91A0EDA20F77
:10285000AA3048F3C4FF03C0519541955109040FB4
:10286000151FC1FF07C0E114F10421F03197D70112
:10287000ED93FC930E94B615C370C33019F06B0141
:102880007C0106C06B017C01F7FAF094F7F8F09434
:1028900020E030E0A901C701B6010E94B1158823EC
:1028A00009F445C017FF06C0119501951109C3EF42
:1028B000D0E002C0CBE0D1E05E01B8E1AB1AB108D4
:1028C0004601BE2DAF2D90E2E92EF12C0E151F050D
:1028D00084F0FE012591359145915491B4018B2FDF
:1028E0009A2F0E9417164B01B82FA92F0E191F09F6
:1028F000EDCF2497F594E794CA15DB0539F7640109
:10290000EB2EFA2E8E2D880F8F2D881F8F3F49F0CA
:1029100020E030E0A901C701B6010E94B115811184
:1029200006C082E290E09093CE038093CD03C7016E
:10293000B60109C060E070E080E89FEF04C060E08D
:1029400070E080EC9FE7CDB7DEB7EEE00C940317A4
:10295000283008F027E03327DA01990F311D87FD71
:10296000916000966105710539F432602E5F3D93E8
:1029700030E32A95E1F708959F3F30F080387105E4
:10298000610509F03C5F3C5F3D93913008F0806841
:10299000911DDF93CF931F930F93FF92EF92192F07
:1029A000987F9695E92F96959695E90FFF27E75919
:1029B000FE4F99273327EE24FF24A701E701059056
:1029C0000894079428F4360FE71EF81E491F511D7E
:1029D000660F771F881F991F0694A1F7059007942B
:1029E00028F4E70EF81E491F561FC11D770F881FD8
:1029F000991F661F0694A1F70590079428F4F80E16
:102A0000491F561FC71FD11D880F991F661F771FAB
:102A10000694A1F70590079420F4490F561FC71F8D
:102A2000D81F990F661F771F881F0694A9F78491F6
:102A30001095177041F0D695C79557954795F7941F
:102A4000E7941A95C1F7EFE0F1E0689415901591BD
:102A500035916591959105907FE27395E118F10AA2
:102A6000430B560BC90BD009C0F7E10CF11E431FF5
:102A7000561FC91FD01D7EF4703311F48A95E6CF1E
:102A8000E894015030F0080F0AF40027021708F408
:102A9000202F2395022F7A3328F079E37D932A950E
:102AA000E9F710C07D932A9589F606949795679566
:102AB000379517951794E118F10A430B560BC90B7C
:102AC000D00998F023957E9173957A3308F070E3DE
:102AD0007C932013B8F77E9170617D9330F08395DD
:102AE00071E37D9370E32A95E1F71124EF90FF9055
:102AF0000F911F91CF91DF91992787FD90950895B0
:102B000091110C948416803219F089508550C8F7C1
:102B10000895FB01DC014150504088F08D918134D3
:102B20001CF08B350CF4805E659161341CF06B35C4
:102B30000CF4605E861B611171F3990B0895881B7C
:102B4000FCCFDC01FC01672F71917723E1F732970D
:102B500004C07C916D9370836291AE17BF07C8F378
:102B600008950E94F31508F481E00895E89409C0DF
:102B700097FB3EF490958095709561957F4F8F4FB0
:102B80009F4F9923A9F0F92F96E9BB279395F695C6
:102B9000879577956795B795F111F8CFFAF4BB0F44
:102BA00011F460FF1BC06F5F7F4F8F4F9F4F16C0A8
:102BB000882311F096E911C0772321F09EE8872F32
:102BC000762F05C0662371F096E8862F70E060E0EE
:102BD0002AF09A95660F771F881FDAF7880F969567
:102BE000879597F90895990F0008550FAA0BE0E80B
:102BF000FEEF16161706E807F907C0F012161306BF
:102C0000E407F50798F0621B730B840B950B39F4FE
:102C10000A2661F0232B242B252B21F408950A2664
:102C200009F4A140A6958FEF811D811D08950E9492
:102C30002A160C949E160E94901638F00E94971641
:102C400020F0952311F00C9487160C948D16112406
:102C50000C94D2160E94AF1670F3959FC1F3950F96
:102C600050E0551F629FF001729FBB27F00DB11D10
:102C7000639FAA27F00DB11DAA1F649F6627B00DA0
:102C8000A11D661F829F2227B00DA11D621F739F89
:102C9000B00DA11D621F839FA00D611D221F749F97
:102CA0003327A00D611D231F849F600D211D822FDE
:102CB000762F6A2F11249F5750409AF0F1F0882305
:102CC0004AF0EE0FFF1FBB1F661F771F881F915032
:102CD0005040A9F79E3F510580F00C9487160C9444
:102CE000D2165F3FE4F3983ED4F3869577956795C7
:102CF000B795F795E7959F5FC1F7FE2B880F911D5C
:102D00009695879597F9089599278827089597F9B3
:102D10009F6780E870E060E008959FEF80EC089581
:102D200000240A94161617061806090608950024AA
:102D30000A9412161306140605060895092E039424
:102D4000000C11F4882352F0BB0F40F4BF2B11F498
:102D500060FF04C06F5F7F4F8F4F9F4F089557FDF7
:102D60009058440F551F59F05F3F71F04795880FF9
:102D700097FB991F61F09F3F79F087950895121690
:102D800013061406551FF2CF4695F1DF08C016163C
:102D900017061806991FF1CF8695710561050894ED
:102DA0000895E894BB2766277727CB0197F9089504
:102DB0000E941A17A59F900DB49F900DA49F800D9F
:102DC000911D112408952F923F924F925F926F921E
:102DD0007F928F929F92AF92BF92CF92DF92EF92AB
:102DE000FF920F931F93CF93DF93CDB7DEB7CA1B2C
:102DF000DB0B0FB6F894DEBF0FBECDBF09942A8857
:102E0000398848885F846E847D848C849B84AA84FE
:102E1000B984C884DF80EE80FD800C811B81AA818B
:102E2000B981CE0FD11D0FB6F894DEBF0FBECDBF56
:102E3000ED010895A29FB001B39FC001A39F700D43
:102E4000811D1124911DB29F700D811D1124911DB2
:062E50000895F894FFCF85
:102E56000000CF0380000000000012053A07DB04E3
:102E6600B904CD04590553656E64696E67207069AF
:102E76006E67732E2E2E004552524F52203030333D
:102E8600212120556E61626C6520746F20636F6E20
:102E960074616374206875622000526563656976A3
:102EA60065642061636B6E6F776C656467652E2E53
:102EB6002E004552524F5220303038212120496E83
:102EC600636F72726563742061636B6E6F776C6596
:102ED6006467656D656E742070696E6720726563E0
:102EE60069657665642066726F6D20004552524FA3
:102EF60052203030372121204E6F2061636B6E6F78
:102F0600776C656467656D656E742070696E6720A1
:102F160072656369657665642066726F6D20005719
:102F2600616974696E6720666F722070696E677377
:102F36002E2E2E00526563656976696E67204461A0
:102F460074612E2E2E004552524F522030303921B8
:102F5600212054696D65206F757421204E6F207095
:102F6600696E672072656365697665642121005321
:102F7600656E64696E672050696E67206261636B77
:102F86002E2E2E0050696E67207374617475733A25
:102F960020002F2F2F2F2F2F2F2F2F2F2F2F2F2F79
:102FA6002F2F2F2F2F2F2F004D792041646472650C
:102FB60073733A2000526561642052616E67653A08
:102FC6000056565656005F5F5F5F5F5F5F5F5F5FED
:102FD6005F5F5F5F5F5F5F5F5F006E616E00696E80
:102FE60066006F7666000D0A00537563636573733A
:102FF60066756C20636F6E7461637420776974689C
:0630060020687562200045
:00000001FF
