:100000000C945B010C9483010C9483010C94830188
:100010000C9483010C9483010C9483010C94830150
:100020000C9483010C9483010C9483010C94830140
:100030000C9483010C9483010C9483010C94830130
:100040000C94E4120C9483010C94E3150C94151693
:100050000C9483010C9483010C9483010C94830110
:100060000C9483010C94830133050B06C7068907A2
:1000700045080109BD09730B770B7B0B7F0B830BC5
:10008000870B8B0B9A0B9E0BA20BA60BAA0BAE0B2E
:10009000B20B504120506F77657209203D202553E7
:1000A0000D0A00435243204C656E67746809203D79
:1000B0002025530D0A004D6F64656C0909203D2011
:1000C00025530D0A00446174612052617465092052
:1000D0003D2025530D0A0044594E50442F464541BA
:1000E0005455524500434F4E4649470052465F53D0
:1000F000455455500052465F434800454E5F5258A4
:100100004144445200454E5F41410052585F5057B0
:100110005F50302D360054585F41444452005258CD
:100120005F414444525F50322D350052585F414484
:1001300044525F50302D31000D0A002530327800D6
:10014000203078002553092563203D000D0A00204A
:10015000307825303278002553092563203D004F43
:100160004253455256455F54583D253032783A2027
:10017000504F4C535F434E543D2578204152435FCE
:10018000434E543D25780D0A0053544154555309AC
:1001900009203D203078253032782052585F445273
:1001A0003D25782054585F44533D2578204D4158D3
:1001B0005F52543D25782052585F505F4E4F3D2589
:1001C000782054585F46554C4C3D25780D0A000068
:1001D00001020304051112131415160A0B0C0D0E5F
:1001E0000FFF01F801F101E90150415F484947481B
:1001F000004C415F4D45440050415F4C4F5700500B
:10020000415F4D494E001B0214020C023136206240
:1002100069747300382062697473004469736162A1
:100220006C656400320228026E524632344C303122
:100230002B006E524632344C3031004F024902419D
:10024000023235304B42505300324D425053003150
:100250004D4250530000000008000201000003045A
:100260000700000000000000000102040810204008
:100270008001020408102001020408102004040474
:10028000040404040402020202020203030303033F
:1002900003000000002300260029000000000025C4
:1002A0000028002B0000000000240027002A000086
:1002B000240E4516360E11241FBECFEFD8E0DEBF48
:1002C000CDBF13E0A0E0B1E0EAE3F8E302C005909F
:1002D0000D92AC3BB107D9F724E0ACEBB3E001C021
:1002E0001D92AE3AB207E1F712E0C4EBD2E004C0CF
:1002F0002297FE010E944C19C03BD107C9F70E940A
:1003000089160C94101C0C940000809109019091A6
:100310000A01893223E2920719F48AE293E206C0C5
:100320008A3223E2920779F489E293E29093E90317
:100330008093E8038BE293E29093EB038093EA03CC
:100340008CE293E21FC08B3223E2920749F489E2E8
:1003500093E29093E9038093E8038AE293E2ECCF7F
:100360008C3223E29207D9F489E293E29093E90375
:100370008093E8038AE293E29093EB038093EA038D
:100380008BE293E29093ED038093EC038DE293E292
:100390009093EF038093EE038EE293E274C08D326C
:1003A00023E29207A9F48CE293E29093E90380930D
:1003B000E8038BE293E29093EB038093EA038AE2F3
:1003C00093E29093ED038093EC038EE293E218C0E6
:1003D0008E3223E29207D9F48DE293E29093E903FF
:1003E0008093E8038CE293E29093EB038093EA031B
:1003F0008BE293E29093ED038093EC038AE293E225
:100400009093EF038093EE038FE293E23CC08F3230
:1004100023E29207D9F48EE293E29093E90380936A
:10042000E8038DE293E29093EB038093EA038CE27E
:1004300093E29093ED038093EC038BE293E290932D
:10044000EF038093EE038AE293E21DC08033934270
:10045000F1F48FE293E29093E9038093E8038EE254
:1004600093E29093EB038093EA038DE293E29093FF
:10047000ED038093EC038CE293E29093EF0380937F
:10048000EE038BE293E29093F1038093F0030895DF
:100490001F93CF93DF9360ED77E080E090E00E94C0
:1004A0005D1382E00E947514EC0183E00E947514D4
:1004B00011E0892B09F410E084E00E94751421E01A
:1004C000892B09F420E0CD2B39F411110CC0211136
:1004D00014C089E293E21CC011110AC0211110C09E
:1004E0008AE293E215C021110EC08BE293E210C0A4
:1004F00021110CC08CE293E20BC08DE293E208C0A4
:100500008EE293E205C08FE293E202C080E393E2C1
:1005100090930A0180930901DF91CF911F91089573
:10052000CF93DF93EB018130910539F56EEA73E0EB
:100530008CE094E00E9403176BE071E08CE094E0A3
:100540000E94031760E371E08CE094E00E940317BF
:1005500061E087E00E943F146CE271E080E090E08F
:100560000E945D1360E087E00E943F146CE271E03E
:1005700080E090E00E945D13EBCF8230910539F569
:100580006EEA73E08CE094E00E94031760E471E08F
:100590008CE094E00E94031762E671E08CE094E046
:1005A0000E94031761E087E00E943F1464EF71E04E
:1005B00080E090E00E945D1360E087E00E943F14BD
:1005C00064EF71E080E090E00E945D13EBCF833038
:1005D0009105A1F566EF71E08CE094E00E940317AD
:1005E00067E871E08CE094E00E94E4164AE050E095
:1005F000BE018CE094E00E94C01762EF71E08CE0D5
:1006000094E00E94031760E371E08CE094E00E94A4
:10061000031761E087E00E943F146CEB72E080E01A
:1006200090E00E945D1360E087E00E943F146CEB55
:1006300072E080E090E00E945D13EBCF8430910582
:10064000E9F466EF71E08CE094E00E94031768EA39
:1006500071E08CE094E00E94E41662EF71E08CE0BF
:1006600094E00E94031760E371E08CE094E00E9444
:10067000031761E087E00E943F14FBCF0597A1F5C7
:1006800066EF71E08CE094E00E94031764EC71E087
:100690008CE094E00E94E4164AE050E0BE018CE059
:1006A00094E00E94C01769ED71E08CE094E00E9434
:1006B000031760E371E08CE094E00E94031761E0AF
:1006C00087E00E943F1460E273E080E090E00E94C7
:1006D0005D1360E087E00E943F1460E273E080E019
:1006E00090E00E945D13EBCFDF91CF9108958F9240
:1006F0009F92AF92BF92CF92DF92EF92FF920F93B1
:100700001F93CF93DF93CDB7DEB760970FB6F89402
:10071000DEBF0FBECDBF9E878D877B014A01690179
:10072000188B0F8710910A0100910901712F770F23
:10073000770B272F372F472F572F672F82EF93E005
:100740000E94711182EF93E00E945B105E0187E0CE
:10075000A80EB11C86E0F50111928A95E9F765EFC4
:1007600071E0CE0101960E944E1860E070E0CE016B
:1007700001960E940A198C0166E070E0C7010E9490
:100780000A19FC018081F801808361E070E0CE01EC
:1007900001960E940A198C0166E070E0C4010E9473
:1007A0000A19FC018081F801808363E070E0CE01CA
:1007B00001960E940A198C0166E070E0C6010E9451
:1007C0000A19FC018081F8018083C7010E941C196D
:1007D00078876F83C4010E941C197A876987C601D4
:1007E0000E941C197C876B8768EF71E08CE094E0B5
:1007F0000E9403176F8578894AE050E08CE094E00E
:100800000E94C817B7018CE094E00E94F11660E0E6
:1008100070E0CE0101960E940A19FC0160818CE013
:1008200094E00E9415176F8178854AE050E08CE0D3
:1008300094E00E94C8170E942E136B017C01F8E817
:10084000CF0EF3E1DF1EE11CF11C42E0BE01615F4F
:100850007F4F82EF93E00E94201181110EC00E9411
:100860002E13C616D706E806F90678F76F8578893D
:1008700083E090E00E949002E8CF0E942E136B016B
:100880007C0188E8C80E83E1D81EE11CF11C42E01F
:1008900069E071E082EF93E00E94201181110EC0A7
:1008A0000E942E13C616D706E806F90680F76F8554
:1008B000788983E090E00E949002E9CF0E942E1395
:1008C0006B017C01E8E8CE0EE3E1DE1EE11CF11CC9
:1008D00042E0BE01635F7F4F82EF93E00E942011F0
:1008E00081110EC00E942E13C616D706E806F9061F
:1008F00078F76F85788983E090E00E949002E8CFD6
:1009000000E010E08D859E850817190709F44BC09B
:100910000E942E136B017C01F8E8CF0EF3E1DF1E7D
:10092000E11CF11CB801CE0101960E940A1941E0B8
:10093000BC0182EF93E00E94201181110EC00E9441
:100940002E13C616D706E806F90660F76F85788974
:1009500083E090E00E949002E5CF0E942E136B018D
:100960007C0188E8C80E83E1D81EE11CF11C42E03E
:10097000B50182EF93E00E94201181110EC00E9408
:100980002E13C616D706E806F90688F76F8578890C
:1009900083E090E00E949002EACF0F5F1F4FE2E0F9
:1009A000AE0EB11CAFCF66EF71E08CE094E00E9418
:1009B000031766E072E08CE094E00E94E4166F8515
:1009C00078894AE050E08CE094E00E94C017CE01A4
:1009D00001960E94E01760960FB6F894DEBF0FBE36
:1009E000CDBFDF91CF911F910F91FF90EF90DF90DE
:1009F000CF90BF90AF909F908F900895AF92BF928D
:100A0000CF92DF92EF92FF920F931F93CF93DF93DA
:100A1000CDB7DEB72A970FB6F894DEBF0FBECDBFB5
:100A200085E0E5E3F3E0DE01169601900D928A95EC
:100A3000E1F7CE0101965C0185E0F50111928A95FE
:100A4000E9F7E0910901F0910A01E952F342E73038
:100A5000F10508F051C5EC5CFF4F66EF71E08CE0EA
:100A600094E00C944A190E9403176AE172E08CE04A
:100A700094E00E94031710910A0100910901712F5F
:100A8000770F770B272F372F472F572F672F82EF9F
:100A900093E00E94711182EF93E00E945B1066EF79
:100AA00071E08CE094E00E9403176AE272E08CE04F
:100AB00094E00E94E4166091E8037091E9034AE033
:100AC00050E08CE094E00E94C01766E372E08CE096
:100AD00094E00E94E4160E942E136B01F8E1CF1AF5
:100AE000FCEFDF0AEE24D7FCE094FE2C45E0BE01CB
:100AF0006A5F7F4F82EF93E00E942011811110C046
:100B00000E942E13C616D706E806F90678F76091FC
:100B1000E8037091E90383E090E00E949002E6CF41
:100B200066EF71E08CE094E00E9403176BE372E0E3
:100B30008CE094E00E94E4166091E8037091E90370
:100B40004AE050E08CE094E00E94C0171AE2E12EE7
:100B500003E2F02E00E010E020E030E040E050E062
:100B600060E082EF93E00E94AD1182EF93E00E947B
:100B7000251066EF71E08CE094E00E9403176CE4AE
:100B800072E08CE094E00E94E4166091E8037091BA
:100B9000E9034AE050E08CE094E00E94C01766E36D
:100BA00072E08CE094E00E94E41682EF93E00E94F1
:100BB000ED108823D1F345E0B50182EF93E00E9468
:100BC000F11066EF71E08CE094E00E940317B5012C
:100BD0008CE094E00E94E41666EF71E08CE094E013
:100BE0000E9403176CE572E08CE094E00E94E4162A
:100BF0006091E8037091E9034AE050E08CE094E0F2
:100C00000E94C01766EF71E08CE094E00E94031729
:100C100063E772E06DC40E94031761E872E08CE044
:100C200094E00E940317A9E2EA2EB3E2FB2E00E053
:100C300010E020E030E040E050E060E082EF93E040
:100C40000E94AD1182EF93E00E94251066EF71E0E3
:100C50008CE094E00E9403176CE472E08CE094E076
:100C60000E94E4164AE050E069E273E28CE094E00E
:100C70000E94C01766E372E08CE094E00E94E416E4
:100C800082EF93E00E94ED108823D1F345E0B50197
:100C900082EF93E00E94F11066EF71E08CE094E047
:100CA0000E940317B5018CE094E00E94E4161091B5
:100CB0000A0100910901712F770F770B272F372F2A
:100CC000472F572F672F82EF93E00E94711182EF19
:100CD00093E00E945B1066EF71E08CE094E00E946C
:100CE00003176AE272E08CE094E00E94E4164AE0A6
:100CF00050E069E273E28CE094E00E94C01766E382
:100D000072E08CE094E00E94E4160E942E136B01C6
:100D100020EDC21A2AE8D20AEE24D7FCE094FE2C79
:100D200045E0BE016A5F7F4F82EF93E00E94201191
:100D3000811110C00E942E13C616D706E806F906C8
:100D400078F76091E8037091E90383E090E00E94F6
:100D50009002E6CF6EEA73E08CE094E00E94031705
:100D60006BE372E08CE094E00E94E4164AE050E00D
:100D700069E273E28CE094E00E94C0176EEA73E0CF
:100D80008CE094E00E94031761E972E0B1C30E9415
:100D900003176FE972E08CE094E00E940317E9E228
:100DA000EE2EF3E2FF2E00E010E020E030E040E025
:100DB00050E060E082EF93E00E94AD1182EF93E09B
:100DC0000E94251066EF71E08CE094E00E9403170A
:100DD0006CE472E08CE094E00E94E4166091E80319
:100DE0007091E9034AE050E08CE094E00E94C01763
:100DF00066E372E08CE094E00E94E41682EF93E0F8
:100E00000E94ED108823D1F345E0B50182EF93E015
:100E10000E94F11066EF71E08CE094E00E940317ED
:100E2000B5018CE094E00E94E41610910A01009153
:100E30000901712F770F770B272F372F472F572F48
:100E4000672F82EF93E00E94711182EF93E00E947E
:100E50005B1066EF71E08CE094E00E9403176AE299
:100E600072E08CE094E00E94E4166091E8037091D7
:100E7000E9034AE050E08CE094E00E94C01766E38A
:100E800072E08CE094E00E94E4160E942E136B0145
:100E9000E0EDCE1AEAE8DE0AEE24D7FCE094FE2C60
:100EA00045E0BE016A5F7F4F82EF93E00E94201110
:100EB000811110C00E942E13C616D706E806F90647
:100EC00078F76091E8037091E90383E090E00E9475
:100ED0009002E6CF6EEA73E08CE094E00E94031784
:100EE0006BE372E08CE094E00E94E4166091E8030A
:100EF0007091E9034AE050E08CE094E00E94C01752
:100F00006EEA73E08CE094E00E9403176FEA72E0EF
:100F1000EFC20E9403176DEB72E08CE094E00E9438
:100F2000031769E2E62E73E2F72E00E010E020E0FE
:100F300030E040E050E060E082EF93E00E94AD11CD
:100F400082EF93E00E94251066EF71E08CE094E060
:100F50000E9403176CE472E08CE094E00E94E416B7
:100F60004AE050E069E273E28CE094E00E94C0172E
:100F700066E372E08CE094E00E94E41682EF93E076
:100F80000E94ED108823D1F345E0B50182EF93E094
:100F90000E94F11066EF71E08CE094E00E9403176C
:100FA000B5018CE094E00E94E41610910A010091D2
:100FB0000901712F770F770B272F372F472F572FC7
:100FC000672F82EF93E00E94711182EF93E00E94FD
:100FD0005B1066EF71E08CE094E00E9403176AE218
:100FE00072E08CE094E00E94E4164AE050E069E28E
:100FF00073E28CE094E00E94C01766E372E08CE03C
:1010000094E00E94E4160E942E136B01F0EDCF1ABB
:10101000FAE8DF0AEE24D7FCE094FE2C45E0BE019E
:101020006A5F7F4F82EF93E00E942011811110C010
:101030000E942E13C616D706E806F90678F76091C7
:10104000E8037091E90383E090E00E949002E6CF0C
:101050006EEA73E08CE094E00E9403176BE372E0A9
:101060008CE094E00E94E4164AE050E069E273E20A
:101070008CE094E00E94C0176EEA73E08CE094E08C
:101080000E9403176DEC72E033C20E9403176BEDF0
:1010900072E08CE094E00E94031749E2E42E53E2F0
:1010A000F52E00E010E020E030E040E050E060E0AD
:1010B00082EF93E00E94AD1182EF93E00E94251031
:1010C00066EF71E08CE094E00E9403176CE472E03C
:1010D0008CE094E00E94E4164AE050E069E273E29A
:1010E0008CE094E00E94C01766E372E08CE094E02C
:1010F0000E94E41682EF93E00E94ED108823D1F362
:1011000045E0B50182EF93E00E94F11066EF71E0D7
:101110008CE094E00E940317B5018CE094E00E94FB
:10112000E41610910A0100910901712F770F770BD6
:10113000272F372F472F572F672F82EF93E00E94DB
:10114000711182EF93E00E945B1066EF71E08CE01A
:1011500094E00E9403176AE272E08CE094E00E943F
:10116000E4164AE050E069E273E28CE094E00E9409
:10117000C01766E372E08CE094E00E94E4160E94DF
:101180002E136B0120EDC21A2AE8D20AEE24D7FCF6
:10119000E094FE2C45E0BE016A5F7F4F82EF93E052
:1011A0000E942011811110C00E942E13C616D7066E
:1011B000E806F90678F76091E8037091E90383E0A7
:1011C00090E00E949002E6CF6EEA73E08CE094E03B
:1011D0000E9403176BE372E08CE094E00E94E41637
:1011E0004AE050E069E273E28CE094E00E94C017AC
:1011F0006EEA73E08CE094E00E9403176BEE72E0FD
:1012000077C10E94031769EF72E08CE094E00E94BE
:10121000031729E2E22E33E2F32E00E010E020E093
:1012200030E040E050E060E082EF93E00E94AD11DA
:1012300082EF93E00E94251066EF71E08CE094E06D
:101240000E9403176CE472E08CE094E00E94E416C4
:101250004AE050E069E273E28CE094E00E94C0173B
:1012600066E372E08CE094E00E94E41682EF93E083
:101270000E94ED108823D1F345E0B50182EF93E0A1
:101280000E94F11066EF71E08CE094E00E94031779
:10129000B5018CE094E00E94E41610910A010091DF
:1012A0000901712F770F770B272F372F472F572FD4
:1012B000672F82EF93E00E94711182EF93E00E940A
:1012C0005B1066EF71E08CE094E00E9403176AE225
:1012D00072E08CE094E00E94E4164AE050E069E29B
:1012E00073E28CE094E00E94C01766E372E08CE049
:1012F00094E00E94E4160E942E136B01E0EDCE1ADA
:10130000EAE8DE0AEE24D7FCE094FE2C45E0BE01BC
:101310006A5F7F4F82EF93E00E942011811110C01D
:101320000E942E13C616D706E806F90678F76091D4
:10133000E8037091E90383E090E00E949002E6CF19
:101340006EEA73E08CE094E00E9403176BE372E0B6
:101350008CE094E00E94E4164AE050E069E273E217
:101360008CE094E00E94C0176EEA73E08CE094E099
:101370000E94031769E073E0BBC00E94031767E196
:1013800073E08CE094E00E94031789E2E82E93E278
:10139000F92E00E010E020E030E040E050E060E0B6
:1013A00082EF93E00E94AD1182EF93E00E9425103E
:1013B00066EF71E08CE094E00E9403176CE472E049
:1013C0008CE094E00E94E4164AE050E069E273E2A7
:1013D0008CE094E00E94C01766E372E08CE094E039
:1013E0000E94E41682EF93E00E94ED108823D1F36F
:1013F00045E0B50182EF93E00E94F11066EF71E0E5
:101400008CE094E00E940317B5018CE094E00E9408
:10141000E41610910A0100910901712F770F770BE3
:10142000272F372F472F572F672F82EF93E00E94E8
:10143000711182EF93E00E945B1066EF71E08CE027
:1014400094E00E9403176AE272E08CE094E00E944C
:10145000E4164AE050E069E273E28CE094E00E9416
:10146000C01766E372E08CE094E00E94E4160E94EC
:101470002E136B01F0EDCF1AFAE8DF0AEE24D7FC49
:10148000E094FE2C45E0BE016A5F7F4F82EF93E05F
:101490000E942011811110C00E942E13C616D7067B
:1014A000E806F90678F76091E8037091E90383E0B4
:1014B00090E00E949002E6CF6EEA73E08CE094E048
:1014C0000E9403176BE372E08CE094E00E94E41644
:1014D0004AE050E069E273E28CE094E00E94C017B9
:1014E0006EEA73E08CE094E00E94031767E273E019
:1014F0008CE094E00E9403172A960FB6F894DEBFA2
:101500000FBECDBFDF91CF911F910F91FF90EF9054
:10151000DF90CF90BF90AF9008958A3091056CF026
:10152000843691056CF0883E23E0920764F08031A8
:10153000974264F484E090E0089581E090E008959B
:1015400082E090E0089583E090E0089585E090E0E7
:101550000895CF92DF92EF92FF920F931F93CF9354
:10156000DF93CDB7DEB72C970FB6F894DEBF0FBE72
:10157000CDBF8C016EEA73E0CE0107960E944E1833
:10158000003385E7180734F060E070E084E090E015
:101590000E949002C8010E948D0A6C014AE0B801C5
:1015A000CE0101960E94DE18BE016F5F7F4FCE0113
:1015B00007960E94BA18CE0101960E94E01700E03B
:1015C00010E00C151D0591F0B80182EE93E00E9429
:1015D0000A197C01B801CE0107960E940A19FC0184
:1015E0008081F70180830F5F1F4FEBCFCE010796FD
:1015F0000E94E0172C960FB6F894DEBF0FBECDBF49
:10160000DF91CF911F910F91FF90EF90DF90CF90DE
:101610000895CF92DF92EF92FF920F931F93CF9393
:10162000DF93CDB7DEB72C970FB6F894DEBF0FBEB1
:10163000CDBF8C0165EF71E0CE0107960E944E1878
:10164000003385E7180734F060E070E084E090E054
:101650000E949002C8010E948D0A6C014AE0B80104
:10166000CE0101960E94DE18BE016F5F7F4FCE0152
:1016700007960E94BA18CE0101960E94E01700E07A
:1016800010E00C151D0591F0B8018CED93E00E945F
:101690000A197C01B801CE0107960E940A19FC01C3
:1016A0008081F70180830F5F1F4FEBCFCE0107963C
:1016B0000E94E0172C960FB6F894DEBF0FBECDBF88
:1016C000DF91CF911F910F91FF90EF90DF90CF901E
:1016D0000895FB01E952F342E730F10500F5E55CBE
:1016E000FF4F0C944A199093D7038093D60390939D
:1016F000D5038093D4039093D3038093D203909324
:10170000D1038093D0039093CF038093CE03909323
:10171000CD038093CC039093CB038093CA030895A9
:10172000FB01E952F342E730F10500F5EE5BFF4FB4
:101730000C944A199093C9038093C8039093C703EC
:101740008093C6039093C5038093C4039093C3030F
:101750008093C2039093C1038093C0039093BF030F
:101760008093BE039093BD038093BC03089566EFFE
:1017700071E08CE094E00E9403176AE373E08CE070
:1017800094E00C94E416CF92DF92EF92FF920F93C5
:101790001F93CF93DF9300D01F92CDB7DEB71A828D
:1017A000198242E0BE016F5F7F4F82EF93E00E949B
:1017B000F11009811A8168E473E08CE094E00E94E2
:1017C000E41669817A814AE050E08CE094E00E945E
:1017D000C8178091090190910A010817190709F0AB
:1017E000B2C082EF93E00E94ED108823D1F342E073
:1017F000BE016F5F7F4F82EF93E00E94F11009817D
:101800001A8164E573E08CE094E00E94E41669813B
:101810007A814AE050E08CE094E00E94C81782EFA1
:1018200093E00E94ED108823D1F342E0BE016F5F88
:101830007F4F82EF93E00E94F110C980DA8062E668
:1018400073E08CE094E00E94E41669817A814AE0BA
:1018500050E08CE094E00E94C817E12CF12CEC14CD
:10186000FD0409F464C082EF93E00E94ED10882328
:10187000D1F341E0BE016D5F7F4F82EF93E00E94A4
:10188000F11061E773E08CE094E00E94E4166B8154
:101890008CE094E00E9415178B818D34A1F482EFC7
:1018A00093E00E94ED108823D1F342E0BE016F5F08
:1018B0007F4F82EF93E00E94F110B80189819A81F5
:1018C0000E94900B30C08435A1F482EF93E00E9417
:1018D000ED108823D1F342E0BE016F5F7F4F82EFAE
:1018E00093E00E94F110B80189819A810E94690BEE
:1018F0001AC0823599F482EF93E00E94ED1088239C
:10190000D1F342E0BE016F5F7F4F82EF93E00E9410
:10191000F11089819A810E94B70B05C0B80185E05A
:1019200090E00E9490028FEFE81AF80A98CF66EFD5
:1019300071E08CE094E00E9403176DE772E08CE0A8
:1019400094E00E94E4160F900F900F90DF91CF91DA
:101950001F910F91FF90EF90DF90CF900895EF923D
:10196000FF920F931F9326E040E855E260E070E09D
:101970008CE094E00E94811582EF93E00E94941223
:1019800060E082E00E94061460E083E00E9406149A
:1019900060E084E00E94061460E085E00E94061486
:1019A00061E087E00E9406140E94480280910901CC
:1019B00090910A018F3027E2920719F08732934203
:1019C0003CF460E070E081E090E00E94900210C082
:1019D00068E773E08CE094E00E94031760910901CE
:1019E00070910A014AE050E08CE094E00E94C81730
:1019F0000E94850168EE73E080E090E00E945D1334
:101A00000E94FE04F090E903E090E8035F2D550F7B
:101A1000550B052F152F252F352F452F60E082EF11
:101A200093E00E94AD11F090EB03E090EA035F2D8C
:101A3000550F550B052F152F252F352F452F61E0FD
:101A400082EF93E00E94AD11F090ED03E090EC0383
:101A50005F2D550F550B052F152F252F352F452F92
:101A600062E082EF93E00E94AD11F090EF03E0900E
:101A7000EE035F2D550F550B052F152F252F352FF5
:101A8000452F63E082EF93E00E94AD11F090F103E7
:101A9000E090F0035F2D550F550B052F152F252FC7
:101AA000352F452F64E082EF93E00E94AD1182EF65
:101AB00093E01F910F91FF90EF900C942510CF931E
:101AC000DF93CDB7DEB762970FB6F894DEBF0FBED7
:101AD000CDBF82E490E00E94090B89EE90E00E9465
:101AE000A90A0E942E1300910701109108012227D4
:101AF00017FD2095322F600F711F821F931F609377
:101B0000D8037093D9038093DA039093DB030E9488
:101B10002E130091D8031091D9032091DA0330914C
:101B2000DB03061717072807390708F04EC0109285
:101B300006018091090190910A018932934279F15D
:101B40000091E8031091E9036EEA73E0CE0101967B
:101B50000E944E186EEA73E0CE0107960E944E185E
:101B600062EE73E0CE010D960E94B1189E012F5FC8
:101B70003F4FAE01495F5F4FBE01635F7F4F81E022
:101B800090E00E947703CE010D960E94E017CE01EF
:101B900007960E94E017CE0101960E94E0170E946E
:101BA0002E130091070110910801222717FD20959F
:101BB000322F600F711F821F931F6093D8037093A1
:101BC000D9038093DA039093DB0385E00E947514B8
:101BD0000197B1F480910601882331F060E070E054
:101BE00082E090E00E94900264EC79E080E090E076
:101BF0000E945D1365E873E08CE094E00E94031797
:101C000082EF93E00E94ED10882309F480CF0E94B8
:101C1000C30B66EF71E08CE094E00E9403176091C3
:101C2000C6037091C7034AE050E08CE094E00E9444
:101C3000C8176091D4037091D5034AE050E08CE05E
:101C400094E00E94C81763CF4AE069E082EF93E016
:101C50000E940B106CE873E082EE93E00E944E1835
:101C600064E973E08CED93E00C944E188CED93E0F6
:101C70000E94E01782EE93E00C94E017CF93CFB769
:101C8000F89480910204811127C0E7E8F2E0849182
:101C9000E3E7F2E09491E82FF0E0EE0FFF1FEB5541
:101CA000FD4FA591B4918C91892321F461E08AE0E4
:101CB0000E943F1461E08AE00E9406148CB58061A6
:101CC0008CBD8CB580648CBD61E08DE00E940614F3
:101CD00061E08BE00E940614809102048F5F809384
:101CE0000204CFBFCF9108958EBD00000DB407FE52
:101CF000FDCF8EB508952CB52F7D2CBD2CB5237F3F
:101D00002CBD2CB52C7F2CBD2DB52E7F2DBDFC01FF
:101D100081810C943F14FC0180810C943F14CF927C
:101D2000DF92EF92FF920F931F93CF93DF9300D038
:101D3000CDB7DEB78C01E62EF22E60E070E049836D
:101D40005A830E947B0E8E2D8F710E94740EE82E96
:101D50004981C42E5A81D52EF40EFC1439F08FEF30
:101D60000E94740EF60181936F01F7CF61E070E07D
:101D7000C8010E947B0E8E2D0F900F90DF91CF91A6
:101D80001F910F91FF90EF90DF90CF9008951F93D8
:101D9000CF93DF93EC01162F60E070E00E947B0E82
:101DA000812F8F710E94740E8FEF0E94740E182F76
:101DB00061E070E0CE010E947B0E812FDF91CF9118
:101DC0001F910895CF92DF92EF92FF920F931F938E
:101DD000CF93DF9300D0CDB7DEB78C01E62EF22E85
:101DE00060E070E049835A830E947B0E8E2D8F71D4
:101DF00080620E94740EE82E4981C42E5A81D52E2D
:101E0000F40EFC1431F0F60181916F010E94740E02
:101E1000F8CF61E070E0C8010E947B0E8E2D0F901C
:101E20000F90DF91CF911F910F91FF90EF90DF9076
:101E3000CF900895EF92FF921F93CF93DF931F925D
:101E4000CDB7DEB77C01162F60E070E049830E94B9
:101E50007B0E812F8F7180620E94740E182F498132
:101E6000842F0E94740E61E070E0C7010E947B0E17
:101E7000812F0F90DF91CF911F91FF90EF900895E8
:101E8000BF92CF92DF92EF92FF920F931F93CF9367
:101E9000DF938C01D62EB72EFC01C481F42EC4171B
:101EA00008F4FC2EF8018681811103C0EC2EEF1896
:101EB00001C0E12C60E070E0C8010E947B0E80EA66
:101EC0000E94740EC82ECD2DDB2DFD0CFC1621F0CA
:101ED00089910E94740EFACFCE2DCC2329F080E098
:101EE0000E94740EC150F9CF61E070E0C8010E94F9
:101EF0007B0E8C2DDF91CF911F910F91FF90EF9072
:101F0000DF90CF90BF900895BF92CF92DF92EF9273
:101F1000FF920F931F93CF93DF938C01D62EB72E92
:101F2000FC01C481F42EC41708F4FC2EF80186814C
:101F3000811103C0EC2EEF1801C0E12C60E070E0CD
:101F4000C8010E947B0E81E60E94740EC82ECD2D22
:101F5000DB2DFD0CFC1629F08FEF0E94740E899387
:101F6000F9CFCE2DCC2329F08FEF0E94740EC150F3
:101F7000F9CF61E070E0C8010E947B0E8C2DDF91EB
:101F8000CF911F910F91FF90EF90DF90CF90BF9076
:101F900008951F93CF93DF93EC0160E070E00E94FF
:101FA0007B0E82EE0E94740E182F61E070E0CE016D
:101FB0000E947B0E812FDF91CF911F9108951F9377
:101FC000CF93DF93EC0160E070E00E947B0E81EE26
:101FD0000E94740E182F61E070E0CE010E947B0E0B
:101FE000812FDF91CF911F9108951F93CF93DF939E
:101FF000EC0160E070E00E947B0E8FEF0E94740E97
:10200000182F61E070E0CE010E947B0E812FDF91DE
:10201000CF911F910895FC016083418381E0828309
:10202000138280E2848315821682108611861286BE
:10203000138614861586168617860895462F6038EF
:1020400008F04FE765E00C941A0FCF93DF93EC0193
:1020500060E00E94C70E482F436060E0CE010E94FE
:102060001A0F40E767E0CE010E941A0F28853985D4
:102070004A855B856C857D858E859F85A0E00E9465
:10208000501941F025E0AE01485F5F4F6AE0CE0194
:102090000E94E20ECE010E94C90FCE010E94DF0F06
:1020A00061E070E0CE010E948B0E82E890E0DF914B
:1020B000CF910C949713CF93DF93EC0160E070E025
:1020C0000E948B0ECE010E94DF0FCE01DF91CF91D7
:1020D0000C94C90FCF93DF93EC0160E00E94C70E10
:1020E000482F4D7F60E0CE01DF91CF910C941A0F05
:1020F000FF920F931F93CF93DF93EC018B01F42E8C
:1021000060E00E94C70E482F4C7F426060E0CE0125
:102110000E941A0F86E990E00E9497134F2DB80194
:10212000CE010E94400F61E070E0CE010E948B0E54
:102130008FE090E00E94971360E070E0CE01DF91A5
:10214000CF911F910F91FF900C948B0E1F93CF9303
:10215000DF93EC0160E070E00E947B0E80E60E945D
:10216000740E8FEF0E94740E182F61E070E0CE01A4
:102170000E947B0E812FDF91CF911F910895EF92E6
:10218000FF920F931F93CF93DF93EC018B010E947B
:10219000F50FF82E86FBEE24E0F886FF16C0011539
:1021A000110539F0282F30E0359527952770F80173
:1021B000208340E467E0CE010E941A0FF5FE05C0BF
:1021C00040E267E0CE010E941A0F8E2DDF91CF9181
:1021D0001F910F91FF90EF90089560E070E00C94D4
:1021E000BF10CF93DF93EC010E94840F67E1CE0113
:1021F0000E94C70E8170DF91CF910895EF92FF92F8
:102200000F931F93CF93DF93EB018A01790140E78E
:1022100067E00E941A0F85FB992790F9988384FB49
:10222000992790F9F801908386FB882780F9F701B8
:102230008083DF91CF911F910F91FF90EF900895D0
:10224000CF92DF92EF92FF920F931F93CF93DF9382
:1022500000D01F92CDB7DEB78C010E9478100E948B
:102260002E136B017C0121E0AE014D5F5F4F68E0F2
:10227000C8010E948F0E807359F40E942E136C19AE
:102280007D098E099F09643F71408105910558F3CE
:1022900098012B5F3F4FAE014F5F5F4FBE016E5FF6
:1022A0007F4FC8010E94FE10FA80F80185818823C3
:1022B00029F0C8010E94A610F8018783C8010E9476
:1022C0006A10C8010E94DF0F8F2D0F900F900F90A2
:1022D000DF91CF911F910F91FF90EF90DF90CF9002
:1022E0000895EF92FF920F931F93CF93DF93CDB793
:1022F000DEB728970FB6F894DEBF0FBECDBF7C01C6
:1023000009831A832B833C834D835E836F83788795
:1023100025E0AE014F5F5F4F6AE00E94E20E25E0CC
:10232000AE014F5F5F4F60E1C7010E94E20EF7010F
:102330004481413208F040E261E1C7010E941A0F76
:1023400028960FB6F894DEBF0FBECDBFDF91CF91B8
:102350001F910F91FF90EF900895BF92CF92DF925F
:10236000EF92FF920F931F93CF93DF93CDB7DEB71A
:1023700028970FB6F894DEBF0FBECDBF6C01B62E06
:10238000E982FA820B831C832D833E834F83588717
:1023900061110AC0F601E086F1860287138724875F
:1023A00035874687578707C0F6E0F61708F435C02B
:1023B00081E0681307C0EB2DF0E0E552FE4F649119
:1023C00025E006C0E62FF0E0E552FE4F649121E0E3
:1023D000AE014F5F5F4FC6010E94E20E0B2D10E071
:1023E000F801EB52FE4F6491F6014481C6010E9450
:1023F0001A0F62E0C6010E94C70EF801E153FE4FBA
:10240000049121E030E001C0220F0A95EAF7822B07
:10241000482F62E0C6010E941A0F28960FB6F89462
:10242000DEBF0FBECDBFDF91CF911F910F91FF9007
:10243000EF90DF90CF90BF9008950F931F93CF93AD
:10244000DF938C01EB0166E00E94C70E482F497FA5
:10245000C330D10561F0C230D10511F4446008C029
:10246000C130D10511F4426003C0249709F44660DD
:1024700066E0C801DF91CF911F910F910C941A0F64
:10248000EF92FF920F931F93CF93DF931F92CDB7DD
:10249000DEB77C018B0166E00E94C70EF701128255
:1024A000282F277D0230110511F4206207C001306A
:1024B000110521F481E0F70182832860422F66E054
:1024C000C70129830E941A0F66E0C7010E94C70E48
:1024D0002981821721F0F701128280E001C081E09A
:1024E0000F90DF91CF911F910F91FF90EF90089582
:1024F0000F931F93CF93DF93EC018B0160E00E9459
:10250000C70E482F437F0115110531F00130110529
:1025100011F4486001C04C6060E0CE01DF91CF91C2
:102520001F910F910C941A0FCF93DF93EC0161E090
:1025300088810E94061461E089810E9406140E942D
:102540003E0E60E070E0CE010E948B0E61E070E014
:10255000CE010E947B0E65E070E080E090E00E947A
:102560005D134FE464E0CE010E941A0F63E070E057
:10257000CE010E941D1262E070E0CE010E94401266
:10258000882311F081E08B8360E070E0CE010E942F
:10259000401262E070E0CE010E94781240E06CE1EF
:1025A000CE010E941A0F40E767E0CE010E941A0F89
:1025B0006CE4CE010E941E10CE010E94C90FCE0114
:1025C000DF91CF910C94DF0F1F920F920FB60F92F5
:1025D00011242F933F938F939F93AF93BF93809139
:1025E000040490910504A0910604B0910704309171
:1025F000030423E0230F2D3720F40196A11DB11D04
:1026000005C026E8230F0296A11DB11D20930304E7
:102610008093040490930504A0930604B0930704E8
:102620008091080490910904A0910A04B0910B04D0
:102630000196A11DB11D8093080490930904A093F5
:102640000A04B0930B04BF91AF919F918F913F917A
:102650002F910F900FBE0F901F9018952FB7F894E1
:102660006091040470910504809106049091070420
:102670002FBF08953FB7F894809108049091090402
:10268000A0910A04B0910B0426B5A89B05C02F3F6A
:1026900019F00196A11DB11D3FBF6627782F892F24
:1026A0009A2F620F711D811D911D42E0660F771FE9
:1026B000881F991F4A95D1F708958F929F92AF92E4
:1026C000BF92CF92DF92EF92FF926B017C010E944A
:1026D0003A134B015C01C114D104E104F104F1F09F
:1026E0000E9427190E943A13681979098A099B09DF
:1026F000683E73408105910570F321E0C21AD1084C
:10270000E108F10888EE880E83E0981EA11CB11C38
:10271000C114D104E104F10429F7DDCFFF90EF905B
:10272000DF90CF90BF90AF909F908F9008958230B0
:10273000910538F0880F991F880F991F0597019709
:10274000F1F70895789484B5826084BD84B5816082
:1027500084BD85B5826085BD85B5816085BDEEE6A9
:10276000F0E0808181608083E1E8F0E01082808188
:1027700082608083808181608083E0E8F0E08081F6
:1027800081608083E1EBF0E0808184608083E0EB16
:10279000F0E0808181608083EAE7F0E080818460FE
:1027A000808380818260808380818160808380815A
:1027B000806880831092C1000895833081F028F4EE
:1027C000813099F08230A1F008958730A9F08830E7
:1027D000B9F08430D1F4809180008F7D03C0809166
:1027E00080008F7780938000089584B58F7702C032
:1027F00084B58F7D84BD08958091B0008F7703C02C
:102800008091B0008F7D8093B0000895CF93DF93C7
:1028100090E0FC01E759FD4F2491FC01E358FD4F86
:102820008491882349F190E0880F991FFC01EB55B2
:10283000FD4FA591B49185569D4FFC01C591D49152
:102840009FB7611108C0F8948C91209582238C93D6
:10285000888182230AC0623051F4F8948C91322F1F
:10286000309583238C938881822B888304C0F894CD
:102870008C91822B8C939FBFDF91CF9108950F9302
:102880001F93CF93DF931F92CDB7DEB7282F30E091
:10289000F901EB5AFD4F8491F901E759FD4F14916D
:1028A000F901E358FD4F04910023C9F0882321F07A
:1028B00069830E94DD136981E02FF0E0EE0FFF1FB6
:1028C000E556FD4FA591B4919FB7F8948C91611195
:1028D00003C01095812301C0812B8C939FBF0F9063
:1028E000DF91CF911F910F910895CF93DF93282F00
:1028F00030E0F901EB5AFD4F8491F901E759FD4FA2
:10290000D491F901E358FD4FC491CC2391F081118A
:102910000E94DD13EC2FF0E0EE0FFF1FEF56FD4F8E
:10292000A591B4912C912D2381E090E021F480E0D9
:1029300002C080E090E0DF91CF910895FC01818D8D
:10294000228D90E0805C9F4F821B91098F739927A5
:102950000895FC01918D828D981731F0828DE80FDA
:10296000F11D858D90E008958FEF9FEF0895FC0194
:10297000918D828D981761F0828DDF01A80FB11DB6
:102980005D968C91928D9F5F9F73928F90E00895DA
:102990008FEF9FEF08958BE396E1892B49F080E05C
:1029A00090E0892B29F00E943B1681110C940000C5
:1029B0000895FC01848DDF01A80FB11DA35ABF4FFC
:1029C0002C91848D90E001968F739927848FA6892E
:1029D000B7892C93A089B1898C9180648C93938D55
:1029E000848D981306C00288F389E02D80818F7D45
:1029F00080830895CF93DF93EC01888D8823C9F0FD
:102A0000EA89FB89808185FD05C0A889B9898C91F7
:102A100086FD0FC00FB607FCF5CF808185FFF2CF92
:102A2000A889B9898C9185FFEDCFCE010E94D91478
:102A3000E7CFDF91CF910895CF92DF92FF920F936E
:102A40001F93CF93DF931F92CDB7DEB76C0181E068
:102A5000D60158968C9358975B969C915B975C96A1
:102A60008C915C97981307C05096ED91FC9151970B
:102A7000808185FD2EC0F601038D10E00F5F1F4F92
:102A80000F731127F02EF601848DF81211C00FB6C6
:102A900007FCF9CFD6015096ED91FC9151978081BA
:102AA00085FFF1CFC60169830E94D9146981EBCFFC
:102AB000838DE80FF11DE35AFF4F6083D6015B96CB
:102AC0000C935B975296ED91FC91539780818062B5
:102AD0000CC0D6015696ED91FC91579760835096A5
:102AE000ED91FC91519780818064808381E090E03A
:102AF0000F90DF91CF911F910F91FF90DF90CF90BA
:102B00000895BF92CF92DF92EF92FF92CF93DF931F
:102B1000EC016A017B01B22EE889F98982E08083A9
:102B2000411581EE580761057105A1F060E079E07B
:102B30008DE390E0A70196010E94281921503109E8
:102B4000410951095695479537952795211580E1FB
:102B5000380798F0E889F989108260E874E88EE116
:102B600090E0A70196010E942819215031094109DE
:102B700051095695479537952795EC85FD85308306
:102B8000EE85FF852083188EEC89FD89B082EA8965
:102B9000FB89808180618083EA89FB8980818860EC
:102BA0008083EA89FB89808180688083EA89FB8948
:102BB00080818F7D8083DF91CF91FF90EF90DF90B8
:102BC000CF90BF9008951F920F920FB60F921124CD
:102BD0002F938F939F93EF93FF93E0911C04F091B9
:102BE0001D048081E0912204F091230482FD12C033
:102BF0009081809125048F5F8F7320912604821726
:102C000051F0E0912504F0E0E45FFB4F958F809355
:102C1000250401C08081FF91EF919F918F912F91A9
:102C20000F900FBE0F901F9018951F920F920FB626
:102C30000F9211242F933F934F935F936F937F9342
:102C40008F939F93AF93BF93EF93FF938CE094E0A8
:102C50000E94D914FF91EF91BF91AF919F918F91F5
:102C60007F916F915F914F913F912F910F900FBE88
:102C70000F901F9018958CE094E00E949E1421E024
:102C8000892B09F420E0822F089510920F041092EE
:102C90000E0488EE93E0A0E0B0E0809310049093DF
:102CA0001104A0931204B093130480EA93E090936C
:102CB0000D0480930C0485EC90E0909319048093AC
:102CC000180484EC90E090931B0480931A0480EC29
:102CD00090E090931D0480931C0481EC90E090930D
:102CE0001F0480931E0482EC90E090932104809353
:102CF000200486EC90E090932304809322041092A9
:102D00002504109226041092270410922804089596
:102D100008950E94A2130E9488160E94AF0CCBEC6B
:102D2000D4E10E945F0D2097E1F30E94CB14F9CF0C
:102D3000CF92DF92EF92FF920F931F93CF93DF9387
:102D40007C016A01EB0100E010E00C151D0571F03B
:102D50006991D701ED91FC910190F081E02DC701BF
:102D60000995892B19F00F5F1F4FEFCFC801DF9135
:102D7000CF911F910F91FF90EF90DF90CF9008952A
:102D80006115710581F0DB010D900020E9F7AD01BF
:102D900041505109461B570BDC01ED91FC9102801B
:102DA000F381E02D099480E090E00895DC01ED913D
:102DB000FC91DB0114964D915C9115976D917C917E
:102DC0000280F381E02D09940C94C016DC01ED9192
:102DD000FC910190F081E02D09946CEA73E00C9471
:102DE000C0160F931F93CF93DF93EC010E94D6166A
:102DF0008C01CE010E94ED16800F911FDF91CF91C3
:102E00001F910F9108950F931F93CF93DF93EC01C0
:102E10000E94C0168C01CE010E94ED16800F911FFA
:102E2000DF91CF911F910F9108950F931F93CF932F
:102E3000DF93EC010E94E6168C01CE010E94ED1694
:102E4000800F911FDF91CF911F910F9108958F9265
:102E50009F92AF92BF92DF92EF92FF920F931F93D8
:102E6000CF93DF93CDB7DEB7A1970FB6F894DEBF4F
:102E70000FBECDBF7C01F42FD52ECB0119A222307D
:102E800008F42AE08E010F5D1F4F822E912CA12C99
:102E9000B12C6F2F7D2DA50194010E942819F22FCE
:102EA000D32ECA01015011096A3014F4E0E301C0C5
:102EB000E7E3E60FD801EC93232B242B252B49F7CE
:102EC000B801C7010E94C016A1960FB6F894DEBFE4
:102ED0000FBECDBFDF91CF911F910F91FF90EF906B
:102EE000DF90BF90AF909F908F900895CF92DF9228
:102EF000EF92FF920F931F93CF93DF93EC016A0140
:102F00007B012115310579F4E881F9810190F08187
:102F1000E02D642FDF91CF911F910F91FF90EF90E3
:102F2000DF90CF9009942A303105E9F477FF1AC079
:102F30006DE20E94E6168C0144275527BA014C1910
:102F40005D096E097F092AE0CE010E942717800FD4
:102F5000911FDF91CF911F910F91FF90EF90DF9024
:102F6000CF9008952AE0B701A601CE01DF91CF915D
:102F70001F910F91FF90EF90DF90CF900C94271747
:102F80009A01AB01662757FD6095762F0C94761752
:102F90000F931F93CF93DF93EC019A01AB01662748
:102FA00057FD6095762F0E9476178C01CE010E9406
:102FB000ED16800F911FDF91CF911F910F91089512
:102FC000FC01808191810C94F419CF93DF93EC0183
:102FD00088819981009711F00E94F4191982188252
:102FE0001D821C821B821A82DF91CF9108950F935C
:102FF0001F93CF93DF93EC018B016F5F7F4F88812D
:1030000099810E94831A009731F0998388831B83EA
:103010000A8381E001C080E0DF91CF911F910F9181
:103020000895CF93DF93EC0188819981892B29F052
:103030008A819B818617970760F4CE010E94F7175B
:10304000882341F08C819D81892B19F4E881F981D5
:10305000108281E0DF91CF910895EF92FF920F935C
:103060001F93CF93DF93EC017B018A01BA010E9489
:103070001118811104C0CE010E94E51707C01D83FD
:103080000C83B701888199810E947D1BCE01DF915D
:10309000CF911F910F91FF90EF900895FC01118245
:1030A000108213821282158214826115710559F003
:1030B000FB0101900020E9F7AF0141505109461B87
:1030C000570B0C942D1808950F931F93CF93DF93F4
:1030D0008C01EB01FC0180819181009799F0428184
:1030E00053812C813D814217530750F068817981CB
:1030F0000E947D1B8C819D81F8019583848313C080
:103100000E94F41988819981F801918380838A81D2
:103110009B81938382838C819D8195838483198293
:1031200018821B821A821D821C82DF91CF911F910F
:103130000F910895CF93DF93EC01FB01861797075A
:1031400061F0608171816115710529F044815581BB
:103150000E942D1802C00E94E517CE01DF91CF9189
:103160000895FC011182108213821282158214824A
:103170000C949A18CF93DF93EC018617970711F000
:103180000E946418CE01DF91CF910895CF93DF9311
:10319000EC016115710561F0FB0101900020E9F778
:1031A000AF0141505109461B570B0E942D1802C018
:1031B0000E94E517CE01DF91CF9108950F931F93E1
:1031C000CF93DF93CDB7DEB762970FB6F894DEBF2B
:1031D0000FBECDBF8C01CB01F8011182108213828A
:1031E00012821582148250E0BE016F5F7F4F0E94F1
:1031F000841BBE016F5F7F4FC8010E94C618629694
:103200000FB6F894DEBF0FBECDBFDF91CF911F91F7
:103210000F910895FC01848195816817790720F446
:1032200080819181009729F41092A90489EA94E0A1
:103230000895860F971F0895FC0180819181009762
:1032400011F00C944D1B60E070E0CB0108950895DF
:10325000A1E21A2EAA1BBB1BFD010DC0AA1FBB1F9A
:10326000EE1FFF1FA217B307E407F50720F0A21B0C
:10327000B30BE40BF50B661F771F881F991F1A9479
:1032800069F760957095809590959B01AC01BD01A3
:10329000CF010895EE0FFF1F0590F491E02D0994E2
:1032A0000024A7FD00942A1730054005500560054D
:1032B0007005800590050895CF93DF9382309105C6
:1032C00010F482E090E0E091AC04F091AD0420E0D5
:1032D00030E0A0E0B0E0309739F1408151814817EB
:1032E0005907B8F04817590771F4828193811097F4
:1032F00029F013969C938E9312972CC09093AD0453
:103300008093AC0427C02115310531F042175307D3
:1033100018F0A901DB0101C0EF019A01BD01DF0135
:103320000280F381E02DD7CF21153105F9F0281B5C
:10333000390B2430310580F48A819B816115710538
:1033400021F0FB019383828304C09093AD048093AA
:10335000AC04FE01329644C0FE01E20FF31F8193DC
:10336000919322503109398328833AC02091AA04CD
:103370003091AB04232B41F42091020130910301E1
:103380003093AB042093AA042091000130910101F5
:103390002115310541F42DB73EB7409104015091FC
:1033A0000501241B350BE091AA04F091AB04E21750
:1033B000F307A0F42E1B3F0B2817390778F0AC0158
:1033C0004E5F5F4F2417350748F04E0F5F1F509335
:1033D000AB044093AA048193919302C0E0E0F0E033
:1033E000CF01DF91CF910895CF93DF93009709F438
:1033F00087C0FC01329713821282C091AC04D09135
:10340000AD04209781F420813181280F391F8091EC
:10341000AA049091AB048217930779F5F093AB045B
:10342000E093AA046DC0DE0120E030E0AE17BF07D4
:1034300050F412964D915C9113979D0141155105E1
:1034400009F1DA01F3CFB383A28340815181840F64
:10345000951F8A179B0771F48D919C911197840F8A
:10346000951F02969183808312968D919C9113975C
:10347000938382832115310529F4F093AD04E09301
:10348000AC043EC0D9011396FC93EE9312974D9174
:103490005D91A40FB51FEA17FB0779F48081918134
:1034A000840F951F0296D90111969C938E93828169
:1034B000938113969C938E931297E0E0F0E08A81BB
:1034C0009B81009719F0FE01EC01F9CFCE01029625
:1034D00028813981820F931F2091AA043091AB0477
:1034E0002817390769F4309729F41092AD04109227
:1034F000AC0402C013821282D093AB04C093AA041E
:10350000DF91CF910895A0E0B0E0E9E8FAE10C94F2
:10351000DD1BEC01CB01209719F40E945C19B8C0A7
:10352000FE01E60FF71F9E0122503109E217F30753
:1035300008F4ACC0D9010D911C911197061717071B
:10354000B8F00530110508F49FC0A8014450510996
:103550004617570708F498C002501109061B170BAD
:10356000019311936D937C93CF010E94F4198CC049
:103570005B01A01AB10A4E01800E911EA091AC040D
:10358000B091AD04612C712C60E070E0109709F4EB
:1035900049C0A815B905C9F5ED90FC9011976701D0
:1035A00042E0C40ED11CCA14DB0478F147018A182A
:1035B0009B08640142E0C40ED11C1296BC90129785
:1035C0001396AC91B5E0CB16D10440F0B282A38340
:1035D00091828082D9018D939C9309C00E5F1F4F09
:1035E0000E0D1F1DF90111830083EB2DFA2F6115BC
:1035F000710531F0DB011396FC93EE93129744C0F2
:10360000F093AD04E093AC043FC06D917C911197B1
:103610006616770608F43B01BD0112960D90BC9129
:10362000A02DB4CF6091AA047091AB046815790500
:10363000E9F468167906D0F4409100015091010137
:103640004115510541F44DB75EB760910401709189
:103650000501461B570BE417F507C0F4F093AB04C4
:10366000E093AA04F901918380830EC00E945C1943
:103670007C01009759F0A801BE010E94741BCE0185
:103680000E94F419C70104C0CE0102C080E090E09E
:10369000CDB7DEB7EEE00C94F91B1F93FC01992720
:1036A0008827BC01E89411911032E9F3193010F029
:1036B0001E30C8F31B3251F01D3249F4689406C025
:1036C0000E949A1B610F711D811D911D1191105354
:1036D0001A30B0F33EF490958095709561957F4FC8
:1036E0008F4F9F4F1F910895FB01DC0102C0019095
:1036F0000D9241505040D8F70895FB01DC01019034
:103700000D920020E1F708954532510520F4423032
:1037100010F00C948F1BFB011082CB010895BB2786
:103720004A3031F4992322F4BDE2909581959F4F60
:103730000C94B01B592F482F372F262F660F771F59
:10374000881F991F660F771F881F991F620F731FAD
:10375000841F951F660F771F881F991F0895BB2729
:10376000FB015527AA27880F991FAA1FA41710F03D
:10377000A41B83955051B9F7A05DAA3308F0A95D49
:10378000A193009779F7B111B1931192CB010C94E9
:10379000C91BDC01FC01672F71917723E1F7329798
:1037A00004C07C916D9370836291AE17BF07C8F31C
:1037B00008952F923F924F925F926F927F928F92D5
:1037C0009F92AF92BF92CF92DF92EF92FF920F93B0
:1037D0001F93CF93DF93CDB7DEB7CA1BDB0B0FB6BA
:1037E000F894DEBF0FBECDBF09942A883988488877
:1037F0005F846E847D848C849B84AA84B984C8840D
:10380000DF80EE80FD800C811B81AA81B981CE0F03
:10381000D11D0FB6F894DEBF0FBECDBFED010895E8
:1038200012E0C4EBD2E004C0FE010E944C192296C3
:0A383000C63BD107C9F7F894FFCF9B
:10383A000000AE0480000170170F274552524F5204
:10384A002030303121212053746174696F6E2061F8
:10385A00646472657373206E6F74207365742100DB
:10386A00506C6561736520726573746172742100AE
:10387A004552524F52203030322121205049522095
:10388A0073656E736F72206E6F7420666F756E64E7
:10389A002100506C6561736520636865636B206302
:1038AA006F6E6E656374696F6E20616E64207265F7
:1038BA00737461727421004552524F522030303372
:1038CA002121204D657373616765206E6F742073C3
:1038DA00656E7420746F20004552524F522030306A
:1038EA0034212120497373756520776974682063D0
:1038FA006F6465004552524F5220303035212120E5
:10390A0053746174696F6E200020646964206E6F5D
:10391A007420736574206D657373616765207479AB
:10392A0070652121002020002F2F2F2F2F2F2F2FBE
:10393A002F2F2F2F2F004D65737361676528732909
:10394A002073656E7420746F20006361736520397B
:10395A003030312073746172740053656E64696E1D
:10396A006720746F2000202E2E2E004D6573736120
:10397A0067652073656E7420746F200052656365F5
:10398A006976696E672066726F6D20004D65737384
:10399A006167652052656365697665642066726F42
:1039AA006D200063617365203930303120454E4403
:1039BA000063617365203930303220737461727428
:1039CA000063617365203930303220454E4400630C
:1039DA006173652039303033207374617274006307
:1039EA00617365203930303320454E44006361737A
:1039FA0065203930303420737461727400636173E6
:103A0A0065203930303420454E44006361736520A7
:103A1A0039303035207374617274006361736520C4
:103A2A003930303520454E440063617365203930A2
:103A3A0030362073746172740063617365203930A3
:103A4A00303620454E440063617365203930303783
:103A5A002073746172740063617365203930303782
:103A6A0020454E440070696E6700446F696E672096
:103A7A00436F6D6D616E6400544F61646472657367
:103A8A00733A200046524F4D616464726573733A0B
:103A9A002000416D6F756E746F66446174613A20DF
:103AAA0000545950453A200041646472657373208A
:103ABA0069733A20004D4F54494F4E002020202070
:103ACA0020204D002020202020205400000000004B
:103ADA001C1598169E14B714A914FA140D0A006E30
:0C3AEA00616E00696E66006F7666000079
:00000001FF
