:100000000C944C010C9474010C9474010C947401C4
:100010000C9474010C9474010C9474010C9474018C
:100020000C9474010C9474010C9474010C9474017C
:100030000C9474010C9474010C9474010C9474016C
:100040000C94EE0F0C9474010C94ED120C941F138D
:100050000C9474010C9474010C9474010C9474014C
:100060000C9474010C9474012B040305BF058106E4
:100070003D07F907B508504120506F776572092098
:100080003D2025530D0A00435243204C656E677492
:100090006809203D2025530D0A004D6F64656C09E9
:1000A00009203D2025530D0A0044617461205261EE
:1000B000746509203D2025530D0A0044594E5044D3
:1000C0002F4645415455524500434F4E464947003F
:1000D00052465F53455455500052465F43480045D1
:1000E0004E5F52584144445200454E5F41410052D8
:1000F000585F50575F50302D360054585F4144448C
:10010000520052585F414444525F50322D350052E4
:10011000585F414444525F50302D31000D0A002594
:1001200030327800203078002553092563203D00C7
:100130000D0A0020307825303278002553092563D8
:10014000203D004F4253455256455F54583D25309F
:1001500032783A20504F4C535F434E543D2578201F
:100160004152435F434E543D25780D0A005354419C
:100170005455530909203D203078253032782052DB
:10018000585F44523D25782054585F44533D2578AC
:10019000204D41585F52543D25782052585F505FA2
:1001A0004E4F3D25782054585F46554C4C3D2578A0
:1001B0000D0A000001020304051112131415160A9A
:1001C0000B0C0D0E0FE301DC01D501CD0150415F99
:1001D00048494748004C415F4D45440050415F4C01
:1001E0004F570050415F4D494E00FF01F801F001AB
:1001F0003136206269747300382062697473004478
:10020000697361626C65640016020C026E524632BC
:10021000344C30312B006E524632344C3031003386
:10022000022D0225023235304B42505300324D42EE
:10023000505300314D4250530000000008000201AD
:100240000000030407000000000000000001020499
:100250000810204080010204081020010204081048
:10026000200404040404040404020202020202033F
:1002700003030303030000000023002600290000FD
:10028000000000250028002B0000000000240027AB
:10029000002A0000420B4F1311241FBECFEFD8E0FD
:1002A000DEBFCDBF13E0A0E0B1E0E6E1F0E302C0C5
:1002B00005900D92A033B107D9F723E0A0E3B3E096
:1002C00001C01D92AD3FB207E1F712E0C8E9D2E0EC
:1002D00004C02297FE010E94F917C439D107C9F75B
:1002E0000E9493130C9409180C9400008091030150
:1002F00090910401893223E2920719F48AE293E291
:1003000006C08A3223E2920779F489E293E290935D
:100310003D0380933C038BE293E290933F038093F1
:100320003E038CE293E21FC08B3223E2920749F432
:1003300089E293E290933D0380933C038AE293E247
:10034000ECCF8C3223E29207D9F489E293E29093C6
:100350003D0380933C038AE293E290933F038093B2
:100360003E038BE293E290934103809340038DE23E
:1003700093E290934303809342038EE293E274C02E
:100380008D3223E29207A9F48CE293E290933D032D
:1003900080933C038BE293E290933F0380933E0370
:1003A0008AE293E290934103809340038EE293E2CA
:1003B00018C08E3223E29207D9F48DE293E2909333
:1003C0003D0380933C038CE293E290933F03809340
:1003D0003E038BE293E290934103809340038AE2D1
:1003E00093E290934303809342038FE293E23CC0F5
:1003F0008F3223E29207D9F48EE293E290933D0389
:1004000080933C038DE293E290933F0380933E03FD
:100410008CE293E290934103809340038BE293E25A
:1004200090934303809342038AE293E21DC080339A
:100430009342F1F48FE293E290933D0380933C0367
:100440008EE293E290933F0380933E038DE293E22A
:1004500090934103809340038CE293E29093430393
:10046000809342038BE293E290934503809344038D
:1004700008951F93CF93DF9360ED77E080E090E0E5
:100480000E94671082E00E947F11EC0183E00E94CD
:100490007F1111E0892B09F410E084E00E947F11A4
:1004A00021E0892B09F420E0CD2B39F411110CC087
:1004B000211114C089E293E21CC011110AC021115C
:1004C00010C08AE293E215C021110EC08BE293E2C4
:1004D00010C021110CC08CE293E20BC08DE293E2BC
:1004E00008C08EE293E205C08FE293E202C080E38F
:1004F00093E29093040180930301DF91CF911F91C8
:100500000895CF93DF93EB018130910539F562E2D5
:1005100073E080E693E00E94ED1365E071E080E611
:1005200093E00E94ED136AE271E080E693E00E949E
:10053000ED1361E087E00E9449116CE271E080E018
:1005400090E00E94671060E087E00E9449116CE231
:1005500071E080E090E00E946710EBCF823091055F
:1005600039F562E273E080E693E00E94ED136AE3FE
:1005700071E080E693E00E94ED136CE571E080E6A7
:1005800093E00E94ED1361E087E00E94491164EF5F
:1005900071E080E090E00E94671060E087E00E94D8
:1005A000491164EF71E080E090E00E946710EBCFAA
:1005B00083309105A1F560E073E080E693E00E944E
:1005C000ED1361E871E080E693E00E94E0134AE0F9
:1005D00050E0BE0180E693E00E94981462EA71E068
:1005E00080E693E00E94ED136AE271E080E693E01A
:1005F0000E94ED1361E087E00E9449116CEB72E00C
:1006000080E090E00E94671060E087E00E9449115E
:100610006CEB72E080E090E00E946710EBCF0497F3
:10062000E9F460E073E080E693E00E94ED1365EA90
:1006300071E080E693E00E94E01362EA71E080E6F8
:1006400093E00E94ED136AE271E080E693E00E947D
:10065000ED1361E087E00E944911FBCFDF91CF915C
:100660000895AF92BF92CF92DF92EF92FF920F93D5
:100670001F93CF93DF93CDB7DEB728970FB6F894CB
:10068000DEBF0FBECDBF6B017A0138872F8310917B
:10069000040100910301712F770F770B272F372F5C
:1006A000472F572F672F86E493E00E947B0E86E446
:1006B00093E00E94650DDA82C982FC82EB8287EEAC
:1006C00093E09E838D830E9438106B017C0188E843
:1006D000C80E83E1D81EE11CF11C42E0BE01695F37
:1006E0007F4F86E493E00E942A0E81110EC00E9483
:1006F0003810C616D706E806F90678F76F817885B0
:1007000083E090E00E948102E8CFCE0101965C0177
:100710008E010B5F1F4F0E9438106B017C0198E81F
:10072000C90E93E1D91EE11CF11C42E0B50186E43B
:1007300093E00E942A0E81110EC00E943810C61646
:10074000D706E806F90688F76F81788583E090E0A0
:100750000E948102EACF82E0A80EB11CA016B10669
:10076000D1F60E9438106B017C0198E8C90E93E124
:10077000D91EE11CF11C42E0B80186E493E00E941E
:100780002A0E81110EC00E943810C616D706E80640
:10079000F90688F76F81788583E090E00E948102F6
:1007A000EACF60E073E080E693E00E94ED1361EC35
:1007B00071E080E693E00E94E0136F8178854AE063
:1007C00050E080E693E00E94981428960FB6F894C3
:1007D000DEBF0FBECDBFDF91CF911F910F91FF9074
:1007E000EF90DF90CF90BF90AF900895AF92BF92FF
:1007F000CF92DF92EF92FF920F931F93CF93DF93ED
:10080000CDB7DEB72A970FB6F894DEBF0FBECDBFC7
:1008100085E0E0EFF2E0DE01169601900D928A95F8
:10082000E1F7CE0101965C0185E0F50111928A9510
:10083000E9F7E0910301F0910401E952F342E73056
:10084000F10508F051C5EC5CFF4F60E073E080E615
:1008500093E00C94F7170E94ED1365ED71E080E6CC
:1008600093E00E94ED131091040100910301712F98
:10087000770F770B272F372F472F572F672F86E4B8
:1008800093E00E947B0E86E493E00E94650D60E099
:1008900073E080E693E00E94ED1365EE71E080E680
:1008A00093E00E94E01360913C0370913D034AE0A5
:1008B00050E080E693E00E94981461EF71E080E6DA
:1008C00093E00E94E0130E9438106B01F8E1CF1A08
:1008D000FCEFDF0AEE24D7FCE094FE2C45E0BE01DD
:1008E0006A5F7F4F86E493E00E942A0E811110C058
:1008F0000E943810C616D706E806F90678F7609108
:100900003C0370913D0383E090E00E948102E6CFBA
:1009100060E073E080E693E00E94ED1366EF71E023
:1009200080E693E00E94E01360913C0370913D03E8
:100930004AE050E080E693E00E9498141AE2E12E2B
:1009400003E2F02E00E010E020E030E040E050E074
:1009500060E086E493E00E94B70E86E493E00E9494
:100960002F0D60E073E080E693E00E94ED1367E0F6
:1009700072E080E693E00E94E01360913C03709186
:100980003D034AE050E080E693E00E94981461EF56
:1009900071E080E693E00E94E01386E493E00E9419
:1009A000F70D8823D1F345E0B50186E493E00E947A
:1009B000FB0D60E073E080E693E00E94ED13B5016B
:1009C00080E693E00E94E01360E073E080E693E04D
:1009D0000E94ED1367E172E080E693E00E94E0136D
:1009E00060913C0370913D034AE050E080E693E063
:1009F0000E94981460E073E080E693E00E94ED139B
:100A00006EE272E06DC40E94ED136CE372E080E66A
:100A100093E00E94ED13A9E2EA2EB3E2FB2E00E080
:100A200010E020E030E040E050E060E086E493E059
:100A30000E94B70E86E493E00E942F0D60E073E001
:100A400080E693E00E94ED1367E072E080E693E0B9
:100A50000E94E0134AE050E069E273E280E693E02E
:100A60000E94981461EF71E080E693E00E94E01329
:100A700086E493E00E94F70D8823D1F345E0B501A9
:100A800086E493E00E94FB0D60E073E080E693E073
:100A90000E94ED13B50180E693E00E94E0131091EF
:100AA000040100910301712F770F770B272F372F48
:100AB000472F572F672F86E493E00E947B0E86E432
:100AC00093E00E94650D60E073E080E693E00E9491
:100AD000ED1365EE71E080E693E00E94E0134AE0DA
:100AE00050E069E273E280E693E00E94981461EFBF
:100AF00071E080E693E00E94E0130E9438106B01E1
:100B000020EDC21A2AE8D20AEE24D7FCE094FE2C8B
:100B100045E0BE016A5F7F4F86E493E00E942A0EA3
:100B2000811110C00E943810C616D706E806F906D3
:100B300078F760913C0370913D0383E090E00E9460
:100B40008102E6CF62E273E080E693E00E94ED135B
:100B500066EF71E080E693E00E94E0134AE050E027
:100B600069E273E280E693E00E94981462E273E027
:100B700080E693E00E94ED136CE472E0B1C30E9442
:100B8000ED136AE572E080E693E00E94ED13E9E27E
:100B9000EE2EF3E2FF2E00E010E020E030E040E037
:100BA00050E060E086E493E00E94B70E86E493E0B4
:100BB0000E942F0D60E073E080E693E00E94ED1349
:100BC00067E072E080E693E00E94E01360913C03EE
:100BD00070913D034AE050E080E693E00E94981453
:100BE00061EF71E080E693E00E94E01386E493E019
:100BF0000E94F70D8823D1F345E0B50186E493E028
:100C00000E94FB0D60E073E080E693E00E94ED132C
:100C1000B50180E693E00E94E01310910401009179
:100C20000301712F770F770B272F372F472F572F60
:100C3000672F86E493E00E947B0E86E493E00E9497
:100C4000650D60E073E080E693E00E94ED1365EED1
:100C500071E080E693E00E94E01360913C037091A4
:100C60003D034AE050E080E693E00E94981461EF73
:100C700071E080E693E00E94E0130E9438106B015F
:100C8000E0EDCE1AEAE8DE0AEE24D7FCE094FE2C72
:100C900045E0BE016A5F7F4F86E493E00E942A0E22
:100CA000811110C00E943810C616D706E806F90652
:100CB00078F760913C0370913D0383E090E00E94DF
:100CC0008102E6CF62E273E080E693E00E94ED13DA
:100CD00066EF71E080E693E00E94E01360913C03D0
:100CE00070913D034AE050E080E693E00E94981442
:100CF00062E273E080E693E00E94ED136AE672E040
:100D0000EFC20E94ED1368E772E080E693E00E9474
:100D1000ED1369E2E62E73E2F72E00E010E020E02A
:100D200030E040E050E060E086E493E00E94B70EDF
:100D300086E493E00E942F0D60E073E080E693E08C
:100D40000E94ED1367E072E080E693E00E94E013FA
:100D50004AE050E069E273E280E693E00E94981472
:100D600061EF71E080E693E00E94E01386E493E097
:100D70000E94F70D8823D1F345E0B50186E493E0A6
:100D80000E94FB0D60E073E080E693E00E94ED13AB
:100D9000B50180E693E00E94E013109104010091F8
:100DA0000301712F770F770B272F372F472F572FDF
:100DB000672F86E493E00E947B0E86E493E00E9416
:100DC000650D60E073E080E693E00E94ED1365EE50
:100DD00071E080E693E00E94E0134AE050E069E2AF
:100DE00073E280E693E00E94981461EF71E080E680
:100DF00093E00E94E0130E9438106B01F0EDCF1ACF
:100E0000FAE8DF0AEE24D7FCE094FE2C45E0BE01B0
:100E10006A5F7F4F86E493E00E942A0E811110C022
:100E20000E943810C616D706E806F90678F76091D2
:100E30003C0370913D0383E090E00E948102E6CF85
:100E400062E273E080E693E00E94ED1366EF71E0EA
:100E500080E693E00E94E0134AE050E069E273E22A
:100E600080E693E00E94981462E273E080E693E0EB
:100E70000E94ED1368E872E033C20E94ED1366E948
:100E800072E080E693E00E94ED1349E2E42E53E223
:100E9000F52E00E010E020E030E040E050E060E0BF
:100EA00086E493E00E94B70E86E493E00E942F0D43
:100EB00060E073E080E693E00E94ED1367E072E08B
:100EC00080E693E00E94E0134AE050E069E273E2BA
:100ED00080E693E00E94981461EF71E080E693E071
:100EE0000E94E01386E493E00E94F70D8823D1F37B
:100EF00045E0B50186E493E00E94FB0D60E073E0FD
:100F000080E693E00E94ED13B50180E693E00E9435
:100F1000E0131091040100910301712F770F770BFB
:100F2000272F372F472F572F672F86E493E00E94F4
:100F30007B0E86E493E00E94650D60E073E080E63E
:100F400093E00E94ED1365EE71E080E693E00E946D
:100F5000E0134AE050E069E273E280E693E00E9429
:100F6000981461EF71E080E693E00E94E0130E9424
:100F700038106B0120EDC21A2AE8D20AEE24D7FC01
:100F8000E094FE2C45E0BE016A5F7F4F86E493E06B
:100F90000E942A0E811110C00E943810C616D70672
:100FA000E806F90678F760913C0370913D0383E011
:100FB00090E00E948102E6CF62E273E080E693E077
:100FC0000E94ED1366EF71E080E693E00E94E0136B
:100FD0004AE050E069E273E280E693E00E949814F0
:100FE00062E273E080E693E00E94ED1366EA72E04D
:100FF00077C10E94ED1364EB72E080E693E00E94FB
:10100000ED1329E2E22E33E2F32E00E010E020E0BF
:1010100030E040E050E060E086E493E00E94B70EEC
:1010200086E493E00E942F0D60E073E080E693E099
:101030000E94ED1367E072E080E693E00E94E01307
:101040004AE050E069E273E280E693E00E9498147F
:1010500061EF71E080E693E00E94E01386E493E0A4
:101060000E94F70D8823D1F345E0B50186E493E0B3
:101070000E94FB0D60E073E080E693E00E94ED13B8
:10108000B50180E693E00E94E01310910401009105
:101090000301712F770F770B272F372F472F572FEC
:1010A000672F86E493E00E947B0E86E493E00E9423
:1010B000650D60E073E080E693E00E94ED1365EE5D
:1010C00071E080E693E00E94E0134AE050E069E2BC
:1010D00073E280E693E00E94981461EF71E080E68D
:1010E00093E00E94E0130E9438106B01E0EDCE1AED
:1010F000EAE8DE0AEE24D7FCE094FE2C45E0BE01CF
:101100006A5F7F4F86E493E00E942A0E811110C02F
:101110000E943810C616D706E806F90678F76091DF
:101120003C0370913D0383E090E00E948102E6CF92
:1011300062E273E080E693E00E94ED1366EF71E0F7
:1011400080E693E00E94E0134AE050E069E273E237
:1011500080E693E00E94981462E273E080E693E0F8
:101160000E94ED1364EC72E0BBC00E94ED1362EDCF
:1011700072E080E693E00E94ED1389E2E82E93E2AC
:10118000F92E00E010E020E030E040E050E060E0C8
:1011900086E493E00E94B70E86E493E00E942F0D50
:1011A00060E073E080E693E00E94ED1367E072E098
:1011B00080E693E00E94E0134AE050E069E273E2C7
:1011C00080E693E00E94981461EF71E080E693E07E
:1011D0000E94E01386E493E00E94F70D8823D1F388
:1011E00045E0B50186E493E00E94FB0D60E073E00A
:1011F00080E693E00E94ED13B50180E693E00E9443
:10120000E0131091040100910301712F770F770B08
:10121000272F372F472F572F672F86E493E00E9401
:101220007B0E86E493E00E94650D60E073E080E64B
:1012300093E00E94ED1365EE71E080E693E00E947A
:10124000E0134AE050E069E273E280E693E00E9436
:10125000981461EF71E080E693E00E94E0130E9431
:1012600038106B01F0EDCF1AFAE8DF0AEE24D7FC54
:10127000E094FE2C45E0BE016A5F7F4F86E493E078
:101280000E942A0E811110C00E943810C616D7067F
:10129000E806F90678F760913C0370913D0383E01E
:1012A00090E00E948102E6CF62E273E080E693E084
:1012B0000E94ED1366EF71E080E693E00E94E01378
:1012C0004AE050E069E273E280E693E00E949814FD
:1012D00062E273E080E693E00E94ED1362EE72E05A
:1012E00080E693E00E94ED132A960FB6F894DEBFD5
:1012F0000FBECDBFDF91CF911F910F91FF90EF9067
:10130000DF90CF90BF90AF900895EF92FF920F9330
:101310001F9326E040E855E260E070E080E693E04D
:101320000E948B1286E493E00E949E0F60E082E0B0
:101330000E94101160E083E00E94101160E084E0E0
:101340000E94101160E085E00E94101161E087E0CA
:101350000E9410110E9439028091030190910401B2
:101360008F3027E2920719F0873293423CF460E015
:1013700070E081E090E00E94810210C065EF72E0B1
:1013800080E693E00E94ED136091030170910401E7
:101390004AE050E080E693E00E94A0140E947601AB
:1013A00068EE73E080E090E00E9467100E94F60310
:1013B000F0903D03E0903C035F2D550F550B052F3A
:1013C000152F252F352F452F60E086E493E00E94EE
:1013D000B70EF0903F03E0903E035F2D550F550B85
:1013E000052F152F252F352F452F61E086E493E03B
:1013F0000E94B70EF0904103E09040035F2D550F1F
:10140000550B052F152F252F352F452F62E086E42C
:1014100093E00E94B70EF0904303E09042035F2DEB
:10142000550F550B052F152F252F352F452F63E011
:1014300086E493E00E94B70EF0904503E0904403E9
:101440005F2D550F550B052F152F252F352F452FA8
:1014500064E086E493E00E94B70E86E493E01F9177
:101460000F91FF90EF900C942F0D0F931F930E94FC
:1014700038100091010110910201222717FD2095DB
:10148000322F600F711F821F931F6093360370937A
:10149000370380933803909339030E9438100091EA
:1014A0003603109137032091380330913903061722
:1014B00017072807390768F510920001809103018A
:1014C000909104018932934271F020913C03309154
:1014D0003D0360913A0370913B0345E050E081E0A9
:1014E00090E00E9431030E94381000910101109198
:1014F0000201222717FD2095322F600F711F821FD6
:10150000931F60933603709337038093380390934F
:10151000390385E00E947F110197F9F48091000161
:10152000882331F060E070E082E090E00E94810268
:1015300064EC79E080E090E00E94671062E073E084
:1015400080E693E00E94ED1380913A0390913B0373
:10155000019690933B0380933A0386E493E00E94C4
:10156000F70D882309F499CF42E064E373E086E441
:1015700093E00E94FB0D209134033091350380915C
:101580000301909104012817390709F086CF86E4FA
:1015900093E00E94F70D8823D1F342E064E373E007
:1015A00086E493E00E94FB0D809134039091350313
:1015B000873E23E09207A1F460E073E080E693E0C9
:1015C0000E94ED1369E073E080E693E00E94E0136F
:1015D00060E070E084E090E01F910F910C94810234
:1015E00090933B0380933A0386E493E00E94F70DC7
:1015F0008823D1F342E064E373E086E493E00E9441
:10160000FB0D6091340370913503673E83E07807EA
:1016100099F2882777FD8095982F0E94BA166093DB
:10162000300370933103809332039093330360E06F
:1016300073E080E693E00E94ED1368E372E080E6D9
:1016400093E00E94E01360E073E080E693E00E9484
:10165000ED1360913A0370913B034AE050E080E65D
:1016600093E00E94A01440913003509131036091A7
:1016700032037091330322E030E080E693E00E9471
:10168000A3150BCF4AE069E086E493E00C94150DB6
:10169000CF93CFB7F89480915603811127C0EBE622
:1016A000F2E08491E7E5F2E09491E82FF0E0EE0FAC
:1016B000FF1FE757FD4FA591B4918C91892321F429
:1016C00061E08AE00E94491161E08AE00E94101105
:1016D0008CB580618CBD8CB580648CBD61E08DE083
:1016E0000E94101161E08BE00E941011809156035E
:1016F0008F5F80935603CFBFCF9108958EBD0000BA
:101700000DB407FEFDCF8EB508952CB52F7D2CBDF1
:101710002CB5237F2CBD2CB52C7F2CBD2DB52E7F59
:101720002DBDFC0181810C944911FC0180810C9438
:101730004911CF92DF92EF92FF920F931F93CF93B5
:10174000DF9300D0CDB7DEB78C01E62EF22E60E03D
:1017500070E049835A830E94850B8E2D8F710E9401
:101760007E0BE82E4981C42E5A81D52EF40EFC142E
:1017700039F08FEF0E947E0BF60181936F01F7CF56
:1017800061E070E0C8010E94850B8E2D0F900F90D4
:10179000DF91CF911F910F91FF90EF90DF90CF904D
:1017A00008951F93CF93DF93EC01162F60E070E054
:1017B0000E94850B812F8F710E947E0B8FEF0E94FC
:1017C0007E0B182F61E070E0CE010E94850B812F07
:1017D000DF91CF911F910895CF92DF92EF92FF9208
:1017E0000F931F93CF93DF9300D0CDB7DEB78C015B
:1017F000E62EF22E60E070E049835A830E94850B4A
:101800008E2D8F7180620E947E0BE82E4981C42E3E
:101810005A81D52EF40EFC1431F0F60181916F013E
:101820000E947E0BF8CF61E070E0C8010E94850B3A
:101830008E2D0F900F90DF91CF911F910F91FF9000
:10184000EF90DF90CF900895EF92FF921F93CF9388
:10185000DF931F92CDB7DEB77C01162F60E070E0FA
:1018600049830E94850B812F8F7180620E947E0BBD
:10187000182F4981842F0E947E0B61E070E0C70120
:101880000E94850B812F0F90DF91CF911F91FF90C8
:10189000EF900895BF92CF92DF92EF92FF920F9355
:1018A0001F93CF93DF938C01D62EB72EFC01C481FA
:1018B000F42EC41708F4FC2EF8018681811103C0B0
:1018C000EC2EEF1801C0E12C60E070E0C8010E942E
:1018D000850B80EA0E947E0BC82ECD2DDB2DFD0CE2
:1018E000FC1621F089910E947E0BFACFCE2DCC23DD
:1018F00029F080E00E947E0BC150F9CF61E070E0DA
:10190000C8010E94850B8C2DDF91CF911F910F9103
:10191000FF90EF90DF90CF90BF900895BF92CF924D
:10192000DF92EF92FF920F931F93CF93DF938C017F
:10193000D62EB72EFC01C481F42EC41708F4FC2E59
:10194000F8018681811103C0EC2EEF1801C0E12C53
:1019500060E070E0C8010E94850B81E60E947E0B6A
:10196000C82ECD2DDB2DFD0CFC1629F08FEF0E942B
:101970007E0B8993F9CFCE2DCC2329F08FEF0E94D7
:101980007E0BC150F9CF61E070E0C8010E94850B69
:101990008C2DDF91CF911F910F91FF90EF90DF90F1
:1019A000CF90BF9008951F93CF93DF93EC0160E039
:1019B00070E00E94850B82EE0E947E0B182F61E082
:1019C00070E0CE010E94850B812FDF91CF911F9196
:1019D00008951F93CF93DF93EC0160E070E00E94C5
:1019E000850B81EE0E947E0B182F61E070E0CE0126
:1019F0000E94850B812FDF91CF911F9108951F9336
:101A0000CF93DF93EC0160E070E00E94850B8FEFD5
:101A10000E947E0B182F61E070E0CE010E94850BC2
:101A2000812FDF91CF911F910895FC016083418345
:101A300081E08283138280E284831582168210867D
:101A400011861286138614861586168617860895C3
:101A5000462F603808F04FE765E00C94240CCF93D4
:101A6000DF93EC0160E00E94D10B482F436060E0FF
:101A7000CE010E94240C40E767E0CE010E94240CB6
:101A8000288539854A855B856C857D858E859F8512
:101A9000A0E00E94FD1741F025E0AE01485F5F4FD6
:101AA0006AE0CE010E94EC0BCE010E94D30CCE0165
:101AB0000E94E90C61E070E0CE010E94950B82E883
:101AC00090E0DF91CF910C94A110CF93DF93EC01C4
:101AD00060E070E00E94950BCE010E94E90CCE01FF
:101AE000DF91CF910C94D30CCF93DF93EC0160E0A6
:101AF0000E94D10B482F4D7F60E0CE01DF91CF9146
:101B00000C94240CFF920F931F93CF93DF93EC015F
:101B10008B01F42E60E00E94D10B482F4C7F426075
:101B200060E0CE010E94240C86E990E00E94A110A2
:101B30004F2DB801CE010E944A0C61E070E0CE0149
:101B40000E94950B8FE090E00E94A11060E070E091
:101B5000CE01DF91CF911F910F91FF900C94950BC7
:101B60001F93CF93DF93EC0160E070E00E94850B40
:101B700080E60E947E0B8FEF0E947E0B182F61E0A3
:101B800070E0CE010E94850B812FDF91CF911F91D4
:101B90000895EF92FF920F931F93CF93DF93EC0181
:101BA0008B010E94FF0CF82E86FBEE24E0F886FFE6
:101BB00016C00115110539F0282F30E0359527950D
:101BC0002770F801208340E467E0CE010E94240CD6
:101BD000F5FE05C040E267E0CE010E94240C8E2D88
:101BE000DF91CF911F910F91FF90EF90089560E0EA
:101BF00070E00C94C90DCF93DF93EC010E948E0C22
:101C000067E1CE010E94D10B8170DF91CF910895E1
:101C1000EF92FF920F931F93CF93DF93EB018A0113
:101C2000790140E767E00E94240C85FB992790F931
:101C3000988384FB992790F9F801908386FB882785
:101C400080F9F7018083DF91CF911F910F91FF9071
:101C5000EF900895CF92DF92EF92FF920F931F9330
:101C6000CF93DF9300D01F92CDB7DEB78C010E94D7
:101C7000820D0E9438106B017C0121E0AE014D5FA6
:101C80005F4F68E0C8010E94990B807359F40E946D
:101C900038106C197D098E099F09643F71408105D8
:101CA000910558F398012B5F3F4FAE014F5F5F4F97
:101CB000BE016E5F7F4FC8010E94080EFA80F801D6
:101CC0008581882329F0C8010E94B00DF80187831F
:101CD000C8010E94740DC8010E94E90C8F2D0F905D
:101CE0000F900F90DF91CF911F910F91FF90EF9088
:101CF000DF90CF900895EF92FF920F931F93CF93B1
:101D0000DF93CDB7DEB728970FB6F894DEBF0FBECE
:101D1000CDBF7C0109831A832B833C834D835E8373
:101D20006F83788725E0AE014F5F5F4F6AE00E94C6
:101D3000EC0B25E0AE014F5F5F4F60E1C7010E94F1
:101D4000EC0BF7014481413208F040E261E1C70148
:101D50000E94240C28960FB6F894DEBF0FBECDBFAC
:101D6000DF91CF911F910F91FF90EF900895BF9257
:101D7000CF92DF92EF92FF920F931F93CF93DF9357
:101D8000CDB7DEB728970FB6F894DEBF0FBECDBF34
:101D90006C01B62EE982FA820B831C832D833E836D
:101DA0004F83588761110AC0F601E086F1860287E9
:101DB0001387248735874687578707C0F6E0F617CD
:101DC00008F435C081E0681307C0EB2DF0E0E15462
:101DD000FE4F649125E006C0E62FF0E0E154FE4F8F
:101DE000649121E0AE014F5F5F4FC6010E94EC0B92
:101DF0000B2D10E0F801E754FE4F6491F601448189
:101E0000C6010E94240C62E0C6010E94D10BF801B9
:101E1000ED54FE4F049121E030E001C0220F0A95FD
:101E2000EAF7822B482F62E0C6010E94240C289614
:101E30000FB6F894DEBF0FBECDBFDF91CF911F91DB
:101E40000F91FF90EF90DF90CF90BF9008950F9388
:101E50001F93CF93DF938C01EB0166E00E94D10BBF
:101E6000482F497FC330D10561F0C230D10511F44C
:101E7000446008C0C130D10511F4426003C024970A
:101E800009F4466066E0C801DF91CF911F910F9180
:101E90000C94240CEF92FF920F931F93CF93DF9338
:101EA0001F92CDB7DEB77C018B0166E00E94D10B9B
:101EB000F7011282282F277D0230110511F42062CC
:101EC00007C00130110521F481E0F7018283286009
:101ED000422F66E0C70129830E94240C66E0C701F7
:101EE0000E94D10B2981821721F0F701128280E034
:101EF00001C081E00F90DF91CF911F910F91FF9072
:101F0000EF9008950F931F93CF93DF93EC018B0114
:101F100060E00E94D10B482F437F0115110531F07D
:101F20000130110511F4486001C04C6060E0CE0141
:101F3000DF91CF911F910F910C94240CCF93DF93DD
:101F4000EC0161E088810E94101161E089810E94AA
:101F500010110E94480B60E070E0CE010E94950BCA
:101F600061E070E0CE010E94850B65E070E080E0EA
:101F700090E00E9467104FE464E0CE010E94240CC0
:101F800063E070E0CE010E94270F62E070E0CE01B6
:101F90000E944A0F882311F081E08B8360E070E09B
:101FA000CE010E944A0F62E070E0CE010E94820FD3
:101FB00040E06CE1CE010E94240C40E767E0CE01D6
:101FC0000E94240C6CE4CE010E94280DCE010E94D8
:101FD000D30CCE01DF91CF910C94E90C1F920F929C
:101FE0000FB60F9211242F933F938F939F93AF932C
:101FF000BF938091580390915903A0915A03B091D7
:102000005B033091570323E0230F2D3720F4019613
:10201000A11DB11D05C026E8230F0296A11DB11D0B
:10202000209357038093580390935903A0935A0326
:10203000B0935B0380915C0390915D03A0915E037C
:10204000B0915F030196A11DB11D80935C03909335
:102050005D03A0935E03B0935F03BF91AF919F9127
:102060008F913F912F910F900FBE0F901F90189559
:102070002FB7F894609158037091590380915A03D7
:1020800090915B032FBF08953FB7F89480915C0354
:1020900090915D03A0915E03B0915F0326B5A89B6C
:1020A00005C02F3F19F00196A11DB11D3FBF662746
:1020B000782F892F9A2F620F711D811D911D42E08B
:1020C000660F771F881F991F4A95D1F708958F9241
:1020D0009F92AF92BF92CF92DF92EF92FF926B01ED
:1020E0007C010E9444104B015C01C114D104E10445
:1020F000F104F1F00E94B5150E94441068197909A5
:102100008A099B09683E73408105910570F321E0BF
:10211000C21AD108E108F10888EE880E83E0981E03
:10212000A11CB11CC114D104E104F10429F7DDCFD5
:10213000FF90EF90DF90CF90BF90AF909F908F90E7
:1021400008958230910538F0880F991F880F991FE4
:1021500005970197F1F70895789484B5826084BD5E
:1021600084B5816084BD85B5826085BD85B581609B
:1021700085BDEEE6F0E0808181608083E1E8F0E0FB
:102180001082808182608083808181608083E0E82A
:10219000F0E0808181608083E1EBF0E08081846009
:1021A0008083E0EBF0E0808181608083EAE7F0E00B
:1021B000808184608083808182608083808181606F
:1021C00080838081806880831092C100089583306D
:1021D00081F028F4813099F08230A1F008958730A1
:1021E000A9F08830B9F08430D1F4809180008F7DDF
:1021F00003C0809180008F7780938000089584B51C
:102200008F7702C084B58F7D84BD08958091B00022
:102210008F7703C08091B0008F7D8093B0000895C8
:10222000CF93DF9390E0FC01E35BFD4F2491FC0131
:10223000EF59FD4F8491882349F190E0880F991F51
:10224000FC01E757FD4FA591B49181589D4FFC01CA
:10225000C591D4919FB7611108C0F8948C912095D5
:1022600082238C93888182230AC0623051F4F894CF
:102270008C91322F309583238C938881822B888395
:1022800004C0F8948C91822B8C939FBFDF91CF91E7
:1022900008950F931F93CF93DF931F92CDB7DEB7AF
:1022A000282F30E0F901E75CFD4F8491F901E35BF1
:1022B000FD4F1491F901EF59FD4F04910023C9F02E
:1022C000882321F069830E94E7106981E02FF0E004
:1022D000EE0FFF1FE158FD4FA591B4919FB7F89401
:1022E0008C91611103C01095812301C0812B8C93C7
:1022F0009FBF0F90DF91CF911F910F910895CF93C2
:10230000DF93282F30E0F901E75CFD4F8491F9015C
:10231000E35BFD4FD491F901EF59FD4FC491CC23FC
:1023200091F081110E94E710EC2FF0E0EE0FFF1FFB
:10233000EB58FD4FA591B4912C912D2381E090E0B5
:1023400021F480E002C080E090E0DF91CF91089519
:10235000FC01818D228D90E0805C9F4F821B910952
:102360008F7399270895FC01918D828D981731F014
:10237000828DE80FF11D858D90E008958FEF9FEF1E
:102380000895FC01918D828D981761F0828DDF0197
:10239000A80FB11D5D968C91928D9F5F9F73928F58
:1023A00090E008958FEF9FEF089585E493E1892BE6
:1023B00049F080E090E0892B29F00E9445138111BB
:1023C0000C9400000895FC01848DDF01A80FB11D5D
:1023D000A35ABF4F2C91848D90E001968F7399275B
:1023E000848FA689B7892C93A089B1898C91806448
:1023F0008C93938D848D981306C00288F389E02D09
:1024000080818F7D80830895CF93DF93EC01888D49
:102410008823C9F0EA89FB89808185FD05C0A889E8
:10242000B9898C9186FD0FC00FB607FCF5CF80816E
:1024300085FFF2CFA889B9898C9185FFEDCFCE01B8
:102440000E94E311E7CFDF91CF910895CF92DF9201
:10245000FF920F931F93CF93DF931F92CDB7DEB7F9
:102460006C0181E0D60158968C9358975B969C91AD
:102470005B975C968C915C97981307C05096ED9192
:10248000FC915197808185FD2EC0F601038D10E0EF
:102490000F5F1F4F0F731127F02EF601848DF81276
:1024A00011C00FB607FCF9CFD6015096ED91FC9103
:1024B0005197808185FFF1CFC60169830E94E311A6
:1024C0006981EBCF838DE80FF11DE35AFF4F6083E5
:1024D000D6015B960C935B975296ED91FC915397C6
:1024E000808180620CC0D6015696ED91FC91579781
:1024F00060835096ED91FC91519780818064808338
:1025000081E090E00F90DF91CF911F910F91FF90AC
:10251000DF90CF900895BF92CF92DF92EF92FF921B
:10252000CF93DF93EC016A017B01B22EE889F98930
:1025300082E08083411581EE580761057105A1F0A5
:1025400060E079E08DE390E0A70196010E94D51745
:1025500021503109410951095695479537952795DD
:10256000211580E1380798F0E889F989108260E840
:1025700074E88EE190E0A70196010E94D5172150E2
:102580003109410951095695479537952795EC85AD
:10259000FD853083EE85FF852083188EEC89FD89CB
:1025A000B082EA89FB89808180618083EA89FB8926
:1025B000808188608083EA89FB898081806880834C
:1025C000EA89FB8980818F7D8083DF91CF91FF90A5
:1025D000EF90DF90CF90BF9008951F920F920FB6AB
:1025E0000F9211242F938F939F93EF93FF93E0917A
:1025F0007003F09171038081E0917603F09177038D
:1026000082FD12C09081809179038F5F8F7320913A
:102610007A03821751F0E0917903F0E0E05AFC4F21
:10262000958F8093790301C08081FF91EF919F91F5
:102630008F912F910F900FBE0F901F9018951F92A2
:102640000F920FB60F9211242F933F934F935F93E6
:102650006F937F938F939F93AF93BF93EF93FF936A
:1026600080E693E00E94E311FF91EF91BF91AF915B
:102670009F918F917F916F915F914F913F912F919A
:102680000F900FBE0F901F90189580E693E00E9468
:10269000A81121E0892B09F420E0822F08951092DF
:1026A00063031092620388EE93E0A0E0B0E08093B1
:1026B000640390936503A0936603B093670384E17A
:1026C00093E0909361038093600385EC90E0909396
:1026D0006D0380936C0384EC90E090936F03809380
:1026E0006E0380EC90E0909371038093700381EC13
:1026F00090E0909373038093720382EC90E0909348
:1027000075038093740386EC90E090937703809335
:1027100076031092790310927A0310927B03109241
:102720007C03089508950E94AC100E9492130E94A9
:102730008509C5EDD1E10E94350A2097E1F30E9499
:10274000D511F9CFCF92DF92EF92FF920F931F93A3
:10275000CF93DF937C016A01EB0100E010E00C15E0
:102760001D0571F06991D701ED91FC910190F08107
:10277000E02DC7010995892B19F00F5F1F4FEFCF8F
:10278000C801DF91CF911F910F91FF90EF90DF90E3
:10279000CF9008956115710581F0DB010D90002047
:1027A000E9F7AD0141505109461B570BDC01ED9192
:1027B000FC910280F381E02D099480E090E008957F
:1027C0000C94CA13DC01ED91FC910190F081E02D95
:1027D000099460E273E00C94CA130F931F93CF9394
:1027E000DF93EC010E94CA138C01CE010E94E91311
:1027F000800F911FDF91CF911F910F9108958F92BC
:102800009F92AF92BF92DF92EF92FF920F931F932E
:10281000CF93DF93CDB7DEB7A1970FB6F894DEBFA5
:102820000FBECDBF7C01F42FD52ECB0119A22230D3
:1028300008F42AE08E010F5D1F4F822E912CA12CEF
:10284000B12C6F2F7D2DA50194010E94D517F22F79
:10285000D32ECA01015011096A3014F4E0E301C01B
:10286000E7E3E60FD801EC93232B242B252B49F724
:10287000B801C7010E94CA13A1960FB6F894DEBF33
:102880000FBECDBFDF91CF911F910F91FF90EF90C1
:10289000DF90BF90AF909F908F900895CF92DF927E
:1028A000EF92FF920F931F93CF93DF93EC016A0196
:1028B0007B012115310579F4E881F9810190F081DE
:1028C000E02D642FDF91CF911F910F91FF90EF903A
:1028D000DF90CF9009942A303105E9F477FF1AC0D0
:1028E0006DE20E94E2138C0144275527BA014C196E
:1028F0005D096E097F092AE0CE010E94FF13800F57
:10290000911FDF91CF911F910F91FF90EF90DF907A
:10291000CF9008952AE0B701A601CE01DF91CF91B3
:102920001F910F91FF90EF90DF90CF900C94FF13C9
:102930009A01AB01662757FD6095762F0C944E14D3
:102940000F931F93CF93DF93EC019A01AB0166279E
:1029500057FD6095762F0E944E148C01CE010E9487
:10296000E913800F911FDF91CF911F910F9108956F
:102970004F925F926F927F928F929F92AF92BF928F
:10298000CF92DF92EF92FF920F931F93CF93DF933B
:10299000EC016A017B01B22E9A01AB01C701B601BD
:1029A0000E94D117882319F063E273E027C0260143
:1029B0003701E89477F82FEF3FEF4FE75FE7C30168
:1029C000B2010E94D11781110DC02FEF3FEF4FE7E9
:1029D0005FE7C301B2010E941B1618161CF467E2E0
:1029E00073E00CC02FEF3FEF4FE75FE4C701B60184
:1029F0000E946A171816ACF46BE273E0CE01DF9107
:102A0000CF911F910F91FF90EF90DF90CF90BF90EB
:102A1000AF909F908F907F906F905F904F900C94AD
:102A2000CA132FEF3FEF4FE75FECC701B6010E94DB
:102A30001B1687FDE1CF20E030E0A901C701B601F8
:102A40000E941B1687FF0AC06DE2CE010E94E213AE
:102A50008C01F7FAF094F7F8F09402C000E010E06F
:102A6000A12C60E070E080E09FE3AB1441F020E037
:102A700030E040E251E40E941F16A394F6CF9B0180
:102A8000AC01C701B6010E94B7156B017C010E9421
:102A90008C162B013C010E94B8169B01AC01C701AA
:102AA000B6010E94B6156B017C012AE0B301A201B8
:102AB000CE010E94FF13080F191FBB2039F064EFED
:102AC00071E0CE010E94CA13080F191F7B2C7720DA
:102AD00041F120E030E040E251E4C701B6010E943C
:102AE0006E176B017C010E9487164B01AA2497FC8C
:102AF000A094BA2C2AE030E0B501A401CE010E94D6
:102B00004E14080F191FC501B4010E94BA169B018B
:102B1000AC01C701B6010E94B6156B017C017A9425
:102B2000D6CFC801DF91CF911F910F91FF90EF9009
:102B3000DF90CF90BF90AF909F908F907F906F90DD
:102B40005F904F9008950F931F93CF93DF93EC0105
:102B50000E94B8148C01CE010E94E913800F911FCE
:102B6000DF91CF911F910F91089508955058BB2781
:102B7000AA270ED075C166D130F06BD120F031F4A8
:102B80009F3F11F41EF45BC10EF4E095E7FB51C1C9
:102B9000E92F77D180F3BA17620773078407950787
:102BA00018F071F49EF58FC10EF4E0950B2EBA2F3C
:102BB000A02D0B01B90190010C01CA01A001112443
:102BC000FF27591B99F0593F50F4503E68F11A16EF
:102BD000F040A22F232F342F4427585FF3CF469580
:102BE00037952795A795F0405395C9F77EF41F16A2
:102BF000BA0B620B730B840BBAF09150A1F0FF0F6C
:102C0000BB1F661F771F881FC2F70EC0BA0F621F57
:102C1000731F841F48F4879577956795B795F79547
:102C20009E3F08F0B3CF9395880F08F09927EE0FD9
:102C3000979587950895D9D008F481E008950CD030
:102C40000FC107D140F0FED030F021F45F3F19F002
:102C5000F0C0511139C1F3C014D198F39923C9F3CD
:102C60005523B1F3951B550BBB27AA276217730792
:102C7000840738F09F5F5F4F220F331F441FAA1F46
:102C8000A9F333D00E2E3AF0E0E830D09150504006
:102C9000E695001CCAF729D0FE2F27D0660F771FB4
:102CA000881FBB1F261737074807AB07B0E809F096
:102CB000BB0B802DBF01FF2793585F4F2AF09E3F2B
:102CC000510568F0B6C000C15F3FECF3983EDCF3FD
:102CD000869577956795B795F7959F5FC9F7880FA4
:102CE000911D9695879597F90895E1E0660F771FF6
:102CF000881FBB1F621773078407BA0720F0621B87
:102D0000730B840BBA0BEE1F88F7E095089504D07F
:102D10006894B111D9C00895BCD088F09F5790F045
:102D2000B92F9927B751A0F0D1F0660F771F881FF0
:102D3000991F1AF0BA95C9F712C0B13081F0C3D00B
:102D4000B1E00895C0C0672F782F8827B85F39F0A9
:102D5000B93FCCF3869577956795B395D9F73EF44F
:102D600090958095709561957F4F8F4F9F4F0895F7
:102D7000E89409C097FB3EF4909580957095619515
:102D80007F4F8F4F9F4F9923A9F0F92F96E9BB27CB
:102D90009395F695879577956795B795F111F8CF47
:102DA000FAF4BB0F11F460FF1BC06F5F7F4F8F4FB2
:102DB0009F4F16C0882311F096E911C0772321F0A8
:102DC0009EE8872F762F05C0662371F096E8862F40
:102DD00070E060E02AF09A95660F771F881FDAF797
:102DE000880F9695879597F90895990F0008550FC4
:102DF000AA0BE0E8FEEF16161706E807F907C0F081
:102E000012161306E407F50798F0621B730B840B88
:102E1000950B39F40A2661F0232B242B252B21F462
:102E200008950A2609F4A140A6958FEF811D811D02
:102E3000089597F99F6780E870E060E008959FEF3C
:102E400080EC089500240A94161617061806090641
:102E5000089500240A941216130614060506089510
:102E6000092E0394000C11F4882352F0BB0F40F498
:102E7000BF2B11F460FF04C06F5F7F4F8F4F9F4FD8
:102E8000089557FD9058440F551F59F05F3F71F05A
:102E90004795880F97FB991F61F09F3F79F08795C1
:102EA0000895121613061406551FF2CF4695F1DF4A
:102EB00008C0161617061806991FF1CF86957105DA
:102EC000610508940895E894BB2766277727CB010E
:102ED00097F908958ADF08F48FEF08950BD0C0CFDB
:102EE000B1DF28F0B6DF18F0952309F0A2CFA7CF05
:102EF0001124EACFC6DFA0F3959FD1F3950F50E0E0
:102F0000551F629FF001729FBB27F00DB11D639F9B
:102F1000AA27F00DB11DAA1F649F6627B00DA11D41
:102F2000661F829F2227B00DA11D621F739FB00DE7
:102F3000A11D621F839FA00D611D221F749F332757
:102F4000A00D611D231F849F600D211D822F762FF0
:102F50006A2F11249F5750408AF0E1F088234AF0ED
:102F6000EE0FFF1FBB1F661F771F881F9150504039
:102F7000A9F79E3F510570F05CCFA6CF5F3FECF301
:102F8000983EDCF3869577956795B795F795E79525
:102F90009F5FC1F7FE2B880F911D9695879597F936
:102FA000089523DF880B990B0895A1E21A2EAA1B1E
:102FB000BB1BFD010DC0AA1FBB1FEE1FFF1FA217E9
:102FC000B307E407F50720F0A21BB30BE40BF50BE6
:102FD000661F771F881F991F1A9469F7609570956F
:102FE000809590959B01AC01BD01CF010895EE0F36
:102FF000FF1F0590F491E02D09940024A7FD009493
:103000002A173005400550056005700580059005BC
:063010000895F894FFCFC3
:103016000170170F274552524F522030303121216F
:103026002053746174696F6E206164647265737392
:10303600206E6F74207365742100506C6561736532
:10304600207265737461727421004552524F52208A
:103056003030322121205049522073656E736F72D1
:10306600206E6F7420666F756E642100506C65610A
:10307600736520636865636B20636F6E6E6563744A
:10308600696F6E20616E642072657374617274215B
:10309600004552524F52203030332121204D657366
:1030A60073616765206E6F742073656E7420746F2C
:1030B60020002121004552524F5220303034212128
:1030C600204973737565207769746820636F64653A
:1030D600004D6573736167652873292073656E7487
:1030E60020746F200063617365203930303120739E
:1030F600746172740053656E64696E6720746F2024
:1031060000202E2E2E004D65737361676520736552
:103116006E7420746F2000526563656976696E6708
:103126002066726F6D20004D65737361676520526E
:10313600656365697665642066726F6D20006361FC
:103146007365203930303120454E44006361736524
:103156002039303032207374617274006361736594
:10316600203930303220454E440063617365203982
:103176003030332073746172740063617365203973
:1031860030303320454E440063617365203930305A
:103196003420737461727400636173652039303052
:1031A6003420454E44006361736520393030352044
:1031B6007374617274006361736520393030352031
:1031C600454E440063617365203930303620737490
:1031D6006172740063617365203930303620454E64
:1031E600440063617365203930303720737461722F
:1031F600740063617365203930303720454E4400D2
:1032060070696E6700416464726573732069733A0E
:1032160020004D4F54494F4E00454E44696E67009D
:10322600000000002612A213A811C111B311041246
:103236000D0A006E616E00696E66006F76660000AC
:00000001FF
