:100000000C94E8000C9410010C9410010C94100155
:100010000C9410010C9410010C9410010C9410011C
:100020000C9410010C9410010C9410010C9410010C
:100030000C9410010C9410010C9410010C941001FC
:100040000C942F070C9410010C944B060C9425066D
:100050000C9410010C9410010C9410010C941001DC
:100060000C9410010C94100100407A10F35A00A077
:10007000724E18090010A5D4E80000E87648170071
:1000800000E40B54020000CA9A3B000000E1F505B1
:10009000000080969800000040420F000000A086FB
:1000A00001000000102700000000E803000000002D
:1000B0006400000000000A000000000001000000D1
:1000C00000002C76D888DC674F0823DFC1DFAE59EB
:1000D000E1B1B796E5E3E453C63AE651997696E87E
:1000E000E6C28426EB898C9B62ED407C6FFCEFBC02
:1000F0009C9F40F2BAA56FA5F490055A2AF75C932D
:100100006B6CF9676DC11BFCE0E40D47FEF520E662
:10011000B500D0ED902E0300943577050080841E45
:10012000080000204E0A000000C80C333333330FA0
:10013000986E12831141EF8D2114893BE65516CF3D
:10014000FEE6DB18D1844B381BF77C1D901DA4BB49
:10015000E424203284725E228100C9F124ECA1E5FE
:100160003D2700000000240027002A0000000000B6
:1001700023002600290004040404040404040202E9
:100180000202020203030303030301020408102016
:1001900040800102040810200102040810201112FE
:1001A000131415160A0B0C0D0E0F0000000025008D
:1001B00028002B00000000080002010000030407D3
:1001C00000000000000000000001020304055A12B4
:1001D00011241FBECFEFD8E0DEBFCDBF24E0ACE2DC
:1001E000B3E001C01D92A833B207E1F713E0A0E02D
:1001F000B1E0E6E2F7E302C005900D92AC32B10740
:10020000D9F710E0C8EED0E004C02197FE010E94AB
:100210007619C73ED107C9F70E94790D0C94911B3E
:100220000C9400008F929F92AF92BF92CF92DF9278
:10023000EF92FF92CF93DF93A0910304882311F0F4
:100240003A2F01C030E08091040490E0880F991F9C
:1002500084599E4FC0900904D0900A04E0900B048A
:10026000F0900C0440E050E0BA01FC01C591D4913B
:1002700028812A2323130FC04A015B012FEF821A22
:10028000920AA20AB20A4C155D056E057F0538F484
:10029000B501A401EACF342F252FCB0104C030E0F3
:1002A00020E080E090E0632F722FDF91CF91FF90EC
:1002B000EF90DF90CF90BF90AF909F908F90089578
:1002C000CF92DF92EF92FF920F931F93CF93DF9322
:1002D000CDB7DEB7C054D1400FB6F894DEBF0FBE25
:1002E000CDBF0E94230700910504109106042091C0
:1002F0000704309108046B017C01C01AD10AE20A9C
:10030000F30A40EDC41647E0D406E104F10418F402
:1003100080910D04BCC06093050470930604809323
:10032000070490930804109200041092FF031092A7
:10033000FE031092FD031092FC0361E08091010422
:100340000E947D066AEF70E080E090E00E94E9067E
:1003500061E0809101040E94AD0660E0809101049B
:100360000E947D0664E170E080E090E00E94E90672
:10037000F89461E0809101040E947D068BE990E091
:100380000197F1F762E0809101040E94AD0683E2DB
:1003900090E00197F1F780E00E941201672B682B33
:1003A000692B21F410920D0478943EC081E00E94E4
:1003B0001201672B682B692BA9F38E010F5F1F4F6A
:1003C0006E018FEBC81A8EEFD80A780180E00E9488
:1003D0001201F701608371838283938381E00E941D
:1003E0001201F7016483758386839783F8E0EF0E2B
:1003F000F11CEC14FD0451F7789420E030E0F80192
:100400004081518162817381C480D580E680F7800C
:10041000411551056105710529F0C114D104E104AC
:10042000F10421F410920D0480E031C0F90183E061
:10043000F595E7958A95E1F7E450FC4F8081880FA8
:100440004C155D056E057F0508F4816080832F5F84
:100450003F4F085F1F4F2832310589F62091000475
:1004600030E04091FC038091FD0390E0840F911DEA
:100470004091FE03840F911D4091FF03840F911D55
:1004800099272817390771F681E080930D04C05C25
:10049000DE4F0FB6F894DEBF0FBECDBFDF91CF9118
:1004A0001F910F91FF90EF90DF90CF9008950E94E1
:1004B000731BCF92DF92EF92FF92CF930E94600165
:1004C0008823D1F1809102048B3029F0A8F1855165
:1004D000823048F031C06091FE0370E080E090E02F
:1004E0000E948C172DC0C091FE036C2F6F7770E0B7
:1004F00080E090E00E948E1720E030E040E853E476
:100500000E94ED176B017C018091FF03682F70E062
:1005100080E090E00E948E179B01AC01C701B601FC
:100520000E94E3182DEC3CEC4CEC5DE30E94ED17CF
:10053000C7FF06C0905804C060E070E080EC9FE701
:10054000CF91FF90EF90DF90CF900895FF920F939F
:100550001F93CF93DF93F82EC92F8091DE039091E4
:10056000DF030E947C090F2D7C2F770F770B1C2F48
:10057000272F372F472F572F672F8091DE0390911A
:10058000DF030E946D0861E088E00E947D0642E082
:100590006AE073E08091DE039091DF030E94F40A29
:1005A000D82F882359F060E088E00E947D06809172
:1005B000DE039091DF030E943E0924C00E94200ABE
:1005C00087E992E00E945A0A82E591E00E94E80AD7
:1005D0008F2D9C2F0E94EA0A89E391E00E945A0A1B
:1005E00061E087E00E947D0668EE73E080E090E0C5
:1005F0000E94E90660E087E00E947D0660E088E0F6
:100600000E947D068D2FDF91CF911F910F91FF905A
:1006100008950F931F93CF93DF938C01EB01FC019F
:10062000808191810097B1F06881798161157105B0
:1006300079F0428153812C813D814217530740F06C
:100640000E948A1B8C819D81F8019583848313C04D
:100650000E94111A88819981F801918380838A818F
:100660009B81938382838C819D819583848319826E
:1006700018821B821A821D821C82DF91CF911F91EA
:100680000F9108958F929F92AF92BF92EF92FF9237
:100690000F931F93CF93DF93CDB7DEB72C970FB691
:1006A000F894DEBF0FBECDBF4B015C017A016EE155
:1006B00073E0CE0107960E94640D9701B501A40175
:1006C000CE0101960E94E10BBE016F5F7F4FCE010C
:1006D00007960E940903CE0101960E945F0D61E01A
:1006E00088E00E947D068091DE039091DF030E94E6
:1006F0007C0909E213E220E030E040E050E060E0F5
:1007000070E08091DE039091DF030E946D0880917C
:10071000DE039091DF030E94C6076F81788541E177
:100720008091DE039091DF030E94F40A182F882342
:1007300079F08CE391E00E945A0A60E088E00E9420
:100740007D068091DE039091DF030E943E0941C047
:100750008091EE039091EF030297B8F48CE093E060
:100760000E945A0A8091EE039091EF0301969093B4
:10077000EF038093EE03A701C501B4010E94420379
:10078000CE0107960E945F0D2DC00E94200A87E9C6
:1007900092E00E945A0A82E591E00E94E80A89E20A
:1007A00093E20E94EA0A89E391E00E945A0A61E01A
:1007B00087E00E947D0668EE73E080E090E00E9492
:1007C000E90660E087E00E947D0660E088E00E9424
:1007D0007D061092EF031092EE03CE0107960E9461
:1007E0005F0D812F2C960FB6F894DEBF0FBECDBFE4
:1007F000DF91CF911F910F91FF90EF90BF90AF903D
:100800009F908F900895EF92FF920F931F93CF9335
:10081000DF93EC017B018A01BA010E94380D288127
:10082000398181110DC02115310519F0C9010E94CE
:10083000111A198218821D821C821B821A8206C01C
:100840001D830C83B701C9010E948A1BCE01DF9171
:10085000CF911F910F91FF90EF900895CF93DF9369
:10086000EC016115710559F0FB0101900020E9F7D9
:100870003197AF01461B570B0E9403040CC08881BF
:100880009981009711F00E94111A198218821D8215
:100890001C821B821A82CE01DF91CF910895CF92E4
:1008A000DF92EF92FF920F931F93CF93DF93CDB719
:1008B000DEB767970FB6F894DEBF0FBECDBFCE018F
:1008C00001966C0181E1F60111928A95E9F76EE1DA
:1008D00073E0CE0142960E94640DF090ED03E0902B
:1008E000EC035F2D550F550B052F152F252F352F99
:1008F000452F60E08091DE039091DF030E94C808DD
:100900008091DE039091DF030E94B1098091DE03A4
:100910009091DF030E9438098823C1F341E1B601B9
:100920008091DE039091DF030E94ED07B601CE01B6
:1009300042960E942E0462EE8091DE039091DF03C6
:100940000E94AA078091DE039091DF030E94530B5F
:100950004E895F896A897B898EE293E00E940D0D42
:100960004AE060E070E0CB010E94680AE0912E034B
:10097000F0912F030190F081E02D6EE28EE293E082
:1009800009954AE060E070E0CB010E94680A4AE005
:1009900060E070E0CB010E94680A8CE193E00E9465
:1009A000480A80E090E00E94D00A80E090E00E9437
:1009B000D00ACE0142960E945F0D81E067960FB685
:1009C000F894DEBF0FBECDBFDF91CF911F910F9185
:1009D000FF90EF90DF90CF900895089580E090E031
:1009E0000895FC01538D448D252F30E0842F90E035
:1009F000821B930B541710F0CF960895019708951A
:100A0000FC01918D828D981761F0828DDF01A80F16
:100A1000B11D5D968C91928D9F5F9F73928F90E038
:100A200008958FEF9FEF0895FC01918D828D9817A7
:100A300031F0828DE80FF11D858D90E008958FEFE4
:100A40009FEF0895FC01918D228D892F90E0805CAD
:100A50009F4F821B91098F73992708958EE293E02F
:100A60000E94220521E0892B09F420E0822F0895BD
:100A7000FC01848DDF01A80FB11DA35ABF4F2C913B
:100A8000848D90E001968F739927848FA689B7890A
:100A90002C93A089B1898C9180648C93938D848DE3
:100AA000981306C00288F389E02D80818F7D8083B2
:100AB0000895EF92FF920F931F93CF93DF93EC0172
:100AC00081E0888F9B8D8C8D981305C0E889F9890A
:100AD000808185FD24C0F62E0B8D10E00F5F1F4F27
:100AE0000F731127E02E8C8DE8120CC00FB607FC97
:100AF000FACFE889F989808185FFF5CFCE010E9480
:100B00003805F1CF8B8DFE01E80FF11DE35AFF4F41
:100B1000F0820B8FEA89FB898081806207C0EE89B1
:100B2000FF896083E889F98980818064808381E01E
:100B300090E0DF91CF911F910F91FF90EF9008957A
:100B4000CF93DF93EC01888D8823C9F0EA89FB8974
:100B5000808185FD05C0A889B9898C9186FD0FC06B
:100B60000FB607FCF5CF808185FFF2CFA889B98940
:100B70008C9185FFEDCFCE010E943805E7CFDF9144
:100B8000CF91089580E090E0892B29F00E942E05F6
:100B900081110C9400000895833081F028F4813095
:100BA00099F08230A1F008958730A9F08830B9F02B
:100BB0008430D1F4809180008F7D03C080918000CB
:100BC0008F7780938000089584B58F7702C084B5B5
:100BD0008F7D84BD08958091B0008F7703C0809190
:100BE000B0008F7D8093B00008958230910538F079
:100BF000880F991F880F991F05970197F1F708959E
:100C00003FB7F89480912F0490913004A091310463
:100C1000B091320426B5A89B05C02F3F19F001966C
:100C2000A11DB11D3FBFBA2FA92F982F8827820F72
:100C3000911DA11DB11DBC01CD0142E0660F771FC2
:100C4000881F991F4A95D1F708951F920F920FB6EA
:100C50000F9211242F933F934F935F936F937F9342
:100C60008F939F93AF93BF93EF93FF938EE293E0A5
:100C70000E943805FF91EF91BF91AF919F918F91A5
:100C80007F916F915F914F913F912F910F900FBE88
:100C90000F901F9018951F920F920FB60F9211246C
:100CA0002F938F939F93EF93FF93E0913E03F091E7
:100CB0003F038081E0914403F091450382FD12C01F
:100CC0009081809147038F5F8F7320914803821733
:100CD00051F0E0914703F0E0E25DFC4F958F809387
:100CE000470301C08081FF91EF919F918F912F91D8
:100CF0000F900FBE0F901F9018951F93CF93DF9307
:100D0000282F30E0F901EC54FE4F8491F901E657A9
:100D1000FE4FD491F901EA58FE4FC491CC23C9F09B
:100D2000162F81110E94CC05EC2FF0E0EE0FFF1F73
:100D3000E655FE4FA591B4918FB7F894111105C0F7
:100D40009C91ED2FE095E92302C0EC91ED2BEC9303
:100D50008FBFDF91CF911F910895CF93DF9390E0E4
:100D6000FC01E657FE4F2491FC01EA58FE4F8491A6
:100D7000882361F190E0880F991FFC01EE59FE4F26
:100D8000C591D491FC01E655FE4FA591B491611136
:100D900009C09FB7F8948881209582238883EC91BD
:100DA0002E230BC0623061F49FB7F8943881822FF4
:100DB000809583238883EC912E2B2C939FBF06C0B4
:100DC0008FB7F894E8812E2B28838FBFDF91CF91C6
:100DD00008958F929F92AF92BF92CF92DF92EF923F
:100DE000FF926B017C010E9400064B015C01C11463
:100DF000D104E104F104F1F00E940006DC01CB0112
:100E000088199909AA09BB09883E9340A105B10533
:100E100070F321E0C21AD108E108F10888EE880ECB
:100E200083E0981EA11CB11CC114D104E104F1049B
:100E300019F7DDCFFF90EF90DF90CF90BF90AF908C
:100E40009F908F9008952FB7F89460912B04709124
:100E50002C0480912D0490912E042FBF08951F9291
:100E60000F920FB60F9211242F933F938F939F935E
:100E7000AF93BF9380912B0490912C04A0912D04EB
:100E8000B0912E0430912A0423E0230F2D3720F453
:100E90000196A11DB11D05C026E8230F0296A11DD4
:100EA000B11D20932A0480932B0490932C04A093CB
:100EB0002D04B0932E0480912F0490913004A091C2
:100EC0003104B09132040196A11DB11D80932F040D
:100ED00090933004A0933104B0933204BF91AF914A
:100EE0009F918F913F912F910F900FBE0F901F9068
:100EF0001895FC012081318182819381281739075F
:100F000019F0822F0C947D060895CF93DF93EC01A6
:100F10009CB59F7D9CBD9CB5937F9CBD9CB59C7FE3
:100F20009CBD9DB591609DBD8A810E947D068C8986
:100F30009D89DF91CF910C94F50561E00C948507B4
:100F400060E00C9485078EBD00000DB407FEFDCF58
:100F50008EB50895EF92FF921F93CF93DF931F9268
:100F6000CDB7DEB77C0169830E94A0076981862F17
:100F70000E94A307182FC7010E949D07812F0F9081
:100F8000DF91CF911F91FF90EF90089561EE0C9447
:100F9000AA07EF92FF921F93CF93DF9300D0CDB7B4
:100FA000DEB77C014A8369830E94A0076981862F8E
:100FB0008F7180620E94A307182F4A81842F0E949C
:100FC000A307C7010E949D07812F0F900F90DF910B
:100FD000CF911F91FF90EF900895CF92DF92EF9203
:100FE000FF920F931F93CF93DF9300D0CDB7DEB75F
:100FF0008C01FC019781C42E941708F4C92EF801C6
:101000008085811103C0D92EDC1801C0D12CC80104
:1010100069837A830E94A00781E60E94A307698101
:10102000E62E7A81F72EC60ECE1439F08FEF0E948D
:10103000A307F70181937F01F7CFDD2029F08FEF20
:101040000E94A307DA94F9CFC8010E949D0740E7E8
:1010500067E0C8010F900F90DF91CF911F910F9122
:10106000FF90EF90DF90CF900C94C907CF92DF9262
:10107000EF92FF920F931F93CF93DF9300D01F92B5
:10108000CDB7DEB77C01142F2A835B8369830E946E
:10109000A0076981862F8F7180620E94A307082FA5
:1010A000C12E5B81D52E2A81120F1C1531F0F6015D
:1010B00081916F010E94A307F8CFC7010E949D078D
:1010C000802F0F900F900F90DF91CF911F910F9174
:1010D000FF90EF90DF90CF900895EF92FF920F93E3
:1010E0001F93CF93DF93CDB7DEB728970FB6F89451
:1010F000DEBF0FBECDBF7C0109831A832B833C83E7
:101100004D835E836F837887FC012685AE014F5F38
:101110005F4F6AE00E943608F7012685AE014F5FF7
:101120005F4F60E1C7010E943608F701478161E126
:10113000C7010E94C90728960FB6F894DEBF0FBEFC
:10114000CDBFDF91CF911F910F91FF90EF90089548
:10115000EF92FF921F93CF93DF931F92CDB7DEB72D
:101160007C0169830E94A0076981862F8F710E948C
:10117000A3078FEF0E94A307182FC7010E949D07A6
:10118000812F0F90DF91CF911F91FF90EF900895E5
:10119000AF92BF92DF92EF92FF920F931F93CF9384
:1011A000DF93CDB7DEB728970FB6F894DEBF0FBE3A
:1011B000CDBF5C01D62EE982FA820B831C832D837E
:1011C0003E834F83588761110AC0FC01468550E079
:1011D000BE016F5F7F4F09960E94781B07C0F6E043
:1011E000F61708F435C081E0681308C0ED2DF0E073
:1011F000EC55FE4F6491F501268506C0E62FF0E020
:10120000EC55FE4F649121E0AE014F5F5F4FC50189
:101210000E9436080D2D10E0F801E256FE4F649151
:10122000F5014781C5010E94C90762E0C5010E941E
:10123000A808F801E853FE4FE49141E050E001C0F6
:10124000440FEA95EAF7482B62E0C5010E94C907FE
:1012500028960FB6F894DEBF0FBECDBFDF91CF91B9
:101260001F910F91FF90EF90DF90BF90AF90089586
:1012700067E10E94A808809581700895CF93DF935D
:10128000EC0167E1CE010E94A80884FD14C06FEF55
:10129000CE010E94AA0784FFF4CF40E167E0CE01AF
:1012A0000E94C90760E0CE010E947907CE010E942A
:1012B000C60780E005C060E0CE010E94790781E0AA
:1012C000DF91CF910895CF93DF93EC0160E00E940E
:1012D000A80881FD0EC0482F426060E0CE010E9448
:1012E000C90765E070E080E090E0DF91CF910C9459
:1012F000E906DF91CF910895CF93DF93EC0160E091
:101300000E947907888999890E94F5056DE1CE01CF
:101310000E94A80881FF07C0888999890E94F50565
:10132000CE010E94C60760E0CE010E94A808482FA7
:101330004E7F60E0CE010E94C90762E0CE010E94AC
:10134000A808E8ECF1E0E49141E050E001C0440F6E
:10135000EA95EAF7482B62E0CE01DF91CF910C9439
:10136000C907CF93DF93EC010E94630960E0CE01CF
:101370000E94A808482F416060E0CE010E94C90782
:1013800040E767E0CE010E94C90761E0CE010E94FC
:1013900079078985882349F02E85AE01475F5F4F25
:1013A0006AE0CE010E94360803C0CE010E94530BB2
:1013B0006DE1CE010E94A80881FF05C0CE01DF913A
:1013C000CF910C94C607DF91CF9108950F931F938F
:1013D0000E9423076093360370933703809338038A
:1013E00090933903E0912E03F0912F030284F3854B
:1013F000E02D8EE293E0099597FF1FC00E9423071E
:10140000009136031091370320913803309139034E
:10141000DC01CB01801B910BA20BB30B00913203BB
:1014200010913303209134033091350380179107D5
:10143000A207B307B8F28FEF9FEF1F910F910895A6
:10144000EEE2F3E0A089B18982E08C93A485B585B2
:101450001C92A685B7858FEC8C93108EA489B589D4
:1014600086E08C93A289B3898C9180618C93A28948
:10147000B3898C9188608C93A289B3898C918068A0
:101480008C930288F389E02D80818F7D808308957D
:10149000009769F0FC0101900020E9F73197AF0156
:1014A000481B590BBC018EE293E00C940D0D80E0BB
:1014B00090E00895CF93DF930E94480AEC018CE1FD
:1014C00093E00E94480A8C0F9D1FDF91CF910895F1
:1014D0008F929F92AF92BF920F931F93CF93DF9300
:1014E000CDB7DEB7A1970FB6F894DEBF0FBECDBF64
:1014F00019A2423008F44AE08E010F5D1F4F842E7E
:10150000912CA12CB12CA50194010E945419E62F15
:10151000B901CA0101501109EA3014F4E05D01C0BB
:10152000E95CD801EC93232B242B252B61F7C80110
:101530000E94480AA1960FB6F894DEBF0FBECDBF39
:10154000DF91CF911F910F91BF90AF909F908F909F
:101550000895CF92DF92EF92FF92CF93DF936B01CA
:101560007C01E0912E03F0912F030190F081E02D9A
:101570006DE28EE293E00995EC0166277727CB01B7
:101580006C197D098E099F094AE00E94680A8C0F38
:101590009D1FDF91CF91FF90EF90DF90CF90089546
:1015A000CF93DF93BC01990F880B990B97FF03C072
:1015B0000E94A90A03C04AE00E94680AEC018CE17B
:1015C00093E00E94480A8C0F9D1FDF91CF910895F0
:1015D0000C94480ABC01990F880B990B97FD0C9449
:1015E000A90A4AE00C94680ACF92DF92EF92FF9228
:1015F0000F931F93CF93DF9300D0CDB7DEB78C014D
:10160000FC019781D42E941708F4D92EF801808517
:10161000811103C0C92ECD1801C0C12CC801698336
:101620007A830E94A00780EA0E94A3076981E62EC0
:101630007A81F72ED60EDE1431F0F70181917F0109
:101640000E94A307F8CFCC2029F080E00E94A307D6
:10165000CA94F9CFC8010E949D0761E0C8010E94A9
:1016600079076FEFC8010E94AA078073D1F360E089
:10167000C8010E94790740E767E0C8010E94C907D6
:1016800084FF05C0C8010E94C60780E001C081E058
:101690000F900F90DF91CF911F910F91FF90EF90DE
:1016A000DF90CF900895CF93DF93EC0162E00E942A
:1016B000A808E8ECF1E0E49121E030E001C0220F5D
:1016C000EA95EAF72095422F482362E0CE01DF91A8
:1016D000CF910C94C907EF92FF920F931F93CF9372
:1016E000DF9300D0CDB7DEB78C016EE173E00E94CE
:1016F000640D0E94E60997FD1EC089831A82F801D5
:10170000E480F580FFEFEF1AFF0AB701C8010E94DD
:10171000380D882371F3F80120813181848195810E
:10172000BE016F5F7F4F820F931F0E948A1BF801DB
:10173000F582E482DECFC8010F900F90DF91CF9148
:101740001F910F91FF90EF9008950F931F93CF93E8
:101750008C0166E08EE094E00E94A808C82FC77D47
:101760000230110531F4C0628BE990E0A0E0B0E0F6
:101770000DC00130110529F085E590E0A0E0B0E052
:1017800005C0C86081E490E0A0E0B0E080931E0452
:1017900090931F04A0932004B09321044C2F66E083
:1017A0008EE094E00E94C90766E08EE094E00E941B
:1017B000A80891E08C1390E0892FCF911F910F9191
:1017C00008958F929F92AF92BF92EF92FF920F93E4
:1017D0001F93CF93DF93CDB7DEB7E3970FB6F8949F
:1017E000DEBF0FBECDBF7C014A015B018901C9018B
:1017F00089529342873E934098F420E030E0A9015B
:10180000C501B4010E94871787FD0AC020E03CE3B0
:101810004CE156E4C501B4010E944F19181634F486
:1018200065E273E0C7010E94640DE4C06EE173E0FD
:10183000CE018E960E94640D6EE173E0CE01889613
:101840000E94640D1BA21AA21DA21CA21FA21EA20E
:101850004AE0BE016F5F7F4FC8010E94E414BE01E1
:101860006F5F7F4FCE0182960E942E04BE016E5D97
:101870007F4FCE018E960E940903CE0182960E9470
:101880005F0D6AA97BA92EA53FA5EBECF3E080E0F4
:1018900090E08617970718F42115310529F4109266
:1018A0003304A3E3B4E003C0D901A80FB91F4C91DE
:1018B000419301968430910561F78DE28093CF03C7
:1018C0001BA21AA21DA21CA21FA21EA28E010F5FA4
:1018D0001F4F22E044E0C501B4010E94A614BC01E0
:1018E000CE0182960E942E04BE016E5D7F4FCE0116
:1018F0008E960E940903CE0182960E945F0D6AA90E
:101900007BA92EA53FA580E090E08617970718F4E5
:101910002115310529F410923304E3E3F4E003C008
:10192000F901E80FF91F4081FC01E553FC4F4583A5
:1019300001968530910549F78DE28093D5031BA26E
:101940001AA21DA21CA21FA21EA24AE0BE016F5F26
:101950007F4F84E090E00E94E414BE016F5F7F4FF0
:10196000CE0182960E942E04BE016E5D7F4FCE0195
:101970008E960E940903CE0182960E945F0D4AA9AD
:101980005BA98EA59FA520E030E02417350791F0D4
:10199000009729F410923304E3E3F4E003C0FC0160
:1019A000E20FF31F6081F901E553FC4F63872F5F5E
:1019B0003F4FEBCFF901E553FC4F88E783876BEC92
:1019C00073E0CE0188960E942E04F70111821082E6
:1019D0001382128215821482BE01685D7F4FC70197
:1019E0000E940903CE0188960E945F0DCE018E965B
:1019F0000E945F0DC701E3960FB6F894DEBF0FBEDD
:101A0000CDBFDF91CF911F910F91FF90EF90BF90CD
:101A1000AF909F908F9008950895CF92DF92EF92AC
:101A2000FF920F931F93CF93DF936C017A018B0189
:101A3000C0E0D0E0CE15DF0589F0D8016D918D01B1
:101A4000D601ED91FC910190F081E02DC601099540
:101A5000892B11F47E0102C02196ECCFC701DF91E2
:101A6000CF911F910F91FF90EF90DF90CF9008954D
:101A70000F931F93CF93DF93EC0188819981009797
:101A800029F02A813B812617370788F48B016F5F85
:101A90007F4F0E94A91A009761F0998388831B8366
:101AA0000A832C813D81232B11F4FC01108281E0FB
:101AB00001C080E0DF91CF911F910F910895FC014B
:101AC000808191810C94111AFC0111821082138281
:101AD0001282158214826115710551F0FB0101908B
:101AE0000020E9F73197AF01461B570B0C94030414
:101AF0000895CF93DF93CDB7DEB72E970FB6F89446
:101B0000DEBF0FBECDBF789484B5826084BD84B53E
:101B1000816084BD85B5826085BD85B5816085BDE8
:101B200080916E00816080936E00109281008091A0
:101B30008100826080938100809181008160809328
:101B40008100809180008160809380008091B1004D
:101B500084608093B1008091B00081608093B00078
:101B600080917A00846080937A0080917A0082600C
:101B700080937A0080917A00816080937A008091CE
:101B80007A00806880937A001092C1000E94200A37
:101B900088E191E00E945A0A80910E0490910F040E
:101BA00020911004309111048217930719F061E01D
:101BB0000E94AD06809110049091110420910E04B2
:101BC00030910F042817390719F061E00E94AD0623
:101BD0001FB7F89480912C03811127C0E0E8F1E051
:101BE0008491E4E9F1E09491E82FF0E0EE0FFF1F1B
:101BF000EE59FE4FA591B491EC91E92321F461E0F7
:101C00008AE00E947D0661E08AE00E94AD068CB504
:101C100080618CBD8CB580648CBD61E08DE00E94DC
:101C2000AD0661E08BE00E94AD0680912C038F5FD2
:101C300080932C031FBF60E08EE094E00E94790740
:101C400061E08EE094E00E94850765E070E080E04E
:101C500090E00E94E9064CE060E08EE094E00E9493
:101C6000C9074FE564E08EE094E00E94C90782E076
:101C700090E00E94A50B882319F081E08093140462
:101C800066E08EE094E00E94A80880E090E00E9468
:101C9000A50B8EE094E00E94A00780E50E94A307B8
:101CA00083E70E94A3078EE094E00E949D0740E036
:101CB0006DE18EE094E00E94C90740E06CE18EE0A7
:101CC00094E00E94C9071092160440E767E08EE096
:101CD00094E00E94C9074CE465E08EE094E00E9425
:101CE000C90762EE8EE094E00E94AA078EE094E0BD
:101CF0000E94C6078EE094E00E94630960E08EE0D7
:101D000094E00E94A808482F4E7F60E08EE094E0A7
:101D10000E94C90768EC70E080E090E00E94E9064C
:101D200062E0809101040E94AD0680E398EFAFEF7E
:101D3000BFEF8093050490930604A0930704B0932B
:101D4000080460E082E00E94AD0660E083E00E944B
:101D5000AD0660E084E00E94AD0660E085E00E9490
:101D6000AD0661E087E00E94AD0661E088E00E9478
:101D7000AD0661E088E00E947D0666E08EE094E0BA
:101D80000E94A808482F476066E08EE094E00E9419
:101D9000C90782E090E00E94A50B811104C081E296
:101DA00091E00E945A0A4CE765E08EE094E00E94C0
:101DB000C9070E9423076B0120E3C21A28EFD20A49
:101DC0006EE173E0CE0107960E94640D8EE293E00F
:101DD0000E94A0050D2C000CEE08FF080E942307AE
:101DE0006C157D058E059F0568F08091EC03909140
:101DF000ED038932934209F0DFC08BECC82E83E0FB
:101E0000D82E24C08EE293E00E94220518161906EF
:101E10002CF7CE0101960E946B0BBE016F5F7F4FC6
:101E2000CE0107960E940903CE0101960E945F0D24
:101E30008B859C85892BC9F20F8118856CE371E035
:101E4000C8010E94811B892B81F245C1F601878858
:101E5000908C1A82198287E992E00E945A0A81E4E2
:101E600091E00E945A0A8091DE039091DF030E9464
:101E70007C09F601108D0789712F770F770B272FBB
:101E8000372F472F572F672F8091DE039091DF0365
:101E90000E946D08F6018789908D9A83898342E0BC
:101EA000BE016F5F7F4F8091DE039091DF030E9440
:101EB000F40A882389F068EC70E080E090E00E94EA
:101EC000E90642E06CEE73E08091DE039091DF035F
:101ED0000E94F40A81110EC009811A810E94200A11
:101EE00087E992E00E945A0A82E591E00E94E80A9E
:101EF000C80143C01A821982F601A788B08CF090FD
:101F0000ED03E090EC035F2D550F550B052F152FBA
:101F1000252F352F452F61E08091DE039091DF035F
:101F20000E94C8088091DE039091DF030E94B109EE
:101F30000E9423078B0108511C4F2801012E000C21
:101F4000660877088091DE039091DF030E943809CC
:101F50008111D2C10E942307641575058605970576
:101F600088F3CAC10E94200A87E992E00E945A0AB7
:101F70008DE891E00E94E80AC5010E94EA0A89E31F
:101F800091E00E945A0A61E087E00E947D0668EEB7
:101F900073E080E090E00E94E90660E087E00E9444
:101FA0007D06F2E0CF0ED11C25EDC21623E0D2064D
:101FB00009F04CCFF12C8CC08AEF91E00E945A0AB4
:101FC0001E861D861A821982F090ED03E090EC03C4
:101FD0005F2D550F550B052F152F252F352F452F0D
:101FE00061E08091DE039091DF030E94C808809138
:101FF000DE039091DF030E94B109F12C0E942307B8
:102000008B01005D1A484801012E000CAA08BB088C
:102010008091DE039091DF030E943809811107C08F
:102020000E942307681579058A059B0588F380912E
:10203000DE039091DF030E943809882309F495C1DB
:102040008FE092E00E945A0A42E0BE01635F7F4F38
:102050008091DE039091DF030E94ED070E94230729
:102060008B01005D1A484801012E000CAA08BB082C
:102070008091DE039091DF030E943809882309F4E0
:1020800099C18091DE039091DF030E943809882373
:1020900009F499C142E0BE016F5F7F4F8091DE037A
:1020A0009091DF030E94ED072D853E858091EC0322
:1020B0009091ED032817390709F4AAC12D853E85B3
:1020C0008091EC039091ED032817390709F096CF22
:1020D000F0922D030AC064E073E0C8010E94811BE6
:1020E000892B09F082CE10922D0360E088E00E94D7
:1020F0007D0688E692E00E94E80A80912D0390E038
:102100000E94D00A86E792E00E945A0A8CE892E088
:102110000E94E80A8091FA039091FB030E94D00A82
:1021200089E992E00E945A0A00EF13E0F8018191D8
:1021300091918F010E94D00AF3E00A3F1F07B1F787
:10214000CE0107960E945F0D6EE173E0CE01079607
:102150000E94640D85EA92E00E945A0A8AEA92E09F
:102160000E945A0A8091FA039091FB0389329342AC
:1021700009F06CC08EE293E00E9422051816190641
:102180007CF4CE0101960E946B0BBE016F5F7F4F06
:10219000CE0107960E940903CE0101960E945F0DB1
:1021A0008F8198850E94C6148A32E3E29E0771F1FE
:1021B0008B32F3E29F07A1F18932934209F08EC07E
:1021C0000091FA031091FB030E94590226E636E6BD
:1021D00046EE5FE30E94ED1720E030E040E052E47D
:1021E0000E94E318AB01BC019801CE0101960E9448
:1021F000E10B4D815E8169817A818EE293E00E94DC
:102200000D0DCE0101960E945F0D6FC08AE293E230
:102210000E94A602882309F468C08EEB92E009C0F0
:102220008BE293E20E94A602882309F45EC084EC4C
:1022300092E00E945A0A0E944F048AEA92E00E94A9
:102240005A0A87E992E00E945A0A4FC0F090ED03C3
:10225000E090EC035F2D550F550B052F152F252F03
:10226000352F452F60E08091DE039091DF030E94BF
:10227000C8088091DE039091DF030E94B1098AECC7
:1022800092E00E945A0A8091DE039091DF030E943F
:1022900038098823C1F380EE92E00E945A0A41E097
:1022A000BE016F5F7F4F8091DE039091DF030E943C
:1022B000ED070091FA031091FB030E94590226E6F4
:1022C00036E646EE5FE30E94ED1720E030E040E0A6
:1022D00052E40E94E318A8010E9442036EE173E0F9
:1022E000CE0107960E942E043DCFCE0107960E9494
:1022F0005F0D0E94C20528CF8091DE039091DF031D
:102300000E9438098823E1F042E0BE016F5F7F4FF1
:102310008091DE039091DF030E94ED0789819A810D
:102320008A159B0509F01ECE85E791E00E945A0AA6
:1023300087EE92E00E945A0AC4010E94D00A31CE70
:102340000E942307012E000C220B330B06171707E0
:102350002807390708F025CE0E94200A87E992E075
:102360000E945A0A87EC91E005CE0E942307012EB5
:10237000000C220B330B061717072807390708F044
:102380006DCE0E94200A87E992E00E945A0A81E2FB
:1023900092E00E945A0A61E087E00E947D0668EEA2
:1023A00073E080E090E00E94E90660E087E00E9430
:1023B0007D0654CE0E942307681579058A059B0582
:1023C00008F456CE5ECE0E942307012E000C220B8D
:1023D000330B061717072807390708F065CE0E9448
:1023E000200A87E992E00E945A0A81E292E00E9464
:1023F0005A0A61E087E00E947D0668EE73E080E0A3
:1024000090E00E94E90660E087E00E947D064CCEE5
:102410008091DE039091DF030E947C091091E30319
:102420000091E203712F770F770B272F372F472F5C
:10243000572F672F8091DE039091DF030E946D0874
:102440008AE492E00E945A0A42E06CEE73E08091C6
:10245000DE039091DF030E94F40A811128C08FE50A
:1024600092E00E945A0A0091E2031091E3030E9455
:10247000200A87E992E00E945A0A82E591E00E94D0
:10248000E80AC8010E94EA0A89E391E00E945A0A18
:1024900061E087E00E947D0668EE73E080E090E0F6
:1024A0000E94E90660E087E00E947D0607CEFF24D7
:1024B000F39404CE8F929F92AF92BF92CF92DF920D
:1024C000EF92FF920F931F93CF93DF9310923103FC
:1024D0001092300388EE93E0A0E0B0E080933203E6
:1024E00090933303A0933403B09335038AE091E0D3
:1024F00090932F0380932E0385EC90E090933B0301
:1025000080933A0384EC90E090933D0380933C03E6
:1025100080EC90E090933F0380933E0381EC90E049
:10252000909341038093400382EC90E090934303A7
:102530008093420386EC90E090934503809344039C
:1025400010924703109248031092490310924A03D5
:1025500089E090E090930F0480930E048AE090E06D
:1025600090931104809310041092140480E28093DD
:1025700015041092160485E080931C0485E090E019
:10258000A0E0B0E08093220490932304A09324045D
:10259000B09325041092170486E0809301048BE029
:1025A00080930204E0E9F1E0E491E0930304ECE7B6
:1025B000F1E0E491E093040480E89EE3A0E0B0E061
:1025C0008093090490930A04A0930B04B0930C0425
:1025D0000E94200A82E00E947D144C0183E00E9448
:1025E0007D14D1E0892B09F4D0E084E00E947D14B1
:1025F000C1E0892B09F4C0E08FE193E00E945A0A00
:10260000892839F4D1110CC0CC23A1F0CDE2D3E25A
:102610001CC0D1110AC0CC2381F0CEE2D3E215C098
:10262000CC2371F0CFE2D3E210C0CC2361F0C0E341
:10263000D3E20BC0C9E2D3E208C0CAE2D3E205C0CC
:10264000CBE2D3E202C0CCE2D3E2D093FB03C0934F
:10265000FA0382E293E00E945A0AC93283E2D80761
:1026600099F0CE018A529342039788F0CD3283E2EB
:10267000D80781F0CE3283E2D80779F0CF32D34247
:1026800079F08FE293E20EC08AE293E20BC089E216
:1026900093E208C08CE293E205C08DE293E202C0AF
:1026A0008EE293E29093F1038093F003C091FA03DA
:1026B000D091FB0382E293E00E945A0ACE01895234
:1026C000934282309105E0F002970297A0F0CD325C
:1026D00083E2D807A9F0CE3283E2D807B1F0CF3237
:1026E00083E2D807B9F0C033D342C1F4DEE2ED2E65
:1026F000D3E2FD2E13C0CAE2EC2EC3E2FC2E0EC0C4
:10270000BBE2EB2EB3E2FB2E09C0ACE2EA2EA3E261
:10271000FA2E04C0FDE2EF2EF3E2FF2EF092F30357
:10272000E092F203C091FA03D091FB0382E293E0BE
:102730000E945A0ACE01895293420397E0F0CC32AC
:1027400083E2D807A9F0CD3283E2D80771F0CE3208
:1027500083E2D80769F0CF3283E2D80761F0C03353
:10276000D34259F40DE213E208C00AE213E205C0B5
:102770000BE213E202C00CE213E21093F5030093A4
:10278000F403C091FA03D091FB0382E293E00E942C
:102790005A0ACE01895293420497A0F0CD3283E2C7
:1027A000D807A9F0CE3283E2D807B1F0CF3283E266
:1027B000D807B9F0C033D342C1F4ECE2AE2EE3E265
:1027C000BE2E13C07DE2A72E73E2B72E0EC06EE2BE
:1027D000A62E63E2B62E09C05AE2A52E53E2B52E0C
:1027E00004C04BE2A42E43E2B42EB092F703A092B1
:1027F000F603C091FA03D091FB0382E293E00E94BA
:102800005A0ACE01895293428430910578F0049798
:10281000029788F0CF3283E2D80791F0C033D342D9
:1028200099F43BE2C32E33E2D32E0EC02EE2C22E29
:1028300023E2D22E09C09FE2C92E93E2D92E04C012
:102840008AE2C82E83E2D82ED092F903C092F80310
:102850001092270410922604109229041092280442
:102860008091FA039091FB032EE034E03093DF0374
:102870002093DE0326E234E03093E1032093E0036B
:102880009093ED038093EC039093DD038093DC033E
:102890001092EF031092EE038091F0039091F103F8
:1028A0009093E3038093E2038091F2039091F3030A
:1028B0009093E5038093E4038091F4039091F503F2
:1028C0009093E7038093E6038091F6039091F703DA
:1028D0009093E9038093E803D092EB03C092EA035C
:1028E000DF91CF911F910F91FF90EF90DF90CF90EC
:1028F000BF90AF909F908F900895CF93DF93282F34
:1029000030E0F901EC54FE4F8491F901E657FE4F97
:10291000D491F901EA58FE4FC491CC2391F0811172
:102920000E94CC05EC2FF0E0EE0FFF1FE459FE4FA4
:10293000A591B491EC91ED2381E090E021F480E049
:1029400002C080E090E0DF91CF910895EF920F9365
:102950001F93CF93DF93E80147FD02C034E001C02D
:1029600034E1E42F440FFF0BF7FF03C0F195E1952D
:10297000F109E32E022F2E2FAE010E941115CE0178
:10298000DF91CF911F910F91EF900895FC0188275F
:102990009927E89421912032E9F3293010F02E3064
:1029A000C8F32B3241F02D3239F4689404C00E94F0
:1029B000EF14820F911D219120532A30C0F31EF491
:1029C000909581959F4F0895BB274A3031F4992304
:1029D00022F4BDE2909581959F4F0C94F8147AE013
:1029E000979F902D879F802D910D11240895BB27CF
:1029F000FB015527AA27880F991FAA1FA41710F0BB
:102A0000A41B83955051B9F7A05DAA3308F0A95DC6
:102A1000A193009779F7B111B1931192CB010C9466
:102A200077174F925F926F927F929F92AF92BF9271
:102A3000CF92DF92EF92FF920F931F93CF93DF938A
:102A4000CDB7DEB729970FB6F894DEBF0FBECDBF66
:102A50006A01122FB02E2BE3201720F0FF24F394ED
:102A6000F00E02C0BCE3FB2E0F2D27E0AE014F5F3E
:102A70005F4F0E949F16AC018981982F9970913009
:102A800031F0E1FC06C0E0FE06C090E205C09DE228
:102A900003C09BE201C090E0EE2DE07183FF3CC0DB
:102AA000911102C083E001C084E0811718F4212F46
:102AB000281B01C020E0E1110BC0F601822F30E29B
:102AC000882319F031938150FBCFC20ED11C20E036
:102AD000992329F0D6019C93F60131966F01C60126
:102AE0000396E2FE0AC03EE4D6013C9341E411960F
:102AF0004C93119712963C9306C03EE6F601308344
:102B000041E641833283FC01322F40E2332309F452
:102B100042C041933150FACF82FF44C0911102C0AC
:102B200083E001C084E0811718F4212F281B01C025
:102B300020E0E1110BC0F601822F30E2882319F06A
:102B400031938150FBCFC20ED11C20E0992329F094
:102B5000D6019C93F60131966F01C6010396E2FE01
:102B60000BC039E4D6013C933EE411963C93119797
:102B700036E412963C9307C039E6F60130833EE610
:102B8000318336E63283FC01322F40E2332319F0E1
:102B900041933150FBCFFC01E20FF11D10828EEF0B
:102BA0009FEFB7C0F1E0911101C0F0E06F2F70E02E
:102BB0001416150624F49A012F5F3F4F02C021E03E
:102BC00030E0260F371FBB2029F06B2D70E06F5FC0
:102BD0007F4F02C060E070E0260F371F612F70E06A
:102BE000261737071CF4121B212F01C020E03E2DB1
:102BF000387159F4D601322F60E2332319F06D9306
:102C00003150FBCFC20ED11C20E0FF2331F0D601A2
:102C10009C93B6016F5F7F4F6B01E1110BC0F60112
:102C2000922F30E3992319F031939150FBCFC20ECC
:102C3000D11C20E09F2D940F3A81782F7071A72E20
:102C400084FF03C0313309F49150191624F49930EC
:102C500018F098E001C091E0E42F852F57FF02C0E3
:102C6000E0E080E06E2F782FE0E0F0E0AEE29A2E18
:102C70003A01691A71082A01461A570A0B2D10E009
:102C80001195019511096F3F8FEF780729F4D6014F
:102C90009C92C60101966C014617570784F0661690
:102CA00077066CF47F01E40CF51CA1E0B0E0AC0FFA
:102CB000BD1FEA0EFB1ED7011196BC9002C090E327
:102CC000B92E615071093196C60101967C016017D9
:102CD000710724F0D601BC926C01D5CF641775073B
:102CE00041F4363320F4353321F4A11002C081E3DE
:102CF000B82EF601B082F701822F90E2882319F0F6
:102D000091938150FBCFF701E20FF11D108280E01B
:102D100090E029960FB6F894DEBF0FBECDBFDF91CD
:102D2000CF911F910F91FF90EF90DF90CF90BF90C8
:102D3000AF909F907F906F905F904F900895283054
:102D400008F027E03327DA01990F311D87FD9160E4
:102D500000966105710539F432602E5F3D9330E3D2
:102D60002A95E1F708959F3F30F08038710561059D
:102D700009F03C5F3C5F3D93913008F08068911D05
:102D8000DF93CF931F930F93FF92EF92192F987FAA
:102D90009695E92F96959695E90FFF27EE53FF4FED
:102DA00099273327EE24FF24A701E7010590089413
:102DB000079428F4360FE71EF81E491F511D660FB1
:102DC000771F881F991F0694A1F70590079428F490
:102DD000E70EF81E491F561FC11D770F881F991F48
:102DE000661F0694A1F70590079428F4F80E491F72
:102DF000561FC71FD11D880F991F661F771F069486
:102E0000A1F70590079420F4490F561FC71FD81F3C
:102E1000990F661F771F881F0694A9F78491109554
:102E2000177041F0D695C79557954795F794E79455
:102E30001A95C1F7E8E6F0E0689415901591359180
:102E40006591959105907FE27395E118F10A430B26
:102E5000560BC90BD009C0F7E10CF11E431F561FDA
:102E6000C91FD01D7EF4703311F48A95E6CFE89423
:102E7000015030F0080F0AF40027021708F4202F41
:102E80002395022F7A3328F079E37D932A95E9F789
:102E900010C07D932A9589F6069497956795379586
:102EA00017951794E118F10A430B560BC90BD0097B
:102EB00098F023957E9173957A3308F070E37C93B4
:102EC0002013B8F77E9170617D9330F0839571E3A4
:102ED0007D9370E32A95E1F71124EF90FF900F9115
:102EE0001F91CF91DF91992787FD90950895DC017F
:102EF000FC01672F71917723E1F7329704C07C9131
:102F00006D9370836291AE17BF07C8F308950E9456
:102F1000C91708F481E00895E89409C097FB3EF4CE
:102F200090958095709561957F4F8F4F9F4F992316
:102F3000A9F0F92F96E9BB279395F6958795779594
:102F40006795B795F111F8CFFAF4BB0F11F460FF54
:102F50001BC06F5F7F4F8F4F9F4F16C0882311F0AC
:102F600096E911C0772321F09EE8872F762F05C0C0
:102F7000662371F096E8862F70E060E02AF09A955B
:102F8000660F771F881FDAF7880F9695879597F950
:102F90000895990F0008550FAA0BE0E8FEEF1616EA
:102FA0001706E807F907C0F012161306E407F5073D
:102FB00098F0621B730B840B950B39F40A2661F0B1
:102FC000232B242B252B21F408950A2609F4A14054
:102FD000A6958FEF811D811D08950E9400180C9405
:102FE00071180E94631838F00E946A1820F0952327
:102FF00011F00C945A180C94601811240C94A51814
:103000000E94821870F3959FC1F3950F50E0551FF1
:10301000629FF001729FBB27F00DB11D639FAA272D
:10302000F00DB11DAA1F649F6627B00DA11D661F7C
:10303000829F2227B00DA11D621F739FB00DA11D9D
:10304000621F839FA00D611D221F749F3327A00D57
:10305000611D231F849F600D211D822F762F6A2FF3
:1030600011249F5750409AF0F1F088234AF0EE0F58
:10307000FF1FBB1F661F771F881F91505040A9F785
:103080009E3F510580F00C945A180C94A5185F3F90
:10309000E4F3983ED4F3869577956795B795F795C1
:1030A000E7959F5FC1F7FE2B880F911D9695879539
:1030B00097F9089597F99F6780E870E060E00895B8
:1030C0009FEF80EC089500240A9416161706180640
:1030D0000906089500240A9412161306140605061C
:1030E0000895092E0394000C11F4882352F0BB0FAD
:1030F00040F4BF2B11F460FF04C06F5F7F4F8F4F10
:103100009F4F089557FD9058440F551F59F05F3F4A
:1031100071F04795880F97FB991F61F09F3F79F0F9
:1031200087950895121613061406551FF2CF46957B
:10313000F1DF08C0161617061806991FF1CF8695FD
:103140007105610508940895E894BB2766277727E1
:10315000CB0197F908952F923F924F925F926F9211
:103160007F928F929F92AF92BF92CF92DF92EF9217
:10317000FF920F931F93CF93DF93CDB7DEB7CA1B98
:10318000DB0B0FB6F894DEBF0FBECDBF09942A88C3
:10319000398848885F846E847D848C849B84AA846B
:1031A000B984C884DF80EE80FD800C811B81AA81F8
:1031B000B981CE0FD11D0FB6F894DEBF0FBECDBFC3
:1031C000ED0108955058BB27AA270E94FA180C94C5
:1031D00071180E94631838F00E946A1820F039F4C0
:1031E0009F3F19F426F40C9460180EF4E095E7FB69
:1031F0000C945A18E92F0E94821858F3BA176207E4
:1032000073078407950720F079F4A6F50C94A418A9
:103210000EF4E0950B2EBA2FA02D0B01B9019001F1
:103220000C01CA01A0011124FF27591B99F0593F35
:1032300050F4503E68F11A16F040A22F232F342F7D
:103240004427585FF3CF469537952795A795F040CB
:103250005395C9F77EF41F16BA0B620B730B840BE0
:10326000BAF09150A1F0FF0FBB1F661F771F881F98
:10327000C2F70EC0BA0F621F731F841F48F48795F0
:1032800077956795B795F7959E3F08F0B0CF9395E2
:10329000880F08F09927EE0F9795879508950E945B
:1032A000C91708F48FEF0895A1E21A2EAA1BBB1BC1
:1032B000FD010DC0AA1FBB1FEE1FFF1FA217B30702
:1032C000E407F50720F0A21BB30BE40BF50B661F18
:1032D000771F881F991F1A9469F7609570958095DC
:1032E00090959B01AC01BD01CF010895EE0FFF1F2A
:1032F0000590F491E02D0994CF93DF9382309105EE
:1033000010F482E090E0E0913604F091370420E080
:1033100030E0C0E0D0E0309711F140815181481792
:103320005907C0F04817590761F4828193812097AB
:1033300019F09B838A832BC09093370480933604C3
:1033400026C02115310519F04217530718F49A01C8
:10335000BE01DF01EF010280F381E02DDCCF2115FA
:10336000310509F1281B390B2430310590F41296F0
:103370008D919C9113976115710521F0FB01938349
:10338000828304C09093370480933604FD01329603
:1033900044C0FD01E20FF31F819391932250310944
:1033A0002D933C933AC02091340430913504232B63
:1033B00041F42091020130910301309335042093B0
:1033C000340420910001309101012115310541F4AF
:1033D0002DB73EB74091040150910501241B350BD8
:1033E000E0913404F0913504E217F307A0F42E1BAA
:1033F0003F0B2817390778F0AC014E5F5F4F241759
:10340000350748F04E0F5F1F509335044093340446
:103410008193919302C0E0E0F0E0CF01DF91CF9182
:1034200008950F931F93CF93DF93009709F48CC0F7
:10343000FC013297138212820091360410913704F6
:103440000115110581F420813181820F931F209194
:103450003404309135042817390779F5F093350491
:10346000E093340471C0D80140E050E0AE17BF07CC
:1034700050F412962D913C911397AD012115310511
:1034800009F1D901F3CF9D01DA01338322836081F1
:103490007181860F971F8217930769F4EC012881C9
:1034A0003981260F371F2E5F3F4F318320838A815A
:1034B0009B8193838283452B29F4F0933704E09317
:1034C000360442C01396FC93EE931297ED01499196
:1034D00059919E01240F351FE217F30771F4808183
:1034E0009181840F951F029611969C938E938281F1
:1034F000938113969C938E931297E0E0F0E0D801AD
:1035000012968D919C911397009719F0F8018C01F8
:10351000F6CF8D919C9198012E5F3F4F820F931FA4
:1035200020913404309135042817390769F4309715
:1035300029F4109237041092360402C013821282CA
:103540001093350400933404DF91CF911F910F91B4
:103550000895A0E0B0E0EFEAFAE10C94AF18EC01B6
:10356000009721F4CB010E947C19B8C0FC01E60F42
:10357000F71F9C0122503109E217F30708F4ACC091
:10358000D9010D911C91119706171707B0F005305E
:10359000110508F49FC0C80104978617970708F41F
:1035A00099C002501109061B170B019311936D93DB
:1035B0007C93CF010E94111A8DC05B01A01AB10A41
:1035C0004C01800E911EA0913604B091370440E06A
:1035D00050E0E12CF12C109709F44AC0A815B90568
:1035E000D1F56D907C901197630182E0C80ED11CDB
:1035F000CA14DB0480F1A3014A195B096A0182E065
:10360000C80ED11C1296BC9012971396AC91B5E0DF
:10361000CB16D10440F0B282A38351834083D901F9
:103620006D937C930AC00E5F1F4FC301800F911FE3
:10363000F90191838083EB2DFA2FE114F10431F02D
:10364000D7011396FC93EE93129744C0F09337047E
:10365000E09336043FC08D919C911197481759070C
:1036600008F4AC017D0112960D90BC91A02DB3CF52
:10367000809134049091350488159905E1F446173A
:103680005707C8F48091000190910101009741F41F
:103690008DB79EB74091040150910501841B950B95
:1036A000E817F907C8F4F0933504E0933404F901FE
:1036B000718360830FC0CB010E947C197C0100974D
:1036C00059F0A801BE010E94781BCE010E94111A78
:1036D000C70104C0CE0102C080E090E0CDB7DEB7E4
:1036E000EEE00C94CB1881E090E0F8940C94911BE0
:1036F000FB01DC0102C001900D9241505040D8F70F
:103700000895FB01DC018D91019080190110D9F31E
:10371000990B0895FB01DC0101900D920020E1F767
:063720000895F894FFCFAC
:103726000000380480000000000059050D0DF1046A
:10373600A005220500051405696E20736574757071
:10374600004641494C454420544F2053455420449B
:10375600415441205241544521212100747275651E
:103766000053656E64696E672070696E67732E2EEE
:103776002E004552524F5220303033212120556EB3
:1037860061626C6520746F20636F6E746163742070
:1037960068756220005265636569766564206163B9
:1037A6006B6E6F776C656467652E2E2E00455252E0
:1037B6004F5220303038212120496E636F72726576
:1037C60063742061636B6E6F776C656467656D65A6
:1037D6006E742070696E67207265636965766564CC
:1037E6002066726F6D20004552524F52203030379E
:1037F6002121204E6F2061636B6E6F776C65646765
:10380600656D656E742070696E67207265636965A3
:103816007665642066726F6D200057616974696E03
:103826006720666F722070696E67732E2E2E0052A7
:103836006563656976696E6720446174612E2E2E14
:10384600004552524F522030303921212054696DA3
:1038560065206F757421204E6F2070696E67207227
:103866006563656976656421210053656E64696EDA
:10387600672050696E67206261636B2E2E2E0045AD
:1038860052524F522121210050696E672073746194
:103896007475733A20002F2F2F2F2F2F2F2F2F2F96
:1038A6002F2F2F2F2F2F2F2F2F2F2F004D792041E6
:1038B6006464726573733A200052656164205261D4
:1038C6006E67653A0056565656005F5F5F5F5F5FEC
:1038D6005F5F5F5F5F5F5F5F5F5F5F5F5F003930A6
:1038E60030323A00393030333A00576169746E67C6
:1038F60020666F7220726571756573742E2E2E00A8
:10390600476F742E2E2E0053756363657373667549
:103916006C20636F6E7461637420776974682068C5
:103926007562200066616C73650053005472796994
:103936006E6720616761696E2E2E2E000D0A0030BB
:0C39460031003032004552524F52000058
:00000001FF
