:100000000C94E8000C9410010C9410010C94100155
:100010000C9410010C9410010C9410010C9410011C
:100020000C9410010C9410010C9410010C9410010C
:100030000C9410010C9410010C9410010C941001FC
:100040000C9443030C9410010C945F020C9439023D
:100050000C9410010C9410010C9410010C941001DC
:100060000C9410010C9410010000000024002700E3
:100070002A0004040404040404040202020202022A
:10008000030303030303010204081020408001025C
:100090000408102001020408102011121314151670
:1000A0000A0B0C0D0E0F00000000250028002B008D
:1000B0000000000800020100000304070000000027
:1000C00000000000000000002300260029000001BD
:1000D0000203040500407A10F35A00A0724E18097A
:1000E0000010A5D4E80000E87648170000E40B549F
:1000F000020000CA9A3B000000E1F505000080966E
:100100009800000040420F000000A086010000009F
:10011000102700000000E803000000006400000059
:1001200000000A00000000000100000000002C7622
:10013000D888DC674F0823DFC1DFAE59E1B1B7963D
:10014000E5E3E453C63AE651997696E8E6C284269A
:10015000EB898C9B62ED407C6FFCEFBC9C9F40F276
:10016000BAA56FA5F490055A2AF75C936B6CF967F2
:100170006DC11BFCE0E40D47FEF520E6B500D0EDB7
:10018000902E0300943577050080841E080000201F
:100190004E0A000000C80C333333330F986E1283BD
:1001A0001141EF8D2114893BE65516CFFEE6DB1891
:1001B000D1844B381BF77C1D901DA4BBE424203256
:1001C00084725E228100C9F124ECA1E53D275E0F17
:1001D00011241FBECFEFD8E0DEBFCDBF11E0A0E0FD
:1001E000B1E0ECEAFFE202C005900D92A832B1073F
:1001F000D9F722E0A8E2B1E001C01D92A233B20714
:10020000E1F710E0C8EED0E004C02197FE010E94A3
:100210003111C73ED107C9F70E94CD090C94D417FC
:100220000C940000FC01918D828D981761F0828DF5
:10023000DF01A80FB11D5D968C91928D9F5F9F731A
:10024000928F90E008958FEF9FEF0895FC01918DBC
:10025000828D981731F0828DE80FF11D858D90E029
:1002600008958FEF9FEF0895FC01918D228D892FC6
:1002700090E0805C9F4F821B91098F7399270895AE
:100280008BE291E00E94340121E0892B09F420E007
:10029000822F0895FC01848DDF01A80FB11DA35AA0
:1002A000BF4F2C91848D90E001968F739927848F96
:1002B000A689B7892C93A089B1898C9180648C938D
:1002C000938D848D981306C00288F389E02D808178
:1002D0008F7D80830895EF92FF920F931F93CF93AA
:1002E000DF93EC0181E0888F9B8D8C8D981305C086
:1002F000E889F989808185FD24C0F62E0B8D10E0F8
:100300000F5F1F4F0F731127E02E8C8DE8120CC06A
:100310000FB607FCFACFE889F989808185FFF5CF10
:10032000CE010E944A01F1CF8B8DFE01E80FF11D35
:10033000E35AFF4FF0820B8FEA89FB89808180624C
:1003400007C0EE89FF896083E889F989808180642C
:10035000808381E090E0DF91CF911F910F91FF901A
:10036000EF900895CF93DF93EC01888D8823C9F037
:10037000EA89FB89808185FD05C0A889B9898C91AE
:1003800086FD0FC00FB607FCF5CF808185FFF2CF49
:10039000A889B9898C9185FFEDCFCE010E944A01D1
:1003A000E7CFDF91CF91089580E090E0892B29F08D
:1003B0000E94400181110C9400000895833081F067
:1003C00028F4813099F08230A1F008958730A9F0A7
:1003D0008830B9F08430D1F4809180008F7D03C0E3
:1003E000809180008F7780938000089584B58F7707
:1003F00002C084B58F7D84BD08958091B0008F7751
:1004000003C08091B0008F7D8093B000089582304A
:10041000910538F0880F991F880F991F059701974C
:10042000F1F708953FB7F89480912A0290912B023A
:10043000A0912C02B0912D0226B5A89B05C02F3F9C
:1004400019F00196A11DB11D3FBFBA2FA92F982FFA
:100450008827820F911DA11DB11DBC01CD0142E075
:10046000660F771F881F991F4A95D1F708950E943C
:10047000A0131F920F920FB60F9211242F933F9348
:100480004F935F936F937F938F939F93AF93BF939C
:10049000EF93FF938BE291E00E944A01FF91EF916D
:1004A000BF91AF919F918F917F916F915F914F918C
:1004B0003F912F910F900FBE0F901F9018951F9294
:1004C0000F920FB60F9211242F938F939F93EF9358
:1004D000FF93E0913B01F0913C018081E09141016B
:1004E000F091420182FD12C09081809144018F5FA2
:1004F0008F7320914501821751F0E0914401F0E0A3
:10050000E55DFE4F958F8093440101C08081FF918E
:10051000EF919F918F912F910F900FBE0F901F9091
:1005200018951F93CF93DF93282F30E0F901E05502
:10053000FF4F8491F901EA57FF4FD491F901EE582A
:10054000FF4FC491CC23C9F0162F81110E94DE0108
:10055000EC2FF0E0EE0FFF1FEA55FF4FA591B4918D
:100560008FB7F894111105C09C91ED2FE095E92308
:1005700002C0EC91ED2BEC938FBFDF91CF911F91D7
:100580000895CF93DF9390E0FC01EA57FF4F249149
:10059000FC01EE58FF4F8491882361F190E0880FB1
:1005A000991FFC01E859FF4FC591D491FC01EA5510
:1005B000FF4FA591B491611109C09FB7F89488814C
:1005C000209582238883EC912E230BC0623061F446
:1005D0009FB7F8943881822F809583238883EC918C
:1005E0002E2B2C939FBF06C08FB7F894E8812E2B3B
:1005F00028838FBFDF91CF9108958F929F92AF9202
:10060000BF92CF92DF92EF92FF926B017C010E942A
:1006100012024B015C01C114D104E104F104F1F0B8
:100620000E941202DC01CB0188199909AA09BB09B1
:10063000883E9340A105B10570F321E0C21AD108AC
:10064000E108F10888EE880E83E0981EA11CB11C19
:10065000C114D104E104F10419F7DDCFFF90EF904C
:10066000DF90CF90BF90AF909F908F9008952FB75D
:10067000F89460912602709127028091280290914F
:1006800029022FBF08951F920F920FB60F921124C7
:100690002F933F938F939F93AF93BF9380912602A5
:1006A00090912702A0912802B09129023091250251
:1006B00023E0230F2D3720F40196A11DB11D05C0A5
:1006C00026E8230F0296A11DB11D209325028093D9
:1006D000260290932702A0932802B09329028091CA
:1006E0002A0290912B02A0912C02B0912D0201962A
:1006F000A11DB11D80932A0290932B02A0932C027E
:10070000B0932D02BF91AF919F918F913F912F9107
:100710000F900FBE0F901F901895FC012081318122
:10072000828193812817390719F0822F0C94910246
:100730000895CF93DF93EC019CB59F7D9CBD9CB544
:10074000937F9CBD9CB59C7F9CBD9DB591609DBDDC
:100750008A810E9491028C899D89DF91CF910C94AE
:10076000070261E00C94990360E00C9499038EBD3C
:1007700000000DB407FEFDCF8EB50895EF92FF92F5
:100780001F93CF93DF931F92CDB7DEB77C016983B0
:100790000E94B4036981862F0E94B703182FC701F6
:1007A0000E94B103812F0F90DF91CF911F91FF9095
:1007B000EF90089561EE0C94BE03EF92FF921F93A9
:1007C000CF93DF9300D0CDB7DEB77C014A83698336
:1007D0000E94B4036981862F8F7180620E94B703E3
:1007E000182F4A81842F0E94B703C7010E94B103CA
:1007F000812F0F900F90DF91CF911F91FF90EF907D
:100800000895CF92DF92EF92FF920F931F93CF93B1
:10081000DF9300D0CDB7DEB78C01FC019781C42EE9
:10082000941708F4C92EF8018085811103C0D92ED0
:10083000DC1801C0D12CC80169837A830E94B403FB
:1008400081E60E94B7036981E62E7A81F72EC60EF3
:10085000CE1439F08FEF0E94B703F70181937F0127
:10086000F7CFDD2029F08FEF0E94B703DA94F9CF9C
:10087000C8010E94B10340E767E0C8010F900F90E4
:10088000DF91CF911F910F91FF90EF90DF90CF906C
:100890000C94DD03CF92DF92EF92FF920F931F93A0
:1008A000CF93DF9300D01F92CDB7DEB77C01142F1A
:1008B0002A835B8369830E94B4036981862F8F71C9
:1008C00080620E94B703082FC12E5B81D52E2A813A
:1008D000120F1C1531F0F60181916F010E94B703D0
:1008E000F8CFC7010E94B103802F0F900F900F9097
:1008F000DF91CF911F910F91FF90EF90DF90CF90FC
:100900000895EF92FF920F931F93CF93DF93CDB78C
:10091000DEB728970FB6F894DEBF0FBECDBF7C01BF
:1009200009831A832B833C834D835E836F8378878F
:10093000FC012685AE014F5F5F4F6AE00E944A04CA
:10094000F7012685AE014F5F5F4F60E1C7010E944E
:100950004A04F701478161E1C7010E94DD0328963F
:100960000FB6F894DEBF0FBECDBFDF91CF911F91C0
:100970000F91FF90EF900895EF92FF921F93CF9306
:10098000DF931F92CDB7DEB77C0169830E94B40369
:100990006981862F8F710E94B7038FEF0E94B70382
:1009A000182FC7010E94B103812F0F90DF91CF91C3
:1009B0001F91FF90EF900895AF92BF92DF92EF9258
:1009C000FF920F931F93CF93DF93CDB7DEB7289796
:1009D0000FB6F894DEBF0FBECDBF5C01D62EE98204
:1009E000FA820B831C832D833E834F8358876111CA
:1009F0000AC0FC01468550E0BE016F5F7F4F09963B
:100A00000E94A51307C0F6E0F61708F435C081E090
:100A1000681308C0ED2DF0E0E056FF4F6491F5013A
:100A2000268506C0E62FF0E0E056FF4F649121E0F6
:100A3000AE014F5F5F4FC5010E944A040D2D10E0CB
:100A4000F801E656FF4F6491F5014781C5010E9408
:100A5000DD0362E0C5010E94BC04F801E253FF4FD0
:100A6000E49141E050E001C0440FEA95EAF7482BD9
:100A700062E0C5010E94DD0328960FB6F894DEBF40
:100A80000FBECDBFDF91CF911F910F91FF90EF90DF
:100A9000DF90BF90AF90089567E10E94BC048095FD
:100AA00081700895CF93DF93EC0167E1CE010E943E
:100AB000BC0484FD14C06FEFCE010E94BE0384FF0E
:100AC000F4CF40E167E0CE010E94DD0360E0CE019B
:100AD0000E948D03CE010E94DA0380E005C060E031
:100AE000CE010E948D0381E0DF91CF910895CF93D5
:100AF000DF93EC0160E00E94BC0481FD0EC0482F32
:100B0000426060E0CE010E94DD0365E070E080E0BD
:100B100090E0DF91CF910C94FD02DF91CF91089589
:100B2000CF93DF93EC0160E00E948D03888999895F
:100B30000E9407026DE1CE010E94BC0481FF07C044
:100B4000888999890E940702CE010E94DA0360E039
:100B5000CE010E94BC04482F4E7F60E0CE010E946F
:100B6000DD0362E0CE010E94BC04EEECF0E0E49113
:100B700041E050E001C0440FEA95EAF7482B62E0FB
:100B8000CE01DF91CF910C94DD03CF93DF93EC0185
:100B90000E94770560E0CE010E94BC04482F4160AE
:100BA00060E0CE010E94DD0340E767E0CE010E94D5
:100BB000DD0361E0CE010E948D038985882349F021
:100BC0002E85AE01475F5F4F6AE0CE010E944A0466
:100BD00003C0CE010E94FB066DE1CE010E94BC0461
:100BE00081FF05C0CE01DF91CF910C94DA03DF9134
:100BF000CF9108958F929F92AF92BF92CF92DF9242
:100C0000EF92FF92CF93DF93A091F401882311F02C
:100C10003A2F01C030E08091F50190E0880F991FD4
:100C20008C539F4FC090FA01D090FB01E090FC01E3
:100C3000F090FD0140E050E0BA01FC01C591D49173
:100C400028812A2323130FC04A015B012FEF821A48
:100C5000920AA20AB20A4C155D056E057F0538F4AA
:100C6000B501A401EACF342F252FCB0104C030E019
:100C700020E080E090E0632F722FDF91CF91FF9012
:100C8000EF90DF90CF90BF90AF909F908F9008959E
:100C90000895CF92DF92EF92FF920F931F93CF931D
:100CA000DF936C017A018B01C0E0D0E0CE15DF0547
:100CB00089F0D8016D918D01D601ED91FC910190E3
:100CC000F081E02DC6010995892B11F47E0102C047
:100CD0002196ECCFC701DF91CF911F910F91FF902B
:100CE000EF90DF90CF900895EBE2F1E0A089B18919
:100CF00082E08C93A485B5851C92A685B7858FEC80
:100D00008C93108EA489B58986E08C93A289B389CF
:100D10008C9180618C93A289B3898C9188608C932B
:100D2000A289B3898C9180688C930288F389E02D25
:100D300080818F7D80830895CF92DF92EF92FF9222
:100D40000F931F93CF93DF9300D0CDB7DEB78C0105
:100D5000FC019781D42E941708F4D92EF8018085D0
:100D6000811103C0C92ECD1801C0C12CC8016983EF
:100D70007A830E94B40380EA0E94B7036981E62E59
:100D80007A81F72ED60EDE1431F0F70181917F01C2
:100D90000E94B703F8CFCC2029F080E00E94B7036F
:100DA000CA94F9CFC8010E94B10361E0C8010E9452
:100DB0008D036FEFC8010E94BE038073D1F360E022
:100DC000C8010E948D0340E767E0C8010E94DD036F
:100DD00084FF05C0C8010E94DA0380E001C081E001
:100DE0000F900F90DF91CF911F910F91FF90EF9097
:100DF000DF90CF900895CF93DF93EC0162E00E94E3
:100E0000BC04EEECF0E0E49121E030E001C0220F00
:100E1000EA95EAF72095422F482362E0CE01DF9160
:100E2000CF910C94DD03CF92DF92EF92FF920F935C
:100E30001F93CF93DF93CDB7DEB7C054D1400FB629
:100E4000F894DEBF0FBECDBF0E9437030091F601BC
:100E50001091F7012091F8013091F9016B017C01AB
:100E6000C01AD10AE20AF30A40EDC41647E0D406DC
:100E7000E104F10418F48091FE01BCC06093F60116
:100E80007093F7018093F8019093F9011092F101AA
:100E90001092F0011092EF011092EE011092ED010C
:100EA00061E08091F2010E9491026AEF70E080E0BF
:100EB00090E00E94FD0261E08091F2010E94C10277
:100EC00060E08091F2010E94910264E170E080E0B4
:100ED00090E00E94FD02F89461E08091F2010E948E
:100EE00091028BE990E00197F1F762E08091F201C5
:100EF0000E94C10283E290E00197F1F780E00E9436
:100F0000FA05672B682B692B21F41092FE01789467
:100F10003EC081E00E94FA05672B682B692BA9F37C
:100F20008E010F5F1F4F6E018FEBC81A8EEFD80A2C
:100F3000780180E00E94FA05F70160837183828363
:100F4000938381E00E94FA05F701648375838683A9
:100F50009783F8E0EF0EF11CEC14FD0451F7789440
:100F600020E030E0F8014081518162817381C480CA
:100F7000D580E680F780411551056105710529F09E
:100F8000C114D104E104F10421F41092FE0180E0C7
:100F900031C0F90183E0F595E7958A95E1F7E351D2
:100FA000FE4F8081880F4C155D056E057F0508F4A6
:100FB000816080832F5F3F4F085F1F4F28323105CC
:100FC00089F62091F10130E04091ED018091EE0130
:100FD00090E0840F911D4091EF01840F911D40918D
:100FE000F001840F911D99272817390771F681E0C8
:100FF0008093FE01C05CDE4F0FB6F894DEBF0FBEDB
:10100000CDBFDF91CF911F910F91FF90EF90DF90B7
:10101000CF9008950F931F93CF93C82F192F8091CE
:10102000DB019091DC010E9490050C2F712F770F4E
:10103000770B272F372F472F572F672F8091DB01F3
:101040009091DC010E94810461E088E00E9491029D
:1010500042E066E271E08091DB019091DC010E9448
:101060009C06C82F882359F060E088E00E94910216
:101070008091DB019091DC010E94520514C00E9416
:10108000740661E087E00E94910268EE73E080E000
:1010900090E00E94FD0260E087E00E94910260E023
:1010A00088E00E9491028C2FCF911F910F9108959B
:1010B0000F931F930E9437036093330170933401A1
:1010C0008093350190933601E0912B01F0912C0132
:1010D0000680F781E02D8BE291E0099597FF1FC014
:1010E0000E943703009133011091340120913501A2
:1010F00030913601DC01CB01801B910BA20BB30BAD
:1011000000912F0110913001209131013091320175
:1011100080179107A207B307B8F28FEF9FEF1F91D7
:101120000F9108950F931F93CF93DF938C01EB01E1
:10113000FC01808191810097B1F06881798161150E
:10114000710579F0428153812C813D81421753070B
:1011500040F00E94B7138C819D81F80195838483B0
:1011600013C00E943E1288819981F8019183808387
:101170008A819B81938382838C819D8195838483E3
:10118000198218821B821A821D821C82DF91CF91E4
:101190001F910F9108950F931F93CF93DF93EC014D
:1011A00088819981009729F02A813B81261737078A
:1011B00088F48B016F5F7F4F0E94D612009761F019
:1011C000998388831B830A832C813D81232B11F40F
:1011D000FC01108281E001C080E0DF91CF911F917E
:1011E0000F910895EF92FF920F931F93CF93DF9388
:1011F000EC017B018A01BA010E94CB082881398168
:1012000081110DC02115310519F0C9010E943E124E
:10121000198218821D821C821B821A8206C01D83BD
:101220000C83B701C9010E94B713CE01DF91CF91A2
:101230001F910F91FF90EF900895CF93DF93EC01F2
:101240006115710559F0FB0101900020E9F7319714
:10125000AF01461B570B0E94F2080CC08881998190
:10126000009711F00E943E12198218821D821C8282
:101270001B821A82CE01DF91CF910895FC018081FB
:1012800091810C943E12FC01118210821382128211
:10129000158214826115710551F0FB010190002047
:1012A000E9F73197AF01461B570B0C94F2080895EC
:1012B000CF92DF92EF92FF920F931F93CF93DF9322
:1012C000CDB7DEB767970FB6F894DEBF0FBECDBFC0
:1012D000CE0101966C0181E1F60111928A95E9F740
:1012E0006AE171E0CE0142960E944309F090EA0162
:1012F000E090E9015F2D550F550B052F152F252F78
:10130000352F452F60E08091DB019091DC010E9438
:10131000DC048091DB019091DC010E94C505809185
:10132000DB019091DC010E944C058823C1F341E16F
:10133000B6018091DB019091DC010E940104B601AD
:10134000CE0142960E941D0962EE8091DB019091D0
:10135000DC010E94BE038091DB019091DC010E94C0
:10136000FB064E895F896A897B898BE291E00E9446
:101370004906CE0142960E943E0981E067960FB66B
:10138000F894DEBF0FBECDBFDF91CF911F910F91BB
:10139000FF90EF90DF90CF900895CF93DF93CDB77C
:1013A000DEB7EF970FB6F894DEBF0FBECDBF7894CF
:1013B00084B5826084BD84B5816084BD85B582605A
:1013C00085BD85B5816085BD80916E00816080930B
:1013D0006E00109281008091810082608093810074
:1013E0008091810081608093810080918000816084
:1013F000809380008091B10084608093B1008091DF
:10140000B00081608093B00080917A008460809306
:101410007A0080917A00826080937A0080917A00CD
:10142000816080937A0080917A00806880937A004E
:101430001092C1000E9474068091FF0190910002F9
:1014400020910102309102028217930719F061E0A6
:101450000E94C10280910102909102022091FF013D
:10146000309100022817390719F061E00E94C1028B
:101470001FB7F89480912801811127C0ECE7F0E0B4
:101480008491E0E9F0E09491E82FF0E0EE0FFF1F87
:10149000E859FF4FA591B491EC91E92321F461E063
:1014A0008AE00E94910261E08AE00E94C1028CB54C
:1014B00080618CBD8CB580648CBD61E08DE00E9444
:1014C000C10261E08BE00E94C102809128018F5F20
:1014D000809328011FBF60E08FEF91E00E948D0391
:1014E00061E08FEF91E00E94990365E070E080E099
:1014F00090E00E94FD024CE060E08FEF91E00E94DE
:10150000DD034FE564E08FEF91E00E94DD0366E0CC
:101510008FEF91E00E94BC04877D182F10628BE949
:1015200090E0A0E0B0E080930F0290931002A093AF
:101530001102B0931202412F66E08FEF91E00E94FA
:10154000DD0366E08FEF91E00E94BC04811709F48F
:1015500037C466E08FEF91E00E94BC0466E08FEF35
:1015600091E00E94BC0445E550E060E070E04093EB
:101570000F02509310026093110270931202482FD1
:10158000477D66E08FEF91E00E94DD0366E08FEF1C
:1015900091E00E94BC048FEF91E00E94B40380E5CB
:1015A0000E94B70383E70E94B7038FEF91E00E9488
:1015B000B10340E06DE18FEF91E00E94DD0340E078
:1015C0006CE18FEF91E00E94DD031092070240E78B
:1015D00067E08FEF91E00E94DD034CE465E08FEF60
:1015E00091E00E94DD0362EE8FEF91E00E94BE0366
:1015F0008FEF91E00E94DA038FEF91E00E94770570
:1016000060E08FEF91E00E94BC04482F4E7F60E0C5
:101610008FEF91E00E94DD0368EC70E080E090E0E5
:101620000E94FD0262E08091F2010E94C10280E30B
:1016300098EFAFEFBFEF8093F6019093F701A0937F
:10164000F801B093F90160E082E00E94C10260E01D
:1016500083E00E94C10260E084E00E94C10260E079
:1016600085E00E94C10261E087E00E94C10261E062
:1016700088E00E94C10261E088E00E9491028091AE
:10168000E9019091EA01893223E2920709F0B6C09C
:1016900028ECC22E21E0D22E1A8219828091DB0121
:1016A0009091DC010E949005F601108D0789712F41
:1016B000770F770B272F372F472F572F672F8091C3
:1016C000DB019091DC010E948104F6018789908DF5
:1016D0009A83898342E0BE016F5F7F4F8091DB0177
:1016E0009091DC010E949C06882309F460C068EC9C
:1016F00070E080E090E00E94FD0242E069EE71E05F
:101700008091DB019091DC010E949C06882309F402
:101710004EC01A821982F601A788B08CF090EA01B7
:10172000E090E9015F2D550F550B052F152F252F43
:10173000352F452F61E08091DB019091DC010E9403
:10174000DC048091DB019091DC010E94C5050E94C0
:1017500037038B0108511C4F2801012E000C66082D
:1017600077088091DB019091DC010E944C0581118A
:1017700007C00E943703641575058605970588F331
:101780008091DB019091DC010E944C05882301F1DE
:1017900042E0BE016F5F7F4F8091DB019091DC01E1
:1017A0000E94010489819A818A159B05E1F00E94BB
:1017B000740661E087E00E94910268EE73E080E0C9
:1017C00090E00E94FD0260E087E00E9491020BC061
:1017D0000E943703012E000C220B330B061717074C
:1017E0002807390720F3F2E0CF0ED11C22EDC216F4
:1017F00021E0D20609F050CFF12C81C01BA21AA221
:101800001A821982592F550F550B7C01052F152F60
:10181000252F352F452F61E08091DB019091DC0170
:101820000E94DC048091DB019091DC010E94C505DF
:10183000F12C0E9437038B01005D1A484801012EEC
:10184000000CAA08BB088091DB019091DC010E948A
:101850004C05811107C00E943703681579058A0578
:101860009B0588F38091DB019091DC010E944C057F
:10187000882309F4A9C242E0BE016E5D7F4F8091CA
:10188000DB019091DC010E9401040E9437038B016F
:10189000005D1A484801012E000CAA08BB0880917F
:1018A000DB019091DC010E944C05882309F4A9C258
:1018B0008091DB019091DC010E944C05882309F4A2
:1018C000A9C242E0BE016F5F7F4F8091DB01909122
:1018D000DC010E9401042AA13BA18091E9019091C1
:1018E000EA012817390709F4B2C22AA13BA1809165
:1018F000E9019091EA012817390709F09ACFF0928F
:10190000290160E088E00E9491026AE171E0CE0165
:10191000CA960E9443099DE2B92E8091EB019091F5
:10192000EC018932934209F05CC08BE291E00E94A5
:1019300034011816190694F56AE171E0CE0101969A
:101940000E9443090E94580897FD1CC08AA31BA24D
:10195000ED80FE80FFEFEF1AFF0AB701CE0101967E
:101960000E94CB08882371F329813A818D819E8161
:10197000BE016E5D7F4F820F931F0E94B713FE82E0
:10198000ED82E0CFBE016F5F7F4FCE01CA960E940D
:101990009208CE0101960E943E09C7CF8EAD9FAD41
:1019A000892B09F406C20AAD1BAD66E171E0C801DE
:1019B0000E94AE13892B51F48AE293E20E940A0836
:1019C000882309F4F6C10E945809F3C16BE171E064
:1019D000C8010E94AE13892B09F0EBC18BE293E2A0
:1019E000EDCFF090EA01E090E9015F2D550F550B26
:1019F000052F152F252F352F452F60E08091DB0116
:101A00009091DC010E94DC048091DB019091DC016B
:101A10000E94C5058091DB019091DC010E944C057C
:101A20008823C1F341E0BE016F5F7F4F8091DB01EE
:101A30009091DC010E9401040091EB011091EC01F6
:101A40000E941307882309F441C09091F3019B3051
:101A500029F0E0F19551923058F038C06091EF01D3
:101A600070E080E090E00E947E166B017C0134C043
:101A7000A090EF016A2D6F7770E080E090E00E9407
:101A8000801620E030E040E853E40E94DF166B014E
:101A90007C018091F001682F70E080E090E00E946E
:101AA00080169B01AC01C701B6010E9438112DECD4
:101AB0003CEC4CEC5DE30E94DF166B017C01A7FE61
:101AC0000BC0F7FAF094F7F8F09406C0C12CD12CB3
:101AD00080ECE82E8FE7F82E6AE171E0CE01C49623
:101AE0000E944309C80189529342873E934008F5FA
:101AF00026E636E646EE5FE3C701B6010E94DF1632
:101B000020E030E040E052E40E9438116B017C019B
:101B100020E030E0A9010E94791687FD0AC020E08C
:101B20003CE34CE156E4C701B6010E94A41118162B
:101B30003CF460E271E0CE0101960E944309E2C0EC
:101B40006AE171E0CE018E960E9443096AE171E07C
:101B5000CE0188960E9443091BA21AA21DA21CA2B4
:101B60001FA21EA24AE0BE016F5F7F4FC8010E9404
:101B7000DE13BE016F5F7F4FCE0182960E941D096A
:101B8000BE016E5D7F4FCE018E960E949208CE01FF
:101B900082960E943E096AA97BA92EA53FA5E8EC82
:101BA000F1E080E090E08617970718F421153105E1
:101BB00029F410922A01AAE2B1E003C0D901A80FCA
:101BC000B91F4C91419301968430910561F7B09211
:101BD000CC011BA21AA21DA21CA21FA21EA28E0132
:101BE0000F5F1F4F22E044E0C701B6010E94BE1301
:101BF000BC01CE0182960E941D09BE016E5D7F4F21
:101C0000CE018E960E949208CE0182960E943E09D5
:101C10006AA97BA92EA53FA580E090E086179707CB
:101C200018F42115310529F410922A01EAE2F1E0B5
:101C300003C0F901E80FF91F4081FC01E853FE4F92
:101C4000458301968530910549F7B092D2011BA2D8
:101C50001AA21DA21CA21FA21EA24AE0BE016F5F13
:101C60007F4F85E090E00E94DE13BE016F5F7F4FE3
:101C7000CE0182960E941D09BE016E5D7F4FCE018E
:101C80008E960E949208CE0182960E943E094AA931
:101C90005BA92EA53FA580E090E08417950791F001
:101CA0002115310529F410922A01EAE2F1E003C07E
:101CB000F901E80FF91F6081FC01E853FE4F6387CB
:101CC0000196EBCFFC01E853FE4F28E7238768EC31
:101CD00071E0CE0188960E941D091A8219821C8229
:101CE0001B821E821D82BE01685D7F4FCE01019660
:101CF0000E949208CE0188960E943E09CE018E96DF
:101D00000E943E09BE016F5F7F4FCE01C4960E94C4
:101D10009208CE0101960E943E0961E088E00E948F
:101D200091028091DB019091DC010E94900509E213
:101D300013E220E030E040E050E060E070E08091AD
:101D4000DB019091DC010E9481048091DB01909184
:101D5000DC010E94DA036CA97DA941E18091DB01DD
:101D60009091DC010E949C06882359F060E088E095
:101D70000E9491028091DB019091DC010E9452054A
:101D800014C00E94740661E087E00E94910268EE30
:101D900073E080E090E00E94FD0260E087E00E9436
:101DA000910260E088E00E949102CE01C4960E94F8
:101DB0003E096AE171E0CE01CA960E941D09ADCDCF
:101DC00081E080930502C5CB0E943703012E000CF1
:101DD000220B330B061717072807390708F055CDD4
:101DE0000E94740661E087E00E94910268EE73E051
:101DF00080E090E00E94FD0260E087E00E94910296
:101E000044CD0E943703681579058A059B0508F4BF
:101E100046CD4ECD0E943703012E000C220B330B12
:101E2000061717072807390708F055CD0E947406D2
:101E300061E087E00E94910268EE73E080E090E04C
:101E40000E94FD0260E087E00E94910244CD8091F3
:101E5000DB019091DC010E9490051091E00100915E
:101E6000DF01712F770F770B272F372F472F572F32
:101E7000672F8091DB019091DC010E94810442E098
:101E800069EE71E08091DB019091DC010E949C067B
:101E9000811111C00E94740661E087E00E949102E6
:101EA00068EE73E080E090E00E94FD0260E087E071
:101EB0000E9491021ACDFF24F39417CD0F931F9324
:101EC000CF93DF9310922E0110922D0188EE93E0B4
:101ED000A0E0B0E080932F0190933001A0933101F6
:101EE000B09332018AE091E090932C0180932B0112
:101EF00085EC90E0909338018093370184EC90E07A
:101F000090933A018093390180EC90E090933C01EA
:101F100080933B0181EC90E090933E0180933D01E2
:101F200082EC90E09093400180933F0186EC90E03A
:101F30009093420180934101109244011092450117
:101F4000109246011092470189E090E090930002C0
:101F50008093FF018AE090E0909302028093010257
:101F60001092050280E2809306021092070285E03B
:101F700080930D0285E090E0A0E0B0E08093130232
:101F800090931402A0931502B093160210920802C7
:101F900086E08093F2018BE08093F301ECE8F0E0BF
:101FA000E491E093F401E8E7F0E0E491E093F501D7
:101FB00080E89EE3A0E0B0E08093FA019093FB01FB
:101FC000A093FC01B093FD010E94740682E00E9480
:101FD00008118C0183E00E940811C1E0892B09F4EB
:101FE000C0E084E00E94081121E0892B09F420E080
:101FF000012B39F4C1110CC02223A1F08DE293E230
:102000001CC0C1110AC0222381F08EE293E215C0E8
:10201000222371F08FE293E210C0222361F080E36B
:1020200093E20BC089E293E208C08AE293E205C022
:102030008BE293E202C08CE293E29093EC018093F6
:10204000EB01893223E29207A9F09C012A52334224
:102050002330310590F08D32A3E29A0789F08E3259
:10206000E3E29E0781F08F3223E2920779F46EE279
:1020700073E20EC06AE273E20BC069E273E208C069
:102080006CE273E205C06DE273E202C06FE273E2DC
:1020900070931C0260931B02DC01A952B342A23070
:1020A000B105C0F09C012B5233422230310578F04B
:1020B0008D32E3E29E0771F08E3223E2920769F0DF
:1020C0008F32E3E29E0761F44DE253E20BC04AE235
:1020D00053E208C04BE253E205C04CE253E202C0B7
:1020E0004EE253E250931E0240931D02A330B1050D
:1020F00080F08C3223E2920791F08D32E3E29E076A
:1021000059F08E3223E2920751F08F32E3E29E07BC
:1021100049F42CE233E208C02AE233E205C02BE2A4
:1021200033E202C02DE233E23093200220931F02FB
:10213000A430B10578F08D32E3E29E0771F08E3263
:10214000E3E29E0769F08F32E3E29E0761F4EBE27F
:10215000F3E20BC0EDE2F3E208C0EEE2F3E205C009
:10216000EAE2F3E202C0ECE2F3E2F0932202E0934F
:102170002102149760F0DC01AD52B342129750F087
:102180008F32A3E29A0749F4AAE2B3E208C0AEE2B2
:10219000B3E205C0AFE2B3E202C0ABE2B3E2B09398
:1021A0002402A09323021092180210921702109298
:1021B0001A0210921902CFEFD1E0D093DC01C09344
:1021C000DB01C7E1D2E0D093DE01C093DD01909343
:1021D000EA018093E9019093DA018093D901709329
:1021E000E0016093DF015093E2014093E1013093FD
:1021F000E4012093E301F093E601E093E501B0935D
:10220000E801A093E701DF91CF911F910F9108950D
:10221000CF93DF93282F30E0F901E055FF4F8491F1
:10222000F901EA57FF4FD491F901EE58FF4FC491DD
:10223000CC2391F081110E94DE01EC2FF0E0EE0F33
:10224000FF1FEC53FF4FA591B491EC91ED2381E07A
:1022500090E021F480E002C080E090E0DF91CF9137
:102260000895EE0FFF1F0590F491E02D099450584A
:10227000BB27AA270E944F110C9463170E94551781
:1022800038F00E945C1720F039F49F3F19F426F4CF
:102290000C9452170EF4E095E7FB0C944C17E92FC1
:1022A0000E94741758F3BA176207730784079507DB
:1022B00020F079F4A6F50C9496170EF4E0950B2E09
:1022C000BA2FA02D0B01B90190010C01CA01A00188
:1022D0001124FF27591B99F0593F50F4503E68F1E3
:1022E0001A16F040A22F232F342F4427585FF3CF24
:1022F000469537952795A795F0405395C9F77EF4F5
:102300001F16BA0B620B730B840BBAF09150A1F03D
:10231000FF0FBB1F661F771F881FC2F70EC0BA0FC3
:10232000621F731F841F48F4879577956795B7954B
:10233000F7959E3F08F0B0CF9395880F08F0992746
:10234000EE0F9795879508950E94BB1608F48FEFBE
:102350000895CF93DF938230910510F482E090E0EE
:10236000E0913002F091310220E030E0C0E0D0E0B6
:10237000309711F14081518148175907C0F0481733
:10238000590761F482819381209719F09B838A8396
:102390002BC0909331028093300226C02115310565
:1023A00019F04217530718F49A01BE01DF01EF013B
:1023B0000280F381E02DDCCF2115310509F1281BC6
:1023C000390B2430310590F412968D919C9113971E
:1023D0006115710521F0FB019383828304C0909302
:1023E000310280933002FD01329644C0FD01E20FBC
:1023F000F31F81939193225031092D933C933AC05E
:1024000020912E0230912F02232B41F420910201C2
:102410003091030130932F0220932E02209100016E
:10242000309101012115310541F42DB73EB740919E
:10243000040150910501241B350BE0912E02F0910F
:102440002F02E217F307A0F42E1B3F0B28173907C2
:1024500078F0AC014E5F5F4F2417350748F04E0F00
:102460005F1F50932F0240932E028193919302C0DD
:10247000E0E0F0E0CF01DF91CF9108950F931F933B
:10248000CF93DF93009709F48CC0FC01329713823D
:10249000128200913002109131020115110581F470
:1024A00020813181820F931F20912E0230912F02C3
:1024B0002817390779F5F0932F02E0932E0271C0A7
:1024C000D80140E050E0AE17BF0750F412962D91AE
:1024D0003C911397AD012115310509F1D901F3CFD5
:1024E0009D01DA013383228360817181860F971FFA
:1024F0008217930769F4EC0128813981260F371F71
:102500002E5F3F4F318320838A819B819383828317
:10251000452B29F4F0933102E093300242C0139628
:10252000FC93EE931297ED01499159919E01240F6E
:10253000351FE217F30771F480819181840F951F95
:10254000029611969C938E938281938113969C930D
:102550008E931297E0E0F0E0D80112968D919C9155
:102560001397009719F0F8018C01F6CF8D919C918B
:1025700098012E5F3F4F820F931F20912E023091C2
:102580002F022817390769F4309729F41092310285
:102590001092300202C01382128210932F02009315
:1025A0002E02DF91CF911F910F910895A0E0B0E02E
:1025B000ECEDF2E10C94A117EC01009721F4CB01B2
:1025C0000E94A911B8C0FC01E60FF71F9C01225020
:1025D0003109E217F30708F4ACC0D9010D911C9141
:1025E000119706171707B0F00530110508F49FC0C2
:1025F000C80104978617970708F499C0025011097B
:10260000061B170B019311936D937C93CF010E94CE
:102610003E128DC05B01A01AB10A4C01800E911EC2
:10262000A0913002B091310240E050E0E12CF12C59
:10263000109709F44AC0A815B905D1F56D907C90A2
:102640001197630182E0C80ED11CCA14DB0480F12B
:10265000A3014A195B096A0182E0C80ED11C1296D7
:10266000BC9012971396AC91B5E0CB16D10440F014
:10267000B282A38351834083D9016D937C930AC0B6
:102680000E5F1F4FC301800F911FF901918380835B
:10269000EB2DFA2FE114F10431F0D7011396FC93DE
:1026A000EE93129744C0F0933102E09330023FC0A2
:1026B0008D919C9111974817590708F4AC017D0141
:1026C00012960D90BC91A02DB3CF80912E029091C7
:1026D0002F0288159905E1F446175707C8F4809131
:1026E000000190910101009741F48DB79EB7409190
:1026F000040150910501841B950BE817F907C8F4F4
:10270000F0932F02E0932E02F901718360830FC0D2
:10271000CB010E94A9117C01009759F0A801BE01CC
:102720000E94A513CE010E943E12C70104C0CE0133
:1027300002C080E090E0CDB7DEB7EEE00C94BD17AC
:1027400081E090E0F8940C94D417FB01DC0102C006
:1027500001900D9241505040D8F70895FB01DC01E3
:102760008D91019080190110D9F3990B0895FB0107
:10277000DC0101900D920020E1F70895EF920F9394
:102780001F93CF93DF93E80147FD02C034E001C0FF
:1027900034E1E42F440FFF0BF7FF03C0F195E195FF
:1027A000F109E32E022F2E2FAE010E940314CE0159
:1027B000DF91CF911F910F91EF900895BB274A3081
:1027C00031F4992322F4BDE2909581959F4F0C94AA
:1027D000EA13BB27FB015527AA27880F991FAA1FB9
:1027E000A41710F0A41B83955051B9F7A05DAA332C
:1027F00008F0A95DA193009779F7B111B1931192F7
:10280000CB010C9469164F925F926F927F929F92C8
:10281000AF92BF92CF92DF92EF92FF920F931F93EE
:10282000CF93DF93CDB7DEB729970FB6F894DEBF0D
:102830000FBECDBF6A01122FB02E2BE3201720F060
:10284000FF24F394F00E02C0BCE3FB2E0F2D27E013
:10285000AE014F5F5F4F0E949115AC018981982FA7
:102860009970913031F0E1FC06C0E0FE06C090E2C4
:1028700005C09DE203C09BE201C090E0EE2DE07137
:1028800083FF3CC0911102C083E001C084E0811746
:1028900018F4212F281B01C020E0E1110BC0F60124
:1028A000822F30E2882319F031938150FBCFC20E82
:1028B000D11C20E0992329F0D6019C93F601319692
:1028C0006F01C6010396E2FE0AC03EE4D6013C93C6
:1028D00041E411964C93119712963C9306C03EE644
:1028E000F601308341E641833283FC01322F40E21E
:1028F000332309F442C041933150FACF82FF44C0E0
:10290000911102C083E001C084E0811718F4212FE7
:10291000281B01C020E0E1110BC0F601822F30E23C
:10292000882319F031938150FBCFC20ED11C20E0D7
:10293000992329F0D6019C93F60131966F01C601C7
:102940000396E2FE0BC039E4D6013C933EE41196B7
:102950003C93119736E412963C9307C039E6F60192
:1029600030833EE6318336E63283FC01322F40E28B
:10297000332319F041933150FBCFFC01E20FF11DDD
:1029800010828EEF9FEFB7C0F1E0911101C0F0E02F
:102990006F2F70E01416150624F49A012F5F3F4F35
:1029A00002C021E030E0260F371FBB2029F06B2D3D
:1029B00070E06F5F7F4F02C060E070E0260F371F4E
:1029C000612F70E0261737071CF4121B212F01C05E
:1029D00020E03E2D387159F4D601322F60E23323C6
:1029E00019F06D933150FBCFC20ED11C20E0FF23B4
:1029F00031F0D6019C93B6016F5F7F4F6B01E111FF
:102A00000BC0F601922F30E3992319F031939150C6
:102A1000FBCFC20ED11C20E09F2D940F3A81782F5E
:102A20007071A72E84FF03C0313309F49150191639
:102A300024F4993018F098E001C091E0E42F852F3C
:102A400057FF02C0E0E080E06E2F782FE0E0F0E07A
:102A5000AEE29A2E3A01691A71082A01461A570AFB
:102A60000B2D10E01195019511096F3F8FEF78073D
:102A700029F4D6019C92C60101966C0146175707AE
:102A800084F0661677066CF47F01E40CF51CA1E077
:102A9000B0E0AC0FBD1FEA0EFB1ED7011196BC9033
:102AA00002C090E3B92E615071093196C6010196BA
:102AB0007C016017710724F0D601BC926C01D5CF60
:102AC0006417750741F4363320F4353321F4A1102F
:102AD00002C081E3B82EF601B082F701822F90E2A6
:102AE000882319F091938150FBCFF701E20FF11D7C
:102AF000108280E090E029960FB6F894DEBF0FBEFA
:102B0000CDBFDF91CF911F910F91FF90EF90DF909C
:102B1000CF90BF90AF909F907F906F905F904F90BD
:102B20000895283008F027E03327DA01990F311D86
:102B300087FD916000966105710539F432602E5F62
:102B40003D9330E32A95E1F708959F3F30F08038B8
:102B50007105610509F03C5F3C5F3D93913008F0E1
:102B60008068911DDF93CF931F930F93FF92EF9295
:102B7000192F987F9695E92F96959695E90FFF273F
:102B8000E25DFE4F99273327EE24FF24A701E701DA
:102B900005900894079428F4360FE71EF81E491F85
:102BA000511D660F771F881F991F0694A1F7059086
:102BB000079428F4E70EF81E491F561FC11D770F12
:102BC000881F991F661F0694A1F70590079428F4A3
:102BD000F80E491F561FC71FD11D880F991F661F6A
:102BE000771F0694A1F70590079420F4490F561F0C
:102BF000C71FD81F990F661F771F881F0694A9F754
:102C000084911095177041F0D695C79557954795C3
:102C1000F794E7941A95C1F7E4EDF0E06894159005
:102C2000159135916591959105907FE27395E11825
:102C3000F10A430B560BC90BD009C0F7E10CF11E8A
:102C4000431F561FC91FD01D7EF4703311F48A959F
:102C5000E6CFE894015030F0080F0AF4002702177D
:102C600008F4202F2395022F7A3328F079E37D93FF
:102C70002A95E9F710C07D932A9589F606949795D1
:102C80006795379517951794E118F10A430B560B82
:102C9000C90BD00998F023957E9173957A3308F08B
:102CA00070E37C932013B8F77E9170617D9330F0D0
:102CB000839571E37D9370E32A95E1F71124EF90FA
:102CC000FF900F911F91CF91DF91992787FD9095EC
:102CD0000895DC01FC01672F71917723E1F73297AA
:102CE00004C07C916D9370836291AE17BF07C8F3E7
:102CF00008950E94BB1608F481E00895E89409C085
:102D000097FB3EF490958095709561957F4F8F4F1E
:102D10009F4F9923A9F0F92F96E9BB279395F69534
:102D2000879577956795B795F111F8CFFAF4BB0FB2
:102D300011F460FF1BC06F5F7F4F8F4F9F4F16C016
:102D4000882311F096E911C0772321F09EE8872FA0
:102D5000762F05C0662371F096E8862F70E060E05C
:102D60002AF09A95660F771F881FDAF7880F9695D5
:102D7000879597F90895990F0008550FAA0BE0E879
:102D8000FEEF16161706E807F907C0F0121613062D
:102D9000E407F50798F0621B730B840B950B39F46D
:102DA0000A2661F0232B242B252B21F408950A26D3
:102DB00009F4A140A6958FEF811D811D08950E9401
:102DC000F2160C9463170E94551738F00E945C1796
:102DD00020F0952311F00C944C170C9452171124E9
:102DE0000C9497170E94741770F3959FC1F3950F79
:102DF00050E0551F629FF001729FBB27F00DB11D7F
:102E0000639FAA27F00DB11DAA1F649F6627B00D0E
:102E1000A11D661F829F2227B00DA11D621F739FF7
:102E2000B00DA11D621F839FA00D611D221F749F05
:102E30003327A00D611D231F849F600D211D822F4C
:102E4000762F6A2F11249F5750409AF0F1F0882373
:102E50004AF0EE0FFF1FBB1F661F771F881F9150A0
:102E60005040A9F79E3F510580F00C944C170C94EC
:102E700097175F3FE4F3983ED4F38695779567956F
:102E8000B795F795E7959F5FC1F7FE2B880F911DCA
:102E90009695879597F9089597F99F6780E870E070
:102EA00060E008959FEF80EC089500240A941616C0
:102EB000170618060906089500240A941216130628
:102EC000140605060895092E0394000C11F48823B6
:102ED00052F0BB0F40F4BF2B11F460FF04C06F5FD2
:102EE0007F4F8F4F9F4F089557FD9058440F551FA8
:102EF00059F05F3F71F04795880F97FB991F61F07C
:102F00009F3F79F087950895121613061406551FF2
:102F1000F2CF4695F1DF08C0161617061806991F5E
:102F2000F1CF86957105610508940895E894BB2753
:102F300066277727CB0197F908952F923F924F92FA
:102F40005F926F927F928F929F92AF92BF92CF9239
:102F5000DF92EF92FF920F931F93CF93DF93CDB742
:102F6000DEB7CA1BDB0B0FB6F894DEBF0FBECDBFBA
:102F700009942A88398848885F846E847D848C848B
:102F80009B84AA84B984C884DF80EE80FD800C8194
:102F90001B81AA81B981CE0FD11D0FB6F894DEBF77
:0C2FA0000FBECDBFED010895F894FFCFE7
:102FAC00000032028000000000006B014906340171
:102FBC0012012601B2013930303200393030330081
:082FCC004552524F5200530020
:00000001FF
