:100000000C9406010C942E010C942E010C942E01DC
:100010000C942E010C942E010C942E010C942E01A4
:100020000C942E010C942E010C942E010C942E0194
:100030000C942E010C942E010C942E010C942E0184
:100040000C945F030C942E010C947B020C945502CB
:100050000C942E010C942E010C942E010C942E0164
:100060000C942E010C942E010000000024002700A7
:100070002A0004040404040404040202020202022A
:10008000030303030303010204081020408001025C
:1000900004081020010204081020000102030405D6
:1000A0001112131415160A0B0C0D0E0F0000000090
:1000B000250028002B000000000023002600290056
:1000C0000000000800020100000304070000000017
:1000D000000000004E414E494E495459494E46CD0C
:1000E000CCCC3D0AD7233C17B7D13877CC2B3295EF
:1000F00095E6241FB14F0A000020410000C84200CD
:10010000401C4620BCBE4CCA1B0E5AAEC59D740096
:10011000407A10F35A00A0724E18090010A5D4E8D6
:100120000000E87648170000E40B54020000CA9A69
:100130003B000000E1F505000080969800000040BB
:10014000420F000000A08601000000102700000000
:1001500000E803000000006400000000000A000046
:100160000000000100000000002C76D888DC674FFA
:100170000823DFC1DFAE59E1B1B796E5E3E453C62A
:100180003AE651997696E8E6C28426EB898C9B6222
:10019000ED407C6FFCEFBC9C9F40F2BAA56FA5F4CC
:1001A00090055A2AF75C936B6CF9676DC11BFCE0F4
:1001B000E40D47FEF520E6B500D0ED902E03009447
:1001C0003577050080841E080000204E0A000000DC
:1001D000C80C333333330F986E12831141EF8D21E6
:1001E00014893BE65516CFFEE6DB18D1844B381B4D
:1001F000F77C1D901DA4BBE424203284725E228112
:1002000000C9F124ECA1E53D2700150F11241FBE04
:10021000CFEFD8E0DEBFCDBF13E0A0E0B1E0ECE16E
:10022000F4E302C005900D92A030B107D9F724E0A5
:10023000A0E0B3E001C01D92AA30B207E1F711E0DF
:10024000C6E0D1E004C02197FE010E947911C530BB
:10025000D107C9F70E944C080C940C1A0C940000AA
:10026000FC01918D828D981761F0828DDF01A80FBE
:10027000B11D5D968C91928D9F5F9F73928F90E0E0
:1002800008958FEF9FEF0895FC01918D828D98174F
:1002900031F0828DE80FF11D858D90E008958FEF8C
:1002A0009FEF0895FC01918D228D892F90E0805C55
:1002B0009F4F821B91098F739927089583E093E0E4
:1002C0000E94520121E0892B09F420E0822F089539
:1002D000FC01848DDF01A80FB11DA35ABF4F2C91E3
:1002E000848D90E001968F739927848FA689B789B2
:1002F0002C93A089B1898C9180648C93938D848D8B
:10030000981306C00288F389E02D80818F7D808359
:100310000895EF92FF920F931F93CF93DF93EC0119
:1003200081E0888F9B8D8C8D981305C0E889F989B1
:10033000808185FD24C0F62E0B8D10E00F5F1F4FCE
:100340000F731127E02E8C8DE8120CC00FB607FC3E
:10035000FACFE889F989808185FFF5CFCE010E9427
:100360006801F1CF8B8DFE01E80FF11DE35AFF4FBD
:10037000F0820B8FEA89FB898081806207C0EE8959
:10038000FF896083E889F98980818064808381E0C6
:1003900090E0DF91CF911F910F91FF90EF90089522
:1003A000CF93DF93EC01888D8823C9F0EA89FB891C
:1003B000808185FD05C0A889B9898C9186FD0FC013
:1003C0000FB607FCF5CF808185FFF2CFA889B989E8
:1003D0008C9185FFEDCFCE010E946801E7CFDF91C0
:1003E000CF91089580E090E0892B29F00E945E0172
:1003F00081110C9400000895833081F028F481303D
:1004000099F08230A1F008958730A9F08830B9F0D2
:100410008430D1F4809180008F7D03C08091800072
:100420008F7780938000089584B58F7702C084B55C
:100430008F7D84BD08958091B0008F7703C0809137
:10044000B0008F7D8093B00008958230910538F020
:10045000880F991F880F991F05970197F1F7089545
:100460003FB7F8948091000490910104A091020498
:10047000B091030426B5A89B05C02F3F19F0019643
:10048000A11DB11D3FBFBA2FA92F982F8827820F1A
:10049000911DA11DB11DBC01CD0142E0660F771F6A
:1004A000881F991F4A95D1F708951F920F920FB692
:1004B0000F9211242F933F934F935F936F937F93EA
:1004C0008F939F93AF93BF93EF93FF9383E093E05A
:1004D0000E946801FF91EF91BF91AF919F918F9121
:1004E0007F916F915F914F913F912F910F900FBE30
:1004F0000F901F9018951F920F920FB60F92112414
:100500002F938F939F93EF93FF93E0911303F091B9
:1005100014038081E0911903F0911A0382FD12C047
:10052000908180911C038F5F8F7320911D03821730
:1005300051F0E0911C03F0E0ED5FFC4F958F80934C
:100540001C0301C08081FF91EF919F918F912F91AA
:100550000F900FBE0F901F9018951F93CF93DF93AE
:10056000282F30E0F901E054FF4F8491F901EA5758
:10057000FF4FD491F901EE58FF4FC491CC23C9F03D
:10058000162F81110E94FC01EC2FF0E0EE0FFF1FEF
:10059000E455FF4FA591B4918FB7F894111105C0A0
:1005A0009C91ED2FE095E92302C0EC91ED2BEC93AB
:1005B0008FBFDF91CF911F910895CF93DF9390E08C
:1005C000FC01EA57FF4F2491FC01EE58FF4F849144
:1005D000882361F190E0880F991FFC01E859FF4FD3
:1005E000C591D491FC01E455FF4FA591B4916111DF
:1005F00009C09FB7F8948881209582238883EC9165
:100600002E230BC0623061F49FB7F8943881822F9B
:10061000809583238883EC912E2B2C939FBF06C05B
:100620008FB7F894E8812E2B28838FBFDF91CF916D
:1006300008958F929F92AF92BF92CF92DF92EF92E6
:10064000FF926B017C010E9430024B015C01C114DE
:10065000D104E104F104F1F00E943002DC01CB018D
:1006600088199909AA09BB09883E9340A105B105DB
:1006700070F321E0C21AD108E108F10888EE880E73
:1006800083E0981EA11CB11CC114D104E104F10443
:1006900019F7DDCFFF90EF90DF90CF90BF90AF9034
:1006A0009F908F9008952FB7F8946091FC037091FC
:1006B000FD038091FE039091FF032FBF08951F92C9
:1006C0000F920FB60F9211242F933F938F939F9306
:1006D000AF93BF938091FC039091FD03A091FE0323
:1006E000B091FF033091FB0323E0230F2D3720F45B
:1006F0000196A11DB11D05C026E8230F0296A11D7C
:10070000B11D2093FB038093FC039093FD03A09302
:10071000FE03B093FF038091000490910104A09127
:100720000204B09103040196A11DB11D8093000441
:1007300090930104A0930204B0930304BF91AF917E
:100740009F918F913F912F910F900FBE0F901F900F
:100750001895FC018081918189130C94AD02089554
:10076000CF93DF93EC019CB59F7D9CBD9CB5937F9F
:100770009CBD9CB59C7F9CBD9DB591609DBD8981B4
:100780000E94AD028A899B89DF91CF910C9425024A
:1007900061E00C94B00360E00C94B0038EBD0000E7
:1007A0000DB407FEFDCF8EB508951F93CF93DF9351
:1007B000EC010E94CB0381EE0E94CE03182FCE01E4
:1007C0000E94C803812FDF91CF911F910895EF926E
:1007D000FF921F93CF93DF9300D0CDB7DEB77C019C
:1007E0004A8369830E94CB036981862F8F7180625F
:1007F0000E94CE03182F4A81842F0E94CE03C70186
:100800000E94C803812F0F900F90DF91CF911F910D
:10081000FF90EF900895CF92DF92EF92FF920F93A7
:100820001F93CF93DF9300D0CDB7DEB78C01FC01CF
:100830009581C42E941708F4C92EF8018681811180
:1008400003C0D92EDC1801C0D12CC80169837A837A
:100850000E94CB0381E60E94CE036981E62E7A8155
:10086000F72EC60ECE1439F08FEF0E94CE03F7019B
:1008700081937F01F7CFDD2029F08FEF0E94CE0317
:10088000DA94F9CFC8010E94C80340E767E0C801C5
:100890000F900F90DF91CF911F910F91FF90EF90EC
:1008A000DF90CF900C94E703CF92DF92EF92FF920C
:1008B0000F931F93CF93DF9300D01F92CDB7DEB776
:1008C0007C01142F2A835B8369830E94CB03698197
:1008D000862F8F7180620E94CE03082FC12E5B810C
:1008E000D52E2A81120F1C1531F0F60181916F016E
:1008F0000E94CE03F8CFC7010E94C803802F0F903B
:100900000F900F90DF91CF911F910F91FF90EF907B
:10091000DF90CF900895EF92FF920F931F93CF93A4
:10092000DF93CDB7DEB728970FB6F894DEBF0FBEC2
:10093000CDBF7C0109831A832B833C834D835E8367
:100940006F837887FC012485AE014F5F5F4F6AE0BB
:100950000E945404F7012485AE014F5F5F4F60E1B0
:10096000C7010E945404F701458161E1C7010E945B
:10097000E70328960FB6F894DEBF0FBECDBFDF9118
:10098000CF911F910F91FF90EF900895EF92FF92FA
:100990001F93CF93DF931F92CDB7DEB77C0169839E
:1009A0000E94CB036981862F8F710E94CE038FEF47
:1009B0000E94CE03182FC7010E94C803812F0F90F9
:1009C000DF91CF911F91FF90EF900895AF92BF926A
:1009D000DF92EF92FF920F931F93CF93DF93CDB7E8
:1009E000DEB728970FB6F894DEBF0FBECDBF5C010F
:1009F000D62EE982FA820B831C832D833E834F839C
:100A0000588761110AC0FC01448550E0BE016F5F48
:100A10007F4F07960E94211407C0F6E0F61708F4EE
:100A200035C081E0681308C0ED2DF0E0EA55FF4FB6
:100A30006491F501248506C0E62FF0E0EA55FF4FEA
:100A4000649121E0AE014F5F5F4FC5010E945404E5
:100A50000D2D10E0F801E056FF4F6491F50145813E
:100A6000C5010E94E70362E0C5010E94C604F801C7
:100A7000E656FF4FE49141E050E001C0440FEA9593
:100A8000EAF7482B62E0C5010E94E70328960FB6FB
:100A9000F894DEBF0FBECDBFDF91CF911F910F91B4
:100AA000FF90EF90DF90BF90AF90089567E10E94B4
:100AB000C604809581700895CF93DF93EC0160E0C8
:100AC0000E94C60481FD0EC0482F426060E0CE0146
:100AD0000E94E70365E070E080E090E0DF91CF9155
:100AE0000C941903DF91CF910895CF93DF93EC011C
:100AF00060E00E94A9038E859F850E9425026DE11A
:100B0000CE010E94C60481FF07C08E859F850E948A
:100B10002502CE010E94D50360E0CE010E94C604EA
:100B2000482F4E7F60E0CE010E94E70362E0CE01D5
:100B30000E94C604EAE9F0E0E49141E050E001C01F
:100B4000440FEA95EAF7482B62E0CE01DF91CF919E
:100B50000C94E703CF93DF93EC010E945C0560E007
:100B6000CE010E94C604482F416060E0CE010E9481
:100B7000E70340E767E0CE010E94E70361E0CE01B2
:100B80000E94A9038F81882349F02C85AE01495F1B
:100B90005F4F6AE0CE010E94540414C062E0CE01AF
:100BA0000E94C604EAE9F0E0E49121E030E001C0EF
:100BB000220FEA95EAF72095422F482362E0CE0102
:100BC0000E94E7036DE1CE010E94C60481FF05C0CB
:100BD000CE01DF91CF910C94D503DF91CF91089591
:100BE0000895CF92DF92EF92FF920F931F93CF93CE
:100BF000DF936C017A018B01C0E0D0E0CE15DF05F8
:100C000089F0D8016D918D01D601ED91FC91019093
:100C1000F081E02DC6010995892B11F47E0102C0F7
:100C20002196ECCFC701DF91CF911F910F91FF90DB
:100C3000EF90DF90CF9008950E941C140F931F93A4
:100C4000CF93DF93EC0188819981009729F02A8165
:100C50003B812617370788F48B016F5F7F4F0E9417
:100C60005213009761F0998388831B830A832C8138
:100C70003D81232B11F4FC01108281E001C080E052
:100C8000DF91CF911F910F910895EF92FF920F93F3
:100C90001F93CF93DF93EC017B018A01BA010E947D
:100CA0001E062881398181110DC02115310519F0E9
:100CB000C9010E94BA12198218821D821C821B82ED
:100CC0001A8206C01D830C83B701C9010E942A1431
:100CD000CE01DF91CF911F910F91FF90EF9008957A
:100CE000E3E0F3E0A089B18982E08C93A485B58527
:100CF0001C92A685B7858FEC8C93108EA489B5893C
:100D000086E08C93A289B3898C9180618C93A289AF
:100D1000B3898C9188608C93A289B3898C91806807
:100D20008C930288F389E02D80818F7D80830895E4
:100D3000009769F0FC0101900020E9F73197AF01BD
:100D4000481B590BBC0183E093E00C94F10580E053
:100D500090E00895CF93DF930E949806EC018CE910
:100D600092E00E9498068C0F9D1FDF91CF9108950D
:100D70008F929F92AF92BF920F931F93CF93DF9367
:100D8000CDB7DEB7A1970FB6F894DEBF0FBECDBFCB
:100D900019A2423008F44AE08E010F5D1F4F842EE5
:100DA000912CA12CB12CA50194010E945711E62F82
:100DB000B901CA0101501109EA3014F4E05D01C023
:100DC000E95CD801EC93232B242B252B61F7C80178
:100DD0000E949806A1960FB6F894DEBF0FBECDBF55
:100DE000DF91CF911F910F91BF90AF909F908F9007
:100DF0000895CF92DF92EF92FF92CF93DF936B0132
:100E00007C01E0910303F09104030190F081E02D57
:100E10006DE283E093E00995EC0166277727CB012B
:100E20006C197D098E099F094AE00E94B8068C0F53
:100E30009D1FDF91CF91FF90EF90DF90CF900895AD
:100E4000CF93DF93BC01990F880B990B97FF03C0D9
:100E50000E94F90603C04AE00E94B806EC018CE942
:100E600092E00E9498068C0F9D1FDF91CF9108950C
:100E70000C949806BC01990F880B990B97FD0C9464
:100E8000F9064AE00C94B806CF92DF92EF92FF92F7
:100E90000F931F93CF93DF9300D0CDB7DEB76C01D4
:100EA000FC011581042F141708F4012FF601868127
:100EB000811102C0101B01C010E0C60169837A8352
:100EC0000E94CB0380EA0E94CE036981E62E7A81DC
:100ED000F72E060F0E1531F0F70181917F010E9468
:100EE000CE03F8CF112329F080E00E94CE031150E9
:100EF000F9CFC6010E94C80361E0C6010E94A903A0
:100F0000C6010E94CB038FEF0E94CE03182FC601AB
:100F10000E94C8031073A1F360E0C6010E94A903F8
:100F200040E767E0C6010E94E70384FF05C0C601F1
:100F30000E94D50380E001C081E00F900F90DF9107
:100F4000CF911F910F91FF90EF90DF90CF90089578
:100F5000EF92FF920F931F93CF93DF9300D0CDB703
:100F6000DEB78C0169831A82FC01E480F580FFEF13
:100F7000EF1AFF0AB7010E941E06882381F0F801CC
:100F80002081318184819581BE016F5F7F4F820F07
:100F9000931F0E942A14F801F582E48281E00F90E9
:100FA0000F90DF91CF911F910F91FF90EF900895D7
:100FB000CF93DF93EC016115710559F0FB010190AE
:100FC0000020E9F73197AF01461B570B0E944506F9
:100FD0000CC088819981009711F00E94BA12198281
:100FE00018821D821C821B821A82CE01DF91CF9152
:100FF00008950F931F93CF93DF938C01EB01FC01B6
:10100000808191810097B1F06881798161157105C6
:1010100079F0428153812C813D814217530740F082
:101020000E942A148C819D81F8019583848313C0CA
:101030000E94BA1288819981F801918380838A8104
:101040009B81938382838C819D8195838483198284
:1010500018821B821A821D821C82DF91CF911F9100
:101060000F910895FC01808191810C94BA12FC01CA
:101070001182108213821282158214826115710509
:1010800051F0FB0101900020E9F73197AF01461BB9
:10109000570B0C9445060895CF93DF93CDB7DEB779
:1010A000E9970FB6F894DEBF0FBECDBF789484B534
:1010B000826084BD84B5816084BD85B5826085BD54
:1010C00085B5816085BD80916E00816080936E00E2
:1010D00010928100809181008260809381008091D4
:1010E0008100816080938100809180008160809385
:1010F00080008091B10084608093B1008091B00045
:1011000081608093B00080917A00846080937A003F
:1011100080917A00826080937A0080917A00816069
:1011200080937A0080917A00806880937A00109290
:10113000C1000E94700686E191E00E94AA0680919B
:10114000E1039091E203891719F061E00E94DD024A
:101150008091E2039091E103981719F061E00E94F9
:10116000DD021FB7F89480910003811127C0ECE7DE
:10117000F0E08491E0E9F0E09491E82FF0E0EE0FE8
:10118000FF1FE859FF4FA591B491EC91E92321F499
:1011900061E08AE00E94AD0261E08AE00E94DD0227
:1011A0008CB580618CBD8CB580648CBD61E08DE0B8
:1011B0000E94DD0261E08BE00E94DD02809100036D
:1011C0008F5F809300031FBF60E081EE93E00E9479
:1011D000A90361E081EE93E00E94B00365E070E056
:1011E00080E090E00E9419034CE060E081EE93E023
:1011F0000E94E7034FE564E081EE93E00E94E7037D
:1012000066E081EE93E00E94C604877D182F10628D
:101210008BE990E0A0E0B0E08093EF039093F003BF
:10122000A093F103B093F203412F66E081EE93E0C7
:101230000E94E70366E081EE93E00E94C6048117F6
:1012400009F4F1C466E081EE93E00E94C60466E012
:1012500081EE93E00E94C60445E550E060E070E056
:101260004093EF035093F0036093F1037093F20304
:10127000482F477D66E081EE93E00E94E70366E039
:1012800081EE93E00E94C60481EE93E00E94CB03BE
:1012900080E50E94CE0383E70E94CE0381EE93E0B7
:1012A0000E94C80340E06DE181EE93E00E94E703F5
:1012B00040E06CE181EE93E00E94E70340E767E0E5
:1012C00081EE93E00E94E7034CE465E081EE93E059
:1012D0000E94E70381EE93E00E94CB0382EE0E941E
:1012E000CE0381EE93E00E94C80381EE93E00E945A
:1012F000D50381EE93E00E945C0560E081EE93E00F
:101300000E94C604482F4E7F60E081EE93E00E9469
:10131000E70368EC70E080E090E00E94190362E06F
:101320008091D4030E94DD0280E398EFAFEFBFEF1E
:101330008093D8039093D903A093DA03B093DB038F
:1013400060E082E00E94DD0260E083E00E94DD0256
:1013500060E084E00E94DD0260E085E00E94DD0242
:1013600061E087E00E94DD0261E088E00E94DD022A
:1013700061E088E00E94AD028091C1039091C203B8
:101380008932934209F0BAC030EAC32E33E0D32E3B
:10139000F6016788708C1A82198285E792E00E94B4
:1013A000AA068FE191E00E94AA068091B303909172
:1013B000B4030E947505F601108D0789712F770F10
:1013C000770B272F372F472F572F672F8091B30386
:1013D0009091B4030E948B04F6018789908D9A83C3
:1013E000898342E0BE016F5F7F4F8091B30390918C
:1013F000B4030E944407882389F068EC70E080E021
:1014000090E00E94190342E061EC73E08091B30325
:101410009091B4030E94440781110EC009811A8182
:101420000E94700685E792E00E94AA0680E391E0A0
:101430000E943807C80143C01A821982F601A788A2
:10144000B08CF090C203E090C1035F2D550F550B97
:10145000052F152F252F352F452F61E08091B303E0
:101460009091B4030E94E6048091B3039091B40379
:101470000E94AA050E9453038B0108511C4F1801BA
:10148000012E000C440855088091B3039091B403D9
:101490000E9456058111CBC30E9453036215730548
:1014A0008405950588F3C3C30E94700685E792E022
:1014B0000E94AA068BE691E00E943807C5010E94AF
:1014C0003A0783E492E00E94AA0661E087E00E9466
:1014D000AD0268EE73E080E090E00E94190360E0E6
:1014E00087E00E94AD02F2E0CF0ED11C2AEAC216BC
:1014F00023E0D20609F04CCFF12C8CC088ED91E0AE
:101500000E94AA061BA21AA21A821982F090C20394
:10151000E090C1035F2D550F550B052F152F252F7B
:10152000352F452F61E08091B3039091B4030E9461
:10153000E6048091B3039091B4030E94AA05F12CB4
:101540000E9453038B01005D1A482801012E000CF4
:10155000660877088091B3039091B4030E94560502
:10156000811107C00E945303641575058605970510
:1015700088F38091B3039091B4030E9456058823A9
:1015800009F48EC38DEE91E00E94AA0642E0BE01EE
:101590006E5D7F4F8091B3039091B4030E940B0462
:1015A0000E9453038B01005D1A482801012E000C94
:1015B000660877088091B3039091B4030E945605A2
:1015C000882309F492C38091B3039091B4030E94DD
:1015D0005605882309F492C342E0BE016F5F7F4F36
:1015E0008091B3039091B4030E940B042AA13BA104
:1015F0008091C1039091C2032817390709F4A3C34E
:101600002AA13BA18091C1039091C20328173907F9
:1016100009F096CFF092010360E088E00E94AD02ED
:1016200086E492E00E9438078091010390E00E94D6
:10163000200784E592E00E94AA068AE692E00E94D2
:1016400038078091CD039091CE030E94200787E751
:1016500092E00E94AA0603EC13E0F80181919191B7
:101660008F010E942007F3E00D3C1F07B1F791E1C5
:10167000392ECE0101966C0128E7222E83E892E0F4
:101680000E94AA0688E892E00E94AA068091CD03F3
:101690009091CE038932934209F06EC1F601232D59
:1016A00011922A95E9F76EE972E0CE0188960E94C0
:1016B0003708F090C203E090C1035F2D550F550B22
:1016C000052F152F252F352F452F60E08091B3036F
:1016D0009091B4030E94E6048091B3039091B40307
:1016E0000E94AA058091B3039091B4030E9456050D
:1016F0008823C1F34AE061E170E080E090E00E945D
:10170000B8068CE992E00E94980641E1B60180910A
:10171000B3039091B4030E940B04B601CE018896E6
:101720000E94D8076EE972E0CE0182960E943708C7
:1017300008A519A5B80180EA93E00E942A146CA5B7
:101740007DA580E090E020E030E08617970779F0F3
:101750000115110551F0F801E80FF91F40814D32D4
:1017600011F0483711F42F5F3F4F0196EECF233031
:10177000310509F03AC380EAE82E83E0F82E8701AC
:10178000005A1340F70161917F016D3229F0CE01BB
:1017900082960E94A807F3CF8AA19BA10E945514AC
:1017A0007C010F5F1F4F6EE972E0CE0182960E94AE
:1017B000D807F801E056FC4F60810F5F1F4F6D3274
:1017C00029F0CE0182960E94A807F3CF8AA19BA19F
:1017D0000E9451142B013C016EE972E0CE01829609
:1017E0000E94D80700561C4FF80161918F0168379D
:1017F00029F0CE0182960E94A807F6CF8AA19BA16C
:101800000E9455148C01CE0182960E943208A301D9
:101810009201C301B2010E942012882319F08FE9BE
:1018200092E01AC053014201E894B7F82FEF3FEF5E
:101830004FE75FE7C501B4010E94201281110FC07C
:101840002FEF3FEF4FE75FE7C501B4010E94941807
:1018500018162CF483EA92E00E9498067BC02FEFC2
:101860003FEF4FE75FE4C301B2010E941B1218165D
:101870001CF487EA92E0F0CF2FEF3FEF4FE75FECE9
:10188000C301B2010E94941887FDF3CF20E030E03D
:10189000A901C301B2010E94941887FF0FC0E09113
:1018A0000303F09104030190F081E02D6DE283E0E9
:1018B00093E0099577FA709477F870942AE037ED01
:1018C00043EA5BE3C301B2010E9480114B015C015A
:1018D0000E94EC112B013C010E9499189B01AC0164
:1018E000C501B4010E947F114B015C014AE0C301B4
:1018F000B2010E94B8068DEF91E00E94980620E0A8
:1019000030E040E251E4C501B4010E94FA182B0115
:101910003C010E94EC114B01A12CB12C4AE0C50105
:10192000B4010E94B806C501B4010E9499189B0138
:10193000AC01C301B2010E947F1120E030E040E21F
:1019400051E40E94FA180E94EC1180E090E04AE015
:101950000E94B8068CE992E00E949806C8010E9495
:101960002007C7010E942007CE0188960E943208F6
:101970008BEA92E00E94AA068091CD039091CE035B
:101980008A32934209F03FC164EC79E080E090E054
:101990000E9419036EE972E0CE01C4960E943708D6
:1019A0006EE972E0CE018E960E9437086EE972E011
:1019B000CE0188960E9437081BA21AA21DA21CA263
:1019C0001FA21EA24AE0B6018AE293E20E947314AB
:1019D000B601CE0182960E94D807BE016E5D7F4F90
:1019E000CE018E960E94F907CE0182960E9432089F
:1019F0006AA97BA92EA53FA5E0EAF3E080E090E08C
:101A00008617970718F42115310529F4109202035F
:101A1000A2E0B3E003C0D901A80FB91F4C914193D4
:101A200001968430910561F78DE28093A4031BA297
:101A30001AA21DA21CA21FA21EA2860122E044E03F
:101A400060E070E088EC92E40E943114BC01CE01A9
:101A500082960E94D807BE016E5D7F4FCE018E96A2
:101A60000E94F907CE0182960E9432086AA97BA9DA
:101A70002EA53FA580E090E08617970718F4211562
:101A8000310529F410920203E2E0F3E003C0F9010A
:101A9000E80FF91F4081FC01E056FC4F4583019699
:101AA0008530910549F78DE28093AA031BA21AA203
:101AB0001DA21CA21FA21EA24AE0B60182E090E075
:101AC0000E947314B601CE0182960E94D807BE010F
:101AD0006E5D7F4FCE018E960E94F907CE018296F1
:101AE0000E9432084AA95BA92EA53FA580E090E09C
:101AF0008417950791F02115310529F410920203FE
:101B0000E2E0F3E003C0F901E80FF91F6081FC0196
:101B1000E056FC4F63870196EBCFFC01E056FC4F8B
:101B2000238660EA73E0CE0188960E94D8071A8265
:101B300019821C821B821E821D82BE01685D7F4F3E
:101B4000C6010E94F907CE0188960E943208CE0194
:101B50008E960E943208B601CE01C4960E94F90703
:101B6000C6010E94320861E088E00E94AD0209E2ED
:101B700013E220E030E040E050E060E070E080916F
:101B8000B3039091B4030E948B048091B3039091AE
:101B9000B4030E9475056CA97DA941E18091B3034E
:101BA0009091B4030E944407882329F086EB92E0C9
:101BB0000E94AA0620C00E94700685E792E00E945B
:101BC000AA0680E391E00E94380789E293E20E942E
:101BD0003A0783E492E00E94AA0661E087E00E944F
:101BE000AD0268EE73E080E090E00E94190360E0CF
:101BF00087E00E94AD0260E088E00E94AD02CE0165
:101C0000C4960E9432088091CD039091CE038B320E
:101C1000934231F468EB7BE080E090E00E9419038E
:101C20000E94F2012BCD81E08093E5030BCB8091E4
:101C3000B3039091B4030E9456058823E1F042E07B
:101C4000BE016F5F7F4F8091B3039091B4030E94F8
:101C50000B0489819A818A159B0509F025CC83E5BF
:101C600091E00E94AA068BEB92E00E94AA06C301B3
:101C70000E94200738CC0E945303012E000C220B37
:101C8000330B061717072807390708F02CCC0E94DA
:101C9000700685E792E00E94AA0685EA91E00CCCE6
:101CA0000E945303012E000C220B330B061717075B
:101CB0002807390708F074CC0E94700685E792E087
:101CC0000E94AA068FEF91E00E94AA0661E087E0D9
:101CD0000E94AD0268EE73E080E090E00E9419037C
:101CE00060E087E00E94AD025BCC0E945303641564
:101CF00075058605970508F45DCC65CC0E945303F5
:101D0000012E000C220B330B061717072807390783
:101D100008F06CCC0E94700685E792E00E94AA064B
:101D20008FEF91E00E94AA0661E087E00E94AD0279
:101D300068EE73E080E090E00E94190360E087E0C5
:101D40000E94AD0253CC8091B3039091B4030E94E2
:101D500075051091B8030091B703712F770F770BBA
:101D6000272F372F472F572F672F8091B30390913D
:101D7000B4030E948B0488E292E00E94AA0642E02B
:101D800061EC73E08091B3039091B4030E94440727
:101D9000811128C08DE392E00E94AA060091B7034A
:101DA0001091B8030E94700685E792E00E94AA068F
:101DB00080E391E00E943807C8010E943A0783E45B
:101DC00092E00E94AA0661E087E00E94AD0268EE00
:101DD00073E080E090E00E94190360E087E00E94D9
:101DE000AD020ECCFF24F3940BCC0E94700685E765
:101DF00092E00E94AA0688ED92E00E94AA0661E0A5
:101E000087E00E94AD0260ED77E080E090E00E9404
:101E1000190360E087E00E94AD02E12CF12C00E0A4
:101E200010E0412C512C3201EECC8F929F92AF9258
:101E3000BF92CF92DF92EF92FF920F931F93CF93B7
:101E4000DF93109206031092050388EE93E0A0E062
:101E5000B0E08093070390930803A0930903B09325
:101E60000A038AE091E0909304038093030385ECD6
:101E700090E09093100380930F0384EC90E0909394
:101E800012038093110380EC90E0909314038093ED
:101E9000130381EC90E0909316038093150382EC7A
:101EA00090E0909318038093170386EC90E0909352
:101EB0001A038093190310921C0310921D031092B1
:101EC0001E0310921F0389E08093E1038AE0809350
:101ED000E2031092E50380E28093E6031092E703A9
:101EE00085E08093ED0385E090E0A0E0B0E0809392
:101EF000F3039093F403A093F503B093F6031092C9
:101F0000E80386E08093D4038BE08093D503ECE86C
:101F1000F0E0E491E093D603E8E7F0E0E491E093A9
:101F2000D70380E89EE3A0E0B0E08093DC039093C9
:101F3000DD03A093DE03B093DF030E94700682E00E
:101F40000E942E114C0183E00E942E11D1E0892BBA
:101F500009F4D0E084E00E942E11C1E0892B09F43D
:101F6000C0E08AEF92E00E94AA06892839F4D111D4
:101F70000CC0CC23A1F0CDE2D3E21CC0D1110AC029
:101F8000CC2381F0CEE2D3E215C0CC2371F0CFE2B6
:101F9000D3E210C0CC2361F0C0E3D3E20BC0C9E2AE
:101FA000D3E208C0CAE2D3E205C0CBE2D3E202C06A
:101FB000CCE2D3E2D093CE03C093CD038DEF92E079
:101FC0000E94AA06C93283E2D80799F0CE018A524C
:101FD0009342039788F0CD3283E2D80781F0CE3266
:101FE00083E2D80779F0CF32D34279F08FE293E2DF
:101FF0000EC08AE293E20BC089E293E208C08CE251
:1020000093E205C08DE293E202C08EE293E29093E8
:10201000C4038093C303C091CD03D091CE038DEF51
:1020200092E00E94AA06CE01895293428230910525
:10203000E0F002970297A0F0CD3283E2D807A9F032
:10204000CE3283E2D807B1F0CF3283E2D807B9F0BD
:10205000C033D342C1F4DEE2ED2ED3E2FD2E13C035
:10206000CAE2EC2EC3E2FC2E0EC0BBE2EB2EB3E2C2
:10207000FB2E09C0ACE2EA2EA3E2FA2E04C0FDE278
:10208000EF2EF3E2FF2EF092C603E092C503C0915B
:10209000CD03D091CE038DEF92E00E94AA06CE012F
:1020A000895293420397E0F0CC3283E2D807A9F03B
:1020B000CD3283E2D80771F0CE3283E2D80769F0DF
:1020C000CF3283E2D80761F0C033D34259F40DE236
:1020D00013E208C00AE213E205C00BE213E202C0F9
:1020E0000CE213E21093C8030093C703C091CD0321
:1020F000D091CE038DEF92E00E94AA06CE018952C4
:1021000093420497A0F0CD3283E2D807A9F0CE32F3
:1021100083E2D807B1F0CF3283E2D807B9F0C033F9
:10212000D342C1F4ECE2AE2EE3E2BE2E13C07DE258
:10213000A72E73E2B72E0EC06EE2A62E63E2B62E75
:1021400009C05AE2A52E53E2B52E04C04BE2A42EDC
:1021500043E2B42EB092CA03A092C903C091CD034A
:10216000D091CE038DEF92E00E94AA06CE01895253
:1021700093428430910578F00497029788F0CF322B
:1021800083E2D80791F0C033D34299F43BE2C32EE7
:1021900033E2D32E0EC02EE2C22E23E2D22E09C08D
:1021A0009FE2C92E93E2D92E04C08AE2C82E83E2B0
:1021B000D82ED092CC03C092CB031092F803109289
:1021C000F7031092FA031092F9038091CD039091D6
:1021D000CE0321EE33E03093B4032093B30327EF13
:1021E00033E03093B6032093B5039093C2038093FA
:1021F000C1039093B2038093B1038091C303909184
:10220000C4039093B8038093B7038091C503909162
:10221000C6039093BA038093B9038091C70390914A
:10222000C8039093BC038093BB038091C903909132
:10223000CA039093BE038093BD03D092C003C092A3
:10224000BF03DF91CF911F910F91FF90EF90DF902F
:10225000CF90BF90AF909F908F900895CF93DF93D2
:10226000282F30E0F901E054FF4F8491F901EA573B
:10227000FF4FD491F901EE58FF4FC491CC2391F058
:1022800081110E94FC01EC2FF0E0EE0FFF1FEA54D9
:10229000FF4FA591B491EC91ED2381E090E021F402
:1022A00080E002C080E090E0DF91CF910895A1E24C
:1022B0001A2EAA1BBB1BFD010DC0AA1FBB1FEE1FC0
:1022C000FF1FA217B307E407F50720F0A21BB30B0B
:1022D000E40BF50B661F771F881F991F1A9469F787
:1022E00060957095809590959B01AC01BD01CF01E3
:1022F0000895EE0FFF1F0590F491E02D09945058BA
:10230000BB27AA270E9497110C9481190E94731968
:1023100038F00E947A1920F039F49F3F19F426F41E
:102320000C9470190EF4E095E7FB0C946A19E92FF0
:102330000E94921958F3BA1762077307840795072A
:1023400020F079F4A6F50C94B4190EF4E0950B2E58
:10235000BA2FA02D0B01B90190010C01CA01A001F7
:102360001124FF27591B99F0593F50F4503E68F152
:102370001A16F040A22F232F342F4427585FF3CF93
:10238000469537952795A795F0405395C9F77EF464
:102390001F16BA0B620B730B840BBAF09150A1F0AD
:1023A000FF0FBB1F661F771F881FC2F70EC0BA0F33
:1023B000621F731F841F48F4879577956795B795BB
:1023C000F7959E3F08F0B0CF9395880F08F09927B6
:1023D000EE0F9795879508950E949A1988F09F5758
:1023E00098F0B92F9927B751B0F0E1F0660F771F39
:1023F000881F991F1AF0BA95C9F714C0B13091F02F
:102400000E94B419B1E008950C94B419672F782F85
:102410008827B85F39F0B93FCCF3869577956795F3
:10242000B395D9F73EF490958095709561957F4F5F
:102430008F4F9F4F08950E94D61808F48FEF08958C
:102440000E94D618880B990B0895CF93DF938230A2
:10245000910510F482E090E0E0910604F091070409
:1024600020E030E0C0E0D0E0309711F140815181B0
:1024700048175907C0F04817590761F482819381C2
:10248000209719F09B838A832BC090930704809335
:10249000060426C02115310519F04217530718F418
:1024A0009A01BE01DF01EF010280F381E02DDCCF54
:1024B0002115310509F1281B390B2430310590F421
:1024C00012968D919C9113976115710521F0FB0176
:1024D0009383828304C09093070480930604FD01D4
:1024E000329644C0FD01E20FF31F81939193225075
:1024F00031092D933C933AC0209104043091050496
:10250000232B41F420910201309103013093050403
:10251000209304042091000130910101211531051F
:1025200041F42DB73EB74091040150910501241BA1
:10253000350BE0910404F0910504E217F307A0F4D1
:102540002E1B3F0B2817390778F0AC014E5F5F4F09
:102550002417350748F04E0F5F1F50930504409332
:1025600004048193919302C0E0E0F0E0CF01DF9199
:10257000CF9108950F931F93CF93DF93009709F4A2
:102580008CC0FC01329713821282009106041091D4
:1025900007040115110581F420813181820F931FF9
:1025A00020910404309105042817390779F5F09338
:1025B0000504E093040471C0D80140E050E0AE1778
:1025C000BF0750F412962D913C911397AD01211540
:1025D000310509F1D901F3CF9D01DA01338322835B
:1025E00060817181860F971F8217930769F4EC0150
:1025F00028813981260F371F2E5F3F4F318320837B
:102600008A819B8193838283452B29F4F09307046D
:10261000E093060442C01396FC93EE931297ED01EB
:10262000499159919E01240F351FE217F30771F468
:1026300080819181840F951F029611969C938E93B1
:102640008281938113969C938E931297E0E0F0E041
:10265000D80112968D919C911397009719F0F8016B
:102660008C01F6CF8D919C9198012E5F3F4F820F88
:10267000931F20910404309105042817390769F449
:10268000309729F4109207041092060402C01382B6
:1026900012821093050400930404DF91CF911F91DF
:1026A0000F910895A0E0B0E0E8E5F3E10C94CA19B9
:1026B000EC01009721F4CB010E942512B8C0FC0167
:1026C000E60FF71F9C0122503109E217F30708F4C7
:1026D000ACC0D9010D911C91119706171707B0F0E6
:1026E0000530110508F49FC0C801049786179707A5
:1026F00008F499C002501109061B170B019311939E
:102700006D937C93CF010E94BA128DC05B01A01A19
:10271000B10A4C01800E911EA0910604B0910704ED
:1027200040E050E0E12CF12C109709F44AC0A815C4
:10273000B905D1F56D907C901197630182E0C80EC8
:10274000D11CCA14DB0480F1A3014A195B096A0198
:1027500082E0C80ED11C1296BC9012971396AC91D1
:10276000B5E0CB16D10440F0B282A38351834083FD
:10277000D9016D937C930AC00E5F1F4FC301800F78
:10278000911FF90191838083EB2DFA2FE114F1045D
:1027900031F0D7011396FC93EE93129744C0F09357
:1027A0000704E09306043FC08D919C911197481750
:1027B000590708F4AC017D0112960D90BC91A02D33
:1027C000B3CF809104049091050488159905E1F434
:1027D00046175707C8F480910001909101010097B6
:1027E00041F48DB79EB74091040150910501841BBF
:1027F000950BE817F907C8F4F0930504E093040477
:10280000F901718360830FC0CB010E9425127C0106
:10281000009759F0A801BE010E942114CE010E9428
:10282000BA12C70104C0CE0102C080E090E0CDB76B
:10283000DEB7EEE00C94E61981E090E0F8940C9499
:102840000C1AFB01DC0102C001900D924150504076
:10285000D8F70895FB01DC0101900D920020E1F70B
:102860000895EF920F931F93CF93DF93E80147FDF5
:1028700002C034E001C034E1E42F440FFF0BF7FF46
:1028800003C0F195E195F109E32E022F2E2FAE0141
:102890000E94A014CE01DF91CF911F910F91EF9074
:1028A0000895662777270C942E16FC018827992710
:1028B000E89421912032E9F3293010F02E30C8F34A
:1028C0002B3241F02D3239F4689404C00E947E14FA
:1028D000820F911D219120532A30C0F31EF4909550
:1028E00081959F4F0895BB274A3031F4992322F4F4
:1028F000BDE2909581959F4F0C9487147AE0979F45
:10290000902D879F802D910D11240895BB27FB01E9
:102910005527AA27880F991FAA1FA41710F0A41BD8
:1029200083955051B9F7A05DAA3308F0A95DA19332
:10293000009779F7B111B1931192CB010C948418DF
:102940004F925F926F927F929F92AF92BF92CF927F
:10295000DF92EF92FF920F931F93CF93DF93CDB748
:10296000DEB729970FB6F894DEBF0FBECDBF6A0160
:10297000122FB02E2BE3201720F0FF24F394F00E3B
:1029800002C0BCE3FB2E0F2D27E0AE014F5F5F4F6F
:102990000E948B17AC018981982F9970913031F08A
:1029A000E1FC06C0E0FE06C090E205C09DE203C067
:1029B0009BE201C090E0EE2DE07183FF3CC09111DD
:1029C00002C083E001C084E0811718F4212F281B86
:1029D00001C020E0E1110BC0F601822F30E2882314
:1029E00019F031938150FBCFC20ED11C20E0992306
:1029F00029F0D6019C93F60131966F01C60103962A
:102A0000E2FE0AC03EE4D6013C9341E411964C93A9
:102A1000119712963C9306C03EE6F601308341E6DC
:102A200041833283FC01322F40E2332309F442C058
:102A300041933150FACF82FF44C0911102C083E02C
:102A400001C084E0811718F4212F281B01C020E069
:102A5000E1110BC0F601822F30E2882319F0319387
:102A60008150FBCFC20ED11C20E0992329F0D60162
:102A70009C93F60131966F01C6010396E2FE0BC0EE
:102A800039E4D6013C933EE411963C93119736E429
:102A900012963C9307C039E6F60130833EE6318357
:102AA00036E63283FC01322F40E2332319F04193A2
:102AB0003150FBCFFC01E20FF11D10828EEF9FEF32
:102AC000B7C0F1E0911101C0F0E06F2F70E0141673
:102AD000150624F49A012F5F3F4F02C021E030E039
:102AE000260F371FBB2029F06B2D70E06F5F7F4FE3
:102AF00002C060E070E0260F371F612F70E02617DC
:102B000037071CF4121B212F01C020E03E2D387125
:102B100059F4D601322F60E2332319F06D9331500E
:102B2000FBCFC20ED11C20E0FF2331F0D6019C93D5
:102B3000B6016F5F7F4F6B01E1110BC0F601922F61
:102B400030E3992319F031939150FBCFC20ED11C81
:102B500020E09F2D940F3A81782F7071A72E84FF6B
:102B600003C0313309F49150191624F4993018F048
:102B700098E001C091E0E42F852F57FF02C0E0E00C
:102B800080E06E2F782FE0E0F0E0AEE29A2E3A017E
:102B9000691A71082A01461A570A0B2D10E011957F
:102BA000019511096F3F8FEF780729F4D6019C92A8
:102BB000C60101966C014617570784F06616770622
:102BC0006CF47F01E40CF51CA1E0B0E0AC0FBD1F7C
:102BD000EA0EFB1ED7011196BC9002C090E3B92EFD
:102BE000615071093196C60101967C016017710729
:102BF00024F0D601BC926C01D5CF6417750741F45F
:102C0000363320F4353321F4A11002C081E3B82E0D
:102C1000F601B082F701822F90E2882319F0919398
:102C20008150FBCFF701E20FF11D108280E090E0B0
:102C300029960FB6F894DEBF0FBECDBFDF91CF91BE
:102C40001F910F91FF90EF90DF90CF90BF90AF90CA
:102C50009F907F906F905F904F900895A0E0B0E0BC
:102C6000E4E3F6E10C94CA19EC017B0161157105EE
:102C700019F0DB018D939C938E010F5F1F4F7880BD
:102C8000872D90E00E946318892B11F0E801F4CFA2
:102C9000BDE27B1205C00F5F1F4F7980C1E008C005
:102CA000EBE27E1204C08E010E5F1F4F7980C0E000
:102CB0006801F1E0CF1AD10843E050E06CED70E01C
:102CC000C6010E946C18892BF1F4680122E0C20E43
:102CD000D11C45E050E067ED70E0C6010E946C1821
:102CE000892B21F4680187E0C80ED11CE114F1049E
:102CF00019F0D701CD92DC92C111FFC060E070E005
:102D000080E89FE703C143E050E064ED70E0C60156
:102D10000E946C18892B51F4E114F10409F4F2C0FB
:102D20000E5F1F4FF70111830083ECC0680160E064
:102D300070E0CB0100E010E0F601D0EDD70DDA3005
:102D400058F52C2F2260622E2C2F2870C2FF05C050
:102D5000211128C00F5F1F4F25C0222311F0015001
:102D60001109A5E0B0E09B01AC010E94BB194B0129
:102D70005C01880C991CAA1CBB1CC501B4016D0F19
:102D8000711D811D911D6839A9E97A078A07A9E19A
:102D90009A0740F0C66005C0DE3F51F4C3FD44C051
:102DA000C8606C2EBFEFCB1ADB0A7080C62DC4CF73
:102DB0002D2F2F7D2531C1F540814D3211F4C06199
:102DC00006C04B3221F0319621E030E006C0329649
:102DD000D60111964C9122E030E0A0EDA40FAA306C
:102DE00018F0E21BF30B20C040E050E04038BCE09C
:102DF0005B075CF49A01220F331F220F331F420F2F
:102E0000531F440F551F4A0F511D3196DF01119773
:102E10002C91A0EDA20FAA3048F3C4FF03C0519536
:102E200041955109040F151FC1FF07C0E114F104BA
:102E300021F03197D701ED93FC930E949918C3704C
:102E4000C33019F06B017C0106C06B017C01F7FAFD
:102E5000F094F7F8F09420E030E0A901C701B60142
:102E60000E949418882309F445C017FF06C01195E5
:102E700001951109C3EFD0E002C0CBE0D1E05E01C3
:102E8000B8E1AB1AB1084601BE2DAF2D90E2E92E94
:102E9000F12C0E151F0584F0FE0125913591459109
:102EA0005491B4018B2F9A2F0E94FA184B01B82F1E
:102EB000A92F0E191F09EDCF2497F594E794CA1591
:102EC000DB0539F76401EB2EFA2E8E2D880F8F2D3E
:102ED000881F8F3F49F020E030E0A901C701B6010B
:102EE0000E949418811106C082E290E09093090438
:102EF00080930804C701B60109C060E070E080E873
:102F00009FEF04C060E070E080EC9FE7CDB7DEB7D4
:102F1000EEE00C94E619283008F027E03327DA01B8
:102F2000990F311D87FD916000966105710539F497
:102F300032602E5F3D9330E32A95E1F708959F3F7D
:102F400030F080387105610509F03C5F3C5F3D93CE
:102F5000913008F08068911DDF93CF931F930F93FA
:102F6000FF92EF92192F987F9695E92F9695969557
:102F7000E90FFF27E759FE4F99273327EE24FF2457
:102F8000A701E70105900894079428F4360FE71E7F
:102F9000F81E491F511D660F771F881F991F069441
:102FA000A1F70590079428F4E70EF81E491F561F55
:102FB000C11D770F881F991F661F0694A1F7059002
:102FC000079428F4F80E491F561FC71FD11D880FFC
:102FD000991F661F771F0694A1F70590079420F4A8
:102FE000490F561FC71FD81F990F661F771F881FCD
:102FF0000694A9F784911095177041F0D695C7955E
:1030000057954795F794E7941A95C1F7EFE0F1E0EB
:1030100068941590159135916591959105907FE291
:103020007395E118F10A430B560BC90BD009C0F791
:10303000E10CF11E431F561FC91FD01D7EF47033D3
:1030400011F48A95E6CFE894015030F0080F0AF4A5
:103050000027021708F4202F2395022F7A3328F037
:1030600079E37D932A95E9F710C07D932A9589F637
:10307000069497956795379517951794E118F10A77
:10308000430B560BC90BD00998F023957E9173958D
:103090007A3308F070E37C932013B8F77E91706167
:1030A0007D9330F0839571E37D9370E32A95E1F78A
:1030B0001124EF90FF900F911F91CF91DF919927ED
:1030C00087FD9095089591110C946719803219F03D
:1030D00089508550C8F70895FB01DC0141505040EC
:1030E00088F08D9181341CF08B350CF4805E6591F5
:1030F00061341CF06B350CF4605E861B611171F35A
:10310000990B0895881BFCCFDC01FC01672F71919E
:103110007723E1F7329704C07C916D9370836291BD
:10312000AE17BF07C8F308950E94D61808F481E0CF
:103130000895E89409C097FB3EF4909580957095AA
:1031400061957F4F8F4F9F4F9923A9F0F92F96E9F3
:10315000BB279395F695879577956795B795F11168
:10316000F8CFFAF4BB0F11F460FF1BC06F5F7F4F05
:103170008F4F9F4F16C0882311F096E911C0772317
:1031800021F09EE8872F762F05C0662371F096E820
:10319000862F70E060E02AF09A95660F771F881FEF
:1031A000DAF7880F9695879597F90895990F000893
:1031B000550FAA0BE0E8FEEF16161706E807F90709
:1031C000C0F012161306E407F50798F0621B730BA4
:1031D000840B950B39F40A2661F0232B242B252B25
:1031E00021F408950A2609F4A140A6958FEF811DC8
:1031F000811D08950E940D190C9481190E94731964
:1032000038F00E947A1920F0952311F00C946A1975
:103210000C94701911240C94B5190E94921970F332
:10322000959FC1F3950F50E0551F629FF001729F6B
:10323000BB27F00DB11D639FAA27F00DB11DAA1F7A
:10324000649F6627B00DA11D661F829F2227B00DC7
:10325000A11D621F739FB00DA11D621F839FA00D52
:10326000611D221F749F3327A00D611D231F849FA2
:10327000600D211D822F762F6A2F11249F575040F9
:103280009AF0F1F088234AF0EE0FFF1FBB1F661F74
:10329000771F881F91505040A9F79E3F510580F03D
:1032A0000C946A190C94B5195F3FE4F3983ED4F37B
:1032B000869577956795B795F795E7959F5FC1F7E1
:1032C000FE2B880F911D9695879597F9089599275C
:1032D0008827089597F99F6780E870E060E0089577
:1032E0009FEF80EC089500240A941616170618061E
:1032F0000906089500240A941216130614060506FA
:103300000895092E0394000C11F4882352F0BB0F8A
:1033100040F4BF2B11F460FF04C06F5F7F4F8F4FED
:103320009F4F089557FD9058440F551F59F05F3F28
:1033300071F04795880F97FB991F61F09F3F79F0D7
:1033400087950895121613061406551FF2CF469559
:10335000F1DF08C0161617061806991FF1CF8695DB
:103360007105610508940895E894BB2766277727BF
:10337000CB0197F908950E94FD19A59F900DB49F68
:10338000900DA49F800D911D112408952F923F92BE
:103390004F925F926F927F928F929F92AF92BF9265
:1033A000CF92DF92EF92FF920F931F93CF93DF9311
:1033B000CDB7DEB7CA1BDB0B0FB6F894DEBF0FBE6E
:1033C000CDBF09942A88398848885F846E847D84BB
:1033D0008C849B84AA84B984C884DF80EE80FD80BD
:1033E0000C811B81AA81B981CE0FD11D0FB6F89433
:1033F000DEBF0FBECDBFED010895A29FB001B39F08
:10340000C001A39F700D811D1124911DB29F700DED
:0C341000811D1124911D0895F894FFCF38
:10341C0000000A048000000000008901F10552013F
:10342C0030014401D001696E2073657475700053CE
:10343C00656E64696E672070696E67732E2E2E0040
:10344C004552524F5220303033212120556E61624B
:10345C006C6520746F20636F6E7461637420687583
:10346C0062200052656365697665642061636B6EEA
:10347C006F776C656467652E2E2E004552524F5245
:10348C0020303038212120496E636F72726563746D
:10349C002061636B6E6F776C656467656D656E74C8
:1034AC002070696E67207265636965766564206655
:1034BC00726F6D20004552524F522030303721210F
:1034CC00204E6F2061636B6E6F776C656467656D02
:1034DC00656E742070696E672072656369657665C8
:1034EC00642066726F6D200057616974696E672085
:1034FC00666F722070696E67732E2E2E0052656394
:10350C00656976696E6720446174612E2E2E0045C4
:10351C0052524F522030303921212054696D652090
:10352C006F757421204E6F2070696E672072656311
:10353C00656976656421210053656E64696E672048
:10354C0050696E67206261636B2E2E2E00455252BD
:10355C004F522121210050696E672073746174757C
:10356C00733A20002F2F2F2F2F2F2F2F2F2F2F2F4E
:10357C002F2F2F2F2F2F2F2F2F004D7920416464A9
:10358C00726573733A2000526561642052616E67F4
:10359C00653A0056565656005F5F5F5F5F5F5F5F30
:1035AC005F5F5F5F5F5F5F5F5F5F5F000D0A006E75
:1035BC00616E00696E66006F7666002D2D2D2D2DC7
:1035CC002D2D2D2D2D00747275650053756363655B
:1035DC00737366756C20636F6E74616374207769A6
:1035EC0074682068756220004552524F5220303169
:1035FC00312121204D6573616765206E6F742066E3
:10360C006F726D61746564212100303100303200BD
:00000001FF
