:100000000C946B000C9493000C9493000C9493004C
:100010000C9493000C9493000C9493000C94930014
:100020000C9493000C9493000C9493000C94930004
:100030000C9493000C9493000C9493000C949300F4
:100040000C94CC050C9493000C94DD040C94B70430
:100050000C9493000C9493000C9493000C949300D4
:100060000C9493000C9493000000000024002700DF
:100070002A0004040404040404040202020202022A
:10008000030303030303010204081020408001025C
:100090000408102001020408102011121314151670
:1000A0000A0B0C0D0E0F00010203040500000000F6
:1000B000250028002B000000000023002600290056
:1000C0000000000800020100000304070000000017
:1000D000000000007D0911241FBECFEFD8E0DEBF75
:1000E000CDBF12E0A0E0B1E0ECE8F6E102C005907F
:1000F0000D92AC38B107D9F723E0ACE8B2E001C00B
:100100001D92A836B207E1F710E0CBE6D0E004C0BC
:100110002197FE010E94390BCA36D107C9F70E9408
:100120001D060C94440B0C940000CF92DF92EF92CA
:10013000FF920F931F93CF93DF936C017A018B0192
:10014000C0E0D0E0CE15DF0589F0D8016D918D01BA
:10015000D601ED91FC910190F081E02DC601099549
:10016000892B11F47E0102C02196ECCFC701DF91EB
:10017000CF911F910F91FF90EF90DF90CF90089556
:100180000E943F0B009769F0FC0101900020E9F705
:100190003197AF01481B590BBC018EE892E00C94DB
:1001A000950080E090E008958F929F92AF92BF9269
:1001B0000F931F93CF93DF93CDB7DEB7A1970FB601
:1001C000F894DEBF0FBECDBF19A2423008F44AE05A
:1001D0008E010F5D1F4F842E912CA12CB12CA501F7
:1001E00094010E94170BE62FB901CA0101501109B1
:1001F000EA3014F4E05D01C0E95CD801EC93232BF4
:10020000242B252B61F7C8010E94C200A1960FB6CE
:10021000F894DEBF0FBECDBFDF91CF911F910F913C
:10022000BF90AF909F908F900895CF92DF92EF9202
:10023000FF92CF93DF936B017C01E0918E02F091EE
:100240008F020190F081E02D6DE28EE892E0099539
:10025000EC0166277727CB016C197D098E099F0970
:100260004AE00E94D4008C0F9D1FDF91CF91FF9038
:10027000EF90DF90CF900895CF93DF930E94C2005C
:10028000EC0188E892E00E94C2008C0F9D1FDF9174
:10029000CF910895BC01990F880B990B97FD0C9491
:1002A00015014AE00C94D400CF93DF939CB59F7D59
:1002B0009CBD9CB5937F9CBD9CB59C7F9CBD9DB512
:1002C00091609DBDC9E4D3E0682F89810E940F052C
:1002D0008A899B89DF91CF910C947B0581E00C94F6
:1002E000540180E00C945401EF92FF920F931F93FE
:1002F000CF93DF9300D01F92CDB7DEB7162F4A837E
:100300007B8389830E94710189818F7180620E9441
:100310001606082FE12E7B81F72E4A81140F1E1539
:1003200031F0F70181917F010E941606F8CF0E94FB
:100330006E01802F0F900F900F90DF91CF911F9142
:100340000F91FF90EF9008951F93CF93DF9300D00C
:10035000CDB7DEB76A8389830E94710189818F716D
:1003600080620E941606182F6A81862F0E94160648
:100370000E946E01812F0F900F90DF91CF911F91FE
:100380000895DF92EF92FF920F931F93CF93DF9325
:100390001F92CDB7DEB7F82E20914E03223010F415
:1003A000E22E02C082E0E82E80914F03811103C04B
:1003B000D22EDE1801C0D12C99830E94710181E6F2
:1003C0000E9416060F2D9981192FEA94FFEFEF1660
:1003D00039F08FEF0E941606F80181938F01F5CF57
:1003E000DD2029F08FEF0E941606DA94F9CF0E94E3
:1003F0006E0160E787E00F90DF91CF911F910F9121
:10040000FF90EF90DF900C94A401CF93DF931F92A5
:10041000CDB7DEB789830E94710189818F710E94F7
:1004200016068FEF0E94160689830E946E0189814D
:100430000F90DF91CF91089587E10E94050280958A
:1004400081700895CF93DF931F92CDB7DEB70E94DE
:10045000710181EE0E94160689830E946E018981D6
:100460000F90DF91CF910895682F8091490390916B
:100470004A0389130C940F05089580E00E94050239
:1004800081FD0BC0682F626080E00E94A40165E0DE
:1004900070E080E090E00C94860508950E943D0293
:1004A00080E00E940502682F616080E00E94A40144
:1004B00060E787E00E94A40181E00E9434028091FD
:1004C0005003882341F04091550360E573E08AE0D2
:1004D0000E94740112C082E00E940502E6EAF0E088
:1004E000E49121E030E001C0220FEA95EAF720957F
:1004F000622F682382E00E94A4018DE10E94050220
:1005000081FD0C94220208950F931F93CF93DF93E4
:10051000CDB7DEB728970FB6F894DEBF0FBECDBFBC
:1005200029833A834B835C836D837E838F83988793
:10053000E1EAF0E0849109E413E0F8014485BE01AA
:100540006F5F7F4F0E947401EBE9F0E08491F80146
:1005500065810E94A40182E00E940502E7EAF0E0C2
:10056000E49161E070E001C0660FEA95EAF7682B5C
:1005700082E00E94A40128960FB6F894DEBF0FBE59
:10058000CDBFDF91CF911F910F910895DF92EF9230
:10059000FF920F931F93CF93DF931F92CDB7DEB7D8
:1005A000F82E20914E03D22E233010F082E0D82E68
:1005B00080914F03811103C0E22EED1801C0E12CA0
:1005C00099830E94710180EA0E9416060F2D99817D
:1005D000192FDA94FFEFDF1631F0F80181918F01C6
:1005E0000E941606F6CFEE2029F080E00E94160643
:1005F000EA94F9CF0E946E0181E00E9434020E94C9
:1006000071018FEF0E94160689830E946E01898115
:100610008073A9F380E00E94340260E787E00E94C3
:10062000A40184FF04C00E94220280E001C081E096
:100630000F90DF91CF911F910F91FF90EF90DF907E
:1006400008950F931F93CF93DF93CDB7DEB728970D
:100650000FB6F894DEBF0FBECDBF29833A834B831C
:100660005C836D837E838F83988709E413E0F801B0
:100670004485BE016F5F7F4F8AE00E947401F801DC
:100680004485BE016F5F7F4F80E10E947401F801D5
:10069000658181E10E94A40128960FB6F894DEBF1F
:1006A0000FBECDBFDF91CF911F910F91089580E0D4
:1006B0000E94340280915703909158030E947B0559
:1006C0008DE10E94050281FF08C08091570390913F
:1006D00058030E947B050E94220280E00E940502CE
:1006E000682F6E7F80E00E94A40182E00E940502D4
:1006F000E6EAF0E0E49161E070E001C0660FEA959F
:10070000EAF7682B82E00C94A401CF93DF93BC013D
:10071000990F880B990B97FF03C00E94150103C026
:100720004AE00E94D400EC0188E892E00E94C200F6
:100730008C0F9D1FDF91CF910895FC01918D828DCB
:10074000981761F0828DDF01A80FB11D5D968C9125
:10075000928D9F5F9F73928F90E008958FEF9FEF30
:100760000895FC01918D828D981731F0828DE80FEC
:10077000F11D858D90E008958FEF9FEF0895FC01A6
:10078000918D228D892F90E0805C9F4F821B910973
:100790008F73992708958EE892E00E94BF0321E0AD
:1007A000892B09F420E0822F0895FC01848DDF015C
:1007B000A80FB11DA35ABF4F2C91848D90E00196D4
:1007C0008F739927848FA689B7892C93A089B189C3
:1007D0008C9180648C93938D848D981306C00288CD
:1007E000F389E02D80818F7D80830895EF92FF92C1
:1007F0000F931F93CF93DF93EC0181E0888F9B8D44
:100800008C8D981305C0E889F989808185FD24C005
:10081000F62E0B8D10E00F5F1F4F0F731127E02E88
:100820008C8DE8120CC00FB607FCFACFE889F98965
:10083000808185FFF5CFCE010E94D503F1CF8B8D4E
:10084000FE01E80FF11DE35AFF4FF0820B8FEA899A
:10085000FB898081806207C0EE89FF896083E88917
:10086000F98980818064808381E090E0DF91CF917D
:100870001F910F91FF90EF900895CF93DF93EC01BC
:10088000888D8823C9F0EA89FB89808185FD05C0B0
:10089000A889B9898C9186FD0FC00FB607FCF5CFEA
:1008A000808185FFF2CFA889B9898C9185FFEDCF32
:1008B000CE010E94D503E7CFDF91CF91089580E06C
:1008C00090E0892B29F00E94CB0381110C94000049
:1008D0000895833081F028F4813099F08230A1F0BE
:1008E00008958730A9F08830B9F08430D1F4809130
:1008F00080008F7D03C0809180008F77809380007F
:10090000089584B58F7702C084B58F7D84BD089526
:100910008091B0008F7703C08091B0008F7D80936D
:10092000B00008953FB7F8948091640390916503F7
:10093000A0916603B091670326B5A89B05C02F3F21
:1009400019F00196A11DB11D3FBFBA2FA92F982FF5
:100950008827820F911DA11DB11DBC01CD0142E070
:10096000660F771F881F991F4A95D1F708951F9228
:100970000F920FB60F9211242F933F934F935F93D3
:100980006F937F938F939F93AF93BF93EF93FF9357
:100990008EE892E00E94D503FF91EF91BF91AF9155
:1009A0009F918F917F916F915F914F913F912F9187
:1009B0000F900FBE0F901F9018951F920F920FB6B9
:1009C0000F9211242F938F939F93EF93FF93E091B6
:1009D0009E02F0919F028081E091A402F091A50215
:1009E00082FD12C090818091A7028F5F8F7320914A
:1009F000A802821751F0E091A702F0E0E257FD4F04
:100A0000958F8093A70201C08081FF91EF919F9104
:100A10008F912F910F900FBE0F901F9018951F93DD
:100A2000CF93DF93282F30E0F901E054FF4F8491FA
:100A3000F901EA57FF4FD491F901EE58FF4FC491E5
:100A4000CC23C9F0162F81110E946904EC2FF0E02D
:100A5000EE0FFF1FE455FF4FA591B4918FB7F894A7
:100A6000111105C09C91ED2FE095E92302C0EC9196
:100A7000ED2BEC938FBFDF91CF911F910895CF9312
:100A8000DF9390E0FC01EA57FF4F2491FC01EE5800
:100A9000FF4F8491882361F190E0880F991FFC013A
:100AA000E859FF4FC591D491FC01E455FF4FA59142
:100AB000B491611109C09FB7F89488812095822371
:100AC0008883EC912E230BC0623061F49FB7F894B9
:100AD0003881822F809583238883EC912E2B2C9351
:100AE0009FBF06C08FB7F894E8812E2B28838FBF55
:100AF000DF91CF9108958230910538F0880F991FCA
:100B0000880F991F05970197F1F708958F929F928B
:100B1000AF92BF92CF92DF92EF92FF926B017C0176
:100B20000E9492044B015C01C114D104E104F10460
:100B3000F1F00E949204DC01CB0188199909AA09FD
:100B4000BB09883E9340A105B10570F321E0C21AAC
:100B5000D108E108F10888EE880E83E0981EA11CF8
:100B6000B11CC114D104E104F10419F7DDCFFF90E9
:100B7000EF90DF90CF90BF90AF909F908F900895AF
:100B80002FB7F894609160037091610380916203C4
:100B9000909163032FBF08951F920F920FB60F928B
:100BA00011242F933F938F939F93AF93BF93809183
:100BB000600390916103A0916203B091630330914F
:100BC0005F0323E0230F2D3720F40196A11DB11DF3
:100BD00005C026E8230F0296A11DB11D20935F03D7
:100BE0008093600390936103A0936203B0936303C7
:100BF0008091640390916503A0916603B0916703AF
:100C00000196A11DB11D8093640390936503A09389
:100C10006603B0936703BF91AF919F918F913F910E
:100C20002F910F900FBE0F901F9018958EBD000052
:100C30000DB407FEFDCF8EB50895CF93DF9300D09E
:100C400000D0CDB7DEB7789484B5826084BD84B51A
:100C5000816084BD85B5826085BD85B5816085BDB7
:100C600080916E00816080936E001092810080916F
:100C700081008260809381008091810081608093F7
:100C80008100809180008160809380008091B1001C
:100C900084608093B1008091B00081608093B00047
:100CA00080917A00846080937A0080917A008260DB
:100CB00080937A0080917A00816080937A0080919D
:100CC0007A00806880937A001092C100E0919E02C1
:100CD000F0919F0282E08083E0919A02F0919B0262
:100CE0001082E0919C02F0919D028FEC8083109223
:100CF000A602E091A202F091A30286E08083E09137
:100D0000A002F091A102808180618083E091A00225
:100D1000F091A102808188608083E091A002F0912F
:100D2000A102808180688083E091A002F091A102FD
:100D300080818F7D80838091490390914A03891738
:100D400019F061E00E943F0580914A0390914903A8
:100D5000981719F061E00E943F051FB7F894809141
:100D60008C02811127C0ECE7F0E08491E0E9F0E02B
:100D70009491E82FF0E0EE0FFF1FE859FF4FA59187
:100D8000B491EC91E92321F461E08AE00E940F051F
:100D900061E08AE00E943F058CB580618CBD8CB516
:100DA00080648CBD61E08DE00E943F0561E08BE0D6
:100DB0000E943F0580918C028F5F80938C021FBF41
:100DC00080E00E94340281E00E94540165E070E0FE
:100DD00080E090E00E9486056CE080E00E94A40123
:100DE0006FE584E00E94A40186E00E940502877DF1
:100DF000182F10628BE990E0A0E0B0E080935703D9
:100E000090935803A0935903B0935A03612F86E03F
:100E10000E94A40186E00E940502811709F4D3C153
:100E200086E00E94050286E00E94050245E550E04A
:100E300060E070E040935703509358036093590368
:100E400070935A03682F677D86E00E94A40186E0B4
:100E50000E9405020E94710180E50E94160683E748
:100E60000E9416060E946E0160E08DE10E94A401BE
:100E700060E08CE10E94A40160E787E00E94A40189
:100E80006CE485E00E94A4010E94710182EE0E9440
:100E900016060E946E010E9422020E943D0280E01E
:100EA0000E940502682F6E7F80E00E94A40168EC1A
:100EB00070E080E090E00E94860562E080913C0353
:100EC0000E943F0580E398EFAFEFBFEF80934003B0
:100ED00090934103A0934203B093430360E082E008
:100EE0000E943F0560E083E00E943F0560E084E0EF
:100EF0000E943F0560E085E00E943F0561E087E0D9
:100F00000E943F0561E088E00E943F0561E088E0C3
:100F10000E940F05809135039091360389329342E8
:100F200009F0B8C00BE213E0F801A080B1801A828A
:100F300019828DE592E00E943C0180E191E00E94DF
:100F40003C010E945703F80131812081932F990FB2
:100F5000990B492F592F692F792F892F0E9421032F
:100F6000F801808191819A838983CE0101960E9444
:100F7000C602882361F068EC70E080E090E00E9497
:100F8000860585E393E00E94C60281110CC0E980CA
:100F9000FA808DE592E00E943C0181E291E00E949E
:100FA000C200C7015AC01A821982F801C080D180DC
:100FB0003091360320913503932F990F990B492FC8
:100FC000592F692F792F892F0E9484020E944E0287
:100FD0000E94C0057B01F8E1EF1AFCEFFF0A270130
:100FE0000F2C000C6608770887E10E94050280FD3F
:100FF000EEC00E941C028823E1F0CE0101960E94FF
:10100000C10189819A818C159D0561F484E491E088
:101010000E943C018BE692E00E943C01C5010E94C7
:1010200085032FC08DE592E00E943C018CE591E0A4
:1010300011C00E94C0052701FF0C660877084616FC
:10104000570668067906E8F48DE592E00E943C01B7
:1010500086E991E00E94C200C6010E944A0186E131
:1010600092E00E943C0161E087E00E940F0568EE7B
:1010700073E080E090E00E94860560E087E00E94D7
:101080000F050E5F1F4F23E00533120709F04CCF09
:1010900010E06BC089EC91E00E943C011C821B8235
:1010A0001A8219823091360320913503932F990FBC
:1010B000990B492F592F692F792F892F0E9484026C
:1010C0000E944E0210E00E94C0057B01E0EDEE1A86
:1010D000EAE8FE0A27010F2C000C660877080E9438
:1010E0001C02811107C00E94C005641575058605A4
:1010F0009705A8F30E941C02882309F471C08EEDA5
:1011000091E00E943C01CE0103960E94C1010E9421
:10111000C0057B01F0EDEF1AFAE8FF0A27010F2C5A
:10112000000C660877080E941C02882309F47BC023
:101130000E941C02882309F47FC0CE0101960E9400
:10114000C1012B813C818091350390913603281792
:10115000390709F494C02B813C818091350390912B
:1011600036032817390709F0AECF10938D0260E0DF
:1011700088E00E940F058EE292E00E94C2008091FA
:101180008D0290E00E9485038CE392E00E943C0176
:1011900082E592E00E94C20080913503909136036F
:1011A0000E9485038FE592E00E943C010BE213E070
:1011B000F801819191918F010E948503F3E005333D
:1011C0001F07B1F7FFCF81E080934D0329CE0E9426
:1011D000C005641575058605970508F405CF09CF88
:1011E0000E94C0056701FF0CEE08FF08C616D7066F
:1011F000E806F90608F08BCF8DE592E00E943C01ED
:1012000080EF91E00E943C0161E087E00E940F05C1
:1012100068EE73E080E090E00E94860560E087E081
:101220000E940F0574CF0E94C005641575058605E0
:10123000970508F478CF7CCF0E94C0056701FF0CAA
:10124000EE08FF08C616D706E806F90608F079CFBB
:101250008DE592E00E943C0180EF91E00E943C010C
:1012600061E087E00E940F0568EE73E080E090E0A7
:101270000E94860560E087E00E940F0562CF0E9411
:10128000570330912C0320912B03932F990F990B27
:10129000492F592F692F792F892F0E94210389E126
:1012A00092E00E943C0185E393E00E94C602811116
:1012B00022C0E0902B03F0902C038DE592E00E9479
:1012C0003C0181E291E00E94C200C7010E944A01F4
:1012D00086E192E00E943C0161E087E00E940F05F8
:1012E00068EE73E080E090E00E94860560E087E0B1
:1012F0000E940F0530CF11E02ECF0F931F93CF9395
:10130000109291021092900288EE93E0A0E0B0E07B
:101310008093920290939302A0939402B0939502CB
:1013200084E091E090938F0280938E0285EC90E0B0
:1013300090939B0280939A0284EC90E090939D029C
:1013400080939C0280EC90E090939F0280939E0299
:1013500081EC90E09093A1028093A00282EC90E057
:101360009093A3028093A20286EC90E09093A50252
:101370008093A4021092A7021092A8021092A902D0
:101380001092AA0289E0809349038AE080934A037D
:1013900010924D0380E280934E0310924F0385E03C
:1013A0008093550385E090E0A0E0B0E080935B037C
:1013B00090935C03A0935D03B0935E03109250037F
:1013C00086E080933C038BE080933D03ECE8F0E003
:1013D000E491E0933E03E8E7F0E0E491E0933F031B
:1013E00080E89EE3A0E0B0E080934403909345033F
:1013F000A0934603B093470382E00E94EE0A8C015B
:1014000083E00E94EE0AC1E0892B09F4C0E084E089
:101410000E94EE0A21E0892B09F420E0012B39F427
:10142000C1110CC02223A1F08DE293E21CC0C111B6
:101430000AC0222381F08EE293E215C0222371F0CC
:101440008FE293E210C0222361F080E393E20BC0AD
:1014500089E293E208C08AE293E205C08BE293E25C
:1014600002C08CE293E29093360380933503893275
:1014700023E29207A9F09C012A523342233031051E
:1014800090F08D3223E2920789F08E3223E29207A8
:1014900081F08F3223E2920779F42EE233E20EC01C
:1014A0002AE233E20BC029E233E208C02CE233E245
:1014B00005C02DE233E202C02FE233E230932C0369
:1014C00020932B03AC014952534242305105C0F0E6
:1014D0009C012B5233422230310578F08D3223E2C9
:1014E000920771F08E3223E2920769F08F3223E285
:1014F000920761F42DE233E20BC02AE233E208C026
:101500002BE233E205C02CE233E202C02EE233E2EA
:1015100030932E0320932D034330510580F08C32FD
:1015200023E2920791F08D3223E2920759F08E3236
:1015300023E2920751F08F3223E2920749F42CE222
:1015400033E208C02AE233E205C02BE233E202C0F4
:101550002DE233E23093300320932F0344305105C2
:1015600078F08D3223E2920771F08E3223E29207F7
:1015700069F08F3223E2920761F42BE233E20BC071
:101580002DE233E208C02EE233E205C02AE233E264
:1015900002C02CE233E23093320320933103443013
:1015A000510560F09C012D5233422230310548F044
:1015B0008F32934249F08BE293E208C08EE293E2CD
:1015C00005C08FE293E202C08AE293E29093340373
:1015D00080933303CF911F910F910895CF93DF93A1
:1015E000282F30E0F901E054FF4F8491F901EA57C8
:1015F000FF4FD491F901EE58FF4FC491CC2391F0E5
:1016000081110E946904EC2FF0E0EE0FFF1FEA54F5
:10161000FF4FA591B491EC91ED2381E090E021F48E
:1016200080E002C080E090E0DF91CF910895A1E2D8
:101630001A2EAA1BBB1BFD010DC0AA1FBB1FEE1F4C
:10164000FF1FA217B307E407F50720F0A21BB30B97
:10165000E40BF50B661F771F881F991F1A9469F713
:1016600060957095809590959B01AC01BD01CF016F
:101670000895EE0FFF1F0590F491E02D099481E08D
:0C16800090E0F8940C94440BF894FFCF19
:10168C0000000000F6039500BF039D03B1033D0469
:10169C0053656E64696E672070696E67732E2E2EAB
:1016AC00004552524F5220303033212120556E616B
:1016BC00626C6520746F20636F6E74616374206854
:1016CC007562200052656365697665642061636BA1
:1016DC006E6F776C656467652E2E2E004552524FE7
:1016EC005220303038212120496E636F727265634D
:1016FC00742061636B6E6F776C656467656D656E86
:10170C00742070696E672072656369657665642004
:10171C0066726F6D20004552524F52203030372187
:10172C0021204E6F2061636B6E6F776C656467650B
:10173C006D656E742070696E67207265636965767D
:10174C0065642066726F6D200057616974696E67FD
:10175C0020666F722070696E67732E2E2E00526594
:10176C0063656976696E6720446174612E2E2E0064
:10177C004552524F522030303921212054696D6529
:10178C00206F757421204E6F2070696E6720726512
:10179C0063656976656421210053656E64696E67C3
:1017AC002050696E67206261636B2E2E2E0050698B
:1017BC006E67207374617475733A20002F2F2F2F6E
:1017CC002F2F2F2F2F2F2F2F2F2F2F2F2F2F2F2F1D
:1017DC002F004D7920416464726573733A20005276
:1017EC006561642052616E67653A00537563636589
:1017FC00737366756C20636F6E74616374207769A4
:0C180C0074682068756220000D0A00005E
:00000001FF
