:100000000C9445010C946D010C946D010C946D01E0
:100010000C946D010C946D010C946D010C946D01A8
:100020000C946D010C946D010C946D010C946D0198
:100030000C946D010C946D010C946D010C946D0188
:100040000C940F090C946D010C940E0C0C94400C44
:100050000C946D010C946D010C946D010C946D0168
:100060000C946D010C946D01504120506F776572B6
:1000700009203D2025530D0A00435243204C656E54
:1000800067746809203D2025530D0A004D6F646593
:100090006C0909203D2025530D0A0044617461203C
:1000A0005261746509203D2025530D0A0044594EC4
:1000B00050442F4645415455524500434F4E464902
:1000C000470052465F53455455500052465F4348DF
:1000D00000454E5F52584144445200454E5F4141F5
:1000E0000052585F50575F50302D360054585F41D2
:1000F0004444520052585F414444525F50322D35BF
:100100000052585F414444525F50302D31000D0A77
:1001100000253032780020307800255309256320EF
:100120003D000D0A00203078253032780025530933
:100130002563203D004F4253455256455F54583D7C
:10014000253032783A20504F4C535F434E543D2572
:1001500078204152435F434E543D25780D0A0053A9
:1001600054415455530909203D20307825303278C8
:100170002052585F44523D25782054585F44533DE7
:100180002578204D41585F52543D25782052585FC4
:10019000505F4E4F3D25782054585F46554C4C3D9E
:1001A00025780D0A0000010203040511121314152D
:1001B000160A0B0C0D0E0FD501CE01C701BF015061
:1001C000415F48494748004C415F4D45440050411C
:1001D0005F4C4F570050415F4D494E00F101EA011D
:1001E000E2013136206269747300382062697473E9
:1001F0000044697361626C6564000802FE016E521E
:100200004632344C30312B006E524632344C303151
:100210000025021F0217023235304B425053003284
:100220004D42505300314D42505300000000080031
:1002300002010000030407000000000000000001AC
:10024000020408102040800102040810200102046A
:10025000081020040404040404040402020202023C
:100260000203030303030300000000230026002908
:100270000000000000250028002B000000000024E2
:100280000027002A00006304700C11241FBECFEF6A
:10029000D8E0DEBFCDBF12E0A0E0B1E0E0E2FCE1DB
:1002A00002C005900D92A835B107D9F723E0A8E563
:1002B000B2E001C01D92AF30B207E1F712E0CAE828
:1002C000D2E004C02297FE010E940A0EC638D10770
:1002D000C9F70E94B40C0C940E0E0C9400001F93EE
:1002E000CF93DF9360ED77E080E090E00E94880993
:1002F00082E00E94A00AEC0183E00E94A00A11E0C3
:10030000892B09F410E084E00E94A00A21E0892BE7
:1003100009F420E0CD2B39F411110CC0211114C0C7
:1003200089E293E21CC011110AC0211110C08AE2B7
:1003300093E215C021110EC08BE293E210C021118F
:100340000CC08CE293E20BC08DE293E208C08EE217
:1003500093E205C08FE293E202C080E393E29093C0
:10036000010180930001DF91CF911F910895CF93F8
:10037000DF93EB018130910539F56BE472E082E7A0
:1003800092E00E940E0D62E071E082E792E00E942E
:100390000E0D67E271E082E792E00E940E0D61E0CF
:1003A00087E00E946A0A6CE271E080E090E00E94BF
:1003B000880960E087E00E946A0A6CE271E080E0F0
:1003C00090E00E948809EBCF8230910539F56BE40B
:1003D00072E082E792E00E940E0D67E371E082E72F
:1003E00092E00E940E0D69E571E082E792E00E94C2
:1003F0000E0D61E087E00E946A0A64EF71E080E020
:1004000090E00E94880960E087E00E946A0A64EF39
:1004100071E080E090E00E948809EBCF0397A1F59E
:1004200067E372E082E792E00E940E0D6EE771E0F2
:1004300082E792E00E94010D4AE050E0BE0182E7AF
:1004400092E00E94B90D6FE971E082E792E00E94AC
:100450000E0D67E271E082E792E00E940E0D61E00E
:1004600087E00E946A0A6CEB72E080E090E00E94F4
:10047000880960E087E00E946A0A6CEB72E080E025
:1004800090E00E948809EBCFDF91CF910895AF9261
:10049000BF92CF92DF92EF92FF920F931F93CF9371
:1004A000DF93CDB7DEB72A970FB6F894DEBF0FBE45
:1004B000CDBF85E0E7E2F2E0DE01169601900D92F5
:1004C0008A95E1F7CE0101965C0185E0F501119274
:1004D0008A95E9F780910001909101018932F3E258
:1004E0009F07F1F18A32934209F094C167E372E009
:1004F00082E792E00E940E0D69E072E082E792E0EE
:100500000E940E0D89E2E82E93E2F92E00E010E041
:1005100020E030E040E050E060E088E592E00E94BA
:10052000D80788E592E00E94500667E372E082E710
:1005300092E00E940E0D64ED71E082E792E00E946D
:10054000010D4AE050E069E273E282E792E00E9426
:10055000B90D6EEB71E082E792E00E94010DD2C00E
:1005600067E372E082E792E00E940E0D62EA71E0BA
:1005700082E792E00E940E0D1091010100910001AE
:10058000712F770F770B272F372F472F572F672F75
:1005900088E592E00E949C0788E592E00E9486062A
:1005A00067E372E082E792E00E940E0D62EB71E079
:1005B00082E792E00E94010D4AE050E06AE273E2B5
:1005C00082E792E00E94B90D6EEB71E082E792E063
:1005D0000E94010D0E9459096B01E8E1CE1AECEF6F
:1005E000DE0AEE24D7FCE094FE2C45E0BE016A5FF3
:1005F0007F4F88E592E00E944B0781110EC00E9458
:100600005909C616D706E806F90678F760E070E0E3
:1006100083E090E00E94B701E8CF67E372E082E7F1
:1006200092E00E940E0D63EC71E082E792E00E947E
:10063000010D4AE050E06AE273E282E792E00E9434
:10064000B90D2AE2E22E33E2F32E00E010E020E0C2
:1006500030E040E050E060E088E592E00E94D8079A
:1006600088E592E00E94500667E372E082E792E03C
:100670000E940E0D64ED71E082E792E00E94010D90
:100680004AE050E06AE273E282E792E00E94B90D2C
:100690006EEB71E082E792E00E94010D88E592E046
:1006A0000E9418078823D1F345E0B50188E592E060
:1006B0000E941C0767E372E082E792E00E940E0D41
:1006C000B50182E792E00E94010D67E372E082E7E4
:1006D00092E00E940E0D64EE71E082E792E00E94CB
:1006E000010D4AE050E06AE273E282E792E00E9484
:1006F000B90D67E372E082E792E00E940E0D6BEFA6
:1007000071E084C088E592E00E9418078823D1F345
:1007100045E0B50188E592E00E941C0767E372E0BE
:1007200082E792E00E940E0DB50182E792E00E94FE
:10073000010D1091010100910001712F770F770BCE
:10074000272F372F472F572F672F88E592E00E94DA
:100750009C0788E592E00E94860667E372E082E7E4
:1007600092E00E940E0D62EB71E082E792E00E943F
:10077000010D4AE050E069E273E282E792E00E94F4
:10078000B90D6EEB71E082E792E00E94010D0E94CC
:1007900059096B01F8E1CF1AFCEFDF0AEE24D7FC10
:1007A000E094FE2C45E0BE016A5F7F4F88E592E051
:1007B0000E944B0781110EC00E945909C616D70628
:1007C000E806F90678F760E070E083E090E00E94C8
:1007D000B701E8CF6BE472E082E792E00E940E0D71
:1007E00063EC71E082E792E00E94010D4AE050E084
:1007F00069E273E282E792E00E94B90D6BE472E075
:1008000082E792E00E940E0D69E172E082E792E0D9
:100810000E940E0D2A960FB6F894DEBF0FBECDBF14
:10082000DF91CF911F910F91FF90EF90DF90CF90CC
:10083000BF90AF90089526E040E855E260E070E098
:1008400082E792E00E94AC0B88E592E00E94BF082C
:1008500060E082E00E94310A60E083E00E94310A99
:1008600060E084E00E94310A60E085E00E94310A85
:1008700061E087E00E94310A0E946F0180910001CF
:10088000909101018F3027E2920719F0873293424D
:100890003CF460E070E081E090E00E94B70110C09D
:1008A0006CE272E082E792E00E940E0D609100011E
:1008B000709101014AE050E082E792E00E94C10D90
:1008C0000C94470208954AE069E088E592E00C94B0
:1008D0003606CF93CFB7F89480916802811127C074
:1008E000EDE5F2E08491E9E4F2E09491E82FF0E0A4
:1008F000EE0FFF1FE558FD4FA591B4918C91892310
:1009000021F461E08AE00E946A0A61E08AE00E94C4
:10091000310A8CB580618CBD8CB580648CBD61E082
:100920008DE00E94310A61E08BE00E94310A8091E3
:1009300068028F5F80936802CFBFCF9108958EBD0C
:1009400000000DB407FEFDCF8EB508952CB52F7DA8
:100950002CBD2CB5237F2CBD2CB52C7F2CBD2DB5EB
:100960002E7F2DBDFC0181810C946A0AFC018081DF
:100970000C946A0ACF92DF92EF92FF920F931F932B
:10098000CF93DF9300D0CDB7DEB78C01E62EF22EE9
:1009900060E070E049835A830E94A6048E2D8F7117
:1009A0000E949F04E82E4981C42E5A81D52EF40E50
:1009B000FC1439F08FEF0E949F04F60181936F01C0
:1009C000F7CF61E070E0C8010E94A6048E2D0F9061
:1009D0000F90DF91CF911F910F91FF90EF90DF90DB
:1009E000CF9008951F93CF93DF93EC01162F60E013
:1009F00070E00E94A604812F8F710E949F048FEFE8
:100A00000E949F04182F61E070E0CE010E94A604AE
:100A1000812FDF91CF911F910895CF92DF92EF92B6
:100A2000FF920F931F93CF93DF9300D0CDB7DEB724
:100A30008C01E62EF22E60E070E049835A830E941A
:100A4000A6048E2D8F7180620E949F04E82E49813A
:100A5000C42E5A81D52EF40EFC1431F0F60181918A
:100A60006F010E949F04F8CF61E070E0C8010E940E
:100A7000A6048E2D0F900F90DF91CF911F910F91B3
:100A8000FF90EF90DF90CF900895EF92FF921F9329
:100A9000CF93DF931F92CDB7DEB77C01162F60E0B6
:100AA00070E049830E94A604812F8F7180620E94AA
:100AB0009F04182F4981842F0E949F0461E070E0F9
:100AC000C7010E94A604812F0F90DF91CF911F9143
:100AD000FF90EF900895BF92CF92DF92EF92FF9236
:100AE0000F931F93CF93DF938C01D62EB72EFC016B
:100AF000C481F42EC41708F4FC2EF80186818111FC
:100B000003C0EC2EEF1801C0E12C60E070E0C801DA
:100B10000E94A60480EA0E949F04C82ECD2DDB2DE2
:100B2000FD0CFC1621F089910E949F04FACFCE2D76
:100B3000CC2329F080E00E949F04C150F9CF61E0EE
:100B400070E0C8010E94A6048C2DDF91CF911F9107
:100B50000F91FF90EF90DF90CF90BF900895BF92DC
:100B6000CF92DF92EF92FF920F931F93CF93DF9379
:100B70008C01D62EB72EFC01C481F42EC41708F4C4
:100B8000FC2EF8018681811103C0EC2EEF1801C004
:100B9000E12C60E070E0C8010E94A60481E60E949A
:100BA0009F04C82ECD2DDB2DFD0CFC1629F08FEFF8
:100BB0000E949F048993F9CFCE2DCC2329F08FEF8B
:100BC0000E949F04C150F9CF61E070E0C8010E940B
:100BD000A6048C2DDF91CF911F910F91FF90EF9084
:100BE000DF90CF90BF9008951F93CF93DF93EC01D8
:100BF00060E070E00E94A60482EE0E949F04182F1D
:100C000061E070E0CE010E94A604812FDF91CF91B8
:100C10001F9108951F93CF93DF93EC0160E070E084
:100C20000E94A60481EE0E949F04182F61E070E0EC
:100C3000CE010E94A604812FDF91CF911F910895CC
:100C40001F93CF93DF93EC0160E070E00E94A60455
:100C50008FEF0E949F04182F61E070E0CE010E9488
:100C6000A604812FDF91CF911F910895FC0160832D
:100C7000418381E08283138280E28483158216821D
:100C80001086118612861386148615861686178698
:100C90000895462F603808F04FE765E00C9445054D
:100CA000CF93DF93EC0160E00E94F204482F436091
:100CB00060E0CE010E94450540E767E0CE010E945A
:100CC0004505288539854A855B856C857D858E85BA
:100CD0009F85A0E00E94FC0D41F025E0AE01485F39
:100CE0005F4F6AE0CE010E940D05CE010E94F4051F
:100CF000CE010E940A0661E070E0CE010E94B604B7
:100D000082E890E0DF91CF910C94C209CF93DF93FA
:100D1000EC0160E070E00E94B604CE010E940A0679
:100D2000CE01DF91CF910C94F405CF93DF93EC01CA
:100D300060E00E94F204482F4D7F60E0CE01DF9119
:100D4000CF910C944505FF920F931F93CF93DF93A0
:100D5000EC018B01F42E60E00E94F204482F4C7FDE
:100D6000426060E0CE010E94450586E990E00E9465
:100D7000C2094F2DB801CE010E946B0561E070E001
:100D8000CE010E94B6048FE090E00E94C20960E0AC
:100D900070E0CE01DF91CF911F910F91FF900C94E5
:100DA000B6041F93CF93DF93EC0160E070E00E94E4
:100DB000A60480E60E949F048FEF0E949F04182FD4
:100DC00061E070E0CE010E94A604812FDF91CF91F7
:100DD0001F910895EF92FF920F931F93CF93DF938C
:100DE000EC018B010E942006F82E86FBEE24E0F831
:100DF00086FF16C00115110539F0282F30E0359512
:100E000027952770F801208340E467E0CE010E9417
:100E10004505F5FE05C040E267E0CE010E944505AC
:100E20008E2DDF91CF911F910F91FF90EF9008953C
:100E300060E070E00C94EA06CF93DF93EC010E942F
:100E4000AF0567E1CE010E94F2048170DF91CF917E
:100E50000895EF92FF920F931F93CF93DF93EB01CF
:100E60008A01790140E767E00E94450585FB9927E3
:100E700090F9988384FB992790F9F801908386FB79
:100E8000882780F9F7018083DF91CF911F910F911F
:100E9000FF90EF900895CF92DF92EF92FF920F9321
:100EA0001F93CF93DF9300D01F92CDB7DEB78C0195
:100EB0000E94A3060E9459096B017C0121E0AE014A
:100EC0004D5F5F4F68E0C8010E94BA04807359F417
:100ED0000E9459096C197D098E099F09643F714070
:100EE0008105910558F398012B5F3F4FAE014F5F8D
:100EF0005F4FBE016E5F7F4FC8010E942907FA80D5
:100F0000F8018581882329F0C8010E94D106F801E3
:100F10008783C8010E949506C8010E940A068F2D8A
:100F20000F900F900F90DF91CF911F910F91FF9035
:100F3000EF90DF90CF900895EF92FF920F931F9361
:100F4000CF93DF93CDB7DEB728970FB6F894DEBF07
:100F50000FBECDBF7C0109831A832B833C834D8355
:100F60005E836F83788725E0AE014F5F5F4F6AE055
:100F70000E940D0525E0AE014F5F5F4F60E1C701A4
:100F80000E940D05F7014481413208F040E261E121
:100F9000C7010E94450528960FB6F894DEBF0FBE24
:100FA000CDBFDF91CF911F910F91FF90EF900895EA
:100FB000BF92CF92DF92EF92FF920F931F93CF9346
:100FC000DF93CDB7DEB728970FB6F894DEBF0FBE1C
:100FD000CDBF6C01B62EE982FA820B831C832D8370
:100FE0003E834F83588761110AC0F601E086F1867F
:100FF00002871387248735874687578707C0F6E01F
:10100000F61708F435C081E0681307C0EB2DF0E057
:10101000EF54FE4F649125E006C0E62FF0E0EF5458
:10102000FE4F649121E0AE014F5F5F4FC6010E9409
:101030000D050B2D10E0F801E555FE4F6491F6010A
:101040004481C6010E94450562E0C6010E94F20487
:10105000F801EB55FE4F049121E030E001C0220F72
:101060000A95EAF7822B482F62E0C6010E944505E7
:1010700028960FB6F894DEBF0FBECDBFDF91CF919B
:101080001F910F91FF90EF90DF90CF90BF90089548
:101090000F931F93CF93DF938C01EB0166E00E94C7
:1010A000F204482F497FC330D10561F0C230D10529
:1010B00011F4446008C0C130D10511F4426003C08E
:1010C000249709F4466066E0C801DF91CF911F9133
:1010D0000F910C944505EF92FF920F931F93CF93BE
:1010E000DF931F92CDB7DEB77C018B0166E00E94D3
:1010F000F204F7011282282F277D0230110511F426
:10110000206207C00130110521F481E0F7018283DC
:101110002860422F66E0C70129830E94450566E0EA
:10112000C7010E94F2042981821721F0F70112827F
:1011300080E001C081E00F90DF91CF911F910F916E
:10114000FF90EF9008950F931F93CF93DF93EC01DF
:101150008B0160E00E94F204482F437F01151105C6
:1011600031F00130110511F4486001C04C6060E0BD
:10117000CE01DF91CF911F910F910C944505CF9334
:10118000DF93EC0161E088810E94310A61E089818E
:101190000E94310A0E94690460E070E0CE010E9462
:1011A000B60461E070E0CE010E94A60465E070E044
:1011B00080E090E00E9488094FE464E0CE010E9444
:1011C000450563E070E0CE010E94480862E070E0EF
:1011D000CE010E946B08882311F081E08B8360E0D0
:1011E00070E0CE010E946B0862E070E0CE010E94C8
:1011F000A30840E06CE1CE010E94450540E767E0AE
:10120000CE010E9445056CE4CE010E944906CE0144
:101210000E94F405CE01DF91CF910C940A061F9233
:101220000F920FB60F9211242F933F938F939F939A
:10123000AF93BF9380916A0290916B02A0916C0270
:10124000B0916D023091690223E0230F2D3720F415
:101250000196A11DB11D05C026E8230F0296A11D10
:10126000B11D2093690280936A0290936B02A09350
:101270006C02B0936D0280916E0290916F02A0910A
:101280007002B09171020196A11DB11D80936E0292
:1012900090936F02A0937002B0937102BF91AF91CF
:1012A0009F918F913F912F910F900FBE0F901F90A4
:1012B00018952FB7F89460916A0270916B02809133
:1012C0006C0290916D022FBF08953FB7F894809102
:1012D0006E0290916F02A0917002B091710226B5DA
:1012E000A89B05C02F3F19F00196A11DB11D3FBF5E
:1012F0006627782F892F9A2F620F711D811D911DEE
:1013000042E0660F771F881F991F4A95D1F708950D
:101310008F929F92AF92BF92CF92DF92EF92FF9205
:101320006B017C010E9465094B015C01C114D10471
:10133000E104F104F1F00E94D90D0E9465096819D9
:1013400079098A099B09683E73408105910570F30C
:1013500021E0C21AD108E108F10888EE880E83E086
:10136000981EA11CB11CC114D104E104F10429F799
:10137000DDCFFF90EF90DF90CF90BF90AF909F9028
:101380008F9008958230910538F0880F991F880F4B
:10139000991F05970197F1F70895789484B58260B5
:1013A00084BD84B5816084BD85B5826085BD85B509
:1013B000816085BDEEE6F0E0808181608083E1E8B8
:1013C000F0E01082808182608083808181608083F0
:1013D000E0E8F0E0808181608083E1EBF0E08081F3
:1013E00084608083E0EBF0E0808181608083EAE7C5
:1013F000F0E080818460808380818260808380814E
:10140000816080838081806880831092C10008950C
:10141000833081F028F4813099F08230A1F0089572
:101420008730A9F08830B9F08430D1F48091800001
:101430008F7D03C0809180008F7780938000089516
:1014400084B58F7702C084B58F7D84BD0895809167
:10145000B0008F7703C08091B0008F7D8093B00083
:101460000895CF93DF9390E0FC01E15CFD4F249160
:10147000FC01ED5AFD4F8491882349F190E0880FDB
:10148000991FFC01E558FD4FA591B4918F589D4FD0
:10149000FC01C591D4919FB7611108C0F8948C915B
:1014A000209582238C93888182230AC0623051F474
:1014B000F8948C91322F309583238C938881822BE2
:1014C000888304C0F8948C91822B8C939FBFDF910A
:1014D000CF9108950F931F93CF93DF931F92CDB7B2
:1014E000DEB7282F30E0F901E55DFD4F8491F90169
:1014F000E15CFD4F1491F901ED5AFD4F0491002379
:10150000C9F0882321F069830E94080A6981E02FCD
:10151000F0E0EE0FFF1FEF58FD4FA591B4919FB77C
:10152000F8948C91611103C01095812301C0812B27
:101530008C939FBF0F90DF91CF911F910F910895D2
:10154000CF93DF93282F30E0F901E55DFD4F8491C3
:10155000F901E15CFD4FD491F901ED5AFD4FC491C1
:10156000CC2391F081110E94080AEC2FF0E0EE0FDD
:10157000FF1FE959FD4FA591B4912C912D2381E0D6
:1015800090E021F480E002C080E090E0DF91CF9114
:101590000895FC01818D228D90E0805C9F4F821B1D
:1015A00091098F7399270895FC01918D828D981769
:1015B00031F0828DE80FF11D858D90E008958FEF59
:1015C0009FEF0895FC01918D828D981761F0828DB7
:1015D000DF01A80FB11D5D968C91928D9F5F9F7367
:1015E000928F90E008958FEF9FEF089586E69CE03C
:1015F000892B49F080E090E0892B29F00E94660C4D
:1016000081110C9400000895FC01848DDF01A80F66
:10161000B11DA35ABF4F2C91848D90E001968F731A
:101620009927848FA689B7892C93A089B1898C9139
:1016300080648C93938D848D981306C00288F389FF
:10164000E02D80818F7D80830895CF93DF93EC011F
:10165000888D8823C9F0EA89FB89808185FD05C0D2
:10166000A889B9898C9186FD0FC00FB607FCF5CF0C
:10167000808185FFF2CFA889B9898C9185FFEDCF54
:10168000CE010E94040BE7CFDF91CF910895CF9256
:10169000DF92FF920F931F93CF93DF931F92CDB7EB
:1016A000DEB76C0181E0D60158968C9358975B9613
:1016B0009C915B975C968C915C97981307C05096B1
:1016C000ED91FC915197808185FD2EC0F601038D2F
:1016D00010E00F5F1F4F0F731127F02EF601848D5E
:1016E000F81211C00FB607FCF9CFD6015096ED9154
:1016F000FC915197808185FFF1CFC60169830E94DB
:10170000040B6981EBCF838DE80FF11DE35AFF4F86
:101710006083D6015B960C935B975296ED91FC919A
:101720005397808180620CC0D6015696ED91FC9152
:10173000579760835096ED91FC915197808180641A
:10174000808381E090E00F90DF91CF911F910F9106
:10175000FF90DF90CF900895BF92CF92DF92EF92EB
:10176000FF92CF93DF93EC016A017B01B22EE889EF
:10177000F98982E08083411581EE58076105710582
:10178000A1F060E079E08DE390E0A70196010E946E
:10179000DA0D215031094109510956954795379580
:1017A0002795211580E1380798F0E889F98910829A
:1017B00060E874E88EE190E0A70196010E94DA0DDE
:1017C000215031094109510956954795379527957B
:1017D000EC85FD853083EE85FF852083188EEC89AE
:1017E000FD89B082EA89FB89808180618083EA89F2
:1017F000FB89808188608083EA89FB898081806899
:101800008083EA89FB8980818F7D8083DF91CF91FE
:10181000FF90EF90DF90CF90BF9008951F920F92AE
:101820000FB60F9211242F938F939F93EF93FF93F3
:10183000E0918202F09183028081E0918802F09130
:10184000890282FD12C0908180918B028F5F8F731D
:1018500020918C02821751F0E0918B02F0E0EE585B
:10186000FD4F958F80938B0201C08081FF91EF9196
:101870009F918F912F910F900FBE0F901F901895F1
:101880001F920F920FB60F9211242F933F934F93F5
:101890005F936F937F938F939F93AF93BF93EF93D8
:1018A000FF9382E792E00E94040BFF91EF91BF91BA
:1018B000AF919F918F917F916F915F914F913F91E8
:1018C0002F910F900FBE0F901F90189582E792E016
:1018D0000E94C90A21E0892B09F420E0822F089593
:1018E000109275021092740288EE93E0A0E0B0E0CE
:1018F0008093760290937702A0937802B093790256
:101900008DE392E0909373028093720285EC90E0F5
:1019100090937F0280937E0284EC90E0909381020A
:101920008093800280EC90E0909383028093820207
:1019300081EC90E0909385028093840282EC90E0A9
:10194000909387028093860286EC90E090938902C0
:101950008093880210928B0210928C0210928D025A
:1019600010928E02089508950E94CD090E94B30C32
:101970000E941B04C6EFDAE00E9462042097E1F3A4
:101980000E94F60AF9CFCF92DF92EF92FF920F9367
:101990001F93CF93DF937C016A01EB0100E010E01D
:1019A0000C151D0571F06991D701ED91FC91019025
:1019B000F081E02DC7010995892B19F00F5F1F4FAA
:1019C000EFCFC801DF91CF911F910F91FF90EF9062
:1019D000DF90CF9008956115710581F0DB010D90C6
:1019E0000020E9F7AD0141505109461B570BDC01BE
:1019F000ED91FC910280F381E02D099480E090E06C
:101A000008950C94EB0CDC01ED91FC910190F081B8
:101A1000E02D099469E472E00C94EB0C0F931F9392
:101A2000CF93DF93EC010E94EB0C8C01CE010E945E
:101A30000A0D800F911FDF91CF911F910F91089593
:101A40008F929F92AF92BF92DF92EF92FF920F938D
:101A50001F93CF93DF93CDB7DEB7A1970FB6F8945E
:101A6000DEBF0FBECDBF7C01F42FD52ECB0119A256
:101A7000223008F42AE08E010F5D1F4F822E912C38
:101A8000A12CB12C6F2F7D2DA50194010E94DA0DA0
:101A9000F22FD32ECA01015011096A3014F4E0E389
:101AA00001C0E7E3E60FD801EC93232B242B252B71
:101AB00049F7B801C7010E94EB0CA1960FB6F89444
:101AC000DEBF0FBECDBFDF91CF911F910F91FF9071
:101AD000EF90DF90BF90AF909F908F900895CF923E
:101AE000DF92EF92FF920F931F93CF93DF93EC015E
:101AF0006A017B012115310579F4E881F9810190B2
:101B0000F081E02D642FDF91CF911F910F91FF9015
:101B1000EF90DF90CF9009942A303105E9F477FFF8
:101B20001AC06DE20E94030D8C0144275527BA01AB
:101B30004C195D096E097F092AE0CE010E94200D33
:101B4000800F911FDF91CF911F910F91FF90EF9028
:101B5000DF90CF9008952AE0B701A601CE01DF9172
:101B6000CF911F910F91FF90EF90DF90CF900C9449
:101B7000200D9A01AB01662757FD6095762F0C94D6
:101B80006F0D0F931F93CF93DF93EC019A01AB017D
:101B9000662757FD6095762F0E946F0D8C01CE0150
:101BA0000E940A0D800F911FDF91CF911F910F911D
:101BB00008950895A1E21A2EAA1BBB1BFD010DC0BA
:101BC000AA1FBB1FEE1FFF1FA217B307E407F507ED
:101BD00020F0A21BB30BE40BF50B661F771F881FC9
:101BE000991F1A9469F760957095809590959B015F
:101BF000AC01BD01CF0108950024A7FD00942A1770
:101C00003005400550056005700580059005089574
:101C1000EE0FFF1F0590F491E02D0994F894FFCF8B
:101C20000F274552524F522030303121212053741A
:101C30006174696F6E2061646472657373206E6F86
:101C400074207365742100506C6561736520726542
:101C5000737461727421004552524F5220303032F9
:101C60002121205049522073656E736F72206E6F70
:101C70007420666F756E642100506C656173652019
:101C8000636865636B20636F6E6E656374696F6E06
:101C900020616E6420726573746172742100455214
:101CA000524F52203030332121204D6573736167CC
:101CB00065206E6F742073656E7420746F20002130
:101CC0002100636173652039303031207374617293
:101CD000740053656E64696E6720746F2000202E57
:101CE0002E2E004D6573736167652073656E7420D9
:101CF000746F2000526563656976696E672066724D
:101D00006F6D20004D657373616765205265636573
:101D1000697665642066726F6D200063617365206B
:101D20003930303120454E440063617365203930CD
:101D300030322073746172740063617365203930CE
:101D4000303220454E440070696E67004164647211
:101D50006573732069733A200000000000470BC3CD
:101D60000CC90AE20AD40A250B0D0A006E616E0046
:081D7000696E66006F766600E3
:00000001FF
